:100000000C9446000C9465000C9465000C946500FB
:100010000C9465000C9465000C9465000C94AB4541
:100020000C9465000C9465000C9465000C947E4B58
:100030000C94E44B0C9465000C9465000C94842D96
:100040000C9465000C9465000C9449210C94650097
:100050000C9465000C94F5360C9465000C946500C6
:100060000C9465000C9465000C9465000C9465007C
:100070000C9465000C9465000C9465000C9465006C
:100080000C9465000C9465000C94650011241FBE4F
:10009000CFEFD0E1DEBFCDBF11E0A0E0B1E0ECE1F9
:1000A000FEE201E00BBF02C007900D92A636B10739
:1000B000D9F71AE0A6E6B1E001C01D92A731B10759
:1000C000E1F70E940C630C940D970C940000CF9301
:1000D000DF93CDB7DEB71092E9038091E9038093F7
:1000E000E8038091E8038093E703DF91CF910895BF
:1000F000CF93DF93CDB7DEB722970FB6F894DEBF6C
:100100000FBECDBF87EE93E09A83898389819A8160
:1001100022960FB6F894DEBF0FBECDBFDF91CF9110
:100120000895CF93DF93CDB7DEB78EEE93E0DF91E6
:10013000CF910895CF93DF93CDB7DEB782EE93E0F2
:10014000DF91CF910895CF93DF93CDB7DEB722979C
:100150000FB6F894DEBF0FBECDBF82EE93E02EEE59
:1001600033E0BC01C9010E94DA029A838983E091DD
:10017000EC03F091ED0389819A81948F838F61E084
:1001800087E00E94A18A22960FB6F894DEBF0FBEC8
:10019000CDBFDF91CF910895CF93DF93CDB7DEB779
:1001A00080918508909186089093ED038093EC03ED
:1001B00083EA90E065E00E940C7FDF91CF91089583
:1001C000CF93DF93CDB7DEB78091E0039091E10349
:1001D0000E94790362E087E00E94A18ADF91CF91BB
:1001E0000895CF93DF93CDB7DEB7E0918508F09106
:1001F0008608838D948D9093E1038093E00380EED5
:1002000090E065E00E940C7FDF91CF910895CF933D
:10021000DF93CDB7DEB78091EA039091EB03209195
:10022000050430910604E091E003F091E103AC0194
:10023000B901CF010E944B0563E087E00E94A18ACB
:10024000DF91CF910895CF93DF93CDB7DEB7E091E3
:100250008508F0918608838D948D9093E1038093B7
:10026000E003E0918508F0918608858D968D909346
:10027000060480930504E0918508F0918608878D37
:1002800090A19093EB038093EA0387E091E065E00F
:100290000E940C7FDF91CF910895CF93DF93CDB76C
:1002A000DEB78091EA039091EB0320910504309131
:1002B0000604E091E003F091E103AC01B901CF0144
:1002C0000E94E70664E087E00E94A18ADF91CF9157
:1002D0000895CF93DF93CDB7DEB7E0918508F09115
:1002E0008608838D948D9093E1038093E003E091E1
:1002F0008508F0918608858D968D909306048093ED
:100300000504E0918508F0918608878D90A190936F
:10031000EB038093EA038DE491E065E00E940C7F9B
:10032000DF91CF910895CF93DF93CDB7DEB7E09102
:100330008508F0918608838D948D9093E1038093D6
:10034000E003E0918508F0918608858D968D909365
:10035000040480930304E0918508F0918608878D5A
:1003600090A19093DF038093DE032091DE03309110
:10037000DF038091030490910404AA2797FDA095C0
:10038000BA2FE091E003F091E103AC01BD01CF0190
:100390000E949603DF91CF910895CF93DF93CDB75D
:1003A000DEB722970FB6F894DEBF0FBECDBF80E058
:1003B00090E00E9411108130910529F481E090E0D5
:1003C0009A83898302C01A82198289819A8122962E
:1003D0000FB6F894DEBF0FBECDBFDF91CF91089569
:1003E000CF93DF93CDB7DEB722970FB6F894DEBF79
:1003F0000FBECDBF1A82198214C089819A81880FDD
:10040000991F9C01220F331F220F331F820F931F4E
:10041000FC01E95FFB4F108289819A8101969A83E2
:10042000898389819A81883091053CF322960FB6A1
:10043000F894DEBF0FBECDBFDF91CF910895CF936B
:10044000DF93CDB7DEB722970FB6F894DEBF0FBEAD
:10045000CDBF1A82198216C089819A81880F991F8F
:100460009C01220F331F220F331F820F931FFC01A9
:10047000E95FFB4F8081882351F089819A81019641
:100480009A83898389819A81883091052CF38981A7
:100490009A81880F991F9C01220F331F220F331F4F
:1004A000820F931FFC01E95FFB4F81E0808389810C
:1004B0009A814981880F991F9C01220F331F220FB7
:1004C000331F820F931FFC01E85FFB4F408369815C
:1004D0007A8149815A81CA01880F991F9C01220F94
:1004E000331F220F331F820F931FFC01E65FFB4F68
:1004F0001082CA01880F991F9C01220F331F220FFF
:10050000331F820F931FFC01E65FFB4F4081CB013D
:10051000880F991F9C01220F331F220F331F820F58
:10052000931FFC01E75FFB4F408389819A81880F0D
:10053000991F9C01220F331F220F331F820F931F1D
:10054000FC01E35FFB4F8FEF9FEFAFEFBFEF8083C7
:100550009183A283B38389819A8122960FB6F894FE
:10056000DEBF0FBECDBFDF91CF910895CF93DF9354
:10057000CDB7DEB722970FB6F894DEBF0FBECDBF62
:100580009A83898389819A81880F991F9C01220F00
:10059000331F220F331F820F931FFC01E95FFB4FB4
:1005A000108222960FB6F894DEBF0FBECDBFDF914A
:1005B000CF910895CF93DF93CDB7DEB764970FB691
:1005C000F894DEBF0FBECDBF988B8F877A8B698B77
:1005D000CE010D962F853889BC01C9010E94731880
:1005E0009C878B8789899A890E94BA0F9A87898705
:1005F00089859A85009719F41C8A1B8A6FC08B85A0
:100600009C852FEF8F3F920719F41C8A1B8A66C0C6
:100610008D859E850097D1F589859A8582309105D3
:1006200091F58F8598890E94640F9C838B838B85BD
:100630009C852B813C81BC01C9010E940618992729
:1006400098878F830E941F029E838D8389859A8558
:100650002D813E81EF81F885AC01B901CF010E9467
:10066000D5198D819E819C01220F331FC901880FEE
:10067000991F880F991F820F931F9C01295F3B4F81
:100680003C8B2B8B2BC01C8A1B8A28C08D859E859A
:100690008230910519F01C8A1B8A20C00E941F021B
:1006A0009A83898389859A8529813A81EB85FC859E
:1006B000AC01B901CF010E94D51989819A819C01B1
:1006C000220F331FC901880F991F880F991F820FAE
:1006D000931F9C01295F3B4F3C8B2B8B8B899C8903
:1006E00064960FB6F894DEBF0FBECDBFDF91CF91F9
:1006F0000895CF93DF93CDB7DEB722970FB6F89466
:10070000DEBF0FBECDBF9A838983E981FA818181E3
:1007100099270E94B6021A82198222960FB6F8947F
:10072000DEBF0FBECDBFDF91CF910895CF93DF9392
:10073000CDB7DEB72C970FB6F894DEBF0FBECDBF96
:100740009C838B834D835E836F8378873A87298769
:1007500089859A85009711F5EB81FC8184819581CB
:100760009C01442755278D819E81AF81B88528172C
:1007700039074A075B072CF48FEF9FEF9C878B8725
:100780009EC0EB81FC818D819E81AF81B88586837F
:100790009783A087B1871C861B8691C0EB81FC8163
:1007A00086819781A085B1859A83898389859A8579
:1007B00081309105A1F4EB81FC8126813781408550
:1007C00051858D819E81AF81B885820F931FA41FB3
:1007D000B51FEB81FC8186839783A087B187EB816E
:1007E000FC8186819781A085B185BB238CF0EB814C
:1007F000FC812681378140855185EB81FC81848194
:100800009581AA27BB2782179307A407B5078CF405
:1008100089819A81AA2797FDA095BA2FEB81FC8147
:1008200086839783A087B1878FEF9FEF9C878B8705
:1008300046C089859A8582309105A9F4EB81FC81B7
:10084000848195819C01442755278D819E81AF81AC
:10085000B885820F931FA41FB51FEB81FC8186838F
:100860009783A087B187EB81FC8186819781A085E2
:10087000B185BB238CF0EB81FC81268137814085DB
:100880005185EB81FC8184819581AA27BB27821742
:100890009307A407B5078CF489819A81AA2797FD4D
:1008A000A095BA2FEB81FC8186839783A087B187BF
:1008B0008FEF9FEF9C878B8702C01C861B868B85E2
:1008C0009C852C960FB6F894DEBF0FBECDBFDF918E
:1008D000CF910895CF93DF93CDB7DEB728970FB6AA
:1008E000F894DEBF0FBECDBF9E838D83CE010396ED
:1008F0002D813E81BC01C9010E9473189A838983AE
:1009000089819A812FEF8F3F920721F08B819C8103
:10091000009729F48FEF9FEF98878F8304C0898118
:100920009A8198878F838F81988528960FB6F8943F
:10093000DEBF0FBECDBFDF91CF910895CF93DF9380
:10094000CDB7DEB728970FB6F894DEBF0FBECDBF88
:100950009E838D83CE0103962D813E81BC01C9010A
:100960000E9473189A83898389819A812FEF8F3F20
:10097000920729F48FEF9FEF98878F8316C08B81A2
:100980009C81009771F48D819E810E94640F9C016F
:1009900089819A81BC01C9010E94BE1718861F82F5
:1009A00004C08FEF9FEF98878F838F81988528965B
:1009B0000FB6F894DEBF0FBECDBFDF91CF91089583
:1009C000CF93DF93CDB7DEB726970FB6F894DEBF8F
:1009D0000FBECDBF9C838B838B819C810E946A0458
:1009E0009A83898389819A812FEF8F3F920729F417
:1009F0008FEF9FEF9E838D8306C089819A810E942D
:100A000052121E821D828D819E8126960FB6F89409
:100A1000DEBF0FBECDBFDF91CF910895CF93DF939F
:100A2000CDB7DEB70E94911FDF91CF910895CF938C
:100A3000DF93CDB7DEB70E946E1DDF91CF91089591
:100A4000CF93DF93CDB7DEB722970FB6F894DEBF12
:100A50000FBECDBF1A82198210C089819A810E946F
:100A600011101816190624F489819A810E948E119A
:100A700089819A8101969A83898389819A818136B5
:100A800091055CF322960FB6F894DEBF0FBECDBF82
:100A9000DF91CF910895CF93DF93CDB7DEB76B97FA
:100AA0000FB6F894DEBF0FBECDBF9F878E87798BC0
:100AB000688B5B8B4A8BEE85FF852681378140856D
:100AC00051858A899B89AA2797FDA095BA2F280F5F
:100AD000391F4A1F5B1FEE85FF8584819581AA27F8
:100AE000BB2782179307A407B5072CF42FEF3FEF1E
:100AF0003D8B2C8B61C1EE85FF8586819781A0851A
:100B0000B18520E038E040E050E0BC01CD010E941A
:100B10007E96DA01C9019D878C87EE85FF85268147
:100B20003781408551858A899B89AA2797FDA095A1
:100B3000BA2F820F931FA41FB51F0197A109B109F6
:100B400020E038E040E050E0BC01CD010E947E96FC
:100B5000DA01C9019B878A872C853D858A859B851B
:100B60002817390709F055C0EE85FF8586819781E2
:100B7000A085B18520E038E040E050E0BC01CD0127
:100B80000E947E96DC01CB019C838B838B819C81B0
:100B900020E031E0B9010E9449969A8389838B81D4
:100BA0009C819F8B8E8B4E895F89552334F48E896F
:100BB0009F8981509F4F9F8B8E8B2E893F89832FDA
:100BC000992787FD9A959E838D839C85EE85FF8569
:100BD0008281692F0E94B51A8987898599279C018E
:100BE000220F331F220F331F220F331F8D819E814F
:100BF000820F931F08979E838D8369818A899B89C1
:100C000048895989ED81FE819C01CF010E94947E23
:100C1000D1C0EE85FF8586819781A085B18520E0D2
:100C200038E040E050E0BC01CD010E947E96DC013E
:100C3000CB019C838B838B819C8120E031E0B901C7
:100C40000E9449969A8389838B819C81998F888F92
:100C5000488D598D552334F4888D998D81509F4F3F
:100C6000998F888F288D398D832F992787FD9A95A5
:100C70009E838D839C85EE85FF858281692F0E94EE
:100C8000B51A8987898599279C01220F331F220F66
:100C9000331F220F331F8D819E81820F931F089770
:100CA0009E838D8320E031E089819A81A901481BD0
:100CB000590BCA0198878F8369818F8198854889EC
:100CC0005989ED81FE819C01CF010E94947E288983
:100CD00039898F819885820F931F998B888BEE8538
:100CE000FF8526813781408551858A899B89AA277E
:100CF00097FDA095BA2F820F931FA41FB51F0197D0
:100D0000A109B10920E038E040E050E0BC01CD018C
:100D10000E947E96DC01CB019C838B838B819C811E
:100D200020E031E0B9010E9449969A8389838B8142
:100D30009C819B8F8A8F8A8D9B8D992334F42A8D79
:100D40003B8D21503F4F3B8F2A8F4A8D5B8D852FE6
:100D5000992787FD9A959E838D839A85EE85FF85D9
:100D60008281692F0E94B51A8987898599279C01FC
:100D7000220F331F220F331F220F331F8D819E81BD
:100D8000820F931F08979E838D832A893B898F81C9
:100D90009885A901481B590BCA0198878F838F81B9
:100DA000988548895989ED81FE819C0160E0CF01D9
:100DB0000E94947E1D8A1C8A8C899D896B960FB631
:100DC000F894DEBF0FBECDBFDF91CF910895CF93D2
:100DD000DF93CDB7DEB76B970FB6F894DEBF0FBECB
:100DE000CDBF998B888B7B8B6A8B5D8B4C8BE88915
:100DF000F98926813781408551858C899D89AA276B
:100E000097FDA095BA2F280F391F4A1F5B1FE8894D
:100E1000F98984819581AA27BB2782179307A407A4
:100E2000B5070CF073C0E889F98984819581892F11
:100E30009927869586958695982F8827990F990FDB
:100E4000990F9A838983E889F989848195819770BC
:100E5000009731F089819A818050984F9A838983D5
:100E6000E889F98926813781408551858C899D895A
:100E7000AA2797FDA095BA2F280F391F4A1F5B1F7D
:100E800089819A81AA27BB2782179307A407B507F0
:100E900034F4E889F989828199270E94E51AE88962
:100EA000F98926813781408551858C899D89AA27BA
:100EB00097FDA095BA2F280F391F4A1F5B1FE8899D
:100EC000F98984819581AA27BB2782179307A407F4
:100ED000B507E4F4E889F98986819781A085B18511
:100EE0009C018C899D89820F931FE889F9899583DC
:100EF0008483E889F98924813581E889F9898281A7
:100F00009927A9016DE170E00E94890DE889F989AE
:100F100086819781A085B18520E038E040E050E0EF
:100F2000BC01CD010E947E96DA01C9019F878E87A0
:100F3000E889F98926813781408551858C899D8989
:100F4000AA2797FDA095BA2F820F931FA41FB51F44
:100F50000197A109B10920E038E040E050E0BC0170
:100F6000CD010E947E96DA01C9019D878C872E856E
:100F70003F858C859D852817390709F055C0E8897C
:100F8000F98986819781A085B18520E038E040E02D
:100F900050E0BC01CD010E947E96DC01CB019E8316
:100FA0008D838D819E8120E031E0B9010E944996B8
:100FB0009C838B838D819E819F8B8E8B2E893F8915
:100FC000332334F44E895F8941505F4F5F8B4E8BE2
:100FD0002E893F89832F992787FD9A9598878F833C
:100FE0009E85E889F9898281692F0E94B51A8B87CD
:100FF0008B8599279C01220F331F220F331F220F4D
:10100000331F8F819885820F931F089798878F834E
:101010006B818C899D894A895B89EF81F8859C0168
:10102000CF010E94B97ED1C0E889F9898681978174
:10103000A085B18520E038E040E050E0BC01CD0162
:101040000E947E96DC01CB019E838D838D819E81E3
:1010500020E031E0B9010E9449969C838B838D8109
:101060009E81998F888F488D598D552334F4888DB2
:10107000998D81509F4F998F888F288D398D832F1F
:10108000992787FD9A9598878F839E85E889F989A6
:101090008281692F0E94B51A8B878B8599279C01C5
:1010A000220F331F220F331F220F331F8F8198858A
:1010B000820F931F089798878F8320E031E08B8100
:1010C0009C81A901481B590BCA019A8789876B81AA
:1010D00089859A854A895B89EF81F8859C01CF01D2
:1010E0000E94B97E2A893B8989859A85820F931F40
:1010F0009B8B8A8BE889F9892681378140855185C8
:101100008C899D89AA2797FDA095BA2F820F931FDE
:10111000A41FB51F0197A109B10920E038E040E004
:1011200050E0BC01CD010E947E96DC01CB019E8384
:101130008D838D819E8120E031E0B9010E94499626
:101140009C838B838D819E819B8F8A8F8A8D9B8DC3
:10115000992334F42A8D3B8D21503F4F3B8F2A8FAA
:101160004A8D5B8D852F992787FD9A9598878F8368
:101170009C85E889F9898281692F0E94B51A8B873D
:101180008B8599279C01220F331F220F331F220FBB
:10119000331F8F819885820F931F089798878F83BD
:1011A0002C893D8989859A85A901481B590BCA015B
:1011B0009A87898789859A854A895B89EF81F8852D
:1011C0009C0160E0CF010E94B97E80E090E06B96C8
:1011D0000FB6F894DEBF0FBECDBFDF91CF9108955B
:1011E000CF93DF93CDB7DEB762970FB6F894DEBF2B
:1011F0000FBECDBF988B8F877A8B698B89899A892F
:101200000E94640F9D838C8389899A890E94D38D63
:101210009C0189899A89820F931F9B838A838A8183
:101220009B81282F8C819D81922F981B892F8983E8
:10123000CE010B962F853889BC01C9010E94731815
:101240009A87898789859A856FE170E00E94190CD9
:101250008E838985682F8E810E947F1BCE010D961B
:1012600029893A89BC01C9010E94731898878F8324
:101270002F8189859A85422F6FE170E00E942D0DA4
:101280008981482F55278C819D81E985FA859C01AC
:1012900060E070E0CF010E94920E89819927298534
:1012A0003A8540E0BC01C9010E942D0D89859F81CE
:1012B000682F892F0E94481B80E090E062960FB64D
:1012C000F894DEBF0FBECDBFDF91CF910895CF93CD
:1012D000DF93CDB7DEB766970FB6F894DEBF0FBECB
:1012E000CDBF9C8B8B8B7E8B6D8B8D899E890E9455
:1012F000640F998788878D899E890E94D38D9C0170
:101300008D899E89820F931F9F838E838E819F81FB
:10131000282F88859985922F981B892F8B83CE0142
:101320000F962B893C89BC01C9010E9473189E87C6
:101330008D87CE0141962D893E89BC01C9010E944D
:1013400073189C878B870E94EB1E9D838C838C81F6
:101350009D812D853E85BC01C9010E94A9148B8108
:10136000482F552788859985EC81FD819C0160E097
:1013700070E0CF010E94920E8B8199272C813D81D4
:1013800040E0BC01C9010E942D0D2B858C819D81FF
:10139000422F6FE170E00E942D0D8C819B85682F9C
:1013A000892F0E94481B1A8625C08A8599270E9688
:1013B0002D853E85BC01C9010E94190C8A838A8152
:1013C0008823A9F00E94AF1C89838A8599270E96ED
:1013D0002C813D814981BC01C9010E942D0D89816B
:1013E000282F33278A819927B9010E94DF148A8523
:1013F0008F5F8A878A858830C0F280E090E06696A9
:101400000FB6F894DEBF0FBECDBFDF91CF91089528
:10141000CF93DF93CDB7DEB726970FB6F894DEBF34
:101420000FBECDBF9E838D83CE0103962D813E815D
:10143000BC01C9010E9473189A83898389819A81AA
:101440000E946B1726960FB6F894DEBF0FBECDBF75
:10145000DF91CF910895CF93DF93CDB7DEB76B9730
:101460000FB6F894DEBF0FBECDBF998F888F7B8FEC
:101470006A8F8A8D9B8D9C01888D998D820F931F19
:10148000019798878F83EF81F88510828F819885E7
:10149000019798878F830E9460179A87898789852B
:1014A0009A859E01255F3F4FBC01C9010E94241609
:1014B000CE010B960E94D38D9E838D834D818D81AD
:1014C0009E819C018F819885BC01621B730B9B01DF
:1014D000CE010B96BC01C9010E94168CEF81F885E4
:1014E0008FE280838D819E819C018F819885821BF4
:1014F000930B019798878F8389859A856FE170E0B8
:101500000E94190C99279A87898789859A8500975F
:1015100009F0C5CFEF81F8858FE280838A8D9B8D9E
:101520009C01888D998D820F931F9C018F819885D6
:10153000A901481B590BCA0101979E838D83888D91
:10154000998D9A8389831C821B8215C0EF81F8854F
:101550008081E981FA81808389819A8101969A83C9
:1015600089838F819885019698878F838B819C8151
:1015700001969C838B832B813C818D819E812817D2
:10158000390724F389819A8101979A838983E981B4
:10159000FA8110826B960FB6F894DEBF0FBECDBFF6
:1015A000DF91CF9108950F931F93CF93DF93CDB722
:1015B000DEB724970FB6F894DEBF0FBECDBF9A8377
:1015C00089837C836B8389819A81EB81FC819C0177
:1015D0004CE050E060E070E0CF010E945B0E89813A
:1015E0009A818C01045F1F4F8B819C816CE070E0BD
:1015F0000E94190CF801808389819A818C01035F14
:101600001F4F8B819C816DE170E00E94190CF801E5
:10161000808389819A818C01025F1F4F8B819C811D
:101620006EE170E00E94190CF801808324960FB6D9
:10163000F894DEBF0FBECDBFDF91CF911F910F9108
:101640000895CF93DF93CDB7DEB729970FB6F894FF
:10165000DEBF0FBECDBF9D838C837F836E83598792
:1016600048878C819D819A838983EE81FF811082D6
:1016700081E08B831FC088859985BC018B810E9486
:101680002B158130910599F4EE81FF818081992796
:101690009C0189819A81F901E80FF91F8B81808370
:1016A000EE81FF8180818F5FEE81FF8180838B815E
:1016B0008F5F8B838B818136F0F229960FB6F89479
:1016C000DEBF0FBECDBFDF91CF910895CF93DF93E3
:1016D000CDB7DEB70E941A12DF91CF910895CF9354
:1016E000DF93CDB7DEB76D970FB6F894DEBF0FBEB0
:1016F000CDBF998F888F7B8F6A8F5D8F4C8F8A8D3E
:101700009B8D9C01888D998D820F931F01979887DF
:101710008F83EF81F88510828F8198850197988754
:101720008F838C8D9D8D9A87898789859A859E0167
:10173000255F3F4FBC01C9010E942416CE010B96C4
:101740000E94D38D9E838D834D818D819E819C01CE
:101750008F819885BC01621B730B9B01CE010B9698
:10176000BC01C9010E94168CEF81F8858FE280834D
:101770008D819E819C018F819885821B930B01979F
:1017800098878F8389859A856FE170E00E94190C94
:1017900099279A87898789859A85009709F0C5CF07
:1017A000EF81F8858FE280838A8D9B8D9C01888DE7
:1017B000998D820F931F9C018F819885A901481BE9
:1017C000590BCA0101979E838D83888D998D9A83C9
:1017D00089831C821B8215C0EF81F8858081E98195
:1017E000FA81808389819A8101969A8389838F8186
:1017F0009885019698878F838B819C8101969C8325
:101800008B832B813C818D819E812817390724F39E
:1018100089819A8101979A838983E981FA8110826B
:101820006D960FB6F894DEBF0FBECDBFDF91CF919E
:101830000895CF93DF93CDB7DEB726970FB6F89410
:10184000DEBF0FBECDBF9C838B837E836D838B8178
:101850009C819C01220F331F22953295307F3227C5
:10186000207F32278D819E81820F931F9A838983E7
:1018700089819A810E949C66992726960FB6F894D2
:10188000DEBF0FBECDBFDF91CF910895CF93DF9321
:10189000CDB7DEB726970FB6F894DEBF0FBECDBF2B
:1018A0009C838B837E836D838B819C819C01220F23
:1018B000331F22953295307F3227207F32278D814A
:1018C0009E81820F931F9A83898389819A810E94C6
:1018D000B666992787FD909526960FB6F894DEBFD9
:1018E0000FBECDBFDF91CF910895CF93DF93CDB7DA
:1018F000DEB726970FB6F894DEBF0FBECDBF9C8330
:101900008B837E836D838B819C819C01220F331F8F
:1019100022953295307F3227207F32278D819E811C
:10192000820F931F9A83898389819A810E94D2664C
:1019300026960FB6F894DEBF0FBECDBFDF91CF91D4
:101940000895CF93DF93CDB7DEB726970FB6F894FF
:10195000DEBF0FBECDBF9C838B837E836D838B8167
:101960009C819C01220F331F22953295307F3227B4
:10197000207F32278D819E81820F931F9A838983D6
:1019800089819A810E94EB6626960FB6F894DEBF95
:101990000FBECDBFDF91CF910895CF93DF93CDB729
:1019A000DEB726970FB6F894DEBF0FBECDBF9C837F
:1019B0008B837E836D838B819C819C01220F331FDF
:1019C00022953295307F3227207F32278D819E816C
:1019D000820F931F9A83898389819A810E94046769
:1019E000DC01CB01BC01CD0126960FB6F894DEBF19
:1019F0000FBECDBFDF91CF910895CF93DF93CDB7C9
:101A0000DEB726970FB6F894DEBF0FBECDBF9C831E
:101A10008B837E836D838B819C819C01220F331F7E
:101A200022953295307F3227207F32278D819E810B
:101A3000820F931F9A83898389819A810E942167EB
:101A4000DC01CB01BC01CD0126960FB6F894DEBFB8
:101A50000FBECDBFDF91CF910895CF93DF93CDB768
:101A6000DEB727970FB6F894DEBF0FBECDBF9C83BD
:101A70008B837E836D834F838B819C819C01220F9E
:101A8000331F22953295307F3227207F32278D8178
:101A90009E81820F931F9A83898389819A816F81A6
:101AA0000E943E6727960FB6F894DEBF0FBECDBFEB
:101AB000DF91CF910895CF93DF93CDB7DEB727970E
:101AC0000FB6F894DEBF0FBECDBF9C838B837E83A1
:101AD0006D834F838B819C819C01220F331F229544
:101AE0003295307F3227207F32278D819E81820F71
:101AF000931F9A83898389819A816F810E94596794
:101B000027960FB6F894DEBF0FBECDBFDF91CF9101
:101B10000895CF93DF93CDB7DEB728970FB6F8942B
:101B2000DEBF0FBECDBF9C838B837E836D835887C2
:101B30004F838B819C819C01220F331F229532950C
:101B4000307F3227207F32278D819E81820F931F25
:101B50009A8389838F81988529813A81BC01C90143
:101B60000E94746728960FB6F894DEBF0FBECDBFF3
:101B7000DF91CF910895CF93DF93CDB7DEB728974C
:101B80000FB6F894DEBF0FBECDBF9C838B837E83E0
:101B90006D8358874F838B819C819C01220F331F5B
:101BA00022953295307F3227207F32278D819E818A
:101BB000820F931F9A8389838F81988529813A8127
:101BC000BC01C9010E94936728960FB6F894DEBF46
:101BD0000FBECDBFDF91CF910895CF93DF93CDB7E7
:101BE000DEB72A970FB6F894DEBF0FBECDBF9C8339
:101BF0008B837E836D832F83388749875A878B81B8
:101C00009C819C01220F331F22953295307F322711
:101C1000207F32278D819E81820F931F9A83898333
:101C20008F819885A985BA8529813A81AC01BD014A
:101C3000C9010E94B2672A960FB6F894DEBF0FBEA4
:101C4000CDBFDF91CF910895CF93DF93CDB7DEB7AE
:101C50002A970FB6F894DEBF0FBECDBF9C838B834F
:101C60007E836D832F83388749875A878B819C8138
:101C70009C01220F331F22953295307F3227207F1F
:101C800032278D819E81820F931F9A8389838F8152
:101C90009885A985BA8529813A81AC01BD01C90120
:101CA0000E94B2672A960FB6F894DEBF0FBECDBF72
:101CB000DF91CF910895CF93DF93CDB7DEB72A9709
:101CC0000FB6F894DEBF0FBECDBF9C838B837E839F
:101CD0006D8358874F833A8729878B819C819C012C
:101CE000220F331F22953295307F3227207F3227F3
:101CF0008D819E81820F931F9A83898389859A851E
:101D00002F813885E981FA81AC01B901CF010E94A8
:101D100033662A960FB6F894DEBF0FBECDBFDF91B3
:101D2000CF910895CF93DF93CDB7DEB72A970FB643
:101D3000F894DEBF0FBECDBF9C838B837E836D8303
:101D400058874F833A8729878B819C819C01220F7A
:101D5000331F22953295307F3227207F32278D81A5
:101D60009E81820F931F9A83898389859A852F810B
:101D70003885E981FA81AC01B901CF010E9457662B
:101D80002A960FB6F894DEBF0FBECDBFDF91CF917C
:101D90000895CF93DF93CDB7DEB729970FB6F894A8
:101DA000DEBF0FBECDBF9C838B837E836D83588740
:101DB0004F8329878B819C819C01220F331F2295A1
:101DC0003295307F3227207F32278D819E81820F8E
:101DD000931F9A8389838F81988529813A814985C8
:101DE000BC01C9010E947B6629960FB6F894DEBF3C
:101DF0000FBECDBFDF91CF910895CF93DF93CDB7C5
:101E0000DEB728970FB6F894DEBF0FBECDBF9E8316
:101E10008D8378876F838F8198859A8389838D815D
:101E20009E819C838B83EB81FC8180818F32B1F416
:101E30008B819C8101969C838B8310C0EB81FC81FC
:101E40008081E981FA81808389819A8101969A83D0
:101E500089838B819C8101969C838B83EB81FC81A0
:101E6000808181362CF0EB81FC8180818B3734F3CB
:101E7000EB81FC81808181342CF0EB81FC818081BD
:101E80008B35E4F2EB81FC8180818F35B9F2EB81F7
:101E9000FC8180818E3291F2EB81FC8180818033E4
:101EA0002CF0EB81FC8180818A3344F2E981FA8154
:101EB00010828B819C8128960FB6F894DEBF0FBEEE
:101EC000CDBFDF91CF910895CF93DF93CDB7DEB72C
:101ED0002A970FB6F894DEBF0FBECDBF98878F83C9
:101EE0008F8198850E94D38D9A83898329813A8135
:101EF0008F819885820F931F01979E838D838F8199
:101F000098859C838B8305C08D819E8101979E83DC
:101F10008D83ED81FE8180818F3239F02D813E816C
:101F20008B819C812817390779F72D813E818B8120
:101F30009C812817390751F4EB81FC8180818F3215
:101F400029F08D819E819A87898709C08D819E8124
:101F500001969E838D838D819E819A87898789854D
:101F60009A852A960FB6F894DEBF0FBECDBFDF91DB
:101F7000CF910895CF93DF93CDB7DEB724970FB6F7
:101F8000F894DEBF0FBECDBF9A83898389819A8181
:101F90000E94D38D8130910559F5E981FA818081C4
:101FA000823729F481E090E09C838B832FC0E98104
:101FB000FA818081873729F482E090E09C838B83CB
:101FC00025C0E981FA818081813629F483E090E09F
:101FD0009C838B831BC0E981FA818081843729F43B
:101FE00084E090E09C838B8311C01C821B820EC016
:101FF00089819A810E94D38D8230910529F485E0F0
:1020000090E09C838B8302C01C821B828B819C810D
:1020100024960FB6F894DEBF0FBECDBFDF91CF91EF
:102020000895CF93DF93CDB7DEB726970FB6F89418
:10203000DEBF0FBECDBF9C838B838B819C816DE007
:1020400070E00E94190C8A838B819C816CE070E0A7
:102050000E94190C89838A81882319F41E821D82AB
:1020600005C08981282F33273E832D838D819E8152
:1020700026960FB6F894DEBF0FBECDBFDF91CF918D
:1020800008950F93CF93DF93CDB7DEB72B970FB69D
:10209000F894DEBF0FBECDBF9E838D8378876F839C
:1020A00049872A870B878F8198850E94D38D8C83DF
:1020B0008C818C3018F48C818F5F8C838B85813080
:1020C000D9F58C81482F55278F819885ED81FE8128
:1020D0009C0160E070E0CF010E94920E8D819E8194
:1020E0004B856CE070E00E942D0D8D819E8141E05A
:1020F0006DE070E00E942D0D8D819E8120E04EE00C
:1021000050E06EE070E00E94C90E8D819E8149858D
:102110006CE170E00E942D0D8D819E8140E050E0C9
:102120006DE170E00E94890D8D819E814A856FE18D
:1021300070E00E942D0DB9C08B858230D9F58C815D
:10214000482F55278F819885ED81FE819C0160E0A5
:1021500070E0CF010E94920E8D819E814B856CE0D4
:1021600070E00E942D0D8D819E8141E06DE070E058
:102170000E942D0D8D819E8120E04EE050E06EE0AA
:1021800070E00E94C90E8D819E8149856CE170E0EE
:102190000E942D0D8D819E8140E050E06DE170E048
:1021A0000E94890D8D819E814A856FE170E00E94B9
:1021B0002D0D7BC08B858330D9F58C81482F552719
:1021C0008F819885ED81FE819C0160E070E0CF01F8
:1021D0000E94920E8D819E814B856CE070E00E9482
:1021E0002D0D8D819E8141E06DE070E00E942D0DEE
:1021F0008D819E8120E04EE050E06EE070E00E9414
:10220000C90E8D819E8149856CE170E00E942D0D83
:102210008D819E8140E050E06DE170E00E94890D6B
:102220008D819E814A856FE170E00E942D0D3DC039
:102230008B858430D1F58C81482F55278F819885E7
:10224000ED81FE819C0160E070E0CF010E94920E62
:102250008D819E814B856CE070E00E942D0D8D81FB
:102260009E8141E06DE070E00E942D0D8D819E8188
:1022700020E04EE050E06EE070E00E94C90E8D81DB
:102280009E8149856CE170E00E942D0D8D819E81BB
:1022900040E050E06DE170E00E94890D8D819E81EB
:1022A0004A856FE170E00E942D0D8D819E8100971F
:1022B00021F48A85882309F427C01B821A821FC053
:1022C0008A819B819C01225F3F4F8A859927B901B2
:1022D0000E94190C89838981882361F44D818A8148
:1022E0009B819C01225F3F4F8A859927B9010E94FB
:1022F0002D0D0AC08A819B8101969B838A838A81E6
:102300009B818A309105E4F22B960FB6F894DEBFDC
:102310000FBECDBFDF91CF910F9108950F931F9303
:10232000CF93DF93CDB7DEB7A7970FB6F894DEBF94
:102330000FBECDBF9FA38EA31B8ACE010796EEA131
:10234000FFA19C014CE050E060E070E0CF010E94F2
:102350005B0E8EA19FA16CE070E00E94190C8C8333
:102360008EA19FA16DE070E00E94190C8B838B8180
:10237000882311F18C818130F9F41A82198217C0F7
:1023800009811A8189819A810E962EA13FA1BC01F3
:10239000C9010E94190C282FCE014496FC01E00FC0
:1023A000F11F208389819A8101969A83898389818B
:1023B0009A818A30910524F38B81882311F18C81D5
:1023C0008230F9F41A82198217C009811A81898131
:1023D0009A810E962EA13FA1BC01C9010E94190C41
:1023E000282FCE014E96FC01E00FF11F208389813A
:1023F0009A8101969A83898389819A81883091058F
:1024000024F38EA19FA16CE170E00E94190C8E83D1
:102410008EA19FA16FE170E00E94190C8D83A79699
:102420000FB6F894DEBF0FBECDBFDF91CF911F91E5
:102430000F910895CF93DF93CDB7DEB722970FB6F4
:10244000F894DEBF0FBECDBF1A8219820EC08981FB
:102450009A8120E040E250E060E070E00E94C90E06
:1024600089819A8101969A83898389819A818136AB
:1024700091056CF30E94891C0E94C51E22960FB61E
:10248000F894DEBF0FBECDBFDF91CF910895CF93FB
:10249000DF93CDB7DEB70E94891C0E94C51EDF9175
:1024A000CF910895CF93DF93CDB7DEB762970FB684
:1024B000F894DEBF0FBECDBF9A8B898B89899A892C
:1024C0006CE070E00E94190C888B89899A896FE111
:1024D00070E00E94190C8F878889813009F050C004
:1024E0001E8614C08E8599270E9629893A89BC01CB
:1024F000C9010E94190C8D878D85882321F08D8557
:1025000099270E9452128E858F5F8E878E858A3022
:1025100048F389899A8940E06DE070E00E942D0DB2
:1025200089899A89009721F48F85882309F42DC120
:102530001C8622C08C8599279C01225F3F4F8F8586
:102540009927B9010E94190C8B878B85282F332777
:1025500089899A892817390761F48C8599279C0104
:10256000225F3F4F8F85992740E0B9010E942D0DD2
:102570000CC18C858F5F8C878C858A30D8F205C121
:102580008889823009F084C089899A8940E06DE0A9
:1025900070E00E942D0D89899A89009721F48F851A
:1025A000882309F42BC01A8626C08A85992787FDBF
:1025B00090959C01225F3F4F8F859927B9010E941A
:1025C000190C88878885282F332789899A892817A5
:1025D000390771F48A85992787FD90959C01225FC0
:1025E0003F4F8F85992740E0B9010E942D0D06C00D
:1025F0008A858F5F8A878A858A30BCF21A8616C0E0
:102600008A85992787FD90950E9629893A89BC017C
:10261000C9010E94190C89878985882351F0898511
:1026200099270E944E1D8A858F5F8A878A85883008
:102630003CF389898F8300C08F81992768E170E01E
:102640000E94190C8F838F81882309F49EC08F818B
:1026500099270E94711F1A8617C08A85992787FDBE
:1026600090959C01225F3F4F8F819927B9010E946D
:10267000190C898789858823F9F2898599270E9411
:102680004E1D8A858F5F8A878A85883034F3D4CF40
:1026900088898330E1F589899A8940E06DE070E0AE
:1026A0000E942D0D89899A89009721F48F858823AE
:1026B00009F46BC01E821D8224C08D819E819C0105
:1026C000225F3F4F8F859927B9010E94190C8C8397
:1026D0008C81282F332789899A892817390761F433
:1026E0008D819E819C01225F3F4F8F85992740E01D
:1026F000B9010E942D0D49C08D819E8101969E8356
:102700008D838D819E818A309105BCF23EC088897F
:102710008430D9F589899A8940E06DE070E00E94A3
:102720002D0D89899A89009721F48F85882309F4D2
:102730002CC01B821A8224C08A819B819C01225F4B
:102740003F4F8F859927B9010E94190C8983898190
:10275000282F332789899A892817390761F48A81B4
:102760009B819C01225F3F4F8F85992740E0B901F3
:102770000E942D0D0AC08A819B8101969B838A83CA
:102780008A819B818A309105BCF289899A890E944D
:10279000711F62960FB6F894DEBF0FBECDBFDF91FA
:1027A000CF9108950F93CF93DF93CDB7DEB780E03D
:1027B00091E001E020E040E0BC0180E090E00E9478
:1027C0004110DF91CF910F9108950F931F93CF93F5
:1027D000DF93CDB7DEB725970FB6F894DEBF0FBEF7
:1027E000CDBF0E94EB1E8D838D81E82FFF2785E0F2
:1027F00091E001E020E040E0BC01CF010E944110E7
:102800000E94E3369C838B830E94EC369A838983F3
:1028100089819A812B813C814FE851E569E071E023
:102820008C018D810E944F1489819A812B813C817A
:1028300042EF58E36DE071E08C018D810E944F14EE
:1028400089819A812B813C814FE059E363E171E0FA
:102850008C018D810E944F1489819A812B813C814A
:1028600046E659E368E171E08C018D810E944F14C6
:1028700089819A812B813C814CE259E36FE171E0BF
:102880008C018D810E944F1425960FB6F894DEBFFF
:102890000FBECDBFDF91CF911F910F9108950F9380
:1028A0001F93CF93DF93CDB7DEB72C970FB6F89475
:1028B000DEBF0FBECDBF8C837E836D8358874F8371
:1028C0003A8729871C870B870E94EB1E8B838B819D
:1028D000E82FFF278D819E8103E02C8140E0BC0121
:1028E000CF010E9441108F8198859A8389838B81C3
:1028F000282F332789819A81AC016EE070E0C901ED
:102900000E94890D89859A859A83898329813A81D4
:102910008B819927A90160E170E00E94BB0D8B8536
:102920009C859A8389838B81282F332789819A817B
:10293000AC0162E170E0C9010E94890D2C960FB6CE
:10294000F894DEBF0FBECDBFDF91CF911F910F91E5
:102950000895CF93DF93CDB7DEB727970FB6F894DE
:10296000DEBF0FBECDBF9D838C837F836E831B82B2
:102970001A8217C08A819B812C813D81BC01C901CB
:102980000E94190C89838A819B812E813F81498114
:10299000BC01C9010E942D0D8A819B8101969B83F8
:1029A0008A838A819B818032910524F327960FB612
:1029B000F894DEBF0FBECDBFDF91CF910895CF93C6
:1029C000DF93CDB7DEB72A970FB6F894DEBF0FBE00
:1029D000CDBF98878F837A8769871E821D822DC01D
:1029E0008F8198859C01220F331F220F331F220FE6
:1029F000331F8D819E81820F931F08979C838B8349
:102A000089859A859C01220F331F220F331F220FC5
:102A1000331F8D819E81820F931F08979A8389832C
:102A200089819A812B813C81BC01C9010E94623C51
:102A30008D819E8101969E838D838D819E818830BC
:102A4000910574F22A960FB6F894DEBF0FBECDBF83
:102A5000DF91CF910895CF93DF93CDB7DEB7659720
:102A60000FB6F894DEBF0FBECDBF898B7B8B6A8B10
:102A7000898999276DE070E00E94190C898389810A
:102A8000882319F41D8A1C8A31C08989E82FFF2701
:102A9000CE0104969C014CE050E060E070E0CF0174
:102AA0000E945B0E188ACE0104960E94D38D8B8300
:102AB0001A8216C08A8199279C01CE010496820F42
:102AC000931F2A893B89B9010E94308D009729F410
:102AD00081E090E09D8B8C8B09C08A818F5F8A8317
:102AE0009A818B81981730F31D8A1C8A8C899D8965
:102AF00065960FB6F894DEBF0FBECDBFDF91CF91C4
:102B000008951F93CF93DF93CDB7DEB72A970FB603
:102B1000F894DEBF0FBECDBF9E838D8378876F8311
:102B20001A8219828D819E810E94D38D8D309105EC
:102B30002CF081E090E09A87898742C08F81988548
:102B40000E941110009729F481E090E09A8789870C
:102B500037C01A8219822DC08D819E819C838B8300
:102B600089819A819C018B819C81820F931F9C8318
:102B70008B83EB81FC818081182F89819A812F8141
:102B80003885BC01C9010E94190C181729F081E091
:102B900090E09A87898714C0EB81FC81808188232B
:102BA00019F41A8619860CC089819A8101969A8334
:102BB000898389819A818C30910574F21A861986ED
:102BC00089859A852A960FB6F894DEBF0FBECDBFD1
:102BD000DF91CF911F910895CF93DF93CDB7DEB7EB
:102BE00027970FB6F894DEBF0FBECDBF9D838C83B1
:102BF0001B821A8215C08A819B810E962C813D8191
:102C0000BC01C9010E94190C89838981882319F4A8
:102C10001F821E820EC08A819B8101969B838A83BC
:102C20008A819B818A30910534F381E090E09F8313
:102C30008E838E819F8127960FB6F894DEBF0FBEDC
:102C4000CDBFDF91CF910895CF93DF93CDB7DEB79E
:102C500028970FB6F894DEBF0FBECDBF9E838D833D
:102C600078876F838D819E819A8389831C821B82E2
:102C70001AC08B819C812F813885BC01C9010E94BB
:102C8000190CE981FA818083E981FA8180818823A6
:102C900079F089819A8101969A8389838B819C81BD
:102CA00001969C838B838B819C818C3091050CF3E6
:102CB000E981FA81108228960FB6F894DEBF0FBE24
:102CC000CDBFDF91CF910895CF93DF93CDB7DEB71E
:102CD00029970FB6F894DEBF0FBECDBF9D838C83BE
:102CE0007F836E831B821A821FC08A819B810E960E
:102CF0002E813F81BC01C9010E94190C8983898101
:102D000099272C813D81BC01C9010E948115009742
:102D100031F48981282F3327398728870EC08A818B
:102D20009B8101969B838A838A819B818A3091054E
:102D3000E4F28FEF9FEF9987888788859985299698
:102D40000FB6F894DEBF0FBECDBFDF91CF910895CF
:102D5000CF93DF93CDB7DEB723970FB6F894DEBFDE
:102D60000FBECDBF9B838A838A819B816FE170E018
:102D70000E94190C89838981992723960FB6F894AC
:102D8000DEBF0FBECDBFDF91CF910895CF93DF930C
:102D9000CDB7DEB72A970FB6F894DEBF0FBECDBF12
:102DA0009E838D8378876F831C821B822AC08B81D0
:102DB0009C810E962F813885BC01C9010E94190C97
:102DC0008983898199272D813E81BC01C9010E9497
:102DD0008115009789F4898199270E9411108A83AF
:102DE0008A81882349F08981882331F08A81282FBC
:102DF00033273A8729870CC08B819C8101969C835D
:102E00008B838B819C818A3091058CF21A8619867E
:102E100089859A852A960FB6F894DEBF0FBECDBF7E
:102E2000DF91CF910895CF93DF93CDB7DEB72A9787
:102E30000FB6F894DEBF0FBECDBF9E838D8378871B
:102E40006F831C821B822AC08B819C810E962F81EE
:102E50003885BC01C9010E94190C89838981992791
:102E60002D813E81BC01C9010E948115009789F422
:102E7000898199270E9411108A838A81882349F0C9
:102E80008981882331F08981282F33273A87298740
:102E90000CC08B819C8101969C838B838B819C8150
:102EA0008A3091058CF21A86198689859A852A9628
:102EB0000FB6F894DEBF0FBECDBFDF91CF9108955E
:102EC000CF93DF93CDB7DEB7809166019091670114
:102ED000DF91CF910895CF93DF93CDB7DEB72297DF
:102EE0000FB6F894DEBF0FBECDBF9A838983898168
:102EF0009A81909367018093660122960FB6F894A9
:102F0000DEBF0FBECDBFDF91CF910895CF93DF938A
:102F1000CDB7DEB727970FB6F894DEBF0FBECDBF93
:102F20009D838C831B821A8217C08A819B810E9697
:102F30002C813D81BC01C9010E94190C89838981C2
:102F4000882329F081E090E09F838E830CC08A81E2
:102F50009B8101969B838A838A819B818A3091051C
:102F600024F31F821E828E819F8127960FB6F894CC
:102F7000DEBF0FBECDBFDF91CF9108950F93CF93EA
:102F8000DF93CDB7DEB727970FB6F894DEBF0FBE3D
:102F9000CDBF9B838A837D836C838C819D812A81B5
:102FA0003B81BC01C9010E941317181619061CF4B5
:102FB0001F821E821FC08C819D810E94EC15813072
:102FC00029F42FEF30E03F832E8314C00E94EB1EC4
:102FD00089832C818981E82FFF278A819B8101E0E9
:102FE00040E0BC01CF010E9441108981282F332786
:102FF0003F832E838E819F8127960FB6F894DEBF84
:103000000FBECDBFDF91CF910F9108950F93CF9356
:10301000DF93CDB7DEB727970FB6F894DEBF0FBEAC
:10302000CDBF9B838A837D836C838C819D812A8124
:103030003B81BC01C9010E941317181619061CF424
:103040001F821E821FC08C819D810E94EC158130E1
:1030500029F42FEF30E03F832E8314C00E94EB1E33
:1030600089832C818981E82FFF278A819B8102E057
:1030700040E0BC01CF010E9441108981282F3327F5
:103080003F832E838E819F8127960FB6F894DEBFF3
:103090000FBECDBFDF91CF910F910895CF93DF93F6
:1030A000CDB7DEB724970FB6F894DEBF0FBECDBF05
:1030B0009A83898389819A810E94111081309105B8
:1030C00029F481E090E09C838B8302C01C821B82E8
:1030D0008B819C8124960FB6F894DEBF0FBECDBFC6
:1030E000DF91CF910895CF93DF93CDB7DEB76D9782
:1030F0000FB6F894DEBF0FBECDBF9F8B8E8B798F3E
:10310000688FEE89FF89808188878E899F89FC017D
:10311000319680818F838E899F899E838D830E94C3
:1031200060179C838B8388858E3279F48F818E32F1
:1031300061F48B819C810E94A8169C838B838E896D
:103140009F8902969E838D838AC088858E3249F43A
:103150008F818F3231F48E899F8901969E838D8372
:103160007EC088858F3239F41C821B828E899F89AC
:103170009E838D8374C0888581361CF088858B374B
:1031800034F08885813444F088858B352CF481E0D7
:1031900090E09D8F8C8F02C01D8E1C8E8C8D9D8D1E
:1031A0008130910509F05BC0CE0109962D813E81E9
:1031B000BC01C9010E94FD0E9E838D838D819E817D
:1031C000009771F58B819C819E01275F3F4FBC0169
:1031D000C9010E94C6169A83898389819A810097C2
:1031E00049F4E88DF98D118210828B819C819B8F2F
:1031F0008A8F9DC0E88DF98D89819A819183808322
:103200008B819C819E01275F3F4FBC01C9010E94B9
:1032100064169A83898389819A819B8F8A8F87C05C
:103220008B819C819E01275F3F4FBC01C9010E9499
:10323000C6169A83898389819A81009729F48FEF32
:103240009FEF9B8F8A8F73C08B819C819E01275F2C
:103250003F4FBC01C9010E9464169C838B838B8104
:103260009C810E944E18009729F48FEF9FEF9B8F4F
:103270008A8F5DC0CE0109962D813E81BC01C901B6
:103280000E94FD0E9E838D83ED81FE8180818823C7
:1032900071F58B819C819E01275F3F4FBC01C90165
:1032A0000E94C6169A83898389819A81009749F47E
:1032B000E88DF98D118210828B819C819B8F8A8F82
:1032C00036C0E88DF98D89819A81918380838B81C5
:1032D0009C819E01275F3F4FBC01C9010E9464167B
:1032E0009A83898389819A819B8F8A8F20C08B8161
:1032F0009C819E01275F3F4FBC01C9010E94C616F9
:103300009A83898389819A81009729F48FEF9FEFAF
:103310009B8F8A8F0CC08B819C819E01275F3F4FC2
:10332000BC01C9010E9464169C838B8398CF8A8D4F
:103330009B8D6D960FB6F894DEBF0FBECDBFDF91AB
:10334000CF910895CF93DF93CDB7DEB725970FB612
:10335000F894DEBF0FBECDBF9D838C831B821A8283
:1033600016C08A819B810E962C813D81BC01C901CA
:103370000E94190C89838981882371F0898199279A
:103380000E944E1D8A819B8101969B838A838A813C
:103390009B81883091052CF325960FB6F894DEBFFB
:1033A0000FBECDBFDF91CF9108950F931F93CF93A1
:1033B000DF93CDB7DEB726970FB6F894DEBF0FBE0A
:1033C000CDBF9A8389837C836B835E834D838B819E
:1033D0009C814981880F991F9C01220F331F220F66
:1033E000331F820F931FFC01E75FFB4F40838B81EC
:1033F0009C814D81880F991F9C01220F331F220F42
:10340000331F820F931FFC01E65FFB4F40830B814C
:103410001C8189819A816DE170E00E94750CAC017C
:10342000C801880F991F9C01220F331F220F331FE1
:10343000820F931FFC01E55FFB4F518340838D8119
:103440009E818130910591F48B819C81880F991F19
:103450009C01220F331F220F331F820F931FFC0189
:10346000E35FFB4F10821182128213828D819E8155
:103470008230910591F48B819C81880F991F9C016A
:10348000220F331F220F331F820F931FFC01E35FB4
:10349000FB4F10821182128213828D819E818330B4
:1034A000910531F5AB81BC818B819C81880F991F7F
:1034B0009C01220F331F220F331F820F931FFC0129
:1034C000E55FFB4F80819181AC0166277727CD01B5
:1034D000880F991F9C01220F331F220F331F820F69
:1034E000931FFC01E35FFB4F40835183628373832F
:1034F0008D819E8184309105B1F489819A810E94E9
:10350000A2198B819C81880F991F9C01220F331F68
:10351000220F331F820F931FFC01E35FFB4F1082CA
:103520001182128213828D819E818530910591F4E2
:103530008B819C81880F991F9C01220F331F220FC2
:10354000331F820F931FFC01E35FFB4F1082118238
:103550001282138226960FB6F894DEBF0FBECDBF3F
:10356000DF91CF911F910F910895CF93DF93CDB746
:10357000DEB723970FB6F894DEBF0FBECDBF8A83A8
:103580006B838A8189830AC08981992768E170E009
:103590000E94190C89838B8188508B838B818830A2
:1035A00098F78B8199279C01225F3F4F898199274A
:1035B000B9010E94190C992723960FB6F894DEBF23
:1035C0000FBECDBFDF91CF910895CF93DF93CDB7DD
:1035D000DEB727970FB6F894DEBF0FBECDBF9F832F
:1035E0008E838E818A831D8211C08D8199279C01D3
:1035F000225F3F4F8A819927B9010E94190C8C8361
:103600008C81882331F08D818F5F8D838D8188300F
:1036100060F38D81883078F40E94AF1C8C838D819B
:1036200099279C01225F3F4F8A8199274C81B901DC
:103630000E942D0D24C08A81992768E170E00E94C4
:10364000190C8B838B818823B9F40E94EB1E89832C
:103650008A819927498168E170E00E942D0D898156
:103660008A830E94AF1C8C838A8199274C816EE0EB
:1036700070E00E942D0D03C08B818A83B4CF279602
:103680000FB6F894DEBF0FBECDBFDF91CF91089586
:10369000CF93DF93CDB7DEB724970FB6F894DEBF94
:1036A0000FBECDBF8B836C831A821DC08A81992780
:1036B0009C01225F3F4F8B819927B9010E94190C11
:1036C00089838981882361F48A8199279C01225FFB
:1036D0003F4F8B8199274C81B9010E942D0D06C067
:1036E0008A818F5F8A838A818A3000F324960FB69D
:1036F000F894DEBF0FBECDBFDF91CF910895CF9379
:10370000DF93CDB7DEB724970FB6F894DEBF0FBEB8
:10371000CDBF8B836C831A821EC08A8199279C013E
:10372000225F3F4F8B819927B9010E94190C898331
:1037300099818C81981761F48A8199279C01225F75
:103740003F4F8B81992740E0B9010E942D0D06C0A3
:103750008A818F5F8A838A818A30F8F224960FB635
:10376000F894DEBF0FBECDBFDF91CF910895CF9308
:10377000DF93CDB7DEB788E691E0AC0160E270E0A0
:103780008EE49CE00E945766DF91CF910895CF931D
:10379000DF93CDB7DEB788E691E0AC0160E270E080
:1037A0008EE49CE00E943366DF91CF910895CF9321
:1037B000DF93CDB7DEB726970FB6F894DEBF0FBE06
:1037C000CDBF9A8389837C836B838B819C819E830D
:1037D0008D832D813E8133232CF48D819E8107962C
:1037E0009E838D838D819E819595879595958795EF
:1037F000959587959C0189819A81820F931F9A8361
:103800008983E981FA818081E82FFF27E7FDF09520
:103810008B819C8128E030E0B9010E9449969F018C
:1038200002C0359527958A95E2F7C901817090709D
:1038300026960FB6F894DEBF0FBECDBFDF91CF91B5
:103840000895CF93DF93CDB7DEB728970FB6F894DE
:10385000DEBF0FBECDBF9A8389837C836B835E837B
:103860004D838B819C8198878F838F819885992345
:103870002CF48F819885079698878F838F81988500
:103880009595879595958795959587959C018981BF
:103890009A81820F931F9A8389838D819E810097DD
:1038A000C1F0E981FA8140818B819C8128E030E080
:1038B000B9010E9449969C0181E090E0022E02C06D
:1038C000880F991F0A94E2F7842BE981FA8180839B
:1038D00017C0E981FA8140818B819C8128E030E02A
:1038E000B9010E9449969C0181E090E002C0880FD6
:1038F000991F2A95E2F780958423E981FA818083D4
:1039000028960FB6F894DEBF0FBECDBFDF91CF91E2
:103910000895CF93DF93CDB7DEB722970FB6F89413
:10392000DEBF0FBECDBF1A8219820BC089819A817A
:10393000FC01E859FE4F108289819A8101969A8391
:10394000898389819A818032910584F322960FB60A
:10395000F894DEBF0FBECDBFDF91CF910895CF9316
:10396000DF93CDB7DEB724970FB6F894DEBF0FBE56
:10397000CDBF1A82198221C089819A8128E631E05F
:10398000BC01C9010E94D71B009791F489819A81DB
:1039900028E631E041E050E0BC01C9010E94211C51
:1039A00089819A819C012F5F3F4F3C832B830FC0FD
:1039B00089819A8101969A83898389819A818F3F2F
:1039C0009105D1F2CCF28FEF9FEF9C838B838B819B
:1039D0009C8124960FB6F894DEBF0FBECDBFDF9159
:1039E000CF910895CF93DF93CDB7DEB728970FB669
:1039F000F894DEBF0FBECDBF18861F8240C08F81F6
:103A0000988501969E838D838D819E816DE070E007
:103A10000E94190C8C838D819E816CE070E00E9465
:103A2000190C8B838C81813029F58B81823011F5C3
:103A300019821DC08981992787FD90950E962D8149
:103A40003E81BC01C9010E94190C8A838A818823A6
:103A500059F08A819927019728E631E041E050E04A
:103A6000BC01C9010E94211C89818F5F89838981E2
:103A7000883004F38F819885019698878F838F8192
:103A80009885803691050CF4BACF28960FB6F89435
:103A9000DEBF0FBECDBFDF91CF910895CF93DF93EF
:103AA000CDB7DEB722970FB6F894DEBF0FBECDBFFD
:103AB0009A83898389819A81019728E631E040E0E1
:103AC00050E0BC01C9010E94211C22960FB6F89457
:103AD000DEBF0FBECDBFDF91CF910895CF93DF93AF
:103AE000CDB7DEB724970FB6F894DEBF0FBECDBFBB
:103AF0001C821B821A82198215C089819A8128E64C
:103B000031E0BC01C9010E94D71B8130910529F425
:103B10008B819C8101969C838B8389819A810196FC
:103B20009A83898389819A818F3F910531F32CF3A0
:103B300020E031E08B819C81A901481B590BCA010F
:103B400024960FB6F894DEBF0FBECDBFDF91CF91A4
:103B50000895CF93DF93CDB7DEB7C250D2400FB6F2
:103B6000F894DEBF0FBECDBF1A8219822CC08981A6
:103B70009A8128E631E0BC01C9010E94D71B009759
:103B800071F489819A819C01220F331FCE01019625
:103B9000820F931FFC013296118210820FC089811F
:103BA0009A819C01220F331FCE010196820F931F31
:103BB000FC01329681E090E09183808389819A8133
:103BC00001969A83898389819A818F3F910579F241
:103BD00074F2CE5FDD4F0FB6F894DEBF0FBECDBFDF
:103BE000DF91CF910895CF93DF93CDB7DEB78FE20A
:103BF00094E0AC016CE070E082E49CE00E943366EB
:103C0000DF91CF910895CF93DF93CDB7DEB78FE2E9
:103C100094E0AC016CE070E082E49CE00E945766A6
:103C2000DF91CF910895CF93DF93CDB7DEB726977D
:103C30000FB6F894DEBF0FBECDBF9A8389837C8315
:103C40006B838B819C819E838D832D813E81332369
:103C50002CF48D819E8107969E838D838D819E811C
:103C60009595879595958795959587959C018981DB
:103C70009A81820F931F9A838983E981FA818081D7
:103C8000E82FFF27E7FDF0958B819C8128E030E04D
:103C9000B9010E9449969F0102C0359527958A95E2
:103CA000E2F7C9018170907026960FB6F894DEBFD6
:103CB0000FBECDBFDF91CF910895CF93DF93CDB7E6
:103CC000DEB728970FB6F894DEBF0FBECDBF9A833C
:103CD00089837C836B835E834D838B819C819887F2
:103CE0008F838F81988599232CF48F8198850796EF
:103CF00098878F838F8198859595879595958795DA
:103D0000959587959C0189819A81820F931F9A834B
:103D100089838D819E810097C1F0E981FA8140817C
:103D20008B819C8128E030E0B9010E9449969C017A
:103D300081E090E0022E02C0880F991F0A94E2F7FA
:103D4000842BE981FA81808317C0E981FA8140815F
:103D50008B819C8128E030E0B9010E9449969C014A
:103D600081E090E002C0880F991F2A95E2F78095C4
:103D70008423E981FA81808328960FB6F894DEBF08
:103D80000FBECDBFDF91CF910895CF93DF93CDB715
:103D9000DEB722970FB6F894DEBF0FBECDBF1A82F2
:103DA00019820BC089819A81FC01E15DFB4F108271
:103DB00089819A8101969A83898389819A818C303D
:103DC000910584F322960FB6F894DEBF0FBECDBFE7
:103DD000DF91CF910895CF93DF93CDB7DEB72497CE
:103DE0000FB6F894DEBF0FBECDBF1A82198221C074
:103DF00089819A812FE234E0BC01C9010E94131E1F
:103E0000009791F489819A812FE234E041E050E0FB
:103E1000BC01C9010E945D1E89819A819C012F5FAE
:103E20003F4F3C832B830EC089819A8101969A83F0
:103E3000898389819A8180369105D4F28FEF9FEF33
:103E40009C838B838B819C8124960FB6F894DEBF74
:103E50000FBECDBFDF91CF910895CF93DF93CDB744
:103E6000DEB725970FB6F894DEBF0FBECDBF1D821B
:103E70001C8229C08C819D8101969B838A838A81C3
:103E80009B816DE070E00E94190C898389818823F1
:103E900059F48C819D812FE234E040E050E0BC0178
:103EA000C9010E945D1E0AC08C819D812FE234E011
:103EB00041E050E0BC01C9010E945D1E8C819D81E2
:103EC00001969D838C838C819D818036910594F22F
:103ED00025960FB6F894DEBF0FBECDBFDF91CF9110
:103EE0000895CF93DF93CDB7DEB722970FB6F8943E
:103EF000DEBF0FBECDBF9A83898389819A810197E6
:103F00002FE234E040E050E0BC01C9010E945D1E98
:103F100022960FB6F894DEBF0FBECDBFDF91CF91D2
:103F20000895CF93DF93CDB7DEB724970FB6F894FB
:103F3000DEBF0FBECDBF1A8219821C821B8215C044
:103F40008B819C812FE234E0BC01C9010E94131EC9
:103F50008130910529F489819A8101969A83898318
:103F60008B819C8101969C838B838B819C81803685
:103F7000910534F320E630E089819A81A901481B3C
:103F8000590BCA0124960FB6F894DEBF0FBECDBF01
:103F9000DF91CF910895CF93DF93CDB7DEB7E0E9FE
:103FA000F0E01082E9E2F0E08FE08083ABE2B0E085
:103FB000EBE2F0E0808182608C93A5E9B0E0E5E976
:103FC000F0E0808186608C93AAE2B0E0EAE2F0E063
:103FD000808188698C9381E0809388011092AA0186
:103FE0001092AB01DF91CF910895CF93DF93CDB7BE
:103FF000DEB721970FB6F894DEBF0FBECDBF898321
:1040000080918801882311F40E94CB1FEBE2F0E03D
:1040100080819927807290700097C1F3ECE2F0E004
:104020008981808321960FB6F894DEBF0FBECDBF85
:10403000DF91CF910895CF93DF93CDB7DEB722976D
:104040000FB6F894DEBF0FBECDBF9A8389830AC036
:10405000E981FA8180810E94F51F89819A81019608
:104060009A838983E981FA818081882389F722965E
:104070000FB6F894DEBF0FBECDBFDF91CF9108958C
:10408000CF93DF93CDB7DEB724970FB6F894DEBF9A
:104090000FBECDBF9B838A836C8319820DC0EA81DA
:1040A000FB8180810E94F51F8A819B8101969B8301
:1040B0008A8389818F5F898399818C81981778F3AE
:1040C00024960FB6F894DEBF0FBECDBFDF91CF911F
:1040D0000895CF93DF93CDB7DEB721970FB6F8944D
:1040E000DEBF0FBECDBF898389818A3028F08981E8
:1040F000895A0E94F51F04C08981805D0E94F51FC6
:1041000021960FB6F894DEBF0FBECDBFDF91CF91E1
:104110000895CF93DF93CDB7DEB721970FB6F8940C
:10412000DEBF0FBECDBF8983898182958F700E94CB
:10413000692089818F700E94692021960FB6F894BA
:10414000DEBF0FBECDBFDF91CF910895CF93DF9338
:10415000CDB7DEB726970FB6F894DEBF0FBECDBF42
:104160006B837C838D839E83CE01039603969A8313
:10417000898380E30E94F51F88E70E94F51FE9818B
:10418000FA8180810E94892089819A8101979A838E
:104190008983E981FA8180810E94892089819A81BD
:1041A00001979A838983E981FA8180810E9489201D
:1041B00089819A8101979A838983E981FA81808133
:1041C0000E94892026960FB6F894DEBF0FBECDBFA1
:1041D000DF91CF910895AF92BF92CF92DF92EF928D
:1041E000FF920F931F93CF93DF93CDB7DEB7609706
:1041F0000FB6F894DEBF0FBECDBF69837A838B8381
:104200009C832D833E834F835887E986FA860B87EC
:104210001C87AD86BE86CF86D88A81E00E94F51FB6
:10422000FE01319680819181A281B381BC01CD01D3
:104230000E94A620FE01359680819181A281B381E2
:10424000BC01CD010E94A620FE013996808191819A
:10425000A281B381BC01CD010E94A620FE013D9642
:1042600080819181A281B381BC01CD010E94A620F1
:1042700060960FB6F894DEBF0FBECDBFDF91CF9131
:104280001F910F91FF90EF90DF90CF90BF90AF9074
:1042900008951F920F920FB60F9211242F933F9300
:1042A0004F935F936F937F938F939F93AF93BF933E
:1042B000EF93FF93CF93DF93CDB7DEB72797DEBFA2
:1042C000CDBFECE2F0E080818F831E828F8181364A
:1042D00009F044C00E94708E8A83EBE2F0E0808196
:1042E0008823DCF7ECE2F0E080818D838D818053C0
:1042F0008D83EBE2F0E080818823DCF7ECE2F0E0F4
:1043000080818C838C8180538C831B8214C0EBE270
:10431000F0E080818823DCF78E819927ECE2F0E0E1
:104320002081FC01E757FE4F20838E818F5F8E83B3
:104330008B818F5F8B839B818C81981740F38A815F
:104340000E94888E8D81282F332789E891E0AC0167
:104350006C81C9010E94F2831E8227C08F818A3737
:1043600021F50E94708E89831B8214C0EBE2F0E07D
:1043700080818823DCF78E819927ECE2F0E02081B0
:10438000FC01E757FE4F20838E818F5F8E838B81E8
:104390008F5F8B838B81813248F389810E94888E65
:1043A00089E891E00E94C4621E822796F894DEBFDD
:1043B000CDBFDF91CF91FF91EF91BF91AF919F91D1
:1043C0008F917F916F915F914F913F912F910F90BE
:1043D0000FBE0F901F901895CF93DF93CDB7DEB728
:1043E00025970FB6F894DEBF0FBECDBF1B820E948B
:1043F000708E8A8380913B04882329F481E0809326
:104400003B0481E08B8310923B048BE08093590442
:104410008FE180933C048A810E94888E8B8188235F
:1044200019F41D821C8271C00E94062680E098EF5C
:1044300090933E0480933D0482EE92E0909340047A
:1044400080933F0480E095E0909342048093410480
:1044500080E890EE90934404809343048FE097EAC1
:10446000909346048093450480913C049927806E84
:104470009066909348048093470485EE92E1909370
:104480004A048093490486E59AE090934C04809313
:104490004B0480915904282F3327C901880F991F95
:1044A000880F991F820F931F825D9E4F9064909397
:1044B0004E0480934D0484EC91E0909350048093DB
:1044C0004F0410925204109251041092540410920E
:1044D00053048FE792E09093560480935504109212
:1044E0005804109257040E94708E898382E0809352
:1044F0003B0489810E94888E80EE92E265E00E94F2
:104500000C7F81E090E09D838C838C819D8125963A
:104510000FB6F894DEBF0FBECDBFDF91CF910895E7
:10452000CF93DF93CDB7DEB722970FB6F894DEBFF7
:104530000FBECDBF8A838A810E94184789838981F3
:10454000992722960FB6F894DEBF0FBECDBFDF913C
:10455000CF910895CF93DF93CDB7DEB70E94C754B4
:1045600088E592E00E94025281E090E0DF91CF91D5
:104570000895CF93DF93CDB7DEB70E94D55488E579
:1045800092E00E94025281E090E0DF91CF91089585
:10459000CF93DF93CDB7DEB721970FB6F894DEBF88
:1045A0000FBECDBF0E942E2689838981992721962F
:1045B0000FB6F894DEBF0FBECDBFDF91CF91089547
:1045C000CF93DF93CDB7DEB70E94C822DF91CF91A2
:1045D0000895CF93DF93CDB7DEB722970FB6F89447
:1045E000DEBF0FBECDBF8A838A810E949B4989832B
:1045F0008981992722960FB6F894DEBF0FBECDBFF2
:10460000DF91CF910895CF93DF93CDB7DEB7249795
:104610000FB6F894DEBF0FBECDBF8A837C836B8359
:104620008B819C81BC018A810E944F498983898149
:10463000992724960FB6F894DEBF0FBECDBFDF9149
:10464000CF910895CF93DF93CDB7DEB723970FB601
:10465000F894DEBF0FBECDBF1B821A8268E170E006
:104660008DE10E94032381E00E94902281E00E945C
:10467000E922898381E090E023960FB6F894DEBFAB
:104680000FBECDBFDF91CF910895CF93DF93CDB70C
:10469000DEB721970FB6F894DEBF0FBECDBF0E94E4
:1046A000434A89838981992721960FB6F894DEBF02
:1046B0000FBECDBFDF91CF910895CF93DF93CDB7DC
:1046C000DEB725970FB6F894DEBF0FBECDBF1A82B6
:1046D0000E94708E898380913B04823029F483E0AC
:1046E00080933B0481E08A8389810E94888E8A813D
:1046F000882319F41D821C8214C00E9445230E9445
:10470000AA220E9478540E948C2C0E946A540E9413
:104710008C2C0E9422238B838B81282F33273D836F
:104720002C838C819D8125960FB6F894DEBF0FBE39
:10473000CDBFDF91CF910895CF93DF93CDB7DEB793
:1047400083E00E94E92281E090E0DF91CF9108951B
:10475000CF93DF93CDB7DEB721970FB6F894DEBFC6
:104760000FBECDBF0E94DB288983898199272196BE
:104770000FB6F894DEBF0FBECDBFDF91CF91089585
:10478000CF93DF93CDB7DEB725970FB6F894DEBF92
:104790000FBECDBF9D838C838C819D8180509840BE
:1047A0009B838A8380914D0490914E049C012070DC
:1047B0003C7F8A819B81822B932B90934E04809324
:1047C0004D0480914D0490914E04BC0188E10E94FB
:1047D000032389838981992780749070009719F049
:1047E00083E00E94E92281E090E025960FB6F894DC
:1047F000DEBF0FBECDBFDF91CF910895CF93DF9382
:10480000CDB7DEB723970FB6F894DEBF0FBECDBF8E
:104810008B838B81282F3327C901880F991F880F1D
:10482000991F820F931F825D964F9A838983898196
:104830009A810E94C02381E090E023960FB6F894FD
:10484000DEBF0FBECDBFDF91CF910895CF93DF9331
:10485000CDB7DEB722970FB6F894DEBF0FBECDBF3F
:104860008A8380914704909148049C01207E8A812C
:1048700099278F719070822B932B9093480480938B
:10488000470480914D0490914E04BC0185E10E9443
:10489000032389838981992780749070009719F088
:1048A00083E00E94E92281E090E022960FB6F8941E
:1048B000DEBF0FBECDBFDF91CF910895CF93DF93C1
:1048C000CDB7DEB722970FB6F894DEBF0FBECDBFCF
:1048D000842F952F9A83898389819A810E94C0238E
:1048E00022960FB6F894DEBF0FBECDBFDF91CF91F9
:1048F0000895CF93DF93CDB7DEB722970FB6F89424
:10490000DEBF0FBECDBF842F952F9A838983898107
:104910009A810E94FE2322960FB6F894DEBF0FBE46
:10492000CDBFDF91CF910895CF93DF93CDB7DEB7A1
:1049300022970FB6F894DEBF0FBECDBF842F952F00
:104940009A83898389819A810E94262422960FB6B0
:10495000F894DEBF0FBECDBFDF91CF910895CF9306
:10496000DF93CDB7DEB725970FB6F894DEBF0FBE45
:10497000CDBF9A8389836B835D834C8381E090E014
:1049800025960FB6F894DEBF0FBECDBFDF91CF9155
:104990000895CF93DF93CDB7DEB726970FB6F8947F
:1049A000DEBF0FBECDBF9B838A836C835E834D8346
:1049B0008D819E812A813B81AC016C81C9010E945D
:1049C000C64889838981992726960FB6F894DEBF59
:1049D0000FBECDBFDF91CF910895CF93DF93CDB7B9
:1049E000DEB722970FB6F894DEBF0FBECDBF9A8315
:1049F000898389819A810E94898B9A838983CE01D8
:104A00000196AC0162E08AE691E00E94C9249927F0
:104A100022960FB6F894DEBF0FBECDBFDF91CF91C7
:104A20000895CF93DF93CDB7DEB723970FB6F894F1
:104A3000DEBF0FBECDBF8B838B810E94C8499A8396
:104A4000898389819A8123960FB6F894DEBF0FBEC1
:104A5000CDBFDF91CF910895CF93DF93CDB7DEB770
:104A600024970FB6F894DEBF0FBECDBF80913D04F2
:104A700090913E04BC0180E10E94032380913F0499
:104A800090914004BC0181E10E94032381E10E94D6
:104A900011259A83898320913F04309140048981B4
:104AA0009A812817390719F01C821B8262C08091F5
:104AB000410490914204BC0182E10E940323809151
:104AC000430490914404BC0183E10E94032380913C
:104AD000450490914604BC0184E10E940323809127
:104AE000470490914804BC0185E10E940323809112
:104AF000490490914A04BC0186E10E9403238091FD
:104B00004B0490914C04BC0187E10E9403238091E7
:104B10004D0490914E04BC0188E10E9403238091D2
:104B20004F0490915004BC0189E10E9403238091BD
:104B3000510490915204BC018AE10E9403238091A8
:104B4000550490915604BC018CE10E94032380918E
:104B5000570490915804BC018DE10E94032389E021
:104B60000E94E92288E00E94E92281E090E09C8393
:104B70008B838B819C8124960FB6F894DEBF0FBE89
:104B8000CDBFDF91CF910895CF93DF93CDB7DEB73F
:104B900021970FB6F894DEBF0FBECDBF0E942C2523
:104BA00080915007909151070E94ED2480914D040F
:104BB00090914E0491708050984F0E94C0230E94A3
:104BC000708E898384E080933B0489810E94888E63
:104BD0000E94A82321960FB6F894DEBF0FBECDBF6A
:104BE000DF91CF910895CF93DF93CDB7DEB760E02B
:104BF00070E08DE10E94032384EC95E265E00E9461
:104C00000C7F80E090E0DF91CF910895CF93DF9308
:104C1000CDB7DEB721970FB6F894DEBF0FBECDBF7C
:104C20000E94244889830E941F4A682F89810E941C
:104C3000FD8D89838981992721960FB6F894DEBF6F
:104C40000FBECDBFDF91CF910895CF93DF93CDB746
:104C5000DEB781E090E0DF91CF910895CF93DF93AD
:104C6000CDB7DEB70E946A2C9927DF91CF910895C6
:104C7000CF93DF93CDB7DEB721970FB6F894DEBFA1
:104C80000FBECDBF0E94708E89831092D8041092FF
:104C90005C041092D20410925D048EE594E090932F
:104CA0005B0480935A04E0915A04F0915B041082F3
:104CB00089810E94888E809150079091510790932E
:104CC000D5048093D4040E94EC21992721960FB635
:104CD000F894DEBF0FBECDBFDF91CF910895CF9383
:104CE000DF93CDB7DEB721970FB6F894DEBF0FBEC6
:104CF000CDBF0E945D2389838981992721960FB6B4
:104D0000F894DEBF0FBECDBFDF91CF910895CF9352
:104D1000DF93CDB7DEB725970FB6F894DEBF0FBE91
:104D2000CDBF0E94708E8A838091D8048B838A8144
:104D30000E94888E8B818823B9F40E94708E8983AB
:104D40008AE08093D8041092D304E0915A04F09141
:104D50005B04108289810E94888E0E946F26282F12
:104D600033273D832C8302C01D821C828C819D8150
:104D700025960FB6F894DEBF0FBECDBFDF91CF9161
:104D80000895CF93DF93CDB7DEB722970FB6F8948F
:104D9000DEBF0FBECDBF1A820E94708E89838091C4
:104DA000D804813021F41092D80481E08A8389816B
:104DB0000E94888E8A81813011F40E948726229673
:104DC0000FB6F894DEBF0FBECDBFDF91CF9108952F
:104DD000CF93DF93CDB7DEB722970FB6F894DEBF3F
:104DE0000FBECDBF1A820E94708E89838091D80435
:104DF000882361F481EC96E265E00E940C7F8823B1
:104E000029F081E08A8381E08093D80489810E941F
:104E1000888E8A81992722960FB6F894DEBF0FBE3E
:104E2000CDBFDF91CF910895CF93DF93CDB7DEB79C
:104E300081E090E0DF91CF910895CF93DF93CDB7DC
:104E4000DEB721970FB6F894DEBF0FBECDBF0E942C
:104E5000142789838981992721960FB6F894DEBF9C
:104E60000FBECDBFDF91CF910895CF93DF93CDB724
:104E7000DEB722970FB6F894DEBF0FBECDBF8A8390
:104E80008A810E94984789838981992722960FB643
:104E9000F894DEBF0FBECDBFDF91CF910895CF93C1
:104EA000DF93CDB7DEB722970FB6F894DEBF0FBE03
:104EB000CDBF8A838A810E949B49898389819927F2
:104EC00022960FB6F894DEBF0FBECDBFDF91CF9113
:104ED0000895CF93DF93CDB7DEB721970FB6F8943F
:104EE000DEBF0FBECDBF85E00E944F2780E00E944D
:104EF0004F27898389818695869586959927817024
:104F00009070882321F081E00E94352702C00E9422
:104F1000B92B21960FB6F894DEBF0FBECDBFDF913F
:104F2000CF910895CF93DF93CDB7DEB723970FB618
:104F3000F894DEBF0FBECDBF0E94708E8A83809131
:104F4000D8048B838A810E94888E8B818530D1F42E
:104F50000E94FA56009731F40E944055009711F4D0
:104F60000E94E72B0E945357009771F00E94708EA9
:104F7000898383E08093D80489810E94888E0E946F
:104F8000692702C00E94E72B23960FB6F894DEBF74
:104F90000FBECDBFDF91CF910895CF93DF93CDB7F3
:104FA000DEB723970FB6F894DEBF0FBECDBF89835F
:104FB0007B836A830E94922781E090E023960FB65C
:104FC000F894DEBF0FBECDBFDF91CF910895CF9390
:104FD000DF93CDB7DEB724970FB6F894DEBF0FBED0
:104FE000CDBF8A837C836B838B819C81BC018A814A
:104FF0000E94294489838981992724960FB6F894C1
:10500000DEBF0FBECDBFDF91CF910895CF93DF9369
:10501000CDB7DEB789E00E944F27882319F40E949C
:10502000B92B0FC08091D6049091D7049C01809138
:10503000D9048F5FB9010E94E727882311F40E94E9
:10504000B92BDF91CF910895CF93DF93CDB7DEB722
:1050500027970FB6F894DEBF0FBECDBF9D838C831C
:105060000E94708E8A838091D8048B838A810E94EB
:10507000888E8B81823009F05FC0EC81FD8188E0F1
:1050800082838091D204882329F0EC81FD8181E222
:10509000818304C0EC81FD8181E08183EC81FD810D
:1050A0008FEF9FEF95838483EC81FD8186819781CB
:1050B0000E94898BEC81FD8197838683EC81FD8141
:1050C0008081855FEC81FD81808380915C048F5FAE
:1050D00080935C0480915C04EC81FD8183838C81EE
:1050E0009D81FC01EE58FF4F11821082EC81FD8101
:1050F000808182508093D9048C819D819093D704C4
:105100008093D60488E08093D3040E94708E8983B4
:1051100085E08093D80489810E94888E86E098E299
:1051200065E00E940C7F882311F40E94B92B81E076
:1051300090E09F838E8302C01F821E828E819F819A
:1051400027960FB6F894DEBF0FBECDBFDF91CF918B
:105150000895CF93DF93CDB7DEB722970FB6F894BB
:10516000DEBF0FBECDBF8A838A810E94F04589834E
:105170008981992722960FB6F894DEBF0FBECDBF66
:10518000DF91CF910895CF93DF93CDB7DEB721970D
:105190000FB6F894DEBF0FBECDBF0E949C2389835B
:1051A0008981992721960FB6F894DEBF0FBECDBF37
:1051B000DF91CF910895CF93DF93CDB7DEB72397DB
:1051C0000FB6F894DEBF0FBECDBF0E94708E8A83EB
:1051D0008091D8048B838A810E94888E8B818A304B
:1051E00089F40E94C32880E00E94A92881E00E94DF
:1051F00035270E94708E898382E08093D80489814C
:105200000E94888E0E941D2781E090E023960FB6B1
:10521000F894DEBF0FBECDBFDF91CF910895CF933D
:10522000DF93CDB7DEB723970FB6F894DEBF0FBE7E
:10523000CDBF8B838B810E94C8499A8389838981E2
:105240009A8123960FB6F894DEBF0FBECDBFDF91D3
:10525000CF910895CF93DF93CDB7DEB721970FB6E7
:10526000F894DEBF0FBECDBF0E94164689838981A8
:10527000992721960FB6F894DEBF0FBECDBFDF9100
:10528000CF910895CF93DF93CDB7DEB70E94102C56
:10529000DF91CF910895CF93DF93CDB7DEB72397FA
:1052A0000FB6F894DEBF0FBECDBF0E94FA5600972E
:1052B00039F40E94E72B81E090E09B838A8316C03B
:1052C0000E94708E898382E499E265E00E940C7FDF
:1052D000882319F00E942A2902C00E94E72B8981A5
:1052E0000E94888E81E090E09B838A838A819B81E3
:1052F00023960FB6F894DEBF0FBECDBFDF91CF91DE
:105300000895CF93DF93CDB7DEB724970FB6F89407
:10531000DEBF0FBECDBF9C838B838B819C810E949F
:10532000A2659A83898389819A8124960FB6F8941D
:10533000DEBF0FBECDBFDF91CF910895CF93DF9336
:10534000CDB7DEB724970FB6F894DEBF0FBECDBF42
:105350000E94708E8A8380915A0490915B049C8392
:105360008B838A810E94888E8B819C810E948129F7
:105370009C838B830E94708E89838B819C81009794
:1053800031F08B819C8190935B0480935A04E0916F
:105390005A04F0915B04108210925D0489810E948E
:1053A000888E24960FB6F894DEBF0FBECDBFDF9176
:1053B000CF9108950F931F93CF93DF93CDB7DEB7AF
:1053C0002B970FB6F894DEBF0FBECDBF8F837987C2
:1053D00068870E94708E8D838091D8048E838D8122
:1053E0000E94888E0E94FA56009721F40E94405530
:1053F000009731F08F81882319F08F81813778F001
:105400000E94E72B0E94708E8C8310925D048C8129
:105410000E94888E81E090E09B878A87C5C088853E
:10542000998590935B0480935A04E0915A04F0911B
:105430005B0481819927877090708130910539F4E0
:10544000E0915A04F0915B048281883079F00E94E7
:10545000E72B0E94708E8B8310925D048B810E94DB
:10546000888EE1E0F0E0FB87EA879EC0A0915A04B5
:10547000B0915B04E0915A04F0915B0480818B5001
:105480008C93E0915A04F0915B048081853678F02A
:105490000E94E72B0E94708E8A8310925D048A819D
:1054A0000E94888E81E090E09B878A877DC0009172
:1054B0005A0410915B04E0915A04F0915B048681D8
:1054C00097810E94AD8BF8019783868340915A049F
:1054D00050915B048F8199279C0188859985820F63
:1054E000931FFC0131978081881F8827881FFA014C
:1054F000E059FF4F808340915A0450915B048F81A3
:1055000099279C0188859985820F931FFC0132970A
:105510008081FA01E259FF4F808340915A045091F3
:105520005B048F8199279C0188859985820F931F41
:10553000FC01319780818F77FA01E159FF4F808319
:105540000E94708E89838EE999E265E00E940C7F4B
:10555000882311F410925D0489810E94888E0E9434
:10556000FA56009759F40E944055009739F40E946A
:10557000E72B81E090E09B878A8716C00E94405508
:10558000009761F482E499E265E00E940C7F882331
:1055900029F0E1E0F0E0FB87EA8706C00E94E72BF4
:1055A00081E090E09B878A878A859B852B960FB642
:1055B000F894DEBF0FBECDBFDF91CF911F910F9149
:1055C0000895CF93DF93CDB7DEB724970FB6F89445
:1055D000DEBF0FBECDBF8A837C836B838B819C81B2
:1055E000BC018A810E94FE4489838981992724967F
:1055F0000FB6F894DEBF0FBECDBFDF91CF910895F7
:10560000CF93DF93CDB7DEB724970FB6F894DEBF04
:105610000FBECDBF9B838A836C838A819B816C8103
:105620000E94BB6589838981992724960FB6F894D7
:10563000DEBF0FBECDBFDF91CF910895CF93DF9333
:10564000CDB7DEB723970FB6F894DEBF0FBECDBF40
:105650000E94708E898382E08093D8048091D60462
:105660009091D7049B838A83EA81FB8180818B5050
:10567000EA81FB81808389810E94888E8A819B8157
:1056800061E00E94002B23960FB6F894DEBF0FBE98
:10569000CDBFDF91CF910895CF93DF93CDB7DEB724
:1056A00021970FB6F894DEBF0FBECDBF0E94BD4755
:1056B00089838981992721960FB6F894DEBF0FBEA2
:1056C000CDBFDF91CF910895CF93DF93CDB7DEB7F4
:1056D00024970FB6F894DEBF0FBECDBF9A8389839F
:1056E0008091D804282F33273C832B838B819C8186
:1056F0008330910531F02B813C8124303105E9F074
:105700002DC080E00E9435270E945756009719F45B
:105710000E944C2B03C084E08093D8048091D6046F
:105720009091D704FC01EE58FF4F89819A819183B3
:1057300080838091D804843089F086E08093D804F7
:105740000E944C2B81E00E9435278EE19BE265E0B0
:105750000E940C7F882311F40E94B92B81E090E015
:1057600024960FB6F894DEBF0FBECDBFDF91CF9168
:105770000895CF93DF93CDB7DEB721970FB6F89496
:10578000DEBF0FBECDBF0E94708E898382E0809302
:10579000D80489810E94888EA091D604B091D70444
:1057A000E091D604F091D70480818B508C93809146
:1057B000D6049091D70460E00E94002B21960FB68A
:1057C000F894DEBF0FBECDBFDF91CF910895CF9388
:1057D000DF93CDB7DEB721970FB6F894DEBF0FBECB
:1057E000CDBF0E942A298FE30E940F2988E00E94E2
:1057F0004F2788E00E944F270E94708E8983109265
:105800005D0489810E94888E80E00E94A9282196EB
:105810000FB6F894DEBF0FBECDBFDF91CF910895D4
:10582000CF93DF93CDB7DEB724970FB6F894DEBFE2
:105830000FBECDBF80E78C830E94FA56009739F4E3
:105840000E944055009719F40E94E72B3AC00E942D
:10585000708E8A8380915D048B838B81882351F0C5
:1058600082E499E265E00E940C7F882331F40E9473
:10587000E72B03C081E080935D048A810E94888EBB
:105880008B818823E1F480915A0490915B04BC01E0
:105890008C810E94E12A882391F40E94708E898372
:1058A00010925D0489810E94888E82E499E265E00D
:1058B0000E940C7F882329F40E94E72B02C00E94DB
:1058C000E72B24960FB6F894DEBF0FBECDBFDF9155
:1058D000CF910895CF93DF93CDB7DEB721970FB661
:1058E000F894DEBF0FBECDBF0E9425268983898133
:1058F000992721960FB6F894DEBF0FBECDBFDF917A
:10590000CF910895CF93DF93CDB7DEB782E0809338
:10591000D804DF91CF910895CF93DF93CDB7DEB751
:1059200000000000DF91CF910895CF93DF93CDB7B2
:10593000DEB7789488950E948C2CDF91CF910895E2
:10594000CF93DF93CDB7DEB78895DF91CF910895E0
:10595000CF93DF93CDB7DEB77894DF91CF910895E1
:10596000CF93DF93CDB7DEB7F894DF91CF91089551
:10597000CF93DF93CDB7DEB721970FB6F894DEBF94
:105980000FBECDBFEFE5F0E080818983F894898177
:10599000992721960FB6F894DEBF0FBECDBFDF91D9
:1059A000CF910895CF93DF93CDB7DEB721970FB690
:1059B000F894DEBF0FBECDBF8983EFE5F0E08981AB
:1059C000808321960FB6F894DEBF0FBECDBFDF9166
:1059D000CF910895CF93DF93CDB7DEB7E0E0F0E04D
:1059E0000995DF91CF910895CF93DF93CDB7DEB7BF
:1059F000E2E5F0E080819927DF91CF910895CF9380
:105A0000DF93CDB7DEB7E1E5F0E080819927DF9144
:105A1000CF910895CF93DF93CDB7DEB721970FB61F
:105A2000F894DEBF0FBECDBF0E945E3689838981A8
:105A3000992721960FB6F894DEBF0FBECDBFDF9138
:105A4000CF910895CF93DF93CDB7DEB721970FB6EF
:105A5000F894DEBF0FBECDBF8983E1E5F0E0898118
:105A6000808321960FB6F894DEBF0FBECDBFDF91C5
:105A7000CF910895CF93DF93CDB7DEB723970FB6BD
:105A8000F894DEBF0FBECDBF8A836B838B81877096
:105A90008B838B8188608B830E94708E8983A7E5BE
:105AA000B0E0E7E5F0E080818E7F8C93A7E5B0E081
:105AB000E7E5F0E080818D7F8C93A0E5B0E0E0E544
:105AC000F0E0808188608C93E3E5F0E08B81808357
:105AD000E2E5F0E01082E1E5F0E08A818083A7E56D
