:100000000C94DE000C94FD000C94FD000C94FD009B
:100010000C94FD000C94FD000C94FD000C94EF2852
:100020000C94FD000C94FD000C94FD000C944F2EDC
:100030000C94E82E0C94FD000C94FD000C943D678C
:100040000C94FD000C94FD000C94B8180C94FD0069
:100050000C94FD000C940A380C94FD000C94FD00E7
:100060000C94FD000C94FD000C94C1670C94FD00F1
:100070000C94FD000C94FD000C94FD000C94FD000C
:100080000C94FD000C94FD000C94FD00C97FCE7F04
:10009000D37FD87FDD7FE27F4080408040804080FA
:1000A000E77FEA7FEF7FF77F40804080408040809D
:1000B0004080408040804080408040804080408040
:1000C0004080408040804080FF7F048009800C8019
:1000D000118040804080408040804080408040804F
:1000E0004080408040804080408040804080408010
:1000F000168040804080408040804080408040802A
:10010000408040801B804080408040804080408014
:1001100040804080408040802080408040804080FF
:1001200040804080408040804080408025804080EA
:1001300040804080408040804080408040804080BF
:1001400040804080408040804080408040804080AF
:10015000408040804080408040804080408040809F
:10016000408040804080408040804080408040808F
:100170004080408040804080408040802A80408095
:10018000408040804080408040804080408040806F
:100190002F80408040804080408040804080408070
:1001A000408040804080408034804080408040805B
:1001B00040804080408040804080398011241FBEB4
:1001C000CFEFD0E1DEBFCDBF11E0A0E0B1E0EEE4C3
:1001D000FBE201E00BBF02C007900D92A036B10711
:1001E000D9F71AE0A0E6B1E001C01D92A13AB1072B
:1001F000E1F70E9410050C94A5950C940000DF9384
:10020000CF930F92CDB7DEB7198216C08981882FA0
:1002100090E0019640910C0150910D012981222F0F
:1002200030E0240F351FF9012081805A9E4FFC01D8
:10023000208389818F5F898389818B3038F3109285
:100240006001809160018F5F809360010E945A017C
:1002500020E631E08AE090E06FEF7FEF49E00E9416
:10026000E88584EF91E00E94C58CEBCFDF93CF93BC
:1002700000D0CDB7DEB788E89CEE9A838983898168
:100280009A81FC0109950F900F90CF91DF9108950D
:10029000DF93CF9300D0CDB7DEB780E89CEE9A8392
:1002A000898389819A81FC0109950F900F90CF91E4
:1002B000DF910895DF93CF9300D0CDB7DEB784E808
:1002C0009CEE9A83898389819A81FC0109950F901C
:1002D0000F90CF91DF910895DF93CF9300D0CDB7EA
:1002E000DEB78CE89CEE9A83898389819A81FC0130
:1002F00009950F900F90CF91DF910895DF93CF93E1
:1003000000D0CDB7DEB780E99CEE9A8389838981DE
:100310009A81FC0109950F900F90CF91DF9108957C
:10032000DF93CF9300D0CDB7DEB78CE99CEE9A83F4
:10033000898389819A81FC0109950F900F90CF9153
:10034000DF910895DF93CF9300D0CDB7DEB780EA79
:100350009CEE9A83898389819A81FC0109950F908B
:100360000F90CF91DF910895DF93CF9300D0CDB759
:10037000DEB784E99CEE9A83898389819A81FC01A6
:1003800009950F900F90CF91DF910895DF93CF9350
:1003900000D0CDB7DEB788E99CEE9A838983898146
:1003A0009A81FC0109950F900F90CF91DF910895EC
:1003B000DF93CF9300D0CDB7DEB70E94B6389A83D3
:1003C00089838091890790918A0729813A81FC016C
:1003D000368F258F0F900F90CF91DF910895DF9387
:1003E000CF9300D0CDB7DEB70E94FE389A838983C1
:1003F0008091890790918A0729813A81FC01368F83
:10040000258F0F900F90CF91DF910895DF93CF93B9
:1004100000D0CDB7DEB70E9446399A838983809198
:10042000890790918A0729813A81FC01368F258FAF
:100430000F900F90CF91DF910895DF93CF9300D06D
:10044000CDB7DEB70E947C399A8389838091890772
:1004500090918A0729813A81FC01368F258F0F9070
:100460000F90CF91DF910895DF93CF9300D0CDB758
:10047000DEB70E94B2399A8389838091890790916F
:100480008A0729813A81FC01368F258F0F900F90C2
:10049000CF91DF910895DF93CF9300D0CDB7DEB732
:1004A0000E94E8399A8389838091890790918A070D
:1004B00029813A81FC01368F258F0F900F90CF91C3
:1004C000DF910895DF93CF93CDB7DEB784EC91E051
:1004D000CF91DF910895DF93CF93CDB7DEB78091B1
:1004E000C4019091C5012091C6013091C701A901B5
:1004F0002091C8013091C901BA01A9010E944A3B6B
:10050000CF91DF910895DF93CF93CDB7DEB7809180
:10051000C4019091C5012091C6013091C701A90184
:100520002091C8013091C901BA01A9010E946A3B1A
:10053000CF91DF910895DF93CF93CDB7DEB784E7F6
:1005400095E0CF91DF910895DF93CF93CDB7DEB7DC
:100550008BE695E0CF91DF910895DF93CF9300D0A4
:10056000CDB7DEB784E795E02BE635E0B9010E9410
:10057000E7409A8389838091720590917305298160
:100580003A81FC0132A321A387E061E00E94843715
:100590000F900F90CF91DF910895DF93CF93CDB758
:1005A000DEB78091890790918A07909373058093B5
:1005B00072058DEA92E065E00E94952FCF91DF9160
:1005C0000895DF93CF93CDB7DEB780916905909101
:1005D0006A050E947A4187E062E00E948437CF91E9
:1005E000DF910895DF93CF93CDB7DEB78091890770
:1005F00090918A07FC0181A192A190936A05809352
:10060000690581EE92E065E00E94952FCF91DF9120
:100610000895DF93CF93CDB7DEB7809169059091B0
:100620006A0540918B0550918C05209170053091A1
:100630007105BA01A9010E94274387E063E00E9487
:100640008437CF91DF910895DF93CF93CDB7DEB795
:100650008091890790918A07FC0181A192A19093D2
:100660006A05809369058091890790918A07FC014A
:1006700083A194A190938C0580938B058091890729
:1006800090918A07FC0185A196A1909371058093B2
:10069000700589E093E065E00E94952FCF91DF918E
:1006A0000895DF93CF93CDB7DEB780916905909120
:1006B0006A0540918B0550918C0520917005309111
:1006C0007105BA01A9010E94A34487E064E00E9479
:1006D0008437CF91DF910895DF93CF93CDB7DEB705
:1006E0008091890790918A07FC0181A192A1909342
:1006F0006A05809369058091890790918A07FC01BA
:1007000083A194A190938C0580938B058091890798
:1007100090918A07FC0185A196A190937105809321
:10072000700581E593E065E00E94952FCF91DF9100
:100730000895DF93CF93CDB7DEB78091890790916D
:100740008A07FC0181A192A190936A0580936905B3
:100750008091890790918A07FC0183A194A19093CD
:100760008A05809389058091890790918A07FC0109
:1007700085A196A19093680580936705809169058E
:1007800090916A052091890530918A05442737FDAB
:100790004095542FE0916705F0916805BA01A901D1
:1007A0009F010E949041CF91DF910895DF93CF93F5
:1007B00000D0CDB7DEB7842F952F9A8389838981A6
:1007C0009A810E941F200F900F90CF91DF91089582
:1007D000DF93CF9300D0CDB7DEB7842F952F9A83C8
:1007E000898389819A810E9459200F900F90CF911F
:1007F000DF910895DF93CF9300D0CDB7DEB7842F7C
:10080000952F9A83898389819A810E9479200F90FC
:100810000F90CF91DF910895DF93CF93CDB7DEB7DF
:1008200089E594E069E00E94952F8AE090E00E94BB
:10083000AC330E94C71BCF91DF910895DF93CF9314
:10084000CDB7DEB789E995E0CF91DF910895DF93C9
:10085000CF93CDB7DEB78DE895E0CF91DF910895C6
:10086000EF92FF920F931F93DF93CF93CDB7DEB735
:1008700080918D0590918E0560918F054091900536
:10088000509191052091920530919305A091940586
:10089000B0919505E0919705F09198058D017F0144
:1008A0000E94F31BCF91DF911F910F91FF90EF906A
:1008B0000895DF93CF9300D0CDB7DEB78AEA95E0F5
:1008C0009A83898380919D05882341F480919E05B8
:1008D00090919F050E944F7080939D0589819A8118
:1008E00020919E0530919F0540919D05B9010E9480
:1008F000966E80919B0590919C05009789F0809160
:10090000990590919A0540919B0550919C05E09125
:100910009D0520EA35E0BA014E2F0E94831A21C0BE
:1009200080919D058093A00580919B0590919C05E9
:100930009093A7058093A6058091990590919A05BB
:100940009093A9058093A80510920E0610920F06A9
:100950008091990590919A0520EA35E0B9010E94AD
:10096000181D0F900F90CF91DF910895DF93CF93D3
:10097000CDB7DEB727970FB6F894DEBF0FBECDBF59
:100980009A8389837C836B834D833F832E83898104
:100990009A8190939A05809399058B819C8190937D
:1009A0009C0580939B058D8180939D058E819F8101
:1009B00090939F0580939E0589E594E069E00E94ED
:1009C000952F8AE090E00E94AC330E94C71B2796C7
:1009D0000FB6F894DEBF0FBECDBFCF91DF91089563
:1009E000DF93CF9300D0CDB7DEB789E897E09A8345
:1009F000898389819A810F900F90CF91DF9108951B
:100A0000DF93CF9300D0CDB7DEB78BE897E09A8322
:100A1000898389819A810F900F90CF91DF910895FA
:100A2000AF92BF92CF92DF92EF92FF920F93DF933C
:100A3000CF93CDB7DEB70E94F3120E943E380E94DA
:100A4000702F0E948F300E946A160E941E3A0E94E8
:100A5000673A0E94AF3A0E94F73A87E296E02EE0AA
:100A600031E0B90148E00E94966E84E196E027E10A
:100A700031E0B90147E00E94966E83E090E09093E8
:100A80002606809325068091250690912606909350
:100A9000CB018093CA018091CA019091CB012AE0D9
:100AA00030E0B9010E9472949B01C901805D80937E
:100AB00018068091CA019091CB012AE030E0B9017B
:100AC0000E947294805D809319060E947F5B0E9451
:100AD000133B27E236E080E29CE060E170E0A90190
:100AE0000E946A3B24E136E085E39CE060E170E02F
:100AF000A9010E946A3B8091CA019091CB010E949A
:100B0000DB050E94673A0E94AF3A0E94F73A809153
:100B10002506909126060E9460950E9415680E9405
:100B2000BE690E94171A0E943D1A0E94D21B0E94A1
:100B30003C7F85E10E9459208FE10E94792045EF9A
:100B400058E085EF98E09C0122503F4F86E69FE7F2
:100B5000EFE1F1E0BA01A90120E030E00FE07F0110
:100B6000CC24DD24AA24BB240E94D7304DE654E0D7
:100B70008DE694E09C0128503F4F8FEF90E0E8E233
:100B8000F1E0BA01A90120E030E00FE07F01CC24C0
:100B9000DD24AA24BB240E94D7300E942F060E9485
:100BA000F42FFDCFDF93CF93CDB7DEB784E196E08E
:100BB000CF91DF910895DF93CF9300D0CDB7DEB70B
:100BC0009A83898329813A818EE49CE0B9010E944D
:100BD000363C0F900F90CF91DF910895DF93CF9324
:100BE000CDB7DEB78EE49CE00E94C63BCF91DF918B
:100BF0000895DF93CF930F92CDB7DEB7898384E555
:100C00009CE069810E940E3C0F90CF91DF91089586
:100C1000DF93CF93CDB7DEB784E59CE00E94A63B7F
:100C2000CF91DF910895DF93CF93CDB7DEB700006A
:100C30000000CF91DF910895DF93CF93CDB7DEB75A
:100C4000789488950E941306CF91DF910895DF93E1
:100C5000CF93CDB7DEB78895CF91DF910895DF931D
:100C6000CF93CDB7DEB77894CF91DF910895DF931E
:100C7000CF93CDB7DEB7F894CF91DF910895DF938E
:100C8000CF930F92CDB7DEB78FE590E0FC01808166
:100C90008983F89489810F90CF91DF910895DF9334
:100CA000CF930F92CDB7DEB789838FE590E029818E
:100CB000FC0120830F90CF91DF910895DF93CF93B4
:100CC000CDB7DEB7E0E0F0E00995CF91DF91089570
:100CD000DF93CF93CDB7DEB700000000CF91DF9157
:100CE0000895DF93CF9300D0CDB7DEB79A83898381
:100CF0000DC0000000000000000000000000000027
:100D0000000089819A8101979A83898389819A81D8
:100D10001816190674F30F900F90CF91DF91089574
:100D2000DF93CF93CDB7DEB78BE390E02BE330E0DA
:100D3000F90120812460FC012083CF91DF91089587
:100D4000DF93CF93CDB7DEB78BE390E02BE330E0BA
:100D5000F90120812B7FFC012083CF91DF91089541
:100D6000DF93CF93CDB7DEB789E390E0FC018081BC
:100D7000882F90E09C012470307081E090E0211574
:100D8000310511F480E090E0CF91DF910895DF9379
:100D9000CF93CDB7DEB78AE390E02AE330E0F901E4
:100DA00020812460FC012083CF91DF910895DF939F
:100DB000CF93CDB7DEB78AE390E02AE330E0F901C4
:100DC00020812B7FFC012083CF91DF910895DF9359
:100DD000CF93CDB7DEB78BE390E02BE330E0F901A2
:100DE00020812260FC012083CF91DF910895DF9361
:100DF000CF93CDB7DEB78BE390E02BE330E0F90182
:100E000020812D7FFC012083CF91DF910895DF9316
:100E1000CF93CDB7DEB789E390E0FC018081882FC6
:100E200090E09C012270307081E090E02115310546
:100E300011F480E090E0CF91DF910895DF93CF939C
:100E4000CDB7DEB78AE390E02AE330E0F9012081F4
:100E50002260FC012083CF91DF910895DF93CF932F
:100E6000CDB7DEB78AE390E02AE330E0F9012081D4
:100E70002D7FFC012083CF91DF910895DF93CF93E5
:100E8000CDB7DEB78BE390E02BE330E0F9012081B2
:100E90002160FC012083CF91DF910895DF93CF93F0
:100EA000CDB7DEB78BE390E02BE330E0F901208192
:100EB0002E7FFC012083CF91DF910895DF93CF93A4
:100EC000CDB7DEB789E390E0FC018081882F90E008
:100ED00081709070CF91DF910895DF93CF93CDB75C
:100EE000DEB78AE390E02AE330E0F9012081216057
:100EF000FC012083CF91DF910895DF93CF93CDB78D
:100F0000DEB78AE390E02AE330E0F90120812E7F0A
:100F1000FC012083CF91DF910895DF93CF93CDB76C
:100F2000DEB78BE390E02BE330E0F9012081206114
:100F3000FC012083CF91DF910895DF93CF93CDB74C
:100F4000DEB78BE390E02BE330E0F90120812F7EC8
:100F5000FC012083CF91DF910895DF93CF93CDB72C
:100F6000DEB789E390E0FC018081882F90E09C014E
:100F70002071307081E090E02115310511F480E09E
:100F800090E0CF91DF910895DF93CF93CDB7DEB797
:100F90008AE390E02AE330E0F90120812061FC013E
:100FA0002083CF91DF910895DF93CF93CDB7DEB744
:100FB0008AE390E02AE330E0F90120812F7EFC01F2
:100FC0002083CF91DF910895DF93CF93CDB7DEB724
:100FD0008BE390E02BE330E0F90120812062FC01FB
:100FE0002083CF91DF910895DF93CF93CDB7DEB704
:100FF0008BE390E02BE330E0F90120812F7DFC01B1
:101000002083CF91DF910895DF93CF93CDB7DEB7E3
:1010100089E390E0FC018081882F90E09C012072A0
:10102000307081E090E02115310511F480E090E00E
:10103000CF91DF910895DF93CF93CDB7DEB78AE3E9
:1010400090E02AE330E0F90120812062FC01208356
:10105000CF91DF910895DF93CF93CDB7DEB78AE3C9
:1010600090E02AE330E0F90120812F7DFC0120830C
:10107000CF91DF910895DF93CF93CDB7DEB78BE3A8
:1010800090E02BE330E0F90120812068FC0120830F
:10109000CF91DF910895DF93CF93CDB7DEB78BE388
:1010A00090E02BE330E0F90120812F77FC012083D1
:1010B000CF91DF910895DF93CF93CDB7DEB789E36A
:1010C00090E0FC018081992787FD90958827990FF2
:1010D000881F9927CF91DF910895DF93CF93CDB7E4
:1010E000DEB78AE390E02AE330E0F901208120684E
:1010F000FC012083CF91DF910895DF93CF93CDB78B
:10110000DEB78AE390E02AE330E0F90120812F770F
:10111000FC012083CF91DF910895DF93CF93CDB76A
:10112000DEB78BE390E02BE330E0F901208128600B
:10113000FC012083CF91DF910895DF93CF93CDB74A
:10114000DEB78BE390E02BE330E0F9012081277FCD
:10115000FC012083CF91DF910895DF93CF93CDB72A
:10116000DEB789E390E0FC018081882F90E09C014C
:101170002870307081E090E02115310511F480E095
:1011800090E0CF91DF910895DF93CF93CDB7DEB795
:101190008AE390E02AE330E0F90120812860FC0135
:1011A0002083CF91DF910895DF93CF93CDB7DEB742
:1011B0008AE390E02AE330E0F9012081277FFC01F7
:1011C0002083CF91DF910895DF93CF93CDB7DEB722
:1011D00082E390E022E330E0F90120812062FC010B
:1011E0002083CF91DF910895DF93CF93CDB7DEB702
:1011F00082E390E022E330E0F90120812F7DFC01C1
:101200002083CF91DF910895DF93CF93CDB7DEB7E1
:1012100080E390E0FC018081882F90E09C012072A7
:10122000307081E090E02115310511F480E090E00C
:10123000CF91DF910895DF93CF93CDB7DEB781E3F0
:1012400090E021E330E0F90120812062FC0120835D
:10125000CF91DF910895DF93CF93CDB7DEB781E3D0
:1012600090E021E330E0F90120812F7DFC01208313
:10127000CF91DF910895DF93CF93CDB7DEB782E3AF
:1012800090E022E330E0F90120812860FC01208316
:10129000CF91DF910895DF93CF93CDB7DEB782E38F
:1012A00090E022E330E0F9012081277FFC012083D8
:1012B000CF91DF910895DF93CF93CDB7DEB780E371
:1012C00090E0FC018081882F90E09C0128703070B4
:1012D00081E090E02115310511F480E090E0CF919C
:1012E000DF910895DF93CF93CDB7DEB781E390E030
:1012F00021E330E0F90120812860FC012083CF91B7
:10130000DF910895DF93CF93CDB7DEB781E390E00F
:1013100021E330E0F9012081277FFC012083CF9178
:10132000DF910895DF93CF93CDB7DEB782E390E0EE
:1013300022E330E0F90120812460FC012083CF9179
:10134000DF910895DF93CF93CDB7DEB782E390E0CE
:1013500022E330E0F90120812B7FFC012083CF9133
:10136000DF910895DF93CF93CDB7DEB780E390E0B0
:10137000FC018081882F90E09C012470307081E016
:1013800090E02115310511F480E090E0CF91DF91DC
:101390000895DF93CF93CDB7DEB781E390E021E3EB
:1013A00030E0F90120812460FC012083CF91DF919E
:1013B0000895DF93CF93CDB7DEB781E390E021E3CB
:1013C00030E0F90120812B7FFC012083CF91DF9158
:1013D0000895DF93CF93CDB7DEB783E290E023E2A9
:1013E00030E0F90120812061FC012083CF91DF9161
:1013F0000895DF93CF93CDB7DEB783E290E023E289
:1014000030E0F90120812F7EFC012083CF91DF9114
:101410000895DF93CF93CDB7DEB781E290E0FC0172
:101420008081882F90E09C012071307081E090E0F5
:101430002115310511F480E090E0CF91DF910895FE
:10144000DF93CF93CDB7DEB782E290E022E230E0C7
:10145000F90120812061FC012083CF91DF91089563
:10146000DF93CF93CDB7DEB782E290E022E230E0A7
:10147000F90120812F7EFC012083CF91DF91089517
:10148000DF93CF93CDB7DEB783E290E023E230E085
:10149000F90120812062FC012083CF91DF91089522
:1014A000DF93CF93CDB7DEB783E290E023E230E065
:1014B000F90120812F7DFC012083CF91DF910895D8
:1014C000DF93CF93CDB7DEB781E290E0FC0180815E
:1014D000882F90E09C012072307081E090E021150F
:1014E000310511F480E090E0CF91DF910895DF9312
:1014F000CF93CDB7DEB782E290E022E230E0F9018F
:1015000020812062FC012083CF91DF910895DF9339
:10151000CF93CDB7DEB782E290E022E230E0F9016E
:1015200020812F7DFC012083CF91DF910895DF93EF
:10153000CF93CDB7DEB783E290E023E230E0F9014C
:1015400020812064FC012083CF91DF910895DF93F7
:10155000CF93CDB7DEB783E290E023E230E0F9012C
:1015600020812F7BFC012083CF91DF910895DF93B1
:10157000CF93CDB7DEB781E290E0FC018081882F68
:1015800090E09C012074307081E090E021153105DD
:1015900011F480E090E0CF91DF910895DF93CF9335
:1015A000CDB7DEB782E290E022E230E0F90120819F
:1015B0002064FC012083CF91DF910895DF93CF93C6
:1015C000CDB7DEB782E290E022E230E0F90120817F
:1015D0002F7BFC012083CF91DF910895DF93CF9380
:1015E000CDB7DEB783E290E023E230E0F90120815D
:1015F0002068FC012083CF91DF910895DF93CF9382
:10160000CDB7DEB783E290E023E230E0F90120813C
:101610002F77FC012083CF91DF910895DF93CF9343
:10162000CDB7DEB781E290E0FC018081992787FD8C
:1016300090958827990F881F9927CF91DF9108955A
:10164000DF93CF93CDB7DEB782E290E022E230E0C5
:10165000F90120812068FC012083CF91DF9108955A
:10166000DF93CF93CDB7DEB782E290E022E230E0A5
:10167000F90120812F77FC012083CF91DF9108951C
:10168000DF93CF93CDB7DEB788E390E028E330E077
:10169000F90120812460FC012083CF91DF9108951E
:1016A000DF93CF93CDB7DEB788E390E028E330E057
:1016B000F90120812B7FFC012083CF91DF910895D8
:1016C000DF93CF93CDB7DEB786E390E0FC01808156
:1016D000882F90E09C012470307081E090E021150B
:1016E000310511F480E090E0CF91DF910895DF9310
:1016F000CF93CDB7DEB787E390E027E330E0F90181
:1017000020812460FC012083CF91DF910895DF9335
:10171000CF93CDB7DEB787E390E027E330E0F90160
:1017200020812B7FFC012083CF91DF910895DF93EF
:10173000CF93CDB7DEB788E390E028E330E0F9013E
:1017400020812860FC012083CF91DF910895DF93F1
:10175000CF93CDB7DEB788E390E028E330E0F9011E
:101760002081277FFC012083CF91DF910895DF93B3
:10177000CF93CDB7DEB786E390E0FC018081882F60
:1017800090E09C012870307081E090E021153105D7
:1017900011F480E090E0CF91DF910895DF93CF9333
:1017A000CDB7DEB787E390E027E330E0F901208191
:1017B0002860FC012083CF91DF910895DF93CF93C0
:1017C000CDB7DEB787E390E027E330E0F901208171
:1017D000277FFC012083CF91DF910895DF93CF9382
:1017E000CDB7DEB788E390E028E330E0F90120814F
:1017F0002260FC012083CF91DF910895DF93CF9386
:10180000CDB7DEB788E390E028E330E0F90120812E
:101810002D7FFC012083CF91DF910895DF93CF933B
:10182000CDB7DEB786E390E0FC018081882F90E0A1
:101830009C012270307081E090E02115310511F497
:1018400080E090E0CF91DF910895DF93CF93CDB703
:10185000DEB787E390E027E330E0F90120812260E2
:10186000FC012083CF91DF910895DF93CF93CDB713
:10187000DEB787E390E027E330E0F90120812D7F98
:10188000FC012083CF91DF910895DF93CF93CDB7F3
:10189000DEB785E390E025E330E0F90120812160A7
:1018A000FC012083CF91DF910895DF93CF93CDB7D3
:1018B000DEB785E390E025E330E0F90120812E7F5B
:1018C000FC012083CF91DF910895DF93CF93CDB7B3
:1018D000DEB783E390E0FC018081882F90E0817087
:1018E0009070CF91DF910895DF93CF93CDB7DEB79E
:1018F00084E390E024E330E0F90120812160FC01E1
:101900002083CF91DF910895DF93CF93CDB7DEB7DA
:1019100084E390E024E330E0F90120812E7FFC0194
:101920002083CF91DF910895DF93CF93CDB7DEB7BA
:1019300085E390E025E330E0F90120812260FC019D
:101940002083CF91DF910895DF93CF93CDB7DEB79A
:1019500085E390E025E330E0F90120812D7FFC0153
:101960002083CF91DF910895DF93CF93CDB7DEB77A
:1019700083E390E0FC018081882F90E09C0122703D
:10198000307081E090E02115310511F480E090E0A5
:10199000CF91DF910895DF93CF93CDB7DEB784E386
:1019A00090E024E330E0F90120812260FC012083F3
:1019B000CF91DF910895DF93CF93CDB7DEB784E366
:1019C00090E024E330E0F90120812D7FFC012083A9
:1019D000CF91DF910895DF93CF93CDB7DEB785E345
:1019E00090E025E330E0F90120812460FC012083B0
:1019F000CF91DF910895DF93CF93CDB7DEB785E325
:101A000090E025E330E0F90120812B7FFC01208369
:101A1000CF91DF910895DF93CF93CDB7DEB783E306
:101A200090E0FC018081882F90E09C012470307050
:101A300081E090E02115310511F480E090E0CF9134
:101A4000DF910895DF93CF93CDB7DEB784E390E0C5
:101A500024E330E0F90120812460FC012083CF9150
:101A6000DF910895DF93CF93CDB7DEB784E390E0A5
:101A700024E330E0F90120812B7FFC012083CF910A
:101A8000DF910895DF93CF93CDB7DEB785E390E084
:101A900025E330E0F90120812860FC012083CF910B
:101AA000DF910895DF93CF93CDB7DEB785E390E064
:101AB00025E330E0F9012081277FFC012083CF91CD
:101AC000DF910895DF93CF93CDB7DEB783E390E046
:101AD000FC018081882F90E09C012870307081E0AB
:101AE00090E02115310511F480E090E0CF91DF9175
:101AF0000895DF93CF93CDB7DEB784E390E024E37E
:101B000030E0F90120812860FC012083CF91DF9132
:101B10000895DF93CF93CDB7DEB784E390E024E35D
:101B200030E0F9012081277FFC012083CF91DF91F4
:101B30000895DF93CF93CDB7DEB785E390E025E33B
:101B400030E0F90120812061FC012083CF91DF91F9
:101B50000895DF93CF93CDB7DEB785E390E025E31B
:101B600030E0F90120812F7EFC012083CF91DF91AD
:101B70000895DF93CF93CDB7DEB783E390E0FC0108
:101B80008081882F90E09C012071307081E090E08E
:101B90002115310511F480E090E0CF91DF91089597
:101BA000DF93CF93CDB7DEB784E390E024E330E05A
:101BB000F90120812061FC012083CF91DF910895FC
:101BC000DF93CF93CDB7DEB784E390E024E330E03A
:101BD000F90120812F7EFC012083CF91DF910895B0
:101BE000DF93CF93CDB7DEB785E390E025E330E018
:101BF000F90120812062FC012083CF91DF910895BB
:101C0000DF93CF93CDB7DEB785E390E025E330E0F7
:101C1000F90120812F7DFC012083CF91DF91089570
:101C2000DF93CF93CDB7DEB783E390E0FC018081F3
:101C3000882F90E09C012072307081E090E02115A7
:101C4000310511F480E090E0CF91DF910895DF93AA
:101C5000CF93CDB7DEB784E390E024E330E0F90121
:101C600020812062FC012083CF91DF910895DF93D2
:101C7000CF93CDB7DEB784E390E024E330E0F90101
:101C800020812F7DFC012083CF91DF910895DF9388
:101C9000CF93CDB7DEB785E390E025E330E0F901DF
:101CA00020812064FC012083CF91DF910895DF9390
:101CB000CF93CDB7DEB785E390E025E330E0F901BF
:101CC00020812F7BFC012083CF91DF910895DF934A
:101CD000CF93CDB7DEB783E390E0FC018081882FFE
:101CE00090E09C012074307081E090E02115310576
:101CF00011F480E090E0CF91DF910895DF93CF93CE
:101D0000CDB7DEB784E390E024E330E0F901208131
:101D10002064FC012083CF91DF910895DF93CF935E
:101D2000CDB7DEB784E390E024E330E0F901208111
:101D30002F7BFC012083CF91DF910895DF93CF9318
:101D4000CDB7DEB785E390E025E330E0F9012081EF
:101D50002068FC012083CF91DF910895DF93CF931A
:101D6000CDB7DEB785E390E025E330E0F9012081CF
:101D70002F77FC012083CF91DF910895DF93CF93DC
:101D8000CDB7DEB783E390E0FC018081992787FD22
:101D900090958827990F881F9927CF91DF910895F3
:101DA000DF93CF93CDB7DEB784E390E024E330E058
:101DB000F90120812068FC012083CF91DF910895F3
:101DC000DF93CF93CDB7DEB784E390E024E330E038
:101DD000F90120812F77FC012083CF91DF910895B5
:101DE000DF93CF93CDB7DEB782E390E022E330E01C
:101DF000F90120812160FC012083CF91DF910895BA
:101E0000DF93CF93CDB7DEB782E390E022E330E0FB
:101E1000F90120812E7FFC012083CF91DF9108956D
:101E2000DF93CF93CDB7DEB780E390E0FC018081F4
:101E3000882F90E081709070CF91DF910895DF93AB
:101E4000CF93CDB7DEB781E390E021E330E0F90135
:101E500020812160FC012083CF91DF910895DF93E1
:101E6000CF93CDB7DEB781E390E021E330E0F90115
:101E700020812E7FFC012083CF91DF910895DF9395
:101E8000CF93CDB7DEB782E390E022E330E0F901F3
:101E900020812260FC012083CF91DF910895DF93A0
:101EA000CF93CDB7DEB782E390E022E330E0F901D3
:101EB00020812D7FFC012083CF91DF910895DF9356
:101EC000CF93CDB7DEB780E390E0FC018081882F0F
:101ED00090E09C012270307081E090E02115310586
:101EE00011F480E090E0CF91DF910895DF93CF93DC
:101EF000CDB7DEB781E390E021E330E0F901208146
:101F00002260FC012083CF91DF910895DF93CF936E
:101F1000CDB7DEB781E390E021E330E0F901208125
:101F20002D7FFC012083CF91DF910895DF93CF9324
:101F3000CDB7DEB783E290E023E230E0F901208103
:101F40002160FC012083CF91DF910895DF93CF932F
:101F5000CDB7DEB783E290E023E230E0F9012081E3
:101F60002E7FFC012083CF91DF910895DF93CF93E3
:101F7000CDB7DEB781E290E0FC018081882F90E050
:101F800081709070CF91DF910895DF93CF93CDB79B
:101F9000DEB782E290E022E230E0F90120812160A8
:101FA000FC012083CF91DF910895DF93CF93CDB7CC
:101FB000DEB782E290E022E230E0F90120812E7F5C
:101FC000FC012083CF91DF910895DF93CF93CDB7AC
:101FD000DEB783E290E023E230E0F9012081226065
:101FE000FC012083CF91DF910895DF93CF93CDB78C
:101FF000DEB783E290E023E230E0F90120812D7F1B
:10200000FC012083CF91DF910895DF93CF93CDB76B
:10201000DEB781E290E0FC018081882F90E09C0196
:102020002270307081E090E02115310511F480E0DC
:1020300090E0CF91DF910895DF93CF93CDB7DEB7D6
:1020400082E290E022E230E0F90120812260FC018E
:102050002083CF91DF910895DF93CF93CDB7DEB783
:1020600082E290E022E230E0F90120812D7FFC0144
:102070002083CF91DF910895DF93CF93CDB7DEB763
:1020800083E290E023E230E0F90120812460FC014A
:102090002083CF91DF910895DF93CF93CDB7DEB743
:1020A00083E290E023E230E0F90120812B7FFC0104
:1020B0002083CF91DF910895DF93CF93CDB7DEB723
:1020C00081E290E0FC018081882F90E09C012470E7
:1020D000307081E090E02115310511F480E090E04E
:1020E000CF91DF910895DF93CF93CDB7DEB782E232
:1020F00090E022E230E0F90120812460FC0120839D
:10210000CF91DF910895DF93CF93CDB7DEB782E211
:1021100090E022E230E0F90120812B7FFC01208356
:10212000CF91DF910895DF93CF93CDB7DEB783E2F0
:1021300090E023E230E0F90120812860FC01208357
:10214000CF91DF910895DF93CF93CDB7DEB783E2D0
:1021500090E023E230E0F9012081277FFC01208319
:10216000CF91DF910895DF93CF93CDB7DEB781E2B2
:1021700090E0FC018081882F90E09C0128703070F5
:1021800081E090E02115310511F480E090E0CF91DD
:10219000DF910895DF93CF93CDB7DEB782E290E071
:1021A00022E230E0F90120812860FC012083CF91F8
:1021B000DF910895DF93CF93CDB7DEB782E290E051
:1021C00022E230E0F9012081277FFC012083CF91BA
:1021D000DF910895DF93CF93CDB7DEB782E390E030
:1021E00022E330E0F90120812460FC012083CF91BB
:1021F000DF910895DF93CF93CDB7DEB782E390E010
:1022000022E330E0F90120812B7FFC012083CF9174
:10221000DF910895DF93CF93CDB7DEB780E390E0F1
:10222000FC018081882F90E09C012470307081E057
:1022300090E02115310511F480E090E0CF91DF911D
:102240000895DF93CF93CDB7DEB781E390E021E32C
:1022500030E0F90120812460FC012083CF91DF91DF
:102260000895DF93CF93CDB7DEB781E390E021E30C
:1022700030E0F90120812B7FFC012083CF91DF9199
:102280000895DF93CF93CDB7DEB782E390E022E3EA
:1022900030E0F90120812860FC012083CF91DF919B
:1022A0000895DF93CF93CDB7DEB782E390E022E3CA
:1022B00030E0F9012081277FFC012083CF91DF915D
:1022C0000895DF93CF93CDB7DEB780E390E0FC01B4
:1022D0008081882F90E09C012870307081E090E030
:1022E0002115310511F480E090E0CF91DF91089540
:1022F000DF93CF93CDB7DEB781E390E021E330E009
:10230000F90120812860FC012083CF91DF9108959D
:10231000DF93CF93CDB7DEB781E390E021E330E0E8
:10232000F9012081277FFC012083CF91DF9108955F
:10233000DF93CF93CDB7DEB782E390E022E330E0C6
:10234000F90120812062FC012083CF91DF91089563
:10235000DF93CF93CDB7DEB782E390E022E330E0A6
:10236000F90120812F7DFC012083CF91DF91089519
:10237000DF93CF93CDB7DEB780E390E0FC0180819F
:10238000882F90E09C012072307081E090E0211550
:10239000310511F480E090E0CF91DF910895DF9353
:1023A000CF93CDB7DEB781E390E021E330E0F901D0
:1023B00020812062FC012083CF91DF910895DF937B
:1023C000CF93CDB7DEB781E390E021E330E0F901B0
:1023D00020812F7DFC012083CF91DF910895DF9331
:1023E000CF93CDB7DEB70E94EE0ACF91DF9108956B
:1023F000DF93CF93CDB7DEB70E94FE0ACF91DF9176
:102400000895DF93CF93CDB7DEB70E940E0BCF9127
:10241000DF910895DF93CF93CDB7DEB70E94200BF5
:10242000CF91DF910895DF93CF93CDB7DEB70E94B0
:10243000300BCF91DF910895DF93CF93CDB7DEB707
:102440000E94400ACF91DF910895DF93CF93CDB7DB
:10245000DEB70E94500ACF91DF910895DF93CF93AA
:10246000CDB7DEB70E94600ACF91DF910895DF9368
:10247000CF93CDB7DEB70E94770ACF91DF91089551
:10248000DF93CF93CDB7DEB70E94870ACF91DF915C
:102490000895DF93CF93CDB7DEB70E94970ACF910F
:1024A000DF910895DF93CF93CDB7DEB70E94A70ADF
:1024B000CF91DF910895DF93CF93CDB7DEB70E9420
:1024C000B70ACF91DF910895DF93CF93CDB7DEB7F1
:1024D0000E94CE0ACF91DF910895DF93CF93CDB7BD
:1024E000DEB70E94DE0ACF91DF910895DF93CF938C
:1024F000CDB7DEB70E94420DCF91DF910895DF93F3
:10250000CF93CDB7DEB70E94520DCF91DF910895E2
:10251000DF93CF93CDB7DEB7CF91DF910895DF93EF
:10252000CF93CDB7DEB70E94EB0CCF91DF9108952A
:10253000DF93CF93CDB7DEB70E94FB0CCF91DF9135
:102540000895DF93CF93CDB7DEB7CF91DF91089594
:10255000DF93CF93CDB7DEB70E94990DCF91DF9176
:102560000895DF93CF93CDB7DEB70E94A90DCF9129
:10257000DF910895DF93CF93CDB7DEB7CF91DF9191
:102580000895DF93CF93CDB7DEB70E94F00DCF91C2
:10259000DF910895DF93CF93CDB7DEB70E94000E91
:1025A000CF91DF910895DF93CF93CDB7DEB7CF9171
:1025B000DF910895DF93CF93CDB7DEB70E94470E2A
:1025C000CF91DF910895DF93CF93CDB7DEB70E940F
:1025D000570ECF91DF910895DF93CF93CDB7DEB73C
:1025E000CF91DF910895DF93CF93CDB7DEB70E94EF
:1025F000C7060E946D070E941E070E94D00E0E940F
:102600007E0E0E94270E0E94D00D0E94790D0E941E
:10261000220D0E94CB0C0E94740C0E94D4070E94D1
:102620009D070E94C4080E9472090E941B090E9413
:102630008D080E9490060E943E070E94E706CF91F7
:10264000DF910895DF93CF930F92CDB7DEB78983E3
:102650008AE590E02AE530E0F90120812062FC0162
:1026600020838981882351F08AE590E02AE530E0D3
:10267000F90120812061FC01208309C08AE590E0F6
:102680002AE530E0F90120812F7EFC0120830F90A4
:10269000CF91DF910895DF93CF93CDB7DEB78BE372
:1026A00090E02BE330E0F90120812064FC012083DD
:1026B000CF91DF910895DF93CF93CDB7DEB78BE352
:1026C00090E02BE330E0F90120812F7BFC01208397
:1026D000CF91DF910895DF93CF93CDB7DEB789E334
:1026E00090E0FC018081882F90E09C012074307084
:1026F00081E090E02115310511F480E090E0CF9168
:10270000DF910895DF93CF93CDB7DEB78AE390E0F2
:102710002AE330E0F90120812064FC012083CF917D
:10272000DF910895DF93CF93CDB7DEB78AE390E0D2
:102730002AE330E0F90120812F7BFC012083CF9137
:10274000DF910895DF93CF93CDB7DEB78BE390E0B1
:102750002BE330E0F90120812062FC012083CF913E
:10276000DF910895DF93CF93CDB7DEB78BE390E091
:102770002BE330E0F90120812F7DFC012083CF91F4
:10278000DF910895DF93CF93CDB7DEB789E390E073
:10279000FC018081882F90E09C012072307081E0E4
:1027A00090E02115310511F480E090E0CF91DF91A8
:1027B0000895DF93CF93CDB7DEB78AE390E02AE3A5
:1027C00030E0F90120812062FC012083CF91DF916C
:1027D0000895DF93CF93CDB7DEB78AE390E02AE385
:1027E00030E0F90120812F7DFC012083CF91DF9122
:1027F0000895DF93CF93CDB7DEB783E290E023E275
:1028000030E0F90120812064FC012083CF91DF9129
:102810000895DF93CF93CDB7DEB783E290E023E254
:1028200030E0F90120812F7BFC012083CF91DF91E3
:102830000895DF93CF93CDB7DEB781E290E0FC013E
:102840008081882F90E09C012074307081E090E0BE
:102850002115310511F480E090E0CF91DF910895CA
:10286000DF93CF93CDB7DEB782E290E022E230E093
:10287000F90120812064FC012083CF91DF9108952C
:10288000DF93CF93CDB7DEB782E290E022E230E073
:10289000F90120812F7BFC012083CF91DF910895E6
:1028A000DF93CF93CDB7DEB783E290E023E230E051
:1028B000F90120812064FC012083CF91DF910895EC
:1028C000DF93CF93CDB7DEB783E290E023E230E031
:1028D000F90120812F7BFC012083CF91DF910895A6
:1028E000DF93CF93CDB7DEB781E290E0FC0180812A
:1028F000882F90E09C012074307081E090E02115D9
:10290000310511F480E090E0CF91DF910895DF93DD
:10291000CF93CDB7DEB782E290E022E230E0F9015A
:1029200020812064FC012083CF91DF910895DF9303
:10293000CF93CDB7DEB782E290E022E230E0F9013A
:1029400020812F7BFC012083CF91DF910895DF93BD
:10295000CF93CDB7DEB782E390E022E330E0F90118
:1029600020812064FC012083CF91DF910895DF93C3
:10297000CF93CDB7DEB782E390E022E330E0F901F8
:1029800020812F7BFC012083CF91DF910895DF937D
:10299000CF93CDB7DEB780E390E0FC018081882F34
:1029A00090E09C012074307081E090E021153105A9
:1029B00011F480E090E0CF91DF910895DF93CF9301
:1029C000CDB7DEB781E390E021E330E0F90120816B
:1029D0002064FC012083CF91DF910895DF93CF9392
:1029E000CDB7DEB781E390E021E330E0F90120814B
:1029F0002F7BFC012083CF91DF910895DF93CF934C
:102A0000CDB7DEB782E390E022E330E0F901208128
:102A10002061FC012083CF91DF910895DF93CF9354
:102A2000CDB7DEB782E390E022E330E0F901208108
:102A30002F7EFC012083CF91DF910895DF93CF9308
:102A4000CDB7DEB780E390E0FC018081882F90E075
:102A50009C012071307081E090E02115310511F466
:102A600080E090E0CF91DF910895DF93CF93CDB7D1
:102A7000DEB781E390E021E330E0F90120812061BD
:102A8000FC012083CF91DF910895DF93CF93CDB7E1
:102A9000DEB781E390E021E330E0F90120812F7E71
:102AA000FC012083CF91DF910895DF93CF93CDB7C1
:102AB000DEB788E390E028E330E0F901208121606F
:102AC000FC012083CF91DF910895DF93CF93CDB7A1
:102AD000DEB788E390E028E330E0F90120812E7F23
:102AE000FC012083CF91DF910895DF93CF93CDB781
:102AF000DEB786E390E0FC018081882F90E0817052
:102B00009070CF91DF910895DF93CF93CDB7DEB76B
:102B100087E390E027E330E0F90120812160FC01A8
:102B20002083CF91DF910895DF93CF93CDB7DEB7A8
:102B300087E390E027E330E0F90120812E7FFC015C
:102B40002083CF91DF910895DF93CF93CDB7DEB788
:102B500088E390E028E330E0F90120812068FC015F
:102B60002083CF91DF910895DF93CF93CDB7DEB768
:102B700088E390E028E330E0F90120812F77FC0121
:102B80002083CF91DF910895DF93CF93CDB7DEB748
:102B900086E390E0FC018081992787FD9095882746
:102BA000990F881F9927CF91DF910895DF93CF93D5
:102BB000CDB7DEB787E390E027E330E0F90120816D
:102BC0002068FC012083CF91DF910895DF93CF939C
:102BD000CDB7DEB787E390E027E330E0F90120814D
:102BE0002F77FC012083CF91DF910895DF93CF935E
:102BF000CDB7DEB782E390E022E330E0F901208137
:102C00002064FC012083CF91DF910895DF93CF935F
:102C1000CDB7DEB782E390E022E330E0F901208116
:102C20002F7BFC012083CF91DF910895DF93CF9319
:102C3000CDB7DEB780E390E0FC018081882F90E083
:102C40009C012074307081E090E02115310511F471
:102C500080E090E0CF91DF910895DF93CF93CDB7DF
:102C6000DEB781E390E021E330E0F90120812064C8
:102C7000FC012083CF91DF910895DF93CF93CDB7EF
:102C8000DEB781E390E021E330E0F90120812F7B82
:102C9000FC012083CF91DF910895DF93CF93CDB7CF
:102CA000DEB70E94DE0B0E94770B0E94250C0E946B
:102CB00082130E94D9130E9494150E9497140E94B7
:102CC000EE140E9445150E94E6150E943D16CF9114
:102CD000DF910895DF93CF93CDB7DEB780E990E021
:102CE000FC01108289E290E02FE0FC0120838BE25E
:102CF00090E02BE230E0F90120812260FC0120838A
:102D000085E990E025E930E0F90120812660FC01A9
:102D100020838AE290E02AE230E0F90120812869EC
:102D2000FC01208381E08093D0031092F203109283
:102D3000F303CF91DF910895DF93CF930F92CDB737
:102D4000DEB789838091D003882319F40E946A1624
:102D500001C000008BE290E0FC018081882F90E0B0
:102D6000807290700097B1F38CE290E02981FC01B1
:102D700020830F90CF91DF910895DF93CF930F922F
:102D8000CDB7DEB789838091D003882319F40E94E0
:102D90006A1601C000008BE290E0FC018081882F60
:102DA00090E0807290700097B1F38CE290E02981FE
:102DB000FC0120830F90CF91DF910895DF93CF9393
:102DC00000D0CDB7DEB79A8389838CEF0E949C1622
:102DD0000BC089819A81FC0180810E949C168981A7
:102DE0009A8101969A83898389819A81FC018081E5
:102DF000882379F78CEF0E949C160F900F90CF914B
:102E0000DF910895DF93CF9300D000D0CDB7DEB728
:102E10009B838A836C838CEF0E949C1619820EC060
:102E20008A819B81FC0180810E949C168A819B8102
:102E300001969B838A8389818F5F898399818C81A5
:102E4000981770F38CEF0E949C160F900F900F90C4
:102E50000F90CF91DF910895DF93CF9300D000D0F2
:102E6000CDB7DEB79B838A836C8319820EC08A81BB
:102E70009B81FC0180810E94BD168A819B81019605
:102E80009B838A8389818F5F898399818C8198173D
:102E900070F30F900F900F900F90CF91DF910895E6
:102EA000DF93CF930F92CDB7DEB7898389818A30C4
:102EB00028F08981895A0E949C1604C08981805D0E
:102EC0000E949C160F90CF91DF910895DF93CF93CE
:102ED00000D000D000D0CDB7DEB76B837C838D836C
:102EE0009E83CE01039603969A83898389819A8172
:102EF000FC0180810E949C1689819A8101979A83A6
:102F0000898389819A81FC0180810E949C16898134
:102F10009A8101979A83898389819A81FC018081B2
:102F20000E949C1689819A8101979A83898389815D
:102F30009A81FC0180810E949C1626960FB6F89417
:102F4000DEBF0FBECDBFCF91DF910895DF93CF934A
:102F50000F92CDB7DEB78983898182958F700E94E9
:102F6000501789818F700E9450170F90CF91DF9179
:102F70000895DF93CF9300D000D0CDB7DEB769833B
:102F80007A838B839C838DEF0E949C16CE010196E1
:102F9000FC0180819181A281B381BC01CD010E949D
:102FA00066178DEF0E949C160F900F900F900F9058
:102FB000CF91DF910895DF93CF9300D000D0CDB7AC
:102FC000DEB769837A838B839C838EEF0E949C1685
:102FD00089819A81AB81BC81BC01CD010E946617B9
:102FE0008EEF0E949C160F900F900F900F90CF9134
:102FF000DF910895DF93CF93CDB7DEB78CEF0E94BA
:103000009C168DE60E949C168DE60E949C168DE60D
:103010000E949C168CEF0E949C16CF91DF91089520
:10302000DF93CF9300D000D000D0CDB7DEB76B8355
:103030007C838D839E83CE01039603969A83898336
:1030400080E30E949C1688E70E949C1689819A81E1
:10305000FC0180810E94A61789819A8101979A8339
:10306000898389819A81FC0180810E94A6178981C8
:103070009A8101979A83898389819A81FC01808151
:103080000E94A61789819A8101979A8389838981F1
:103090009A81FC0180810E94A61726960FB6F894AB
:1030A000DEBF0FBECDBFCF91DF910895AF92BF922B
:1030B000CF92DF92EF92FF920F931F93DF93CF9304
:1030C000CDB7DEB760970FB6F894DEBF0FBECDBFA9
:1030D00069837A838B839C832D833E834F835887B8
:1030E000E986FA860B871C87AD86BE86CF86D88A8E
:1030F00081E00E949C16CE010196FC0180819181A5
:10310000A281B381BC01CD010E941018CE010596A9
:10311000FC0180819181A281B381BC01CD010E941B
:103120001018CE010996FC0180819181A281B381A2
:10313000BC01CD010E941018CE010D96FC018081CA
:103140009181A281B381BC01CD010E9410186096CB
:103150000FB6F894DEBF0FBECDBFCF91DF911F91A8
:103160000F91FF90EF90DF90CF90BF90AF900895B8
:103170001F920F920FB60F9200905B000F921124D6
:103180002F933F934F935F936F937F938F939F936F
:10319000AF93BF93EF93FF93DF93CF93CDB7DEB79A
:1031A0002997DEBFCDBF8CE290E0FC0180818C834B
:1031B00019821B820E94BC708D830E94833A0E94F8
:1031C000CB3A0E94B830882371F081E08B838DB7B1
:1031D0009EB7909308088093070880918307909189
:1031E00084079EBF8DBF8D810E94C9708C818136FE
:1031F00009F044C00E94BC708E8300008BE290E016
:10320000FC0180818823D4F78CE290E0FC0180816E
:103210008F838F8180538F8300008BE290E0FC01CD
:1032200080818823D4F78CE290E0FC01808188873C
:103230008885805388871A8218C000008BE290E04E
:10324000FC0180818823D4F78981882F90E02CE2CB
:1032500030E0F90120818F529C4FFC01208389814D
:103260008F5F89838A818F5F8A839A818885981787
:1032700020F38E810E94C970198227C08C818A3701
:1032800021F50E94BC7089871A8218C000008BE269
:1032900090E0FC0180818823D4F78981882F90E019
:1032A0002CE230E0F90120818F529C4FFC012083F9
:1032B00089818F5F89838A818F5F8A838A81813246
:1032C00028F389850E94C97019820E94BC708D8381
:1032D0008B81813069F41B828DB79EB790938407F0
:1032E0008093830780910708909108089EBF8DBF47
:1032F0008D810E94C9702996DEBFCDBFCF91DF912D
:10330000FF91EF91BF91AF919F918F917F916F91BD
:103310005F914F913F912F910F9000925B000F9022
:103320000FBE0F901F901895DF93CF9300D00F9290
:10333000CDB7DEB79B838A830E94BC7089830E94CD
:10334000D2050E94DE1685E491E00E94DE168A8195
:103350009B810E94DE1689810E94C9700F900F9098
:103360000F90CF91DF910895DF93CF930F92CDB758
:10337000DEB70E94BC7089830E94FA1789810E947F
:10338000C9700F90CF91DF910895DF93CF9300D054
:1033900000D00F92CDB7DEB76A837B838C839D8389
:1033A0000E94BC7089830E94D2050E94DE1685E4CB
:1033B00091E00E94DE168A819B81AC81BD81BC01B7
:1033C000CD010E94B91789810E94C9700F900F909A
:1033D0000F900F900F90CF91DF910895DF93CF93CF
:1033E00000D000D00F92CDB7DEB76A837B838C8389
:1033F0009D830E94BC7089830E94D2050E94DE16C4
:1034000085E491E00E94DE168A819B81AC81BD81BA
:10341000BC01CD010E94DB1789810E94C9700F9009
:103420000F900F900F900F90CF91DF910895DF9341
:10343000CF930F92CDB7DEB719820E94F221898314
:103440001092380610923E0610923D0610923A06EF
:103450001092390689810F90CF91DF910895DF9303
:10346000CF930F92CDB7DEB719820E94772289835E
:1034700089810F90CF91DF910895DF93CF930F92C1
:10348000CDB7DEB70E942F1A898310923806898142
:103490000F90CF91DF910895DF93CF9300D00F92DB
:1034A000CDB7DEB79B838A830E94C71B8A819B812D
:1034B0000E946D23898389810F900F900F90CF9187
:1034C000DF910895DF93CF9300D00F92CDB7DEB791
:1034D00080913F06909140069A83898389819A81E1
:1034E0000E944C1A8B838B81882339F480913F068C
:1034F0009091400660E00E94B51B0F900F900F90D6
:10350000CF91DF910895DF93CF93CDB7DEB72797A3
:103510000FB6F894DEBF0FBECDBF9A8389837C833C
:103520006B834D833F832E8380913806882381F5FA
:1035300081E0809338068D81853620F01092380620
:1035400080E027C082E69AE164E10E94952F8823FB
:1035500021F41092380680E01CC08E819F819093E8
:10356000400680933F068E819F812D81FC01208340
:103570008E819F812B813C81FC01378326838E8144
:103580009F8129813A81FC013187208781E001C038
:1035900080E027960FB6F894DEBF0FBECDBFCF9167
:1035A000DF910895DF93CF9300D000D0CDB7DEB781
:1035B00089837B836A834C8381E00F900F900F9007
:1035C0000F90CF91DF910895DF93CF9300D000D07B
:1035D0000F92CDB7DEB79A8389837C836B834D834B
:1035E00080E00F900F900F900F900F90CF91DF9190
:1035F0000895DF93CF93CDB7DEB781E0CF91DF9110
:103600000895DF93CF930F92CDB7DEB70E94F91ADA
:10361000898389810F90CF91DF910895DF93CF93B4
:1036200000D00F92CDB7DEB789837B836A838A810E
:103630009B810F900F900F90CF91DF910895DF93B2
:10364000CF9300D000D0CDB7DEB79A8389837C8337
:103650006B838B819C810F900F900F900F90CF9177
:10366000DF910895DF93CF93CDB7DEB728970FB6DC
:10367000F894DEBF0FBECDBF98878F83809125065B
:10368000909126069A8389838F81988590933C0632
:1036900080933B068091390690913A06019690936B
:1036A0003A06809339068F81988580599F4FFC0197
:1036B0008081813059F58F819885FC0186819781C1
:1036C000FFEF8F3F9F0751F08F819885FC01268186
:1036D000378189819A8128173907C1F48F819885AC
:1036E000FC01808591859C838B838B819C812F81BC
:1036F0003885B9010E94181D9E838D838D819E811E
:10370000009721F08D819E8198878F838F81988586
:1037100028960FB6F894DEBF0FBECDBFCF91DF91D4
:103720000895DF93CF9300D0CDB7DEB79A83898316
:1037300089819A810E94321B0F900F90CF91DF9167
:103740000895DF93CF9300D00F92CDB7DEB79A8361
:1037500089836B8389819A816B810E94B51B0F904D
:103760000F900F90CF91DF910895DF93CF9300D00A
:103770000F92CDB7DEB79A8389836B831092380698
:1037800081E00F900F900F90CF91DF910895DF931C
:10379000CF93CDB7DEB7109238060E942E27CF9177
:1037A000DF910895DF93CF930F92CDB7DEB71982E3
:1037B00013C08981282F30E0C901880F991F820F1B
:1037C000931F880F991F880F991F845B994FFC01E5
:1037D000108289818F5F89838981853050F30F90B2
:1037E000CF91DF910895EF92FF920F931F93DF9394
:1037F000CF93CDB7DEB72C970FB6F894DEBF0FBED0
:10380000CDBF9B838A836C835E834D8338872F83F0
:103810001A870987FC86EB86198298C08981282F30
:1038200030E0C901880F991F820F931F880F991FDD
:10383000880F991F845B994FFC018081882309F0D0
:1038400082C08981282F30E0C901880F991F820F1B
:10385000931F880F991F880F991F8D5B994F2A819D
:103860003B81FC01318320838981282F30E0C9010D
:10387000880F991F820F931F880F991F880F991F18
:103880008B5B994F2C81FC0120838981282F30E0AC
:10389000C901880F991F820F931F880F991F880FE6
:1038A000991F8A5B994F2D813E81FC0131832083D2
:1038B0008981282F30E0C901880F991F820F931F3B
:1038C000880F991F880F991F885B994F2F81388522
:1038D000FC01318320838981282F30E0C901880FC2
:1038E000991F820F931F880F991F880F991F865B5E
:1038F000994F29853A85FC01318320838981282FBE
:1039000030E0C901880F991F820F931F880F991FFC
:10391000880F991F835B994F2B853C85FC01318370
:1039200020838981282F30E0C901880F991F820FD9
:10393000931F880F991F880F991F845B994F21E06F
:10394000FC01208307C089818F5F8983898185304D
:1039500008F464CF2C960FB6F894DEBF0FBECDBF2F
:10396000CF91DF911F910F91FF90EF900895DF931A
:10397000CF9300D00F92CDB7DEB79B838A83198295
:103980004DC08981282F30E0C901880F991F820F0F
:10399000931F880F991F880F991F845B994FFC0113
:1039A00080818130C1F58981282F30E0C901880FDD
:1039B000991F820F931F880F991F880F991F8D5B86
:1039C000994FFC01208131818A819B812817390719
:1039D00011F58981282F30E0C901880F991F820FC6
:1039E000931F880F991F880F991F845B994FFC01C3
:1039F00010828981282F30E0C901880F991F820F1A
:103A0000931F880F991F880F991F8D5B994FFC0199
:103A10001182108207C089818F5F898389818530F7
:103A200008F4AFCF0F900F900F90CF91DF910895D2
:103A3000DF93CF93CDB7DEB729970FB6F894DEBFEB
:103A40000FBECDBF9F838E837987688788859985D0
:103A500090934206809341061982F3C08981282FF2
:103A600030E0C901880F991F820F931F880F991F9B
:103A7000880F991F8D5B994FFC01208131818E81C8
:103A80009F812817390709F0D9C08981282F30E094
:103A9000C901880F991F820F931F880F991F880FE4
:103AA000991F845B994FFC018081813009F0C6C069
:103AB0008981282F30E0C901880F991F820F931F39
:103AC000880F991F880F991F885B994FFC0180818F
:103AD00091819C838B8388859985FC0140818981B4
:103AE000282F30E0C901880F991F820F931F880F7C
:103AF000991F880F991F8B5B994FFC019081842F30
:103B0000981708F4892F8D831A8217C08A81882F0D
:103B100090E028853985820F931F0A96FC018081E9
:103B2000282F8B819C81FC0120838B819C810196B5
:103B30009C838B838A818F5F8A839A818D8198177A
:103B400028F38981282F30E0C901880F991F820F3F
:103B5000931F880F991F880F991F865B994FFC014F
:103B600080819181009761F18981282F30E0C9011E
:103B7000880F991F820F931F880F991F880F991F15
:103B8000865B994FFC01808191819C838B83888522
:103B9000998582599F4FFC0120818B819C81FC017A
:103BA00020838B819C8101969C838B83888599855A
:103BB00081599F4FFC0120818B819C81FC012083D6
:103BC0008981282F30E0C901880F991F820F931F28
:103BD000880F991F880F991F835B994FFC01808183
:103BE00091810097A1F08981282F30E0C901880FC9
:103BF000991F820F931F880F991F880F991F835B4E
:103C0000994FFC018081918166E00E94952F898106
:103C1000282F30E0C901880F991F820F931F880F4A
:103C2000991F880F991F8A5B994FFC0180819181B0
:103C30002D81FC0120838885998509C089818F5F4A
:103C400089838981853008F409CF888599852996EB
:103C50000FB6F894DEBF0FBECDBFCF91DF910895B0
:103C6000DF93CF9300D000D00F92CDB7DEB79B8308
:103C70008A837D836C83198263C08981282F30E019
:103C8000C901880F991F820F931F880F991F880FF2
:103C9000991F845B994FFC018081813009F04DC0F0
:103CA0008981282F30E0C901880F991F820F931F47
:103CB000880F991F880F991F8A5B994FFC012081FB
:103CC00031818C819D8182179307B8F18981282FDA
:103CD00030E0C901880F991F820F931F880F991F29
:103CE000880F991F8A5B994FFC01208131818A815D
:103CF0009B812817390708F18981282F30E0C901F5
:103D0000880F991F820F931F880F991F880F991F83
:103D1000845B994FFC0110828981282F30E0C90112
:103D2000880F991F820F931F880F991F880F991F63
:103D30008D5B994FFC011182108289818F5F89838D
:103D40008981853008F499CF0F900F900F900F90D4
:103D50000F90CF91DF910895DF93CF9300D00F9212
:103D6000CDB7DEB719820E94BC708A8380917F062E
:103D7000882329F481E080937F0681E08983109273
:103D80007F068BE080939D068FE1809380068A8179
:103D90000E94C9708981882311F480E06FC00E945D
:103DA000CC2180E098EF909382068093810682EE8A
:103DB00092E0909384068093830680E095E0909350
:103DC00086068093850680E890EE9093880680931F
:103DD00087068FE097EA90938A0680938906809100
:103DE0008006882F90E0806E906690938C0680937A
:103DF0008B0685EE92E190938E0680938D0686E584
:103E00009AE09093900680938F0680919D06882F6C
:103E100090E09C01220F331F220F331F820F931F4C
:103E2000825D9E4F9064909392068093910684ECFD
:103E300091E09093940680939306109296061092C8
:103E4000950610929806109297068FE792E090934D
:103E50009A068093990610929C0610929B060E94E7
:103E6000BC708B8382E080937F068B810E94C97037
:103E70008DE79FE165E00E94952F81E00F900F9004
:103E80000F90CF91DF910895DF93CF9300D0CDB7FE
:103E9000DEB78A838A810E94402A898389810F90B4
:103EA0000F90CF91DF910895DF93CF93CDB7DEB719
:103EB0000E94A21388E592E00E94710681E0CF91F2
:103EC000DF910895DF93CF93CDB7DEB70E94B21391
:103ED00088E592E00E94710681E0CF91DF9108951C
:103EE000DF93CF930F92CDB7DEB70E94E92189838C
:103EF00089810F90CF91DF910895DF93CF93CDB754
:103F0000DEB70E94701FCF91DF910895DF93CF93AA
:103F100000D0CDB7DEB78A838A810E948A2C89833C
:103F200089810F900F90CF91DF910895DF93CF9308
:103F300000D000D0CDB7DEB78A837C836B832B8122
:103F40003C818A81B9010E94392C898389810F9033
:103F50000F900F900F90CF91DF910895DF93CF9343
:103F600000D00F92CDB7DEB71A8219828DE168E1D9
:103F700070E00E94961F81E00E94441F81E00E9431
:103F8000861F8B8381E00F900F900F90CF91DF9170
:103F90000895DF93CF930F92CDB7DEB70E942D2DFA
:103FA000898389810F90CF91DF910895DF93CF931B
:103FB00000D00F92CDB7DEB719820E94BC708A8301
:103FC00080917F06823029F483E080937F0681E030
:103FD00089838A810E94C9708981882311F480E0D5
:103FE00010C00E94C91F0E94541F0E945B130E94B0
:103FF00013060E944B130E9413060E94AE1F8B8370
:104000008B810F900F900F90CF91DF910895DF93E8
:10401000CF93CDB7DEB783E00E94861F81E0CF91BA
:10402000DF910895DF93CF930F92CDB7DEB70E9453
:104030001124898389810F90CF91DF910895DF93B7
:10404000CF9300D000D00F92CDB7DEB79D838C8385
:104050008C819D81805098409A83898380919106BC
:10406000909192069C0120703C7F89819A81822BDD
:10407000932B909392068093910620919106309114
:10408000920688E1B9010E94961F8B838B81882F4D
:1040900090E080749070009719F083E00E94861F72
:1040A00081E00F900F900F900F900F90CF91DF91C4
:1040B0000895DF93CF9300D00F92CDB7DEB78B83F7
:1040C0008B81882F90E09C01220F331F220F331F1A
:1040D000820F931F825D964F9A83898389819A818B
:1040E0000E941F2081E00F900F900F90CF91DF91E1
:1040F0000895DF93CF9300D0CDB7DEB78A83809148
:104100008B0690918C069C01207E8A81882F90E0FE
:104110008F719070822B932B90938C0680938B06DB
:10412000209191063091920685E1B9010E94961F77
:1041300089838981882F90E080749070009719F0AE
:1041400083E00E94861F81E00F900F90CF91DF9156
:104150000895DF93CF9300D000D00F92CDB7DEB794
:104160009A8389836B835D834C8381E00F900F90EA
:104170000F900F900F90CF91DF910895DF93CF9321
:1041800000D000D000D0CDB7DEB79B838A836C838C
:104190005E834D838A819B812D813E816C81A90143
:1041A0000E94AD2B8983898126960FB6F894DEBFD5
:1041B0000FBECDBFCF91DF910895DF93CF9300D095
:1041C000CDB7DEB79A83898389819A810E94286E50
:1041D0009A8389839E012F5F3F4F8AE691E062E0D8
:1041E000A9010E94BE200F900F90CF91DF910895FA
:1041F000DF93CF9300D00F92CDB7DEB78B838B8147
:104200000E94B32C9A83898389819A810F900F90A1
:104210000F90CF91DF910895DF93CF9300D0CDB76A
:10422000DEB7209181063091820680E1B9010E94BB
:10423000961F209183063091840681E1B9010E9486
:10424000961F81E10E94F8209A838983209183063A
:104250003091840689819A812817390711F080E00E
:104260005FC0209185063091860682E1B9010E94E7
:10427000961F209187063091880683E1B9010E943C
:10428000961F2091890630918A0684E1B9010E9427
:10429000961F20918B0630918C0685E1B9010E9412
:1042A000961F20918D0630918E0686E1B9010E94FD
:1042B000961F20918F063091900687E1B9010E94E8
:1042C000961F209191063091920688E1B9010E94D3
:1042D000961F209193063091940689E1B9010E94BE
:1042E000961F20919506309196068AE1B9010E94A9
:1042F000961F2091990630919A068CE1B9010E948F
:10430000961F20919B0630919C068DE1B9010E9479
:10431000961F89E00E94861F88E00E94861F81E028
:104320000F900F90CF91DF910895DF93CF930F926D
:10433000CDB7DEB70E940C2180912506909126060C
:104340000E94DD208091910690919206917080509C
:10435000984F0E941F200E94BC70898384E0809344
:104360007F0689810E94C9700E9412200F90CF9110
:10437000DF910895DF93CF93CDB7DEB78DE160E095
:1043800070E00E94961F85E991E265E00E94952FFA
:1043900080E0CF91DF910895DF93CF930F92CDB757
:1043A000DEB70E940D2B89830E94142D982F8981DE
:1043B000692F0E947270898389810F90CF91DF915C
:1043C0000895DF93CF93CDB7DEB781E0CF91DF9132
:1043D0000895DF93CF93CDB7DEB70E942127CF9109
:1043E000DF910895DF93CF930F92CDB7DEB70E9490
:1043F000BC70898310921C071092A00610921607B9
:104400001092A10682EA96E090939F0680939E0602
:1044100080919E0690919F06FC01108289810E94E6
:10442000C970809125069091260690931907809374
:1044300018070E94AC1E0F90CF91DF910895DF9373
:10444000CF930F92CDB7DEB70E94D61F89838981A3
:104450000F90CF91DF910895DF93CF9300D00F920B
:10446000CDB7DEB70E94BC70898380911C078A8318
:1044700089810E94C9708A818823A1F40E94BC703E
:104480008B838AE080931C071092170780919E0609
:1044900090919F06FC0110828B810E94C9700E943E
:1044A0001F2201C080E00F900F900F90CF91DF91FD
:1044B0000895DF93CF9300D0CDB7DEB719820E9465
:1044C000BC708A8380911C07813021F410921C07F4
:1044D00081E089838A810E94C9708981813011F4C9
:1044E0000E942C220F900F90CF91DF910895DF93BF
:1044F000CF9300D0CDB7DEB719820E94BC708A83FB
:1045000080911C07882361F489E592E265E00E94AE
:10451000952F882329F081E0898381E080931C070F
:104520008A810E94C97089810F900F90CF91DF918D
:104530000895DF93CF93CDB7DEB781E0CF91DF91C0
:104540000895DF93CF930F92CDB7DEB70E949922E3
:10455000898389810F90CF91DF910895DF93CF9365
:1045600000D0CDB7DEB78A838A810E94A62A8983CC
:1045700089810F900F90CF91DF910895DF93CF93B2
:1045800000D0CDB7DEB78A838A810E948A2C8983C6
:1045900089810F900F90CF91DF910895DF93CF9392
:1045A0000F92CDB7DEB785E00E94BE2280E00E9468
:1045B000BE2289838981869586958695882F90E08D
:1045C00081709070882321F081E00E94AE2202C0A9
:1045D0000E9485260F90CF91DF910895DF93CF93AE
:1045E00000D00F92CDB7DEB70E94BC708983809156
:1045F0001C078A8389810E94C9708A818530D1F421
:104600000E94C415009731F40E941914009711F408
:104610000E94AB260E941616009771F00E94BC7093
:104620008B8383E080931C078B810E94C9700E945A
:10463000CE2202C00E94AB260F900F900F90CF9118
:10464000DF910895DF93CF9300D00F92CDB7DEB7FF
:1046500089837B836A830E94EE2281E00F900F9012
:104660000F90CF91DF910895DF93CF9300D000D0CA
:10467000CDB7DEB78A837C836B832B813C818A81B3
:10468000B9010E947427898389810F900F900F9040
:104690000F90CF91DF910895DF93CF93CDB7DEB721
:1046A00089E00E94BE22882319F40E94852612C048
:1046B00080911D07482F4F5F80911A0790911B072B
:1046C0009C01842FB9010E943423882319F40E948D
:1046D00085260000CF91DF910895DF93CF9300D01E
:1046E00000D00F92CDB7DEB79D838C830E94BC7043
:1046F000898380911C078A8389810E94C9708A817D
:10470000823009F068C08C819D8128E0FC01228301
:1047100080911607882331F08C819D8121E2FC0174
:10472000218305C08C819D8121E0FC0121838C8146
:104730009D812FEF3FEFFC01358324838C819D8188
:10474000FC01868197810E94286E9C018C819D814D
:10475000FC01378326838C819D81FC018081282F79
:10476000255F8C819D81FC0120838091A0068F5F55
:104770008093A0062091A0068C819D81FC0123835B
:104780008C819D818E589F4FFC01118210828C81FB
:104790009D81FC018081825080931D078C819D81C9
:1047A00090931B0780931A0788E0809317070E9455
:1047B000BC708B8385E080931C078B810E94C9703D
:1047C0008CE493E265E00E94952F882311F40E9407
:1047D000852681E001C080E00F900F900F900F9030
:1047E0000F90CF91DF910895DF93CF9300D0CDB795
:1047F000DEB78A838A810E946B29898389810F9021
:104800000F90CF91DF910895DF93CF930F92CDB7A3
:10481000DEB70E940720898389810F90CF91DF91B5
:104820000895DF93CF9300D00F92CDB7DEB70E94EB
:10483000BC70898380911C078A8389810E94C9701A
:104840008A818A3089F40E94042480E00E94F42343
:1048500081E00E94AE220E94BC708B8382E0809334
:104860001C078B810E94C9700E94A12281E00F90D9
:104870000F900F90CF91DF910895DF93CF9300D0E9
:104880000F92CDB7DEB78B838B810E94B32C9A83B6
:10489000898389819A810F900F900F90CF91DF913A
:1048A0000895DF93CF930F92CDB7DEB70E94892989
:1048B000898389810F90CF91DF910895DF93CF9302
:1048C000CDB7DEB70E94CA26CF91DF910895DF935E
:1048D000CF930F92CDB7DEB70E94C415009721F495
:1048E0000E94AB2681E013C00E94BC7089838EE5D4
:1048F00094E265E00E94952F882319F00E945124CC
:1049000002C00E94AB2689810E94C97081E00F908D
:10491000CF91DF910895DF93CF9300D000D0CDB732
:10492000DEB79C838B838B819C810E94911B9A8331
:10493000898389819A810F900F900F900F90CF916A
:10494000DF910895DF93CF9300D000D0CDB7DEB7CD
:104950000E94BC70898380919E0690919F069B83E4
:104960008A8389810E94C9708A819B810E948B24DD
:104970009B838A830E94BC708C838A819B81009771
:1049800031F08A819B8190939F0680939E0680914F
:104990009E0690919F06FC0110821092A1068C81C8
:1049A0000E94C9700F900F900F900F90CF91DF91E0
:1049B00008950F931F93DF93CF93CDB7DEB7299759
:1049C0000FB6F894DEBF0FBECDBF8F83798768879F
:1049D0000E94BC70898380911C078A8389810E9410
:1049E000C9700E94C415009721F40E941914009701
:1049F00031F08F81882319F08F81813760F00E9418
:104A0000AB260E94BC708E831092A1068E810E94FC
:104A1000C97081E0C0C08885998590939F06809376
:104A20009E0680919E0690919F06FC018181882FB1
:104A300090E0877090708130910541F480919E06DE
:104A400090919F06FC018281883061F00E94AB2624
:104A50000E94BC708D831092A1068D810E94C97046
:104A600081E099C080919E0690919F0620919E06BC
:104A700030919F06F90120812B50FC012083809109
:104A80009E0690919F06FC018081853660F00E9411
:104A9000AB260E94BC708B831092A1068B810E9472
:104AA000C97081E078C000919E0610919F068091A8
:104AB0009E0690919F06FC01868197810E94406E20
:104AC000F8019783868380919E0690919F062F819F
:104AD000222F30E02150304048855985240F351F62
:104AE000F9012081221F2227221F80599F4FFC019C
:104AF000208380919E0690919F062F81222F30E087
:104B00002250304048855985240F351FF9012081F6
:104B100082599F4FFC01208380919E0690919F06B1
:104B20002F81222F30E02150304048855985240FB5
:104B3000351FF90120812F7781599F4FFC01208378
:104B40000E94BC708C8382EA94E265E00E94952FFB
:104B5000882311F41092A1068C810E94C9700E94D2
:104B6000C415009741F40E941914009721F40E9483
:104B7000AB2681E010C00E941914009749F48EE51D
:104B800094E265E00E94952F882311F081E003C034
:104B90000E94AB2681E029960FB6F894DEBF0FBEC7
:104BA000CDBFCF91DF911F910F910895DF93CF93E8
:104BB00000D000D0CDB7DEB78A837C836B832B8196
:104BC0003C818A81B9010E943C28898389810F90A8
:104BD0000F900F900F90CF91DF910895DF93CF93B7
:104BE00000D000D0CDB7DEB79B838A836C838A81E7
:104BF0009B816C810E94A11B898389810F900F90FA
:104C00000F900F90CF91DF910895DF93CF9300D055
:104C10000F92CDB7DEB70E94BC70898382E080938B
:104C20001C0780911A0790911B079B838A838A81B6
:104C30009B81FC018081282F2B508A819B81FC0164
:104C4000208389810E94C9708A819B8161E00E94D2
:104C5000EE250F900F900F90CF91DF910895DF9385
:104C6000CF930F92CDB7DEB70E94C12A8983898185
:104C70000F90CF91DF910895DF93CF9300D0CDB700
:104C8000DEB79A83898380911C07882F90E0833058
:104C9000910521F084309105E9F031C080E00E9457
:104CA000AE220E941E15009719F40E942F2603C001
:104CB00084E080931C0780911A0790911B078E58FF
:104CC0009F4F29813A81FC013183208380911C0709
:104CD000843091F086E080931C070E942F2681E0AB
:104CE0000E94AE2285E096E265E00E94952F88231F
:104CF00029F40E94852603C0000001C0000081E065
:104D00000F900F90CF91DF910895DF93CF930F9283
:104D1000CDB7DEB70E94BC70898382E080931C0708
:104D200089810E94C97080911A0790911B07209178
:104D30001A0730911B07F90120812B50FC012083B9
:104D400080911A0790911B0760E00E94EE250F905A
:104D5000CF91DF910895DF93CF930F92CDB7DEB758
:104D60000E9451248FE30E943D2488E00E94BE22CD
:104D700088E00E94BE220E94BC7089831092A10626
:104D800089810E94C97080E00E94F4230F90CF9126
:104D9000DF910895DF93CF9300D000D0CDB7DEB779
:104DA00080E789830E94C415009739F40E94191482
:104DB000009719F40E94AB263DC00E94BC708A8304
:104DC0008091A1068B838B81882351F08EE594E23C
:104DD00065E00E94952F882331F40E94AB2603C022
:104DE00081E08093A1068A810E94C9708B8188230B
:104DF000E9F480919E0690919F069C018981B901FA
:104E00000E94D625882391F40E94BC708C83109256
:104E1000A1068C810E94C9708EE594E265E00E9433
:104E2000952F882331F40E94AB2604C00E94AB2644
:104E300001C000000F900F900F900F90CF91DF9165
:104E40000895DF93CF930F92CDB7DEB70E94E12193
:104E5000898389810F90CF91DF910895DF93CF935C
:104E6000CDB7DEB782E080931C07CF91DF91089524
:104E7000DF93CF9300D000D0CDB7DEB78A837C8399
:104E80006B832B813C818A81B9010E942223898313
:104E900089810F900F900F900F90CF91DF9108951F
:104EA000DF93CF9300D000D0CDB7DEB70E94BC70A7
:104EB000898380911E078A8380912307909124071C
:104EC0009C838B831092220789810E94C9702B8159
:104ED0003C818A81B9010E9438270F900F900F9072
:104EE0000F90CF91DF910895DF93CF93CDB7DEB7C9
:104EF00029970FB6F894DEBF0FBECDBF8F83798799
:104F0000688719821A820E94BC708B838091220765
:104F1000882319F081E08A8303C081E0809322070F
:104F20008B810E94C9708A81882311F080E05FC064
:104F30000E94BC708C8310921F078F8180931E0784
:104F40008885998590932407809323070E9465158F
:104F50008FE290E02EE3FC01208300008EE290E0DF
:104F6000FC0180818823D4F78FE290E0FC018081EE
:104F70008D8319821DC08FE290E02091230730912C
:104F80002407F9012081FC0120838091230790915F
:104F900024070196909324078093230700008EE254
:104FA00090E0FC0180818823D4F789818F5F898319
:104FB00080911E0799819817F0F281E080931F0776
:104FC0008C810E94C9700E94551580E597E265E0CA
:104FD0000E94952F882351F40E94BC708E831092FA
:104FE00022078E810E94C97080E001C08D812996C0
:104FF0000FB6F894DEBF0FBECDBFCF91DF910895FD
:10500000DF93CF9300D000D0CDB7DEB78A837C8307
:105010006B832B813C818A81B9010E94D9248983C9
:1050200089810F900F900F900F90CF91DF9108958D
:10503000DF93CF9300D000D0CDB7DEB70E94BC7015
:105040008983809126078A83809120079091210788
:105050009C838B831092250789810E94C9702B81C4
:105060003C818A81B9010E9400280F900F900F9017
:105070000F90CF91DF910895DF93CF93CDB7DEB737
:1050800029970FB6F894DEBF0FBECDBF8F83798707
:1050900068871A820E94BC708B83809125078823C1
:1050A00019F081E08A8303C081E0809325078B811A
:1050B0000E94C9708A81882311F080E087C00E9415
:1050C000BC708C8310921F07888599859093210767
:1050D000809320070E9465158FE290E02FE7FC0186
:1050E000208300008EE290E0FC0180818823D4F7C9
:1050F0008FE290E0FC0180818D838FE290E0FC01E3
:10510000108200008EE290E0FC0180818823D4F7B9
:105110008FE290E0FC018081809326078091260732
:105120008823D1F1809120079091210720912607B3
:10513000FC012083809126078F5F80932607909142
:1051400026078F81891718F48F818093260781E0C5
:1051500089831DC08FE290E0FC01108200008EE286
:1051600090E0FC0180818823D4F7209120073091C2
:1051700021078981882F90E0820F931F2FE230E072
:10518000F9012081FC01208389818F5F89838091CF
:10519000260799819817F0F281E080931F078C8190
:1051A0000E94C9700E94551588E198E265E00E944E
:1051B000952F882351F40E94BC708E83109225078E
:1051C0008E810E94C97080E001C081E029960FB6EF
:1051D000F894DEBF0FBECDBFCF91DF9108951F922F
:1051E0000F920FB60F9200905B000F9211242F9335
:1051F0003F934F935F936F937F938F939F93AF935F
:10520000BF93EF93FF93DF93CF9300D00F92CDB76F
:10521000DEB781E08A8319820E94BC708B830E9472
:10522000B830882371F081E089838DB79EB7909361
:1052300008088093070880918307909184079EBF98
:105240008DBF8B810E94C9700E949A298A838A81AE
:10525000882391F489E590E029E530E0F901208187
:105260002F7BFC01208388E590E028E530E0F90100
:1052700020812064FC0120830E94BC708B83898183
:10528000813069F419828DB79EB79093840780931B
:10529000830780910708909108089EBF8DBF8B817E
:1052A0000E94C9702396DEBFCDBFCF91DF91FF91E1
:1052B000EF91BF91AF919F918F917F916F915F918E
:1052C0004F913F912F910F9000925B000F900FBE76
:1052D0000F901F901895DF93CF9300D0CDB7DEB716
:1052E0008A830E94BC7089838A810E94221389E587
:1052F00090E029E530E0F90120812064FC01208361
:1053000089810E94C97081E00F900F90CF91DF9149
:105310000895DF93CF93CDB7DEB789E590E029E517
:1053200030E0F90120812F7BFC01208381E0CF91C7
:10533000DF910895DF93CF930F92CDB7DEB70E9430
:105340006724898389810F90CF91DF910895DF933E
:10535000CF9300D000D000D0CDB7DEB78A834B8387
:105360005C836D837E832B813C814D815E818AE0ED
:105370006A810E9432688983898126960FB6F894E3
:10538000DEBF0FBECDBFCF91DF910895DF93CF93E6
:10539000CDB7DEB780E0CF91DF910895DF93CF9353
:1053A0000F92CDB7DEB70E94C629898389810F90FD
:1053B000CF91DF910895DF93CF9300D0CDB7DEB7C3
:1053C00081E089830E94C4158A8390912E07809181
:1053D0002707981769F0809127079A81981741F459
:1053E0000E94CE2989838981882311F481E00AC033
:1053F0008A8180932E0781E041E050E060E070E018
:105400000E94A7290F900F90CF91DF910895DF930D
:10541000CF930F92CDB7DEB70E94BA2189838981DD
:105420000F90CF91DF910895DF93CF9300D0CDB748
:10543000DEB781E089830E94C7148A8390912F0789
:1054400080913007981769F0809130079A819817FA
:1054500041F40E94072A89838981882311F481E01D
:105460000AC08A8180932F0781E041E050E060E02C
:1054700070E00E945F2A0F900F90CF91DF91089506
:10548000DF93CF9300D0CDB7DEB78A830E94BC7084
:1054900089838A818093300789810E94C9700E9424
:1054A000C71480932F0781E041E050E060E070E096
:1054B0000E945F2A0F900F90CF91DF910895DF93A4
:1054C000CF9300D000D000D0CDB7DEB78A834B8316
:1054D0005C836D837E832B813C814D815E818BE07B
:1054E0006A810E9432688983898126960FB6F89472
:1054F000DEBF0FBECDBFCF91DF910895DF93CF9375
:10550000CDB7DEB70E94C42DCF91DF910895DF9310
:10551000CF93CDB7DEB70E94E62DCF91DF910895EE
:10552000DF93CF930F92CDB7DEB7898389810E9435
:10553000BF2E0F90CF91DF910895DF93CF93CDB71A
:10554000DEB70E94F62DCF91DF910895DF93CF93C0
:1055500000D0CDB7DEB78A830E94BC7089830E94D9
:105560009D2A8A810E94902A0E94872A0E947E2A70
:1055700089810E94C97081E00F900F90CF91DF91D7
:105580000895DF93CF93CDB7DEB70E949D2A81E0C7
:10559000CF91DF910895DF93CF9300D00F92CDB7D5
:1055A000DEB79B838A838A819B810E943C26898304
:1055B00089810F900F900F90CF91DF910895DF9325
:1055C000CF930F92CDB7DEB70E94B32E8983898126
:1055D0000F90CF91DF910895DF93CF9300D00F927A
:1055E000CDB7DEB79B838A8381E089838A819B81E3
:1055F0000E94CB2A89838981882319F40E949D2ADD
:1056000006C00E94DF2A882311F00E94872A0F908B
:105610000F900F90CF91DF910895DF93CF930F926A
:10562000CDB7DEB781E080933A070E94DE0B0E947F
:10563000770B0E94250C0E9482130E94D9130E94AE
:1056400084150E9497140E94EE140E9445150E9432
:10565000E6150E94BC7089830E94250C0E94DE0B17
:105660000E94770B8EE290E02EE230E0F90120817B
:105670002160FC0120838DE290E02DE230E0F90111
:1056800020812061FC0120838DE290E02DE230E05A
:10569000F9012081277FFC0120838DE290E02DE23B
:1056A00030E0F90120812B7FFC0120838DE290E026
:1056B0002DE230E0F90120812D7FFC0120838DE275
:1056C00090E02DE230E0F90120812E7FFC01208363
:1056D0008DE290E02DE230E0F90120812064FC01B0
:1056E000208389810E94C97081E00F90CF91DF9162
:1056F0000895DF93CF9300D000D000D0CDB7DEB7B0
:105700009B838A836C835E834D838A819B812D81F9
:105710003E816C81A9010E94A920898389812696F6
:105720000FB6F894DEBF0FBECDBFCF91DF910895C5
:10573000DF93CF93CDB7DEB780913B0790913C07C5
:10574000409137072091380730913907642FA9011C
:105750000E94792BCF91DF910895DF93CF93CDB73E
:10576000DEB728970FB6F894DEBF0FBECDBF9D837E
:105770008C836E8358874F83198280913A078823E0
:1057800011F480E06DC00E94BC708A8310923A07C9
:105790008C819D8190933C0780933B078E81809301
:1057A00037078F81988590933907809338070E9437
:1057B00065158FE290E020913B0730913C0720680F
:1057C000FC01208300008EE290E0FC0180818823B0
:1057D000D4F78FE290E0FC0180818B838FE290E030
:1057E00020913B0730913C0736952795207CFC01A2
:1057F000208300008EE290E0FC0180818823D4F7B2
:105800008FE290E0FC0180818B83198219C08FE2C6
:1058100090E040913807509139072981222F30E0DC
:10582000240F351FF9012081FC01208300008EE246
:1058300090E0FC0180818823D4F789818F5F898380
:10584000809137079981981710F38A810E94C97057
:1058500081E080933A0788E99BE265E00E94952FFA
:1058600028960FB6F894DEBF0FBECDBFCF91DF9163
:105870000895DF93CF9300D000D00F92CDB7DEB75D
:105880008B837D836C830E94BC70898310923A075E
:105890000E9465158FE290E02B81FC0120830000BF
:1058A0008EE290E0FC0180818823D4F78FE290E0C3
:1058B000FC0180818A838B818F30D8F08FE290E069
:1058C0002C813D81232F3327FC01208300008EE2B1
:1058D00090E0FC0180818823D4F78FE290E02C8156
:1058E000FC01208300008EE290E0FC01808188238F
:1058F000D4F781E080933A0789810E94C9700E94A1
:1059000055158A810F900F900F900F900F90CF91A7
:10591000DF910895DF93CF9300D00F92CDB7DEB71C
:105920008B830E94BC7089830E9465158FE290E092
:105930002B81FC01208300008EE290E0FC0180813D
:105940008823D4F78FE290E0FC0180818A838981EB
:105950000E94C9700E9455158A810F900F900F9078
:10596000CF91DF910895DF93CF9300D000D00F92B5
:10597000CDB7DEB78D831A8219820E94BC708B83EB
:1059800010923A070E9465158FE290E02D81206405
:10599000FC01208300008EE290E0FC0180818823DE
:1059A000D4F78FE290E0FC0180818C838FE290E05D
:1059B000FC01108200008EE290E0FC0180818823CF
:1059C000D4F78FE290E0FC018081882F90E09A83E9
:1059D00089838FE290E0FC01108200008EE290E06B
:1059E000FC0180818823D4F789819A81382F22276E
:1059F0008FE290E0FC018081882F90E0822B932B36
:105A00009A8389830E94551581E080933A078B81A0
:105A10000E94C97089819A810F900F900F900F900A
:105A20000F90CF91DF910895DF93CF930F92CDB771
:105A3000DEB70E94BC70898384E080934D078FEFAE
:105A400090E090934C0780934B0789810E94C97026
:105A500081E00F90CF91DF910895DF93CF9300D035
:105A600000D0CDB7DEB70E94BC70898380914B0710
:105A700090914C079B838A8380914D078C83898109
:105A80000E94C9702C818A819B81622F0E946E2D99
:105A900081E00F900F900F900F90CF91DF910895BC
:105AA000DF93CF9300D00F92CDB7DEB70E94BC70CA
:105AB000898380914B0790914C079B838A838981CE
:105AC0000E94C9708A819B8160E00E946E2D81E0F6
:105AD0000F900F900F90CF91DF910895DF93CF93A8
