:100000000C9466000C9483000C9483000C94830081
:100010000C9483000C9483000C9483000C94830054
:100020000C9483000C9483000C9483000C94830044
:100030000C9483000C9454510C9483000C94830012
:100040000C94664A0C9483000C9483000C948300F7
:100050000C944F4A0C9483000C9483000C948300FE
:100060000C9483000C9433120C9483000C94830042
:100070000C9483000C948D200C9483000C948300CA
:100080000C94E3500C9483000C9483000C94830034
:100090000C9483000C9483000C9483000C948300D4
:1000A0000C9483000C9483000C9483000C948300C4
:1000B0000C9483000C9483000C9483000C948300B4
:1000C0000C9483000C9483000C94830011241FBEB5
:1000D000CFEFD1E2DEBFCDBF13E0A0E0B2E0ECE2B3
:1000E000F7EA00E00BBF02C007900D92A036B107FF
:1000F000D9F71DE0A0E6B3E001C01D92A83AB10710
:10010000E1F70C949B2D0C94000010920506809151
:1001100005068093040680910406809303060895E3
:1001200083E096E008958AE096E008958EEF95E0EA
:100130000895E0918D0AF0918E0A878D90A1909399
:10014000FD058093FC0541A152A1509320064093E8
:100150001F0623A134A13093FB052093FA056627DF
:1001600057FD6095762F0E9497010895E0918D0AC2
:10017000F0918E0A878D90A19093FD058093FC05E8
:1001800081A192A1909322068093210683A194A13C
:10019000909307068093060665E08CE091E00E944C
:1001A000BD3E0895E0918D0AF0918E0A878D90A151
:1001B0009093FD058093FC0581A192A19093220666
:1001C0008093210683A194A190930706809306064D
:1001D00065E08FE191E00E94BD3E0895E0918D0AB7
:1001E000F0918E0A878D90A19093FD058093FC0578
:1001F00065E082E391E00E94BD3E089580918D0A02
:1002000090918E0A909309068093080665E08DE32D
:1002100091E00E94BD3E0895409106065091070668
:1002200060912106709122068091FC059091FD0558
:100230000E94530464E087E00E94264308954091A1
:100240000606509107066091210670912206809162
:10025000FC059091FD050E949D0563E087E00E94EA
:10026000264308958091FC059091FD050E940507A5
:1002700062E087E00E94264308956EEF75E08AE011
:1002800096E00E940B07E0910806F091090690A302
:10029000878F61E087E00E9426430895E3E2F6E05D
:1002A00010823A9686E0E337F807D1F7089520E008
:1002B00030E0E3E2F6E08081882331F02F5F3F4FAA
:1002C0003A9628303105B9F78AE090E0289FF0018E
:1002D000299FF00D389FF00D1124ED5DF94F81E05D
:1002E00080832183138212828FEF9FEFAFEFBFEFE6
:1002F00086839783A087B187C90108952AE030E0FB
:10030000829FF001839FF00D929FF00D1124ED5D0F
:10031000F94F1082089580E090E00E94880820E064
:1003200030E0019711F421E030E0C9010895EF9227
:10033000FF920F931F93CF93DF93FC017A018B0100
:10034000B9012115310571F484819581AA27BB2754
:100350008E159F05A007B1076CF1E682F782008732
:1003600011873FC086819781A085B185EC0121303E
:10037000310541F48E0D9F1DA01FB11F8683978309
:10038000A087B187268137814085518557FD09C0F7
:1003900084819581AA27BB2782179307A407B507F5
:1003A00064F4CE01AA2797FDA095BA2F8683978380
:1003B000A087B1878FEF9FEF16C06230710589F477
:1003C000AC01BD014E0D5F1D601F711F4683578339
:1003D0006087718777FDE5CF84179507A607B70774
:1003E00004F380E090E0DF91CF911F910F91FF9097
:1003F000EF9008956F927F928F929F92AF92BF92EB
:10040000CF92DF92EF92FF920F931F93CF93DF93E0
:10041000CDB7DEB72D970FB6F894DEBF0FBECDBFB8
:100420003C014B01880E991EF401319710826F0137
:100430000894C108D1085A01B5018E010F5F1F4F02
:10044000C8010E94060CC8010E9406467601E81AFF
:10045000F90A482FB801C7010E94B8450FE2F6011A
:10046000008367010894C108D1086FE170E0C501FD
:100470000E941808A82EBB248823F1F6F6010083F9
:10048000B4016C197D0961507040D30120E030E067
:1004900006C0F60181916F018D932F5F3F4F2617A4
:1004A0003707BCF311971C922D960FB6F894DEBF58
:1004B0000FBECDBFDF91CF911F910F91FF90EF90B5
:1004C000DF90CF90BF90AF909F908F907F906F9074
:1004D00008950E948D0A0895CF92DF92EF92FF92C5
:1004E0001F93CF93DF936C01EB017A01188211E027
:1004F000B701812F0E94F908019741F48881F60124
:10050000E80FF11D108388818F5F88831F5F11368C
:1005100079F7DF91CF911F91FF90EF90DF90CF900F
:100520000895EF92FF920F931F937C018B019C0122
:100530004CE050E060E070E0C8010E948C076CE085
:1005400070E0C8010E941808F70184876DE170E02F
:10055000C8010E941808F70185876EE170E0C801A4
:100560000E941808F70186871F910F91FF90EF9066
:1005700008956F927F928F929F92AF92BF92CF9287
:10058000DF92EF92FF920F931F93CF93DF93CDB73C
:10059000DEB72D970FB6F894DEBF0FBECDBF3C017E
:1005A0004B01880E991EF401319710826F01089457
:1005B000C108D1080E94C70B5C01B5018E010F5F15
:1005C0001F4FC8010E94060CC8010E940646760112
:1005D000E81AF90A482FB801C7010E94B8450FE28E
:1005E000F601008367010894C108D1086FE170E04B
:1005F000C5010E941808A82EBB248823F1F6F60135
:100600000083B4016C197D0961507040D30120E072
:1006100030E006C0F60181916F018D932F5F3F4F4F
:1006200026173707BCF311971C922D960FB6F89436
:10063000DEBF0FBECDBFDF91CF911F910F91FF9015
:10064000EF90DF90CF90BF90AF909F908F907F9072
:100650006F900895CF93DF93CDB7DEB722970FB693
:10066000F894DEBF0FBECDBFBE016F5F7F4F0E940B
:10067000770E9C018FEF2F3F380731F089819A81E7
:10068000892B11F42FEF3FEFC90122960FB6F89492
:10069000DEBF0FBECDBFDF91CF910895CF93DF9323
:1006A000CDB7DEB722970FB6F894DEBF0FBECDBF31
:1006B000BE016F5F7F4F0E94770E0E94CC0B229687
:1006C0000FB6F894DEBF0FBECDBFDF91CF91089576
:1006D0006F927F928F929F92AF92BF92CF92DF9252
:1006E000EF92FF920F931F93CF93DF93CDB7DEB7B7
:1006F00024970FB6F894DEBF0FBECDBF7C018B01EF
:10070000CB010E9467086C01C8010E9406465C018B
:10071000BE016D5F7F4FC7010E94770E3C01BE0195
:100720006F5F7F4FC8010E94770E7C010E945E10B0
:100730004C01BC01C3010E9477090A0D1B1D0C1955
:1007400011279601A80160E070E0C4010E947F07B4
:1007500040E0B801C4010E94D7074E2D6FE170E060
:10076000C4010E94D707682D8E2D0E946C0CCC24EA
:10077000DD248EE0E82EF12CEC0CFD1CB701C3014A
:100780000E941808A82E882371F00E94720F082F6B
:10079000482FB701C4010E94D7071127B8018A2D3D
:1007A00099270E944B090894C11CD11C88E0C816E7
:1007B000D104F9F680E090E024960FB6F894DEBFFD
:1007C0000FBECDBFDF91CF911F910F91FF90EF90A2
:1007D000DF90CF90BF90AF909F908F907F906F9061
:1007E00008958F929F92AF92BF92CF92DF92EF9235
:1007F000FF920F931F93CF93DF93CDB7DEB724976C
:100800000FB6F894DEBF0FBECDBF7C018B01CB01CC
:100810000E9467085C01C8010E9406464C01BE01A7
:100820006D5F7F4FC7010E94770E7C016FE170E022
:100830000E9418086E2D0E94400CBE016F5F7F4F12
:10084000C8010E94770E6C01482F6FE170E0C7016C
:100850000E94D707080D191D0A1911279501A80133
:1008600060E070E0C7010E947F0740E0B801C70167
:100870000E94D7076E2D8C2D0E946C0C80E090E0BA
:1008800024960FB6F894DEBF0FBECDBFDF91CF9197
:100890001F910F91FF90EF90DF90CF90BF90AF909E
:1008A0009F908F9008952F923F924F925F926F92F8
:1008B0007F928F929F92AF92BF92CF92DF92EF92F0
:1008C000FF920F931F93CF93DF93CDB7DEB7269799
:1008D0000FB6F894DEBF0FBECDBF9E838D837A83A3
:1008E00069835C834B83FC01E680F780008511857A
:1008F0003A01882477FC8094982CB801A701460D12
:10090000571D681D791D24813581C901AA27BB2780
:1009100084179507A607B707C4F5C9018070987FAB
:100920003770232B11F08050984FAA27BB278417CC
:100930009507A607B707DCF4ED81FE818281992730
:100940000E94980CED81FE81E680F780008511857C
:10095000A8019701260D371D481D591D84819581D9
:10096000AA27BB2782179307A407B50774F44B8106
:100970005C814E0D5F1DED81FE8155834483828134
:100980006DE170E099270E94BF07ED81FE81E6804E
:10099000F78000851185C801B70120E038E040E00C
:1009A00050E00E945D531901C801B701660D771D23
:1009B000881D991D615070408040904020E038E0D3
:1009C00040E050E00E945D5329012216330669F58C
:1009D000C801B70120E038E040E050E00E945D53DC
:1009E0007B018C01642DED81FE8182810E94D10BFF
:1009F000E82FC70160E071E00E9428536C018E2E41
:100A0000992473E0880C991C7A95E1F7C70160E09E
:100A100071E00E942853CB0108972B813C814981CA
:100A20005A816C2D880D991D6BC0C801B70120E05B
:100A300038E040E050E00E945D535B016C01E12C26
:100A400061E0F62EC50160E071E00E9428538C0140
:100A5000622DED81FE8182810E94D10BE01AF10AA4
:100A6000282E332453E0220C331C5A95E1F7C5019C
:100A700060E071E00E942853CB01089797014981FB
:100A80005A81602F820D931D0E94A23EED81FE814E
:100A900086819781A085B185680E791E8A1E9B1E6E
:100AA00008946108710881089108C401B30120E02D
:100AB00038E040E050E00E945D53DC01CB0160E093
:100AC00071E00E9428538B01642DED81FE818281AB
:100AD0000E94D10B2B813C812E193F093C832B8333
:100AE000E981FA81EE0EFF1E992743E0880F991FD6
:100AF0004A95E1F708501040A70160E0800F911F70
:100B00000E94A23E80E090E026960FB6F894DEBFE9
:100B10000FBECDBFDF91CF911F910F91FF90EF904E
:100B2000DF90CF90BF90AF909F908F907F906F900D
:100B30005F904F903F902F9008952F923F924F9249
:100B40005F926F927F928F929F92AF92BF92CF925D
:100B5000DF92EF92FF920F931F93CF93DF93CDB766
:100B6000DEB726970FB6F894DEBF0FBECDBF9E83CB
:100B70008D837A8369835C834B83FC01A680B78075
:100B8000C084D1843A01882477FC8094982C860113
:100B90007501E60CF71C081D191D84819581AA2793
:100BA000BB278E159F05A007B1071CF48FEF9FEFA1
:100BB000B6C0C601B50120E038E040E050E00E9438
:100BC0005D5319010894E108F10801091109C801F0
:100BD000B70120E038E040E050E00E945D53290179
:100BE0002216330669F5C601B50120E038E040E081
:100BF00050E00E945D537B018C01642DED81FE81EC
:100C000082810E94D10BE82FC70160E071E00E9451
:100C100028536C01AE2EBB24B3E0AA0CBB1CBA95C2
:100C2000E1F7C70160E071E00E942853CB0108970B
:100C30002B813C8149815A816C2D8A0D9B1D6BC093
:100C4000C601B50120E038E040E050E00E945D536D
:100C50005B016C01E12CA1E0FA2ECB0160E071E0B8
:100C60000E9428538C01622DED81FE8182810E94B9
:100C7000D10BE01AF10A282E3324F3E0220C331CA6
:100C8000FA95E1F7C50160E071E00E942853CB01BD
:100C90000897970149815A81602F820D931D0E9408
:100CA000A53EED81FE8186819781A085B185680E84
:100CB000791E8A1E9B1E089461087108810891089C
:100CC000C401B30120E038E040E050E00E945D53F1
:100CD000DC01CB0160E071E00E9428538B01642DA0
:100CE000ED81FE8182810E94D10B2B813C812E19E6
:100CF0003F093C832B83E981FA81EE0EFF1E992781
:100D0000E3E0880F991FEA95E1F708501040A7012A
:100D100060E0800F911F0E94A53E80E090E0269643
:100D20000FB6F894DEBF0FBECDBFDF91CF911F91FC
:100D30000F91FF90EF90DF90CF90BF90AF909F907A
:100D40008F907F906F905F904F903F902F9008957D
:100D5000CF93DF93C0E0D0E0CE010E948808181640
:100D600019061CF4CE010E94A0082196C136D105B7
:100D700099F7DF91CF9108950E949F0F08950E94E7
:100D80008B1008950E942A032FEF8F3F920719F4CA
:100D90008FEF9FEF08950E94950980E090E00895FD
:100DA000EF92FF920F931F93CF93DF93CDB7DEB7F0
:100DB00022970FB6F894DEBF0FBECDBF7C01BE01F7
:100DC0006F5F7F4F0E94770E8C018FEF0F3F1807E8
:100DD00069F089819A81892B49F4C7010E946708CB
:100DE000B8010E94EC0D80E090E002C08FEF9FEF11
:100DF00022960FB6F894DEBF0FBECDBFDF91CF9124
:100E00001F910F91FF90EF900895FC018181992728
:100E10000E947E010895AF92BF92CF92DF92EF922F
:100E2000FF920F931F93CF93DF93CDB7DEB7229737
:100E30000FB6F894DEBF0FBECDBF5C018B01BE01C3
:100E40006F5F7F4F0E94770E6C01C8010E943E08C1
:100E50007C01892BA1F12FEFC2162FEFD20679F179
:100E600089819A810097A1F432E0E316F10439F503
:100E7000C5010E946708B6010E94BE0DF82E0E94AF
:100E800057018C0142E050E0BC018F2D992708C02A
:100E90000297A9F40E9457018C01A701BC01C60169
:100EA0000E94F30C8AE090E09C01029FC001039F26
:100EB000900D129F900D11248D5D994F02C080E01E
:100EC00090E022960FB6F894DEBF0FBECDBFDF9143
:100ED000CF911F910F91FF90EF90DF90CF90BF9037
:100EE000AF900895FB01BA0135E0880F991F3A953C
:100EF000E1F7422F8E0F9F1F0E94D72F0895FB010D
:100F0000BA0145E0880F991F4A95E1F7A9018E0FB4
:100F10009F1F0E94DA2F0895FB01BA0155E0880F48
:100F2000991F5A95E1F7A9018E0F9F1F0E94EC2F80
:100F30000895FB0165E0880F991F6A95E1F7BA01F2
:100F4000A9018E0F9F1F0E94B22F0895FB0175E02B
:100F5000880F991F7A95E1F7BA01A9018E0F9F1F9B
:100F60000E94B22F08959B01E5E0880F991FEA9532
:100F7000E1F7BA01820F931F0E94B52F08959B01DC
:100F8000F5E0880F991FFA95E1F7BA01820F931FD8
:100F90000E94B82F08959B01A5E0880F991FAA957C
:100FA000E1F7642F820F931F0E94BB2F08959B01CE
:100FB000B5E0880F991FBA95E1F7642F820F931F50
:100FC0000E94BE2F089525E0880F991F2A95E1F70A
:100FD000860F971F0E94C12F089535E0880F991F33
:100FE0003A95E1F7860F971F0E94C42F089545E0B8
:100FF000880F991F4A95E1F7860F971F0E94C72F08
:10100000089555E0880F991F5A95E1F7860F971FAD
:101010000E94CA2F0895E5E0880F991FEA95E1F72D
:10102000860F971F0E94CD2F992787FD90950895D1
:10103000F5E0880F991FFA95E1F7860F971F0E9438
:10104000D32F99270895FC0180818F3209F43196BE
:10105000DB0102C09D9331969081892F81568A31A0
:10106000C8F3805E8A31B0F39F35A1F39E3291F3CD
:101070008F5E8A3078F31C92CF010895CF93DF936F
:10108000EC010E9406460197A9F48881823719F481
:1010900081E090E019C0873719F482E090E014C035
:1010A000813619F483E090E00FC0843759F484E06E
:1010B00090E00AC0CE010E940646029719F485E02E
:1010C00090E002C080E090E0DF91CF910895CF934F
:1010D000DF93EC010E940646FE01E80FF91F3197ED
:1010E0009E0101C0319780818F3221F0E217F30712
:1010F000C9F703C0EC17FD0729F488818F3211F07E
:10110000CE0102C0CF010196DF91CF9108950895DD
:10111000FF920F931F938C016DE070E00E941808FE
:10112000F82E6CE070E0C8010E941808FF2019F446
:1011300080E090E001C099271F910F91FF900895E2
:10114000EF92FF920F931F93CF93DF93CDB7DEB74C
:101150002D970FB6F894DEBF0FBECDBF7C011D8664
:101160009E012F5F3F4F4CE050E060E070E00E9436
:101170008C076CE070E0C7010E941808182F6DE022
:1011800070E0C7010E9418088823E1F01130C1F413
:101190000EE010E0B801C7010E9418080F5F1F4F52
:1011A00008311105B9F70EC00EE010E0B801C70113
:1011B0000E9418080F5F1F4F06311105B9F702C0D2
:1011C000123091F36CE170E0C7010E9418086FE1E2
:1011D00070E0C7010E9418082D960FB6F894DEBF84
:1011E0000FBECDBFDF91CF911F910F91FF90EF9078
:1011F0000895CF92DF92EF92FF920F931F93CF93B8
:10120000DF93CDB7DEB72D970FB6F894DEBF0FBED4
:10121000CDBF6B01E82EFF246DE070E0C7010E9496
:101220001808882339F18E010F5F1F4F98014CE099
:1012300050E060E070E0C7010E948C071D86C80185
:101240000E940646F82E00E010E00EC0B601CE0166
:101250000196820F911D0E94C6450F5F1F4F892B7B
:1012600019F481E090E008C0202F8F2D99270817EE
:10127000190761F780E090E02D960FB6F894DEBF75
:101280000FBECDBFDF91CF911F910F91FF90EF90D7
:10129000DF90CF900895EF92FF920F931F93CF931B
:1012A000DF93EB018C0123E0000F111F2A95E1F77A
:1012B00093E0CC0FDD1F9A95E1F788E0E82EF12C42
:1012C000085010402897BE01C8010E943C2608948F
:1012D000E108F10821960F5F1F4FE114F10499F71F
:1012E000DF91CF911F910F91FF90EF900895EF92B2
:1012F000FF920F931F93CF93DF937C018B01C0E08C
:10130000D0E0BE01C7010E941808482FBE01C801E5
:101310000E94D7072196C032D10599F7DF91CF916E
:101320001F910F91FF90EF900895BF92CF92DF929F
:10133000EF92FF920F931F93CF93DF93EC016CE03A
:1013400070E00E941808182F6FE170E0CE010E9433
:101350001808B82E1130B1F500E010E0B801625F56
:101360007F4FCE010E941808882319F099270E9408
:1013700095090F5F1F4F0A30110581F740E06DE0BE
:1013800070E0CE010E94D707209719F4BB2009F422
:10139000B2C000E010E03EE0C32ED12CC00ED11E42
:1013A000EB2CFF24B601C7010E94180899278C175F
:1013B0009D0709F47AC00F5F1F4F0A30110509F429
:1013C0009AC0E9CF123009F052C040E06DE070E001
:1013D000CE010E94D707209711F4BB20B9F00EE090
:1013E00010E0EB2CFF24B801C7010E9418089927D0
:1013F0008C179D0731F440E0B801C7010E94D70760
:1014000005C00F5F1F4F0831110559F70EE010E0BE
:10141000B801CE010E941808882341F099270E9444
:10142000960F0F5F1F4F0631110591F7FC2E68E1F3
:1014300070E08F2D99270E941808F82E882309F450
:101440005AC0C82EDD24C6010E9482100EE010E0B2
:10145000B801C6010E941808882349F399270E9401
:10146000960F0F5F1F4F0631110509F3F1CF1330AF
:1014700029F540E06DE070E0CE010E94D70720978B
:1014800011F4BB20C1F10EE010E0EB2CFF24B801F9
:10149000C7010E94180899278C179D0749F00F5F14
:1014A0001F4F0831110539F1F0CF40E0B60102C0FD
:1014B00040E0B801C7010E94D7071DC01430D9F41D
:1014C00040E06DE070E0CE010E94D707209711F454
:1014D000BB2089F00EE010E0EB2CFF24B801C7011F
:1014E0000E94180899278C179D0711F30F5F1F4F53
:1014F0000831110589F7CE010E948210DF91CF914A
:101500001F910F91FF90EF90DF90CF90BF900895C3
:101510000E946A0F0E9456100895CF93DF93C0E097
:10152000D0E020E040E250E060E070E0CE010E94B8
:1015300072072196C136D105A1F70E946A0F0E9459
:101540005610DF91CF910895DF92EF92FF920F93A3
:101550001F93CF93DF93EC017B01142FD22ECB018D
:101560000E9406468C3008F48F5F013051F4482FFA
:101570005527970160E070E0CE010E947F0741E0AF
:1015800029C0023051F4482F5527970160E070E0E0
:10159000CE010E947F0742E01DC0033081F4482F36
:1015A0005527970160E070E0CE010E947F0743E07D
:1015B00011C04C2FB801C7010E94D70745C00430A5
:1015C00079F5482F5527970160E070E0CE010E9421
:1015D0007F0744E06CE070E0CE010E94D70741E055
:1015E0006DE070E0CE010E94D70720E04EE050E0B1
:1015F0006EE070E0CE010E947207412F6CE170E056
:10160000CE010E94D70740E050E06DE170E0CE01CE
:101610000E94BF074D2D6FE170E0CE010E94D707F9
:10162000209711F4DD2081F00EE010E0ED2CFF2476
:10163000B801C7010E941808882309F4BACF0F5FC8
:101640001F4F0831110591F7DF91CF911F910F9135
:10165000FF90EF90DF9008954F925F927F928F926C
:101660009F92AF92BF92CF92DF92EF92FF920F9331
:101670001F93782E6B015A01490128010E945E10C8
:10168000E82EFF2403E0272D40E0B601C7010E94A9
:10169000A40AA5016EE070E0C7010E94BF07A40183
:1016A00060E170E0C7010E94B307A20162E170E04F
:1016B000C7010E94BF071F910F91FF90EF90DF902D
:1016C000CF90BF90AF909F908F907F905F904F9002
:1016D0000895AF92BF92CF92DF92EF92FF920F9355
:1016E0001F930E945E107C0101E020E040E060E07A
:1016F00072E099270E94A40A0E9487205C010E9440
:101700008A208C0195014EEC59E264E072E08E2D46
:101710000E942C0B950142E151E268E072E08E2DAF
:101720000E942C0B950149E151E26EE072E08E2D92
:101730000E942C0B95014EE251E263E172E08E2D86
:101740000E942C0B950140E251E26AE172E08E2D7D
:101750000E942C0B950147E858E060E272E08E2D64
:101760000E942C0B1F910F91FF90EF90DF90CF9074
:10177000BF90AF9008950F9301E020E040E066E253
:1017800072E080E090E00E94A40A0F910895809199
:1017900060039091610308959093610380936003C7
:1017A00008951F93162F05C068E170E00E94180885
:1017B000185099271830C0F7612F7727625F7F4F45
:1017C0000E94180899271F9108950F931F93CF9394
:1017D000DF938C01CEE0D0E0BE01C8010E94180862
:1017E000882319F081E090E006C02196C831D10528
:1017F00099F780E090E0DF91CF911F910F910895CC
:101800006FE170E00E94180899270895EF92FF9207
:101810000F931F93CF93DF937B01EC0100E010E067
:10182000B801C7010E9418088883882331F02196E7
:101830000F5F1F4F0C30110599F71882DF91CF9180
:101840001F910F91FF90EF9008950F931F93CF93E7
:10185000DF938C01CEE0D0E0BE01C8010E941808E1
:10186000882319F480E090E006C02196C831D105A4
:1018700099F781E090E0DF91CF911F910F9108954A
:10188000CF92DF92EF92FF920F931F93CF93DF934C
:10189000C82ED62EC0E0D0E08EE0E82EF12CEC0E63
:1018A000FD1E0C2D1127B701C8010E9418088D15C7
:1018B00031F440E0B701C8010E94D70704C0219667
:1018C000CA30D10549F7DF91CF911F910F91FF9059
:1018D000EF90DF90CF900895CF92DF92EF92FF923A
:1018E0000F931F93CF93DF93D82EC62EC0E0D0E086
:1018F0009EE0E92EF12CEC0EFD1E0D2D1127B701F7
:10190000C8010E941808882331F44C2DB701C80182
:101910000E94D70704C02196CA30D10549F7DF914C
:10192000CF911F910F91FF90EF90DF90CF9008958E
:10193000DF92EF92FF920F931F93CF93DF93D82EF6
:10194000C0E0D0E0ED2CFF248E01025F1F4FB801F4
:10195000C7010E941808882329F02196C830D105B4
:1019600039F0F0CF0E94720F482FB801C70118C09C
:1019700068E170E0C7010E941808D82E882301F79B
:101980000E945E10182F482F68E170E0C7010E9486
:10199000D7070E94720F482F6EE070E0812F9927C1
:1019A0000E94D707DF91CF911F910F91FF90EF9089
:1019B000DF9008950F931F93CF93DF938C01CEE0B8
:1019C000D0E0BE01C8010E941808882339F0992789
:1019D0000E94960F2196C631D10599F7DF91CF91DC
:1019E0001F910F910895CF92DF92EF92FF920F9384
:1019F0001F93CF93DF937C016B018A018AE090E013
:101A0000689FE001699FD00D789FD00D1124CD5DB6
:101A1000D94FEA824B836DE170E0C7010E94010853
:101A20009D838C830130110529F41E821F82188644
:101A3000198618C00230110581F00330110539F400
:101A4000AA27BB278E839F83A887B9871DC0043030
:101A5000110541F4C7010E94DA0C1E821F8218860C
:101A6000198612C00530110579F48AE090E0C89E0D
:101A7000F001C99EF00DD89EF00D1124ED5DF94FD7
:101A80001682178210861186DF91CF911F910F91D8
:101A9000FF90EF90DF90CF9008950E94880820E09B
:101AA00030E0019711F421E030E0C9010895CF92B0
:101AB000DF92EF92FF921F93CF93DF93EC016B01C4
:101AC0000E9406460D97D4F4C6010E948808892B0F
:101AD000A9F0EE24FF241881B701C6010E9418085E
:101AE000181761F48881882361F00894E11CF11CC7
:101AF00021968CE0E816F10421F0EDCF81E090E032
:101B000002C080E090E0DF91CF911F91FF90EF90B5
:101B1000DF90CF900895AF92BF92CF92DF92FF9265
:101B20000F931F93CF93DF935C016B010EE010E0E6
:101B3000B801C6010E941808F82EC82FDD27BE0183
:101B4000C5010E94570D892B39F4CE010E948808E7
:101B5000882311F0FF2039F40F5F1F4F0831110562
:101B600039F7C0E0D0E0CE01DF91CF911F910F9106
:101B7000FF90DF90CF90BF90AF900895CF92DF920B
:101B8000EF92FF920F93CF93DF936C01EB010E94D2
:101B90008B0D181619061CF4EE24FF2414C0CE0178
:101BA0000E94250C813021F42FEFE22EF12C0BC086
:101BB0000E945E10E82EFF2402E02C2F40E0B601C8
:101BC000C7010E94A40AC701DF91CF910F91FF9036
:101BD000EF90DF90CF900895CF92DF92EF92FF9237
:101BE0000F93CF93DF936C01EB010E948B0D1816BE
:101BF00019061CF4EE24FF2414C0CE010E94250C0B
:101C0000813021F43FEFE32EF12C0BC00E945E10D7
:101C1000E82EFF2401E02C2F40E0B601C7010E940E
:101C2000A40AC701DF91CF910F91FF90EF90DF9051
:101C3000CF900895AF92BF92CF92DF92FF920F9311
:101C40001F93CF93DF935C016B010EE010E0B801AE
:101C5000C6010E941808F82EC82FDD27BE01C50155
:101C60000E94570D892B49F4CE010E9488088823D1
:101C700021F0FF2011F0992707C00F5F1F4F083197
:101C8000110529F780E090E0DF91CF911F910F912E
:101C9000FF90DF90CF90BF90AF900895CF92DF92EA
:101CA000EF92FF920F931F93CF93DF936C017B0111
:101CB0000EE010E0B801C7010E941808C82FDD2708
:101CC000BE01C6010E94570D892B39F00F5F1F4FCF
:101CD0000831110579F7CFEFDFEFCE01DF91CF911A
:101CE0001F910F91FF90EF90DF90CF9008958F920A
:101CF0009F92AF92BF92CF92DF92EF92FF920F939B
:101D00001F93CF93DF93CDB7DEB72D970FB6F8941F
:101D1000DEBF0FBECDBF6C014B01FC0191917F0175
:101D2000F601818100916003109161039E3279F484
:101D30008E3251F4C8010E94000C8C0142E0E42E66
:101D4000F12CEC0CFD1C35C08F3291F532C09F3266
:101D500021F4760100E010E02CC0892F81568A31F1
:101D600018F091549A3120F55E010894A11CB11C21
:101D7000B501C6010E9423087C01892B61F4B801DA
:101D8000C5010E941A0E009779F0F40191838083B7
:101D9000B801C5012BC0B801C5010E941A0E892BDC
:101DA000A9F1B801C5012EC0F4011182108230C022
:101DB0007601C8010E944D0D892B41F16E010894F6
:101DC000C11CD11CB601C7010E9423087C01FC0183
:101DD0008081882379F4B801C6010E941A0E009709
:101DE00019F3F40191838083B801C6010E944E0E5D
:101DF0008C010EC0B801C6010E941A0E892B31F069
:101E0000B801C6010E944E0E8C01D3CF0FEF1FEF19
:101E1000C8012D960FB6F894DEBF0FBECDBFDF917F
:101E2000CF911F910F91FF90EF90DF90CF90BF90D7
:101E3000AF909F908F9008950F931F93FC018B019B
:101E4000CB0168E070E00E942853E60FF71F208165
:101E5000332727FD3095C80168E070E00E942853C1
:101E600002C0359527958A95E2F7C9018170907077
:101E70001F910F910895CF93DF93EC01FB019A011D
:101E8000CB0168E070E00E942853C60FD71F48813D
:101E9000232B71F0CF0168E070E00E94285321E00D
:101EA00030E002C0220F331F8A95E2F7422B0EC0AA
:101EB000CF0168E070E00E94285321E030E002C0CA
:101EC000220F331F8A95E2F7209542234883DF9142
:101ED000CF910895E2E6F3E0119283E0E238F8074B
:101EE000D9F708950F931F93CF93DF93C0E0D0E00D
:101EF000BE0182E693E00E941C0F8E010F5F1F4F10
:101F0000892B49F441E050E0BE0182E693E00E9453
:101F10003B0FC80106C0E8010050114049F78FEFA0
:101F20009FEFDF91CF911F910F910895019740E0AE
:101F300050E0BC0182E693E00E943B0F08950F93AE
:101F40001F93CF93DF9300E010E0C0E0D0E0BE012C
:101F500082E693E00E941C0F019711F40F5F1F4F60
:101F6000219681E0C030D80791F780E091E0801B96
:101F7000910BDF91CF911F910F91089508950F93C9
:101F80001F93CF93DF9380E090E0EC0121966DE00A
:101F900070E0CE010E941808182F6CE070E0CE01AE
:101FA0000E9418081130C9F48230B9F40EE010E034
:101FB000B801CE010E941808882351F0682F7727B6
:101FC0006150704041E050E082E693E00E943B0F98
:101FD0000F5F1F4F0631110559F7CE01C036D105ED
:101FE000A1F6DF91CF911F910F91089542E653E042
:101FF00060E270E08EE49CE00E94EC2F089542E6DF
:1020000053E060E270E08EE49CE00E94DA2F0895D5
:102010000F931F93FC018B01CB0168E070E00E94DD
:102020002853E60FF71F2081332727FD3095C8017D
:1020300068E070E00E94285302C0359527958A9584
:10204000E2F7C901817090701F910F910895CF93AD
:10205000DF93EC01FB019A01CB0168E070E00E9484
:102060002853C60FD71F4881232B71F0CF0168E09A
:1020700070E00E94285321E030E002C0220F331F9D
:102080008A95E2F7422B0EC0CF0168E070E00E9413
:10209000285321E030E002C0220F331F8A95E2F777
:1020A000209542234883DF91CF910895EBE4F6E039
:1020B000119286E0E735F807D9F708950F931F933B
:1020C000CF93DF93C0E0D0E0BE018BE496E00E94A6
:1020D00008108E010F5F1F4F892B49F441E050E03B
:1020E000BE018BE496E00E942710C80106C0E801FB
:1020F0000036110549F78FEF9FEFDF91CF911F91C8
:102100000F910895019740E050E0BC018BE496E008
:102110000E94271008950F931F93CF93DF93C0E081
:10212000D0E000E010E0BE018BE496E00E940810D1
:10213000019711F40F5F1F4F2196C036D10599F713
:1021400080E690E0801B910BDF91CF911F910F9162
:1021500008950F931F93CF93DF93C0E0D0E08E01DB
:102160000F5F1F4F6DE070E0C8010E9418088823C0
:1021700019F440E050E002C041E050E0BE018BE4C1
:1021800096E00E942710E8010036110541F7DF9123
:10219000CF911F910F9108954BE456E06CE070E0F1
:1021A00082E49CE00E94DA2F08954BE456E06CE054
:1021B00070E082E49CE00E94EC2F08951092C5002C
:1021C0008FE08093C400E0ECF0E080818260808347
:1021D000E2ECF0E0808186608083E1ECF0E08081D9
:1021E0008869808381E0809382031092A403109217
:1021F000A50308951F93182F80918203882311F45B
:102200000E94DE108091C00085FFFCCF1093C600B5
:102210001F9108951F93182F80918203882311F432
:102220000E94DE108091C00085FFFCCF1093C60095
:102230001F910895CF93DF93EC0103C00E94FA1021
:10224000219688818823D1F7DF91CF9108950F934C
:102250001F93CF93DF93EC01062F10E004C0899108
:102260000E94FA101F5F1017D1F7DF91CF911F91D5
:102270000F9108950F931F93CF93DF93EC01062FD7
:1022800010E004C089910E940A111F5F1017D1F756
:10229000DF91CF911F910F9108958A3010F0895AE4
:1022A00001C0805D0E94FA100895CF93DF93CDB7EF
:1022B000DEB724970FB6F894DEBF0FBECDBF69839B
:1022C0007A838B839C838C810E94FA108B810E947D
:1022D000FA108A810E94FA1089810E94FA102496CD
:1022E0000FB6F894DEBF0FBECDBFDF91CF9108953A
:1022F0001F93182F82958F700E944D11812F8F7020
:102300000E944D111F910895CF93DF93CDB7DEB793
:1023100024970FB6F894DEBF0FBECDBF69837A83D2
:102320008B839C838DEF0E94FA1069817A818B8167
:102330009C810E9455118DEF0E94FA1024960FB6D1
:10234000F894DEBF0FBECDBFDF91CF910895EF921D
:10235000FF920F931F937B018C018EEF0E94FA1066
:10236000C801B7010E9455118EEF0E94FA101F910B
:102370000F91FF90EF900895CF93DF93CDB7DEB725
:1023800024970FB6F894DEBF0FBECDBF69837A8362
:102390008B839C8380E30E94FA1088E70E94FA10E6
:1023A0008C810E9478118B810E9478118A810E9411
:1023B000781189810E94781124960FB6F894DEBFB7
:1023C0000FBECDBFDF91CF910895AF92BF92CF9254
:1023D000DF92EF92FF920F931F93CF93DF93CDB7CE
:1023E000DEB760970FB6F894DEBF0FBECDBF69832E
:1023F0007A838B839C832D833E834F835887E98622
:10240000FA860B871C87AD86BE86CF86D88A81E088
:102410000E94FA1069817A818B819C810E94BC1193
:102420006D817E818F8198850E94BC1169857A8536
:102430008B859C850E94BC116D857E858F859889D2
:102440000E94BC1160960FB6F894DEBF0FBECDBFE0
:10245000DF91CF911F910F91FF90EF90DF90CF9080
:10246000BF90AF9008951F920F920FB60F92112454
:102470001F932F933F934F935F936F937F938F930C
:102480009F93AF93BF93EF93FF938091C6008136E4
:10249000A9F40E94B846282F10E09EE18091C00068
:1024A00087FFFCCF8091C600E12FFF27ED57FC4F3F
:1024B00080831F5F915097FFF1CF16C08C36E1F4F7
:1024C0000E94B846282F10E09EE38091C00087FF4D
:1024D000FCCF8091C600E12FFF27ED57FC4F808392
:1024E0001F5F915097FFF1CF822F0E94B546612F59
:1024F00083E893E00E946152FF91EF91BF91AF9109
:102500009F918F917F916F915F914F913F912F910B
:102510001F910F900FBE0F901F90189500000000A4
:1025200008958895089578940895F89408958FB73C
:10253000F894992708958FBF0895E0E0F0E0099599
:10254000089578948895000000000895CF93DF9354
:10255000CDB7DEB722970FB6F894DEBF0FBECDBF62
:102560000E94B84689830E9476428A8389810E94AC
:10257000B5466A8185E60E94CE460E94A641229613
:102580000FB6F894DEBF0FBECDBFDF91CF91089597
:10259000CF93DF93CDB7DEB722970FB6F894DEBFA7
:1025A0000FBECDBF0E94B84689830E9476428A83BF
:1025B00089810E94B5466A8186E60E94CE460E94C5
:1025C0008A2922960FB6F894DEBF0FBECDBFDF91E9
:1025D000CF910895CF93DF93CDB7DEB722970FB693
:1025E000F894DEBF0FBECDBF0E94B84689830E941B
:1025F00076428A8389810E94B5466A8187E60E9475
:10260000CE460E94BC2922960FB6F894DEBF0FBEBC
:10261000CDBFDF91CF910895CF93DF93CDB7DEB7D4
:1026200022970FB6F894DEBF0FBECDBF0E94704256
:102630009A83898389819A81482F592F22960FB6D0
:10264000F894DEBF0FBECDBFDF91CF910895CF9339
:10265000DF93CDB7DEB722970FB6F894DEBF0FBE7B
:10266000CDBF0E94B84689830E9476428A838981C1
:102670000E94B5466A8188E60E94CE460E940C13ED
:1026800022960FB6F894DEBF0FBECDBFDF91CF917B
:102690000895CF93DF93CDB7DEB722970FB6F894A6
:1026A000DEBF0FBECDBF0E94633F9A8389838981BD
:1026B0009A81482F592F22960FB6F894DEBF0FBE8D
:1026C000CDBFDF91CF910895CF93DF93CDB7DEB724
:1026D00022970FB6F894DEBF0FBECDBF0E94B8465A
:1026E00089830E9476428A8389810E94B5466A81E5
:1026F00089E60E94CE460E94491322960FB6F894AE
:10270000DEBF0FBECDBFDF91CF910895CF93DF9392
:10271000CDB7DEB722970FB6F894DEBF0FBECDBFA0
:102720000E94B84689830E9476428A8389810E94EA
:10273000B5466A818AE60E94CE460E94FE3F2296F6
:102740000FB6F894DEBF0FBECDBFDF91CF910895D5
:10275000CF93DF93CDB7DEB722970FB6F894DEBFE5
:102760000FBECDBF842F952F9A83898389819A814B
:102770000E946A3F22960FB6F894DEBF0FBECDBF0F
:10278000DF91CF910895CF93DF93CDB7DEB7229736
:102790000FB6F894DEBF0FBECDBF0E94B846898346
:1027A0000E9476428A8389810E94B5466A818BE6BF
:1027B0000E94CE460E94A81322960FB6F894DEBF60
:1027C0000FBECDBFDF91CF910895CF93DF93CDB7EB
:1027D000DEB722970FB6F894DEBF0FBECDBF0E94C2
:1027E00076429A83898389819A81482F592F22962C
:1027F0000FB6F894DEBF0FBECDBFDF91CF91089525
:10280000CF93DF93CDB7DEB722970FB6F894DEBF34
:102810000FBECDBF0E94B84689830E9476428A834C
:1028200089810E94B5466A818CE60E94CE460E944C
:10283000E51322960FB6F894DEBF0FBECDBFDF9131
:10284000CF910895CF93DF93CDB7DEB722970FB620
:10285000F894DEBF0FBECDBF0E9493009A83898398
:1028600089819A81482F592F22960FB6F894DEBF9E
:102870000FBECDBFDF91CF910895CF93DF93CDB73A
:10288000DEB722970FB6F894DEBF0FBECDBF0E9411
:10289000B84689830E9476428A8389810E94B54620
:1028A0006A818DE60E94CE460E94221422960FB6BF
:1028B000F894DEBF0FBECDBFDF91CF910895CF93C7
:1028C000DF93CDB7DEB722970FB6F894DEBF0FBE09
:1028D000CDBF0E9496009A83898389819A81482F6F
:1028E000592F22960FB6F894DEBF0FBECDBFDF91F1
:1028F000CF910895CF93DF93CDB7DEB722970FB670
:10290000F894DEBF0FBECDBF0E94B84689830E94F7
:1029100076428A8389810E94B5466A818EE60E944A
:10292000CE460E945F1422960FB6F894DEBF0FBE0B
:10293000CDBFDF91CF910895CF93DF93CDB7DEB7B1
:1029400022970FB6F894DEBF0FBECDBF0E94900055
:102950009A83898389819A81482F592F22960FB6AD
:10296000F894DEBF0FBECDBFDF91CF910895CF9316
:10297000DF93CDB7DEB722970FB6F894DEBF0FBE58
:10298000CDBF0E94B84689830E9476428A8389819E
:102990000E94B5466A818FE60E94CE460E949C1432
:1029A00022960FB6F894DEBF0FBECDBFDF91CF9158
:1029B0000895CF93DF93CDB7DEB722970FB6F89483
:1029C000DEBF0FBECDBF0E94B84689830E9476420B
:1029D0008A8389810E94B5466A8180E70E94CE463B
:1029E0000E94FE0022960FB6F894DEBF0FBECDBF48
:1029F000DF91CF910895CF93DF93CDB7DEB72297C4
:102A00000FB6F894DEBF0FBECDBF0E94B8468983D3
:102A10000E9476428A8389810E94B5466A8181E755
:102A20000E94CE460E94EE0022960FB6F894DEBFBA
:102A30000FBECDBFDF91CF910895CF93DF93CDB778
:102A4000DEB722970FB6F894DEBF0FBECDBF0E944F
:102A5000B84689830E9476428A8389810E94B5465E
:102A60006A8182E70E94CE460E94D20022960FB66B
:102A7000F894DEBF0FBECDBFDF91CF910895CF9305
:102A8000DF93CDB7DEB722970FB6F894DEBF0FBE47
:102A9000CDBF0E94B84689830E9476428A8389818D
:102AA0000E94B5466A8183E70E94CE460E94B60026
:102AB00022960FB6F894DEBF0FBECDBFDF91CF9147
:102AC0000895CF93DF93CDB7DEB722970FB6F89472
:102AD000DEBF0FBECDBF0E94B84689830E947642FA
:102AE0008A8389810E94B5466A8184E70E94CE4626
:102AF0000E94990022960FB6F894DEBF0FBECDBF9C
:102B0000DF91CF910895CF93DF93CDB7DEB72297B2
:102B10000FB6F894DEBF0FBECDBF0E94B8468983C2
:102B20000E9476428A8389810E94B5466A8185E740
:102B30000E94CE460E94692122960FB6F894DEBF0D
:102B40000FBECDBFDF91CF910895CF93DF93CDB767
:102B5000DEB722970FB6F894DEBF0FBECDBF0E943E
:102B6000B84689830E9476428A8389810E94B5464D
:102B70006A8186E70E94CE460E94602122960FB6A7
:102B8000F894DEBF0FBECDBFDF91CF910895CF93F4
:102B9000DF93CDB7DEB722970FB6F894DEBF0FBE36
:102BA000CDBF0E94B84689830E9476428A8389817C
:102BB0000E94B5466A8187E70E94CE460E9457214F
:102BC00022960FB6F894DEBF0FBECDBFDF91CF9136
:102BD0000895CF93DF93CDB7DEB722970FB6F89461
:102BE000DEBF0FBECDBF0E94B84689830E947642E9
:102BF0008A8389810E94B5466A8188E70E94CE4611
:102C00000E944E2122960FB6F894DEBF0FBECDBFB4
:102C1000DF91CF910895CF93DF93CDB7DEB72297A1
:102C20000FB6F894DEBF0FBECDBF0E94B8468983B1
:102C30000E9476428A8389810E94B5466A8189E72B
:102C40000E94CE460E94452122960FB6F894DEBF20
:102C50000FBECDBFDF91CF910895CF93DF93CDB756
:102C6000DEB722970FB6F894DEBF0FBECDBF0E942D
:102C7000B84689830E9476428A8389810E94B5463C
:102C80006A818AE70E94CE460E943C2122960FB6B6
:102C9000F894DEBF0FBECDBFDF91CF910895CF93E3
:102CA000DF93CDB7DEB724970FB6F894DEBF0FBE23
:102CB000CDBF842F952F9C838B83862F972F9A834C
:102CC000898329818B819C81622F0E94BD3E24963D
:102CD0000FB6F894DEBF0FBECDBFDF91CF91089540
:102CE000CF93DF93CDB7DEB722970FB6F894DEBF50
:102CF0000FBECDBF0E94B84689830E9476428A8368
:102D000089810E94B5466A818BE70E94CE460E9467
:102D10004F1622960FB6F894DEBF0FBECDBFDF91DF
:102D2000CF910895CF93DF93CDB7DEB722970FB63B
:102D3000F894DEBF0FBECDBF0E945D3F9A838983AA
:102D400089819A81482F592F22960FB6F894DEBFB9
:102D50000FBECDBFDF91CF910895CF93DF93CDB755
:102D6000DEB722970FB6F894DEBF0FBECDBF0E942C
:102D7000B84689830E9476428A8389810E94B5463B
:102D80006A818CE70E94CE460E94921622960FB668
:102D9000F894DEBF0FBECDBFDF91CF910895CF93E2
:102DA000DF93CDB7DEB722970FB6F894DEBF0FBE24
:102DB000CDBF0E94C63D9A83898389819A81482F1D
:102DC000592F22960FB6F894DEBF0FBECDBFDF910C
:102DD000CF910895CF93DF93CDB7DEB722970FB68B
:102DE000F894DEBF0FBECDBF0E94B84689830E9413
:102DF00076428A8389810E94B5466A818DE70E9466
:102E0000CE460E94CF1622960FB6F894DEBF0FBEB4
:102E1000CDBFDF91CF910895CF93DF93CDB7DEB7CC
:102E200022970FB6F894DEBF0FBECDBF0E94B84602
:102E300089830E9476428A8389810E94B5466A818D
:102E40008EE70E94CE460E94FD3D22960FB6F89472
:102E5000DEBF0FBECDBFDF91CF910895CF93DF933B
:102E6000CDB7DEB722970FB6F894DEBF0FBECDBF49
:102E70000E94B84689830E9476428A8389810E9493
:102E8000B5466A818FE70E94CE460E941C43229677
:102E90000FB6F894DEBF0FBECDBFDF91CF9108957E
:102EA000CF93DF93CDB7DEB7882D992D90935A0637
:102EB000809359068091590690915A0602969093F4
:102EC0005A06809359068A2D9B2D90935A0680931B
:102ED00059068091590690915A06029690935A0687
:102EE000809359068C2D9D2D90935A0680935906F8
:102EF0008091590690915A06029690935A068093B3
:102F00005906DF91CF910895CF93DF93CDB7DEB708
:102F100022970FB6F894DEBF0FBECDBF0E94B84611
:102F200089830E9476428A8389810E94B5466A819C
:102F300080E80E94CE460E94501722960FB6F89461
:102F4000DEBF0FBECDBFDF91CF910895CF93DF934A
:102F5000CDB7DEB722970FB6F894DEBF0FBECDBF58
:102F60000E94B84689830E9476428A8389810E94A2
:102F7000B5466A8181E80E94CE460E945829229671
:102F80000FB6F894DEBF0FBECDBFDF91CF9108958D
:102F9000CF93DF93CDB7DEB722970FB6F894DEBF9D
:102FA0000FBECDBF0E94B84689830E9476428A83B5
:102FB00089810E94B5466A8182E80E94CE460E94BD
:102FC000AC2922960FB6F894DEBF0FBECDBFDF91BD
:102FD000CF910895CF93DF93CDB7DEB722970FB689
:102FE000F894DEBF0FBECDBF0E94B84689830E9411
:102FF00076428A8389810E94B5466A8183E80E946D
:10300000CE460E949C2922960FB6F894DEBF0FBED2
:10301000CDBFDF91CF910895CF93DF93CDB7DEB7CA
:1030200022970FB6F894DEBF0FBECDBF0E94B84600
:1030300089830E9476428A8389810E94B5466A818B
:1030400084E80E94CE460E94482922960FB6F89442
:10305000DEBF0FBECDBFDF91CF910895CF93DF9339
:10306000CDB7DEB722970FB6F894DEBF0FBECDBF47
:103070000E94B84689830E9476428A8389810E9491
:10308000B5466A8185E80E94CE460E94382922967C
:103090000FB6F894DEBF0FBECDBFDF91CF9108957C
:1030A000CF93DF93CDB7DEB722970FB6F894DEBF8C
:1030B0000FBECDBF0E94B84689830E9476428A83A4
:1030C00089810E94B5466A8186E80E94CE460E94A8
:1030D0007A2922960FB6F894DEBF0FBECDBFDF91DE
:1030E000CF910895CF93DF93CDB7DEB722970FB678
:1030F000F894DEBF0FBECDBF0E94B84689830E9400
:1031000076428A8389810E94B5466A8187E80E9457
:10311000CE460E946A2922960FB6F894DEBF0FBEF3
:10312000CDBFDF91CF910895CF93DF93CDB7DEB7B9
:1031300022970FB6F894DEBF0FBECDBF0E94B846EF
:1031400089830E9476428A8389810E94B5466A817A
:1031500088E80E94CE460E948E4222960FB6F894CE
:10316000DEBF0FBECDBFDF91CF910895CF93DF9328
:10317000CDB7DEB722970FB6F894DEBF0FBECDBF36
:103180000E94663F9A83898389819A81482F592FAB
:1031900022960FB6F894DEBF0FBECDBFDF91CF9160
:1031A0000895CF93DF93CDB7DEB722970FB6F8948B
:1031B000DEBF0FBECDBF0E94B84689830E94764213
:1031C0008A8389810E94B5466A8189E80E94CE4639
:1031D0000E94B61822960FB6F894DEBF0FBECDBF80
:1031E000DF91CF910895CF93DF93CDB7DEB72297CC
:1031F0000FB6F894DEBF0FBECDBF0E94603F9A832A
:10320000898389819A81482F592F22960FB6F89485
:10321000DEBF0FBECDBFDF91CF910895CF93DF9377
:10322000CDB7DEB722970FB6F894DEBF0FBECDBF85
:103230000E94B84689830E9476428A8389810E94CF
:10324000B5466A818AE80E94CE460E94F31822960B
:103250000FB6F894DEBF0FBECDBFDF91CF910895BA
:10326000CF93DF93CDB7DEB722970FB6F894DEBFCA
:103270000FBECDBF0E94B84689830E9476428A83E2
:1032800089810E94B5466A818BE80E94CE460E94E1
:10329000EF3F22960FB6F894DEBF0FBECDBFDF9191
:1032A000CF910895CF93DF93CDB7DEB722970FB6B6
:1032B000F894DEBF0FBECDBF0E948E409A838983F3
:1032C00089819A81482F592F22960FB6F894DEBF34
:1032D0000FBECDBFDF91CF910895CF93DF93CDB7D0
:1032E000DEB722970FB6F894DEBF0FBECDBF0E94A7
:1032F000B84689830E9476428A8389810E94B546B6
:103300006A818CE80E94CE460E94521922960FB61E
:10331000F894DEBF0FBECDBFDF91CF910895CF935C
:10332000DF93CDB7DEB722970FB6F894DEBF0FBE9E
:10333000CDBF0E94B84689830E9476428A838981E4
:103340000E94B5466A818DE80E94CE460E94B74031
:1033500022960FB6F894DEBF0FBECDBFDF91CF919E
:103360000895CF93DF93CDB7DEB722970FB6F894C9
:10337000DEBF0FBECDBF0E94AC2F9A8389838981A7
:103380009A81482F592F22960FB6F894DEBF0FBEB0
:10339000CDBFDF91CF910895CF93DF93CDB7DEB747
:1033A00022970FB6F894DEBF0FBECDBF0E94B8467D
:1033B00089830E9476428A8389810E94B5466A8108
:1033C0008EE80E94CE460E94B11922960FB6F8945C
:1033D000DEBF0FBECDBFDF91CF910895CF93DF93B6
:1033E000CDB7DEB70E94EF2FDF91CF910895CF9335
:1033F000DF93CDB7DEB722970FB6F894DEBF0FBECE
:10340000CDBF0E94B84689830E9476428A83898113
:103410000E94B5466A818FE80E94CE460E94EE194E
:1034200022960FB6F894DEBF0FBECDBFDF91CF91CD
:103430000895CF93DF93CDB7DEB70E94DD2FDF91E4
:10344000CF910895CF93DF93CDB7DEB722970FB614
:10345000F894DEBF0FBECDBF0E94B84689830E949C
:1034600076428A8389810E94B5466A8180E90E94FA
:10347000CE460E94191A22960FB6F894DEBF0FBEF0
:10348000CDBFDF91CF910895CF93DF93CDB7DEB756
:10349000DF91CF910895CF93DF93CDB7DEB7229719
:1034A0000FB6F894DEBF0FBECDBF0E94B846898329
:1034B0000E9476428A8389810E94B5466A8181E9A9
:1034C0000E94CE460E94441A22960FB6F894DEBFA0
:1034D0000FBECDBFDF91CF910895CF93DF93CDB7CE
:1034E000DEB7DF91CF910895CF93DF93CDB7DEB7ED
:1034F00022970FB6F894DEBF0FBECDBF0E94B8462C
:1035000089830E9476428A8389810E94B5466A81B6
:1035100082E90E94CE460E946D1A22960FB6F89458
:10352000DEBF0FBECDBFDF91CF910895CF93DF9364
:10353000CDB7DEB722970FB6F894DEBF0FBECDBF72
:103540000E94B84689830E9476428A8389810E94BC
:10355000B5466A8183E90E94CE460E94E32E2296F8
:103560000FB6F894DEBF0FBECDBFDF91CF910895A7
:10357000CF93DF93CDB7DEB722970FB6F894DEBFB7
:103580000FBECDBF0E94F0469A83898389819A81BC
:10359000482F592F22960FB6F894DEBF0FBECDBF2D
:1035A000DF91CF910895CF93DF93CDB7DEB7229708
:1035B0000FB6F894DEBF0FBECDBF0E94B846898318
:1035C0000E9476428A8389810E94B5466A8184E995
:1035D0000E94CE460E94B81A22960FB6F894DEBF1B
:1035E0000FBECDBFDF91CF910895CF93DF93CDB7BD
:1035F000DEB722970FB6F894DEBF0FBECDBF0E9494
:10360000B84689830E9476428A8389810E94B546A2
:103610006A8185E90E94CE4622960FB6F894DEBFF5
:103620000FBECDBFDF91CF910895CF93DF93CDB77C
:10363000DEB722970FB6F894DEBF0FBECDBF0E9453
:10364000B84689830E9476428A8389810E94B54662
:103650006A8186E90E94CE4622960FB6F894DEBFB4
:103660000FBECDBFDF91CF910895CF93DF93CDB73C
:10367000DEB722970FB6F894DEBF0FBECDBF0E9413
:10368000B84689830E9476428A8389810E94B54622
:103690006A8187E90E94CE4622960FB6F894DEBF73
:1036A0000FBECDBFDF91CF910895CF93DF93CDB7FC
:1036B000DEB722970FB6F894DEBF0FBECDBF0E94D3
:1036C000BB3D9A83898389819A81482F592F2296FD
:1036D0000FB6F894DEBF0FBECDBFDF91CF91089536
:1036E000CF93DF93CDB7DEB722970FB6F894DEBF46
:1036F0000FBECDBF0E94B84689830E9476428A835E
:1037000089810E94B5466A8188E90E94CE460E945E
:10371000551B22960FB6F894DEBF0FBECDBFDF91CA
:10372000CF910895CF93DF93CDB7DEB722970FB631
:10373000F894DEBF0FBECDBF842F952F9A83898367
:1037400089819A810E94C03D22960FB6F894DEBF0F
:103750000FBECDBFDF91CF910895CF93DF93CDB74B
:10376000DEB722970FB6F894DEBF0FBECDBF0E9422
:10377000B84689830E9476428A8389810E94B54631
:103780006A8189E90E94CE460E94921B22960FB65A
:10379000F894DEBF0FBECDBFDF91CF910895CF93D8
:1037A000DF93CDB7DEB722970FB6F894DEBF0FBE1A
:1037B000CDBF0E9442419A83898389819A81482F93
:1037C000592F22960FB6F894DEBF0FBECDBFDF9102
:1037D000CF910895CF93DF93CDB7DEB722970FB681
:1037E000F894DEBF0FBECDBF0E94B84689830E9409
:1037F00076428A8389810E94B5466A818AE90E945D
:10380000CE460E94CF1B22960FB6F894DEBF0FBEA5
:10381000CDBFDF91CF910895CF93DF93CDB7DEB7C2
:1038200022970FB6F894DEBF0FBECDBF0E94454170
:103830009A83898389819A81482F592F22960FB6BE
:10384000F894DEBF0FBECDBFDF91CF910895CF9327
:10385000DF93CDB7DEB722970FB6F894DEBF0FBE69
:10386000CDBF0E94B84689830E9476428A838981AF
:103870000E94B5466A818AE90E94CE460E940C1CCD
:1038800022960FB6F894DEBF0FBECDBFDF91CF9169
:103890000895CF93DF93CDB7DEB722970FB6F89494
:1038A000DEBF0FBECDBF0E94B84689830E9476421C
:1038B0008A8389810E94B5466A818CE90E94CE463E
:1038C0000E94794322960FB6F894DEBF0FBECDBF9B
:1038D000DF91CF910895CF93DF93CDB7DEB72297D5
:1038E0000FB6F894DEBF0FBECDBF0E94ED469A839F
:1038F000898389819A81482F592F22960FB6F8948F
:10390000DEBF0FBECDBFDF91CF910895CF93DF9380
:10391000CDB7DEB724970FB6F894DEBF0FBECDBF8C
:10392000842F952F9C838B83862F972F9A8389834F
:1039300029818B819C81622F0E94A1F324960FB66E
:10394000F894DEBF0FBECDBFDF91CF910895CF9326
:10395000DF93CDB7DEB724970FB6F894DEBF0FBE66
:10396000CDBF842F952F9C838B83862F972F9A838F
:10397000898329818B819C81622F0E94E9F22496A0
:103980000FB6F894DEBF0FBECDBFDF91CF91089583
:10399000CF93DF93CDB7DEB723970FB6F894DEBF92
:1039A0000FBECDBF842F952F9B838A830E947642C2
:1039B00089838A819B81BC0189810E944841239629
:1039C0000FB6F894DEBF0FBECDBFDF91CF91089543
:1039D000CF93DF93CDB7DEB727970FB6F894DEBF4E
:1039E0000FBECDBF822F932F9C838B83842F952F67
:1039F0009A838983862F972F9F838E830E94764296
:103A00008D838E819F8149815A816B817C819C014C
:103A10008D810E94713D27960FB6F894DEBF0FBED0
:103A2000CDBFDF91CF910895CF93DF93CDB7DEB7B0
:103A300022970FB6F894DEBF0FBECDBF0E9473422F
:103A40009A83898389819A81482F592F22960FB6AC
:103A5000F894DEBF0FBECDBFDF91CF910895CF9315
:103A6000DF93CDB7DEB726970FB6F894DEBF0FBE53
:103A7000CDBF842F952F9E838D83862F972F9C8378
:103A80008B83822F932F9A8389838DB79EB79093D0
:103A90005806809357068091820A9091830A9EBFB0
:103AA0008DBF6B8189819A812D813E81AC01C901D5
:103AB0000E94CCF18DB79EB79093830A8093820ABF
:103AC00080915706909158069EBF8DBF26960FB6DF
:103AD000F894DEBF0FBECDBFDF91CF910895CF9395
:103AE000DF93CDB7DEB726970FB6F894DEBF0FBED3
:103AF000CDBF842F952F9E838D83862F972F9C83F8
:103B00008B83822F932F9A8389838DB79EB790934F
:103B10005806809357068091820A9091830A9EBF2F
:103B20008DBF6B8189819A812D813E81AC01C90154
:103B30000E9410F18DB79EB79093830A8093820AFA
:103B400080915706909158069EBF8DBF26960FB65E
:103B5000F894DEBF0FBECDBFDF91CF910895CF9314
:103B6000DF93CDB7DEB722970FB6F894DEBF0FBE56
:103B7000CDBF0E94B84689830E9476428A8389819C
:103B80000E94B5466A818DE90E94CE460E940B478D
:103B900022960FB6F894DEBF0FBECDBFDF91CF9156
:103BA0000895CF93DF93CDB7DEB722970FB6F89481
:103BB000DEBF0FBECDBF0E94B84689830E94764209
:103BC0008A8389810E94B5466A818EE90E94CE4629
:103BD0000E94FE4622960FB6F894DEBF0FBECDBF00
:103BE000DF91CF910895982F80915B068F3019F463
:103BF0008FEF80935B06E0915B06EF5FE0935B06DF
:103C0000809160068F5F80936006FF27EC59F94F23
:103C10009083089581E090E0089590916006992343
:103C200019F480E190E00895809178068F3019F4BE
:103C30008FEF80937806E0917806EF5FE093780647
:103C4000915090936006FF27EC59F94F8081992796
:103C5000089581E090E008950E94E05008950E9448
:103C6000DC50992708950E94D85099270895FF9213
:103C70000F931F930E94B846F82E8091750690917D
:103C80007606892B29F46CE087EC9EE10E94BD3E0C
:103C900000917506109176060E942F1E0F5F1F4F30
:103CA000080F111D10937606009375068F2D0E9444
:103CB000B54681E090E01F910F91FF9008959F928B
:103CC000AF92BF92CF92DF92EF92FF920F931F932A
:103CD000E0905C06F0905D0600915E0610915F0634
:103CE000E114F10401051105D9F196EE992E60E079
:103CF00070E0EEE7F6E081E0A82EB12CC12CD12CCB
:103D0000D601C501062E04C0880F991FAA1FBB1F2C
:103D10000A94D2F78E219F21A023B1230097A105F9
:103D2000B10571F02081318142815381892D99271C
:103D3000AA27BB27281739074A075B070CF4922EDE
:103D40006F5F7F4F399660317105D1F60E94B8469A
:103D5000182F0E94331E8D5F891530F4892D04C001
:103D60000E94B846182F86EE809362060E942C1E91
:103D700010926306812F0E94B5461F910F91FF900C
:103D8000EF90DF90CF90BF90AF909F9008959F925B
:103D9000AF92BF92CF92DF92EF92FF920F931F9359
:103DA000CF93DF9381E0809363060E94B846A09092
:103DB0007506B090760610927606109275060E94EF
:103DC000B54680915C0690915D06A0915E06B0912B
:103DD0005F060097A105B10509F482C0C9E7D6E0E6
:103DE000CC24DD249C2C21E0E22EF12C012D112D80
:103DF0000C2C04C0EE0CFF1C001F111F0A94D2F7FC
:103E000080915C0690915D06A0915E06B0915F0680
:103E10008E219F21A023B1230097A105B10509F4AC
:103E200056C08D819E81AF81B88595014427552765
:103E3000821B930BA40BB50B8D839E83AF83B88736
:103E40000397A105B1050CF042C067E080E690E25F
:103E50000E94BD3E882391F18881882389F48D8159
:103E60009E81AF81B88529813A814B815C81820F27
:103E7000931FA41FB51F8D839E83AF83B8871AC07D
:103E8000A8019701209530954095509580915C064A
:103E900090915D06A0915E06B0915F068223932308
:103EA000A423B52380935C0690935D06A0935E06E1
:103EB000B0935F06892D0E94F31D09C080916206B0
:103EC0009927AA27BB278D839E83AF83B887089441
:103ED000C11CD11C299680E1C816D10409F082CFFB
:103EE0000E94B84600917506109176060E94B5466C
:103EF000012B11F40E945F1EDF91CF911F910F9152
:103F0000FF90EF90DF90CF90BF90AF909F9008957B
:103F10009F92AF92BF92CF92DF92EF92FF920F9358
:103F20001F9359016A01803108F061C062300CF0C2
:103F30005EC0662331F4233031054105510508F494
:103F400056C0E82EFF24870133E0000F111F3A9579
:103F5000E1F70E0D1F1D0758194FF801A182B2821B
:103F6000C382D48260830E94B846982E0E94331E7A
:103F7000A80EB11CC11CD11CF801A582B682C78253
:103F8000D08621E030E040E050E004C0220F331F33
:103F9000441F551FEA94D2F780915C0690915D060C
:103FA000A0915E06B0915F06822B932BA42BB52BBC
:103FB00080935C0690935D06A0935E06B0935F06C7
:103FC000809162069927AA27BB27A816B906CA06B8
:103FD000DB0638F4A09262068A2D0E942C1E1092F5
:103FE0006306892D0E94B54681E090E002C080E022
:103FF00090E01F910F91FF90EF90DF90CF90BF90D6
:10400000AF909F900895EF92FF920F931F9381318D
:1040100008F04AC041E0E42EF12C012D112D04C01E
:10402000EE0CFF1C001F111F8A95D2F780915C06D1
:1040300090915D06A0915E06B0915F068E219F2152
:10404000A023B1230097A105B10571F10E94B846E4
:10405000E094F0940095109520915C0630915D06F7
:1040600040915E0650915F062E213F21402351234F
:1040700020935C0630935D0640935E0650935F0686
:104080000E94B54680915C0690915D06A0915E0607
:10409000B0915F060097A105B10519F481E0809306
:1040A000630681E090E002C080E090E01F910F91F4
:1040B000FF90EF9008950E940A3D81E090E00895FE
:1040C0000E940D1E803110F40E945B2008950E9412
:1040D00028519927089510925C0610925D0610925F
:1040E0005E0610925F06109263068FEF80935B0668
:1040F000809378061092600683E08093610686EED6
:104100008093620663E00E946720992708958AEAF7
:1041100095E0089586EB95E008951F920F920FB6F3
:104120000F9211248F93EF93FF93EAE7F0E08081E1
:104130008061808380818F778083FF91EF918F9161
:104140000F900FBE0F901F90189510927C008EE07C
:1041500080937A00089510927C0090917C008F717A
:10416000982B90937C0080917A00877F80937A00CF
:1041700080917A00806180937A0080917A00806CCF
:1041800080937A0080917A0086FDFCCF8091780040
:1041900099272091790040917A004F7740937A00D7
:1041A000332723703070322F2227822B932B0895D0
:1041B00076986E98759A6D9A81E090E00E94AB2097
:1041C00075986D98089575986D98769A6E9A81E0B5
:1041D00090E00E94AB2076986E9808953D9A459A9B
:1041E00085E090E00E94AB203D98459808953D9A67
:1041F000459A86E090E00E94AB203D98459808954E
:104200003C9A449A83E090E00E94AB203C9844980A
:1042100008953C9A449A84E090E00E94AB203C9838
:10422000449808950E94D8209093B7058093B605CE
:1042300008950E94E3209093B7058093B6050895F2
:104240000E9400219093B7058093B60508950E94BF
:1042500009219093B7058093B60508950E94EE203A
:104260009093B7058093B60508950E94F720909328
:10427000B7058093B60508950E940921E0918D0A43
:10428000F0918E0A948F838F08950E940021E0910F
:104290008D0AF0918E0A948F838F08950E94F720E3
:1042A000E0918D0AF0918E0A948F838F08950E9479
:1042B000EE20E0918D0AF0918E0A948F838F0895FD
:1042C0000E94E320E0918D0AF0918E0A948F838FF3
:1042D00008950E94D820E0918D0AF0918E0A948F63
:1042E000838F08958FB7F8940B9A139A5D98559A17
:1042F0005A9852985B9A539A8FBF1092B8051092B1
:10430000B9051092BA051092BB0521E02093BC05B7
:1043100080E098E09093BE058093BD051092BF05A4
:104320002093C00580E49CE90197F1F708958FB7C9
:10433000F8945D9813988FBF08952FB7F8949BB1A8
:10434000977D9BB980E05D9A4A9980689BB95D9A98
:104350004A9980649BB95D9A4A9980629BB95D9A3B
:104360004A9980619BB95D9A4A9988609BB95D9A28
:104370004A9984609BB95D9A4A9982609BB95D9A1B
:104380004A9981602FBF99270895982F3FB7F894D5
:104390002BB1277D2BB980E097FD5B9A5D9A2BB9F5
:1043A00096FD5B9A5D9A2BB995FD5B9A5D9A2BB948
:1043B00094FD5B9A5D9A2BB993FD5B9A5D9A2BB93C
:1043C00092FD5B9A5D9A2BB991FD5B9A5D9A2BB930
:1043D00090FD5B9A5D9A3FBF99270895CF92DF9237
:1043E000EF92FF920F931F93CF93DF93CDB7DEB77A
:1043F00024970FB6F894DEBF0FBECDBF7A016901D6
:10440000813011F484E801C087E889831A82872FFC
:1044100099278B836C830E9497218E010F5F1F4F1A
:10442000F80181918F010E94C521CE0105960817E0
:104430001907B1F700E010E007C0F70181917F0193
:104440000E94C5210F5F1F4F0C151D05B1F7139A70
:1044500081E090E024960FB6F894DEBF0FBECDBF8A
:10446000DF91CF911F910F91FF90EF90DF90CF9050
:1044700008950F931F93CF93DF93CDB7DEB72497A3
:104480000FB6F894DEBF0FBECDBF813011F483E8C4
:1044900001C086E88983CB01880F892F881F990B7B
:1044A00091958A83862F880F8B831C820E94972187
:1044B0008E010F5F1F4FF80181918F010E94C5216E
:1044C000CE01059608171907B1F7139A81E090E01D
:1044D00024960FB6F894DEBF0FBECDBFDF91CF910B
:1044E0001F910F91089580E091E0089580E098E099
:1044F0000895FF920F931F930E94B846F82E0E94D2
:10450000972187ED0E94C5210E949D21082F139AB3
:104510008F2D0E94B546112707FD10950095109527
:104520000027110F001F1127C8011F910F91FF9045
:104530000895FF920F931F93CF93DF93CDB7DEB70C
:1045400024970FB6F894DEBF0FBECDBFF82E8B01B7
:104550000E9479228823E1F76091BD057091BE0524
:104560008091BC050E9439220E9479228823E1F7BC
:1045700081E0F81611F483E501C085E58983C8015F
:10458000880F892F881F990B91958A83802F880F18
:104590008B831C820E9497218E010F5F1F4FF801B1
:1045A00081918F010E94C521CE0105960817190738
:1045B000B1F7139A81E090E024960FB6F894DEBF2D
:1045C0000FBECDBFDF91CF911F910F91FF90089546
:1045D0004F925F926F927F928F929F92AF92BF9213
:1045E000CF92DF92EF92FF920F931F93CF93DF93BF
:1045F000CDB7DEB728970FB6F894DEBF0FBECDBF9C
:104600002B013C01E090B805F090B9050091BA0586
:104610001091BB05C801B70128E031E040E050E04F
:104620000E943B536901C801B70128E031E040E036
:1046300050E00E943B534B018091BF05882389F1D4
:10464000A090BD05B090BE05AC14BD0450F176013C
:1046500000271127B40188279927640D751D861D31
:10466000971D28E031E040E050E00E943B53E20E0D
:10467000F31E041F151FC501AA27BB27E816F9065C
:104680000A071B0770F00E9479228823E1F76091E6
:10469000BD057091BE058091BC050E943922109223
:1046A000BF050E9479228823E1F788EE8983C6013D
:1046B000880F892F881F990B91958A832C2D220FA3
:1046C000892D9927282B2B838C821D821E821F8285
:1046D00018860E9497218E010F5F1F4FF80181916C
:1046E0008F010E94C521CE01099608171907B1F75D
:1046F0000FEF1FEFCC24DD2476011FC00E949D2107
:10470000582F40E890E061E270E19801220F331FDA
:10471000852F842311F02F5F3F4F17FF02C02627FC
:1047200037279F5F983019F046958901EECF08949E
:10473000C11CD11CE11CF11C8901C414D504E60480
:10474000F704E1F620E041E250E1C801880F991F2B
:1047500017FF07C08C01042715272F5F203119F0A0
:10476000F4CF8C01FACF139AC80128960FB6F894AB
:10477000DEBF0FBECDBFDF91CF911F910F91FF9094
:10478000EF90DF90CF90BF90AF909F908F907F90F1
:104790006F905F904F9008956F927F928F929F924B
:1047A000AF92BF92CF92DF92EF92FF920F931F933F
:1047B000CF93DF93CDB7DEB724970FB6F894DEBF63
:1047C0000FBECDBF3C015B018091BF05882371F016
:1047D0000E9479228823E1F76091BD057091BE05A2
:1047E0008091BC050E9439221092BF050E94792257
:1047F0008823E1F78824992483C0E090B805F090DD
:10480000B9050091BA051091BB05C801B70128E0B0
:1048100031E040E050E00E943B536901C801B7011C
:1048200028E031E040E050E00E943B538B01C5019D
:10483000800F911F8950914010F4750106C088E0E7
:10484000E82E81E0F82EE01AF10A88E0E81681E00F
:10485000F80640F4B60181E00E9499220E94792274
:104860008823E1F7A301480D591D9701B80181E0A4
:104870000E94EE2180E68983C601880F892F881F58
:10488000990B91958A838C2D880F8B831C820E94B3
:1048900097218E010F5F1F4FF80181918F010E94B8
:1048A000C521CE01059608171907B1F7139A0E9482
:1048B000972187ED0E94C5210E949D21139A87FDB3
:1048C000F6CF86FF02C061E020C08E0C9F1C9701CE
:1048D000442755278091B8059091B905A091BA0554
:1048E000B091BB05820F931FA41FB51F8093B8051D
:1048F0009093B905A093BA05B093BB05AE18BF0855
:10490000A114B10409F079CF60E09501442755273F
:104910008091B8059091B905A091BA05B091BB05F9
:10492000820F931FA41FB51F8093B8059093B905FC
:10493000A093BA05B093BB05862F992724960FB68E
:10494000F894DEBF0FBECDBFDF91CF911F910F91C5
:10495000FF90EF90DF90CF90BF90AF909F908F909F
:104960007F906F9008954F925F926F927F928F9297
:104970009F92AF92BF92CF92DF92EF92FF920F93EE
:104980001F93CF93DF93CDB7DEB724970FB6F8947C
:10499000DEBF0FBECDBF2C014B01E090B805F090FB
:1049A000B9050091BA051091BB05C801B70128E00F
:1049B00031E040E050E00E943B536901C801B7017B
:1049C00028E031E040E050E00E943B537B018C0145
:1049D0000E9479228823E1F757016624772490C04A
:1049E000C4018A0D9B1D8950914010F4740106C0CA
:1049F00038E0E32E31E0F32EEA18FB088091BD0584
:104A00009091BE05C816D90609F44EC08091BF0525
:104A1000882371F00E9479228823E1F76091BD0517
:104A20007091BE058091BC050E9439221092BF058D
:104A30008091BC05813011F482E001C081E0809357
:104A4000BC05D092BE05C092BD0588E0E81681E0A5
:104A5000F80648F40E9479228823E1F7B601809194
:104A6000BC050E9499220E9479228823E1F781E8FF
:104A70008983C601880F892F881F990B91958A8396
:104A80008C2D880F8B831C820E9497218E010F5FD3
:104A90001F4FF80181918F010E94C521CE0105961B
:104AA00008171907B1F7139AA201460D571D970170
:104AB000B5018091BC050E94EE2181E08093BF0585
:104AC0006E0C7F1C9701442755278091B805909163
:104AD000B905A091BA05B091BB05820F931FA41F21
:104AE000B51F8093B8059093B905A093BA05B0930C
:104AF000BB058E189F080894C11CD11CAA24BB2496
:104B00008114910409F06CCF80E090E024960FB6F8
:104B1000F894DEBF0FBECDBFDF91CF911F910F91F3
:104B2000FF90EF90DF90CF90BF90AF909F908F90CD
:104B30007F906F905F904F9008958F929F92AF9269
:104B4000BF92CF92DF92EF92FF920F931F93CF937A
:104B5000DF93CDB7DEB728970FB6F894DEBF0FBE50
:104B6000CDBF4C015B01E090B805F090B905009114
:104B7000BA051091BB05C801B70128E031E040E05B
:104B800050E00E943B536901C801B70128E031E0C1
:104B900040E050E00E943B538B018091BF05882389
:104BA00009F12091BD053091BE052C153D05D0F0D1
:104BB000C8018A0D9B1D68E071E00E9414536C0DC2
:104BC0007D1D6217730770F00E9479228823E1F738
:104BD0006091BD057091BE058091BC050E9439228F
:104BE0001092BF050E9479228823E1F788EE89831D
:104BF000C601880F892F881F990B91958A832C2DC8
:104C0000220F812F9927282B2B830C831D821E8234
:104C10001F8218860E9497218E010F5F1F4FF80197
:104C200081918F010E94C521CE01099608171907AD
:104C3000B1F700E010E0740107C00E949D21F70168
:104C400081937F010F5F1F4F0A151B05B1F7139A60
:104C5000C50128960FB6F894DEBF0FBECDBFDF9119
:104C6000CF911F910F91FF90EF90DF90CF90BF9069
:104C7000AF909F908F9008950F931F93CF93DF93E2
:104C8000EC018B010E9479228823E1F7BE0181E0CB
:104C90000E9499220E9479228823E1F7B80181E0DD
:104CA0000E9439220E9479228823E1F7DF91CF9177
:104CB0001F910F910895AF92BF92DF92EF92FF92F2
:104CC0000F931F93CF93DF93EC01D62E5A018901E6
:104CD0008091C005882311F40E94722188E091E040
:104CE000C89F7001C99FF00CD89FF00C11246D2D46
:104CF0007727C701860F971FAA2797FDA095BA2F80
:104D00008093B8059093B905A093BA05B093BB05FD
:104D1000CB01800F911F815091402CF0C0E0D1E079
:104D2000C61BD70B01C0E8010E9479228823E1F756
:104D3000BE01C5010E94B3240E9479228823E1F7B5
:104D4000C017D107F8F4C701885F9E4FAA2797FDC7
:104D5000A095BA2F8093B8059093B905A093BA0592
:104D6000B093BB050E9479228823E1F70C1B1D0B31
:104D7000B801C5018C0F9D1F0E94B3240E947922A7
:104D80008823E1F7DF91CF911F910F91FF90EF9072
:104D9000DF90BF90AF900895AF92BF92DF92EF92F5
:104DA000FF920F931F93CF93DF93EC01D62E5A01FE
:104DB00089018091C005882311F40E94722188E046
:104DC00091E0C89F7001C99FF00CD89FF00C11248E
:104DD0006D2D7727C701860F971FAA2797FDA095EE
:104DE000BA2F8093B8059093B905A093BA05B093F4
:104DF000BB05CB01800F911F815091402CF0C0E08A
:104E0000D1E0C61BD70B01C0E8010E94792288239C
:104E1000E1F7BE01C5010E949D250E9479228823E9
:104E2000E1F7C017D107F8F4C701885F9E4FAA27A2
:104E300097FDA095BA2F8093B8059093B905A093DC
:104E4000BA05B093BB050E9479228823E1F70C1BB9
:104E50001D0BB801C5018C0F9D1F0E949D250E944E
:104E600079228823E1F7DF91CF911F910F91FF9075
:104E7000EF90DF90BF90AF9008950F931F93CF9363
:104E8000DF93CDB7DEB721970FB6F894DEBF0FBE24
:104E9000CDBF8C0169830E94B846982FF999FECF47
:104EA0008981D801082E0E948553892F0E94B5461A
:104EB00021960FB6F894DEBF0FBECDBFDF91CF9124
:104EC0001F910F9108951F93CF93DF93EC01162F3D
:104ED0000E94B846F999FECFDE01012E0E9485534B
:104EE0000E94B546DF91CF911F910895CF92DF9236
:104EF000EF92FF920F931F93CF93DF938C017B016F
:104F0000C42E0E94B846D82EC0E0D0E007C06C2D59
:104F1000C8010E94632721960F5F1F4FCE15DF0542
:104F2000B4F38D2D0E94B546DF91CF911F910F9163
:104F3000FF90EF90DF90CF9008950F931F93CF9342
:104F4000DF93CDB7DEB721970FB6F894DEBF0FBE63
:104F5000CDBF8C010E94B846982FF999FECFD80199
:104F60000E947853802D8983892F0E94B5468981BC
:104F7000992787FD909521960FB6F894DEBF0FBE56
:104F8000CDBFDF91CF911F910F910895DC01CB012F
:104F9000FA01F999FECF019724F001900E94855300
:104FA000FACF0895DC01CB01FA01F999FECF019700
:104FB00024F00E9478530192FACF08951F93CF9363
:104FC000DF93EC010E94B846F999FECFDE010E9402
:104FD0007853102D0E94B546812F9927DF91CF91EC
:104FE0001F9108950F931F93CF93DF93EC010E94BD
:104FF000B846F999FECFDE010E9480538F010E94CE
:10500000B546C801DF91CF911F910F9108950F937D
:105010001F93CF93DF93CDB7DEB722970FB6F894E7
:10502000DEBF0FBECDBF8C010E94B846F999FECFFE
:10503000D8010E948053FA83E9830E94B546898192
:105040009A8122960FB6F894DEBF0FBECDBFDF91D6
:10505000CF911F910F910895CF92DF92EF92FF921F
:105060000F931F93CF93DF93EC010E94B846F999F9
:10507000FECFDE010E9480536F01F999FECFDE0161
:1050800012960E9480537F010E94B5460027112787
:105090008701FF24EE24C601AA27BB27E80EF91ECC
:1050A0000A1F1B1FC801B701DF91CF911F910F91FC
:1050B000FF90EF90DF90CF9008950F931F93CF93C1
:1050C000DF93CDB7DEB724970FB6F894DEBF0FBEDF
:1050D000CDBF8C010E94B846682FF999FECFD80148
:1050E0000E948053AF01F999FECF98012E5F3F4F88
:1050F000D9010E948053CF01AA27BB27DC01992741
:105100008827FA019F0144275527820F931FA41F68
:10511000B51F89839A83AB83BC83862F0E94B546D3
:1051200069817A818B819C8124960FB6F894DEBFC9
:105130000FBECDBFDF91CF911F910F9108950F93B7
:105140001F93CF93DF938C01EB010E94B846F9992E
:10515000FECFD8010E010E9491530E94B546DF9107
:10516000CF911F910F9108950F931F93CF93DF93CA
:10517000CDB7DEB722970FB6F894DEBF0FBECDBF16
:105180008C017A8369830E94B846282FF999FECF53
:1051900089819A81D8010C010E949153822F0E942B
:1051A000B54622960FB6F894DEBF0FBECDBFDF9195
:1051B000CF911F910F910895EF92FF920F931F933C
:1051C000CF93DF93EC017A018B010E94B846282F20
:1051D000C801AA27BB27F999FECFDE0107010E946B
:1051E0009153F999FECFDE0112960C010E94915362
:1051F000822F0E94B546DF91CF911F910F91FF90B2
:10520000EF9008950F931F93CF93DF93CDB7DEB741
:1052100024970FB6F894DEBF0FBECDBF8C01498333
:105220005A836B837C830E94B846682F29813A8118
:105230004B815C81CA01AA27BB27F999FECFD8010F
:1052400009010E949153F999FECFD80112960C01E1
:105250000E949153862F0E94B54624960FB6F8946B
:10526000DEBF0FBECDBFDF91CF911F910F9108958B
:105270001F930E94B846182F0E946B2A80910B073B
:105280008B7F80930B07812F0E94B5461F91089555
:105290001F930E94B846182F0E946D2A80910B0719
:1052A000846080930B07812F0E94B5461F9108955B
:1052B0001F930E94B846182F80910B0782FF03C0EE
:1052C0000E94382902C00E944829812F0E94B546B9
:1052D0001F9108951F930E94B846182F0E945C2AC0
:1052E00080910B078D7F80930B07812F0E94B5461D
:1052F0001F9108951F930E94B846182F0E945E2A9E
:1053000080910B07826080930B07812F0E94B54626
:105310001F9108951F930E94B846182F80910B0784
:1053200081FF03C00E946A2902C00E947A29812F4E
:105330000E94B5461F9108951F930E94B846182FEA
:105340000E944B2A80910B078E7F80930B07812F41
:105350000E94B5461F9108951F930E94B846182FCA
:105360000E944D2A80910B07816080930B07812F4B
:105370000E94B5461F9108951F930E94B846182FAA
:1053800080910B0780FF03C00E949C2902C00E94ED
:10539000AC29812F0E94B5461F9108950E94872055
:1053A000FC0190930D0780930C078081813011F4EC
:1053B0000E94AC29E0910C07F0910D0780818823B1
:1053C00011F40E949C29E0910C07F0910D07808157
:1053D000823011F40E94BC29E0910C07F0910D0776
:1053E0008181813011F40E947A29E0910C07F091BB
:1053F0000D078181882311F40E946A29E0910C072E
:10540000F0910D078181823011F40E948A29E09188
:105410000C07F0910D078281813011F40E94482918
:10542000E0910C07F0910D078281882311F40E940E
:105430003829E0910C07F0910D078281823011F438
:105440000E94582908951F930E94B846182F109261
:105450000B070E94582A0E94742A0E94672A0E9401
:105460004B2A0E946B2A0E945C2A812F0E94B5461B
:105470001F91089500000000089509C00000000079
:105480000000000000000000000000000197181656
:105490001906A4F30895129A08951298089580B1F8
:1054A0009927969587959695879581709070089520
:1054B0000A9A08950A980895119A089511980895DE
:1054C00080B1992796958795817090700895099A73
:1054D000089509980895109A08951098089580B134
:1054E0009927817090700895089A089508980895F2
:1054F000149A08951498089580B1992744E09695D8
:1055000087954A95E1F78170907008950C9A0895F7
:105510000C980895159A08951598089580B19927C3
:1055200055E0969587955A95E1F7817090700895AA
:105530000D9A08950D980895179A0895179808954B
:1055400080B1992787FD90958827990F881F992703
:1055500008950F9A08950F98089590916A009062A7
:1055600090936A00882321F080916A00806103C0D3
:1055700080916A008F7E80936A000895169A08953C
:105580001698089580B1992776E0969587957A9533
:10559000E1F78170907008950E9A08950E9808951D
:1055A000159A08951598089580B19927E5E0969584
:1055B0008795EA95E1F78170907008950D9A0895A6
:1055C0000D980895769A0895769808958CB1992744
:1055D000F6E096958795FA95E1F7817090700895B9
:1055E0006E9A08956E980895769A0895769808951B
:1055F0008CB19927A6E096958795AA95E1F78170D9
:10560000907008956E9A08956E9808955E9A089520
:105610005E98089589B19927B6E096958795BA95D1
:10562000E1F7817090700895569A089556980895FC
:105630005C9A08955C98089589B1992724E096951D
:1056400087952A95E1F7817090700895549A08958E
:1056500054980895289A08952898089583B1992711
:10566000817090700895209A0895209808952F9A37
:1056700008952F98089583B1992787FD90958827DD
:10568000990F881F99270895279A089527980895B4
:105690005E9A08955E98089589B1992746E0969597
:1056A00087954A95E1F7817090700895569A08950C
:1056B00056980895139A08951398089580B19927DC
:1056C00053E0969587955A95E1F78170907008950B
:1056D0000B9A08950B9808955D9A08955D98089522
:1056E00089B1992765E0969587956A95E1F781706C
:1056F00090700895559A0895559808955B9A089565
:105700005B98089589B1992773E0969587957A9566
:10571000E1F7817090700895539A08955398089511
:105720005A9A08955A98089589B199279695879518
:1057300096958795817090700895529A0895529821
:105740000895749A0895749808958CB19927F4E097
:1057500096958795FA95E1F78170907008956C9A07
:1057600008956C980895759A0895759808958CB168
:105770009927A5E096958795AA95E1F78170907095
:1057800008956D9A08956D980895769A089576987B
:1057900008958CB19927B6E096958795BA95E1F76B
:1057A0008170907008956E9A08956E980895779A12
:1057B0000895779808958CB1992787FD909588274B
:1057C000990F881F992708956F9A08956F980895E3
:1057D0002A9A08952A98089583B1992796958795CE
:1057E00096958795817090700895229A08952298D1
:1057F00008952B9A08952B98089583B1992743E033
:10580000969587954A95E1F7817090700895239A4F
:10581000089523980895299A08952998089583B1A1
:10582000992796958795817090700895219A08958B
:1058300021980895409A08954098089586B199272F
:10584000817090700895389A089538980895419A13
:1058500008954198089586B1992796958795817006
:1058600090700895399A089539980895429A089544
:105870004298089586B1992796958795969587952C
:105880008170907008953A9A08953A980895439ACD
:1058900008954398089586B19927E3E096958795F2
:1058A000EA95E1F78170907008953B9A08953B98CE
:1058B0000895449A08954498089586B19927F4E08C
:1058C00096958795FA95E1F78170907008953C9AC6
:1058D00008953C980895459A08954598089586B18D
:1058E0009927A5E096958795AA95E1F78170907024
:1058F00008953D9A08953D980895469A08954698CA
:10590000089586B19927B6E096958795BA95E1F7FF
:105910008170907008953E9A08953E980895479A30
:1059200008954798089586B1992787FD909588270F
:10593000990F881F992708953F9A08953F980895D1
:10594000589A08955898089589B199278170907050
:105950000895509A089550980895599A089559981D
:10596000089589B1992796958795817090700895CB
:10597000519A089551980895709A089570980895CD
:105980008CB19927817090700895689A08956898ED
:105990000895719A0895719808958CB199279695F4
:1059A0008795817090700895699A0895699808950F
:1059B000729A0895729808958CB199279695879553
:1059C000969587958170907008956A9A08956A985F
:1059D0000895739A0895739808958CB1992763E098
:1059E000969587956A95E1F78170907008956B9A06
:1059F00008956B9808955A9A08955A98089589B110
:105A000099279695879596958795817090700895BA
:105A1000529A0895529808955B9A08955B98089554
:105A200089B19927E3E096958795EA95E1F781702A
:105A300090700895539A0895539808955D9A089523
:105A40005D98089589B19927F5E096958795FA951F
:105A5000E1F7817090700895559A089555980895CA
:105A6000089508950895089508958CB1881F882792
:105A7000881F992708956F9A08956F980895429AFC
:105A8000089542980895439A089543980895449A32
:105A9000089544980895459A089545980895469A1A
:105AA0000895469808950A9A089A099A3F9A3E9A44
:105AB0003D9A3C9A3B9A3A9A399A389A2398229A74
:105AC000219A0E9A0D9A20986E9856985498279875
:105AD00056980C9814980B9A539A559A139A129AAE
