:100000000C9446000C9463000C9463000C94630001
:100010000C9463000C9463000C9463000C94BA4538
:100020000C9463000C9463000C9463000C948D4B4F
:100030000C94F34B0C9463000C9463000C94932D7C
:100040000C9463000C9463000C9458210C9463008E
:100050000C9463000C9404370C9463000C946300BC
:100060000C9463000C9463000C9463000C94630084
:100070000C9463000C9463000C9463000C94630074
:100080000C9463000C9463000C94630011241FBE55
:10009000CFEFD0E1DEBFCDBF11E0A0E0B1E0E8EEF0
:1000A000FDE201E00BBF02C007900D92A636B1073A
:1000B000D9F71AE0A6E6B1E001C01D92A731B10759
:1000C000E1F70C941B630C940000CF93DF93CDB742
:1000D000DEB71092E9038091E9038093E8038091F1
:1000E000E8038093E703DF91CF910895CF93DF93E7
:1000F000CDB7DEB722970FB6F894DEBF0FBECDBFE7
:1001000087EE93E09A83898389819A8122960FB63C
:10011000F894DEBF0FBECDBFDF91CF910895CF938E
:10012000DF93CDB7DEB78EEE93E0DF91CF910895E8
:10013000CF93DF93CDB7DEB782EE93E0DF91CF911F
:100140000895CF93DF93CDB7DEB722970FB6F8941B
:10015000DEBF0FBECDBF82EE93E02EEE33E0BC01DA
:10016000C9010E94D8029A838983E091EC03F0913F
:10017000ED0389819A81948F838F61E087E00E94EB
:10018000938A22960FB6F894DEBF0FBECDBFDF91E3
:10019000CF910895CF93DF93CDB7DEB780918508D7
:1001A000909186089093ED038093EC0381EA90E0B0
:1001B00065E00E94FE7EDF91CF910895CF93DF939B
:1001C000CDB7DEB78091E0039091E1030E94770301
:1001D00062E087E00E94938ADF91CF910895CF93E8
:1001E000DF93CDB7DEB7E0918508F0918608838D67
:1001F000948D9093E1038093E0038EED90E065E0B1
:100200000E94FE7EDF91CF910895CF93DF93CDB70B
:10021000DEB78091EA039091EB03209105043091C1
:100220000604E091E003F091E103AC01B901CF01D4
:100230000E94490563E087E00E94938ADF91CF9195
:100240000895CF93DF93CDB7DEB7E0918508F091A5
:100250008608838D948D9093E1038093E003E09171
:100260008508F0918608858D968D9093060480937D
:100270000504E0918508F0918608878D90A1909300
:10028000EB038093EA0385E091E065E00E94FE7E47
:10029000DF91CF910895CF93DF93CDB7DEB78091F3
:1002A000EA039091EB032091050430910604E0915C
:1002B000E003F091E103AC01B901CF010E94E50632
:1002C00064E087E00E94938ADF91CF910895CF93F5
:1002D000DF93CDB7DEB7E0918508F0918608838D76
:1002E000948D9093E1038093E003E0918508F09171
:1002F0008608858D968D9093060480930504E09181
:100300008508F0918608878D90A19093EB038093E8
:10031000EA038BE491E065E00E94FE7EDF91CF91DD
:100320000895CF93DF93CDB7DEB7E0918508F091C4
:100330008608838D948D9093E1038093E003E09190
:100340008508F0918608858D968D9093040480939E
:100350000304E0918508F0918608878D90A1909321
:10036000DF038093DE032091DE033091DF03809171
:10037000030490910404AA2797FDA095BA2FE09159
:10038000E003F091E103AC01BD01CF010E949403B1
:10039000DF91CF910895CF93DF93CDB7DEB722974A
:1003A0000FB6F894DEBF0FBECDBF80E090E00E9494
:1003B00020108130910529F481E090E09A838983AF
:1003C00002C01A82198289819A8122960FB6F89406
:1003D000DEBF0FBECDBFDF91CF910895CF93DF93E6
:1003E000CDB7DEB722970FB6F894DEBF0FBECDBFF4
:1003F0001A82198214C089819A81880F991F9C01E1
:10040000220F331F220F331F820F931FFC01E95F5E
:10041000FB4F108289819A8101969A838983898111
:100420009A81883091053CF322960FB6F894DEBF8E
:100430000FBECDBFDF91CF910895CF93DF93CDB79E
:10044000DEB722970FB6F894DEBF0FBECDBF1A827B
:10045000198216C089819A81880F991F9C01220FE9
:10046000331F220F331F820F931FFC01E95FFB4FE5
:100470008081882351F089819A8101969A838983AA
:1004800089819A81883091052CF389819A81880F1E
:10049000991F9C01220F331F220F331F820F931FBE
:1004A000FC01E95FFB4F81E0808389819A8149816A
:1004B000880F991F9C01220F331F220F331F820FB9
:1004C000931FFC01E85FFB4F408369817A8149817A
:1004D0005A81CA01880F991F9C01220F331F220FD6
:1004E000331F820F931FFC01E65FFB4F1082CA018E
:1004F000880F991F9C01220F331F220F331F820F79
:10050000931FFC01E65FFB4F4081CB01880F991FD1
:100510009C01220F331F220F331F820F931FFC01F8
:10052000E75FFB4F408389819A81880F991F9C0167
:10053000220F331F220F331F820F931FFC01E35F33
:10054000FB4F8FEF9FEFAFEFBFEF80839183A283CD
:10055000B38389819A8122960FB6F894DEBF0FBECD
:10056000CDBFDF91CF910895CF93DF93CDB7DEB7A5
:1005700022970FB6F894DEBF0FBECDBF9A83898352
:1005800089819A81880F991F9C01220F331F220FA6
:10059000331F820F931FFC01E95FFB4F10822296ED
:1005A0000FB6F894DEBF0FBECDBFDF91CF91089597
:1005B000CF93DF93CDB7DEB764970FB6F894DEBF65
:1005C0000FBECDBF988B8F877A8B698BCE010D962E
:1005D0002F853889BC01C9010E9482189C878B87AE
:1005E00089899A890E94C90F9A87898789859A85FE
:1005F000009719F41C8A1B8A6FC08B859C852FEF8E
:100600008F3F920719F41C8A1B8A66C08D859E85D0
:100610000097D1F589859A858230910591F58F856E
:1006200098890E94730F9C838B838B859C852B817B
:100630003C81BC01C9010E941518992798878F83B6
:100640000E941D029E838D8389859A852D813E811E
:10065000EF81F885AC01B901CF010E94E4198D81C9
:100660009E819C01220F331FC901880F991F880F9B
:10067000991F820F931F9C01295F3B4F3C8B2B8B53
:100680002BC01C8A1B8A28C08D859E8582309105CF
:1006900019F01C8A1B8A20C00E941D029A8389833C
:1006A00089859A8529813A81EB85FC85AC01B90160
:1006B000CF010E94E41989819A819C01220F331F86
:1006C000C901880F991F880F991F820F931F9C01E2
:1006D000295F3B4F3C8B2B8B8B899C8964960FB693
:1006E000F894DEBF0FBECDBFDF91CF910895CF93B9
:1006F000DF93CDB7DEB722970FB6F894DEBF0FBEFB
:10070000CDBF9A838983E981FA81818199270E94EB
:10071000B4021A82198222960FB6F894DEBF0FBE79
:10072000CDBFDF91CF910895CF93DF93CDB7DEB7E3
:100730002C970FB6F894DEBF0FBECDBF9C838B8382
:100740004D835E836F8378873A87298789859A8569
:10075000009711F5EB81FC81848195819C014427F0
:1007600055278D819E81AF81B885281739074A07A3
:100770005B072CF48FEF9FEF9C878B879EC0EB81EC
:10078000FC818D819E81AF81B88586839783A08708
:10079000B1871C861B8691C0EB81FC818681978185
:1007A000A085B1859A83898389859A858130910551
:1007B000A1F4EB81FC8126813781408551858D81B3
:1007C0009E81AF81B885820F931FA41FB51FEB8157
:1007D000FC8186839783A087B187EB81FC8186812A
:1007E0009781A085B185BB238CF0EB81FC812681AC
:1007F000378140855185EB81FC8184819581AA27D1
:10080000BB2782179307A407B5078CF489819A81C7
:10081000AA2797FDA095BA2FEB81FC818683978349
:10082000A087B1878FEF9FEF9C878B8746C0898514
:100830009A8582309105A9F4EB81FC8184819581B0
:100840009C01442755278D819E81AF81B885820FF9
:10085000931FA41FB51FEB81FC8186839783A0871C
:10086000B187EB81FC8186819781A085B185BB230F
:100870008CF0EB81FC812681378140855185EB81AD
:10088000FC8184819581AA27BB2782179307A4073F
:10089000B5078CF489819A81AA2797FDA095BA2F74
:1008A000EB81FC8186839783A087B1878FEF9FEFD1
:1008B0009C878B8702C01C861B868B859C852C960B
:1008C0000FB6F894DEBF0FBECDBFDF91CF91089574
:1008D000CF93DF93CDB7DEB728970FB6F894DEBF7E
:1008E0000FBECDBF9E838D83CE0103962D813E81A9
:1008F000BC01C9010E9482189A83898389819A81E7
:100900002FEF8F3F920721F08B819C81009729F474
:100910008FEF9FEF98878F8304C089819A81988792
:100920008F838F81988528960FB6F894DEBF0FBE0F
:10093000CDBFDF91CF910895CF93DF93CDB7DEB7D1
:1009400028970FB6F894DEBF0FBECDBF9E838D8370
:10095000CE0103962D813E81BC01C9010E948218FF
:100960009A83898389819A812FEF8F3F920729F497
:100970008FEF9FEF98878F8316C08B819C810097A4
:1009800071F48D819E810E94730F9C0189819A81EF
:10099000BC01C9010E94CD1718861F8204C08FEFC9
:1009A0009FEF98878F838F81988528960FB6F8944C
:1009B000DEBF0FBECDBFDF91CF910895CF93DF9300
:1009C000CDB7DEB726970FB6F894DEBF0FBECDBF0A
:1009D0009C838B838B819C810E9468049A8389838A
:1009E00089819A812FEF8F3F920729F48FEF9FEF34
:1009F0009E838D8306C089819A810E9461121E8226
:100A00001D828D819E8126960FB6F894DEBF0FBEA3
:100A1000CDBFDF91CF910895CF93DF93CDB7DEB7F0
:100A20000E94A01FDF91CF910895CF93DF93CDB7A0
:100A3000DEB70E947D1DDF91CF910895CF93DF93A4
:100A4000CDB7DEB722970FB6F894DEBF0FBECDBF8D
:100A50001A82198210C089819A810E94201018166A
:100A6000190624F489819A810E949D1189819A81B5
:100A700001969A83898389819A81813691055CF3F5
:100A800022960FB6F894DEBF0FBECDBFDF91CF9197
:100A90000895CF93DF93CDB7DEB76B970FB6F89479
:100AA000DEBF0FBECDBF9F878E87798B688B5B8B38
:100AB0004A8BEE85FF8526813781408551858A895D
:100AC0009B89AA2797FDA095BA2F280F391F4A1F87
:100AD0005B1FEE85FF8584819581AA27BB2782173E
:100AE0009307A407B5072CF42FEF3FEF3D8B2C8B1A
:100AF00061C1EE85FF8586819781A085B18520E063
:100B000038E040E050E0BC01CD010E946596DA017A
:100B1000C9019D878C87EE85FF85268137814085B9
:100B200051858A899B89AA2797FDA095BA2F820FA4
:100B3000931FA41FB51F0197A109B10920E038E058
:100B400040E050E0BC01CD010E946596DA01C90188
:100B50009B878A872C853D858A859B852817390741
:100B600009F055C0EE85FF8586819781A085B18506
:100B700020E038E040E050E0BC01CD010E946596E5
:100B8000DC01CB019C838B838B819C8120E031E055
:100B9000B9010E9430969A8389838B819C819F8BB7
:100BA0008E8B4E895F89552334F48E899F898150BD
:100BB0009F4F9F8B8E8B2E893F89832F992787FD8F
:100BC0009A959E838D839C85EE85FF858281692F12
:100BD0000E94C41A8987898599279C01220F331F97
:100BE000220F331F220F331F8D819E81820F931F8F
:100BF00008979E838D8369818A899B894889598951
:100C0000ED81FE819C01CF010E94867ED1C0EE85E0
:100C1000FF8586819781A085B18520E038E040E09E
:100C200050E0BC01CD010E946596DC01CB019C83A4
:100C30008B838B819C8120E031E0B9010E9430964A
:100C40009A8389838B819C81998F888F488D598D58
:100C5000552334F4888D998D81509F4F998F888FBB
:100C6000288D398D832F992787FD9A959E838D83B3
:100C70009C85EE85FF858281692F0E94C41A898731
:100C8000898599279C01220F331F220F331F220FC2
:100C9000331F8D819E81820F931F08979E838D83C2
:100CA00020E031E089819A81A901481B590BCA01D2
:100CB00098878F8369818F81988548895989ED81CB
:100CC000FE819C01CF010E94867E288939898F810F
:100CD0009885820F931F998B888BEE85FF852681DF
:100CE0003781408551858A899B89AA2797FDA095E0
:100CF000BA2F820F931FA41FB51F0197A109B10935
:100D000020E038E040E050E0BC01CD010E94659653
:100D1000DC01CB019C838B838B819C8120E031E0C3
:100D2000B9010E9430969A8389838B819C819B8F25
:100D30008A8F8A8D9B8D992334F42A8D3B8D215087
:100D40003F4F3B8F2A8F4A8D5B8D852F992787FDDB
:100D50009A959E838D839A85EE85FF858281692F82
:100D60000E94C41A8987898599279C01220F331F05
:100D7000220F331F220F331F8D819E81820F931FFD
:100D800008979E838D832A893B898F819885A90145
:100D9000481B590BCA0198878F838F819885488992
:100DA0005989ED81FE819C0160E0CF010E94867E21
:100DB0001D8A1C8A8C899D896B960FB6F894DEBFBC
:100DC0000FBECDBFDF91CF910895CF93DF93CDB705
:100DD000DEB76B970FB6F894DEBF0FBECDBF998B11
:100DE000888B7B8B6A8B5D8B4C8BE889F98926819C
:100DF0003781408551858C899D89AA2797FDA095CB
:100E0000BA2F280F391F4A1F5B1FE889F98984818F
:100E10009581AA27BB2782179307A407B5070CF073
:100E200084C0E889F98984819581892F99278695DD
:100E300086958695880F991F880F991F880F991F8F
:100E4000880F991F880F991F880F991F880F991F66
:100E5000880F991F880F991F880F991F880F991F56
:100E60009A838983E889F9898481958197700097AD
:100E700031F089819A818050984F9A838983E889DB
:100E8000F98926813781408551858C899D89AA27DA
:100E900097FDA095BA2F280F391F4A1F5B1F898124
:100EA0009A81AA27BB2782179307A407B50734F4B2
:100EB000E889F989828199270E94F41AE889F989D9
:100EC00026813781408551858C899D89AA2797FD88
:100ED000A095BA2F280F391F4A1F5B1FE889F9898F
:100EE00084819581AA27BB2782179307A407B5079A
:100EF000E4F4E889F98986819781A085B1859C0110
:100F00008C899D89820F931FE889F9899583848351
:100F1000E889F98924813581E889F98982819927CD
:100F2000A9016DE170E00E94980DE889F989868138
:100F30009781A085B18520E038E040E050E0BC0119
:100F4000CD010E946596DA01C9019F878E87E889E5
:100F5000F98926813781408551858C899D89AA2709
:100F600097FDA095BA2F820F931FA41FB51F01975D
:100F7000A109B10920E038E040E050E0BC01CD011A
:100F80000E946596DA01C9019D878C872E853F8571
:100F90008C859D852817390709F055C0E889F9899E
:100FA00086819781A085B18520E038E040E050E05F
:100FB000BC01CD010E946596DC01CB019E838D832F
:100FC0008D819E8120E031E0B9010E9430969C83A2
:100FD0008B838D819E819F8B8E8B2E893F893323BE
:100FE00034F44E895F8941505F4F5F8B4E8B2E8961
:100FF0003F89832F992787FD9A9598878F839E85B0
:10100000E889F9898281692F0E94C41A8B878B85B0
:1010100099279C01220F331F220F331F220F331FEA
:101020008F819885820F931F089798878F836B8194
:101030008C899D894A895B89EF81F8859C01CF0164
:101040000E94AB7ED1C0E889F98986819781A0850D
:10105000B18520E038E040E050E0BC01CD010E94C5
:101060006596DC01CB019E838D838D819E8120E07E
:1010700031E0B9010E9430969C838B838D819E81E3
:10108000998F888F488D598D552334F4888D998D8B
:1010900081509F4F998F888F288D398D832F992765
:1010A00087FD9A9598878F839E85E889F989828143
:1010B000692F0E94C41A8B878B8599279C01220F68
:1010C000331F220F331F220F331F8F819885820F0A
:1010D000931F089798878F8320E031E08B819C8154
:1010E000A901481B590BCA019A8789876B81898599
:1010F0009A854A895B89EF81F8859C01CF010E941E
:10110000AB7E2A893B8989859A85820F931F9B8BA9
:101110008A8BE889F98926813781408551858C89B8
:101120009D89AA2797FDA095BA2F820F931FA41F10
:10113000B51F0197A109B10920E038E040E050E077
:10114000BC01CD010E946596DC01CB019E838D839D
:101150008D819E8120E031E0B9010E9430969C8310
:101160008B838D819E819B8F8A8F8A8D9B8D992306
:1011700034F42A8D3B8D21503F4F3B8F2A8F4A8D6F
:101180005B8D852F992787FD9A9598878F839C85FE
:10119000E889F9898281692F0E94C41A8B878B851F
:1011A00099279C01220F331F220F331F220F331F59
:1011B0008F819885820F931F089798878F832C893A
:1011C0003D8989859A85A901481B590BCA019A87CF
:1011D000898789859A854A895B89EF81F8859C0191
:1011E00060E0CF010E94AB7E80E090E06B960FB68E
:1011F000F894DEBF0FBECDBFDF91CF910895CF939E
:10120000DF93CDB7DEB762970FB6F894DEBF0FBE9F
:10121000CDBF988B8F877A8B698B89899A890E9439
:10122000730F9D838C8389899A890E94C58D9C0147
:1012300089899A89820F931F9B838A838A819B81E4
:10124000282F8C819D81922F981B892F8983CE0115
:101250000B962F853889BC01C9010E9482189A8794
:10126000898789859A856FE170E00E94280C8E83BA
:101270008985682F8E810E948E1BCE010D9629894B
:101280003A89BC01C9010E94821898878F832F81F7
:1012900089859A85422F6FE170E00E943C0D89811B
:1012A000482F55278C819D81E985FA859C0160E056
:1012B00070E0CF010E94A10E8981992729853A8586
:1012C00040E0BC01C9010E943C0D89859F81682FC7
:1012D000892F0E94571B80E090E062960FB6F89429
:1012E000DEBF0FBECDBFDF91CF910895CF93DF93C7
:1012F000CDB7DEB766970FB6F894DEBF0FBECDBF91
:101300009C8B8B8B7E8B6D8B8D899E890E94730F3E
:10131000998788878D899E890E94C58D9C018D89BA
:101320009E89820F931F9F838E838E819F81282F9A
:1013300088859985922F981B892F8B83CE010F96D4
:101340002B893C89BC01C9010E9482189E878D8728
:10135000CE0141962D893E89BC01C9010E948218A7
:101360009C878B870E94FA1E9D838C838C819D8134
:101370002D853E85BC01C9010E94B8148B81482F80
:10138000552788859985EC81FD819C0160E070E09E
:10139000CF010E94A10E8B8199272C813D8140E0D5
:1013A000BC01C9010E943C0D2B858C819D81422F7F
:1013B0006FE170E00E943C0D8C819B85682F892F26
:1013C0000E94571B1A8625C08A8599270E962D855F
:1013D0003E85BC01C9010E94280C8A838A8188232A
:1013E000A9F00E94BE1C89838A8599270E962C81BC
:1013F0003D814981BC01C9010E943C0D8981282F92
:1014000033278A819927B9010E94EE148A858F5F5C
:101410008A878A858830C0F280E090E066960FB6B1
:10142000F894DEBF0FBECDBFDF91CF910895CF936B
:10143000DF93CDB7DEB726970FB6F894DEBF0FBEA9
:10144000CDBF9E838D83CE0103962D813E81BC014D
:10145000C9010E9482189A83898389819A810E9496
:101460007A1726960FB6F894DEBF0FBECDBFDF9178
:10147000CF910895CF93DF93CDB7DEB76B970FB6BB
:10148000F894DEBF0FBECDBF998F888F7B8F6A8F98
:101490008A8D9B8D9C01888D998D820F931F01975A
:1014A00098878F83EF81F88510828F8198850197C7
:1014B00098878F830E946F179A87898789859A8575
:1014C0009E01255F3F4FBC01C9010E943316CE012A
:1014D0000B960E94C58D9E838D834D818D819E814B
:1014E0009C018F819885BC01621B730B9B01CE010F
:1014F0000B96BC01C9010E94088CEF81F8858FE230
:1015000080838D819E819C018F819885821B930BA6
:10151000019798878F8389859A856FE170E00E9493
:10152000280C99279A87898789859A85009709F0D9
:10153000C5CFEF81F8858FE280838A8D9B8D9C01DA
:10154000888D998D820F931F9C018F819885A901A9
:10155000481B590BCA0101979E838D83888D998DF5
:101560009A8389831C821B8215C0EF81F885808154
:10157000E981FA81808389819A8101969A8389839E
:101580008F819885019698878F838B819C810196A6
:101590009C838B832B813C818D819E812817390709
:1015A00024F389819A8101979A838983E981FA8159
:1015B00010826B960FB6F894DEBF0FBECDBFDF91E1
:1015C000CF9108950F931F93CF93DF93CDB7DEB7DD
:1015D00024970FB6F894DEBF0FBECDBF9A838983E0
:1015E0007C836B8389819A81EB81FC819C014CE037
:1015F00050E060E070E0CF010E946A0E89819A811C
:101600008C01045F1F4F8B819C816CE070E00E9415
:10161000280CF801808389819A818C01035F1F4F18
:101620008B819C816DE170E00E94280CF801808321
:1016300089819A818C01025F1F4F8B819C816EE1B1
:1016400070E00E94280CF801808324960FB6F8946D
:10165000DEBF0FBECDBFDF91CF911F910F910895D7
:10166000CF93DF93CDB7DEB729970FB6F894DEBFDF
:101670000FBECDBF9D838C837F836E835987488740
:101680008C819D819A838983EE81FF81108281E024
:101690008B831FC088859985BC018B810E943A1578
:1016A0008130910599F4EE81FF81808199279C0119
:1016B00089819A81F901E80FF91F8B818083EE817E
:1016C000FF8180818F5FEE81FF8180838B818F5FBF
:1016D0008B838B818136F0F229960FB6F894DEBFAA
:1016E0000FBECDBFDF91CF910895CF93DF93CDB7DC
:1016F000DEB70E942912DF91CF910895CF93DF9337
:10170000CDB7DEB76D970FB6F894DEBF0FBECDBF75
:10171000998F888F7B8F6A8F5D8F4C8F8A8D9B8D81
:101720009C01888D998D820F931F019798878F83D5
:10173000EF81F88510828F819885019798878F8334
:101740008C8D9D8D9A87898789859A859E01255FD5
:101750003F4FBC01C9010E943316CE010B960E9477
:10176000C58D9E838D834D818D819E819C018F814E
:101770009885BC01621B730B9B01CE010B96BC01CB
:10178000C9010E94088CEF81F8858FE280838D81EA
:101790009E819C018F819885821B930B019798876E
:1017A0008F8389859A856FE170E00E94280C9927C4
:1017B0009A87898789859A85009709F0C5CFEF8137
:1017C000F8858FE280838A8D9B8D9C01888D998D11
:1017D000820F931F9C018F819885A901481B590B8B
:1017E000CA0101979E838D83888D998D9A83898301
:1017F0001C821B8215C0EF81F8858081E981FA8106
:10180000808389819A8101969A8389838F819885C3
:10181000019698878F838B819C8101969C838B8313
:101820002B813C818D819E812817390724F3898182
:101830009A8101979A838983E981FA8110826D9652
:101840000FB6F894DEBF0FBECDBFDF91CF910895E4
:10185000CF93DF93CDB7DEB726970FB6F894DEBFF0
:101860000FBECDBF9C838B837E836D838B819C81D8
:101870009C01220F331F22953295307F3227207F23
:1018800032278D819E81820F931F9A83898389815C
:101890009A810E94AB66992726960FB6F894DEBF10
:1018A0000FBECDBFDF91CF910895CF93DF93CDB71A
:1018B000DEB726970FB6F894DEBF0FBECDBF9C8370
:1018C0008B837E836D838B819C819C01220F331FD0
:1018D00022953295307F3227207F32278D819E815D
:1018E000820F931F9A83898389819A810E94C5669A
:1018F000992787FD909526960FB6F894DEBF0FBE08
:10190000CDBFDF91CF910895CF93DF93CDB7DEB7F1
:1019100026970FB6F894DEBF0FBECDBF9C838B8396
:101920007E836D838B819C819C01220F331F2295C6
:101930003295307F3227207F32278D819E81820F22
:10194000931F9A83898389819A810E94E1662696F2
:101950000FB6F894DEBF0FBECDBFDF91CF910895D3
:10196000CF93DF93CDB7DEB726970FB6F894DEBFDF
:101970000FBECDBF9C838B837E836D838B819C81C7
:101980009C01220F331F22953295307F3227207F12
:1019900032278D819E81820F931F9A83898389814B
:1019A0009A810E94FA6626960FB6F894DEBF0FBEA3
:1019B000CDBFDF91CF910895CF93DF93CDB7DEB741
:1019C00026970FB6F894DEBF0FBECDBF9C838B83E6
:1019D0007E836D838B819C819C01220F331F229516
:1019E0003295307F3227207F32278D819E81820F72
:1019F000931F9A83898389819A810E941367DC01EE
:101A0000CB01BC01CD0126960FB6F894DEBF0FBE08
:101A1000CDBFDF91CF910895CF93DF93CDB7DEB7E0
:101A200026970FB6F894DEBF0FBECDBF9C838B8385
:101A30007E836D838B819C819C01220F331F2295B5
:101A40003295307F3227207F32278D819E81820F11
:101A5000931F9A83898389819A810E943067DC0170
:101A6000CB01BC01CD0126960FB6F894DEBF0FBEA8
:101A7000CDBFDF91CF910895CF93DF93CDB7DEB780
:101A800027970FB6F894DEBF0FBECDBF9C838B8324
:101A90007E836D834F838B819C819C01220F331F3A
:101AA00022953295307F3227207F32278D819E818B
:101AB000820F931F9A83898389819A816F810E9403
:101AC0004D6727960FB6F894DEBF0FBECDBFDF91EE
:101AD000CF910895CF93DF93CDB7DEB727970FB699
:101AE000F894DEBF0FBECDBF9C838B837E836D8356
:101AF0004F838B819C819C01220F331F229532954D
:101B0000307F3227207F32278D819E81820F931F65
:101B10009A83898389819A816F810E946867279659
:101B20000FB6F894DEBF0FBECDBFDF91CF91089501
:101B3000CF93DF93CDB7DEB728970FB6F894DEBF0B
:101B40000FBECDBF9C838B837E836D8358874F836D
:101B50008B819C819C01220F331F22953295307F0F
:101B60003227207F32278D819E81820F931F9A8397
:101B700089838F81988529813A81BC01C9010E949E
:101B8000836728960FB6F894DEBF0FBECDBFDF91F6
:101B9000CF910895CF93DF93CDB7DEB728970FB6D7
:101BA000F894DEBF0FBECDBF9C838B837E836D8395
:101BB00058874F838B819C819C01220F331F229574
:101BC0003295307F3227207F32278D819E81820F90
:101BD000931F9A8389838F81988529813A81BC01DB
:101BE000C9010E94A26728960FB6F894DEBF0FBE07
:101BF000CDBFDF91CF910895CF93DF93CDB7DEB7FF
:101C00002A970FB6F894DEBF0FBECDBF9C838B839F
:101C10007E836D832F83388749875A878B819C8188
:101C20009C01220F331F22953295307F3227207F6F
:101C300032278D819E81820F931F9A8389838F81A2
:101C40009885A985BA8529813A81AC01BD01C90170
:101C50000E94C1672A960FB6F894DEBF0FBECDBFB3
:101C6000DF91CF910895CF93DF93CDB7DEB72A9759
:101C70000FB6F894DEBF0FBECDBF9C838B837E83EF
:101C80006D832F83388749875A878B819C819C017C
:101C9000220F331F22953295307F3227207F322743
:101CA0008D819E81820F931F9A8389838F8198856E
:101CB000A985BA8529813A81AC01BD01C9010E947B
:101CC000C1672A960FB6F894DEBF0FBECDBFDF9175
:101CD000CF910895CF93DF93CDB7DEB72A970FB694
:101CE000F894DEBF0FBECDBF9C838B837E836D8354
:101CF00058874F833A8729878B819C819C01220FCB
:101D0000331F22953295307F3227207F32278D81F5
:101D10009E81820F931F9A83898389859A852F815B
:101D20003885E981FA81AC01B901CF010E94426690
:101D30002A960FB6F894DEBF0FBECDBFDF91CF91CC
:101D40000895CF93DF93CDB7DEB72A970FB6F894F7
:101D5000DEBF0FBECDBF9C838B837E836D83588790
:101D60004F833A8729878B819C819C01220F331FE7
:101D700022953295307F3227207F32278D819E81B8
:101D8000820F931F9A83898389859A852F8138854D
:101D9000E981FA81AC01B901CF010E9466662A96F9
:101DA0000FB6F894DEBF0FBECDBFDF91CF9108957F
:101DB000CF93DF93CDB7DEB729970FB6F894DEBF88
:101DC0000FBECDBF9C838B837E836D8358874F83EB
:101DD00029878B819C819C01220F331F229532958C
:101DE000307F3227207F32278D819E81820F931F83
:101DF0009A8389838F81988529813A814985BC019D
:101E0000C9010E948A6629960FB6F894DEBF0FBEFC
:101E1000CDBFDF91CF910895CF93DF93CDB7DEB7DC
:101E200028970FB6F894DEBF0FBECDBF9E838D837B
:101E300078876F838F8198859A8389838D819E812E
:101E40009C838B83EB81FC8180818F32B1F48B8109
:101E50009C8101969C838B8310C0EB81FC818081E7
:101E6000E981FA81808389819A8101969A838983A5
:101E70008B819C8101969C838B83EB81FC8180818B
:101E800081362CF0EB81FC8180818B3734F3EB8140
:101E9000FC81808181342CF0EB81FC8180818B3549
:101EA000E4F2EB81FC8180818F35B9F2EB81FC811A
:101EB00080818E3291F2EB81FC81808180332CF025
:101EC000EB81FC8180818A3344F2E981FA811082BE
:101ED0008B819C8128960FB6F894DEBF0FBECDBFD4
:101EE000DF91CF910895CF93DF93CDB7DEB72A97D7
:101EF0000FB6F894DEBF0FBECDBF98878F838F815A
:101F000098850E94C58D9A83898329813A818F8122
:101F10009885820F931F01979E838D838F8198856B
:101F20009C838B8305C08D819E8101979E838D83C9
:101F3000ED81FE8180818F3239F02D813E818B8150
:101F40009C812817390779F72D813E818B819C81EF
:101F50002817390751F4EB81FC8180818F3229F0F9
:101F60008D819E819A87898709C08D819E81019686
:101F70009E838D838D819E819A87898789859A85A5
:101F80002A960FB6F894DEBF0FBECDBFDF91CF917A
:101F90000895CF93DF93CDB7DEB724970FB6F894AB
:101FA000DEBF0FBECDBF9A83898389819A810E944B
:101FB000C58D8130910559F5E981FA81808182379B
:101FC00029F481E090E09C838B832FC0E981FA8122
:101FD0008081873729F482E090E09C838B8325C041
:101FE000E981FA818081813629F483E090E09C8345
:101FF0008B831BC0E981FA818081843729F484E0D6
:1020000090E09C838B8311C01C821B820EC089814F
:102010009A810E94C58D8230910529F485E090E077
:102020009C838B8302C01C821B828B819C812496A3
:102030000FB6F894DEBF0FBECDBFDF91CF910895EC
:10204000CF93DF93CDB7DEB726970FB6F894DEBFF8
:102050000FBECDBF9C838B838B819C816DE070E034
:102060000E94280C8A838B819C816CE070E00E9426
:10207000280C89838A81882319F41E821D8205C059
:102080008981282F33273E832D838D819E8126963B
:102090000FB6F894DEBF0FBECDBFDF91CF9108958C
:1020A0000F93CF93DF93CDB7DEB72B970FB6F8948E
:1020B000DEBF0FBECDBF9E838D8378876F83498738
:1020C0002A870B878F8198850E94C58D8C838C8190
:1020D0008C3018F48C818F5F8C838B858130D9F59F
:1020E0008C81482F55278F819885ED81FE819C0139
:1020F00060E070E0CF010E94A10E8D819E814B8532
:102100006CE070E00E943C0D8D819E8141E06DE0AD
:1021100070E00E943C0D8D819E8120E04EE050E0F9
:102120006EE070E00E94D80E8D819E8149856CE141
:1021300070E00E943C0D8D819E8140E050E06DE199
:1021400070E00E94980D8D819E814A856FE170E05C
:102150000E943C0DB9C08B858230D9F58C81482F07
:1021600055278F819885ED81FE819C0160E070E0AC
:10217000CF010E94A10E8D819E814B856CE070E0A5
:102180000E943C0D8D819E8141E06DE070E00E94D7
:102190003C0D8D819E8120E04EE050E06EE070E0CD
:1021A0000E94D80E8D819E8149856CE170E00E946D
:1021B0003C0D8D819E8140E050E06DE170E00E9419
:1021C000980D8D819E814A856FE170E00E943C0DE3
:1021D0007BC08B858330D9F58C81482F55278F8123
:1021E0009885ED81FE819C0160E070E0CF010E9446
:1021F000A10E8D819E814B856CE070E00E943C0DAC
:102200008D819E8141E06DE070E00E943C0D8D81EA
:102210009E8120E04EE050E06EE070E00E94D80E1B
:102220008D819E8149856CE170E00E943C0D8D811D
:102230009E8140E050E06DE170E00E94980D8D813C
:102240009E814A856FE170E00E943C0D3DC08B8508
:102250008430D1F58C81482F55278F819885ED8169
:10226000FE819C0160E070E0CF010E94A10E8D8193
:102270009E814B856CE070E00E943C0D8D819E81BB
:1022800041E06DE070E00E943C0D8D819E8120E078
:102290004EE050E06EE070E00E94D80E8D819E818D
:1022A00049856CE170E00E943C0D8D819E8140E08B
:1022B00050E06DE170E00E94980D8D819E814A850D
:1022C0006FE170E00E943C0D8D819E81009721F4AA
:1022D0008A85882309F427C01B821A821FC08A813D
:1022E0009B819C01225F3F4F8A859927B9010E94FB
:1022F000280C89838981882361F44D818A819B819F
:102300009C01225F3F4F8A859927B9010E943C0DAD
:102310000AC08A819B8101969B838A838A819B81E3
:102320008A309105E4F22B960FB6F894DEBF0FBE0B
:10233000CDBFDF91CF910F9108950F931F93CF934E
:10234000DF93CDB7DEB7A7970FB6F894DEBF0FBE09
:10235000CDBF9FA38EA31B8ACE010796EEA1FFA13E
:102360009C014CE050E060E070E0CF010E946A0EFA
:102370008EA19FA16CE070E00E94280C8C838EA13E
:102380009FA16DE070E00E94280C8B838B818823D5
:1023900011F18C818130F9F41A82198217C00981F8
:1023A0001A8189819A810E962EA13FA1BC01C90193
:1023B0000E94280C282FCE014496FC01E00FF11F4B
:1023C000208389819A8101969A83898389819A8160
:1023D0008A30910524F38B81882311F18C8182301E
:1023E000F9F41A82198217C009811A8189819A81A8
:1023F0000E962EA13FA1BC01C9010E94280C282FD6
:10240000CE014E96FC01E00FF11F208389819A8155
:1024100001969A83898389819A818830910524F372
:102420008EA19FA16CE170E00E94280C8E838EA18A
:102430009FA16FE170E00E94280C8D83A7960FB6D4
:10244000F894DEBF0FBECDBFDF91CF911F910F91EA
:102450000895CF93DF93CDB7DEB722970FB6F894E8
:10246000DEBF0FBECDBF1A8219820EC089819A814C
:1024700020E040E250E060E070E00E94D80E8981E8
:102480009A8101969A83898389819A8181369105FF
:102490006CF30E94981C0E94D41E22960FB6F894EA
:1024A000DEBF0FBECDBFDF91CF910895CF93DF93F5
:1024B000CDB7DEB70E94981C0E94D41EDF91CF9149
:1024C0000895CF93DF93CDB7DEB762970FB6F89438
:1024D000DEBF0FBECDBF9A8B898B89899A896CE04C
:1024E00070E00E94280C888B89899A896FE170E0DE
:1024F0000E94280C8F878889813009F050C01E8681
:1025000014C08E8599270E9629893A89BC01C90184
:102510000E94280C8D878D85882321F08D85992731
:102520000E9461128E858F5F8E878E858A3048F378
:1025300089899A8940E06DE070E00E943C0D8989AC
:102540009A89009721F48F85882309F42DC11C8670
:1025500022C08C8599279C01225F3F4F8F85992748
:10256000B9010E94280C8B878B85282F33278989F6
:102570009A892817390761F48C8599279C01225F75
:102580003F4F8F85992740E0B9010E943C0D0CC157
:102590008C858F5F8C878C858A30D8F205C18889BD
:1025A000823009F084C089899A8940E06DE070E04A
:1025B0000E943C0D89899A89009721F48F85882390
:1025C00009F42BC01A8626C08A85992787FD909525
:1025D0009C01225F3F4F8F859927B9010E94280CEB
:1025E00088878885282F332789899A89281739076A
:1025F00071F48A85992787FD90959C01225F3F4F52
:102600008F85992740E0B9010E943C0D06C08A855C
:102610008F5F8A878A858A30BCF21A8616C08A85BF
:10262000992787FD90950E9629893A89BC01C901A1
:102630000E94280C89878985882351F089859927EC
:102640000E945D1D8A858F5F8A878A8588303CF36A
:1026500089898F8300C08F81992768E170E00E948B
:10266000280C8F838F81882309F49EC08F8199273E
:102670000E94801F1A8617C08A85992787FD90952A
:102680009C01225F3F4F8F819927B9010E94280C3E
:10269000898789858823F9F2898599270E945D1D9C
:1026A0008A858F5F8A878A85883034F3D4CF88897A
:1026B0008330E1F589899A8940E06DE070E00E94FD
:1026C0003C0D89899A89009721F48F85882309F424
:1026D0006BC01E821D8224C08D819E819C01225F61
:1026E0003F4F8F859927B9010E94280C8C838C81DC
:1026F000282F332789899A892817390761F48D8112
:102700009E819C01225F3F4F8F85992740E0B90150
:102710000E943C0D49C08D819E8101969E838D83D0
:102720008D819E818A309105BCF23EC088898430BB
:10273000D9F589899A8940E06DE070E00E943C0DEE
:1027400089899A89009721F48F85882309F42CC000
:102750001B821A8224C08A819B819C01225F3F4F89
:102760008F859927B9010E94280C89838981282F98
:10277000332789899A892817390761F48A819B81CF
:102780009C01225F3F4F8F85992740E0B9010E944D
:102790003C0D0AC08A819B8101969B838A838A8132
:1027A0009B818A309105BCF289899A890E94801F99
:1027B00062960FB6F894DEBF0FBECDBFDF91CF910A
:1027C00008950F93CF93DF93CDB7DEB780E091E00C
:1027D00001E020E040E0BC0180E090E00E94501069
:1027E000DF91CF910F9108950F931F93CF93DF93B4
:1027F000CDB7DEB725970FB6F894DEBF0FBECDBFBD
:102800000E94FA1E8D838D81E82FFF2785E091E0DD
:1028100001E020E040E0BC01CF010E9450100E9486
:10282000F2369C838B830E94FB369A83898389814D
:102830009A812B813C814EE951E569E071E08C0180
:102840008D810E945E1489819A812B813C8141E0B7
:1028500059E36DE071E08C018D810E945E148981E5
:102860009A812B813C814EE159E363E171E08C0157
:102870008D810E945E1489819A812B813C8145E77C
:1028800059E368E171E08C018D810E945E148981B9
:102890009A812B813C814BE359E36FE171E08C011C
:1028A0008D810E945E1425960FB6F894DEBF0FBE90
:1028B000CDBFDF91CF911F910F9108950F931F937B
:1028C000CF93DF93CDB7DEB72C970FB6F894DEBF6A
:1028D0000FBECDBF8C837E836D8358874F833A872D
:1028E00029871C870B870E94FA1E8B838B81E82F18
:1028F000FF278D819E8103E02C8140E0BC01CF0148
:102900000E9450108F8198859A8389838B81282F0C
:10291000332789819A81AC016EE070E0C9010E9481
:10292000980D89859A859A83898329813A818B813B
:102930009927A90160E170E00E94CA0D8B859C85F2
:102940009A8389838B81282F332789819A81AC01CF
:1029500062E170E0C9010E94980D2C960FB6F894C0
:10296000DEBF0FBECDBFDF91CF911F910F910895B4
:10297000CF93DF93CDB7DEB727970FB6F894DEBFBE
:102980000FBECDBF9D838C837F836E831B821A8293
:1029900017C08A819B812C813D81BC01C9010E94A5
:1029A000280C89838A819B812E813F814981BC01CA
:1029B000C9010E943C0D8A819B8101969B838A8379
:1029C0008A819B818032910524F327960FB6F89473
:1029D000DEBF0FBECDBFDF91CF910895CF93DF93C0
:1029E000CDB7DEB72A970FB6F894DEBF0FBECDBFC6
:1029F00098878F837A8769871E821D822DC08F8179
:102A000098859C01220F331F220F331F220F331F83
:102A10008D819E81820F931F08979C838B8389856C
:102A20009A859C01220F331F220F331F220F331F61
:102A30008D819E81820F931F08979A838983898154
:102A40009A812B813C81BC01C9010E94713C8D811E
:102A50009E8101969E838D838D819E818830910514
:102A600074F22A960FB6F894DEBF0FBECDBFDF9189
:102A7000CF910895CF93DF93CDB7DEB765970FB6AB
:102A8000F894DEBF0FBECDBF898B7B8B6A8B8989A3
:102A900099276DE070E00E94280C89838981882342
:102AA00019F41D8A1C8A31C08989E82FFF27CE01BD
:102AB00004969C014CE050E060E070E0CF010E9481
:102AC0006A0E188ACE0104960E94C58D8B831A82E5
:102AD00016C08A8199279C01CE010496820F931F0C
:102AE0002A893B89B9010E94228D009729F481E04F
:102AF00090E09D8B8C8B09C08A818F5F8A839A813D
:102B00008B81981730F31D8A1C8A8C899D89659664
:102B10000FB6F894DEBF0FBECDBFDF91CF91089501
:102B20001F93CF93DF93CDB7DEB72A970FB6F894F4
:102B3000DEBF0FBECDBF9E838D8378876F831A82E1
:102B400019828D819E810E94C58D8D3091052CF05A
:102B500081E090E09A87898742C08F8198850E94A2
:102B60002010009729F481E090E09A87898737C088
:102B70001A8219822DC08D819E819C838B838981CD
:102B80009A819C018B819C81820F931F9C838B83F4
:102B9000EB81FC818081182F89819A812F81388572
:102BA000BC01C9010E94280C181729F081E090E0AF
:102BB0009A87898714C0EB81FC818081882319F46E
:102BC0001A8619860CC089819A8101969A83898315
:102BD00089819A818C30910574F21A8619868985CB
:102BE0009A852A960FB6F894DEBF0FBECDBFDF914F
:102BF000CF911F910895CF93DF93CDB7DEB727977D
:102C00000FB6F894DEBF0FBECDBF9D838C831B82B1
:102C10001A8215C08A819B810E962C813D81BC0150
:102C2000C9010E94280C89838981882319F41F8295
:102C30001E820EC08A819B8101969B838A838A8132
:102C40009B818A30910534F381E090E09F838E83ED
:102C50008E819F8127960FB6F894DEBF0FBECDBF41
:102C6000DF91CF910895CF93DF93CDB7DEB728974B
:102C70000FB6F894DEBF0FBECDBF9E838D837887DD
:102C80006F838D819E819A8389831C821B821AC0E7
:102C90008B819C812F813885BC01C9010E94280C41
:102CA000E981FA818083E981FA818081882379F042
:102CB00089819A8101969A8389838B819C8101966F
:102CC0009C838B838B819C818C3091050CF3E981F3
:102CD000FA81108228960FB6F894DEBF0FBECDBFE2
:102CE000DF91CF910895CF93DF93CDB7DEB72997CA
:102CF0000FB6F894DEBF0FBECDBF9D838C837F835C
:102D00006E831B821A821FC08A819B810E962E8140
:102D10003F81BC01C9010E94280C898389819927C0
:102D20002C813D81BC01C9010E949015009731F4AE
:102D30008981282F3327398728870EC08A819B8174
:102D400001969B838A838A819B818A309105E4F274
:102D50008FEF9FEF998788878885998529960FB689
:102D6000F894DEBF0FBECDBFDF91CF910895CF9312
:102D7000DF93CDB7DEB723970FB6F894DEBF0FBE53
:102D8000CDBF9B838A838A819B816FE170E00E9423
:102D9000280C89838981992723960FB6F894DEBF82
:102DA0000FBECDBFDF91CF910895CF93DF93CDB705
:102DB000DEB72A970FB6F894DEBF0FBECDBF9E8355
:102DC0008D8378876F831C821B822AC08B819C81B4
:102DD0000E962F813885BC01C9010E94280C898379
:102DE000898199272D813E81BC01C9010E949015DE
:102DF000009789F4898199270E9420108A838A810B
:102E0000882349F08981882331F08A81282F33274C
:102E10003A8729870CC08B819C8101969C838B8388
:102E20008B819C818A3091058CF21A86198689855E
:102E30009A852A960FB6F894DEBF0FBECDBFDF91FC
:102E4000CF910895CF93DF93CDB7DEB72A970FB612
:102E5000F894DEBF0FBECDBF9E838D8378876F83CE
:102E60001C821B822AC08B819C810E962F81388503
:102E7000BC01C9010E94280C8983898199272D8171
:102E80003E81BC01C9010E949015009789F4898197
:102E900099270E9420108A838A81882349F089819A
:102EA000882331F08981282F33273A8729870CC05E
:102EB0008B819C8101969C838B838B819C818A3042
:102EC00091058CF21A86198689859A852A960FB6FD
:102ED000F894DEBF0FBECDBFDF91CF910895CF93A1
:102EE000DF93CDB7DEB78091660190916701DF91E6
:102EF000CF910895CF93DF93CDB7DEB722970FB66A
:102F0000F894DEBF0FBECDBF9A83898389819A81F1
:102F1000909367018093660122960FB6F894DEBF06
:102F20000FBECDBFDF91CF910895CF93DF93CDB783
:102F3000DEB727970FB6F894DEBF0FBECDBF9D83D7
:102F40008C831B821A8217C08A819B810E962C81EA
:102F50003D81BC01C9010E94280C89838981882395
:102F600029F081E090E09F838E830CC08A819B8151
:102F700001969B838A838A819B818A30910524F301
:102F80001F821E828E819F8127960FB6F894DEBF26
:102F90000FBECDBFDF91CF9108950F93CF93DF93F5
:102FA000CDB7DEB727970FB6F894DEBF0FBECDBF03
:102FB0009B838A837D836C838C819D812A813B8165
:102FC000BC01C9010E942217181619061CF41F82A1
:102FD0001E821FC08C819D810E94FB15813029F4C7
:102FE0002FEF30E03F832E8314C00E94FA1E8983A6
:102FF0002C818981E82FFF278A819B8101E040E0B5
:10300000BC01CF010E9450108981282F33273F83B4
:103010002E838E819F8127960FB6F894DEBF0FBE58
:10302000CDBFDF91CF910F9108950F93CF93DF9391
:10303000CDB7DEB727970FB6F894DEBF0FBECDBF72
:103040009B838A837D836C838C819D812A813B81D4
:10305000BC01C9010E942217181619061CF41F8210
:103060001E821FC08C819D810E94FB15813029F436
:103070002FEF30E03F832E8314C00E94FA1E898315
:103080002C818981E82FFF278A819B8102E040E023
:10309000BC01CF010E9450108981282F33273F8324
:1030A0002E838E819F8127960FB6F894DEBF0FBEC8
:1030B000CDBFDF91CF910F910895CF93DF93CDB71F
:1030C000DEB724970FB6F894DEBF0FBECDBF9A834C
:1030D000898389819A810E9420108130910529F489
:1030E00081E090E09C838B8302C01C821B828B81D9
:1030F0009C8124960FB6F894DEBF0FBECDBFDF9142
:10310000CF910895CF93DF93CDB7DEB76D970FB60C
:10311000F894DEBF0FBECDBF9F8B8E8B798F688FEB
:10312000EE89FF89808188878E899F89FC0131968D
:1031300080818F838E899F899E838D830E946F17E4
:103140009C838B8388858E3279F48F818E3261F4F3
:103150008B819C810E94B7169C838B838E899F896B
:1031600002969E838D838AC088858E3249F48F8132
:103170008F3231F48E899F8901969E838D837EC024
:1031800088858F3239F41C821B828E899F899E83A9
:103190008D8374C0888581361CF088858B3734F028
:1031A0008885813444F088858B352CF481E090E06B
:1031B0009D8F8C8F02C01D8E1C8E8C8D9D8D8130BD
:1031C000910509F05BC0CE0109962D813E81BC01BD
:1031D000C9010E940C0F9E838D838D819E81009773
:1031E00071F58B819C819E01275F3F4FBC01C90116
:1031F0000E94D5169A83898389819A81009749F420
:10320000E88DF98D118210828B819C819B8F8A8F32
:103210009DC0E88DF98D89819A81918380838B810E
:103220009C819E01275F3F4FBC01C9010E9473161C
:103230009A83898389819A819B8F8A8F87C08B81AA
:103240009C819E01275F3F4FBC01C9010E94D5169A
:103250009A83898389819A81009729F48FEF9FEF60
:103260009B8F8A8F73C08B819C819E01275F3F4F0C
:10327000BC01C9010E9473169C838B838B819C8146
:103280000E945D18009729F48FEF9FEF9B8F8A8F24
:103290005DC0CE0109962D813E81BC01C9010E940D
:1032A0000C0F9E838D83ED81FE818081882371F5D3
:1032B0008B819C819E01275F3F4FBC01C9010E9409
:1032C000D5169A83898389819A81009749F4E88D7C
:1032D000F98D118210828B819C819B8F8A8F36C0E1
:1032E000E88DF98D89819A81918380838B819C817E
:1032F0009E01275F3F4FBC01C9010E9473169A834C
:10330000898389819A819B8F8A8F20C08B819C8140
:103310009E01275F3F4FBC01C9010E94D5169A83C9
:10332000898389819A81009729F48FEF9FEF9B8F82
:103330008A8F0CC08B819C819E01275F3F4FBC010F
:10334000C9010E9473169C838B8398CF8A8D9B8DB5
:103350006D960FB6F894DEBF0FBECDBFDF91CF9153
:103360000895CF93DF93CDB7DEB725970FB6F894C6
:10337000DEBF0FBECDBF9D838C831B821A8216C019
:103380008A819B810E962C813D81BC01C9010E94DE
:10339000280C89838981882371F0898199270E946B
:1033A0005D1D8A819B8101969B838A838A819B8193
:1033B000883091052CF325960FB6F894DEBF0FBE2A
:1033C000CDBFDF91CF9108950F931F93CF93DF93DC
:1033D000CDB7DEB726970FB6F894DEBF0FBECDBFD0
:1033E0009A8389837C836B835E834D838B819C81ED
:1033F0004981880F991F9C01220F331F220F331F11
:10340000820F931FFC01E75FFB4F40838B819C8100
:103410004D81880F991F9C01220F331F220F331FEC
:10342000820F931FFC01E65FFB4F40830B811C81E1
:1034300089819A816DE170E00E94840CAC01C80121
:10344000880F991F9C01220F331F220F331F820FF9
:10345000931FFC01E55FFB4F518340838D819E816B
:103460008130910591F48B819C81880F991F9C017B
:10347000220F331F220F331F820F931FFC01E35FC4
:10348000FB4F10821182128213828D819E818230C5
:10349000910591F48B819C81880F991F9C01220FCB
:1034A000331F220F331F820F931FFC01E35FFB4F7B
:1034B00010821182128213828D819E818330910548
:1034C00031F5AB81BC818B819C81880F991F9C0158
:1034D000220F331F220F331F820F931FFC01E55F62
:1034E000FB4F80819181AC0166277727CD01880F42
:1034F000991F9C01220F331F220F331F820F931F2E
:10350000FC01E35FFB4F40835183628373838D81B2
:103510009E8184309105B1F489819A810E94B1190C
:103520008B819C81880F991F9C01220F331F220FD2
:10353000331F820F931FFC01E35FFB4F1082118248
:10354000128213828D819E818530910591F48B8149
:103550009C81880F991F9C01220F331F220F331F5C
:10356000820F931FFC01E35FFB4F108211821282D6
:10357000138226960FB6F894DEBF0FBECDBFDF9143
:10358000CF911F910F910895CF93DF93CDB7DEB701
:1035900023970FB6F894DEBF0FBECDBF8A836B832F
:1035A0008A8189830AC08981992768E170E00E9435
:1035B000280C89838B8188508B838B81883098F786
:1035C0008B8199279C01225F3F4F89819927B901FF
:1035D0000E94280C992723960FB6F894DEBF0FBEE1
:1035E000CDBFDF91CF910895CF93DF93CDB7DEB7F5
:1035F00027970FB6F894DEBF0FBECDBF9F838E8393
:103600008E818A831D8211C08D8199279C01225F42
:103610003F4F8A819927B9010E94280C8C838C81A5
:10362000882331F08D818F5F8D838D81883060F3A9
:103630008D81883078F40E94BE1C8C838D819927FF
:103640009C01225F3F4F8A8199274C81B9010E94DA
:103650003C0D24C08A81992768E170E00E94280C03
:103660008B838B818823B9F40E94FA1E89838A8117
:103670009927498168E170E00E943C0D89818A8325
:103680000E94BE1C8C838A8199274C816EE070E079
:103690000E943C0D03C08B818A83B4CF27960FB65E
:1036A000F894DEBF0FBECDBFDF91CF910895CF93C9
:1036B000DF93CDB7DEB724970FB6F894DEBF0FBE09
:1036C000CDBF8B836C831A821DC08A8199279C0190
:1036D000225F3F4F8B819927B9010E94280C898373
:1036E0008981882361F48A8199279C01225F3F4F59
:1036F0008B8199274C81B9010E943C0D06C08A81BB
:103700008F5F8A838A818A3000F324960FB6F894FB
:10371000DEBF0FBECDBFDF91CF910895CF93DF9372
:10372000CDB7DEB724970FB6F894DEBF0FBECDBF7E
:103730008B836C831A821EC08A8199279C01225F29
:103740003F4F8B819927B9010E94280C8983998169
:103750008C81981761F48A8199279C01225F3F4FE1
:103760008B81992740E0B9010E943C0D06C08A81F7
:103770008F5F8A838A818A30F8F224960FB6F89494
:10378000DEBF0FBECDBFDF91CF910895CF93DF9302
:10379000CDB7DEB788E691E0AC0160E270E08EE480
:1037A0009CE00E946666DF91CF910895CF93DF93EE
:1037B000CDB7DEB788E691E0AC0160E270E08EE460
:1037C0009CE00E944266DF91CF910895CF93DF93F2
:1037D000CDB7DEB726970FB6F894DEBF0FBECDBFCC
:1037E0009A8389837C836B838B819C819E838D8369
:1037F0002D813E8133232CF48D819E8107969E83FB
:103800008D838D819E8195958795959587959595C5
:1038100087959C0189819A81820F931F9A8389835E
:10382000E981FA818081E82FFF27E7FDF0958B8100
:103830009C8128E030E0B9010E9430969F0102C0CF
:10384000359527958A95E2F7C90181709070269683
:103850000FB6F894DEBF0FBECDBFDF91CF910895B4
:10386000CF93DF93CDB7DEB728970FB6F894DEBFBE
:103870000FBECDBF9A8389837C836B835E834D8328
:103880008B819C8198878F838F81988599232CF4D5
:103890008F819885079698878F838F8198859595D6
:1038A000879595958795959587959C0189819A81AE
:1038B000820F931F9A8389838D819E810097C1F027
:1038C000E981FA8140818B819C8128E030E0B90157
:1038D0000E9430969C0181E090E0022E02C0880F89
:1038E000991F0A94E2F7842BE981FA81808317C03B
:1038F000E981FA8140818B819C8128E030E0B90127
:103900000E9430969C0181E090E002C0880F991FD0
:103910002A95E2F780958423E981FA8180832896AD
:103920000FB6F894DEBF0FBECDBFDF91CF910895E3
:10393000CF93DF93CDB7DEB722970FB6F894DEBFF3
:103940000FBECDBF1A8219820BC089819A81FC01FA
:10395000E859FE4F108289819A8101969A83898362
:1039600089819A818032910584F322960FB6F8946A
:10397000DEBF0FBECDBFDF91CF910895CF93DF9310
:10398000CDB7DEB724970FB6F894DEBF0FBECDBF1C
:103990001A82198221C089819A8128E631E0BC010E
:1039A000C9010E94E61B009791F489819A8128E65B
:1039B00031E041E050E0BC01C9010E94301C898126
:1039C0009A819C012F5F3F4F3C832B830FC08981DD
:1039D0009A8101969A83898389819A818F3F910583
:1039E000D1F2CCF28FEF9FEF9C838B838B819C81F4
:1039F00024960FB6F894DEBF0FBECDBFDF91CF91F6
:103A00000895CF93DF93CDB7DEB728970FB6F8941C
:103A1000DEBF0FBECDBF18861F8240C08F81988544
:103A200001969E838D838D819E816DE070E00E9462
:103A3000280C8C838D819E816CE070E00E94280CA4
:103A40008B838C81813029F58B81823011F519822D
:103A50001DC08981992787FD90950E962D813E8105
:103A6000BC01C9010E94280C8A838A81882359F0ED
:103A70008A819927019728E631E041E050E0BC01B6
:103A8000C9010E94301C89818F5F898389818830B8
:103A900004F38F819885019698878F838F8198850D
:103AA000803691050CF4BACF28960FB6F894DEBF95
:103AB0000FBECDBFDF91CF910895CF93DF93CDB7E8
:103AC000DEB722970FB6F894DEBF0FBECDBF9A8344
:103AD000898389819A81019728E631E040E050E0AE
:103AE000BC01C9010E94301C22960FB6F894DEBFBB
:103AF0000FBECDBFDF91CF910895CF93DF93CDB7A8
:103B0000DEB724970FB6F894DEBF0FBECDBF1C8280
:103B10001B821A82198215C089819A8128E631E0B8
:103B2000BC01C9010E94E61B8130910529F48B81FB
:103B30009C8101969C838B8389819A8101969A83CB
:103B4000898389819A818F3F910531F32CF320E09D
:103B500031E08B819C81A901481B590BCA01249635
:103B60000FB6F894DEBF0FBECDBFDF91CF910895A1
:103B7000CF93DF93CDB7DEB7C250D2400FB6F894E3
:103B8000DEBF0FBECDBF1A8219822CC089819A81F7
:103B900028E631E0BC01C9010E94E61B009771F4E0
:103BA00089819A819C01220F331FCE010196820FD9
:103BB000931FFC013296118210820FC089819A8175
:103BC0009C01220F331FCE010196820F931FFC012F
:103BD000329681E090E09183808389819A81019679
:103BE0009A83898389819A818F3F910579F274F252
:103BF000CE5FDD4F0FB6F894DEBF0FBECDBFDF91B5
:103C0000CF910895CF93DF93CDB7DEB78FE294E0E5
:103C1000AC016CE070E082E49CE00E944266DF91BF
:103C2000CF910895CF93DF93CDB7DEB78FE294E0C5
:103C3000AC016CE070E082E49CE00E946666DF917B
:103C4000CF910895CF93DF93CDB7DEB726970FB608
:103C5000F894DEBF0FBECDBF9A8389837C836B83CC
:103C60008B819C819E838D832D813E8133232CF417
:103C70008D819E8107969E838D838D819E819595F2
:103C8000879595958795959587959C0189819A81CA
:103C9000820F931F9A838983E981FA818081E82FBB
:103CA000FF27E7FDF0958B819C8128E030E0B9018A
:103CB0000E9430969F0102C0359527958A95E2F7BC
:103CC000C9018170907026960FB6F894DEBF0FBEC2
:103CD000CDBFDF91CF910895CF93DF93CDB7DEB7FE
:103CE00028970FB6F894DEBF0FBECDBF9A838983A5
:103CF0007C836B835E834D838B819C8198878F83CC
:103D00008F81988599232CF48F81988507969887C1
:103D10008F838F81988595958795959587959595AE
:103D200087959C0189819A81820F931F9A83898349
:103D30008D819E810097C1F0E981FA8140818B815C
:103D40009C8128E030E0B9010E9430969C0181E01E
:103D500090E0022E02C0880F991F0A94E2F7842B8C
:103D6000E981FA81808317C0E981FA8140818B81E2
:103D70009C8128E030E0B9010E9430969C0181E0EE
:103D800090E002C0880F991F2A95E2F7809584235E
:103D9000E981FA81808328960FB6F894DEBF0FBEC2
:103DA000CDBFDF91CF910895CF93DF93CDB7DEB72D
:103DB00022970FB6F894DEBF0FBECDBF1A821982CC
:103DC0000BC089819A81FC01E15DFB4F10828981E2
:103DD0009A8101969A83898389819A818C30910591
:103DE00084F322960FB6F894DEBF0FBECDBFDF91ED
:103DF000CF910895CF93DF93CDB7DEB724970FB659
:103E0000F894DEBF0FBECDBF1A82198221C089810E
:103E10009A812FE234E0BC01C9010E94221E009762
:103E200091F489819A812FE234E041E050E0BC01B5
:103E3000C9010E946C1E89819A819C012F5F3F4FAE
:103E40003C832B830EC089819A8101969A83898352
:103E500089819A8180369105D4F28FEF9FEF9C8300
:103E60008B838B819C8124960FB6F894DEBF0FBEA6
:103E7000CDBFDF91CF910895CF93DF93CDB7DEB75C
:103E800025970FB6F894DEBF0FBECDBF1D821C82F2
:103E900029C08C819D8101969B838A838A819B8125
:103EA0006DE070E00E94280C89838981882359F491
:103EB0008C819D812FE234E040E050E0BC01C901DB
:103EC0000E946C1E0AC08C819D812FE234E041E08B
:103ED00050E0BC01C9010E946C1E8C819D8101963D
:103EE0009D838C838C819D818036910594F22596EB
:103EF0000FB6F894DEBF0FBECDBFDF91CF9108950E
:103F0000CF93DF93CDB7DEB722970FB6F894DEBF1D
:103F10000FBECDBF9A83898389819A8101972FE251
:103F200034E040E050E0BC01C9010E946C1E2296C2
:103F30000FB6F894DEBF0FBECDBFDF91CF910895CD
:103F4000CF93DF93CDB7DEB724970FB6F894DEBFDB
:103F50000FBECDBF1A8219821C821B8215C08B81B5
:103F60009C812FE234E0BC01C9010E94221E8130F5
:103F7000910529F489819A8101969A8389838B819D
:103F80009C8101969C838B838B819C8180369105DB
:103F900034F320E630E089819A81A901481B590B4E
:103FA000CA0124960FB6F894DEBF0FBECDBFDF91D5
:103FB000CF910895CF93DF93CDB7DEB7E0E9F0E07E
:103FC0001082E9E2F0E08FE08083ABE2B0E0EBE268
:103FD000F0E0808182608C93A5E9B0E0E5E9F0E053
:103FE000808186608C93AAE2B0E0EAE2F0E0808112
:103FF00088698C9381E0809388011092AA011092C5
:10400000AB01DF91CF910895CF93DF93CDB7DEB7AA
:1040100021970FB6F894DEBF0FBECDBF8983809184
:104020008801882311F40E94DA1FEBE2F0E080811E
:104030009927807290700097C1F3ECE2F0E08981DB
:10404000808321960FB6F894DEBF0FBECDBFDF91FF
:10405000CF910895CF93DF93CDB7DEB722970FB6F8
:10406000F894DEBF0FBECDBF9A8389830AC0E98171
:10407000FA8180810E94042089819A8101969A8325
:104080008983E981FA818081882389F722960FB696
:10409000F894DEBF0FBECDBFDF91CF910895CF93CF
:1040A000DF93CDB7DEB724970FB6F894DEBF0FBE0F
:1040B000CDBF9B838A836C8319820DC0EA81FB810B
:1040C00080810E9404208A819B8101969B838A8340
:1040D00089818F5F898399818C81981778F32496E1
:1040E0000FB6F894DEBF0FBECDBFDF91CF9108951C
:1040F000CF93DF93CDB7DEB721970FB6F894DEBF2D
:104100000FBECDBF898389818A3028F08981895A81
:104110000E94042004C08981805D0E9404202196B1
:104120000FB6F894DEBF0FBECDBFDF91CF910895DB
:10413000CF93DF93CDB7DEB721970FB6F894DEBFEC
:104140000FBECDBF8983898182958F700E947820B0
:1041500089818F700E94782021960FB6F894DEBF77
:104160000FBECDBFDF91CF910895CF93DF93CDB731
:10417000DEB726970FB6F894DEBF0FBECDBF6B83B8
:104180007C838D839E83CE01039603969A838983D5
:1041900080E30E94042088E70E940420E981FA81DC
:1041A00080810E94982089819A8101979A838983CE
:1041B000E981FA8180810E94982089819A81019702
:1041C0009A838983E981FA8180810E94982089817C
:1041D0009A8101979A838983E981FA8180810E947B
:1041E000982026960FB6F894DEBF0FBECDBFDF91A4
:1041F000CF910895AF92BF92CF92DF92EF92FF924C
:104200000F931F93CF93DF93CDB7DEB760970FB6B1
:10421000F894DEBF0FBECDBF69837A838B839C8306
:104220002D833E834F835887E986FA860B871C8748
:10423000AD86BE86CF86D88A81E00E940420FE012A
:10424000319680819181A281B381BC01CD010E9410
:10425000B520FE01359680819181A281B381BC0198
:10426000CD010E94B520FE01399680819181A28105
:10427000B381BC01CD010E94B520FE013D96808135
:104280009181A281B381BC01CD010E94B5206096CD
:104290000FB6F894DEBF0FBECDBFDF91CF911F9157
:1042A0000F91FF90EF90DF90CF90BF90AF90089567
:1042B0001F920F920FB60F9211242F933F934F939B
:1042C0005F936F937F938F939F93AF93BF93EF937E
:1042D000FF93CF93DF93CDB7DEB72797DEBFCDBF78
:1042E000ECE2F0E080818F831E828F81813609F0BD
:1042F00044C00E94628E8A83EBE2F0E080818823D2
:10430000DCF7ECE2F0E080818D838D8180538D833A
:10431000EBE2F0E080818823DCF7ECE2F0E08081E2
:104320008C838C8180538C831B8214C0EBE2F0E081
:1043300080818823DCF78E819927ECE2F0E02081F0
:10434000FC01E757FE4F20838E818F5F8E838B8128
:104350008F5F8B839B818C81981740F38A810E94A9
:104360007A8E8D81282F332789E891E0AC016C810A
:10437000C9010E94E4831E8227C08F818A3721F5FC
:104380000E94628E89831B8214C0EBE2F0E0808180
:104390008823DCF78E819927ECE2F0E02081FC0194
:1043A000E757FE4F20838E818F5F8E838B818F5FD7
:1043B0008B838B81813248F389810E947A8E89E8D0
:1043C00091E00E94D3621E822796F894DEBFCDBF93
:1043D000DF91CF91FF91EF91BF91AF919F918F911D
:1043E0007F916F915F914F913F912F910F900FBEF1
:1043F0000F901F901895CF93DF93CDB7DEB7259719
:104400000FB6F894DEBF0FBECDBF1B820E94628E36
:104410008A8380913B04882329F481E080933B04C4
:1044200081E08B8310923B048BE0809359048FE1F1
:1044300080933C048A810E947A8E8B81882319F4B0
:104440001D821C8271C00E94152680E098EF909317
:104450003E0480933D0482EE92E09093400480936A
:104460003F0480E095E0909342048093410480E80B
:1044700090EE90934404809343048FE097EA9093E6
:1044800046048093450480913C049927806E906691
:10449000909348048093470485EE92E190934A04F8
:1044A0008093490486E59AE090934C0480934B04F2
:1044B00080915904282F3327C901880F991F880F2D
:1044C000991F820F931F825D9E4F906490934E04BC
:1044D00080934D0484EC91E09093500480934F04BA
:1044E00010925204109251041092540410925304EA
:1044F0008FE792E0909356048093550410925804ED
:10450000109257040E94628E898382E080933B045C
:1045100089810E947A8E8FEE92E265E00E94FE7E93
:1045200081E090E09D838C838C819D8125960FB6E0
:10453000F894DEBF0FBECDBFDF91CF910895CF932A
:10454000DF93CDB7DEB722970FB6F894DEBF0FBE6C
:10455000CDBF8A838A810E942747898389819927D1
:1045600022960FB6F894DEBF0FBECDBFDF91CF917C
:104570000895CF93DF93CDB7DEB70E94D65488E578
:1045800092E00E94115281E090E0DF91CF91089576
:10459000CF93DF93CDB7DEB70E94E45488E592E075
:1045A0000E94115281E090E0DF91CF910895CF9366
:1045B000DF93CDB7DEB721970FB6F894DEBF0FBEFD
:1045C000CDBF0E943D2689838981992721960FB608
:1045D000F894DEBF0FBECDBFDF91CF910895CF938A
:1045E000DF93CDB7DEB70E94D722DF91CF91089538
:1045F000CF93DF93CDB7DEB722970FB6F894DEBF27
:104600000FBECDBF8A838A810E94AA49898389818E
:10461000992722960FB6F894DEBF0FBECDBFDF916B
:10462000CF910895CF93DF93CDB7DEB724970FB620
:10463000F894DEBF0FBECDBF8A837C836B838B81F2
:104640009C81BC018A810E945E4989838981992766
:1046500024960FB6F894DEBF0FBECDBFDF91CF9189
:104660000895CF93DF93CDB7DEB723970FB6F894B5
:10467000DEBF0FBECDBF1B821A8268E170E08DE104
:104680000E94122381E00E949F2281E00E94F82272
:10469000898381E090E023960FB6F894DEBF0FBEC9
:1046A000CDBFDF91CF910895CF93DF93CDB7DEB724
:1046B00021970FB6F894DEBF0FBECDBF0E94524ABD
:1046C00089838981992721960FB6F894DEBF0FBEA2
:1046D000CDBFDF91CF910895CF93DF93CDB7DEB7F4
:1046E00025970FB6F894DEBF0FBECDBF1A820E9489
:1046F000628E898380913B04823029F483E0809329
:104700003B0481E08A8389810E947A8E8A81882392
:1047100019F41D821C8214C00E9454230E94B922E5
:104720000E9487540E949B2C0E9479540E949B2CCB
:104730000E9431238B838B81282F33273D832C8349
:104740008C819D8125960FB6F894DEBF0FBECDBF3C
:10475000DF91CF910895CF93DF93CDB7DEB783E09C
:104760000E94F82281E090E0DF91CF910895CF93ED
:10477000DF93CDB7DEB721970FB6F894DEBF0FBE3B
:10478000CDBF0E94EA2889838981992721960FB697
:10479000F894DEBF0FBECDBFDF91CF910895CF93C8
:1047A000DF93CDB7DEB725970FB6F894DEBF0FBE07
:1047B000CDBF9D838C838C819D81805098409B834D
:1047C0008A8380914D0490914E049C0120703C7F1F
:1047D0008A819B81822B932B90934E0480934D046E
:1047E00080914D0490914E04BC0188E10E941223F7
:1047F00089838981992780749070009719F083E0EC
:104800000E94F82281E090E025960FB6F894DEBF72
:104810000FBECDBFDF91CF910895CF93DF93CDB77A
:10482000DEB723970FB6F894DEBF0FBECDBF8B83E4
:104830008B81282F3327C901880F991F880F991F53
:10484000820F931F825D964F9A83898389819A8113
:104850000E94CF2381E090E023960FB6F894DEBF4C
:104860000FBECDBFDF91CF910895CF93DF93CDB72A
:10487000DEB722970FB6F894DEBF0FBECDBF8A8396
:1048800080914704909148049C01207E8A81992759
:104890008F719070822B932B9093480480934704E0
:1048A00080914D0490914E04BC0185E10E94122339
:1048B00089838981992780749070009719F083E02B
:1048C0000E94F82281E090E022960FB6F894DEBFB5
:1048D0000FBECDBFDF91CF910895CF93DF93CDB7BA
:1048E000DEB722970FB6F894DEBF0FBECDBF842F80
:1048F000952F9A83898389819A810E94CF2322965A
:104900000FB6F894DEBF0FBECDBFDF91CF910895F3
:10491000CF93DF93CDB7DEB722970FB6F894DEBF03
:104920000FBECDBF842F952F9A83898389819A8169
:104930000E940D2422960FB6F894DEBF0FBECDBFA5
:10494000DF91CF910895CF93DF93CDB7DEB7229754
:104950000FB6F894DEBF0FBECDBF842F952F9A837C
:10496000898389819A810E94352422960FB6F89412
:10497000DEBF0FBECDBFDF91CF910895CF93DF9300
:10498000CDB7DEB725970FB6F894DEBF0FBECDBF0B
:104990009A8389836B835D834C8381E090E02596C5
:1049A0000FB6F894DEBF0FBECDBFDF91CF91089553
:1049B000CF93DF93CDB7DEB726970FB6F894DEBF5F
:1049C0000FBECDBF9B838A836C835E834D838D81B5
:1049D0009E812A813B81AC016C81C9010E94D5482E
:1049E00089838981992726960FB6F894DEBF0FBE7A
:1049F000CDBFDF91CF910895CF93DF93CDB7DEB7D1
:104A000022970FB6F894DEBF0FBECDBF9A8389837D
:104A100089819A810E947B8B9A838983CE0101963A
:104A2000AC0162E08AE691E00E94D82499272296A0
:104A30000FB6F894DEBF0FBECDBFDF91CF910895C2
:104A4000CF93DF93CDB7DEB723970FB6F894DEBFD1
:104A50000FBECDBF8B838B810E94D7499A838983F8
:104A600089819A8123960FB6F894DEBF0FBECDBF21
:104A7000DF91CF910895CF93DF93CDB7DEB7249721
:104A80000FB6F894DEBF0FBECDBF80913D0490916C
:104A90003E04BC0180E10E94122380913F0490916A
:104AA0004004BC0181E10E94122381E10E94202583
:104AB0009A83898320913F043091400489819A81AF
:104AC0002817390719F01C821B8262C080914104AB
:104AD00090914204BC0182E10E9412238091430420
:104AE00090914404BC0183E10E941223809145040B
:104AF00090914604BC0184E10E94122380914704F6
:104B000090914804BC0185E10E94122380914904E0
:104B100090914A04BC0186E10E94122380914B04CB
:104B200090914C04BC0187E10E94122380914D04B6
:104B300090914E04BC0188E10E94122380914F04A1
:104B400090915004BC0189E10E941223809151048C
:104B500090915204BC018AE10E9412238091550475
:104B600090915604BC018CE10E941223809157045D
:104B700090915804BC018DE10E94122389E00E94AB
:104B8000F82288E00E94F82281E090E09C838B83E9
:104B90008B819C8124960FB6F894DEBF0FBECDBFEB
:104BA000DF91CF910895CF93DF93CDB7DEB72197F3
:104BB0000FB6F894DEBF0FBECDBF0E943B2580919B
:104BC0005007909151070E94FC2480914D049091D0
:104BD0004E0491708050984F0E94CF230E94628EA5
:104BE000898384E080933B0489810E947A8E0E94AD
:104BF000B72321960FB6F894DEBF0FBECDBFDF916D
:104C0000CF910895CF93DF93CDB7DEB760E070E02A
:104C10008DE10E94122383ED95E265E00E94FE7E05
:104C200080E090E0DF91CF910895CF93DF93CDB7EF
:104C3000DEB721970FB6F894DEBF0FBECDBF0E943E
:104C4000334889830E942E4A682F89810E94EF8D04
:104C500089838981992721960FB6F894DEBF0FBE0C
:104C6000CDBFDF91CF910895CF93DF93CDB7DEB75E
:104C700081E090E0DF91CF910895CF93DF93CDB79E
:104C8000DEB70E94792C9927DF91CF910895CF93B9
:104C9000DF93CDB7DEB721970FB6F894DEBF0FBE16
:104CA000CDBF0E94628E89831092D80410925C045A
:104CB0001092D20410925D048EE594E090935B0410
:104CC00080935A04E0915A04F0915B041082898128
:104CD0000E947A8E80915007909151079093D5044D
:104CE0008093D4040E94FB21992721960FB6F89453
:104CF000DEBF0FBECDBFDF91CF910895CF93DF937D
:104D0000CDB7DEB721970FB6F894DEBF0FBECDBF8B
:104D10000E946C2389838981992721960FB6F89484
:104D2000DEBF0FBECDBFDF91CF910895CF93DF934C
:104D3000CDB7DEB725970FB6F894DEBF0FBECDBF57
:104D40000E94628E8A838091D8048B838A810E941C
:104D50007A8E8B818823B9F40E94628E89838AE0DF
:104D60008093D8041092D304E0915A04F0915B042C
:104D7000108289810E947A8E0E947E26282F3327F6
:104D80003D832C8302C01D821C828C819D812596CF
:104D90000FB6F894DEBF0FBECDBFDF91CF9108955F
:104DA000CF93DF93CDB7DEB722970FB6F894DEBF6F
:104DB0000FBECDBF1A820E94628E89838091D80473
:104DC000813021F41092D80481E08A8389810E9485
:104DD0007A8E8A81813011F40E94962622960FB62F
:104DE000F894DEBF0FBECDBFDF91CF910895CF9372
:104DF000DF93CDB7DEB722970FB6F894DEBF0FBEB4
:104E0000CDBF1A820E94628E89838091D804882344
:104E100061F480ED96E265E00E94FE7E882329F031
:104E200081E08A8381E08093D80489810E947A8E10
:104E30008A81992722960FB6F894DEBF0FBECDBFA8
:104E4000DF91CF910895CF93DF93CDB7DEB781E0A7
:104E500090E0DF91CF910895CF93DF93CDB7DEB788
:104E600021970FB6F894DEBF0FBECDBF0E94232757
:104E700089838981992721960FB6F894DEBF0FBEEA
:104E8000CDBFDF91CF910895CF93DF93CDB7DEB73C
:104E900022970FB6F894DEBF0FBECDBF8A838A81FA
:104EA0000E94A74789838981992722960FB6F89493
:104EB000DEBF0FBECDBFDF91CF910895CF93DF93BB
:104EC000CDB7DEB722970FB6F894DEBF0FBECDBFC9
:104ED0008A838A810E94AA49898389819927229697
:104EE0000FB6F894DEBF0FBECDBFDF91CF9108950E
:104EF000CF93DF93CDB7DEB721970FB6F894DEBF1F
:104F00000FBECDBF85E00E945E2780E00E945E2735
:104F10008983898186958695869599278170907079
:104F2000882321F081E00E94442702C00E94C82B00
:104F300021960FB6F894DEBF0FBECDBFDF91CF91A3
:104F40000895CF93DF93CDB7DEB723970FB6F894CC
:104F5000DEBF0FBECDBF0E94628E8A838091D804CF
:104F60008B838A810E947A8E8B818530D1F40E9456
:104F70000957009731F40E944F55009711F40E9491
:104F8000F62B0E946257009771F00E94628E89830F
:104F900083E08093D80489810E947A8E0E947827CA
:104FA00002C00E94F62B23960FB6F894DEBF0FBE08
:104FB000CDBFDF91CF910895CF93DF93CDB7DEB70B
:104FC00023970FB6F894DEBF0FBECDBF89837B83D6
:104FD0006A830E94A12781E090E023960FB6F8949F
:104FE000DEBF0FBECDBFDF91CF910895CF93DF938A
:104FF000CDB7DEB724970FB6F894DEBF0FBECDBF96
:105000008A837C836B838B819C81BC018A810E9413
:10501000384489838981992724960FB6F894DEBF96
:105020000FBECDBFDF91CF910895CF93DF93CDB762
:10503000DEB789E00E945E27882319F40E94C82BFE
:105040000FC08091D6049091D7049C018091D9041F
:105050008F5FB9010E94F627882311F40E94C82BA4
:10506000DF91CF910895CF93DF93CDB7DEB7279728
:105070000FB6F894DEBF0FBECDBF9D838C830E9418
:10508000628E8A838091D8048B838A810E947A8E73
:105090008B81823009F05FC0EC81FD8188E08283E2
:1050A0008091D204882329F0EC81FD8181E2818303
:1050B00004C0EC81FD8181E08183EC81FD818FEF73
:1050C0009FEF95838483EC81FD81868197810E9487
:1050D0007B8BEC81FD8197838683EC81FD818081D0
:1050E000855FEC81FD81808380915C048F5F80937C
:1050F0005C0480915C04EC81FD8183838C819D81C3
:10510000FC01EE58FF4F11821082EC81FD818081FD
:1051100082508093D9048C819D819093D704809391
:10512000D60488E08093D3040E94628E898385E050
:105130008093D80489810E947A8E85E198E265E0A7
:105140000E94FE7E882311F40E94C82B81E090E02B
:105150009F838E8302C01F821E828E819F8127962D
:105160000FB6F894DEBF0FBECDBFDF91CF9108958B
:10517000CF93DF93CDB7DEB722970FB6F894DEBF9B
:105180000FBECDBF8A838A810E94FF4589838981B2
:10519000992722960FB6F894DEBF0FBECDBFDF91E0
:1051A000CF910895CF93DF93CDB7DEB721970FB698
:1051B000F894DEBF0FBECDBF0E94AB2389838981E7
:1051C000992721960FB6F894DEBF0FBECDBFDF91B1
:1051D000CF910895CF93DF93CDB7DEB723970FB666
:1051E000F894DEBF0FBECDBF0E94628E8A8380918D
:1051F000D8048B838A810E947A8E8B818A3089F4CD
:105200000E94D22880E00E94B82881E00E944427B2
:105210000E94628E898382E08093D80489810E94F3
:105220007A8E0E942C2781E090E023960FB6F894A6
:10523000DEBF0FBECDBFDF91CF910895CF93DF9337
:10524000CDB7DEB723970FB6F894DEBF0FBECDBF44
:105250008B838B810E94D7499A83898389819A8124
:1052600023960FB6F894DEBF0FBECDBFDF91CF916E
:105270000895CF93DF93CDB7DEB721970FB6F8949B
:10528000DEBF0FBECDBF0E94254689838981992745
:1052900021960FB6F894DEBF0FBECDBFDF91CF9140
:1052A0000895CF93DF93CDB7DEB70E941F2CDF9117
:1052B000CF910895CF93DF93CDB7DEB723970FB685
:1052C000F894DEBF0FBECDBF0E940957009739F496
:1052D0000E94F62B81E090E09B838A8316C00E9497
:1052E000628E898381E599E265E00E94FE7E8823D3
:1052F00019F00E94392902C00E94F62B89810E9470
:105300007A8E81E090E09B838A838A819B812396B9
:105310000FB6F894DEBF0FBECDBFDF91CF910895D9
:10532000CF93DF93CDB7DEB724970FB6F894DEBFE7
:105330000FBECDBF9C838B838B819C810E94B16506
:105340009A83898389819A8124960FB6F894DEBF67
:105350000FBECDBFDF91CF910895CF93DF93CDB72F
:10536000DEB724970FB6F894DEBF0FBECDBF0E9404
:10537000628E8A8380915A0490915B049C838B8314
:105380008A810E947A8E8B819C810E9490299C83C5
:105390008B830E94628E89838B819C81009731F080
:1053A0008B819C8190935B0480935A04E0915A0412
:1053B000F0915B04108210925D0489810E947A8EC4
:1053C00024960FB6F894DEBF0FBECDBFDF91CF910C
:1053D00008950F931F93CF93DF93CDB7DEB72B972D
:1053E0000FB6F894DEBF0FBECDBF8F837987688775
:1053F0000E94628E8D838091D8048E838D810E945D
:105400007A8E0E940957009721F40E944F55009709
:1054100031F08F81882319F08F81813778F00E94D5
:10542000F62B0E94628E8C8310925D048C810E9408
:105430007A8E81E090E09B878A87C5C088859985B0
:1054400090935B0480935A04E0915A04F0915B04BA
:1054500081819927877090708130910539F4E091AE
:105460005A04F0915B048281883079F00E94F62B17
:105470000E94628E8B8310925D048B810E947A8ED3
:10548000E1E0F0E0FB87EA879EC0A0915A04B0916A
:105490005B04E0915A04F0915B0480818B508C9303
:1054A000E0915A04F0915B048081853678F00E9487
:1054B000F62B0E94628E8A8310925D048A810E947C
:1054C0007A8E81E090E09B878A877DC000915A04A4
:1054D00010915B04E0915A04F0915B0486819781FE
:1054E0000E949F8BF8019783868340915A045091C4
:1054F0005B048F8199279C0188859985820F931F72
:10550000FC0131978081881F8827881FFA01E059A4
:10551000FF4F808340915A0450915B048F819927FB
:105520009C0188859985820F931FFC0132978081A9
:10553000FA01E259FF4F808340915A0450915B0475
:105540008F8199279C0188859985820F931FFC0183
:10555000319780818F77FA01E159FF4F80830E9454
:10556000628E89838DEA99E265E00E94FE7E88233F
:1055700011F410925D0489810E947A8E0E9409576D
:10558000009759F40E944F55009739F40E94F62B6A
:1055900081E090E09B878A8716C00E944F55009754
:1055A00061F481E599E265E00E94FE7E882329F09E
:1055B000E1E0F0E0FB87EA8706C00E94F62B81E07D
:1055C00090E09B878A878A859B852B960FB6F894F7
:1055D000DEBF0FBECDBFDF91CF911F910F91089518
:1055E000CF93DF93CDB7DEB724970FB6F894DEBF25
:1055F0000FBECDBF8A837C836B838B819C81BC0172
:105600008A810E940D4589838981992724960FB646
:10561000F894DEBF0FBECDBFDF91CF910895CF9339
:10562000DF93CDB7DEB724970FB6F894DEBF0FBE79
:10563000CDBF9B838A836C838A819B816C810E940E
:10564000CA6589838981992724960FB6F894DEBFAD
:105650000FBECDBFDF91CF910895CF93DF93CDB72C
:10566000DEB723970FB6F894DEBF0FBECDBF0E9402
:10567000628E898382E08093D8048091D6049091D1
:10568000D7049B838A83EA81FB8180818B50EA81E6
:10569000FB81808389810E947A8E8A819B8161E06F
:1056A0000E940F2B23960FB6F894DEBF0FBECDBF1E
:1056B000DF91CF910895CF93DF93CDB7DEB72197D8
:1056C0000FB6F894DEBF0FBECDBF0E94CC478983D2
:1056D0008981992721960FB6F894DEBF0FBECDBF02
:1056E000DF91CF910895CF93DF93CDB7DEB72497A5
:1056F0000FB6F894DEBF0FBECDBF9A838983809129
:10570000D804282F33273C832B838B819C818330C3
:10571000910531F02B813C8124303105E9F02DC019
:1057200080E00E9444270E946656009719F40E9468
:105730005B2B03C084E08093D8048091D6049091C1
:10574000D704FC01EE58FF4F89819A8191838083B1
:105750008091D804843089F086E08093D8040E9438
:105760005B2B81E00E9444278DE29BE265E00E9472
:10577000FE7E882311F40E94C82B81E090E02496DD
:105780000FB6F894DEBF0FBECDBFDF91CF91089565
:10579000CF93DF93CDB7DEB721970FB6F894DEBF76
:1057A0000FBECDBF0E94628E898382E08093D804B1
:1057B00089810E947A8EA091D604B091D704E0919D
:1057C000D604F091D70480818B508C938091D604BD
:1057D0009091D70460E00E940F2B21960FB6F894A9
:1057E000DEBF0FBECDBFDF91CF910895CF93DF9382
:1057F000CDB7DEB721970FB6F894DEBF0FBECDBF91
:105800000E9439298FE30E941E2988E00E945E27AA
:1058100088E00E945E270E94628E898310925D0458
:1058200089810E947A8E80E00E94B82821960FB666
:10583000F894DEBF0FBECDBFDF91CF910895CF9317
:10584000DF93CDB7DEB724970FB6F894DEBF0FBE57
:10585000CDBF80E78C830E940957009739F40E94DE
:105860004F55009719F40E94F62B3AC00E94628EA1
:105870008A8380915D048B838B81882351F081E53D
:1058800099E265E00E94FE7E882331F40E94F62BA7
:1058900003C081E080935D048A810E947A8E8B81AF
:1058A0008823E1F480915A0490915B04BC018C81BF
:1058B0000E94F02A882391F40E94628E89831092BC
:1058C0005D0489810E947A8E81E599E265E00E94FB
:1058D000FE7E882329F40E94F62B02C00E94F62B3C
:1058E00024960FB6F894DEBF0FBECDBFDF91CF91E7
:1058F0000895CF93DF93CDB7DEB721970FB6F89415
:10590000DEBF0FBECDBF0E943426898389819927CF
:1059100021960FB6F894DEBF0FBECDBFDF91CF91B9
:105920000895CF93DF93CDB7DEB782E08093D8049C
:10593000DF91CF910895CF93DF93CDB7DEB700000D
:105940000000DF91CF910895CF93DF93CDB7DEB7FD
:10595000789488950E949B2CDF91CF910895CF93E6
:10596000DF93CDB7DEB78895DF91CF910895CF93C0
:10597000DF93CDB7DEB77894DF91CF910895CF93C1
:10598000DF93CDB7DEB7F894DF91CF910895CF9331
:10599000DF93CDB7DEB721970FB6F894DEBF0FBE09
:1059A000CDBFEFE5F0E080818983F8948981992764
:1059B00021960FB6F894DEBF0FBECDBFDF91CF9119
:1059C0000895CF93DF93CDB7DEB721970FB6F89444
:1059D000DEBF0FBECDBF8983EFE5F0E08981808314
:1059E00021960FB6F894DEBF0FBECDBFDF91CF91E9
:1059F0000895CF93DF93CDB7DEB7E0E0F0E00995EF
:105A0000DF91CF910895CF93DF93CDB7DEB7E2E575
:105A1000F0E080819927DF91CF910895CF93DF93B4
:105A2000CDB7DEB7E1E5F0E080819927DF91CF9136
:105A30000895CF93DF93CDB7DEB721970FB6F894D3
:105A4000DEBF0FBECDBF0E946D3689838981992745
:105A500021960FB6F894DEBF0FBECDBFDF91CF9178
:105A60000895CF93DF93CDB7DEB721970FB6F894A3
:105A7000DEBF0FBECDBF8983E1E5F0E08981808381
:105A800021960FB6F894DEBF0FBECDBFDF91CF9148
:105A90000895CF93DF93CDB7DEB723970FB6F89471
:105AA000DEBF0FBECDBF8A836B838B8187708B83F4
:105AB0008B8188608B830E94628E8983A7E5B0E02A
:105AC000E7E5F0E080818E7F8C93A7E5B0E0E7E525
:105AD000F0E080818D7F8C93A0E5B0E0E0E5F0E020
