:100000000C9446000C9463000C9463000C94630001
:100010000C9463000C9463000C9463000C94CD4525
:100020000C9463000C9463000C9463000C94A04B3C
:100030000C94064C0C9463000C9463000C94A62D55
:100040000C9463000C9463000C946B210C9463007B
:100050000C9463000C9417370C9463000C946300A9
:100060000C9463000C9463000C9463000C94630084
:100070000C9463000C9463000C9463000C94630074
:100080000C9463000C9463000C94630011241FBE55
:10009000CFEFD0E1DEBFCDBF11E0A0E0B1E0E4ECF6
:1000A000F4E301E00BBF02C007900D92A037B10747
:1000B000D9F71AE0A0E7B1E001C01D92A534B1075D
:1000C000E1F70C942E630C940000CF93DF93CDB72F
:1000D000DEB71092F3038091F3038093F2038091D3
:1000E000F2038093F103DF91CF910895CF93DF93D3
:1000F000CDB7DEB722970FB6F894DEBF0FBECDBFE7
:1001000081EF93E09A83898389819A8122960FB641
:10011000F894DEBF0FBECDBFDF91CF910895CF938E
:10012000DF93CDB7DEB788EF93E0DF91CF910895ED
:10013000CF93DF93CDB7DEB78CEE93E0DF91CF9115
:100140000895CF93DF93CDB7DEB722970FB6F8941B
:10015000DEBF0FBECDBF8CEE93E028EF33E0BC01D5
:10016000C9010E94D8029A838983E091F603F09135
:10017000F70389819A8190A3878F61E087E00E94CD
:10018000018E22960FB6F894DEBF0FBECDBFDF9171
:10019000CF910895CF93DF93CDB7DEB780919308C9
:1001A000909194089093F7038093F60381EA90E08E
:1001B00065E00E947181DF91CF910895CF93DF9325
:1001C000CDB7DEB78091EA039091EB030E947703ED
:1001D00062E087E00E94018EDF91CF910895CF9376
:1001E000DF93CDB7DEB7E0919308F0919408878D47
:1001F00090A19093EB038093EA038EED90E065E08D
:100200000E947181DF91CF910895CF93DF93CDB795
:10021000DEB78091F4039091F50320910F043091A3
:100220001004E091EA03F091EB03AC01B901CF01B6
:100230000E94490563E087E00E94018EDF91CF9123
:100240000895CF93DF93CDB7DEB7E0919308F09197
:100250009408878D90A19093EB038093EA03E0913B
:100260009308F091940881A192A190931004809337
:100270000F04E0919308F091940883A194A19093C6
:10028000F5038093F40385E091E065E00E947181BD
:10029000DF91CF910895CF93DF93CDB7DEB78091F3
:1002A000F4039091F50320910F0430911004E09134
:1002B000EA03F091EB03AC01B901CF010E94E5061E
:1002C00064E087E00E94018EDF91CF910895CF9383
:1002D000DF93CDB7DEB7E0919308F0919408878D56
:1002E00090A19093EB038093EA03E0919308F0913F
:1002F000940881A192A19093100480930F04E0913F
:100300009308F091940883A194A19093F5038093AE
:10031000F4038BE491E065E00E947181DF91CF915D
:100320000895CF93DF93CDB7DEB7E0919308F091B6
:100330009408878D90A19093EB038093EA03E0915A
:100340009308F091940881A192A190930E04809358
:100350000D04E0919308F091940883A194A19093E7
:10036000E9038093E8032091E8033091E903809149
:100370000D0490910E04AA2797FDA095BA2FE09145
:10038000EA03F091EB03AC01BD01CF010E9494039D
:10039000DF91CF910895CF93DF93CDB7DEB722974A
:1003A0000FB6F894DEBF0FBECDBF80E090E00E9494
:1003B00020108130910529F481E090E09A838983AF
:1003C00002C01A82198289819A8122960FB6F89406
:1003D000DEBF0FBECDBFDF91CF910895CF93DF93E6
:1003E000CDB7DEB722970FB6F894DEBF0FBECDBFF4
:1003F0001A82198214C089819A81880F991F9C01E1
:10040000220F331F220F331F820F931FFC01EF5E59
:10041000FB4F108289819A8101969A838983898111
:100420009A81883091053CF322960FB6F894DEBF8E
:100430000FBECDBFDF91CF910895CF93DF93CDB79E
:10044000DEB722970FB6F894DEBF0FBECDBF1A827B
:10045000198216C089819A81880F991F9C01220FE9
:10046000331F220F331F820F931FFC01EF5EFB4FE0
:100470008081882351F089819A8101969A838983AA
:1004800089819A81883091052CF389819A81880F1E
:10049000991F9C01220F331F220F331F820F931FBE
:1004A000FC01EF5EFB4F81E0808389819A81498165
:1004B000880F991F9C01220F331F220F331F820FB9
:1004C000931FFC01EE5EFB4F408369817A81498175
:1004D0005A81CA01880F991F9C01220F331F220FD6
:1004E000331F820F931FFC01EC5EFB4F1082CA0189
:1004F000880F991F9C01220F331F220F331F820F79
:10050000931FFC01EC5EFB4F4081CB01880F991FCC
:100510009C01220F331F220F331F820F931FFC01F8
:10052000ED5EFB4F408389819A81880F991F9C0162
:10053000220F331F220F331F820F931FFC01E95E2E
:10054000FB4F8FEF9FEFAFEFBFEF80839183A283CD
:10055000B38389819A8122960FB6F894DEBF0FBECD
:10056000CDBFDF91CF910895CF93DF93CDB7DEB7A5
:1005700022970FB6F894DEBF0FBECDBF9A83898352
:1005800089819A81880F991F9C01220F331F220FA6
:10059000331F820F931FFC01EF5EFB4F10822296E8
:1005A0000FB6F894DEBF0FBECDBFDF91CF91089597
:1005B000CF93DF93CDB7DEB764970FB6F894DEBF65
:1005C0000FBECDBF988B8F877A8B698BCE010D962E
:1005D0002F853889BC01C9010E9495189C878B879B
:1005E00089899A890E94C90F9A87898789859A85FE
:1005F000009719F41C8A1B8A6FC08B859C852FEF8E
:100600008F3F920719F41C8A1B8A66C08D859E85D0
:100610000097D1F589859A858230910591F58F856E
:1006200098890E94730F9C838B838B859C852B817B
:100630003C81BC01C9010E942818992798878F83A3
:100640000E941D029E838D8389859A852D813E811E
:10065000EF81F885AC01B901CF010E94F7198D81B6
:100660009E819C01220F331FC901880F991F880F9B
:10067000991F820F931F9C012F5E3B4F3C8B2B8B4E
:100680002BC01C8A1B8A28C08D859E8582309105CF
:1006900019F01C8A1B8A20C00E941D029A8389833C
:1006A00089859A8529813A81EB85FC85AC01B90160
:1006B000CF010E94F71989819A819C01220F331F73
:1006C000C901880F991F880F991F820F931F9C01E2
:1006D0002F5E3B4F3C8B2B8B8B899C8964960FB68E
:1006E000F894DEBF0FBECDBFDF91CF910895CF93B9
:1006F000DF93CDB7DEB722970FB6F894DEBF0FBEFB
:10070000CDBF9A838983E981FA81818199270E94EB
:10071000B4021A82198222960FB6F894DEBF0FBE79
:10072000CDBFDF91CF910895CF93DF93CDB7DEB7E3
:100730002C970FB6F894DEBF0FBECDBF9C838B8382
:100740004D835E836F8378873A87298789859A8569
:10075000009711F5EB81FC81848195819C014427F0
:1007600055278D819E81AF81B885281739074A07A3
:100770005B072CF48FEF9FEF9C878B879EC0EB81EC
:10078000FC818D819E81AF81B88586839783A08708
:10079000B1871C861B8691C0EB81FC818681978185
:1007A000A085B1859A83898389859A858130910551
:1007B000A1F4EB81FC8126813781408551858D81B3
:1007C0009E81AF81B885820F931FA41FB51FEB8157
:1007D000FC8186839783A087B187EB81FC8186812A
:1007E0009781A085B185BB238CF0EB81FC812681AC
:1007F000378140855185EB81FC8184819581AA27D1
:10080000BB2782179307A407B5078CF489819A81C7
:10081000AA2797FDA095BA2FEB81FC818683978349
:10082000A087B1878FEF9FEF9C878B8746C0898514
:100830009A8582309105A9F4EB81FC8184819581B0
:100840009C01442755278D819E81AF81B885820FF9
:10085000931FA41FB51FEB81FC8186839783A0871C
:10086000B187EB81FC8186819781A085B185BB230F
:100870008CF0EB81FC812681378140855185EB81AD
:10088000FC8184819581AA27BB2782179307A4073F
:10089000B5078CF489819A81AA2797FDA095BA2F74
:1008A000EB81FC8186839783A087B1878FEF9FEFD1
:1008B0009C878B8702C01C861B868B859C852C960B
:1008C0000FB6F894DEBF0FBECDBFDF91CF91089574
:1008D000CF93DF93CDB7DEB728970FB6F894DEBF7E
:1008E0000FBECDBF9E838D83CE0103962D813E81A9
:1008F000BC01C9010E9495189A83898389819A81D4
:100900002FEF8F3F920721F08B819C81009729F474
:100910008FEF9FEF98878F8304C089819A81988792
:100920008F838F81988528960FB6F894DEBF0FBE0F
:10093000CDBFDF91CF910895CF93DF93CDB7DEB7D1
:1009400028970FB6F894DEBF0FBECDBF9E838D8370
:10095000CE0103962D813E81BC01C9010E949518EC
:100960009A83898389819A812FEF8F3F920729F497
:100970008FEF9FEF98878F8316C08B819C810097A4
:1009800071F48D819E810E94730F9C0189819A81EF
:10099000BC01C9010E94E01718861F8204C08FEFB6
:1009A0009FEF98878F838F81988528960FB6F8944C
:1009B000DEBF0FBECDBFDF91CF910895CF93DF9300
:1009C000CDB7DEB726970FB6F894DEBF0FBECDBF0A
:1009D0009C838B838B819C810E9468049A8389838A
:1009E00089819A812FEF8F3F920729F48FEF9FEF34
:1009F0009E838D8306C089819A810E9461121E8226
:100A00001D828D819E8126960FB6F894DEBF0FBEA3
:100A1000CDBFDF91CF910895CF93DF93CDB7DEB7F0
:100A20000E94B31FDF91CF910895CF93DF93CDB78D
:100A3000DEB70E94901DDF91CF910895CF93DF9391
:100A4000CDB7DEB722970FB6F894DEBF0FBECDBF8D
:100A50001A82198210C089819A810E94201018166A
:100A6000190624F489819A810E949D1189819A81B5
:100A700001969A83898389819A81813691055CF3F5
:100A800022960FB6F894DEBF0FBECDBFDF91CF9197
:100A90000895CF93DF93CDB7DEB76B970FB6F89479
:100AA000DEBF0FBECDBF9F878E87798B688B5B8B38
:100AB0004A8BEE85FF8526813781408551858A895D
:100AC0009B89AA2797FDA095BA2F280F391F4A1F87
:100AD0005B1FEE85FF8584819581AA27BB2782173E
:100AE0009307A407B5072CF42FEF3FEF3D8B2C8B1A
:100AF00061C1EE85FF8586819781A085B18520E063
:100B000038E040E050E0BC01CD010E94D399DA0109
:100B1000C9019D878C87EE85FF85268137814085B9
:100B200051858A899B89AA2797FDA095BA2F820FA4
:100B3000931FA41FB51F0197A109B10920E038E058
:100B400040E050E0BC01CD010E94D399DA01C90117
:100B50009B878A872C853D858A859B852817390741
:100B600009F055C0EE85FF8586819781A085B18506
:100B700020E038E040E050E0BC01CD010E94D39974
:100B8000DC01CB019C838B838B819C8120E031E055
:100B9000B9010E949E999A8389838B819C819F8B46
:100BA0008E8B4E895F89552334F48E899F898150BD
:100BB0009F4F9F8B8E8B2E893F89832F992787FD8F
:100BC0009A959E838D839C85EE85FF858281692F12
:100BD0000E94D71A8987898599279C01220F331F84
:100BE000220F331F220F331F8D819E81820F931F8F
:100BF00008979E838D8369818A899B894889598951
:100C0000ED81FE819C01CF010E94F980D1C0EE856B
:100C1000FF8586819781A085B18520E038E040E09E
:100C200050E0BC01CD010E94D399DC01CB019C8333
:100C30008B838B819C8120E031E0B9010E949E99D9
:100C40009A8389838B819C81998F888F488D598D58
:100C5000552334F4888D998D81509F4F998F888FBB
:100C6000288D398D832F992787FD9A959E838D83B3
:100C70009C85EE85FF858281692F0E94D71A89871E
:100C8000898599279C01220F331F220F331F220FC2
:100C9000331F8D819E81820F931F08979E838D83C2
:100CA00020E031E089819A81A901481B590BCA01D2
:100CB00098878F8369818F81988548895989ED81CB
:100CC000FE819C01CF010E94F980288939898F819A
:100CD0009885820F931F998B888BEE85FF852681DF
:100CE0003781408551858A899B89AA2797FDA095E0
:100CF000BA2F820F931FA41FB51F0197A109B10935
:100D000020E038E040E050E0BC01CD010E94D399E2
:100D1000DC01CB019C838B838B819C8120E031E0C3
:100D2000B9010E949E999A8389838B819C819B8FB4
:100D30008A8F8A8D9B8D992334F42A8D3B8D215087
:100D40003F4F3B8F2A8F4A8D5B8D852F992787FDDB
:100D50009A959E838D839A85EE85FF858281692F82
:100D60000E94D71A8987898599279C01220F331FF2
:100D7000220F331F220F331F8D819E81820F931FFD
:100D800008979E838D832A893B898F819885A90145
:100D9000481B590BCA0198878F838F819885488992
:100DA0005989ED81FE819C0160E0CF010E94F980AC
:100DB0001D8A1C8A8C899D896B960FB6F894DEBFBC
:100DC0000FBECDBFDF91CF910895CF93DF93CDB705
:100DD000DEB76B970FB6F894DEBF0FBECDBF998B11
:100DE000888B7B8B6A8B5D8B4C8BE889F98926819C
:100DF0003781408551858C899D89AA2797FDA095CB
:100E0000BA2F280F391F4A1F5B1FE889F98984818F
:100E10009581AA27BB2782179307A407B5070CF073
:100E200084C0E889F98984819581892F99278695DD
:100E300086958695880F991F880F991F880F991F8F
:100E4000880F991F880F991F880F991F880F991F66
:100E5000880F991F880F991F880F991F880F991F56
:100E60009A838983E889F9898481958197700097AD
:100E700031F089819A818050984F9A838983E889DB
:100E8000F98926813781408551858C899D89AA27DA
:100E900097FDA095BA2F280F391F4A1F5B1F898124
:100EA0009A81AA27BB2782179307A407B50734F4B2
:100EB000E889F989828199270E94071BE889F989C5
:100EC00026813781408551858C899D89AA2797FD88
:100ED000A095BA2F280F391F4A1F5B1FE889F9898F
:100EE00084819581AA27BB2782179307A407B5079A
:100EF000E4F4E889F98986819781A085B1859C0110
:100F00008C899D89820F931FE889F9899583848351
:100F1000E889F98924813581E889F98982819927CD
:100F2000A9016DE170E00E94980DE889F989868138
:100F30009781A085B18520E038E040E050E0BC0119
:100F4000CD010E94D399DA01C9019F878E87E88974
:100F5000F98926813781408551858C899D89AA2709
:100F600097FDA095BA2F820F931FA41FB51F01975D
:100F7000A109B10920E038E040E050E0BC01CD011A
:100F80000E94D399DA01C9019D878C872E853F8500
:100F90008C859D852817390709F055C0E889F9899E
:100FA00086819781A085B18520E038E040E050E05F
:100FB000BC01CD010E94D399DC01CB019E838D83BE
:100FC0008D819E8120E031E0B9010E949E999C8331
:100FD0008B838D819E819F8B8E8B2E893F893323BE
:100FE00034F44E895F8941505F4F5F8B4E8B2E8961
:100FF0003F89832F992787FD9A9598878F839E85B0
:10100000E889F9898281692F0E94D71A8B878B859D
:1010100099279C01220F331F220F331F220F331FEA
:101020008F819885820F931F089798878F836B8194
:101030008C899D894A895B89EF81F8859C01CF0164
:101040000E941E81D1C0E889F98986819781A08597
:10105000B18520E038E040E050E0BC01CD010E94C5
:10106000D399DC01CB019E838D838D819E8120E00D
:1010700031E0B9010E949E999C838B838D819E8172
:10108000998F888F488D598D552334F4888D998D8B
:1010900081509F4F998F888F288D398D832F992765
:1010A00087FD9A9598878F839E85E889F989828143
:1010B000692F0E94D71A8B878B8599279C01220F55
:1010C000331F220F331F220F331F8F819885820F0A
:1010D000931F089798878F8320E031E08B819C8154
:1010E000A901481B590BCA019A8789876B81898599
:1010F0009A854A895B89EF81F8859C01CF010E941E
:101100001E812A893B8989859A85820F931F9B8B33
:101110008A8BE889F98926813781408551858C89B8
:101120009D89AA2797FDA095BA2F820F931FA41F10
:10113000B51F0197A109B10920E038E040E050E077
:10114000BC01CD010E94D399DC01CB019E838D832C
:101150008D819E8120E031E0B9010E949E999C839F
:101160008B838D819E819B8F8A8F8A8D9B8D992306
:1011700034F42A8D3B8D21503F4F3B8F2A8F4A8D6F
:101180005B8D852F992787FD9A9598878F839C85FE
:10119000E889F9898281692F0E94D71A8B878B850C
:1011A00099279C01220F331F220F331F220F331F59
:1011B0008F819885820F931F089798878F832C893A
:1011C0003D8989859A85A901481B590BCA019A87CF
:1011D000898789859A854A895B89EF81F8859C0191
:1011E00060E0CF010E941E8180E090E06B960FB618
:1011F000F894DEBF0FBECDBFDF91CF910895CF939E
:10120000DF93CDB7DEB762970FB6F894DEBF0FBE9F
:10121000CDBF988B8F877A8B698B89899A890E9439
:10122000730F9D838C8389899A890E9433919C01D5
:1012300089899A89820F931F9B838A838A819B81E4
:10124000282F8C819D81922F981B892F8983CE0115
:101250000B962F853889BC01C9010E9495189A8781
:10126000898789859A856FE170E00E94280C8E83BA
:101270008985682F8E810E94A11BCE010D96298938
:101280003A89BC01C9010E94951898878F832F81E4
:1012900089859A85422F6FE170E00E943C0D89811B
:1012A000482F55278C819D81E985FA859C0160E056
:1012B00070E0CF010E94A10E8981992729853A8586
:1012C00040E0BC01C9010E943C0D89859F81682FC7
:1012D000892F0E946A1B80E090E062960FB6F89416
:1012E000DEBF0FBECDBFDF91CF910895CF93DF93C7
:1012F000CDB7DEB766970FB6F894DEBF0FBECDBF91
:101300009C8B8B8B7E8B6D8B8D899E890E94730F3E
:10131000998788878D899E890E9433919C018D8948
:101320009E89820F931F9F838E838E819F81282F9A
:1013300088859985922F981B892F8B83CE010F96D4
:101340002B893C89BC01C9010E9495189E878D8715
:10135000CE0141962D893E89BC01C9010E94951894
:101360009C878B870E940D1F9D838C838C819D8120
:101370002D853E85BC01C9010E94CB148B81482F6D
:10138000552788859985EC81FD819C0160E070E09E
:10139000CF010E94A10E8B8199272C813D8140E0D5
:1013A000BC01C9010E943C0D2B858C819D81422F7F
:1013B0006FE170E00E943C0D8C819B85682F892F26
:1013C0000E946A1B1A8625C08A8599270E962D854C
:1013D0003E85BC01C9010E94280C8A838A8188232A
:1013E000A9F00E94D11C89838A8599270E962C81A9
:1013F0003D814981BC01C9010E943C0D8981282F92
:1014000033278A819927B9010E9401158A858F5F48
:101410008A878A858830C0F280E090E066960FB6B1
:10142000F894DEBF0FBECDBFDF91CF910895CF936B
:10143000DF93CDB7DEB726970FB6F894DEBF0FBEA9
:10144000CDBF9E838D83CE0103962D813E81BC014D
:10145000C9010E9495189A83898389819A810E9483
:101460008D1726960FB6F894DEBF0FBECDBFDF9165
:10147000CF910895CF93DF93CDB7DEB76B970FB6BB
:10148000F894DEBF0FBECDBF998F888F7B8F6A8F98
:101490008A8D9B8D9C01888D998D820F931F01975A
:1014A00098878F83EF81F88510828F8198850197C7
:1014B00098878F830E9482179A87898789859A8562
:1014C0009E01255F3F4FBC01C9010E944616CE0117
:1014D0000B960E9433919E838D834D818D819E81D9
:1014E0009C018F819885BC01621B730B9B01CE010F
:1014F0000B96BC01C9010E94768FEF81F8858FE2BF
:1015000080838D819E819C018F819885821B930BA6
:10151000019798878F8389859A856FE170E00E9493
:10152000280C99279A87898789859A85009709F0D9
:10153000C5CFEF81F8858FE280838A8D9B8D9C01DA
:10154000888D998D820F931F9C018F819885A901A9
:10155000481B590BCA0101979E838D83888D998DF5
:101560009A8389831C821B8215C0EF81F885808154
:10157000E981FA81808389819A8101969A8389839E
:101580008F819885019698878F838B819C810196A6
:101590009C838B832B813C818D819E812817390709
:1015A00024F389819A8101979A838983E981FA8159
:1015B00010826B960FB6F894DEBF0FBECDBFDF91E1
:1015C000CF9108950F931F93CF93DF93CDB7DEB7DD
:1015D00024970FB6F894DEBF0FBECDBF9A838983E0
:1015E0007C836B8389819A81EB81FC819C014CE037
:1015F00050E060E070E0CF010E946A0E89819A811C
:101600008C01045F1F4F8B819C816CE070E00E9415
:10161000280CF801808389819A818C01035F1F4F18
:101620008B819C816DE170E00E94280CF801808321
:1016300089819A818C01025F1F4F8B819C816EE1B1
:1016400070E00E94280CF801808324960FB6F8946D
:10165000DEBF0FBECDBFDF91CF911F910F910895D7
:10166000CF93DF93CDB7DEB729970FB6F894DEBFDF
:101670000FBECDBF9D838C837F836E835987488740
:101680008C819D819A838983EE81FF81108281E024
:101690008B831FC088859985BC018B810E944D1565
:1016A0008130910599F4EE81FF81808199279C0119
:1016B00089819A81F901E80FF91F8B818083EE817E
:1016C000FF8180818F5FEE81FF8180838B818F5FBF
:1016D0008B838B818136F0F229960FB6F894DEBFAA
:1016E0000FBECDBFDF91CF910895CF93DF93CDB7DC
:1016F000DEB70E942912DF91CF910895CF93DF9337
:10170000CDB7DEB76D970FB6F894DEBF0FBECDBF75
:10171000998F888F7B8F6A8F5D8F4C8F8A8D9B8D81
:101720009C01888D998D820F931F019798878F83D5
:10173000EF81F88510828F819885019798878F8334
:101740008C8D9D8D9A87898789859A859E01255FD5
:101750003F4FBC01C9010E944616CE010B960E9464
:1017600033919E838D834D818D819E819C018F81DC
:101770009885BC01621B730B9B01CE010B96BC01CB
:10178000C9010E94768FEF81F8858FE280838D8179
:101790009E819C018F819885821B930B019798876E
:1017A0008F8389859A856FE170E00E94280C9927C4
:1017B0009A87898789859A85009709F0C5CFEF8137
:1017C000F8858FE280838A8D9B8D9C01888D998D11
:1017D000820F931F9C018F819885A901481B590B8B
:1017E000CA0101979E838D83888D998D9A83898301
:1017F0001C821B8215C0EF81F8858081E981FA8106
:10180000808389819A8101969A8389838F819885C3
:10181000019698878F838B819C8101969C838B8313
:101820002B813C818D819E812817390724F3898182
:101830009A8101979A838983E981FA8110826D9652
:101840000FB6F894DEBF0FBECDBFDF91CF910895E4
:10185000CF93DF93CDB7DEB726970FB6F894DEBFF0
:101860000FBECDBF9C838B837E836D838B819C81D8
:101870009C01220F331F22953295307F3227207F23
:1018800032278D819E81820F931F9A83898389815C
:101890009A810E94C666992726960FB6F894DEBFF5
:1018A0000FBECDBFDF91CF910895CF93DF93CDB71A
:1018B000DEB726970FB6F894DEBF0FBECDBF9C8370
:1018C0008B837E836D838B819C819C01220F331FD0
:1018D00022953295307F3227207F32278D819E815D
:1018E000820F931F9A83898389819A810E94E0667F
:1018F000992787FD909526960FB6F894DEBF0FBE08
:10190000CDBFDF91CF910895CF93DF93CDB7DEB7F1
:1019100026970FB6F894DEBF0FBECDBF9C838B8396
:101920007E836D838B819C819C01220F331F2295C6
:101930003295307F3227207F32278D819E81820F22
:10194000931F9A83898389819A810E94FC662696D7
:101950000FB6F894DEBF0FBECDBFDF91CF910895D3
:10196000CF93DF93CDB7DEB726970FB6F894DEBFDF
:101970000FBECDBF9C838B837E836D838B819C81C7
:101980009C01220F331F22953295307F3227207F12
:1019900032278D819E81820F931F9A83898389814B
:1019A0009A810E94156726960FB6F894DEBF0FBE87
:1019B000CDBFDF91CF910895CF93DF93CDB7DEB741
:1019C00026970FB6F894DEBF0FBECDBF9C838B83E6
:1019D0007E836D838B819C819C01220F331F229516
:1019E0003295307F3227207F32278D819E81820F72
:1019F000931F9A83898389819A810E942E67DC01D3
:101A0000CB01BC01CD0126960FB6F894DEBF0FBE08
:101A1000CDBFDF91CF910895CF93DF93CDB7DEB7E0
:101A200026970FB6F894DEBF0FBECDBF9C838B8385
:101A30007E836D838B819C819C01220F331F2295B5
:101A40003295307F3227207F32278D819E81820F11
:101A5000931F9A83898389819A810E944B67DC0155
:101A6000CB01BC01CD0126960FB6F894DEBF0FBEA8
:101A7000CDBFDF91CF910895CF93DF93CDB7DEB780
:101A800027970FB6F894DEBF0FBECDBF9C838B8324
:101A90007E836D834F838B819C819C01220F331F3A
:101AA00022953295307F3227207F32278D819E818B
:101AB000820F931F9A83898389819A816F810E9403
:101AC000686727960FB6F894DEBF0FBECDBFDF91D3
:101AD000CF910895CF93DF93CDB7DEB727970FB699
:101AE000F894DEBF0FBECDBF9C838B837E836D8356
:101AF0004F838B819C819C01220F331F229532954D
:101B0000307F3227207F32278D819E81820F931F65
:101B10009A83898389819A816F810E94836727963E
:101B20000FB6F894DEBF0FBECDBFDF91CF91089501
:101B3000CF93DF93CDB7DEB728970FB6F894DEBF0B
:101B40000FBECDBF9C838B837E836D8358874F836D
:101B50008B819C819C01220F331F22953295307F0F
:101B60003227207F32278D819E81820F931F9A8397
:101B700089838F81988529813A81BC01C9010E949E
:101B80009E6728960FB6F894DEBF0FBECDBFDF91DB
:101B9000CF910895CF93DF93CDB7DEB728970FB6D7
:101BA000F894DEBF0FBECDBF9C838B837E836D8395
:101BB00058874F838B819C819C01220F331F229574
:101BC0003295307F3227207F32278D819E81820F90
:101BD000931F9A8389838F81988529813A81BC01DB
:101BE000C9010E94BD6728960FB6F894DEBF0FBEEC
:101BF000CDBFDF91CF910895CF93DF93CDB7DEB7FF
:101C00002A970FB6F894DEBF0FBECDBF9C838B839F
:101C10007E836D832F83388749875A878B819C8188
:101C20009C01220F331F22953295307F3227207F6F
:101C300032278D819E81820F931F9A8389838F81A2
:101C40009885A985BA8529813A81AC01BD01C90170
:101C50000E94DC672A960FB6F894DEBF0FBECDBF98
:101C6000DF91CF910895CF93DF93CDB7DEB72A9759
:101C70000FB6F894DEBF0FBECDBF9C838B837E83EF
:101C80006D832F83388749875A878B819C819C017C
:101C9000220F331F22953295307F3227207F322743
:101CA0008D819E81820F931F9A8389838F8198856E
:101CB000A985BA8529813A81AC01BD01C9010E947B
:101CC000DC672A960FB6F894DEBF0FBECDBFDF915A
:101CD000CF910895CF93DF93CDB7DEB72A970FB694
:101CE000F894DEBF0FBECDBF9C838B837E836D8354
:101CF00058874F833A8729878B819C819C01220FCB
:101D0000331F22953295307F3227207F32278D81F5
:101D10009E81820F931F9A83898389859A852F815B
:101D20003885E981FA81AC01B901CF010E945D6675
:101D30002A960FB6F894DEBF0FBECDBFDF91CF91CC
:101D40000895CF93DF93CDB7DEB72A970FB6F894F7
:101D5000DEBF0FBECDBF9C838B837E836D83588790
:101D60004F833A8729878B819C819C01220F331FE7
:101D700022953295307F3227207F32278D819E81B8
:101D8000820F931F9A83898389859A852F8138854D
:101D9000E981FA81AC01B901CF010E9481662A96DE
:101DA0000FB6F894DEBF0FBECDBFDF91CF9108957F
:101DB000CF93DF93CDB7DEB729970FB6F894DEBF88
:101DC0000FBECDBF9C838B837E836D8358874F83EB
:101DD00029878B819C819C01220F331F229532958C
:101DE000307F3227207F32278D819E81820F931F83
:101DF0009A8389838F81988529813A814985BC019D
:101E0000C9010E94A56629960FB6F894DEBF0FBEE1
:101E1000CDBFDF91CF910895CF93DF93CDB7DEB7DC
:101E200028970FB6F894DEBF0FBECDBF9E838D837B
:101E300078876F838F8198859A8389838D819E812E
:101E40009C838B83EB81FC8180818F32B1F48B8109
:101E50009C8101969C838B8310C0EB81FC818081E7
:101E6000E981FA81808389819A8101969A838983A5
:101E70008B819C8101969C838B83EB81FC8180818B
:101E800081362CF0EB81FC8180818B3734F3EB8140
:101E9000FC81808181342CF0EB81FC8180818B3549
:101EA000E4F2EB81FC8180818F35B9F2EB81FC811A
:101EB00080818E3291F2EB81FC81808180332CF025
:101EC000EB81FC8180818A3344F2E981FA811082BE
:101ED0008B819C8128960FB6F894DEBF0FBECDBFD4
:101EE000DF91CF910895CF93DF93CDB7DEB72A97D7
:101EF0000FB6F894DEBF0FBECDBF98878F838F815A
:101F000098850E9433919A83898329813A818F81B0
:101F10009885820F931F01979E838D838F8198856B
:101F20009C838B8305C08D819E8101979E838D83C9
:101F3000ED81FE8180818F3239F02D813E818B8150
:101F40009C812817390779F72D813E818B819C81EF
:101F50002817390751F4EB81FC8180818F3229F0F9
:101F60008D819E819A87898709C08D819E81019686
:101F70009E838D838D819E819A87898789859A85A5
:101F80002A960FB6F894DEBF0FBECDBFDF91CF917A
:101F90000895CF93DF93CDB7DEB724970FB6F894AB
:101FA000DEBF0FBECDBF9A83898389819A810E944B
:101FB00033918130910559F5E981FA818081823729
:101FC00029F481E090E09C838B832FC0E981FA8122
:101FD0008081873729F482E090E09C838B8325C041
:101FE000E981FA818081813629F483E090E09C8345
:101FF0008B831BC0E981FA818081843729F484E0D6
:1020000090E09C838B8311C01C821B820EC089814F
:102010009A810E9433918230910529F485E090E005
:102020009C838B8302C01C821B828B819C812496A3
:102030000FB6F894DEBF0FBECDBFDF91CF910895EC
:10204000CF93DF93CDB7DEB726970FB6F894DEBFF8
:102050000FBECDBF9C838B838B819C816DE070E034
:102060000E94280C8A838B819C816CE070E00E9426
:10207000280C89838A81882319F41E821D8205C059
:102080008981282F33273E832D838D819E8126963B
:102090000FB6F894DEBF0FBECDBFDF91CF9108958C
:1020A0000F93CF93DF93CDB7DEB72B970FB6F8948E
:1020B000DEBF0FBECDBF9E838D8378876F83498738
:1020C0002A870B878F8198850E9433918C838C811E
:1020D0008C3018F48C818F5F8C838B858130D9F59F
:1020E0008C81482F55278F819885ED81FE819C0139
:1020F00060E070E0CF010E94A10E8D819E814B8532
:102100006CE070E00E943C0D8D819E8141E06DE0AD
:1021100070E00E943C0D8D819E8120E04EE050E0F9
:102120006EE070E00E94D80E8D819E8149856CE141
:1021300070E00E943C0D8D819E8140E050E06DE199
:1021400070E00E94980D8D819E814A856FE170E05C
:102150000E943C0DB9C08B858230D9F58C81482F07
:1021600055278F819885ED81FE819C0160E070E0AC
:10217000CF010E94A10E8D819E814B856CE070E0A5
:102180000E943C0D8D819E8141E06DE070E00E94D7
:102190003C0D8D819E8120E04EE050E06EE070E0CD
:1021A0000E94D80E8D819E8149856CE170E00E946D
:1021B0003C0D8D819E8140E050E06DE170E00E9419
:1021C000980D8D819E814A856FE170E00E943C0DE3
:1021D0007BC08B858330D9F58C81482F55278F8123
:1021E0009885ED81FE819C0160E070E0CF010E9446
:1021F000A10E8D819E814B856CE070E00E943C0DAC
:102200008D819E8141E06DE070E00E943C0D8D81EA
:102210009E8120E04EE050E06EE070E00E94D80E1B
:102220008D819E8149856CE170E00E943C0D8D811D
:102230009E8140E050E06DE170E00E94980D8D813C
:102240009E814A856FE170E00E943C0D3DC08B8508
:102250008430D1F58C81482F55278F819885ED8169
:10226000FE819C0160E070E0CF010E94A10E8D8193
:102270009E814B856CE070E00E943C0D8D819E81BB
:1022800041E06DE070E00E943C0D8D819E8120E078
:102290004EE050E06EE070E00E94D80E8D819E818D
:1022A00049856CE170E00E943C0D8D819E8140E08B
:1022B00050E06DE170E00E94980D8D819E814A850D
:1022C0006FE170E00E943C0D8D819E81009721F4AA
:1022D0008A85882309F427C01B821A821FC08A813D
:1022E0009B819C01225F3F4F8A859927B9010E94FB
:1022F000280C89838981882361F44D818A819B819F
:102300009C01225F3F4F8A859927B9010E943C0DAD
:102310000AC08A819B8101969B838A838A819B81E3
:102320008A309105E4F22B960FB6F894DEBF0FBE0B
:10233000CDBFDF91CF910F9108950F931F93CF934E
:10234000DF93CDB7DEB7A7970FB6F894DEBF0FBE09
:10235000CDBF9FA38EA31B8ACE010796EEA1FFA13E
:102360009C014CE050E060E070E0CF010E946A0EFA
:102370008EA19FA16CE070E00E94280C8C838EA13E
:102380009FA16DE070E00E94280C8B838B818823D5
:1023900011F18C818130F9F41A82198217C00981F8
:1023A0001A8189819A810E962EA13FA1BC01C90193
:1023B0000E94280C282FCE014496FC01E00FF11F4B
:1023C000208389819A8101969A83898389819A8160
:1023D0008A30910524F38B81882311F18C8182301E
:1023E000F9F41A82198217C009811A8189819A81A8
:1023F0000E962EA13FA1BC01C9010E94280C282FD6
:10240000CE014E96FC01E00FF11F208389819A8155
:1024100001969A83898389819A818830910524F372
:102420008EA19FA16CE170E00E94280C8E838EA18A
:102430009FA16FE170E00E94280C8D83A7960FB6D4
:10244000F894DEBF0FBECDBFDF91CF911F910F91EA
:102450000895CF93DF93CDB7DEB722970FB6F894E8
:10246000DEBF0FBECDBF1A8219820EC089819A814C
:1024700020E040E250E060E070E00E94D80E8981E8
:102480009A8101969A83898389819A8181369105FF
:102490006CF30E94AB1C0E94E71E22960FB6F894C4
:1024A000DEBF0FBECDBFDF91CF910895CF93DF93F5
:1024B000CDB7DEB70E94AB1C0E94E71EDF91CF9123
:1024C0000895CF93DF93CDB7DEB762970FB6F89438
:1024D000DEBF0FBECDBF9A8B898B89899A896CE04C
:1024E00070E00E94280C888B89899A896FE170E0DE
:1024F0000E94280C8F878889813009F050C01E8681
:1025000014C08E8599270E9629893A89BC01C90184
:102510000E94280C8D878D85882321F08D85992731
:102520000E9461128E858F5F8E878E858A3048F378
:1025300089899A8940E06DE070E00E943C0D8989AC
:102540009A89009721F48F85882309F42DC11C8670
:1025500022C08C8599279C01225F3F4F8F85992748
:10256000B9010E94280C8B878B85282F33278989F6
:102570009A892817390761F48C8599279C01225F75
:102580003F4F8F85992740E0B9010E943C0D0CC157
:102590008C858F5F8C878C858A30D8F205C18889BD
:1025A000823009F084C089899A8940E06DE070E04A
:1025B0000E943C0D89899A89009721F48F85882390
:1025C00009F42BC01A8626C08A85992787FD909525
:1025D0009C01225F3F4F8F859927B9010E94280CEB
:1025E00088878885282F332789899A89281739076A
:1025F00071F48A85992787FD90959C01225F3F4F52
:102600008F85992740E0B9010E943C0D06C08A855C
:102610008F5F8A878A858A30BCF21A8616C08A85BF
:10262000992787FD90950E9629893A89BC01C901A1
:102630000E94280C89878985882351F089859927EC
:102640000E94701D8A858F5F8A878A8588303CF357
:1026500089898F8300C08F81992768E170E00E948B
:10266000280C8F838F81882309F49EC08F8199273E
:102670000E94931F1A8617C08A85992787FD909517
:102680009C01225F3F4F8F819927B9010E94280C3E
:10269000898789858823F9F2898599270E94701D89
:1026A0008A858F5F8A878A85883034F3D4CF88897A
:1026B0008330E1F589899A8940E06DE070E00E94FD
:1026C0003C0D89899A89009721F48F85882309F424
:1026D0006BC01E821D8224C08D819E819C01225F61
:1026E0003F4F8F859927B9010E94280C8C838C81DC
:1026F000282F332789899A892817390761F48D8112
:102700009E819C01225F3F4F8F85992740E0B90150
:102710000E943C0D49C08D819E8101969E838D83D0
:102720008D819E818A309105BCF23EC088898430BB
:10273000D9F589899A8940E06DE070E00E943C0DEE
:1027400089899A89009721F48F85882309F42CC000
:102750001B821A8224C08A819B819C01225F3F4F89
:102760008F859927B9010E94280C89838981282F98
:10277000332789899A892817390761F48A819B81CF
:102780009C01225F3F4F8F85992740E0B9010E944D
:102790003C0D0AC08A819B8101969B838A838A8132
:1027A0009B818A309105BCF289899A890E94931F86
:1027B00062960FB6F894DEBF0FBECDBFDF91CF910A
:1027C00008950F93CF93DF93CDB7DEB780E091E00C
:1027D00001E020E040E0BC0180E090E00E94501069
:1027E000DF91CF910F910895CF93DF93CDB7DEB7EF
:1027F000DF91CF9108950F931F93CF93DF93CDB7C0
:10280000DEB725970FB6F894DEBF0FBECDBF0E948E
:102810000D1F8D838D81E82FFF2785E091E001E07A
:1028200020E040E0BC01CF010E9450100E9405371B
:102830009C838B830E940E379A83898389819A8136
:102840002B813C8141EB51E569E071E08C018D8188
:102850000E94711489819A812B813C8144E159E362
:102860006DE071E08C018D810E94711489819A81E3
:102870002B813C8141E359E363E171E08C018D815F
:102880000E94711489819A812B813C8148E859E327
:1028900068E171E08C018D810E94711489819A81B7
:1028A0002B813C814EE459E36FE171E08C018D8115
:1028B0000E94711489819A812B813C8144EF53E1FC
:1028C00065E271E08C018D810E94711425960FB62E
:1028D000F894DEBF0FBECDBFDF91CF911F910F9156
:1028E00008950F931F93CF93DF93CDB7DEB72C9747
:1028F0000FB6F894DEBF0FBECDBF8C837E836D8391
:1029000058874F833A8729871C870B870E940D1FA2
:102910008B838B81E82FFF278D819E8103E02C81A3
:1029200040E0BC01CF010E9450108F8198859A83AE
:1029300089838B81282F332789819A81AC016EE0AE
:1029400070E0C9010E94980D89859A859A838983D0
:1029500029813A818B819927A90160E170E00E9469
:10296000CA0D8B859C859A8389838B81282F332779
:1029700089819A81AC0162E170E0C9010E94980DE1
:102980002C960FB6F894DEBF0FBECDBFDF91CF916E
:102990001F910F910895CF93DF93CDB7DEB727979F
:1029A0000FB6F894DEBF0FBECDBF9D838C837F83AF
:1029B0006E831B821A8217C08A819B812C813D8184
:1029C000BC01C9010E94280C89838A819B812E81C8
:1029D0003F814981BC01C9010E943C0D8A819B81D4
:1029E00001969B838A838A819B818032910524F39F
:1029F00027960FB6F894DEBF0FBECDBFDF91CF9103
:102A00000895CF93DF93CDB7DEB72A970FB6F8942A
:102A1000DEBF0FBECDBF98878F837A8769871E82FE
:102A20001D822DC08F8198859C01220F331F220F9C
:102A3000331F220F331F8D819E81820F931F0897B2
:102A40009C838B8389859A859C01220F331F220FDB
:102A5000331F220F331F8D819E81820F931F089792
:102A60009A83898389819A812B813C81BC01C90128
:102A70000E94843C8D819E8101969E838D838D81F1
:102A80009E818830910574F22A960FB6F894DEBFC5
:102A90000FBECDBFDF91CF910895CF93DF93CDB718
:102AA000DEB765970FB6F894DEBF0FBECDBF898B3A
:102AB0007B8B6A8B898999276DE070E00E94280CD6
:102AC00089838981882319F41D8A1C8A31C08989E8
:102AD000E82FFF27CE0104969C014CE050E060E017
:102AE00070E0CF010E946A0E188ACE0104960E94FF
:102AF00033918B831A8216C08A8199279C01CE015B
:102B00000496820F931F2A893B89B9010E949090F5
:102B1000009729F481E090E09D8B8C8B09C08A811D
:102B20008F5F8A839A818B81981730F31D8A1C8A64
:102B30008C899D8965960FB6F894DEBF0FBECDBF18
:102B4000DF91CF9108951F93CF93DF93CDB7DEB779
:102B50002A970FB6F894DEBF0FBECDBF9E838D833C
:102B600078876F831A8219828D819E810E943391AA
:102B70008D3091052CF081E090E09A87898742C0E2
:102B80008F8198850E942010009729F481E090E0C1
:102B90009A87898737C01A8219822DC08D819E81BC
:102BA0009C838B8389819A819C018B819C81820F7C
:102BB000931F9C838B83EB81FC818081182F8981FB
:102BC0009A812F813885BC01C9010E94280C1817F1
:102BD00029F081E090E09A87898714C0EB81FC811D
:102BE0008081882319F41A8619860CC089819A81FC
:102BF00001969A83898389819A818C30910574F238
:102C00001A86198689859A852A960FB6F894DEBFAA
:102C10000FBECDBFDF91CF911F910895CF93DF936A
:102C2000CDB7DEB727970FB6F894DEBF0FBECDBF86
:102C30009D838C831B821A8215C08A819B810E968C
:102C40002C813D81BC01C9010E94280C89838981A6
:102C5000882319F41F821E820EC08A819B810196EF
:102C60009B838A838A819B818A30910534F381E03A
:102C700090E09F838E838E819F8127960FB6F89474
:102C8000DEBF0FBECDBFDF91CF910895CF93DF930D
:102C9000CDB7DEB728970FB6F894DEBF0FBECDBF15
:102CA0009E838D8378876F838D819E819A838983AC
:102CB0001C821B821AC08B819C812F813885BC01AC
:102CC000C9010E94280CE981FA818083E981FA8197
:102CD0008081882379F089819A8101969A838983FA
:102CE0008B819C8101969C838B838B819C818C3012
:102CF00091050CF3E981FA81108228960FB6F894B9
:102D0000DEBF0FBECDBFDF91CF910895CF93DF938C
:102D1000CDB7DEB729970FB6F894DEBF0FBECDBF93
:102D20009D838C837F836E831B821A821FC08A815E
:102D30009B810E962E813F81BC01C9010E94280C07
:102D40008983898199272C813D81BC01C9010E9419
:102D5000A315009731F48981282F332739872887D5
:102D60000EC08A819B8101969B838A838A819B8185
:102D70008A309105E4F28FEF9FEF998788878885E5
:102D8000998529960FB6F894DEBF0FBECDBFDF91AF
:102D9000CF910895CF93DF93CDB7DEB723970FB6CA
:102DA000F894DEBF0FBECDBF9B838A838A819B814F
:102DB0006FE170E00E94280C89838981992723960E
:102DC0000FB6F894DEBF0FBECDBFDF91CF9108954F
:102DD000CF93DF93CDB7DEB72A970FB6F894DEBF57
:102DE0000FBECDBF9E838D8378876F831C821B822D
:102DF0002AC08B819C810E962F813885BC01C90128
:102E00000E94280C8983898199272D813E81BC01EC
:102E1000C9010E94A315009789F4898199270E940E
:102E200020108A838A81882349F08981882331F0A0
:102E30008A81282F33273A8729870CC08B819C8170
:102E400001969C838B838B819C818A3091058CF2C7
:102E50001A86198689859A852A960FB6F894DEBF58
:102E60000FBECDBFDF91CF910895CF93DF93CDB744
:102E7000DEB72A970FB6F894DEBF0FBECDBF9E8394
:102E80008D8378876F831C821B822AC08B819C81F3
:102E90000E962F813885BC01C9010E94280C8983B8
:102EA000898199272D813E81BC01C9010E94A3150A
:102EB000009789F4898199270E9420108A838A814A
:102EC000882349F08981882331F08981282F33278D
:102ED0003A8729870CC08B819C8101969C838B83C8
:102EE0008B819C818A3091058CF21A86198689859E
:102EF0009A852A960FB6F894DEBF0FBECDBFDF913C
:102F0000CF910895CF93DF93CDB7DEB78091700155
:102F100090917101DF91CF910895CF93DF93CDB759
:102F2000DEB722970FB6F894DEBF0FBECDBF9A83EF
:102F3000898389819A81909371018093700122968F
:102F40000FB6F894DEBF0FBECDBFDF91CF910895CD
:102F5000CF93DF93CDB7DEB727970FB6F894DEBFD8
:102F60000FBECDBF9D838C831B821A8217C08A81BE
:102F70009B810E962C813D81BC01C9010E94280CC9
:102F800089838981882329F081E090E09F838E8363
:102F90000CC08A819B8101969B838A838A819B8155
:102FA0008A30910524F31F821E828E819F8127968D
:102FB0000FB6F894DEBF0FBECDBFDF91CF9108955D
:102FC0000F93CF93DF93CDB7DEB727970FB6F89463
:102FD000DEBF0FBECDBF9B838A837D836C838C81D4
:102FE0009D812A813B81BC01C9010E9435171816B9
:102FF00019061CF41F821E821FC08C819D810E94B5
:103000000E16813029F42FEF30E03F832E8314C059
:103010000E940D1F89832C818981E82FFF278A81D7
:103020009B8101E040E0BC01CF010E9450108981EA
:10303000282F33273F832E838E819F8127960FB6BB
:10304000F894DEBF0FBECDBFDF91CF910F910895F1
:103050000F93CF93DF93CDB7DEB727970FB6F894D2
:10306000DEBF0FBECDBF9B838A837D836C838C8143
:103070009D812A813B81BC01C9010E943517181628
:1030800019061CF41F821E821FC08C819D810E9424
:103090000E16813029F42FEF30E03F832E8314C0C9
:1030A0000E940D1F89832C818981E82FFF278A8147
:1030B0009B8102E040E0BC01CF010E945010898159
:1030C000282F33273F832E838E819F8127960FB62B
:1030D000F894DEBF0FBECDBFDF91CF910F91089561
:1030E000CF93DF93CDB7DEB724970FB6F894DEBF4A
:1030F0000FBECDBF9A83898389819A810E94201057
:103100008130910529F481E090E09C838B8302C09B
:103110001C821B828B819C8124960FB6F894DEBFA3
:103120000FBECDBFDF91CF910895CF93DF93CDB781
:10313000DEB76D970FB6F894DEBF0FBECDBF9F8B85
:103140008E8B798F688FEE89FF89808188878E8941
:103150009F89FC01319680818F838E899F899E8310
:103160008D830E9482179C838B8388858E3279F4AD
:103170008F818E3261F48B819C810E94CA169C8360
:103180008B838E899F8902969E838D838AC08885D2
:103190008E3249F48F818F3231F48E899F89019666
:1031A0009E838D837EC088858F3239F41C821B827A
:1031B0008E899F899E838D8374C0888581361CF09B
:1031C00088858B3734F08885813444F088858B3549
:1031D0002CF481E090E09D8F8C8F02C01D8E1C8EA0
:1031E0008C8D9D8D8130910509F05BC0CE010996D3
:1031F0002D813E81BC01C9010E940C0F9E838D83ED
:103200008D819E81009771F58B819C819E01275F46
:103210003F4FBC01C9010E94E8169A8389838981C6
:103220009A81009749F4E88DF98D118210828B8183
:103230009C819B8F8A8F9DC0E88DF98D89819A81B1
:10324000918380838B819C819E01275F3F4FBC01CE
:10325000C9010E9486169A83898389819A819B8FEE
:103260008A8F87C08B819C819E01275F3F4FBC0165
:10327000C9010E94E8169A83898389819A810097FF
:1032800029F48FEF9FEF9B8F8A8F73C08B819C8176
:103290009E01275F3F4FBC01C9010E9486169C8397
:1032A0008B838B819C810E947018009729F48FEF8B
:1032B0009FEF9B8F8A8F5DC0CE0109962D813E8145
:1032C000BC01C9010E940C0F9E838D83ED81FE819C
:1032D0008081882371F58B819C819E01275F3F4F00
:1032E000BC01C9010E94E8169A83898389819A8169
:1032F000009749F4E88DF98D118210828B819C81B1
:103300009B8F8A8F36C0E88DF98D89819A81918350
:1033100080838B819C819E01275F3F4FBC01C90147
:103320000E9486169A83898389819A819B8F8A8FCE
:1033300020C08B819C819E01275F3F4FBC01C9014A
:103340000E94E8169A83898389819A81009729F4DB
:103350008FEF9FEF9B8F8A8F0CC08B819C819E018A
:10336000275F3F4FBC01C9010E9486169C838B8357
:1033700098CF8A8D9B8D6D960FB6F894DEBF0FBEE9
:10338000CDBFDF91CF910895CF93DF93CDB7DEB757
:1033900025970FB6F894DEBF0FBECDBF9D838C83FB
:1033A0001B821A8216C08A819B810E962C813D81D8
:1033B000BC01C9010E94280C89838981882371F08E
:1033C000898199270E94701D8A819B8101969B8328
:1033D0008A838A819B81883091052CF325960FB6CC
:1033E000F894DEBF0FBECDBFDF91CF9108950F934C
:1033F0001F93CF93DF93CDB7DEB726970FB6F89420
:10340000DEBF0FBECDBF9A8389837C836B835E83CF
:103410004D838B819C814981880F991F9C01220FCC
:10342000331F220F331F820F931FFC01ED5EFB4FF2
:1034300040838B819C814D81880F991F9C01220FB5
:10344000331F220F331F820F931FFC01EC5EFB4FD3
:1034500040830B811C8189819A816DE170E00E941B
:10346000840CAC01C801880F991F9C01220F331FE7
:10347000220F331F820F931FFC01EB5EFB4F518322
:1034800040838D819E818130910591F48B819C8157
:10349000880F991F9C01220F331F220F331F820FA9
:1034A000931FFC01E95EFB4F10821182128213828E
:1034B0008D819E818230910591F48B819C81880F52
:1034C000991F9C01220F331F220F331F820F931F5E
:1034D000FC01E95EFB4F10821182128213828D8102
:1034E0009E818330910531F5AB81BC818B819C81BC
:1034F000880F991F9C01220F331F220F331F820F49
:10350000931FFC01EB5EFB4F80819181AC0166272C
:103510007727CD01880F991F9C01220F331F220F9F
:10352000331F820F931FFC01E95EFB4F40835183E1
:10353000628373838D819E8184309105B1F489818A
:103540009A810E94C4198B819C81880F991F9C01CC
:10355000220F331F220F331F820F931FFC01E95EDE
:10356000FB4F10821182128213828D819E818530E1
:10357000910591F48B819C81880F991F9C01220FEA
:10358000331F220F331F820F931FFC01E95EFB4F95
:10359000108211821282138226960FB6F894DEBF33
:1035A0000FBECDBFDF91CF911F910F910895CF93A3
:1035B000DF93CDB7DEB723970FB6F894DEBF0FBE0B
:1035C000CDBF8A836B838A8189830AC089819927C9
:1035D00068E170E00E94280C89838B8188508B837E
:1035E0008B81883098F78B8199279C01225F3F4F10
:1035F00089819927B9010E94280C992723960FB633
:10360000F894DEBF0FBECDBFDF91CF910895CF9369
:10361000DF93CDB7DEB727970FB6F894DEBF0FBEA6
:10362000CDBF9F838E838E818A831D8211C08D8141
:1036300099279C01225F3F4F8A819927B9010E94F7
:10364000280C8C838C81882331F08D818F5F8D8352
:103650008D81883060F38D81883078F40E94D11C90
:103660008C838D8199279C01225F3F4F8A81992706
:103670004C81B9010E943C0D24C08A81992768E1E0
:1036800070E00E94280C8B838B818823B9F40E9400
:103690000D1F89838A819927498168E170E00E9422
:1036A0003C0D89818A830E94D11C8C838A81992751
:1036B0004C816EE070E00E943C0D03C08B818A83D8
:1036C000B4CF27960FB6F894DEBF0FBECDBFDF9103
:1036D000CF910895CF93DF93CDB7DEB724970FB680
:1036E000F894DEBF0FBECDBF8B836C831A821DC0E2
:1036F0008A8199279C01225F3F4F8B819927B901CD
:103700000E94280C89838981882361F48A81992702
:103710009C01225F3F4F8B8199274C81B9010E9408
:103720003C0D06C08A818F5F8A838A818A3000F3CC
:1037300024960FB6F894DEBF0FBECDBFDF91CF91B8
:103740000895CF93DF93CDB7DEB724970FB6F894E3
:10375000DEBF0FBECDBF8B836C831A821EC08A81F1
:1037600099279C01225F3F4F8B819927B9010E94C5
:10377000280C898399818C81981761F48A81992713
:103780009C01225F3F4F8B81992740E0B9010E9445
:103790003C0D06C08A818F5F8A838A818A30F8F265
:1037A00024960FB6F894DEBF0FBECDBFDF91CF9148
:1037B0000895CF93DF93CDB7DEB782E791E0AC01F8
:1037C00060E270E08EE49CE00E948166DF91CF9120
:1037D0000895CF93DF93CDB7DEB782E791E0AC01D8
:1037E00060E270E08EE49CE00E945D66DF91CF9124
:1037F0000895CF93DF93CDB7DEB726970FB6F89431
:10380000DEBF0FBECDBF9A8389837C836B838B81A0
:103810009C819E838D832D813E8133232CF48D8169
:103820009E8107969E838D838D819E819595879538
:1038300095958795959587959C0189819A81820FA9
:10384000931F9A838983E981FA818081E82FFF277A
:10385000E7FDF0958B819C8128E030E0B9010E9462
:103860009E999F0102C0359527958A95E2F7C90177
:103870008170907026960FB6F894DEBF0FBECDBF54
:10388000DF91CF910895CF93DF93CDB7DEB728971F
:103890000FB6F894DEBF0FBECDBF9A8389837C83B9
:1038A0006B835E834D838B819C8198878F838F810F
:1038B000988599232CF48F819885079698878F8314
:1038C0008F819885959587959595879595958795F9
:1038D0009C0189819A81820F931F9A8389838D81AC
:1038E0009E810097C1F0E981FA8140818B819C81A2
:1038F00028E030E0B9010E949E999C0181E090E0AF
:10390000022E02C0880F991F0A94E2F7842BE981E6
:10391000FA81808317C0E981FA8140818B819C8183
:1039200028E030E0B9010E949E999C0181E090E07E
:1039300002C0880F991F2A95E2F780958423E981B8
:10394000FA81808328960FB6F894DEBF0FBECDBFF4
:10395000DF91CF910895CF93DF93CDB7DEB7229754
:103960000FB6F894DEBF0FBECDBF1A8219820BC00E
:1039700089819A81FC01EE58FE4F108289819A81DB
:1039800001969A83898389819A818032910584F393
:1039900022960FB6F894DEBF0FBECDBFDF91CF9158
:1039A0000895CF93DF93CDB7DEB724970FB6F89481
:1039B000DEBF0FBECDBF1A82198221C089819A81D4
:1039C00022E731E0BC01C9010E94F91B009791F484
:1039D00089819A8122E731E041E050E0BC01C901D0
:1039E0000E94431C89819A819C012F5F3F4F3C8339
:1039F0002B830FC089819A8101969A83898389815B
:103A00009A818F3F9105D1F2CCF28FEF9FEF9C838B
:103A10008B838B819C8124960FB6F894DEBF0FBEFA
:103A2000CDBFDF91CF910895CF93DF93CDB7DEB7B0
:103A300028970FB6F894DEBF0FBECDBF18861F8241
:103A400040C08F81988501969E838D838D819E8154
:103A50006DE070E00E94280C8C838D819E816CE06B
:103A600070E00E94280C8B838C81813029F58B813A
:103A7000823011F519821DC08981992787FD9095A3
:103A80000E962D813E81BC01C9010E94280C8A83BB
:103A90008A81882359F08A819927019722E731E0AA
:103AA00041E050E0BC01C9010E94431C89818F5F45
:103AB00089838981883004F38F819885019698875E
:103AC0008F838F819885803691050CF4BACF289624
:103AD0000FB6F894DEBF0FBECDBFDF91CF91089532
:103AE000CF93DF93CDB7DEB722970FB6F894DEBF42
:103AF0000FBECDBF9A83898389819A81019722E77E
:103B000031E040E050E0BC01C9010E94431C229614
:103B10000FB6F894DEBF0FBECDBFDF91CF910895F1
:103B2000CF93DF93CDB7DEB724970FB6F894DEBFFF
:103B30000FBECDBF1C821B821A82198215C08981DB
:103B40009A8122E731E0BC01C9010E94F91B813052
:103B5000910529F48B819C8101969C838B838981BB
:103B60009A8101969A83898389819A818F3F9105F1
:103B700031F32CF320E031E08B819C81A901481BBB
:103B8000590BCA0124960FB6F894DEBF0FBECDBF05
:103B9000DF91CF910895CF93DF93CDB7DEB7C250B9
:103BA000D2400FB6F894DEBF0FBECDBF1A82198285
:103BB0002CC089819A8122E731E0BC01C9010E94B1
:103BC000F91B009771F489819A819C01220F331FA0
:103BD000CE010196820F931FFC0132961182108252
:103BE0000FC089819A819C01220F331FCE0101965B
:103BF000820F931FFC01329681E090E091838083D5
:103C000089819A8101969A83898389819A818F3FDC
:103C1000910579F274F2CE5FDD4F0FB6F894DEBFF6
:103C20000FBECDBFDF91CF910895CF93DF93CDB776
:103C3000DEB789E394E0AC016CE070E082E49CE0E4
:103C40000E945D66DF91CF910895CF93DF93CDB74A
:103C5000DEB789E394E0AC016CE070E082E49CE0C4
:103C60000E948166DF91CF910895CF93DF93CDB706
:103C7000DEB726970FB6F894DEBF0FBECDBF9A838E
:103C800089837C836B838B819C819E838D832D8133
:103C90003E8133232CF48D819E8107969E838D83F4
:103CA0008D819E8195958795959587959595879515
:103CB0009C0189819A81820F931F9A838983E9816C
:103CC000FA818081E82FFF27E7FDF0958B819C81A9
:103CD00028E030E0B9010E949E999F0102C035950D
:103CE00027958A95E2F7C9018170907026960FB6E4
:103CF000F894DEBF0FBECDBFDF91CF910895CF9373
:103D0000DF93CDB7DEB728970FB6F894DEBF0FBEAE
:103D1000CDBF9A8389837C836B835E834D838B8144
:103D20009C8198878F838F81988599232CF48F812C
:103D30009885079698878F838F8198859595879525
:103D400095958795959587959C0189819A81820F94
:103D5000931F9A8389838D819E810097C1F0E981A9
:103D6000FA8140818B819C8128E030E0B9010E947A
:103D70009E999C0181E090E0022E02C0880F991F5D
:103D80000A94E2F7842BE981FA81808317C0E981E4
:103D9000FA8140818B819C8128E030E0B9010E944A
:103DA0009E999C0181E090E002C0880F991F2A959E
:103DB000E2F780958423E981FA81808328960FB603
:103DC000F894DEBF0FBECDBFDF91CF910895CF93A2
:103DD000DF93CDB7DEB722970FB6F894DEBF0FBEE4
:103DE000CDBF1A8219820BC089819A81FC01E75CE0
:103DF000FB4F108289819A8101969A8389838981F8
:103E00009A818C30910584F322960FB6F894DEBF28
:103E10000FBECDBFDF91CF910895CF93DF93CDB784
:103E2000DEB724970FB6F894DEBF0FBECDBF1A825F
:103E3000198221C089819A8129E334E0BC01C9013A
:103E40000E94351E009791F489819A8129E334E01C
:103E500041E050E0BC01C9010E947F1E89819A8126
:103E60009C012F5F3F4F3C832B830EC089819A8139
:103E700001969A83898389819A8180369105D4F24B
:103E80008FEF9FEF9C838B838B819C8124960FB651
:103E9000F894DEBF0FBECDBFDF91CF910895CF93D1
:103EA000DF93CDB7DEB725970FB6F894DEBF0FBE10
:103EB000CDBF1D821C8229C08C819D8101969B8370
:103EC0008A838A819B816DE070E00E94280C89833F
:103ED0008981882359F48C819D8129E334E040E075
:103EE00050E0BC01C9010E947F1E0AC08C819D81E7
:103EF00029E334E041E050E0BC01C9010E947F1E8B
:103F00008C819D8101969D838C838C819D818036DF
:103F1000910594F225960FB6F894DEBF0FBECDBF83
:103F2000DF91CF910895CF93DF93CDB7DEB722977E
:103F30000FB6F894DEBF0FBECDBF9A838983898107
:103F40009A81019729E334E040E050E0BC01C901C7
:103F50000E947F1E22960FB6F894DEBF0FBECDBF23
:103F6000DF91CF910895CF93DF93CDB7DEB724973C
:103F70000FB6F894DEBF0FBECDBF1A8219821C8225
:103F80001B8215C08B819C8129E334E0BC01C901EF
:103F90000E94351E8130910529F489819A8101960C
:103FA0009A8389838B819C8101969C838B838B81EF
:103FB0009C818036910534F320E630E089819A8136
:103FC000A901481B590BCA0124960FB6F894DEBF0D
:103FD0000FBECDBFDF91CF910895CF93DF93CDB7C3
:103FE000DEB7E0E9F0E01082E9E2F0E08FE0808304
:103FF000ABE2B0E0EBE2F0E0808182608C93A5E977
:10400000B0E0E5E9F0E0808186608C93AAE2B0E060
:10401000EAE2F0E0808188698C9381E080939201EC
:104020001092B4011092B501DF91CF910895CF9312
:10403000DF93CDB7DEB721970FB6F894DEBF0FBE82
:10404000CDBF898380919201882311F40E94ED1FD6
:10405000EBE2F0E080819927807290700097C1F3C5
:10406000ECE2F0E08981808321960FB6F894DEBF00
:104070000FBECDBFDF91CF910895CF93DF93CDB722
:10408000DEB722970FB6F894DEBF0FBECDBF9A837E
:1040900089830AC0E981FA8180810E941720898181
:1040A0009A8101969A838983E981FA8180818823A4
:1040B00089F722960FB6F894DEBF0FBECDBFDF9111
:1040C000CF910895CF93DF93CDB7DEB724970FB686
:1040D000F894DEBF0FBECDBF9B838A836C831982A9
:1040E0000DC0EA81FB8180810E9417208A819B811B
:1040F00001969B838A8389818F5F898399818C81D3
:10410000981778F324960FB6F894DEBF0FBECDBF94
:10411000DF91CF910895CF93DF93CDB7DEB721978D
:104120000FB6F894DEBF0FBECDBF898389818A3078
:1041300028F08981895A0E94172004C08981805DF6
:104140000E94172021960FB6F894DEBF0FBECDBF98
:10415000DF91CF910895CF93DF93CDB7DEB721974D
:104160000FB6F894DEBF0FBECDBF898389818295DB
:104170008F700E948B2089818F700E948B202196E6
:104180000FB6F894DEBF0FBECDBFDF91CF9108957B
:10419000CF93DF93CDB7DEB726970FB6F894DEBF87
:1041A0000FBECDBF6B837C838D839E83CE01039630
:1041B00003969A83898380E30E94172088E70E94F0
:1041C0001720E981FA8180810E94AB2089819A8140
:1041D00001979A838983E981FA8180810E94AB20CB
:1041E00089819A8101979A838983E981FA81808103
:1041F0000E94AB2089819A8101979A838983E98102
:10420000FA8180810E94AB2026960FB6F894DEBF1B
:104210000FBECDBFDF91CF910895AF92BF92CF92E5
:10422000DF92EF92FF920F931F93CF93DF93CDB75F
:10423000DEB760970FB6F894DEBF0FBECDBF6983BF
:104240007A838B839C832D833E834F835887E986B3
:10425000FA860B871C87AD86BE86CF86D88A81E01A
:104260000E941720FE01319680819181A281B38145
:10427000BC01CD010E94C820FE013596808191814C
:10428000A281B381BC01CD010E94C820FE013996F4
:1042900080819181A281B381BC01CD010E94C8209F
:1042A000FE013D9680819181A281B381BC01CD0147
:1042B0000E94C82060960FB6F894DEBF0FBECDBF37
:1042C000DF91CF911F910F91FF90EF90DF90CF90F2
:1042D000BF90AF9008951F920F920FB60F921124C6
:1042E0002F933F934F935F936F937F938F939F93FE
:1042F000AF93BF93EF93FF93CF93DF93CDB7DEB729
:104300002797DEBFCDBFECE2F0E080818F831E8275
:104310008F81813609F044C00E94D0918A83EBE2FC
:10432000F0E080818823DCF7ECE2F0E080818D838F
:104330008D8180538D83EBE2F0E080818823DCF770
:10434000ECE2F0E080818C838C8180538C831B8233
:1043500014C0EBE2F0E080818823DCF78E8199279E
:10436000ECE2F0E02081FC01ED56FE4F20838E81CF
:104370008F5F8E838B818F5F8B839B818C8198175E
:1043800040F38A810E94E8918D81282F332783E9A9
:1043900091E0AC016C81C9010E9457861E8227C042
:1043A0008F818A3721F50E94D09189831B8214C0A6
:1043B000EBE2F0E080818823DCF78E819927ECE244
:1043C000F0E02081FC01ED56FE4F20838E818F5F4F
:1043D0008E838B818F5F8B838B81813248F38981C0
:1043E0000E94E89183E991E00E94E6621E8227968E
:1043F000F894DEBFCDBFDF91CF91FF91EF91BF91D8
:10440000AF919F918F917F916F915F914F913F916C
:104410002F910F900FBE0F901F901895CF93DF93A1
:10442000CDB7DEB725970FB6F894DEBF0FBECDBF70
:104430001B820E94D0918A8380914504882329F4AD
:1044400081E08093450481E08B83109245048BE0EA
:10445000809363048FE1809346048A810E94E891EF
:104460008B81882319F41D821C8271C00E9428262A
:1044700080E098EF909348048093470482EE92E0A6
:1044800090934A048093490480E095E090934C0413
:1044900080934B0480E890EE90934E0480934D04FB
:1044A0008FE097EA9093500480934F0480914604E4
:1044B0009927806E9066909352048093510485EE04
:1044C00092E1909354048093530486E59AE090938C
:1044D00056048093550480916304282F3327C90123
:1044E000880F991F880F991F820F931F825D9E4F1F
:1044F0009064909358048093570484EC91E09093D7
:104500005A048093590410925C0410925B04109238
:104510005E0410925D048FE792E0909360048093B4
:104520005F0410926204109261040E94D09189830A
:1045300082E08093450489810E94E89182E093E2C1
:1045400065E00E94718181E090E09D838C838C8185
:104550009D8125960FB6F894DEBF0FBECDBFDF91CB
:10456000CF910895CF93DF93CDB7DEB722970FB6E3
:10457000F894DEBF0FBECDBF8A838A810E943A477E
:1045800089838981992722960FB6F894DEBF0FBEE2
:10459000CDBFDF91CF910895CF93DF93CDB7DEB735
:1045A0000E94E95488E592E00E94245281E090E064
:1045B000DF91CF910895CF93DF93CDB7DEB70E94FF
:1045C000F75488E592E00E94245281E090E0DF9168
:1045D000CF910895CF93DF93CDB7DEB721970FB674
:1045E000F894DEBF0FBECDBF0E945026898389811B
:1045F000992721960FB6F894DEBF0FBECDBFDF918D
:10460000CF910895CF93DF93CDB7DEB70E94EA2212
:10461000DF91CF910895CF93DF93CDB7DEB7229787
:104620000FB6F894DEBF0FBECDBF8A838A810E9489
:10463000BD4989838981992722960FB6F894DEBFF8
:104640000FBECDBFDF91CF910895CF93DF93CDB74C
:10465000DEB724970FB6F894DEBF0FBECDBF8A83B6
:104660007C836B838B819C81BC018A810E94714910
:1046700089838981992724960FB6F894DEBF0FBEEF
:10468000CDBFDF91CF910895CF93DF93CDB7DEB744
:1046900023970FB6F894DEBF0FBECDBF1B821A82E0
:1046A00068E170E08DE10E94252381E00E94B22242
:1046B00081E00E940B23898381E090E023960FB66E
:1046C000F894DEBF0FBECDBFDF91CF910895CF9399
:1046D000DF93CDB7DEB721970FB6F894DEBF0FBEDC
:1046E000CDBF0E94654A89838981992721960FB69B
:1046F000F894DEBF0FBECDBFDF91CF910895CF9369
:10470000DF93CDB7DEB725970FB6F894DEBF0FBEA7
:10471000CDBF1A820E94D091898380914504823056
:1047200029F483E08093450481E08A8389810E9493
:10473000E8918A81882319F41D821C8214C00E948A
:1047400067230E94CC220E949A540E94AE2C0E94A1
:104750008C540E94AE2C0E9444238B838B81282F83
:1047600033273D832C838C819D8125960FB6F89449
:10477000DEBF0FBECDBFDF91CF910895CF93DF9302
:10478000CDB7DEB783E00E940B2381E090E0DF919C
:10479000CF910895CF93DF93CDB7DEB721970FB6B2
:1047A000F894DEBF0FBECDBF0E94FD2889838981AA
:1047B000992721960FB6F894DEBF0FBECDBFDF91CB
:1047C000CF910895CF93DF93CDB7DEB725970FB67E
:1047D000F894DEBF0FBECDBF9D838C838C819D81FD
:1047E000805098409B838A8380915704909158040D
:1047F0009C0120703C7F8A819B81822B932B90931C
:104800005804809357048091570490915804BC0138
:1048100088E10E942523898389819927807490707B
:10482000009719F083E00E940B2381E090E0259629
:104830000FB6F894DEBF0FBECDBFDF91CF910895C4
:10484000CF93DF93CDB7DEB723970FB6F894DEBFD3
:104850000FBECDBF8B838B81282F3327C901880FD3
:10486000991F880F991F820F931F825D964F9A831D
:10487000898389819A810E94E22381E090E02396D6
:104880000FB6F894DEBF0FBECDBFDF91CF91089574
:10489000CF93DF93CDB7DEB722970FB6F894DEBF84
:1048A0000FBECDBF8A8380915104909152049C0128
:1048B000207E8A8199278F719070822B932B909301
:1048C0005204809351048091570490915804BC0184
:1048D00085E10E94252389838981992780749070BE
:1048E000009719F083E00E940B2381E090E022966C
:1048F0000FB6F894DEBF0FBECDBFDF91CF91089504
:10490000CF93DF93CDB7DEB722970FB6F894DEBF13
:104910000FBECDBF842F952F9A83898389819A8179
:104920000E94E22322960FB6F894DEBF0FBECDBFE1
:10493000DF91CF910895CF93DF93CDB7DEB7229764
:104940000FB6F894DEBF0FBECDBF842F952F9A838C
:10495000898389819A810E94202422960FB6F89437
:10496000DEBF0FBECDBFDF91CF910895CF93DF9310
:10497000CDB7DEB722970FB6F894DEBF0FBECDBF1E
:10498000842F952F9A83898389819A810E94482454
:1049900022960FB6F894DEBF0FBECDBFDF91CF9148
:1049A0000895CF93DF93CDB7DEB725970FB6F89470
:1049B000DEBF0FBECDBF9A8389836B835D834C833B
:1049C00081E090E025960FB6F894DEBF0FBECDBF14
:1049D000DF91CF910895CF93DF93CDB7DEB72697C0
:1049E0000FB6F894DEBF0FBECDBF9B838A836C8366
:1049F0005E834D838D819E812A813B81AC016C81D8
:104A0000C9010E94E84889838981992726960FB6B3
:104A1000F894DEBF0FBECDBFDF91CF910895CF9345
:104A2000DF93CDB7DEB722970FB6F894DEBF0FBE87
:104A3000CDBF9A83898389819A810E94E98E9A8366
:104A40008983CE010196AC0162E08AE691E00E9482
:104A5000EB24992722960FB6F894DEBF0FBECDBF88
:104A6000DF91CF910895CF93DF93CDB7DEB7239732
:104A70000FB6F894DEBF0FBECDBF8B838B810E9433
:104A8000EA499A83898389819A8123960FB6F8949B
:104A9000DEBF0FBECDBFDF91CF910895CF93DF93DF
:104AA000CDB7DEB724970FB6F894DEBF0FBECDBFEB
:104AB0008091470490914804BC0180E10E94252325
:104AC0008091490490914A04BC0181E10E94252310
:104AD00081E10E9433259A83898320914904309192
:104AE0004A0489819A812817390719F01C821B8290
:104AF00062C080914B0490914C04BC0182E10E9401
:104B0000252380914D0490914E04BC0183E10E94C5
:104B1000252380914F0490915004BC0184E10E94B0
:104B200025238091510490915204BC0185E10E949B
:104B300025238091530490915404BC0186E10E9486
:104B400025238091550490915604BC0187E10E9471
:104B500025238091570490915804BC0188E10E945C
:104B600025238091590490915A04BC0189E10E9447
:104B7000252380915B0490915C04BC018AE10E9432
:104B8000252380915F0490916004BC018CE10E9418
:104B900025238091610490916204BC018DE10E9403
:104BA000252389E00E940B2388E00E940B2381E0EB
:104BB00090E09C838B838B819C8124960FB6F89424
:104BC000DEBF0FBECDBFDF91CF910895CF93DF93AE
:104BD000CDB7DEB721970FB6F894DEBF0FBECDBFBD
:104BE0000E944E2580915E0790915F070E940F25DD
:104BF000809157049091580491708050984F0E9472
:104C0000E2230E94D091898384E0809345048981C6
:104C10000E94E8910E94CA2321960FB6F894DEBF45
:104C20000FBECDBFDF91CF910895CF93DF93CDB766
:104C3000DEB760E070E08DE10E94252386EE95E20C
:104C400065E00E94718180E090E0DF91CF9108954E
:104C5000CF93DF93CDB7DEB721970FB6F894DEBFC1
:104C60000FBECDBF0E94464889830E94414A682FEB
:104C700089810E945D9189838981992721960FB648
:104C8000F894DEBF0FBECDBFDF91CF910895CF93D3
:104C9000DF93CDB7DEB781E090E0DF91CF9108954B
:104CA000CF93DF93CDB7DEB70E948C2C9927DF918D
:104CB000CF910895CF93DF93CDB7DEB721970FB68D
:104CC000F894DEBF0FBECDBF0E94D09189831092B1
:104CD000E204109266041092DC041092670488E6E5
:104CE00094E09093650480936404E0916404F091EF
:104CF0006504108289810E94E89180915E079091FD
:104D00005F079093DF048093DE040E940E229927B0
:104D100021960FB6F894DEBF0FBECDBFDF91CF91C5
:104D20000895CF93DF93CDB7DEB721970FB6F894F0
:104D3000DEBF0FBECDBF0E947F2389838981992763
:104D400021960FB6F894DEBF0FBECDBFDF91CF9195
:104D50000895CF93DF93CDB7DEB725970FB6F894BC
:104D6000DEBF0FBECDBF0E94D0918A838091E20446
:104D70008B838A810E94E8918B818823B9F40E94F9
:104D8000D09189838AE08093E2041092DD04E0915F
:104D90006404F0916504108289810E94E8910E9468
:104DA0009126282F33273D832C8302C01D821C822D
:104DB0008C819D8125960FB6F894DEBF0FBECDBFC6
:104DC000DF91CF910895CF93DF93CDB7DEB72297D0
:104DD0000FB6F894DEBF0FBECDBF1A820E94D091ED
:104DE00089838091E204813021F41092E20481E011
:104DF0008A8389810E94E8918A81813011F40E941E
:104E0000A92622960FB6F894DEBF0FBECDBFDF9164
:104E1000CF910895CF93DF93CDB7DEB722970FB62A
:104E2000F894DEBF0FBECDBF1A820E94D091898355
:104E30008091E204882361F483EE96E265E00E94AB
:104E40007181882329F081E08A8381E08093E204E4
:104E500089810E94E8918A81992722960FB6F89459
:104E6000DEBF0FBECDBFDF91CF910895CF93DF930B
:104E7000CDB7DEB781E090E0DF91CF910895CF9379
:104E8000DF93CDB7DEB721970FB6F894DEBF0FBE24
:104E9000CDBF0E94362789838981992721960FB635
:104EA000F894DEBF0FBECDBFDF91CF910895CF93B1
:104EB000DF93CDB7DEB722970FB6F894DEBF0FBEF3
:104EC000CDBF8A838A810E94BA47898389819927C5
:104ED00022960FB6F894DEBF0FBECDBFDF91CF9103
:104EE0000895CF93DF93CDB7DEB722970FB6F8942E
:104EF000DEBF0FBECDBF8A838A810E94BD498983F0
:104F00008981992722960FB6F894DEBF0FBECDBFD8
:104F1000DF91CF910895CF93DF93CDB7DEB721977F
:104F20000FB6F894DEBF0FBECDBF85E00E9471279B
:104F300080E00E9471278983898186958695869570
:104F4000992781709070882321F081E00E94572773
:104F500002C00E94DB2B21960FB6F894DEBF0FBE75
:104F6000CDBFDF91CF910895CF93DF93CDB7DEB75B
:104F700023970FB6F894DEBF0FBECDBF0E94D0912D
:104F80008A838091E2048B838A810E94E8918B81DD
:104F90008530D1F40E941C57009731F40E9462556D
:104FA000009711F40E94092C0E947557009771F028
:104FB0000E94D091898383E08093E20489810E94DA
:104FC000E8910E948B2702C00E94092C23960FB6FD
:104FD000F894DEBF0FBECDBFDF91CF910895CF9380
:104FE000DF93CDB7DEB723970FB6F894DEBF0FBEC1
:104FF000CDBF89837B836A830E94B42781E090E0E0
:1050000023960FB6F894DEBF0FBECDBFDF91CF91D0
:105010000895CF93DF93CDB7DEB724970FB6F894FA
:10502000DEBF0FBECDBF8A837C836B838B819C8167
:10503000BC018A810E944B448983898199272496E7
:105040000FB6F894DEBF0FBECDBFDF91CF910895AC
:10505000CF93DF93CDB7DEB789E00E947127882315
:1050600019F40E94DB2B0FC08091E0049091E104C1
:105070009C018091E3048F5FB9010E940928882375
:1050800011F40E94DB2BDF91CF910895CF93DF9332
:10509000CDB7DEB727970FB6F894DEBF0FBECDBFF2
:1050A0009D838C830E94D0918A838091E2048B83BC
:1050B0008A810E94E8918B81823009F05FC0EC8187
:1050C000FD8188E082838091DC04882329F0EC81D3
:1050D000FD8181E2818304C0EC81FD8181E08183D7
:1050E000EC81FD818FEF9FEF95838483EC81FD81BF
:1050F000868197810E94E98EEC81FD81978386836A
:10510000EC81FD818081855FEC81FD8180838091D0
:1051100066048F5F8093660480916604EC81FD8154
:1051200083838C819D81FC01EE58FF4F1182108298
:10513000EC81FD81808182508093E3048C819D818C
:105140009093E1048093E00488E08093DD040E9462
:10515000D091898385E08093E20489810E94E8915F
:1051600088E298E265E00E947181882311F40E9430
:10517000DB2B81E090E09F838E8302C01F821E8222
:105180008E819F8127960FB6F894DEBF0FBECDBFEC
:10519000DF91CF910895CF93DF93CDB7DEB72297FC
:1051A0000FB6F894DEBF0FBECDBF8A838A810E94FE
:1051B000124689838981992722960FB6F894DEBF1B
:1051C0000FBECDBFDF91CF910895CF93DF93CDB7C1
:1051D000DEB721970FB6F894DEBF0FBECDBF0E9499
:1051E000BE2389838981992721960FB6F894DEBF63
:1051F0000FBECDBFDF91CF910895CF93DF93CDB791
:10520000DEB723970FB6F894DEBF0FBECDBF0E9466
:10521000D0918A838091E2048B838A810E94E891F5
:105220008B818A3089F40E94E52880E00E94CB2897
:1052300081E00E9457270E94D091898382E0809369
:10524000E20489810E94E8910E943F2781E090E07A
:1052500023960FB6F894DEBF0FBECDBFDF91CF917E
:105260000895CF93DF93CDB7DEB723970FB6F894A9
:10527000DEBF0FBECDBF8B838B810E94EA499A832C
:10528000898389819A8123960FB6F894DEBF0FBE79
:10529000CDBFDF91CF910895CF93DF93CDB7DEB728
:1052A00021970FB6F894DEBF0FBECDBF0E943846DF
:1052B00089838981992721960FB6F894DEBF0FBEA6
:1052C000CDBFDF91CF910895CF93DF93CDB7DEB7F8
:1052D0000E94322CDF91CF910895CF93DF93CDB709
:1052E000DEB723970FB6F894DEBF0FBECDBF0E9486
:1052F0001C57009739F40E94092C81E090E09B83B1
:105300008A8316C00E94D091898384E699E265E081
:105310000E947181882319F00E944C2902C00E94CA
:10532000092C89810E94E89181E090E09B838A8327
:105330008A819B8123960FB6F894DEBF0FBECDBF46
:10534000DF91CF910895CF93DF93CDB7DEB7249748
:105350000FB6F894DEBF0FBECDBF9C838B838B81CD
:105360009C810E94CC659A83898389819A81249645
:105370000FB6F894DEBF0FBECDBFDF91CF91089579
:10538000CF93DF93CDB7DEB724970FB6F894DEBF87
:105390000FBECDBF0E94D0918A838091640490910A
:1053A00065049C838B838A810E94E8918B819C8118
:1053B0000E94A3299C838B830E94D09189838B8137
:1053C0009C81009731F08B819C8190936504809340
:1053D0006404E0916404F091650410821092670403
:1053E00089810E94E89124960FB6F894DEBF0FBE23
:1053F000CDBFDF91CF9108950F931F93CF93DF938C
:10540000CDB7DEB72B970FB6F894DEBF0FBECDBF7A
:105410008F83798768870E94D0918D838091E20481
:105420008E838D810E94E8910E941C57009721F481
:105430000E946255009731F08F81882319F08F8187
:10544000813778F00E94092C0E94D0918C831092B1
:1054500067048C810E94E89181E090E09B878A87B5
:10546000C5C0888599859093650480936404E09114
:105470006404F09165048181992787709070813070
:10548000910539F4E0916404F091650482818830DB
:1054900079F00E94092C0E94D0918B8310926704AE
:1054A0008B810E94E891E1E0F0E0FB87EA879EC0F3
:1054B000A0916404B0916504E0916404F0916504E6
:1054C00080818B508C93E0916404F091650480811D
:1054D000853678F00E94092C0E94D0918A83109220
:1054E00067048A810E94E89181E090E09B878A8727
:1054F0007DC00091640410916504E0916404F09112
:105500006504868197810E940D8FF80197838683B9
:1055100040916404509165048F8199279C0188858E
:105520009985820F931FFC0131978081881F8827FE
:10553000881FFA01E059FF4F808340916404509125
:1055400065048F8199279C0188859985820F931F17
:10555000FC0132978081FA01E259FF4F808340912C
:105560006404509165048F8199279C0188859985F1
:10557000820F931FFC01319780818F77FA01E159E7
:10558000FF4F80830E94D091898380EC99E265E08F
:105590000E947181882311F41092670489810E940E
:1055A000E8910E941C57009759F40E946255009799
:1055B00039F40E94092C81E090E09B878A8716C00D
:1055C0000E946255009761F484E699E265E00E94CA
:1055D0007181882329F0E1E0F0E0FB87EA8706C0CB
:1055E0000E94092C81E090E09B878A878A859B85B1
:1055F0002B960FB6F894DEBF0FBECDBFDF91CF91D3
:105600001F910F910895CF93DF93CDB7DEB7249705
:105610000FB6F894DEBF0FBECDBF8A837C836B8349
:105620008B819C81BC018A810E942045898389816C
:10563000992724960FB6F894DEBF0FBECDBFDF9139
:10564000CF910895CF93DF93CDB7DEB724970FB6F0
:10565000F894DEBF0FBECDBF9B838A836C838A81A3
:105660009B816C810E94E5658983898199272496B5
:105670000FB6F894DEBF0FBECDBFDF91CF91089576
:10568000CF93DF93CDB7DEB723970FB6F894DEBF85
:105690000FBECDBF0E94D091898382E08093E20447
:1056A0008091E0049091E1049B838A83EA81FB81ED
:1056B00080818B50EA81FB81808389810E94E891FF
:1056C0008A819B8161E00E94222B23960FB6F89479
:1056D000DEBF0FBECDBFDF91CF910895CF93DF9393
:1056E000CDB7DEB721970FB6F894DEBF0FBECDBFA2
:1056F0000E94DF4789838981992721960FB6F89404
:10570000DEBF0FBECDBFDF91CF910895CF93DF9362
:10571000CDB7DEB724970FB6F894DEBF0FBECDBF6E
:105720009A8389838091E204282F33273C832B833B
:105730008B819C818330910531F02B813C81243019
:105740003105E9F02DC080E00E9457270E9479566C
:10575000009719F40E946E2B03C084E08093E2044A
:105760008091E0049091E104FC01EE58FF4F8981A3
:105770009A81918380838091E204843089F086E06D
:105780008093E2040E946E2B81E00E94572780E400
:105790009BE265E00E947181882311F40E94DB2B5B
:1057A00081E090E024960FB6F894DEBF0FBECDBF27
:1057B000DF91CF910895CF93DF93CDB7DEB72197D7
:1057C0000FB6F894DEBF0FBECDBF0E94D091898383
:1057D00082E08093E20489810E94E891A091E00434
:1057E000B091E104E091E004F091E10480818B50FC
:1057F0008C938091E0049091E10460E00E94222B60
:1058000021960FB6F894DEBF0FBECDBFDF91CF91CA
:105810000895CF93DF93CDB7DEB721970FB6F894F5
:10582000DEBF0FBECDBF0E944C298FE30E943129FD
:1058300088E00E94712788E00E9471270E94D09121
:1058400089831092670489810E94E89180E00E9418
:10585000CB2821960FB6F894DEBF0FBECDBFDF91E7
:10586000CF910895CF93DF93CDB7DEB724970FB6CE
:10587000F894DEBF0FBECDBF80E78C830E941C571B
:10588000009739F40E946255009719F40E94092C80
:105890003AC00E94D0918A83809167048B838B8168
:1058A000882351F084E699E265E00E9471818823A3
:1058B00031F40E94092C03C081E0809367048A813F
:1058C0000E94E8918B818823E1F480916404909197
:1058D0006504BC018C810E94032B882391F40E94F3
:1058E000D09189831092670489810E94E89184E6AF
:1058F00099E265E00E947181882329F40E94092CB5
:1059000002C00E94092C24960FB6F894DEBF0FBE89
:10591000CDBFDF91CF910895CF93DF93CDB7DEB7A1
:1059200021970FB6F894DEBF0FBECDBF0E94472669
:1059300089838981992721960FB6F894DEBF0FBE1F
:10594000CDBFDF91CF910895CF93DF93CDB7DEB771
:1059500082E08093E204DF91CF910895CF93DF93AB
:10596000CDB7DEB700000000DF91CF910895CF934F
:10597000DF93CDB7DEB7789488950E94AE2CDF9187
:10598000CF910895CF93DF93CDB7DEB78895DF91A0
:10599000CF910895CF93DF93CDB7DEB77894DF91A1
:1059A000CF910895CF93DF93CDB7DEB7F894DF9111
:1059B000CF910895CF93DF93CDB7DEB721970FB680
:1059C000F894DEBF0FBECDBFEFE5F0E080818983A4
:1059D000F8948981992721960FB6F894DEBF0FBEFF
:1059E000CDBFDF91CF910895CF93DF93CDB7DEB7D1
:1059F00021970FB6F894DEBF0FBECDBF8983EFE5C8
:105A0000F0E08981808321960FB6F894DEBF0FBE47
:105A1000CDBFDF91CF910895CF93DF93CDB7DEB7A0
:105A2000E0E0F0E00995DF91CF910895CF93DF9307
:105A3000CDB7DEB7E2E5F0E080819927DF91CF9125
:105A40000895CF93DF93CDB7DEB7E1E5F0E0808135
:105A50009927DF91CF910895CF93DF93CDB7DEB72C
:105A600021970FB6F894DEBF0FBECDBF0E948036DF
:105A700089838981992721960FB6F894DEBF0FBEDE
:105A8000CDBFDF91CF910895CF93DF93CDB7DEB730
:105A900021970FB6F894DEBF0FBECDBF8983E1E535
:105AA000F0E08981808321960FB6F894DEBF0FBEA7
:105AB000CDBFDF91CF910895CF93DF93CDB7DEB700
:105AC00023970FB6F894DEBF0FBECDBF8A836B83DA
:105AD0008B8187708B838B8188608B830E94D091B0
