:100000000C9446000C9463000C9463000C94630001
:100010000C9463000C9463000C9463000C94BE2F4A
:100020000C9463000C9463000C9463000C94D23124
:100030000C942D320C9463000C9463000C942F19D3
:100040000C9463000C9463000C944F120C946300A6
:100050000C9463000C9489270C9463000C94630047
:100060000C9463000C9463000C94C8180C94630007
:100070000C9463000C9463000C9463000C94630074
:100080000C9463000C9463000C94630011241FBE55
:10009000CFEFD0E1DEBFCDBF11E0A0E0B1E0E4E7FB
:1000A000F5EA00E00BBF02C007900D92AA36B10737
:1000B000D9F71AE0AAE6B1E001C01D92A230B1075B
:1000C000E1F70C94F3380C9400000E948218089514
:1000D00081E0809376010E945E1808950E948D1839
:1000E00008950E9488180895EF92FF920F931F932E
:1000F000CF93DF930E948818EC010E948D187B013A
:100100008C010E948818C817D90749F00E948818E6
:10011000EC010E948D187B018C010E94881880914F
:100120007601813091F4D0936B01C0936A01E09223
:100130006C01F0926D0100936E0110936F0182E0EB
:10014000809376018AE691E016C0823019F080E053
:1001500090E011C081E080937601D0937101C0934B
:100160007001E0927201F092730100937401109398
:10017000750180E791E0DF91CF911F910F91FF9082
:10018000EF9008951092FE038091FE038093FD038B
:100190008091FD038093FC0308958CEF93E0089514
:1001A00083E094E0089587EF93E00895E091C90813
:1001B000F091CA08878D90A19093F6038093F50380
:1001C00041A152A1509319044093180423A134A1D2
:1001D0003093F4032093F303662757FD6095762F41
:1001E0000E94D4010895E091C908F091CA08878D52
:1001F00090A19093F6038093F50381A192A190932F
:100200001B0480931A0483A194A19093000480930B
:10021000FF0365E089E491E00E9463490895E0915D
:10022000C908F091CA08878D90A19093F603809336
:10023000F50381A192A190931B0480931A0483A1DA
:1002400094A1909300048093FF0365E08CE591E016
:100250000E9463490895E091C908F091CA08878D0A
:1002600090A19093F6038093F50365E08FE691E00B
:100270000E94634908958091C9089091CA0890939B
:1002800002048093010465E08AE791E00E946349DB
:1002900008954091FF035091000460911A047091F9
:1002A0001B048091F5039091F6030E94900464E092
:1002B00087E00E94C34D08954091FF0350910004D0
:1002C00060911A0470911B048091F5039091F603DC
:1002D0000E94DA0563E087E00E94C34D0895809193
:1002E000F5039091F6030E94420762E087E00E94C6
:1002F000C34D089567EF73E083E094E00E944807E0
:10030000E0910104F091020490A3878F61E087E0FF
:100310000E94C34D0895ECE1F4E010823A9684E027
:10032000EC36F807D1F7089520E030E0ECE1F4E096
:100330008081882331F02F5F3F4F3A962830310576
:10034000B9F78AE090E0289FF001299FF00D389FCF
:10035000F00D1124E45EFB4F81E080832183138242
:1003600012828FEF9FEFAFEFBFEF86839783A08757
:10037000B187C90108952AE030E0829FF001839F90
:10038000F00D929FF00D1124E45EFB4F1082089552
:1003900080E090E00E94C50820E030E0019711F471
:1003A00021E030E0C9010895EF92FF920F931F936F
:1003B000CF93DF93FC017A018B01B901211531053F
:1003C00071F484819581AA27BB278E159F05A0070C
:1003D000B1076CF1E682F782008711873FC0868102
:1003E0009781A085B185EC012130310541F48E0D56
:1003F0009F1DA01FB11F86839783A087B187268189
:1004000037814085518557FD09C084819581AA2790
:10041000BB2782179307A407B50764F4CE01AA2768
:1004200097FDA095BA2F86839783A087B1878FEF1A
:100430009FEF16C06230710589F4AC01BD014E0D0D
:100440005F1D601F711F468357836087718777FD2B
:10045000E5CF84179507A607B70704F380E090E07F
:10046000DF91CF911F910F91FF90EF9008956F92C0
:100470007F928F929F92AF92BF92CF92DF92EF9234
:10048000FF920F931F93CF93DF93CDB7DEB72D97D6
:100490000FB6F894DEBF0FBECDBF3C014B01880EF6
:1004A000991EF401319710826F010894C108D10898
:1004B0005A01B5018E010F5F1F4FC8010E94430C06
:1004C000C8010E94A3507601E81AF90A482FB80122
:1004D000C7010E9455500FE2F6010083670108949E
:1004E000C108D1086FE170E0C5010E945508A82E2F
:1004F000BB248823F1F6F6010083B4016C197D0951
:1005000061507040D30120E030E006C0F6018191D7
:100510006F018D932F5F3F4F26173707BCF311975D
:100520001C922D960FB6F894DEBF0FBECDBFDF91A3
:10053000CF911F910F91FF90EF90DF90CF90BF90E0
:10054000AF909F908F907F906F9008950E94CA0AFD
:100550000895CF92DF92EF92FF921F93CF93DF9394
:100560006C01EB017A01188211E0B701812F0E9422
:100570003609019741F48881F601E80FF11D1083D7
:1005800088818F5F88831F5F113679F7DF91CF9164
:100590001F91FF90EF90DF90CF900895EF92FF9220
:1005A0000F931F937C018B019C014CE050E060E0B5
:1005B00070E0C8010E94C9076CE070E0C8010E94A9
:1005C0005508F70184876DE170E0C8010E94550865
:1005D000F70185876EE170E0C8010E945508F701B8
:1005E00086871F910F91FF90EF9008956F927F92F1
:1005F0008F929F92AF92BF92CF92DF92EF92FF9233
:100600000F931F93CF93DF93CDB7DEB72D970FB620
:10061000F894DEBF0FBECDBF3C014B01880E991E82
:10062000F401319710826F010894C108D1080E942B
:10063000040C5C01B5018E010F5F1F4FC8010E94C1
:10064000430CC8010E94A3507601E81AF90A482F0A
:10065000B801C7010E9455500FE2F60100836701FF
:100660000894C108D1086FE170E0C5010E945508E7
:10067000A82EBB248823F1F6F6010083B4016C197F
:100680007D0961507040D30120E030E006C0F601E2
:1006900081916F018D932F5F3F4F26173707BCF372
:1006A00011971C922D960FB6F894DEBF0FBECDBFEA
:1006B000DF91CF911F910F91FF90EF90DF90CF903E
:1006C000BF90AF909F908F907F906F900895CF9341
:1006D000DF93CDB7DEB722970FB6F894DEBF0FBE1B
:1006E000CDBFBE016F5F7F4F0E94B40E9C018FEFA4
:1006F0002F3F380731F089819A81892B11F42FEF30
:100700003FEFC90122960FB6F894DEBF0FBECDBFF2
:10071000DF91CF910895CF93DF93CDB7DEB72297C6
:100720000FB6F894DEBF0FBECDBFBE016F5F7F4F27
:100730000E94B40E0E94090C22960FB6F894DEBFF8
:100740000FBECDBFDF91CF9108956F927F928F92B0
:100750009F92AF92BF92CF92DF92EF92FF920F9350
:100760001F93CF93DF93CDB7DEB724970FB6F894DE
:10077000DEBF0FBECDBF7C018B01CB010E94A40860
:100780006C01C8010E94A3505C01BE016D5F7F4FE8
:10079000C7010E94B40E3C01BE016F5F7F4FC801CC
:1007A0000E94B40E7C010E949B104C01BC01C3014D
:1007B0000E94B4090A0D1B1D0C1911279601A801EE
:1007C00060E070E0C4010E94BC0740E0B801C401D1
:1007D0000E9414084E2D6FE170E0C4010E941408BD
:1007E000682D8E2D0E94A90CCC24DD248EE0E82EED
:1007F000F12CEC0CFD1CB701C3010E945508A82E7A
:10080000882371F00E94AF0F082F482FB701C40151
:100810000E9414081127B8018A2D99270E9488097F
:100820000894C11CD11C88E0C816D104F9F680E0F8
:1008300090E024960FB6F894DEBF0FBECDBFDF91D7
:10084000CF911F910F91FF90EF90DF90CF90BF90CD
:10085000AF909F908F907F906F9008958F929F920E
:10086000AF92BF92CF92DF92EF92FF920F931F93BE
:10087000CF93DF93CDB7DEB724970FB6F894DEBFE2
:100880000FBECDBF7C018B01CB010E94A4085C018F
:10089000C8010E94A3504C01BE016D5F7F4FC7018C
:1008A0000E94B40E7C016FE170E00E9455086E2D2D
:1008B0000E947D0CBE016F5F7F4FC8010E94B40E85
:1008C0006C01482F6FE170E0C7010E941408080D09
:1008D000191D0A1911279501A80160E070E0C701F0
:1008E0000E94BC0740E0B801C7010E9414086E2DA9
:1008F0008C2D0E94A90C80E090E024960FB6F8940D
:10090000DEBF0FBECDBFDF91CF911F910F91FF9042
:10091000EF90DF90CF90BF90AF909F908F90089511
:100920002F923F924F925F926F927F928F929F92FF
:10093000AF92BF92CF92DF92EF92FF920F931F93ED
:10094000CF93DF93CDB7DEB726970FB6F894DEBF0F
:100950000FBECDBF9E838D837A8369835C834B8377
:10096000FC01E680F780008511853A01882477FC38
:100970008094982CB801A701460D571D681D791D5C
:1009800024813581C901AA27BB2784179507A607AB
:10099000B707C4F5C9018070987F3770232B11F019
:1009A0008050984FAA27BB2784179507A607B7073B
:1009B000DCF4ED81FE81828199270E94D50CED81C6
:1009C000FE81E680F78000851185A8019701260D3C
:1009D000371D481D591D84819581AA27BB27821781
:1009E0009307A407B50774F44B815C814E0D5F1D1E
:1009F000ED81FE815583448382816DE170E099270A
:100A00000E94FC07ED81FE81E680F780008511855C
:100A1000C801B70120E038E040E050E00E94815278
:100A20001901C801B701660D771D881D991D615018
:100A300070408040904020E038E040E050E00E946C
:100A4000815229012216330669F5C801B70120E059
:100A500038E040E050E00E9481527B018C01642D1F
:100A6000ED81FE8182810E940E0CE82FC70160E0BB
:100A700071E00E944C526C018E2E992473E0880C18
:100A8000991C7A95E1F7C70160E071E00E944C5231
:100A9000CB0108972B813C8149815A816C2D880DAF
:100AA000991D6BC0C801B70120E038E040E050E07C
:100AB0000E9481525B016C01E12C61E0F62EC501C0
:100AC00060E071E00E944C528C01622DED81FE814C
:100AD00082810E940E0CE01AF10A282E332453E082
:100AE000220C331C5A95E1F7C50160E071E00E94C9
:100AF0004C52CB010897970149815A81602F820D92
:100B0000931D0E944849ED81FE8186819781A085D1
:100B1000B185680E791E8A1E9B1E089461087108B3
:100B200081089108C401B30120E038E040E050E0C2
:100B30000E948152DC01CB0160E071E00E944C52C6
:100B40008B01642DED81FE8182810E940E0C2B8130
:100B50003C812E193F093C832B83E981FA81EE0EFB
:100B6000FF1E992743E0880F991F4A95E1F7085027
:100B70001040A70160E0800F911F0E94484980E06B
:100B800090E026960FB6F894DEBF0FBECDBFDF9182
:100B9000CF911F910F91FF90EF90DF90CF90BF907A
:100BA000AF909F908F907F906F905F904F903F900D
:100BB0002F9008952F923F924F925F926F927F9263
:100BC0008F929F92AF92BF92CF92DF92EF92FF925D
:100BD0000F931F93CF93DF93CDB7DEB726970FB652
:100BE000F894DEBF0FBECDBF9E838D837A83698369
:100BF0005C834B83FC01A680B780C084D1843A011A
:100C0000882477FC8094982C86017501E60CF71CEB
:100C1000081D191D84819581AA27BB278E159F0564
:100C2000A007B1071CF48FEF9FEFB6C0C601B50156
:100C300020E038E040E050E00E9481521901089421
:100C4000E108F10801091109C801B70120E038E005
:100C500040E050E00E94815229012216330669F5D6
:100C6000C601B50120E038E040E050E00E9481522A
:100C70007B018C01642DED81FE8182810E940E0C2E
:100C8000E82FC70160E071E00E944C526C01AE2E6B
:100C9000BB24B3E0AA0CBB1CBA95E1F7C70160E026
:100CA00071E00E944C52CB0108972B813C81498115
:100CB0005A816C2D8A0D9B1D6BC0C601B50120E0C9
:100CC00038E040E050E00E9481525B016C01E12C71
:100CD000A1E0FA2ECB0160E071E00E944C528C0141
:100CE000622DED81FE8182810E940E0CE01AF10AD4
:100CF000282E3324F3E0220C331CFA95E1F7C501CA
:100D000060E071E00E944C52CB0108979701498145
:100D10005A81602F820D931D0E944B49ED81FE8107
:100D200086819781A085B185680E791E8A1E9B1EDB
:100D300008946108710881089108C401B30120E09A
:100D400038E040E050E00E948152DC01CB0160E0DD
:100D500071E00E944C528B01642DED81FE818281F5
:100D60000E940E0C2B813C812E193F093C832B8362
:100D7000E981FA81EE0EFF1E9927E3E0880F991FA3
:100D8000EA95E1F708501040A70160E0800F911F3D
:100D90000E944B4980E090E026960FB6F894DEBFA3
:100DA0000FBECDBFDF91CF911F910F91FF90EF90BC
:100DB000DF90CF90BF90AF909F908F907F906F907B
:100DC0005F904F903F902F900895CF93DF93C0E0B6
:100DD000D0E0CE010E94C508181619061CF4CE01F9
:100DE0000E94DD082196C136D10599F7DF91CF9198
:100DF00008950E94DC0F08950E94C81008950E9473
:100E000067032FEF8F3F920719F48FEF9FEF08953D
:100E10000E94D20980E090E00895EF92FF920F9334
:100E20001F93CF93DF93CDB7DEB722970FB6F89419
:100E3000DEBF0FBECDBF7C01BE016F5F7F4F0E9442
:100E4000B40E8C018FEF0F3F180769F089819A81EA
:100E5000892B49F4C7010E94A408B8010E94290EF9
:100E600080E090E002C08FEF9FEF22960FB6F894DB
:100E7000DEBF0FBECDBFDF91CF911F910F91FF90CD
:100E8000EF900895FC01818199270E94BB0108958C
:100E9000AF92BF92CF92DF92EF92FF920F931F9388
:100EA000CF93DF93CDB7DEB722970FB6F894DEBFAE
:100EB0000FBECDBF5C018B01BE016F5F7F4F0E94F3
:100EC000B40E6C01C8010E947B087C01892BA1F142
:100ED0002FEFC2162FEFD20679F189819A81009700
:100EE000A1F432E0E316F10439F5C5010E94A4082B
:100EF000B6010E94FB0DF82E0E9494018C0142E085
:100F000050E0BC018F2D992708C00297A9F40E94D8
:100F100094018C01A701BC01C6010E94300D8AE03A
:100F200090E09C01029FC001039F900D129F900DC5
:100F30001124845E9B4F02C080E090E022960FB6A1
:100F4000F894DEBF0FBECDBFDF91CF911F910F91FF
:100F5000FF90EF90DF90CF90BF90AF900895FB018E
:100F6000BA0135E0880F991F3A95E1F7422F8E0FAD
:100F70009F1F0E94AD3A0895FB01BA0145E0880F1A
:100F8000991F4A95E1F7A9018E0F9F1F0E94B03A61
:100F90000895FB01BA0155E0880F991F5A95E1F7B2
:100FA000A9018E0F9F1F0E94C23A0895FB0165E0C0
:100FB000880F991F6A95E1F7BA01A9018E0F9F1F4B
:100FC0000E94883A0895FB0175E0880F991F7A9571
:100FD000E1F7BA01A9018E0F9F1F0E94883A089578
:100FE0009B01E5E0880F991FEA95E1F7BA01820FAE
:100FF000931F0E948B3A08959B01F5E0880F991F7B
:10100000FA95E1F7BA01820F931F0E948E3A089574
:101010009B01A5E0880F991FAA95E1F7642F820F25
:10102000931F0E94913A08959B01B5E0880F991F84
:10103000BA95E1F7642F820F931F0E94943A0895A6
:1010400025E0880F991F2A95E1F7860F971F0E94C8
:10105000973A089535E0880F991F3A95E1F7860F82
:10106000971F0E949A3A089545E0880F991F4A9564
:10107000E1F7860F971F0E949D3A089555E0880F6B
:10108000991F5A95E1F7860F971F0E94A03A08957D
:10109000E5E0880F991FEA95E1F7860F971F0E94F8
:1010A000A33A992787FD90950895F5E0880F991F39
:1010B000FA95E1F7860F971F0E94A93A992708959C
:1010C000FC0180818F3209F43196DB0102C09D93CF
:1010D00031969081892F81568A31C8F3805E8A319A
:1010E000B0F39F35A1F39E3291F38F5E8A3078F38F
:1010F0001C92CF010895CF93DF93EC010E94A3507F
:101100000197A9F48881823719F481E090E019C031
:10111000873719F482E090E014C0813619F483E037
:1011200090E00FC0843759F484E090E00AC0CE010B
:101130000E94A350029719F485E090E002C080E07D
:1011400090E0DF91CF910895CF93DF93EC010E945F
:10115000A350FE01E80FF91F31979E0101C031979E
:1011600080818F3221F0E217F307C9F703C0EC1733
:10117000FD0729F488818F3211F0CE0102C0CF0122
:101180000196DF91CF9108950895FF920F931F93D9
:101190008C016DE070E00E945508F82E6CE070E064
:1011A000C8010E945508FF2019F480E090E001C0BA
:1011B00099271F910F91FF900895EF92FF920F933F
:1011C0001F93CF93DF93CDB7DEB72D970FB6F8946B
:1011D000DEBF0FBECDBF7C011D869E012F5F3F4F3E
:1011E0004CE050E060E070E00E94C9076CE070E005
:1011F000C7010E945508182F6DE070E0C7010E94DA
:1012000055088823E1F01130C1F40EE010E0B80178
:10121000C7010E9455080F5F1F4F08311105B9F72C
:101220000EC00EE010E0B801C7010E9455080F5F24
:101230001F4F06311105B9F702C0123091F36CE16E
:1012400070E0C7010E9455086FE170E0C7010E947D
:1012500055082D960FB6F894DEBF0FBECDBFDF91B7
:10126000CF911F910F91FF90EF900895CF92DF9251
:10127000EF92FF920F931F93CF93DF93CDB7DEB71B
:101280002D970FB6F894DEBF0FBECDBF6B01E82ED1
:10129000FF246DE070E0C7010E945508882339F1F2
:1012A0008E010F5F1F4F98014CE050E060E070E04E
:1012B000C7010E94C9071D86C8010E94A350F82ECD
:1012C00000E010E00EC0B601CE010196820F911D24
:1012D0000E9463500F5F1F4F892B19F481E090E04B
:1012E00008C0202F8F2D99270817190761F780E074
:1012F00090E02D960FB6F894DEBF0FBECDBFDF9104
:10130000CF911F910F91FF90EF90DF90CF900895B4
:10131000EF92FF920F931F93CF93DF93EB018C011A
:1013200023E0000F111F2A95E1F793E0CC0FDD1F9A
:101330009A95E1F788E0E82EF12C085010402897A4
:10134000BE01C8010E94152D0894E108F1082196FC
:101350000F5F1F4FE114F10499F7DF91CF911F91B7
:101360000F91FF90EF900895EF92FF920F931F93CC
:10137000CF93DF937C018B01C0E0D0E0BE01C701B9
:101380000E945508482FBE01C8010E9414082196EA
:10139000C032D10599F7DF91CF911F910F91FF9046
:1013A000EF900895BF92CF92DF92EF92FF920F934A
:1013B0001F93CF93DF93EC016CE070E00E9455081F
:1013C000182F6FE170E0CE010E945508B82E113041
:1013D000B1F500E010E0B801625F7F4FCE010E94DE
:1013E0005508882319F099270E94D2090F5F1F4FD3
:1013F0000A30110581F740E06DE070E0CE010E94F7
:101400001408209719F4BB2009F4B2C000E010E0E2
:101410003EE0C32ED12CC00ED11EEB2CFF24B60112
:10142000C7010E94550899278C179D0709F47AC0B7
:101430000F5F1F4F0A30110509F49AC0E9CF12302F
:1014400009F052C040E06DE070E0CE010E94140847
:10145000209711F4BB20B9F00EE010E0EB2CFF2434
:10146000B801C7010E94550899278C179D0731F4D0
:1014700040E0B801C7010E94140805C00F5F1F4F6C
:101480000831110559F70EE010E0B801CE010E94B5
:101490005508882341F099270E94D30F0F5F1F4FF3
:1014A0000631110591F7FC2E68E170E08F2D992728
:1014B0000E945508F82E882309F45AC0C82EDD244E
:1014C000C6010E94BF100EE010E0B801C6010E94E4
:1014D0005508882349F399270E94D30F0F5F1F4FA8
:1014E0000631110509F3F1CF133029F540E06DE025
:1014F00070E0CE010E941408209711F4BB20C1F1C6
:101500000EE010E0EB2CFF24B801C7010E94550843
:1015100099278C179D0749F00F5F1F4F0831110560
:1015200039F1F0CF40E0B60102C040E0B801C70198
:101530000E9414081DC01430D9F440E06DE070E042
:10154000CE010E941408209711F4BB2089F00EE010
:1015500010E0EB2CFF24B801C7010E945508992721
:101560008C179D0711F30F5F1F4F0831110589F785
:10157000CE010E94BF10DF91CF911F910F91FF907C
:10158000EF90DF90CF90BF9008950E94A70F0E9428
:1015900093100895CF93DF93C0E0D0E020E040E2C5
:1015A00050E060E070E0CE010E94AF072196C136A6
:1015B000D105A1F70E94A70F0E949310DF91CF9150
:1015C0000895DF92EF92FF920F931F93CF93DF93D3
:1015D000EC017B01142FD22ECB010E94A3508C3042
:1015E00008F48F5F013051F4482F5527970160E0D0
:1015F00070E0CE010E94BC0741E029C0023051F4E6
:10160000482F5527970160E070E0CE010E94BC078B
:1016100042E01DC0033081F4482F5527970160E058
:1016200070E0CE010E94BC0743E011C04C2FB8010E
:10163000C7010E94140845C0043079F5482F55278A
:10164000970160E070E0CE010E94BC0744E06CE0CE
:1016500070E0CE010E94140841E06DE070E0CE0120
:101660000E94140820E04EE050E06EE070E0CE01F1
:101670000E94AF07412F6CE170E0CE010E94140878
:1016800040E050E06DE170E0CE010E94FC074D2D7E
:101690006FE170E0CE010E941408209711F4DD2064
:1016A00081F00EE010E0ED2CFF24B801C7010E948C
:1016B0005508882309F4BACF0F5F1F4F0831110571
:1016C00091F7DF91CF911F910F91FF90EF90DF90F5
:1016D00008954F925F927F928F929F92AF92BF92A6
:1016E000CF92DF92EF92FF920F931F93782E6B01B0
:1016F0005A01490128010E949B10E82EFF2403E0B3
:10170000272D40E0B601C7010E94E10AA5016EE065
:1017100070E0C7010E94FC07A40160E170E0C7010E
:101720000E94F007A20162E170E0C7010E94FC077D
:101730001F910F91FF90EF90DF90CF90BF90AF90EF
:101740009F908F907F905F904F900895AF92BF923F
:10175000CF92DF92EF92FF920F931F930E949B1004
:101760007C0101E020E040E060E071E099270E9408
:10177000E10A0E9483275C010E9486278C01950163
:101780004BE255E364E071E08E2D0E94690B9501F8
:101790004BEE57E268E071E08E2D0E94690B9501D7
:1017A00042EF57E26EE071E08E2D0E94690B9501C9
:1017B00047E058E263E171E08E2D0E94690B9501CC
:1017C00049EF57E26AE171E08E2D0E94690B9501A5
:1017D00044EC58E060E271E08E2D0E94690B1F918D
:1017E0000F91FF90EF90DF90CF90BF90AF90089552
:1017F0000F9301E020E040E066E271E080E090E0DD
:101800000E94E10A0F9108958091770190917801EB
:101810000895909378018093770108951F93162F70
:1018200005C068E170E00E945508185099271830EB
:10183000C0F7612F7727625F7F4F0E945508992775
:101840001F9108950F931F93CF93DF938C01CEE0E8
:10185000D0E0BE01C8010E945508882319F081E03C
:1018600090E006C02196C831D10599F780E090E05C
:10187000DF91CF911F910F9108956FE170E00E9469
:10188000550899270895EF92FF920F931F93CF93D6
:10189000DF937B01EC0100E010E0B801C7010E947A
:1018A00055088883882331F021960F5F1F4F0C3035
:1018B000110599F71882DF91CF911F910F91FF9039
:1018C000EF9008950F931F93CF93DF938C01CEE099
:1018D000D0E0BE01C8010E945508882319F480E0B9
:1018E00090E006C02196C831D10599F781E090E0DB
:1018F000DF91CF911F910F910895CF92DF92EF92D8
:10190000FF920F931F93CF93DF93C82ED62EC0E084
:10191000D0E08EE0E82EF12CEC0EFD1E0C2D1127F0
:10192000B701C8010E9455088D1531F440E0B70198
:10193000C8010E94140804C02196CA30D10549F795
:10194000DF91CF911F910F91FF90EF90DF90CF909B
:101950000895CF92DF92EF92FF920F931F93CF9350
:10196000DF93D82EC62EC0E0D0E09EE0E92EF12C09
:10197000EC0EFD1E0D2D1127B701C8010E94550860
:10198000882331F44C2DB701C8010E94140804C00B
:101990002196CA30D10549F7DF91CF911F910F9160
:1019A000FF90EF90DF90CF900895DF92EF92FF923B
:1019B0000F931F93CF93DF93D82EC0E0D0E0ED2C90
:1019C000FF248E01025F1F4FB801C7010E94550816
:1019D000882329F02196C830D10539F0F0CF0E9434
:1019E000AF0F482FB801C70118C068E170E0C70108
:1019F0000E945508D82E882301F70E949B10182FAB
:101A0000482F68E170E0C7010E9414080E94AF0FE0
:101A1000482F6EE070E0812F99270E941408DF9113
:101A2000CF911F910F91FF90EF90DF9008950F934A
:101A30001F93CF93DF938C01CEE0D0E0BE01C801AD
:101A40000E945508882339F099270E94D30F2196C8
:101A5000C631D10599F7DF91CF911F910F9108956C
:101A6000CF92DF92EF92FF920F931F93CF93DF936A
:101A70007C016B018A018AE090E0689FE001699F28
:101A8000D00D789FD00D1124C45EDB4FEA824B83CA
:101A90006DE170E0C7010E943E089D838C83013098
:101AA000110529F41E821F821886198618C002307B
:101AB000110581F00330110539F4AA27BB278E8365
:101AC0009F83A887B9871DC00430110541F4C70161
:101AD0000E94170D1E821F821886198612C00530BB
:101AE000110579F48AE090E0C89EF001C99EF00DDE
:101AF000D89EF00D1124E45EFB4F168217821086EB
:101B00001186DF91CF911F910F91FF90EF90DF90A1
:101B1000CF9008950E94C50820E030E0019711F4AD
:101B200021E030E0C9010895CF92DF92EF92FF9259
:101B30001F93CF93DF93EC016B010E94A3500D978D
:101B4000D4F4C6010E94C508892BA9F0EE24FF2415
:101B50001881B701C6010E945508181761F48881E1
:101B6000882361F00894E11CF11C21968CE0E816B2
:101B7000F10421F0EDCF81E090E002C080E090E040
:101B8000DF91CF911F91FF90EF90DF90CF9008955C
:101B9000AF92BF92CF92DF92FF920F931F93CF939A
:101BA000DF935C016B010EE010E0B801C6010E94FA
:101BB0005508F82EC82FDD27BE01C5010E94940DDF
:101BC000892B39F4CE010E94C508882311F0FF202B
:101BD00039F40F5F1F4F0831110539F7C0E0D0E02D
:101BE000CE01DF91CF911F910F91FF90DF90CF90A9
:101BF000BF90AF900895CF92DF92EF92FF920F9334
:101C0000CF93DF936C01EB010E94C80D18161906E3
:101C10001CF4EE24FF2414C0CE010E94620C81301B
:101C200021F42FEFE22EF12C0BC00E949B10E82E26
:101C3000FF2402E02C2F40E0B601C7010E94E10A18
:101C4000C701DF91CF910F91FF90EF90DF90CF9080
:101C50000895CF92DF92EF92FF920F93CF93DF938D
:101C60006C01EB010E94C80D181619061CF4EE2435
:101C7000FF2414C0CE010E94620C813021F43FEF9A
:101C8000E32EF12C0BC00E949B10E82EFF2401E0F4
:101C90002C2F40E0B601C7010E94E10AC701DF9185
:101CA000CF910F91FF90EF90DF90CF900895AF927A
:101CB000BF92CF92DF92FF920F931F93CF93DF9348
:101CC0005C016B010EE010E0B801C6010E945508EE
:101CD000F82EC82FDD27BE01C5010E94940D892B67
:101CE00049F4CE010E94C508882321F0FF2011F09D
:101CF000992707C00F5F1F4F0831110529F780E0B2
:101D000090E0DF91CF911F910F91FF90DF90CF90E6
:101D1000BF90AF900895CF92DF92EF92FF920F9312
:101D20001F93CF93DF936C017B010EE010E0B801AD
:101D3000C7010E945508C82FDD27BE01C6010E94B9
:101D4000940D892B39F00F5F1F4F0831110579F77A
:101D5000CFEFDFEFCE01DF91CF911F910F91FF9079
:101D6000EF90DF90CF9008958F929F92AF92BF92A5
:101D7000CF92DF92EF92FF920F931F93CF93DF9357
:101D8000CDB7DEB72D970FB6F894DEBF0FBECDBF2F
:101D90006C014B01FC0191917F01F6018181009161
:101DA0007701109178019E3279F48E3251F4C80196
:101DB0000E943D0C8C0142E0E42EF12CEC0CFD1C49
:101DC00035C08F3291F532C09F3221F4760100E0A8
:101DD00010E02CC0892F81568A3118F091549A3125
:101DE00020F55E010894A11CB11CB501C6010E943A
:101DF00060087C01892B61F4B801C5010E94570E6F
:101E0000009779F0F40191838083B801C5012BC05C
:101E1000B801C5010E94570E892BA9F1B801C5016F
:101E20002EC0F4011182108230C07601C8010E94D8
:101E30008A0D892B41F16E010894C11CD11CB60199
:101E4000C7010E9460087C01FC018081882379F42D
:101E5000B801C6010E94570E009719F3F40191834F
:101E60008083B801C6010E948B0E8C010EC0B801A0
:101E7000C6010E94570E892B31F0B801C6010E949D
:101E80008B0E8C01D3CF0FEF1FEFC8012D960FB62D
:101E9000F894DEBF0FBECDBFDF91CF911F910F91A0
:101EA000FF90EF90DF90CF90BF90AF909F908F907A
:101EB00008950F931F93FC018B01CB0168E070E044
:101EC0000E944C52E60FF71F2081332727FD3095E3
:101ED000C80168E070E00E944C5202C03595279519
:101EE0008A95E2F7C901817090701F910F91089552
:101EF000CF93DF93EC01FB019A01CB0168E070E026
:101F00000E944C52C60FD71F4881232B71F0CF017E
:101F100068E070E00E944C5221E030E002C0220FE5
:101F2000331F8A95E2F7422B0EC0CF0168E070E0C4
:101F30000E944C5221E030E002C0220F331F8A95EC
:101F4000E2F7209542234883DF91CF910895E9E796
:101F5000F1E0119281E0E939F807D9F708950F937C
:101F60001F93CF93DF93C0E0D0E0BE0189E791E0FB
:101F70000E94590F8E010F5F1F4F892B49F441E0DA
:101F800050E0BE0189E791E00E94780FC80106C0C9
:101F9000E8010050114049F78FEF9FEFDF91CF919B
:101FA0001F910F910895019740E050E0BC0189E72F
:101FB00091E00E94780F08950F931F93CF93DF93C2
:101FC00000E010E0C0E0D0E0BE0189E791E00E94AF
:101FD000590F019711F40F5F1F4F219681E0C03018
:101FE000D80791F780E091E0801B910BDF91CF91B2
:101FF0001F910F91089508950F931F93CF93DF932F
:1020000080E090E0EC0121966DE070E0CE010E944E
:102010005508182F6CE070E0CE010E945508113071
:10202000C9F48230B9F40EE010E0B801CE010E948C
:102030005508882351F0682F77276150704041E0A0
:1020400050E089E791E00E94780F0F5F1F4F063143
:10205000110559F7CE01C036D105A1F6DF91CF9118
:102060001F910F91089549E751E060E270E08EE41E
:102070009CE00E94C23A089549E751E060E270E0B6
:102080008EE49CE00E94B03A08950F931F93FC01E8
:102090008B01CB0168E070E00E944C52E60FF71F05
:1020A0002081332727FD3095C80168E070E00E9449
:1020B0004C5202C0359527958A95E2F7C901817087
:1020C00090701F910F910895CF93DF93EC01FB0166
:1020D0009A01CB0168E070E00E944C52C60FD71FF6
:1020E0004881232B71F0CF0168E070E00E944C52D0
:1020F00021E030E002C0220F331F8A95E2F7422B25
:102100000EC0CF0168E070E00E944C5221E030E048
:1021100002C0220F331F8A95E2F72095422348839D
:10212000DF91CF910895E4E4F4E0119284E0E0358A
:10213000F807D9F708950F931F93CF93DF93C0E06B
:10214000D0E0BE0184E494E00E9445108E010F5F50
:102150001F4F892B49F441E050E0BE0184E494E034
:102160000E946410C80106C0E8010036110549F755
:102170008FEF9FEFDF91CF911F910F9108950197FE
:1021800040E050E0BC0184E494E00E9464100895B3
:102190000F931F93CF93DF93C0E0D0E000E010E0F7
:1021A000BE0184E494E00E944510019711F40F5F92
:1021B0001F4F2196C036D10599F780E690E0801B2D
:1021C000910BDF91CF911F910F9108950F931F9362
:1021D000CF93DF93C0E0D0E08E010F5F1F4F6DE023
:1021E00070E0C8010E945508882319F440E050E0CF
:1021F00002C041E050E0BE0184E494E00E9464101B
:10220000E8010036110541F7DF91CF911F910F9141
:10221000089544E454E06CE070E082E49CE00E94A5
:10222000B03A089544E454E06CE070E082E49CE04D
:102230000E94C23A0895109290008FE089B9599A8D
:10224000E5E9F0E08081866080838AB188698AB997
:1022500081E0809399011092BB011092BC01089516
:102260001F93182F80919901882311F40E941B114C
:102270005D9BFECF1CB91F910895CF93DF93EC01B6
:102280008CEF0E94301103C00E943011219688818A
:102290008823D1F78CEF0E943011DF91CF91089500
:1022A0000F931F93CF93DF93EC01062F8CEF0E94C7
:1022B000301110E004C089910E9430111F5F101787
:1022C000D1F78CEF0E943011DF91CF911F910F91C8
:1022D00008958A3010F0895A01C0805D0E94301143
:1022E0000895CF93DF93CDB7DEB724970FB6F89458
:1022F000DEBF0FBECDBF69837A838B839C838C81C5
:102300000E9430118B810E9430118A810E9430110D
:1023100089810E94301124960FB6F894DEBF0FBE5B
:10232000CDBFDF91CF9108951F93182F82958F70A5
:102330000E946911812F8F700E9469111F91089569
:10234000CF93DF93CDB7DEB724970FB6F894DEBFF7
:102350000FBECDBF69837A838B839C838DEF0E94F0
:10236000301169817A818B819C810E9471118DEF7E
:102370000E94301124960FB6F894DEBF0FBECDBF79
:10238000DF91CF910895EF92FF920F931F937B01FE
:102390008C018EEF0E943011C801B7010E947111AB
:1023A0008EEF0E9430111F910F91FF90EF900895D2
:1023B000CF93DF93CDB7DEB724970FB6F894DEBF87
:1023C0000FBECDBF69837A838B839C8380E30E9499
:1023D000301188E70E9430118C810E9494118B810A
:1023E0000E9494118A810E94941189810E94941103
:1023F00024960FB6F894DEBF0FBECDBFDF91CF910C
:102400000895AF92BF92CF92DF92EF92FF920F9317
:102410001F93CF93DF93CDB7DEB760970FB6F894D5
:10242000DEBF0FBECDBF69837A838B839C832D83F0
:102430003E834F835887E986FA860B871C87AD86D3
:10244000BE86CF86D88A81E00E94301169817A8168
:102450008B819C810E94D8116D817E818F819885AE
:102460000E94D81169857A858B859C850E94D81138
:102470006D857E858F8598890E94D81160960FB6EC
:10248000F894DEBF0FBECDBFDF91CF911F910F91AA
:10249000FF90EF90DF90CF90BF90AF9008951F9284
:1024A0000F920FB60F9211240F931F932F933F9308
:1024B0004F935F936F937F938F939F93AF93BF934C
:1024C000EF93FF93CF93DF93CDB7DEB72197DEBFB6
:1024D000CDBF0CB10E945551182F0E94CF4B8823BD
:1024E00011F419820EC08DB79EB79093F8098093AE
:1024F000F7098091BE089091BF089EBF8DBF81E013
:102500008983812F0E945251013619F50E9455513D
:10251000282F5F9BFECF0CB15F9BFECF1CB11053E9
:1025200090E009C05F9BFECF8CB1E92FFF27E656F4
:10253000FE4F80839F5F9117A9F7822F0E9452510F
:1025400000534AE951E0612F802F99270E94824B66
:102550001BC00A37C9F40E945551382F20E090E083
:102560005F9BFECF8CB1E22FFF27E656FE4F8083A4
:102570009F5F913210F42F5FF3CF832F0E9452514F
:102580008AE991E00E94AD390E945551282FE981D6
:10259000E13061F48DB79EB79093BF088093BE0879
:1025A0008091F7099091F8099EBF8DBF822F0E94FC
:1025B00052512196F894DEBFCDBFDF91CF91FF91AC
:1025C000EF91BF91AF919F918F917F916F915F91AB
:1025D0004F913F912F911F910F910F900FBE0F9030
:1025E0001F90189581E090E008951F930E940B3191
:1025F000182F0E94BF31682F812F0E9429519927DF
:102600001F9108950E945551982F8091500488235E
:1026100009F074C0109250048BE080936E048FE137
:1026200080935104892F0E9452510E94F51280E03C
:1026300098EF909353048093520482EE92E090932B
:1026400055048093540480E095E090935704809360
:10265000560480E890EE90935904809358048FE0DC
:1026600097EA90935B0480935A04809151049927D0
:10267000806E906690935D0480935C0485EE92E199
:1026800090935F0480935E0486E59AE090936104E2
:102690008093600480916E0425E0829FC001112424
:1026A000825D9E4F9064909363048093620484ECF7
:1026B00091E09093650480936404109267041092F3
:1026C000660410926904109268048FE792E0909378
:1026D0006B0480936A0410926D0410926C040E9443
:1026E000555192E0909350040E94525165E08AEF58
:1026F00094E10E94634981E090E0089510925004B3
:102700008BE080936E048FE180935104892F0E94A7
:10271000525180E090E008950E94343008950E9464
:10272000A13099270895CF93DF93CDB7DEB72297D5
:102730000FB6F894DEBF0FBECDBF9A8389830E9487
:102740000D509A838983AE014F5F5F4F62E08AE646
:1027500091E00E948F13992722960FB6F894DEBF5E
:102760000FBECDBFDF91CF9108950E942A189927FF
:1027700008950E94A831992708950E9475309927DD
:10278000089560E070E08DE10E94BD1365E084E98A
:1027900094E10E94634980E090E008950E945F30D8
:1027A00099270895609152047091530480E10E942A
:1027B000BD13609154047091550481E10E94BD13D2
:1027C00081E10E948C1320915404309155048217AA
:1027D000930719F080E090E008956091560470919D
:1027E000570482E10E94BD1360915804709159040E
:1027F00083E10E94BD1360915A0470915B0484E1EF
:102800000E94BD1360915C0470915D0485E10E949B
:10281000BD1360915E0470915F0486E10E94BD1358
:10282000609160047091610487E10E94BD13609122
:1028300062047091630488E10E94BD136091640496
:102840007091650489E10E94BD13609166047091E6
:1028500067048AE10E94BD1360916A0470916B0461
:102860008CE10E94BD1360916C0470916D048DE148
:102870000E94BD1389E00E94CE1388E00E94CE130F
:1028800081E090E0089520915C0430915D04207E09
:1028900099278F719070282B392B30935D042093EA
:1028A0005C04609162047091630485E10E94BD1331
:1028B00086FF03C083E00E94CE1381E090E008957C
:1028C000CF93DF93CDB7DEB722970FB6F894DEBF74
:1028D0000FBECDBF842F952F9A83898389819A81DA
:1028E0000E94431422960FB6F894DEBF0FBECDBFF0
:1028F000DF91CF91089560916204709163046070DC
:102900007C7F80509840682B792B70936304609390
:10291000620488E10E94BD1386FF03C083E00E9429
:10292000CE1381E090E008950E94D21380917B073E
:1029300090917C070E9493138091620490916304AC
:1029400091708050984F0E947B140E94555194E0E2
:10295000909350040E9452510E94B5130895CF9352
:10296000DF93CDB7DEB722970FB6F894DEBF0FBE68
:10297000CDBF842F952F9A83898389819A810E9464
:102980007B1422960FB6F894DEBF0FBECDBFDF9149
:10299000CF91089595E0899FC0011124825D964FE3
:1029A0000E947B1481E090E00895CF93DF93CDB730
:1029B000DEB722970FB6F894DEBF0FBECDBF842FCF
:1029C000952F9A83898389819A810E94CA142296BD
:1029D0000FB6F894DEBF0FBECDBFDF91CF91089543
:1029E00083E00E94CE1381E090E008950E942718B2
:1029F000992708950E94F61408950E942A3688E5C2
:102A000092E00E949A3581E090E008950E94283675
:102A100088E592E00E949A3581E090E008950E9456
:102A20006D2F9927089568E170E08DE10E94BD1334
:102A300081E00E940F1581E00E94CE1381E090E0BA
:102A400008950E945551982F809150048230B1F41E
:102A500083E080935004892F0E9452510E94B91341
:102A60000E9406150E9418360E9446180E941636CB
:102A70000E9446180E94131599270895892F0E94D5
:102A8000525180E090E0089581E090E0089581E067
:102A900090E0089581E090E0089581E090E008954D
:102AA00082E08093ED0408950F931F930E94555187
:102AB000082F8091ED04882361F465E084EF97E1AD
:102AC0000E946349882329F081E08093ED0411E09E
:102AD00001C010E0802F0E945251812F99271F9131
:102AE0000F9108950E942A2F992708950E947A3AFB
:102AF000992708950E94555192E09093ED040E9409
:102B00005251E091EB04F091EC0480818B50808372
:102B100060E08091EB049091EC040E94761508959A
:102B20000F931F930E94555192E09093ED040091F2
:102B3000EB041091EC04F80190819B5090830E946B
:102B4000525161E0C8010E9476151F910F910895BE
:102B50000E94162E992708950E941C3A08950F93FB
:102B60001F93CF93DF930E94555100916F041091F2
:102B700070040E945251C8010E94AC15EC010E94E1
:102B80005551209721F0D0937004C0936F04E091C9
:102B90006F04F09170041082109272040E945251DE
:102BA000DF91CF911F910F9108950E94132F9927C4
:102BB00008950E94343008950E94F01499270895D2
:102BC0000E94AA2F992708951F93CF93DF93EC01BA
:102BD0000E9455511091ED040E945251123019F08B
:102BE00080E090E040C088E08A838091E7048823F9
:102BF00011F081E201C081E089838FEF9FEF9D8317
:102C00008C838E819F810E940D509F838E8388814B
:102C1000855F8883809171048F5F809371048B83BB
:102C2000CE58DF4F19821882C257D0408881825017
:102C30008093EE04D093EC04C093EB0488E080937F
:102C4000E8040E94555195E09093ED040E94525182
:102C500065E082E497E10E946349882311F40E94B1
:102C60007A1581E090E0DF91CF911F9108950E9445
:102C7000832E992708950E945F30992708950E9416
:102C8000D5158FE30E94D91588E00E943B1688E095
:102C90000E943B160E945551109272040E9452519C
:102CA00080E00E94E01508951F930E949336892BBF
:102CB00021F40E943E36892B91F10E945551182F24
:102CC00080917204882351F065E083E996E10E94C7
:102CD0006349882399F40E943F1610C081E08093D5
:102CE0007204812F0E94525160916F0470917004A0
:102CF00080E70E94A815882391F404C0812F0E94C8
:102D000052510DC00E945551109272040E945251AE
:102D100065E083E996E10E946349882311F40E94EB
:102D20003F161F9108950E9454160895FF920F9325
:102D30001F93CF93DF93F82E8B010E9455510E9471
:102D400052510E949336892B21F40E943E36892BE2
:102D5000E1F0FF20D1F080E78F15B8F010937004F8
:102D600000936F04E80189818770813071F48A8152
:102D7000883059F4F80180818B508083C0916F04B2
:102D8000D09170048881853648F00E943F160E94D9
:102D90005551109272040E9452514EC08E819F81F3
:102DA0000E942C509F838E83D801AF0DB11D9D01D1
:102DB00021503040E0916F04F0917004E059FF4FD2
:102DC000E9018881881F8827881F8083E0916F042C
:102DD000F0917004E259FF4F12978C918083E0913B
:102DE0006F04F0917004E159FF4F88818F778083E1
:102DF0000E945551182F65E08FEA95E10E946349C2
:102E0000882311F410927204812F0E9452510E9463
:102E10009336892B21F40E943E36892B59F00E946B
:102E20003E36892B39F465E083E996E10E946349D7
:102E3000882311F40E943F1681E090E0DF91CF914A
:102E40001F910F91FF9008951F930E949336892B35
:102E500019F40E943F1612C00E945551182F65E0C8
:102E600083E996E10E946349882319F00E94D515F1
:102E700002C00E943F16812F0E94525181E090E0D3
:102E80001F91089589E00E943B16882319F40E943F
:102E90007A1508956091EB047091EC048091EE0432
:102EA0008F5F0E943716882311F40E947A150895C7
:102EB0000E94462F99270895CF93DF93EC018091CC
:102EC000ED04833019F0843059F519C080E00E9478
:102ED00058170E947436892B19F40E94721503C08A
:102EE00084E08093ED04E091EB04F091EC04EE5863
:102EF000FF4FD183C0838091ED04843089F086E058
:102F00008093ED040E94721581E00E94581765E0DD
:102F100080E995E10E946349882311F40E947A15A3
:102F200081E090E0DF91CF91089585E00E943B160B
:102F300080E00E943B1686958695869580FF04C0AA
:102F400081E00E94581708950E947A1508951F93F2
:102F50000E9455511091ED040E9452511530C1F458
:102F60000E949336892B31F40E943E36892B11F44E
:102F70000E943F160E94A436892B61F00E94555191
:102F800093E09093ED040E9452510E94951702C065
:102F90000E943F161F9108950E94A71781E090E0BC
:102FA00008950E942115992708951F930E94555155
:102FB0001091ED040E945251112319F080E090E02D
:102FC00011C00E9455519AE09093ED041092E804CC
:102FD000E0916F04F091700410820E9452510E949F
:102FE000D11799271F9108950E945551982F8091CC
:102FF000ED04813041F41092ED04892F0E9452516A
:103000000E94D5170895892F0E94525108950E9459
:1030100055511092ED04109271041092E704109231
:10302000720423E734E03093700420936F0410920D
:1030300073040E94525180917B0790917C0790937A
:10304000EA048093E9040E9402139927089581E01D
:1030500090E008951F930E9455511091ED040E9435
:1030600052511A3079F40E94DC1580E00E94E0157C
:1030700081E00E9458170E94555192E09093ED0410
:103080000E94525181E090E01F91089500000000DD
:1030900008958895089578940895F89408958FB7C1
:1030A000F894992708958FBF0895E0E0F0E009951E
:1030B000089578948895000000000895EAE8F0E00B
:1030C000808181608083808188608083EDE7F0E08B
:1030D00080818061808380E593EC9093870080936A
:1030E00086001092F0041092EF048091EF0490910A
:1030F000F0049093F2048093F104109289001092EE
:1031000088000895EAE8F0E080818E7F808308954A
:103110008091EF049091F0040895CF93DF932FB73F
:10312000F894C0918800D0918900CE0190708E5F94
:103130009040029710F4C050D140C230D10538F40D
:103140006091F1047091F2046F5F7F4F04C0609151
:10315000F1047091F2042FBF8827992720E533EC02
:1031600040E050E00E9419529B01AC01BE0188274B
:103170009927620F731F841F951FDF91CF910895C8
:1031800082B79927089581B79927089581BF089537
:103190001F920F920FB60F9211242F933F934F93CC
:1031A0005F936F937F938F939F93AF93BF93EF93AF
:1031B000FF930E944F18282F8091F1049091F20400
:1031C00001969093F2048093F1048091F104909120
:1031D000F2048055934C69F48091EF049091F004CF
:1031E00001969093F0048093EF041092F2041092F1
:1031F000F104822F0E945318FF91EF91BF91AF917C
:103200009F918F917F916F915F914F913F912F91FE
:103210000F900FBE0F901F9018950F931F93082FBC
:10322000162F17700E94555197B79E7F97BF97B77B
:103230009D7F97BF90B7986090BF186013BF12BE74
:1032400001BF97B7926097BF0E94525181E090E012
:103250001F910F9108950E9433259927089578941E
:103260001F920F920FB60F9211240F931F932F935B
:103270003F934F935F936F937F938F939F93AF93FE
:10328000BF93EF93FF930E945551182F0E94CF4B8D
:10329000882311F400E00DC08DB79EB79093F80914
:1032A0008093F7098091BE089091BF089EBF8DBFA3
:1032B00001E0812F0E9452510E945551982F809118
:1032C000F103882369F08091F0038093EF03886015
:1032D0008093F00383BF8091F20381BF1092F103CA
:1032E000892F0E9452510E942B190E945551282F5C
:1032F000013061F48DB79EB79093BF088093BE08EC
:103300008091F7099091F8099EBF8DBF822F0E948E
:103310005251FF91EF91BF91AF919F918F917F910A
:103320006F915F914F913F912F911F910F910F904E
:103330000FBE0F901F901895CF93DF93CDB7DEB7D8
:1033400022970FB6F894DEBF0FBECDBF0E94555135
:1033500089830E94134D8A8389810E9452516A8118
:1033600085E60E946B510E94434C22960FB6F8945A
:10337000DEBF0FBECDBFDF91CF910895CF93DF9316
:10338000CDB7DEB722970FB6F894DEBF0FBECDBF24
:103390000E94555189830E94134D8A8389810E941E
:1033A00052516A8186E60E946B510E94E734229650
:1033B0000FB6F894DEBF0FBECDBFDF91CF91089559
:1033C000CF93DF93CDB7DEB722970FB6F894DEBF69
:1033D0000FBECDBF0E94555189830E94134D8A8331
:1033E00089810E9452516A8187E60E946B510E9436
:1033F000193522960FB6F894DEBF0FBECDBFDF9110
:10340000CF910895CF93DF93CDB7DEB722970FB654
:10341000F894DEBF0FBECDBF0E940D4D9A83898305
:1034200089819A81482F592F22960FB6F894DEBFD2
:103430000FBECDBFDF91CF910895CF93DF93CDB76E
:10344000DEB722970FB6F894DEBF0FBECDBF0E9445
:10345000555189830E94134D8A8389810E9452515C
:103460006A8188E60E946B510E94021A22960FB66A
:10347000F894DEBF0FBECDBFDF91CF910895CF93FB
:10348000DF93CDB7DEB722970FB6F894DEBF0FBE3D
:10349000CDBF0E94094A9A83898389819A81482FE6
:1034A000592F22960FB6F894DEBF0FBECDBFDF9125
:1034B000CF910895CF93DF93CDB7DEB722970FB6A4
:1034C000F894DEBF0FBECDBF0E94555189830E9484
:1034D000134D8A8389810E9452516A8189E60E9434
:1034E0006B510E943F1A22960FB6F894DEBF0FBEB2
:1034F000CDBFDF91CF910895CF93DF93CDB7DEB7E6
:1035000022970FB6F894DEBF0FBECDBF0E94555173
:1035100089830E94134D8A8389810E9452516A8156
:103520008AE60E946B510E949B4A22960FB6F8943D
:10353000DEBF0FBECDBFDF91CF910895CF93DF9354
:10354000CDB7DEB722970FB6F894DEBF0FBECDBF62
:10355000842F952F9A83898389819A810E94104AAA
:1035600022960FB6F894DEBF0FBECDBFDF91CF918C
:103570000895CF93DF93CDB7DEB722970FB6F894B7
:10358000DEBF0FBECDBF0E94555189830E94134DEF
:103590008A8389810E9452516A818BE60E946B5115
:1035A0000E949E1A22960FB6F894DEBF0FBECDBFC2
:1035B000DF91CF910895CF93DF93CDB7DEB72297F8
:1035C0000FB6F894DEBF0FBECDBF0E94134D9A8395
:1035D000898389819A81482F592F22960FB6F894B2
:1035E000DEBF0FBECDBFDF91CF910895CF93DF93A4
:1035F000CDB7DEB722970FB6F894DEBF0FBECDBFB2
:103600000E94555189830E94134D8A8389810E94AB
:1036100052516A818CE60E946B510E94DB1A2296FD
:103620000FB6F894DEBF0FBECDBFDF91CF910895E6
:10363000CF93DF93CDB7DEB722970FB6F894DEBFF6
:103640000FBECDBF0E94D0009A83898389819A8161
:10365000482F592F22960FB6F894DEBF0FBECDBF6C
:10366000DF91CF910895CF93DF93CDB7DEB7229747
:103670000FB6F894DEBF0FBECDBF0E9455518983AF
:103680000E94134D8A8389810E9452516A818DE67E
:103690000E946B510E94181B22960FB6F894DEBF51
:1036A0000FBECDBFDF91CF910895CF93DF93CDB7FC
:1036B000DEB722970FB6F894DEBF0FBECDBF0E94D3
:1036C000D3009A83898389819A81482F592F229622
:1036D0000FB6F894DEBF0FBECDBFDF91CF91089536
:1036E000CF93DF93CDB7DEB722970FB6F894DEBF46
:1036F0000FBECDBF0E94555189830E94134D8A830E
:1037000089810E9452516A818EE60E946B510E940B
:10371000551B22960FB6F894DEBF0FBECDBFDF91CA
:10372000CF910895CF93DF93CDB7DEB722970FB631
:10373000F894DEBF0FBECDBF0E94CD009A8389836F
:1037400089819A81482F592F22960FB6F894DEBFAF
:103750000FBECDBFDF91CF910895CF93DF93CDB74B
:10376000DEB722970FB6F894DEBF0FBECDBF0E9422
:10377000555189830E94134D8A8389810E94525139
:103780006A818FE60E946B510E94921B22960FB6AF
:10379000F894DEBF0FBECDBFDF91CF910895CF93D8
:1037A000DF93CDB7DEB722970FB6F894DEBF0FBE1A
:1037B000CDBF0E94555189830E94134D8A83898110
:1037C0000E9452516A8180E70E946B510E943B0126
:1037D00022960FB6F894DEBF0FBECDBFDF91CF911A
:1037E0000895CF93DF93CDB7DEB722970FB6F89445
:1037F000DEBF0FBECDBF0E94555189830E94134D7D
:103800008A8389810E9452516A8181E70E946B51AB
:103810000E942B0122960FB6F894DEBF0FBECDBFDB
:10382000DF91CF910895CF93DF93CDB7DEB7229785
:103830000FB6F894DEBF0FBECDBF0E9455518983ED
:103840000E94134D8A8389810E9452516A8182E7C6
:103850000E946B510E940F0122960FB6F894DEBFB2
:103860000FBECDBFDF91CF910895CF93DF93CDB73A
:10387000DEB722970FB6F894DEBF0FBECDBF0E9411
:10388000555189830E94134D8A8389810E94525128
:103890006A8183E70E946B510E94F30022960FB663
:1038A000F894DEBF0FBECDBFDF91CF910895CF93C7
:1038B000DF93CDB7DEB722970FB6F894DEBF0FBE09
:1038C000CDBF0E94555189830E94134D8A838981FF
:1038D0000E9452516A8184E70E946B510E94D60077
:1038E00022960FB6F894DEBF0FBECDBFDF91CF9109
:1038F0000895CF93DF93CDB7DEB722970FB6F89434
:10390000DEBF0FBECDBF0E94555189830E94134D6B
:103910008A8389810E9452516A8185E70E946B5196
:103920000E94422822960FB6F894DEBF0FBECDBF8C
:10393000DF91CF910895CF93DF93CDB7DEB7229774
:103940000FB6F894DEBF0FBECDBF0E9455518983DC
:103950000E94134D8A8389810E9452516A8186E7B1
:103960000E946B510E94392822960FB6F894DEBF50
:103970000FBECDBFDF91CF910895CF93DF93CDB729
:10398000DEB722970FB6F894DEBF0FBECDBF0E9400
:10399000555189830E94134D8A8389810E94525117
:1039A0006A8187E70E946B510E94302822960FB6E9
:1039B000F894DEBF0FBECDBFDF91CF910895CF93B6
:1039C000DF93CDB7DEB722970FB6F894DEBF0FBEF8
:1039D000CDBF0E94555189830E94134D8A838981EE
:1039E0000E9452516A8188E70E946B510E942728E9
:1039F00022960FB6F894DEBF0FBECDBFDF91CF91F8
:103A00000895CF93DF93CDB7DEB722970FB6F89422
:103A1000DEBF0FBECDBF0E94555189830E94134D5A
:103A20008A8389810E9452516A8189E70E946B5181
:103A30000E941E2822960FB6F894DEBF0FBECDBF9F
:103A4000DF91CF910895CF93DF93CDB7DEB7229763
:103A50000FB6F894DEBF0FBECDBF0E9455518983CB
:103A60000E94134D8A8389810E9452516A818AE79C
:103A70000E946B510E94152822960FB6F894DEBF63
:103A80000FBECDBFDF91CF910895CF93DF93CDB718
:103A9000DEB724970FB6F894DEBF0FBECDBF842FDC
:103AA000952F9C838B83862F972F9A8389832981D7
:103AB0008B819C81622F0E94634924960FB6F894F3
:103AC000DEBF0FBECDBFDF91CF910895CF93DF93BF
:103AD000CDB7DEB722970FB6F894DEBF0FBECDBFCD
:103AE0000E94555189830E94134D8A8389810E94C7
:103AF00052516A818BE70E946B510E94451D2296AC
:103B00000FB6F894DEBF0FBECDBFDF91CF91089501
:103B1000CF93DF93CDB7DEB722970FB6F894DEBF11
:103B20000FBECDBF0E94034A9A83898389819A81FF
:103B3000482F592F22960FB6F894DEBF0FBECDBF87
:103B4000DF91CF910895CF93DF93CDB7DEB7229762
:103B50000FB6F894DEBF0FBECDBF0E9455518983CA
:103B60000E94134D8A8389810E9452516A818CE799
:103B70000E946B510E94881D22960FB6F894DEBFFA
:103B80000FBECDBFDF91CF910895CF93DF93CDB717
:103B9000DEB722970FB6F894DEBF0FBECDBF0E94EE
:103BA0006C489A83898389819A81482F592F22965C
:103BB0000FB6F894DEBF0FBECDBFDF91CF91089551
:103BC000CF93DF93CDB7DEB722970FB6F894DEBF61
:103BD0000FBECDBF0E94555189830E94134D8A8329
:103BE00089810E9452516A818DE70E946B510E9427
:103BF000C51D22960FB6F894DEBF0FBECDBFDF9174
:103C0000CF910895CF93DF93CDB7DEB722970FB64C
:103C1000F894DEBF0FBECDBF0E94555189830E942C
:103C2000134D8A8389810E9452516A818EE70E94D6
:103C30006B510E94A34822960FB6F894DEBF0FBEC8
:103C4000CDBFDF91CF910895CF93DF93CDB7DEB78E
:103C500022970FB6F894DEBF0FBECDBF0E9455511C
:103C600089830E94134D8A8389810E9452516A81FF
:103C70008FE70E946B510E94B94D22960FB6F894BF
:103C8000DEBF0FBECDBFDF91CF910895CF93DF93FD
:103C9000CDB7DEB7882D992D9093F6048093F50467
:103CA0008091F5049091F60402969093F604809327
:103CB000F5048A2D9B2D9093F6048093F504809152
:103CC000F5049091F60402969093F6048093F5041F
:103CD0008C2D9D2D9093F6048093F5048091F5042E
:103CE0009091F60402969093F6048093F504DF9188
:103CF000CF910895CF93DF93CDB7DEB722970FB65C
:103D0000F894DEBF0FBECDBF0E94555189830E943B
:103D1000134D8A8389810E9452516A8180E80E94F2
:103D20006B510E94461E22960FB6F894DEBF0FBE5E
:103D3000CDBFDF91CF910895CF93DF93CDB7DEB79D
:103D400022970FB6F894DEBF0FBECDBF0E9455512B
:103D500089830E94134D8A8389810E9452516A810E
:103D600081E80E946B510E94B53422960FB6F894F8
:103D7000DEBF0FBECDBFDF91CF910895CF93DF930C
:103D8000CDB7DEB722970FB6F894DEBF0FBECDBF1A
:103D90000E94555189830E94134D8A8389810E9414
:103DA00052516A8182E80E946B510E940935229625
:103DB0000FB6F894DEBF0FBECDBFDF91CF9108954F
:103DC000CF93DF93CDB7DEB722970FB6F894DEBF5F
:103DD0000FBECDBF0E94555189830E94134D8A8327
:103DE00089810E9452516A8183E80E946B510E942E
:103DF000F93422960FB6F894DEBF0FBECDBFDF9127
:103E0000CF910895CF93DF93CDB7DEB722970FB64A
:103E1000F894DEBF0FBECDBF0E94555189830E942A
:103E2000134D8A8389810E9452516A8184E80E94DD
:103E30006B510E94A53422960FB6F894DEBF0FBED8
:103E4000CDBFDF91CF910895CF93DF93CDB7DEB78C
:103E500022970FB6F894DEBF0FBECDBF0E9455511A
:103E600089830E94134D8A8389810E9452516A81FD
:103E700085E80E946B510E94953422960FB6F89403
:103E8000DEBF0FBECDBFDF91CF910895CF93DF93FB
:103E9000CDB7DEB722970FB6F894DEBF0FBECDBF09
:103EA0000E94555189830E94134D8A8389810E9403
:103EB00052516A8186E80E946B510E94D734229643
:103EC0000FB6F894DEBF0FBECDBFDF91CF9108953E
:103ED000CF93DF93CDB7DEB722970FB6F894DEBF4E
:103EE0000FBECDBF0E94555189830E94134D8A8316
:103EF00089810E9452516A8187E80E946B510E9419
:103F0000C73422960FB6F894DEBF0FBECDBFDF9147
:103F1000CF910895CF93DF93CDB7DEB722970FB639
:103F2000F894DEBF0FBECDBF0E94555189830E9419
:103F3000134D8A8389810E9452516A8188E80E94C8
:103F40006B510E942B4D22960FB6F894DEBF0FBE28
:103F5000CDBFDF91CF910895CF93DF93CDB7DEB77B
:103F600022970FB6F894DEBF0FBECDBF0E940C4A59
:103F70009A83898389819A81482F592F22960FB677
:103F8000F894DEBF0FBECDBFDF91CF910895CF93E0
:103F9000DF93CDB7DEB722970FB6F894DEBF0FBE22
:103FA000CDBF0E94555189830E94134D8A83898118
:103FB0000E9452516A8189E80E946B510E94AC1F95
:103FC00022960FB6F894DEBF0FBECDBFDF91CF9122
:103FD0000895CF93DF93CDB7DEB722970FB6F8944D
:103FE000DEBF0FBECDBF0E94064A9A8389838981B6
:103FF0009A81482F592F22960FB6F894DEBF0FBE34
:10400000CDBFDF91CF910895CF93DF93CDB7DEB7CA
:1040100022970FB6F894DEBF0FBECDBF0E94555158
:1040200089830E94134D8A8389810E9452516A813B
:104030008AE80E946B510E94E91F22960FB6F894FD
:10404000DEBF0FBECDBFDF91CF910895CF93DF9339
:10405000CDB7DEB722970FB6F894DEBF0FBECDBF47
:104060000E94555189830E94134D8A8389810E9441
:1040700052516A818BE80E946B510E94954A2296A8
:104080000FB6F894DEBF0FBECDBFDF91CF9108957C
:10409000CF93DF93CDB7DEB722970FB6F894DEBF8C
:1040A0000FBECDBF0E942B4B9A83898389819A8151
:1040B000482F592F22960FB6F894DEBF0FBECDBF02
:1040C000DF91CF910895CF93DF93CDB7DEB72297DD
:1040D0000FB6F894DEBF0FBECDBF0E945551898345
:1040E0000E94134D8A8389810E9452516A818CE813
:1040F0000E946B510E94482022960FB6F894DEBFB2
:104100000FBECDBFDF91CF910895CF93DF93CDB791
:10411000DEB722970FB6F894DEBF0FBECDBF0E9468
:10412000555189830E94134D8A8389810E9452517F
:104130006A818DE80E946B510E94544B22960FB603
:10414000F894DEBF0FBECDBFDF91CF910895CF931E
:10415000DF93CDB7DEB722970FB6F894DEBF0FBE60
:10416000CDBF0E94823A9A83898389819A81482FA0
:10417000592F22960FB6F894DEBF0FBECDBFDF9148
:10418000CF910895CF93DF93CDB7DEB722970FB6C7
:10419000F894DEBF0FBECDBF0E94555189830E94A7
:1041A000134D8A8389810E9452516A818EE80E9450
:1041B0006B510E94A72022960FB6F894DEBF0FBE67
:1041C000CDBFDF91CF910895CF93DF93CDB7DEB709
:1041D0000E94C53ADF91CF910895CF93DF93CDB779
:1041E000DEB722970FB6F894DEBF0FBECDBF0E9498
:1041F000555189830E94134D8A8389810E945251AF
:104200006A818FE80E946B510E94E42022960FB6CB
:10421000F894DEBF0FBECDBFDF91CF910895CF934D
:10422000DF93CDB7DEB70E94B33ADF91CF91089507
:10423000CF93DF93CDB7DEB722970FB6F894DEBFEA
:104240000FBECDBF0E94555189830E94134D8A83B2
:1042500089810E9452516A8180E90E946B510E94BB
:104260000F2122960FB6F894DEBF0FBECDBFDF91AF
:10427000CF910895CF93DF93CDB7DEB7DF91CF9184
:104280000895CF93DF93CDB7DEB722970FB6F8949A
:10429000DEBF0FBECDBF0E94555189830E94134DD2
:1042A0008A8389810E9452516A8181E90E946B51FF
:1042B0000E943A2122960FB6F894DEBF0FBECDBF02
:1042C000DF91CF910895CF93DF93CDB7DEB7DF9124
:1042D000CF910895CF93DF93CDB7DEB722970FB676
:1042E000F894DEBF0FBECDBF0E94555189830E9456
:1042F000134D8A8389810E9452516A8182E90E940A
:104300006B510E94632122960FB6F894DEBF0FBE58
:10431000CDBFDF91CF910895CF93DF93CDB7DEB7B7
:1043200022970FB6F894DEBF0FBECDBF0E94555145
:1043300089830E94134D8A8389810E9452516A8128
:1043400083E90E946B510E94EB3922960FB6F894D4
:10435000DEBF0FBECDBFDF91CF910895CF93DF9326
:10436000CDB7DEB722970FB6F894DEBF0FBECDBF34
:104370000E948D519A83898389819A81482F592F70
:1043800022960FB6F894DEBF0FBECDBFDF91CF915E
:104390000895CF93DF93CDB7DEB722970FB6F89489
:1043A000DEBF0FBECDBF0E94555189830E94134DC1
:1043B0008A8389810E9452516A8184E90E946B51EB
:1043C0000E94AE2122960FB6F894DEBF0FBECDBF7D
:1043D000DF91CF910895CF93DF93CDB7DEB72297CA
:1043E0000FB6F894DEBF0FBECDBF0E945551898332
:1043F0000E94134D8A8389810E9452516A8185E906
:104400000E946B510E94AF1422960FB6F894DEBF43
:104410000FBECDBFDF91CF910895CF93DF93CDB77E
:10442000DEB722970FB6F894DEBF0FBECDBF0E9455
:10443000555189830E94134D8A8389810E9452516C
:104440006A8186E90E946B510E94D51422960FB6AC
:10445000F894DEBF0FBECDBFDF91CF910895CF930B
:10446000DF93CDB7DEB722970FB6F894DEBF0FBE4D
:10447000CDBF0E94555189830E94134D8A83898143
:104480000E9452516A8187E90E946B510E94601418
:1044900022960FB6F894DEBF0FBECDBFDF91CF914D
:1044A0000895CF93DF93CDB7DEB722970FB6F89478
:1044B000DEBF0FBECDBF0E9461489A838983898188
:1044C0009A81482F592F22960FB6F894DEBF0FBE5F
:1044D000CDBFDF91CF910895CF93DF93CDB7DEB7F6
:1044E00022970FB6F894DEBF0FBECDBF0E94555184
:1044F00089830E94134D8A8389810E9452516A8167
:1045000088E90E946B510E94512222960FB6F894BE
:10451000DEBF0FBECDBFDF91CF910895CF93DF9364
:10452000CDB7DEB722970FB6F894DEBF0FBECDBF72
:10453000842F952F9A83898389819A810E94664866
:1045400022960FB6F894DEBF0FBECDBFDF91CF919C
:104550000895CF93DF93CDB7DEB722970FB6F894C7
:10456000DEBF0FBECDBF0E94555189830E94134DFF
:104570008A8389810E9452516A8189E90E946B5124
:104580000E948E2222960FB6F894DEBF0FBECDBFDA
:10459000DF91CF910895CF93DF93CDB7DEB7229708
:1045A0000FB6F894DEBF0FBECDBF0E94DF4B9A83DB
:1045B000898389819A81482F592F22960FB6F894C2
:1045C000DEBF0FBECDBFDF91CF910895CF93DF93B4
:1045D000CDB7DEB722970FB6F894DEBF0FBECDBFC2
:1045E0000E94555189830E94134D8A8389810E94BC
:1045F00052516A818AE90E946B510E94CB22229615
:104600000FB6F894DEBF0FBECDBFDF91CF910895F6
:10461000CF93DF93CDB7DEB722970FB6F894DEBF06
:104620000FBECDBF0E94E24B9A83898389819A8114
:10463000482F592F22960FB6F894DEBF0FBECDBF7C
:10464000DF91CF910895CF93DF93CDB7DEB7229757
:104650000FB6F894DEBF0FBECDBF0E9455518983BF
:104660000E94134D8A8389810E9452516A818AE98E
:104670000E946B510E94082322960FB6F894DEBF69
:104680000FBECDBFDF91CF910895CF93DF93CDB70C
:10469000DEB722970FB6F894DEBF0FBECDBF0E94E3
:1046A000555189830E94134D8A8389810E945251FA
:1046B0006A818CE90E946B510E94164E22960FB6B9
:1046C000F894DEBF0FBECDBFDF91CF910895CF9399
:1046D000DF93CDB7DEB722970FB6F894DEBF0FBEDB
:1046E000CDBF0E948A519A83898389819A81482FFC
:1046F000592F22960FB6F894DEBF0FBECDBFDF91C3
:10470000CF910895CF93DF93CDB7DEB724970FB63F
:10471000F894DEBF0FBECDBF842F952F9C838B8373
:10472000862F972F9A83898329818B819C81622F81
:104730000E94A4F324960FB6F894DEBF0FBECDBF3F
:10474000DF91CF910895CF93DF93CDB7DEB7249754
:104750000FB6F894DEBF0FBECDBF842F952F9C837C
:104760008B83862F972F9A83898329818B819C81C4
:10477000622F0E94ECF224960FB6F894DEBF0FBEB3
:10478000CDBFDF91CF910895CF93DF93CDB7DEB743
:1047900023970FB6F894DEBF0FBECDBF842F952FA1
:1047A0009B838A830E94134D89838A819B81BC01EC
:1047B00089810E94E54B23960FB6F894DEBF0FBEA9
:1047C000CDBFDF91CF910895CF93DF93CDB7DEB703
:1047D00027970FB6F894DEBF0FBECDBF822F932F61
:1047E0009C838B83842F952F9A838983862F972F81
:1047F0009F838E830E94134D8D838E819F8149817B
:104800005A816B817C819C018D810E94174827967B
:104810000FB6F894DEBF0FBECDBFDF91CF910895E4
:10482000CF93DF93CDB7DEB722970FB6F894DEBFF4
:104830000FBECDBF0E94104D9A83898389819A81D2
:10484000482F592F22960FB6F894DEBF0FBECDBF6A
:10485000DF91CF910895CF93DF93CDB7DEB7269741
:104860000FB6F894DEBF0FBECDBF842F952F9E8369
:104870008D83862F972F9C838B83822F932F9A83F0
:1048800089838DB79EB79093F4048093F30480914D
:10489000BE089091BF089EBF8DBF6B8189819A81B0
:1048A0002D813E81AC01C9010E94CFF18DB79EB729
:1048B0009093BF088093BE088091F3049091F40414
:1048C0009EBF8DBF26960FB6F894DEBF0FBECDBF3C
:1048D000DF91CF910895CF93DF93CDB7DEB72697C1
:1048E0000FB6F894DEBF0FBECDBF842F952F9E83E9
:1048F0008D83862F972F9C838B83822F932F9A8370
:1049000089838DB79EB79093F4048093F3048091CC
:10491000BE089091BF089EBF8DBF6B8189819A812F
:104920002D813E81AC01C9010E9413F18DB79EB764
:104930009093BF088093BE088091F3049091F40493
:104940009EBF8DBF26960FB6F894DEBF0FBECDBFBB
:10495000DF91CF910895CF93DF93CDB7DEB7229744
:104960000FB6F894DEBF0FBECDBF0E9455518983AC
:104970000E94134D8A8389810E9452516A818DE978
:104980000E946B510E94A85122960FB6F894DEBF88
:104990000FBECDBFDF91CF910895CF93DF93CDB7F9
:1049A000DEB722970FB6F894DEBF0FBECDBF0E94D0
:1049B000555189830E94134D8A8389810E945251E7
:1049C0006A818EE90E946B510E949B5122960FB61C
:1049D000F894DEBF0FBECDBFDF91CF910895982F21
:1049E0008091F7048F3019F48FEF8093F704E091F2
:1049F000F704EF5FE093F7048091FC048F5F8093EE
:104A0000FC04FF27E050FB4F9083089581E090E085
:104A100008959091FC04992319F480E190E00895A1
:104A2000809112058F3019F48FEF80931205E09179
:104A30001205EF5FE093120591509093FC04FF275D
:104A4000E050FB4F80819927089581E090E0089520
:104A50000E94C61808950E94C318992708950E94BD
:104A6000C01899270895FF920F931F930E945551E4
:104A7000F82E8091100590911105892B29F46CE096
:104A800083EC95E20E946349009110051091110595
:104A90000E942B250F5F1F4F080F111D109311054A
:104AA000009310058F2D0E94525181E090E01F91DC
:104AB0000F91FF9008959F92AF92BF92CF92DF9295
:104AC000EF92FF920F931F93E090F804F090F90497
:104AD0000091FA041091FB04E114F10401051105A1
:104AE000D9F196EE992E60E070E0E8E1F5E081E022
:104AF000A82EB12CC12CD12CD601C501062E04C084
:104B0000880F991FAA1FBB1F0A94D2F78E219F21DD
:104B1000A023B1230097A105B10571F02081318157
:104B200042815381892D9927AA27BB272817390746
:104B30004A075B070CF4922E6F5F7F4F3996603106
:104B40007105D1F60E945551182F0E942F258D5FB7
:104B5000891530F4892D04C00E945551182F86EE16
:104B60008093FE040E9428251092FF04812F0E944A
:104B700052511F910F91FF90EF90DF90CF90BF9017
:104B8000AF909F9008959F92AF92BF92CF92DF9285
:104B9000EF92FF920F931F93CF93DF9381E0809367
:104BA000FF040E945551A0901005B090110510927D
:104BB0001105109210050E9452518091F8049091B5
:104BC000F904A091FA04B091FB040097A105B10586
:104BD00009F482C0C3E1D5E0CC24DD249C2C21E083
:104BE000E22EF12C012D112D0C2C04C0EE0CFF1C1B
:104BF000001F111F0A94D2F78091F8049091F904D4
:104C0000A091FA04B091FB048E219F21A023B1232F
:104C10000097A105B10509F456C08D819E81AF8131
:104C2000B885950144275527821B930BA40BB50B20
:104C30008D839E83AF83B8870397A105B1050CF0E0
:104C400042C067E08CE597E20E946349882391F1B6
:104C50008881882389F48D819E81AF81B8852981DF
:104C60003A814B815C81820F931FA41FB51F8D83F6
:104C70009E83AF83B8871AC0A8019701209530950D
:104C8000409550958091F8049091F904A091FA0410
:104C9000B091FB0482239323A423B5238093F804CB
:104CA0009093F904A093FA04B093FB04892D0E9419
:104CB000EF2409C08091FE049927AA27BB278D8382
:104CC0009E83AF83B8870894C11CD11C299680E1CC
:104CD000C816D10409F082CF0E94555100911005E9
:104CE000109111050E945251012B11F40E945B2575
:104CF000DF91CF911F910F91FF90EF90DF90CF90B8
:104D0000BF90AF909F9008959F92AF92BF92CF9225
:104D1000DF92EF92FF920F931F9359016A01803146
:104D200008F061C062300CF05EC0662331F42330BD
:104D300031054105510508F456C0E82EFF248701CE
:104D400033E0000F111F3A95E1F70E0D1F1D0D5EA8
:104D50001A4FF801A182B282C382D48260830E947A
:104D60005551982E0E942F25A80EB11CC11CD11C94
:104D7000F801A582B682C782D08621E030E040E00B
:104D800050E004C0220F331F441F551FEA94D2F78E
:104D90008091F8049091F904A091FA04B091FB0479
:104DA000822B932BA42BB52B8093F8049093F904BA
:104DB000A093FA04B093FB048091FE049927AA27DC
:104DC000BB27A816B906CA06DB0638F4A092FE0473
:104DD0008A2D0E9428251092FF04892D0E9452518D
:104DE00081E090E002C080E090E01F910F91FF9081
:104DF000EF90DF90CF90BF90AF909F900895EF928B
:104E0000FF920F931F93813108F04AC041E0E42ED6
:104E1000F12C012D112D04C0EE0CFF1C001F111FE1
:104E20008A95D2F78091F8049091F904A091FA0440
:104E3000B091FB048E219F21A023B1230097A105EF
:104E4000B10571F10E945551E094F09400951095D0
:104E50002091F8043091F9044091FA045091FB0438
:104E60002E213F21402351232093F8043093F9044D
:104E70004093FA045093FB040E9452518091F8042D
:104E80009091F904A091FA04B091FB040097A10558
:104E9000B10519F481E08093FF0481E090E002C045
:104EA00080E090E01F910F91FF90EF9008950E9495
:104EB000D04781E090E008950E940925803110F4E8
:104EC0000E94572708950E940D199927089510925E
:104ED000F8041092F9041092FA041092FB04109254
:104EE000FF048FEF8093F704809312051092FC0467
:104EF00083E08093FD0486EE8093FE0463E00E94CD
:104F000063279927089581EC93E008958DEC93E051
:104F100008951F920F920FB60F921124349A37986A
:104F20000F900FBE0F901F90189517B88EE086B99E
:104F3000089517B897B18F71982B97B93398349A11
:104F400086B1806C86B93699FECF84B1992725B198
:104F50003798332723703070322F2227822B932BE0
:104F600008951E9816981D9A159A81E090E00E9467
:104F700099271D98159808951D9815981E9A169AA8
:104F800081E090E00E9499271E9816980895A59AAE
:104F9000AD9A85E090E00E949927A598AD98089574
:104FA000A59AAD9A86E090E00E949927A598AD98C1
:104FB0000895A49AAC9A83E090E00E949927A4985F
:104FC000AC980895A49AAC9A84E090E00E94992746
:104FD000A498AC9808950E94B1279093CE03809333
:104FE000CD0308950E94BC279093CE038093CD03F8
:104FF00008950E94D9279093CE038093CD030895FE
:105000000E94E2279093CE038093CD0308950E94DF
:10501000C7279093CE038093CD0308950E94D02795
:105020009093CE038093CD0308950E94E227E091F0
:10503000C908F091CA08948F838F08950E94D927D8
:10504000E091C908F091CA08948F838F08950E9457
:10505000D027E091C908F091CA08948F838F0895F2
:105060000E94C727E091C908F091CA08948F838FE6
:1050700008950E94BC27E091C908F091CA08948F56
:10508000838F08950E94B127E091C908F091CA0862
:10509000948F838F08958FB7F894D39ADB9A95985D
:1050A0008D9A92988A98939A8B9A8FBF1092CF0379
:1050B0001092D0031092D1031092D20321E02093DA
:1050C000D30380E098E09093D5038093D4031092AB
:1050D000D6032093D70380E49CE90197F1F7089564
:1050E0008FB7F8949598DB988FBF08952FB7F894F1
:1050F00092B3977D92BB80E0959A8299806892BB2B
:10510000959A8299806492BB959A8299806292BBAB
:10511000959A8299806192BB959A8299886092BB98
:10512000959A8299846092BB959A8299826092BB8B
:10513000959A829981602FBF99270895982F3FB73C
:10514000F89422B3277D22BB80E097FD939A959A2D
:1051500022BB96FD939A959A22BB95FD939A959AB8
:1051600022BB94FD939A959A22BB93FD939A959AAC
:1051700022BB92FD939A959A22BB91FD939A959AA0
:1051800022BB90FD939A959A3FBF99270895CF929D
:10519000DF92EF92FF920F931F93CF93DF93CDB7E0
:1051A000DEB724970FB6F894DEBF0FBECDBF7A01ED
:1051B0006901813011F484E801C087E889831A828B
:1051C000872F99278B836C830E9470288E010F5F35
:1051D0001F4FF80181918F010E949E28CE010596F4
:1051E00008171907B1F700E010E007C0F701819137
:1051F0007F010E949E280F5F1F4F0C151D05B1F700
:10520000DB9A81E090E024960FB6F894DEBF0FBEE3
:10521000CDBFDF91CF911F910F91FF90EF90DF9065
:10522000CF9008950F931F93CF93DF93CDB7DEB741
:1052300024970FB6F894DEBF0FBECDBF813011F4B6
:1052400083E801C086E88983CB01880F892F881FF6
:10525000990B91958A83862F880F8B831C820E94DD
:1052600070288E010F5F1F4FF80181918F010E94FE
:105270009E28CE01059608171907B1F7DB9A81E041
:1052800090E024960FB6F894DEBF0FBECDBFDF913D
:10529000CF911F910F91089580E091E0089580E0F3
:1052A00098E00895FF920F931F930E945551F82E96
:1052B0000E94702887ED0E949E280E947628082F61
:1052C000DB9A8F2D0E945251112707FD10950095F2
:1052D00010950027110F001F1127C8011F910F9172
:1052E000FF900895FF920F931F93CF93DF93CDB755
:1052F000DEB724970FB6F894DEBF0FBECDBFF82EF1
:105300008B010E9452298823E1F76091D4037091A8
:10531000D5038091D3030E9412290E945229882329
:10532000E1F781E0F81611F483E501C085E5898392
:10533000C801880F892F881F990B91958A83802F28
:10534000880F8B831C820E9470288E010F5F1F4F75
:10535000F80181918F010E949E28CE0105960817C1
:105360001907B1F7DB9A81E090E024960FB6F89424
:10537000DEBF0FBECDBFDF91CF911F910F91FF9088
:1053800008954F925F926F927F928F929F92AF9209
:10539000BF92CF92DF92EF92FF920F931F93CF9322
:1053A000DF93CDB7DEB728970FB6F894DEBF0FBEF8
:1053B000CDBF2B013C01E090CF03F090D0030091D2
:1053C000D1031091D203C801B70128E031E040E0D9
:1053D00050E00E945F526901C801B70128E031E046
:1053E00040E050E00E945F524B018091D603882339
:1053F00089F1A090D403B090D503AC14BD0450F152
:10540000760100271127B40188279927640D751D9F
:10541000861D971D28E031E040E050E00E945F5279
:10542000E20EF31E041F151FC501AA27BB27E816AD
:10543000F9060A071B0770F00E9452298823E1F73A
:105440006091D4037091D5038091D3030E941229F7
:105450001092D6030E9452298823E1F788EE8983AF
:10546000C601880F892F881F990B91958A832C2D4F
:10547000220F892D9927282B2B838C821D821E8237
:105480001F8218860E9470288E010F5F1F4FF8013F
:1054900081918F010E949E28CE0109960817190755
:1054A000B1F70FEF1FEFCC24DD2476011FC00E945F
:1054B0007628582F40E890E061E270E19801220FD1
:1054C000331F852F842311F02F5F3F4F17FF02C03A
:1054D000262737279F5F983019F046958901EECF30
:1054E0000894C11CD11CE11CF11C8901C414D50411
:1054F000E604F704E1F620E041E250E1C801880F3C
:10550000991F17FF07C08C01042715272F5F203133
:1055100019F0F4CF8C01FACFDB9AC80128960FB6A8
:10552000F894DEBF0FBECDBFDF91CF911F910F91D9
:10553000FF90EF90DF90CF90BF90AF909F908F90B3
:105540007F906F905F904F9008956F927F928F92AF
:105550009F92AF92BF92CF92DF92EF92FF920F9302
:105560001F93CF93DF93CDB7DEB724970FB6F89490
:10557000DEBF0FBECDBF3C015B018091D603882307
:1055800071F00E9452298823E1F76091D403709151
:10559000D5038091D3030E9412291092D6030E9452
:1055A00052298823E1F78824992483C0E090CF030F
:1055B000F090D0030091D1031091D203C801B7013C
:1055C00028E031E040E050E00E945F526901C801EC
:1055D000B70128E031E040E050E00E945F528B01CB
:1055E000C501800F911F8950914010F4750106C0CC
:1055F00088E0E82E81E0F82EE01AF10A88E0E8164B
:1056000081E0F80640F4B60181E00E9472290E9410
:1056100052298823E1F7A301480D591D9701B801CC
:1056200081E00E94C72880E68983C601880F892F00
:10563000881F990B91958A838C2D880F8B831C82F0
:105640000E9470288E010F5F1F4FF80181918F011A
:105650000E949E28CE01059608171907B1F7DB9A1C
:105660000E94702887ED0E949E280E947628DB9A6F
:1056700087FDF6CF86FF02C061E020C08E0C9F1C24
:105680009701442755278091CF039091D003A09193
:10569000D103B091D203820F931FA41FB51F809333
:1056A000CF039093D003A093D103B093D203AE184D
:1056B000BF08A114B10409F079CF60E09501442737
:1056C00055278091CF039091D003A091D103B09141
:1056D000D203820F931FA41FB51F8093CF03909313
:1056E000D003A093D103B093D203862F9927249699
:1056F0000FB6F894DEBF0FBECDBFDF91CF911F91E3
:105700000F91FF90EF90DF90CF90BF90AF909F9060
:105710008F907F906F9008954F925F926F927F92DB
:105720008F929F92AF92BF92CF92DF92EF92FF92B1
:105730000F931F93CF93DF93CDB7DEB724970FB6A8
:10574000F894DEBF0FBECDBF2C014B01E090CF031C
:10575000F090D0030091D1031091D203C801B7019A
:1057600028E031E040E050E00E945F526901C8014A
:10577000B70128E031E040E050E00E945F527B0139
:105780008C010E9452298823E1F75701662477246F
:1057900090C0C4018A0D9B1D8950914010F4740182
:1057A00006C038E0E32E31E0F32EEA18FB088091C2
:1057B000D4039091D503C816D90609F44EC0809140
:1057C000D603882371F00E9452298823E1F7609163
:1057D000D4037091D5038091D3030E9412291092B3
:1057E000D6038091D303813011F482E001C081E0BF
:1057F0008093D303D092D503C092D40388E0E816F7
:1058000081E0F80648F40E9452298823E1F7B601A6
:105810008091D3030E9472290E9452298823E1F7C4
:1058200081E88983C601880F892F881F990B91957C
:105830008A838C2D880F8B831C820E9470288E0196
:105840000F5F1F4FF80181918F010E949E28CE01AA
:10585000059608171907B1F7DB9AA201460D571DE7
:105860009701B5018091D3030E94C72881E08093FE
:10587000D6036E0C7F1C9701442755278091CF03D8
:105880009091D003A091D103B091D203820F931FC6
:10589000A41FB51F8093CF039093D003A093D1038F
:1058A000B093D2038E189F080894C11CD11CAA245F
:1058B000BB248114910409F06CCF80E090E0249621
:1058C0000FB6F894DEBF0FBECDBFDF91CF911F9111
:1058D0000F91FF90EF90DF90CF90BF90AF909F908F
:1058E0008F907F906F905F904F9008958F929F92CE
:1058F000AF92BF92CF92DF92EF92FF920F931F93DE
:10590000CF93DF93CDB7DEB728970FB6F894DEBFFD
:105910000FBECDBF4C015B01E090CF03F090D003F0
:105920000091D1031091D203C801B70128E031E002
:1059300040E050E00E945F526901C801B70128E0D1
:1059400031E040E050E00E945F528B018091D6032D
:10595000882309F12091D4033091D5032C153D05FE
:10596000D0F0C8018A0D9B1D68E071E00E9438529A
:105970006C0D7D1D6217730770F00E9452298823F9
:10598000E1F76091D4037091D5038091D3030E9415
:1059900012291092D6030E9452298823E1F788EE3B
:1059A0008983C601880F892F881F990B91958A8357
:1059B0002C2D220F812F9927282B2B830C831D82BE
:1059C0001E821F8218860E9470288E010F5F1F4F53
:1059D000F80181918F010E949E28CE010996081737
:1059E0001907B1F700E010E0740107C00E947628A3
:1059F000F70181937F010F5F1F4F0A151B05B1F758
:105A0000DB9AC50128960FB6F894DEBF0FBECDBF56
:105A1000DF91CF911F910F91FF90EF90DF90CF908A
:105A2000BF90AF909F908F9008950F931F93CF9347
:105A3000DF93EC018B010E9452298823E1F7BE011C
:105A400081E00E9472290E9452298823E1F7B8015F
:105A500081E00E9412290E9452298823E1F7DF91F8
:105A6000CF911F910F910895AF92BF92DF92EF9265
:105A7000FF920F931F93CF93DF93EC01D62E5A0121
:105A800089018091D703882311F40E944B2888E074
:105A900091E0C89F7001C99FF00CD89FF00C1124B1
:105AA0006D2D7727C701860F971FAA2797FDA09511
:105AB000BA2F8093CF039093D003A093D103B093D8
:105AC000D203CB01800F911F815091402CF0C0E098
:105AD000D1E0C61BD70B01C0E8010E9452298823E0
