:100000000C94FE000C941D010C941D010C941D0118
:100010000C941D010C941D010C941D010C941D01E8
:100020000C941D010C941D010C941D010C941D01D8
:100030000C941D010C9482110C941D010C941D0153
:100040000C9435090C941D010C941D010C941D0198
:100050000C94000A0C941D010C941D010C941D01BC
:100060000C941D010C941D010C941D010C941D0198
:100070000C941D010C94411C0C941D010C941D0149
:100080000C94F2110C941D010C941D010C941D0193
:100090000C941D010C941D010C941D010C941D0168
:1000A0000C941D010C941D010C941D010C941D0158
:1000B0000C941D010C941D010C941D010C941D0148
:1000C0000C941D010C941D010C941D019D44A04431
:1000D000A344A644A944AC445D445D445D445D44EE
:1000E000AF44B2446F446F445D445D445D445D443D
:1000F0005D445D445D445D445D445D445D445D44F8
:100100005D445D445D445D4477447A447D4480446D
:1001100083445D445D445D445D445D445D445D44B1
:100120005D445D445D445D445D445D445D445D44C7
:1001300086445D445D445D445D445D445D445D448E
:100140005D445D4489445D445D445D445D445D447B
:100150005D445D445D445D448C445D445D445D4468
:100160005D445D445D445D445D445D448F445D4455
:100170005D445D445D445D445D445D445D445D4477
:100180005D445D445D445D445D445D445D445D4467
:100190005D445D445D445D445D445D445D445D4457
:1001A0005D445D445D445D445D445D445D445D4447
:1001B0005D445D445D445D445D445D4492445D4402
:1001C0005D445D445D445D445D445D445D445D4427
:1001D00095445D445D445D445D445D445D445D44DF
:1001E0005D445D445D445D4498445D445D445D44CC
:1001F0005D445D445D445D445D44744411241FBE10
:10020000CFEFD1E2DEBFCDBF12E0A0E0B2E0E4EC80
:10021000FDE900E00BBF02C007900D92A437B107C3
:10022000D9F71CE0A4E7B2E001C01D92A935B107DF
:10023000E1F70E943C120C94E04E0C940000CF9227
:10024000DF92EF92FF920F931F93CF93DF9381E0A2
:100250008093A7058093920585E08093A8050E946E
:10026000204CEC011092A70580E197E20E94754CAA
:100270003BE5F32E0FEF28E6E22E95E6D92E1CE69D
:100280008FE6C82E0BC08091A80590E08C179D07C3
:1002900009F443C084EF91E00E94754C20919205CF
:1002A000822F90E08C179D0771F79091A80580919F
:1002B000A7058F5F8093A7059093930510929405EF
:1002C0002093950590939605F092970500939805D5
:1002D000009399058091A70580939A05E0929B056C
:1002E000D0929C0510939D0510939E05C0929F058A
:1002F0001092A0058091A7058F5F8093A70585E1E7
:1003000090E060E070E040E123E935E00E94884839
:100310000E94E70E0E94EF0EBDCF8BE590E060E1FA
:1003200043E955E00E944E490E94EB0EB3CFA091E5
:100330000F062A2F30E021153105B1F06091CA0275
:1003400070E0E6E9F2E080E090E005C001963596C5
:100350008217930764F444814130C1F74081518191
:100360004617570799F708956091CA0270E0809187
:10037000100690911106AC014150504046175707A6
:1003800021F001968617970771F7F901EE0FFF1F0D
:10039000EE0FFF1FE20FF31FEA56FD4F71836083DC
:1003A0008091CB0282838091CC02838381E084831D
:1003B000AF5FA0930F060895E091E206F091E30687
:1003C00082E0828381E0809374020E94A74C0895AA
:1003D00010929A0210929F021092A4021092A90207
:1003E0001092AE021092B3021092B80210920F0651
:1003F000109274020895DF93CF930F92CDB7DEB7BA
:100400000E945248FC011092950285E190E0918390
:10041000808380E2828385E992E09483838385E709
:1004200092E0968385838EED92E0908787838CEDB2
:1004300091E0938782870E94783B109274028983AF
:10044000E8E1FCEE099589810E947B3B0F90CF91FA
:10045000DF910895DF93CF930F92CDB7DEB70E945F
:100460005248FC011092C9028BE090E09183808396
:1004700080E1828389EC92E0948383838AEC92E02A
:10048000968385838AED92E09087878387E991E060
:10049000938782870E94783B8983E8E1FCEE099587
:1004A00089810E947B3B0F90CF91DF9108958091CD
:1004B0001006909111068093B9028093BA0290932E
:1004C000BB020895EF92FF920F931F93CF93DF9398
:1004D0001092180610921706809117069091180630
:1004E0009093160680931506909314068093130636
:1004F00090930E0680930D061092E10610929A02D8
:1005000010929F021092A4021092A9021092AE02C1
:100510001092B3021092B80210920F061092740259
:100520000E94204C90931106809310060E944A4C22
:100530009093E5068093E406FC018081918190937D
:10054000E3068093E2060E94FB010E942A0280914A
:100550007402813009F0BDC010927402A09175023E
:100560005091760210917702409178026091790261
:1005700090917C02909312062091170630911806F4
:100580002F5F3F4F309318062093170630911206C5
:100590009091E106931708F09CC080911206809319
:1005A000E106209117063091180621503040309313
:1005B0001806209317068091100690911106242F9B
:1005C00030E02817390709F4B1C0E0900F06EE209B
:1005D00009F4A2C0B0E0C52FD0E0292F33272C1B8F
:1005E0003D0B90708A1B9B0B229FB001239F700DC7
:1005F000329F700D1124889F9001899F300D989F24
:10060000300D1124620F731FE8E9F2E004E6FF24C5
:1006100004C0F3943596FE1421F182818130C9F72C
:10062000808190E08A1B9B0B218130E02C1B3D0BCD
:10063000229FA001239F500D329F500D1124889FAF
:100640009001899F300D989F300D1124420F531F48
:1006500046175707F0F60F2DBA01F3943596FE149E
:10066000E1F6043609F458C00E945349802F90E007
:10067000FC01EE0FFF1FEE0FFF1FE80FF91FEA56F8
:10068000FD4F6081718185E190E04091950225E701
:1006900032E00E9488480E947F490E94E70E109233
:1006A0009502212F30E080911006909111062817B5
:1006B000390709F451C080910D0690910E060196FC
:1006C00090930E0680930D0680917402813009F498
:1006D00043CF88EB9BE00E94754C8091740281307F
:1006E00009F43ACF80911006909111068093B902D7
:1006F0008093BA029093BB020E9453498BE090E032
:100700006FEF7FEF40E129EB32E00E9488480E94C2
:100710007F49809174021DCF809117069091180631
:1007200001969093180680931706D3CF862F90E0FA
:1007300060E070E04091950225E732E00E94884831
:100740008091150690911606019690931606809357
:10075000150680917402FDCE8091130690911406C7
:100760000196909314068093130680917402F1CE43
:100770000000000008957894889500000000089516
:100780008895089578940895F89408958FB7F8940B
:1007900008958FBF0895E0E0F0E009950895000006
:1007A000000008951816190654F400000000000017
:1007B000000000000000000000000197B1F708955C
:1007C000129A08951298089521E030E0029902C02B
:1007D00020E030E0C90108950A9A08950A98089522
:1007E000119A08951198089521E030E0019902C00E
:1007F00020E030E0C9010895099A08950998089504
:10080000109A08951098089520B130E0217030704A
:10081000C9010895089A089508980895149A0895AA
:100820001498089521E030E0049902C020E030E0FF
:10083000C90108950C9A08950C980895159A089581
:100840001598089521E030E0059902C020E030E0DD
:10085000C90108950D9A08950D980895179A08955D
:100860001798089580B1992787FD9095892F881F43
:100870008827881F90E008950F9A08950F9808958B
:10088000139A08951398089521E030E0039902C067
:1008900020E030E0C90108950B9A08950B9808955F
:1008A0005D9A08955D98089521E030E04D9902C069
:1008B00020E030E0C9010895559A089555980895AB
:1008C0005B9A08955B98089521E030E04B9902C04F
:1008D00020E030E0C9010895539A0895539808958F
:1008E0005A9A08955A98089521E030E04A9902C032
:1008F00020E030E0C9010895529A08955298089571
:10090000749A08957498089521E030E0649902C0C3
:1009100020E030E0C90108956C9A08956C9808951C
:10092000759A08957598089521E030E0659902C0A0
:1009300020E030E0C90108956D9A08956D980895FA
:10094000769A08957698089521E030E0669902C07D
:1009500020E030E0C90108956E9A08956E980895D8
:10096000779A0895779808958CB1992787FD909587
:10097000892F881F8827881F90E008956F9A08950F
:100980006F9808952A9A08952A98089521E030E0F2
:100990001A9902C020E030E0C9010895229A089512
:1009A000229808952B9A08952B98089521E030E01D
:1009B0001B9902C020E030E0C9010895239A0895F0
:1009C00023980895299A08952998089521E030E000
:1009D000199902C020E030E0C9010895219A0895D4
:1009E00021980895409A08954098089526B130E0DE
:1009F00021703070C9010895389A08953898089583
:100A0000419A08954198089521E030E0319902C05B
:100A100020E030E0C9010895399A08953998089581
:100A2000429A08954298089521E030E0329902C038
:100A300020E030E0C90108953A9A08953A9808955F
:100A4000439A08954398089521E030E0339902C015
:100A500020E030E0C90108953B9A08953B9808953D
:100A6000449A08954498089521E030E0349902C0F2
:100A700020E030E0C90108953C9A08953C9808951B
:100A8000459A08954598089521E030E0359902C0CF
:100A900020E030E0C90108953D9A08953D980895F9
:100AA000469A08954698089521E030E0369902C0AC
:100AB00020E030E0C90108953E9A08953E980895D7
:100AC000479A08954798089586B1992787FD90958C
:100AD000892F881F8827881F90E008953F9A0895DE
:100AE0003F980895589A08955898089529B130E08C
:100AF00021703070C9010895509A08955098089552
:100B0000599A08955998089521E030E0499902C012
:100B100020E030E0C9010895519A08955198089550
:100B2000709A0895709808952CB130E0217030705B
:100B3000C9010895689A089568980895719A08956A
:100B40007198089521E030E0619902C020E030E022
:100B5000C9010895699A089569980895729A089547
:100B60007298089521E030E0629902C020E030E000
:100B7000C90108956A9A08956A980895739A089524
:100B80007398089521E030E0639902C020E030E0DE
:100B9000C90108956B9A08956B9808955A9A08951B
:100BA0005A98089521E030E04A9902C020E030E0F0
:100BB000C9010895529A0895529808955B9A08952C
:100BC0005B98089521E030E04B9902C020E030E0CE
:100BD000C9010895539A0895539808955D9A089508
:100BE0005D98089521E030E04D9902C020E030E0AA
:100BF000C9010895559A089555980895779A0895CA
:100C0000779808958CB1881F8827881F08956F9A58
:100C100008956F980895759A08957598089581E0DC
:100C2000659B80E008956D9A08956D980895769A71
:100C300008957698089581E0669B80E008956E9A05
:100C400008956E980895439A0895439808950895D5
:100C5000429A0895429808950895449A08954498B0
:100C600008950895459A0895459808950895469AD7
:100C700008954698089508950A9A089A099A3F9AFD
:100C80003E9A3D9A3C9A3B9A3A9A399A389A0C98ED
:100C900014980B9A539A559A139A129A109A119A79
:100CA0000895DF93CF930F92CDB7DEB78FB78983C7
:100CB000F8941092ED021092EA021092E70210925C
:100CC000E4021092EE021092EB021092EC021092EB
:100CD000E6021092E5021092E9021092E802898180
:100CE0008FBF0F90CF91DF9108951092E302109281
:100CF000E2020E945106279A0E9A84B1876084B955
:100D000085B1836085B980E58CBD81E08DBD83E4CC
:100D100080938100B59AEFE6F0E080818160808366
:100D200080818062808308958091ED020895DF9331
:100D3000CF930F92CDB7DEB78FB78983F894109217
:100D4000ED0289818FBF0F90CF91DF91089580913F
:100D5000EA020895DF93CF930F92CDB7DEB78FB736
:100D60008983F8941092EA0289818FBF0F90CF9106
:100D7000DF9108958091E7020895DF93CF930F925A
:100D8000CDB7DEB78FB78983F8941092E7028981D7
:100D90008FBF0F90CF91DF9108958091E8029091DD
:100DA000E9020895DF93CF930F92CDB7DEB72FB747
:100DB0002983F8949093E9028093E80289818FBF98
:100DC0000F90CF91DF910895DF93CF930F92CDB71E
:100DD000DEB78FB78983F8941092E9021092E80287
:100DE00089818FBF0F90CF91DF9108958091E402A8
:100DF0000895DF93CF930F92CDB7DEB78FB7898376
:100E0000F8941092E40289818FBF0F90CF91DF9107
:100E100008958091E5029091E6020895DF93CF93C3
:100E20000F92CDB7DEB72FB72983F8949093E602DF
:100E30008093E50289818FBF0F90CF91DF91089554
:100E4000DF93CF930F92CDB7DEB78FB78983F89436
:100E50001092E6021092E50289818FBF0F90CF9128
:100E6000DF9108958091EE020895DF93CF930F9262
:100E7000CDB7DEB78FB78983F8941092EE028981DF
:100E80008FBF0F90CF91DF9108958091EB0208956D
:100E9000DF93CF930F92CDB7DEB78FB78983F894E6
:100EA0001092EB0289818FBF0F90CF91DF9108954F
:100EB0008091EC020895DF93CF930F92CDB7DEB708
:100EC0008FB78983F8941092EC0289818FBF0F90BD
:100ED000CF91DF910895DF93CF930F92CDB7DEB717
:100EE00080689FB79983F89428988EBD0DB407FE4B
:100EF000FDCF8EB58EBD0DB407FEFDCF8EB5289A01
:100F000099819FBF0F90CF91DF910895DF93CF9389
:100F10000F92CDB7DEB7806C9FB79983F89428986D
:100F20008EBD0DB407FEFDCF8EB56EBD0DB407FEB0
:100F3000FDCF8EB5289A89818FBF0F90CF91DF9119
:100F40000895DF93CF9300D0CDB7DEB74A8369838E
:100F50000E946B076981862390E04A8102C09595C3
:100F600087954A95E2F70F900F90CF91DF91089502
:100F70000F931F93DF93CF9300D0CDB7DEB7182F19
:100F8000062F2A8349830E946B07602F6095682390
:100F90002A8130E0498102C0220F331F4A95E2F7CF
:100FA0002023622B812F0E9486070F900F90CF91F4
:100FB000DF911F910F9108950F931F93DF93CF93AC
:100FC00000D00F92CDB7DEB79C018FB78983F8941C
:100FD000289880E28EBD0DB407FEFDCF4EB580E2AD
:100FE00090E090935A07809359074EBD0DB407FEC9
:100FF000FDCF5EB5852F83508C3608F058C0D901DF
:1010000011965C931197F90132965C935EBD0DB415
:1010100007FEFDCF80E090E04EB54EBD41938C01C0
:101020000427002E0295007F0025012E102F029527
:101030000F700026069510270127000F000F000FE4
:101040000025C8010DB407FEFDCF515029F78EB51C
:10105000F901E059FF4F8083289A88E597E02A83B9
:101060003B830E94DF0B2A813B81F901E159FF4F4D
:101070008091580780830115110569F52F583F4F5E
:1010800081E0F90180838091EF029091F002A091BC
:10109000F102B091F2020196A11DB11D8093EF0201
:1010A0009093F002A093F102B093F2020AC0289A42
:1010B000F9011082E059FF4F10822F583F4FD9019C
:1010C0001C9289818FBF0F900F900F90CF91DF916D
:1010D0001F910F9108958091EF029091F002A091DD
:1010E000F102B091F2020196A11DB11D8093EF02B1
:1010F0009093F002A093F102B093F2028091F30278
:101100009091F40201969093F4028093F3022F5889
:101110003F4FD9011C92D5CFCF93DF93C6EED6E0D7
:10112000CE010E94DC07CE0101960E945C16DF9181
:10113000CF910895DF93CF930F92CDB7DEB7FC0127
:101140006F778FB78983F894289880E68EBD0DB4A9
:1011500007FEFDCF8EB580E690E090935A0780930E
:1011600059076EBD0DB407FEFDCF8EB581918EBDC2
:1011700061500DB407FEFDCF8EB56623B9F7289AEE
:1011800089818FBF0F90CF91DF910895DF93CF9327
:101190000F92CDB7DEB79FB79983F89428981EBCFD
:1011A0000DB407FEFDCF9EB58EBD0DB407FEFDCF7D
:1011B0008EB5E42FF52F1EBC0DB407FEFDCF8EB506
:1011C00081936150C1F7289A89818FBF0F90CF9189
:1011D000DF910895DF93CF930F92CDB7DEB7FA0179
:1011E0009FB79983F894289890E49EBD0DB407FEAC
:1011F000FDCF9EB58EBD0DB407FEFDCF8EB581919E
:101200008EBD0DB407FEFDCF8EB56150C1F7289A93
:1012100089818FBF0F90CF91DF910895DF93CF9396
:101220000F92CDB7DEB72091E2023091E30240E0A9
:1012300050E0A901332722278FB78983F894809142
:1012400084009091850069816FBFA0E0B0E0282BF9
:10125000392B4A2B5B2B5695479537952795B90126
:10126000CA010F90CF91DF9108951F920F920FB690
:101270000F920BB60F921124EF92FF920F931F93D0
:101280002F933F934F935F936F937F938F939F938E
:10129000AF93BF93EF93FF93E090E202F090E302ED
:1012A00000E010E08701FF24EE24809184009091FB
:1012B0008500A0E0B0E0E82AF92A0A2B1B2B289829
:1012C0008FE88EBD16950795F794E7940DB407FE49
:1012D000FDCF8EB58EBD0DB407FEFDCF9EB5289A0D
:1012E00092FF38C080E290E090935A0780935907AC
:1012F0008091E4028F5F8093E402E091E502F09137
:10130000E602309781F0289880E28EBD0DB407FE8A
:10131000FDCF8EB58EBD0DB407FEFDCF4EB5289A1C
:10132000C801B7010995FF91EF91BF91AF919F91CE
:101330008F917F916F915F914F913F912F911F916D
:101340000F91FF90EF900F900BBE0F900FBE0F907C
:101350001F90189593FF19C08091E7028F5F8093CB
:10136000E7028091590790915A078036910519F04C
:101370008032910521F1E091E802F091E902309785
:1013800091F2C801B7010995CECF96FD0CC091FD31
:1013900010C090FD21C097FD25C08091EE028F5FA7
:1013A0008093EE02C0CF8091EA028F5F8093EA02C1
:1013B000BACF8091EB028F5F8093EB02B4CF0E9493
:1013C000690B863019F086E00E94710C8CE898E079
:1013D0006AE00E94CE17CFCF8091EC028F5F80939E
:1013E000EC02A1CF8EE00E946B07682F6F778EE032
:1013F0000E9486078091ED028F5F8093ED0293CF6C
:101400001F920F920FB60F9211248F939F9380918A
:10141000E2029091E30201969093E3028093E2024C
:101420009F918F910F900FBE0F901F9018950E9463
:101430001C0D8034910561F01092F7021092F602B3
:101440001092F50286E00E94710C8091F7020895D7
:1014500085E10E94020C8034910571F781E060E023
:101460000E943B0B8034910539F781E00E94500DBA
:1014700081E08093F702E2CFCF93DF93EC0190936A
:101480005C0780935B0788E08A8381E08983809191
:10149000F5029091F6028B8301969093F602809369
:1014A000F5028FEF9FEF9D838C838E819F810E9439
:1014B0000C3A9F838E838B818F3F91F0FE01EE5813
:1014C000FF4F118210828881875F888389E00E94A4
:1014D000710C8034910531F080E0DF91CF91089557
:1014E0001B82ECCF89918E5FBE010E94600D80341B
:1014F00061F086E00E94710C8034910569F780E00C
:1015000092E00E94421580E0E8CF0E94690B89308A
:1015100031F089E00E94710C80349105E9F686E093
:101520000E94710C80349105B9F680E092E00E942F
:10153000421581E0D2CF86E00E94710C089588E0C8
:101540006FE140E00E94A107089585E06FE040E070
:101550000E94A1070895282F803178F41F9909C0AF
:1015600085E06FE040E00E94B80720E430E0C90168
:10157000089524E430E0C901089522E430E0C9016F
:10158000089588E060E645E00E94A107089589E09B
:101590006FE040E00E94A10708951F93282F162FA7
:1015A000833048F4603138F41F9B0AC024E430E0F3
:1015B000C9011F91089522E430E0C9011F910895E7
:1015C00088E060E645E00E94B80789E06FE040E00F
:1015D000212F0E94B80720E430E0C9011F9108952F
:1015E00081E16FE040E00E94A107089581E160E1A0
:1015F00044E00E94A10708951F93162F6031D0F494
:101600001F9913C08130D9F081E160E144E020E00E
:101610000E94B80781E16FE040E0212F0E94B807E7
:1016200020E430E0C9011F91089524E430E0C901AD
:101630001F91089522E430E0C9011F91089581E1CE
:1016400060E144E021E00E94B807E4CF81E160E27C
:1016500045E00E94A107882321F02BE430E0C90176
:1016600008952AE430E0C901089583E067E040E08E
:101670000E94A10708950F931F93082F162F66301D
:1016800030F022E430E0C9011F910F9108950E94CB
:10169000350B8117D9F0002391F083E068E043E037
:1016A00020E00E94B80783E067E040E0212F0E941D
:1016B000B80720E430E0C9011F910F91089583E03D
:1016C00068E043E021E00E94B807EDCF20E430E07D
:1016D000DACF81E06FE140E00E94A10708950E9407
:1016E000690B893021F024E430E0C90108958BE1D1
:1016F00060E847E021E00E94B8078AE160E847E03F
:1017000021E00E94B8070E945B078BE291E00197FD
:10171000F1F700C000000E945807882321F423E459
:1017200030E0C90108958BE160E847E00E94A1071D
:101730008823A9F78AE160E847E00E94A10788238F
:1017400071F720E430E0D1CF0E94690B88508230DD
:1017500020F024E430E0C901089588E160E847E022
:1017600021E00E94B80782E48A95F1F700C088E181
:1017700060E847E00E94A107882319F023E430E0E5
:10178000EACF20E430E0E7CFCF93DF93EC010E9473
:10179000690B863041F0813031F024E430E0C9013A
:1017A000DF91CF91089586E06FE140E00E94A107AC
:1017B000888320E430E0C901DF91CF910895CF9371
:1017C000DF93EC010E94690B863041F0813031F0EB
:1017D00024E430E0C901DF91CF91089587E060E013
:1017E0000E94860787E191E00197F1F700C00000B1
:1017F00087E00E946B07888320E430E0C901DF9115
:10180000CF9108951F93182F8B50803100F51F99A9
:1018100019C00E949F0A8117F9F088E06FE140E04B
:10182000212F0E94B8070E94690B8630D1F08930C1
:10183000C1F00E949F0A811779F023E430E0C901CA
:101840001F91089524E430E0C9011F91089522E416
:1018500030E0C9011F91089520E430E0C9011F91D3
:1018600008958BE291E00197F1F700C00000E1CF0D
:101870001F9B0FC02F988FED96E00197F1F700C0E6
:1018800000000E94690B883021F023E430E0C90198
:10189000089520E430E0C90108952F9880E18A95E9
:1018A000F1F782E06FE140E023E00E94B80782E0B8
:1018B0008A95F1F700C008951F990AC00E944D0C47
:1018C0000E94690B883041F023E430E0C90108959B
:1018D00020E430E0C90108952F9A20E430E0C901E6
:1018E00008950F931F93182F883059F0863049F0D0
:1018F000893039F0863129F0893119F022E430E05D
:101900002EC01F992AC00E94690B082F8150823077
:1019100050F1013141F1023131F11017E9F1183084
:1019200009F455C0193129F1163109F442C082E099
:101930006FE140E0212F0E94B807083099F192E052
:101940009A95F1F700C00E94690B811729F123E4F1
:1019500030E0C9011F910F91089524E430E0C901DE
:101960001F910F91089525E430E0C9011F910F9157
:1019700008950631E1F682E06FE140E029E00E943F
:10198000B80782E08A95F1F700C082E06FE140E09D
:10199000212F0E94B807D3CF20E430E0C9011F9166
:1019A0000F91089587E691E00197F1F700C00000DC
:1019B000CACF093109F0BBCF82E06FE140E026E0F9
:1019C0000E94B80792E09A95F1F700C0DECF0E941E
:1019D0004D0CB9CF0E94690B893021F024E430E02E
:1019E000C901089586E00E94710C8034910521F0B0
:1019F00023E430E0C901089588E060E847E021E091
:101A00000E94B80787E191E00197F1F700C000005C
:101A100081E00E946B0787FFEBCF86FF03C027E4BE
:101A200030E0DECF28E430E0DBCF16982F9880E15D
:101A30008A95F1F7169A08958BEF93E00197F1F7E5
:101A400000C000000E9475060E94150D82E06FE143
:101A500040E023E00E94B8078BEF93E00197F1F795
:101A600000C000000E94690B883021F023E430E0C0
:101A7000C90108958DE10E946B078150823020F0EA
:101A800021E430E0C90108958EE10E946B078F3197
:101A9000B9F78EE06FEC0E94860720E430E0E8CFD3
:101AA000813039F085E060E847E020E00E94B80727
:101AB000089585E060E847E021E00E94B8070895B6
:101AC0001F93CF93DF93182FEB0187FD0BC00E946C
:101AD000690B893071F024E430E0C901DF91CF91C6
:101AE0001F91089522E430E0C901DF91CF911F9149
:101AF00008952F9A2F98CE01612F0E949A0820E412
:101B000030E0C901DF91CF911F9108958EE268E026
:101B100043E00E94A10708958EE268E043E020E0E0
:101B20000E94B80708951F9383E20E946B07182F45
:101B300082E20E946B07512F40E0282F30E0242BD7
:101B4000352BC9011F910895DF93CF930F92CDB725
:101B5000DEB7682F82E299830E94860783E299812B
:101B6000692F0E9486070F90CF91DF9108951F93F0
:101B700081E20E946B07182F81E20E946B07512FB0
:101B800040E0282F30E0242B352BC9011F91089508
:101B9000DF93CF930F92CDB7DEB7682F80E29983A2
:101BA0000E94860781E29981692F0E9486070F9023
:101BB000CF91DF9108950F931F93CF93DF938C0103
:101BC0008BE20E946B07E80189938AE20E946B070F
:101BD000F80181838E010F5F1F4F89E20E946B071E
:101BE0008983E801219688E20E946B07F8018183CE
:101BF0008E010F5F1F4F87E20E946B078983E80108
:101C0000219686E20E946B07F80181838E010F5FA7
:101C10001F4F85E20E946B07898384E20E946B0755
:101C2000F8018183DF91CF911F910F910895CF9299
:101C3000DF92EF92FF920F931F93CF93DF93EC010C
:101C40008C010F5F1F4F8BE268810E94860778012D
:101C50000894E11CF11C8AE269810E948607E70171
:101C6000219689E2F80161810E9486076E0108943D
:101C7000C11CD11C88E2F70161810E9486078601A0
:101C80000F5F1F4F87E269810E948607E801219656
:101C900086E2F60161810E94860785E2F801618192
:101CA0000E94860784E269810E948607DF91CF91B6
:101CB0001F910F91FF90EF90DF90CF9008950F93B9
:101CC0001F93082F162F1F9930C08CE260EF44E05D
:101CD00020E00E94B807212F30E02873307035953E
:101CE000279535952795359527958CE26EE041E04F
:101CF0000E94B807212F22952695269523708EE203
:101D000060EC46E00E94B8078DE2602F0E948607D3
:101D1000212F27708EE267E040E00E94B80720E4A0
:101D200030E0C9011F910F91089524E430E0C9010A
:101D30001F910F9108950F931F93CF93DF93182F47
:101D4000EB01042F85508B3740F022E430E0C901CD
:101D5000DF91CF911F910F9108950E94690B8931F6
:101D600041F024E430E0C901DF91CF911F910F9140
:101D700008950E94BD062F9A2F98CE01612F0E94D0
:101D80009A080E94BA068823E1F382E060EE45E0FB
:101D90000E94A107882381F08330B1F02EE430E067
:101DA0000023A9F20E94690B8931E1F701500E94DA
:101DB000BD062F9A2F98E5CF20E430E0C901DF91CE
:101DC000CF911F910F9108952DE430E0E9CFE8E81D
:101DD000FCEE09950895E0E8FCEE09950895E4E825
:101DE000FCEE09950895ECE8FCEE09950895E0E90C
:101DF000FCEE09950895ECE9FCEE09950895E0EAFA
:101E0000FCEE09950895E4E9FCEE09950895E8E9EA
:101E1000FCEE099508950E94911CE091AE08F091A6
:101E2000AF08968F858F08950E949C1CE091AE08A4
:101E3000F091AF08968F858F08950E94A71CE091BE
:101E4000AE08F091AF08968F858F08950E94B01C60
:101E5000E091AE08F091AF08968F858F08950E94AB
:101E6000B91CE091AE08F091AF08968F858F089568
:101E70000E94C21CE091AE08F091AF08968F858F4A
:101E8000089588EF92E008956091FA027091FB0244
:101E90004091FC025091FD028091F8029091F9026C
:101EA0000E94001E08956091FA027091FB02409119
:101EB000FC025091FD028091F8029091F9020E947B
:101EC000031E089560918107709182074091660713
:101ED0005091670780915F07909160070E94B6223A
:101EE00087E064E00E94FA1B089560918107709179
:101EF0008207409166075091670780915F07909134
:101F000060070E94AE2187E063E00E94FA1B0895FB
:101F100080915F07909160070E94C92087E062E08E
:101F20000E94FA1B08958AE697E061E677E00E9436
:101F30006320E0916807F091690792A381A387E08D
:101F400061E00E94FA1B08958AE697E0089581E611
:101F500097E008958091AE089091AF08909369073B
:101F60008093680783E99FE065E00E94CE1708959B
:101F7000E091AE08F091AF0881A192A19093600723
:101F800080935F0788E89FE065E00E94CE17089580
:101F9000E091AE08F091AF0881A192A19093600703
:101FA00080935F0783A194A1909382078093810718
:101FB00085A196A1909367078093660785E79FE0C8
:101FC00065E00E94CE170895E091AE08F091AF0849
:101FD00081A192A19093600780935F0783A194A150
:101FE000909382078093810785A196A190936707BC
:101FF0008093660782E69FE065E00E94CE17089511
:10200000A091AE08B091AF089196ED91FC91929796
:10201000E0935F07F093600793964D915C919497DE
:102020005093800740937F0795962D913C9196970A
:1020300030935E0720935D07662757FD6095762FE6
:10204000CF010E94CF200895DF93CF9300D0CDB76A
:10205000DEB7842F952F9A8389830F900F90CF91AD
:10206000DF910895DF93CF9300D0CDB7DEB7842FF3
:10207000952F9A83898389819A810E949C160F905B
:102080000F90CF91DF910895DF93CF9300D0CDB71C
:10209000DEB7842F952F9A83898389819A810E9444
:1020A000A0160F900F90CF91DF91089589E890E1ED
:1020B00069E00E94CE1784E190E00E94DE1A0E943F
:1020C000971608958FE897E0089583E897E00895BC
:1020D000EF92FF920F931F934091860750918707CD
:1020E000209188073091890700918A0710918B070A
:1020F000E0908D07F0908E07809183079091840780
:10210000609185070E94BE161F910F91FF90EF907E
:10211000089540919307442381F160919407709151
:10212000950780EA97E00E94553A60919107709177
:10213000920761157105B1F466E977E08091930724
:1021400080939607FB011782168280918F079091EA
:1021500090079187808710920408109205080E94CA
:102160001F17089580918F079091900740919307D2
:1021700026E937E00E94DD1508958091940790913B
:1021800095070E94483B482F80939307C6CF9093B2
:10219000900780938F077093920760939107409305
:1021A0009307309395072093940789E890E169E0BD
:1021B0000E94CE1784E190E00E94DE1A0E949716DA
:1021C00008958EEA98E0089580EB98E00895E1E99B
:1021D000F0E0808181608083808188608083E1E796
:1021E000F0E080818260808380E593EC9093990099
:1021F0008093980010920B0810920A0880910A08A8
:1022000090910B08909311088093100810929500FC
:10221000109294000895E1E9F0E080818E7F808340
:10222000089520910A0830910B08C90108954FB70D
:10223000F894E0919400F0919500CF0190708E5F3A
:10224000904082309105C0F0E230F105D0F020914D
:102250001008309111084FBF40E553EC0E94B54D76
:102260009B01AC01CF01A0E0B0E0280F391F4A1F4D
:102270005B1FB901CA010895E050F140E230F10559
:1022800030F720911008309111082F5F3F4FE3CFB6
:102290008091B20008958091B30008950E94C639DC
:1022A00008958093B30008951F93DF93CF930F9207
:1022B000CDB7DEB7182F677069830E94783BE0E7DF
:1022C000F0E090819E7F908390819D7F9083A6EB2C
:1022D000B0E09C9190629C9392E09093B0006981F1
:1022E00068606093B1001092B2001093B3009081C7
:1022F000926090830E947B3B81E00F90CF91DF91B1
:102300001F91089578941F920F920FB60F920BB6FB
:102310000F9211240F931F932F933F934F935F932B
:102320006F937F938F939F93AF93BF93EF93FF939D
:102330000E94783B082F0E948118882309F450C01E
:102340002DB73EB730939C0920939B092091AC0890
:102350003091AD083EBF2DBF11E0802F0E947B3B26
:102360000E94783B90910E08992379F090910D0886
:1023700090930C08986090930D089093B100909101
:102380000F089093B30010920E080E947B3B0E94AE
:10239000C6390E94783B113061F42DB73EB73093B7
:1023A000AD082093AC0820919B0930919C093EBF59
:1023B0002DBF0E947B3BFF91EF91BF91AF919F9109
:1023C0008F917F916F915F914F913F912F911F91CD
:1023D0000F910F900BBE0F900FBE0F901F9018958E
:1023E00010E0BBCF1F920F920FB60F920BB60F9259
:1023F00011242F933F934F935F936F937F938F930A
:102400009F93AF93BF93EF93FF930E94C6032091D6
:102410001008309111082F5F3F4F3093110820931F
:102420001008209110083091110893EC20353907DD
:1024300071F420910A0830910B082F5F3F4F3093C1
:102440000B0820930A0810921108109210080E949D
:10245000C903FF91EF91BF91AF919F918F917F91B0
:102460006F915F914F913F912F910F900BBE0F9005
:102470000FBE0F901F901895AF92BF92CF92DF9230
:10248000EF92FF920F930E943C060E941A370E941F
:102490005D1C0E94BC170E945E180E94B3130E942C
:1024A000CB1C0E94141D0E945F1D0E94AA1D85E284
:1024B00098E066E272E048E00E94553A82E198E0D6
:1024C0006FE272E047E00E94553A81E090E090931D
:1024D00024088093230880912308909124089093E6
:1024E000FF028093FE026AE070E00E94C44D605DCE
:1024F00060931608805D809317080E94FD320E9449
:10250000C91D80E29CE060E170E045E258E00E9475
:10251000031E85E39CE060E170E042E158E00E9428
:10252000031E8091FE029091FF020E94EB120E9416
:10253000141D0E945F1D0E94AA1D80912308909186
:1025400024080E947B4E0E941D360E94BD150E94E9
:10255000CC150E94B3160E942F4485E10E949C1660
:1025600080E197E20E948D4D85EB94E46BEC7AE07C
:1025700049EC5BE020E030E00FE0A7E3EA2EA2E0C8
:10258000FA2ECC24DD24AA24BB240E948D1882E6D6
:1025900092E069E176E04FED56E020E030E0F0E4D3
:1025A000EF2EF2E0FF2E0E948D188FE191E069EA94
:1025B00075E04BE056E020E030E0E8E4EE2EE2E0AB
:1025C000FE2E0E948D180E94C2030E940B18FDCFA0
:1025D00082E198E00895BC018EE49CE00E94211EF7
:1025E00008958EE49CE00E940F1E0895682F84E5F4
:1025F0009CE00E941B1E089584E59CE00E94091E39
:10260000089590916A00906290936A00882331F453
:1026100080916A008F7E80936A00089580916A009D
:10262000806180936A000895169A08951698089517
:1026300021E030E0069902C020E030E0C9010895B1
:102640000E9A08950E980895159A0895159808956C
:1026500021E030E0059902C020E030E0C901089592
:102660000D9A08950D980895769A0895769808958C
:1026700021E030E0669902C020E030E0C901089511
:102680006E9A08956E980895769A089576980895AA
:1026900021E030E0669902C020E030E0C9010895F1
:1026A0006E9A08956E9808955E9A08955E980895BA
:1026B00021E030E04E9902C020E030E0C9010895E9
:1026C000569A0895569808955C9A08955C980895CE
:1026D00021E030E04C9902C020E030E0C9010895CB
:1026E000549A089554980895289A0895289808951A
:1026F00023B130E021703070C9010895209A089507
:10270000209808952F9A08952F98089583B19927B6
:1027100087FD9095892F881F8827881F90E008954E
:10272000279A0895279808955E9A08955E980895C7
:1027300021E030E04E9902C020E030E0C901089568
:10274000569A0895569808950E94E0040E94CE0477
:102750000E94EE040E9A0D9A20986E9856985498FE
:102760002798569808951092C5008FE08093C40072
:10277000E0ECF0E0808182608083E2ECF0E0808138
:1027800086608083E1ECF0E080818869808381E06D
:1027900080930405109205050895DF93CF930F925F
:1027A000CDB7DEB790910405992351F09091C00008
:1027B00095FFFCCF8093C6000F90CF91DF910895D5
:1027C00089830E94B3138981F1CFDF93CF930F9256
:1027D000CDB7DEB790910405992351F09091C000D8
:1027E00095FFFCCF8093C6000F90CF91DF910895A5
:1027F00089830E94B3138981F1CFCF93DF93EC01DA
:102800008CEF0E94CD138881882331F021960E949D
:10281000CD1389918823D9F78CEF0E94CD13DF91D6
:10282000CF910895EF92FF920F931F93CF93DF9371
:10283000EC017B018FEF0E94CD13E114F10451F004
:1028400000E010E089910E94CD130F5F1F4F0E151D
:102850001F05C0F38FEF0E94CD13DF91CF911F9121
:102860000F91FF90EF900895EF92FF920F931F93B7
:10287000DF93CF930F92CDB7DEB7182F062F8CEFD3
:1028800099830E94CD139981002361F0612F792FE4
:102890007B01F70181917F010E94CD138E2D811B59
:1028A0008017B8F38CEF0E94CD130F90CF91DF917A
:1028B0001F910F91FF90EF900895EF92FF920F9369
:1028C0001F93CF93DF93182F062F662361F0E12E1D
:1028D000E7017E01F92EE70189910E94E513AE011F
:1028E000411B4017C8F3DF91CF911F910F91FF90CB
:1028F000EF9008958A3020F4805D0E94CD130895F2
:10290000895A0E94CD130895DF93CF9300D000D051
:10291000CDB7DEB769837A838B839C838C810E94D9
:10292000CD138B810E94CD138A810E94CD138981A2
:102930000E94CD130F900F900F900F90CF91DF91C9
:1029400008951F93182F82958F700E947A14812FFB
:102950008F700E947A141F910895EF92FF920F9347
:102960001F937B018C018DEF0E94CD13C801B7012D
:102970000E9484148DEF0E94CD131F910F91FF9040
:10298000EF900895EF92FF920F931F937B018C01BC
:102990008EEF0E94CD13C801B7010E9484148EEF00
:1029A0000E94CD131F910F91FF90EF9008958CEF2F
:1029B0000E94CD138DE60E94CD138DE60E94CD13AB
:1029C0008DE60E94CD138CEF0E94CD130895DF9306
:1029D000CF9300D000D0CDB7DEB769837A838B83E5
:1029E0009C8380E30E94CD1388E70E94CD138C81E5
:1029F0000E94A1148B810E94A1148A810E94A114BB
:102A000089810E94A1140F900F900F900F90CF9189
:102A1000DF9108952F923F924F925F926F927F9233
:102A20008F929F92AF92BF92CF92DF92EF92FF92DE
:102A30000F931F931B012C0139014A0181E00E9471
:102A4000CD13C201B1010E94E714C401B3010E9479
:102A5000E714C801B7010E94E714C601B5010E943E
:102A6000E7141F910F91FF90EF90DF90CF90BF90F0
:102A7000AF909F908F907F906F905F904F903F901E
:102A80002F9008951F93CF93DF93EC010E94783B22
:102A9000182FCE010E94FD13812F0E947B3BDF91F6
:102AA000CF911F910895FF920F931F93CF93DF93C0
:102AB000EC018B010E94783BF82ECE01B8010E94F8
:102AC00012148F2D0E947B3BDF91CF911F910F91AC
:102AD000FF900895DF93CF930F92CDB7DEB70E949A
:102AE000783B89830E94D71489810E947B3B0F9099
:102AF000CF91DF910895DF92EF92FF920F931F9392
:102B00007B018C010E94783BD82EC801B7010E943E
:102B1000AD148D2D0E947B3B1F910F91FF90EF9084
:102B2000DF900895DF92EF92FF920F931F937B0146
:102B30008C010E94783BD82EC801B7010E94C214B4
:102B40008D2D0E947B3B1F910F91FF90EF90DF90A6
:102B50000895CF93DF93C0913B08D0913C08109229
:102B60003A080E949B0ACE010E943C0A882311F475
:102B700010923A08DF91CF91089510923708109281
:102B800036080E94170A10923A08109239081092DB
:102B90003808089580E0089510923A0880E008957A
:102BA000CF93DF93EC0110923A080E949B0ACE016A
:102BB0000E943C0ADF91CF910895EF92FF920F930C
:102BC0001F93DF93CF9300D00F92CDB7DEB78C0168
:102BD0007B0180913A08882359F581E080933A0877
:102BE000453668F010923A0880E00F900F900F90F1
:102BF000CF91DF911F910F91FF90EF90089589EA97
:102C000095E164E12A833B8349830E94CE172A81A0
:102C10003B814981882371F030933C0820933B0825
:102C2000F9014083F782E6821187008781E0DDCFDA
:102C300080E0DBCF10923A08D8CF81E0089580E0A1
:102C4000089581E0089581E00895CB010895CB01B6
:102C50000895EF92FF92CF93DF93EC012091230828
:102C6000309124088091380890913908019690930A
:102C7000390880933808D0935C07C0935B078E8136
:102C80009F814FEF8F3F940749F02817390731F0A4
:102C9000CE01DF91CF91FF90EF90089588859985BF
:102CA000BE010E941F17009799F3EC01CE01DF913E
:102CB000CF91FF90EF900895EF92FF92CF93DF9323
:102CC000EC012091230830912408809138089091DC
:102CD000390801969093390880933808D0935C079F
:102CE000C0935B078E819F814FEF8F3F940749F020
:102CF0002817390731F0CE01DF91CF91FF90EF9087
:102D0000089588859985BE010E941F17009799F341
:102D1000EC01CE01DF91CF91FF90EF9008951092DA
:102D20003A0881E0089510923A0881E008951092DF
:102D30003A080E949B0A089590E00E94020C0895B0
:102D400008952091360830913708C901089581E02F
:102D500090E09093370880933608089510923708D2
:102D60001092360808951092480810925408109254
:102D7000600810926C08109278080895EF92FF9204
:102D80000F931F93A8E4B8E0E0E0F0E07C91772394
:102D900051F031961C96E530F105C1F71F910F9166
:102DA000FF90EF900895DF01AA0FBB1FAE0FBF1F6A
:102DB000AA0FBB1FAA0FBB1FA15CB74F11969C9314
:102DC0008E9312966C93129714965C934E9313976E
:102DD00016963C932E93159718961C930E9317975F
:102DE0001B96FC92EE921A9781E019968C93199794
:102DF0001F910F91FF90EF900895EFE3F8E020E02E
:102E000030E04185413039F02F5F3F4F3C9625300F
:102E10003105B9F708954081518148175907A1F745
:102E2000F901EE0FFF1FE20FF31FEE0FFF1FEE0F72
:102E3000FF1FE15CF74F1186118210820895DF9227
:102E4000EF92FF920F931F93CF93DF938B01EFE3EA
:102E5000F8E0C0E0D0E0208131812817390791F0F7
:102E600021963C96C530D105B1F710933E080093EA
:102E70003D08C801DF91CF911F910F91FF90EF9016
:102E8000DF9008952185213059F710933E08009373
:102E90003D087E01EE0CFF1C97012C0F3D1F220FF9
:102EA000331F220F331F215C374FD9011596ED9147
:102EB000FC911697D8018C91D9011296DC9012974B
:102EC0008D1508F440C0DD2041F0D8011A9680E04D
:102ED0009D9191938F5F8D15D9F7F701EC0FFD1F31
:102EE000EE0FFF1FEE0FFF1FE15CF74F0780F0852D
:102EF000E02D309751F0D801A259BF4F8C918083BB
:102F0000D801A159BF4F8C918183F701EC0FFD1FB0
:102F1000EE0FFF1FEE0FFF1FE15CF74F82859385D9
:102F2000009719F066E00E94CE17F701EC0FFD1F25
:102F3000EE0FFF1FEE0FFF1FE15CF74F0380F481E0
:102F4000E02DD08296CFD82EBECFEFE3F8E02185DA
:102F5000213031F03C9628E0EB37F207C1F70895B5
:102F60002381348162177307A8F32817390790F378
:102F7000118611821082EECF1092AB0880E090E0B3
:102F8000FC01EE0FFF1FE80FF91FE558F74F118204
:102F9000108201968031910599F708950F931F9340
:102FA000DF93CF930F92CDB7DEB78C0169830E9478
:102FB000783B9091AB086981903199F020E030E046
:102FC000F901EE0FFF1FE20FF31FE558F74F4081A5
:102FD00051814115510571F02F5F3F4F203131056F
:102FE00079F70E947B3B80E00F90CF91DF911F919A
:102FF0000F9108951183008362839091AB089F5FC6
:103000009093AB080E947B3B81E00F90CF91DF91C2
:103010001F910F910895CF93DF930E94783B909179
:10302000AB089923C1F120E030E0C0E0D0E070E0CF
:1030300060E0F901EE0FFF1FE20FF31FE558F74FB5
:10304000408151814115510539F09281691720F471
:10305000C081D1816281722F2F5F3F4F20313105B6
:1030600041F7209711F19091AB0891509093AB08E4
:10307000272F30E0F901EE0FFF1FE20FF31FE55895
:10308000F74F118210820E947B3BFE01099581E07F
:10309000DF91CF9108950E947B3B0E94C2030E9462
:1030A000C00380E0DF91CF9108950E947B3B81E0D7
:1030B000DF91CF910895FC01099508951F930E9417
:1030C000783B182F80EB98E060E070E04AEE50E02B
:1030D0000E947E3B1092AF081092AE081092AD088D
:1030E0001092AC0810929C0910929B0910929A09B8
:1030F00010929E0910929D09812F0E947B3B1F9187
:1031000008952DB73EB781E040919D0950919E09E9
:103110004217530708F480E008954F925F926F9230
:103120007F928F929F92AF92BF92CF92DF92EF9257
:10313000FF920F931F93DF93CF9300D000D0CDB7B2
:10314000DEB74C013B0129012DB73EB780919D09A7
:1031500090919E0982179307F8F484179507A0F1C0
:1031600080E090E09C01220F331F220F331F220FBB
:10317000331FB901660F771F660F771F620F731F2A
:10318000681B790B6055774FFB012281222309F1DF
:1031900001968630910531F720E030E0C9010F90AB
:1031A0000F900F900F90CF91DF911F910F91FF9093
:1031B000EF90DF90CF90BF90AF909F908F907F90D7
:1031C0006F905F904F90089550939E0940939D0992
:1031D000C7CF49835A836B837C830E94783B182F27
:1031E0006B817C817093AF086093AE0849815A81EE
:1031F000FB015183408382E08283968E858E038318
:103200000483728A618A548B438B148E138E568A80
:10321000458AD08EC78AB28EA18EC7010E94483BD4
:103220002091AE083091AF08482F4F5FC901059635
:10323000B7010E94553AF301E40DF51D8FEF9EEEA4
:1032400091838083938382838DB79EB79093AD08DB
:103250008093AC08E091AE08F091AF088081918135
:103260009EBF8DBF84ED9AE18F939F9380E090E0A5
:103270001F92019682329105D9F78DB79EB791833F
:1032800080838091AC089091AD089EBF8DBF109255
:10329000AF081092AE0880919A09882331F0812FEF
:1032A0000E947B3B21E030E079CF89EC99E162E03C
:1032B0000E94CE1781E080939A09F1CF90E09C01A3
:1032C000220F331F220F331F220F331FF901EE0F7E
:1032D000FF1FEE0FFF1FE20FF31FE81BF90BE05576
:1032E000F74F748F638F0895FF93FFB7FF930F928B
:1032F0001F922F923F924F925F926F927F928F9286
:103300009F92AF92BF92CF92DF92EF92FF920F9374
:103310001F932F933F934F935F936F937F938F935D
:103320009F93AF93BF93CF93DF93EF93FF938DB7AB
:103330009EB79093AD088093AC08E091AE08F091F1
:10334000AF08808191819EBF8DBFFF91EF91DF918A
:10335000CF91BF91AF919F918F917F916F915F912D
:103360004F913F912F911F910F91FF90EF90DF9020
:10337000CF90BF90AF909F908F907F906F905F9015
:103380004F903F902F901F900F90FF91FFBFFF91A4
:103390000895FF920F931F93DF93CF9300D000D037
:1033A000CDB7DEB70E94783BF82E00E010E0980120
:1033B000220F331F220F331F220F331FA901440F87
:1033C000551F440F551F420F531F401B510B4055B3
:1033D000574F9A012E5F3F4FFA0182818430E9F105
:1033E0000F5F1F4F0630110511F78F2D0E947B3B99
:1033F0000E94F94C8C0197FD26C089EC99E163E0AD
:103400000E94CE17C8010E948F1B97FD1CC0AC0103
:10341000440F551F440F551F440F551F9A01220F8B
:10342000331F220F331F240F351F281B390B205544
:10343000374F3093AF082093AE080E947419109252
:10344000AF081092AE080F900F900F900F90CF9191
:10345000DF911F910F91FF90089589EC99E163E04E
:1034600029833A834B835C830E94CE1785E02981B0
:103470003A81F90180838F2D0E947B3B4B815C81D7
:10348000FA01258D368D40E050E0802F61E00E94EA
:103490004036D9CFFF93FFB7FF930F921F922F9221
:1034A0003F924F925F926F927F928F929F92AF92D4
:1034B000BF92CF92DF92EF92FF920F931F932F93C1
:1034C0003F934F935F936F937F938F939F93AF93AC
:1034D000BF93CF93DF93EF93FF93E091AE08F0910A
:1034E000AF088DB79EB7918380838091AC0890918F
:1034F000AD089EBF8DBFFF91EF91DF91CF91BF913E
:10350000AF919F918F917F916F915F914F913F917B
:103510002F911F910F91FF90EF90DF90CF90BF9070
:10352000AF909F908F907F906F905F904F903F9063
:103530002F901F900F90FF91FFBFFF9108951F9351
:10354000CF93DF930E94783B182FE091AE08F09163
:10355000AF08128281899289638974890E94A517B4
:103560000E94DB1BAC01440F551F440F551F440F35
:10357000551FEA01CC0FDD1FCC0FDD1FC40FD51F77
:10358000C81BD90BC055D74FEB8DFC8D309719F068
:1035900009951C8E1B8E0E944A1A812F0E947B3B2C
:1035A000DF91CF911F910895E091AE08F091AF089F
:1035B000858D968D0E945B180E949F1A2DB73EB78D
:1035C00040919D0950919E094217530750F0E09198
:1035D000AE08F091AF0824E02283968F858F0E9479
:1035E0004A1A08958630C8F490E09C01220F331FD8
:1035F000220F331F220F331FF901EE0FFF1FEE0FB3
:10360000FF1FE20FF31FE81BF90BE055F74F828114
:10361000853069F080919A098111089589EC99E1CA
:1036200062E00E94CE1781E080939A09089582E0BB
:10363000828380919A09882381F7F0CF80919A093B
:103640008111089589EC99E162E00E94CE1781E032
:1036500080939A090895AF92BF92CF92DF92EF9232
:10366000FF920F931F93CF93DF938C017A0159013F
:1036700076956795680F791FE1ECF8E080E090E0BF
:103680009C01220F331F220F331F220F331FD9013A
:10369000AA0FBB1FAA0FBB1FA20FB31FA81BB90BFA
:1036A000A055B74F12962C911297222321F1268113
:1036B000378121153105F9F0C080D180C281D381D5
:1036C000A9014E5F5F4FA085B185B695A7954A0FBA
:1036D0005B1F4017510728F02250304062177307D4
:1036E000E0F42196CE15DF0530F00894C108D1082A
:1036F000AC14BD0490F40196B7968630910509F09C
:10370000BFCF80E0DF91CF911F910F91FF90EF909D
:10371000DF90CF90BF90AF90089581E0F3CF9C01F0
:10372000880F991F880F991F880F991FFC01EE0FB2
:10373000FF1FEE0FFF1FE80FF91FE21BF30BE05511
:10374000F74FA189B28945895689A40FB51F4D91BC
:103750005C9111976EEE4F3F560751F412964D91C2
:103760005C9113976EEE4F3F560711F4C90108950F
:10377000FC01EE0FFF1FEE0FFF1FE80FF91FE21B0A
:10378000F30BE055F74F89E082832FEF3FEFC9013C
:103790000895893019F00E94F21A089580919A09CB
:1037A0008823D9F789EC99E162E00E94CE17089549
:1037B0008CEA98E008954F935F934091AE08509142
:1037C000AF0820EB38E080E090E04217530761F04B
:1037D0000196295D3F4F86309105B9F720E030E032
:1037E0005F914F91C9010895282F392F5F914F9113
:1037F000C90108950F931F93DF93CF9300D000D09A
:10380000CDB7DEB7182F062F0E94783B40E050E07E
:1038100092E005C04F5F5F4F4630510539F19A0184
:10382000220F331F220F331F220F331FF901EE0F18
:10383000FF1FEE0FFF1FE20FF31FE41BF50BE05518
:10384000F74F2281263031F7258D211719F7268D64
:10385000201701F792834A835B8389839C830E94AC
:103860001E1B9C8189815B814A81D4CF0E947B3B56
:103870000F900F900F900F90CF91DF911F910F91AC
:1038800008951F920F920FB60F920BB60F9211244C
:103890008F93EF93FF93EAE7F0E08081806180836C
:1038A00080818F778083FF91EF918F910F900BBE76
:1038B0000F900FBE0F901F90189510927C008EE015
:1038C00080937A00089510927C0090917C008F7113
:1038D000892B80937C0080917A00877F80937A0087
:1038E00080917A00806180937A0080917A00806C68
:1038F00080937A0080917A0086FDFCCF80917800D9
:1039000090E02091790030917A003F7730937A00EF
:1039100030E023703070322F2227282B392BC90139
:10392000089576986E98759A6D9A81E090E00E945D
:10393000631C75986D98089575986D98769A6E9A2F
:1039400081E090E00E94631C76986E9808953D9AFD
:10395000459A85E090E00E94631C3D984598089543
:103960003D9A459A86E090E00E94631C3D984598F8
:1039700008953C9A449A83E090E00E94631C3C982E
:10398000449808953C9A449A84E090E00E94631C15
:103990003C9844980895DF93CF930F92CDB7DEB74C
:1039A0000E94783B1092060589830E94EC030E94D6
:1039B0000A040E94FC030E94E0030E9400040E948B
:1039C000F00389810E947B3B0F90CF91DF91089596
:1039D000DF93CF930F92CDB7DEB70E94783B8983F8
:1039E0000E94E203909106059160909306058981FB
:1039F0000E947B3B0F90CF91DF910895DF93CF938F
:103A00000F92CDB7DEB70E94783B89830E94E00316
:103A1000909106059E7F9093060589810E947B3BCD
:103A20000F90CF91DF910895DF93CF930F92CDB791
:103A3000DEB70E94783B9091060590FD0AC089830D
:103A40000E94E81C89810E947B3B0F90CF91DF91FF
:103A5000089589830E94FE1C89810E947B3B0F9000
:103A6000CF91DF910895DF93CF930F92CDB7DEB75B
:103A70000E94783B89830E94F20390910605926030
:103A80009093060589810E947B3B0F90CF91DF9137
:103A90000895DF93CF930F92CDB7DEB70E94783BA6
:103AA00089830E94F003909106059D7F90930605FF
:103AB00089810E947B3B0F90CF91DF910895DF9326
:103AC000CF930F92CDB7DEB70E94783B9091060559
:103AD00091FD0AC089830E94331D89810E947B3B2E
:103AE0000F90CF91DF91089589830E94491D8981AC
:103AF0000E947B3B0F90CF91DF910895DF93CF938E
:103B00000F92CDB7DEB70E94783B89830E940204F2
:103B10009091060594609093060589810E947B3BF5
:103B20000F90CF91DF910895DF93CF930F92CDB790
:103B3000DEB70E94783B89830E94000490910605BD
:103B40009B7F9093060589810E947B3B0F90CF91CC
:103B5000DF910895DF93CF930F92CDB7DEB70E9428
:103B6000783B9091060592FD0AC089830E947E1DD4
:103B700089810E947B3B0F90CF91DF9108958983CB
:103B80000E94941D89810E947B3B0F90CF91DF9111
:103B90000895DF93CF930F92CDB7DEB70E94783BA5
:103BA00089830E941C0589810E947B3B0F90CF91E5
:103BB000DF910895DF93CF930F92CDB7DEB70E94C8
:103BC000783B89830E941C050E94100589810E9410
:103BD0007B3B0F90CF91DF910895DF93CF930F92AE
:103BE000CDB7DEB70E94783B89830E941C050E94F6
:103BF000120589810E947B3B0F90CF91DF91089540
:103C00000E942D1E08950E94371E08950E94D91FFC
:103C100008950E94411E08950E94581E08950E9412
:103C20006F1E08950E94901E08950E941D1F089502
:103C30000E944B1F08950E94B11E08950E94CE1E3F
:103C400008950E94EB1E08950E94041F08950E948B
:103C5000791F08950E94A31F0895FC019B01CA01CA
:103C6000F999FECFBF01A9010E94864E0895FC017B
:103C70009B01CA01F999FECFBF01A9010E94A44E80
:103C800008950F931F93CF93DF93EC010E94783B2D
:103C9000182FF999FECFCE010E94964E082F812F42
:103CA0000E947B3B802FDF91CF911F910F91089550
:103CB0000F931F93CF93DF93EC010E94783B182F53
:103CC000F999FECFCE010E94964E082F812F0E94B7
:103CD0007B3B802FDF91CF911F910F910895EF9241
:103CE000FF920F931F93DF93CF930F92CDB7DEB761
:103CF0007C010E94783B082FF999FECFC7010E94F2
:103D00009E4E182F802F99830E947B3B812F998193
:103D10000F90CF91DF911F910F91FF90EF90089539
:103D2000EF92FF920F931F93DF93CF930F92CDB734
:103D3000DEB77C010E94783B082FF999FECFC701BE
:103D40000E949E4E182F802F99830E947B3B812FCB
:103D500099810F90CF91DF911F910F91FF90EF907C
:103D60000895EF92FF921F93DF93CF930F92CDB7F9
:103D7000DEB77C0169830E94783B182F6981F9992D
:103D8000FECFC7010E94AE4E812F0E947B3B0F9059
:103D9000CF91DF911F91FF90EF900895EF92FF92E6
:103DA0001F93DF93CF930F92CDB7DEB77C0169836A
:103DB0000E94783B182F6981F999FECFC7010E94B4
:103DC000AE4E812F0E947B3B0F90CF91DF911F91D0
:103DD000FF90EF900895FF920F931F93CF93DF937F
:103DE000EC018B010E94783BF82EF999FECFCE01B1
:103DF000B8010E94BC4E8F2D0E947B3BDF91CF917A
:103E00001F910F91FF900895FF920F931F93CF93EF
:103E1000DF93EC018B010E94783BF82EF999FECFDD
:103E2000CE01B8010E94BC4E8F2D0E947B3BDF91DA
:103E3000CF911F910F91FF900895FF920F931F93C1
:103E4000CF93DF938C010E94783BF82EF999FECF37
:103E5000C8010E949E4EEC01F999FECFC80102965E
:103E60000E949E4E8C018F2D0E947B3B980140E06A
:103E700050E0A90133272227CE01A0E0B0E0280FAF
:103E8000391F4A1F5B1FB901CA01DF91CF911F91F2
:103E90000F91FF900895FF920F931F93CF93DF939D
:103EA0008C010E94783BF82EF999FECFC8010E9440
:103EB0009E4EEC01F999FECFC80102960E949E4EDB
:103EC0008C018F2D0E947B3B980140E050E0A901BE
:103ED00033272227CE01A0E0B0E0280F391F4A1F68
:103EE0005B1FB901CA01DF91CF911F910F91FF9024
:103EF0000895BF92CF92DF92EF92FF920F931F939C
:103F0000CF93DF93EC017A018B010E94783BB82EAE
:103F10006801B701F999FECFCE010E94BC4ECE01D7
:103F20000296F999FECFB6010E94BC4E8B2D0E94DD
:103F30007B3BDF91CF911F910F91FF90EF90DF902E
:103F4000CF90BF900895CF92DF92FF920F931F936F
:103F5000DF93CF9300D000D0CDB7DEB76C0149839B
:103F60005A836B837C830E94783BF82E49815A8167
:103F70006B817C81062F172F642F752FF999FECF47
:103F8000C6010E94BC4EC6010296F999FECFB80147
:103F90000E94BC4E8F2D0E947B3B0F900F900F9084
:103FA0000F90CF91DF911F910F91FF90DF90CF90F5
:103FB0000895CF92DF92EF92FF920F931F93CF93CA
:103FC000DF93EC017B01D42E0E94783BC82E1E1497
:103FD0001F046CF400E010E0C8018C0F9D1F6D2DD4
:103FE0000E94B11E0F5F1F4F0E151F05ACF38C2DE5
:103FF0000E947B3BDF91CF911F910F91FF90EF903B
:10400000DF90CF90089580E090E00E94A82721E003
:1040100030E08130910511F020E030E0C9010895D1
:1040200010929F091092A9091092B3091092BD092C
:104030001092C7091092D1090895EFE9F9E060E004
:1040400070E08081882331F06F5F7F4F3A96663051
:104050007105B9F7FB01EE0FFF1FCB01880F991F08
:10406000880F991F880F991FE80FF91FE156F64F27
:1040700081E080836183138212822FEF3FEFA901D9
:104080002683378340875187CB0108959C01FC012B
:10409000EE0FFF1F220F331F220F331F220F331F7C
:1040A000E20FF31FE156F64F1082089510929F0918
:1040B0001092A9091092B3091092BD091092C70974
:1040C0001092D1090895CF92DF92EF92FF920F9351
:1040D0001F93DF93CF9300D0CDB7DEB77C018B0168
:1040E000BE016F5F7F4F0E94392C6C01C8010E9496
:1040F00079278C01009771F420E030E0C9010F901E
:104100000F90CF91DF911F910F91FF90EF90DF9073
:10411000CF9008958FEFC8168FEFD80669F3898185
:104120009A810097E9F08230910531F70E941D20B5
:10413000F82EE92EC6016F2D7E2DA8010E94FC2CC1
:104140004F2D5E2D9A01220F331F440F551F440F30
:10415000551F440F551F240F351F2156364FCECF04
:104160000230110549F6C7010E945627B6010E9488
:10417000052CE82E0E941D20F82E092F8E2D90E090
:104180006F2D702F42E050E00E94FC2C4F2D502FDD
:10419000D9CFFC01818190E00E9446200895EF92E2
:1041A000FF920F931F93CF93DF93FC017A018B0152
:1041B0002115310509F44BC086819781A085B18511
:1041C000EC0121303105C1F0B7FD2EC0448155818D
:1041D00060E070E0481759076A077B072CF122302E
:1041E000310599F020E030E0C901DF91CF911F91B6
:1041F0000F91FF90EF900895840F951FA61FB71F92
:1042000086839783A087B187DFCFE40EF51E061F54
:10421000171FE682F7820087118717FD05C04E152C
:104220005F0560077107F4F6CE01AA2797FDA095F8
:10423000BA2F86839783A087B1872FEF3FEFC901FD
:10424000DF91CF911F910F91FF90EF90089584819E
:104250009581A0E0B0E084179507A607B7073CF06A
:10426000468357836087718720E030E0BDCF2FEF12
:104270003FEFBACFDF93CF9300D0CDB7DEB7BE010B
:104280006F5F7F4F0E94392C9C018FEF2F3F3807C3
:1042900031F4C9010F900F90CF91DF91089589817A
:1042A0009A810097B1F72FEF3FEFF3CFEF92FF9294
:1042B0000F931F93DF93CF9300D0CDB7DEB78C0160
:1042C000BE016F5F7F4F0E94392C7C018FEFE81693
:1042D0008FEFF80661F42FEF3FEFC9010F900F90B9
:1042E000CF91DF911F910F91FF90EF9008958981F9
:1042F0009A81009781F7C8010E945627B7010E9452
:10430000DC2B20E030E0E9CF0E943A212FEF8F3FF5
:10431000920731F00E94CD2820E030E0C9010895D5
:104320002FEF3FEFC90108950E94F42F08950E94D6
:10433000EE2E0895CF93DF93C0E0D0E0CE010E942F
:10434000A827181619061CF4CE010E945928219698
:10435000C136D10599F7DF91CF9108952F923F9201
:104360004F925F926F927F928F929F92AF92BF9285
:10437000CF92DF92EF92FF920F931F93DF93CF9331
:10438000CDB7DEB728970FB6F894DEBF0FBECDBF0E
:1043900098878F837A8369831A01FC01668177810C
:1043A000808591853A01882477FC8094982C64015B
:1043B0005301A60EB71EC81ED91E2481358140E0C8
:1043C00050E02A153B054C055D050CF497C0E12C27
:1043D000E8E0FE2E012D112DA80197010E940D4E3F
:1043E0006B837C838D839E832901C601B501615057
:1043F000704080409040A80197010E940D4E6901D5
:104400004216530609F47DC08B819C8160E071E007
:104410000E94D84D7C018B819C8197FDA1C0A92E63
:10442000BB24A7FCBA94EF81F8858281642D0E9499
:10443000822D00E011E00E191F0990E00197880F0E
:10444000991F880F991F880F991F8A0D9B1D6E2D2C
:1044500049815A8198010E941436EF81F88566815E
:104460007781808591856150704080409040660DD5
:10447000771D881D991D20E038E040E050E00E9443
:104480000D4EE62EF72EF7FC66C0EF2CFF0CFF0852
:10449000EF81F88582816C2D0E94822D90E001973A
:1044A000880F991F880F991F880F991F49815A817A
:1044B000400F511F9101201B310B8E0D9F1D60E09D
:1044C0000E94143620E030E0C90128960FB6F89417
:1044D000DEBF0FBECDBFCF91DF911F910F91FF9037
:1044E000EF90DF90CF90BF90AF909F908F907F9094
:1044F0006F905F904F903F902F9008952FEF3FEF78
:10450000E3CF0B811C81C80117FD2DC0E92EFF24CC
:10451000E7FCFA94EF81F8858281642D0E94822D58
:10452000282F30E021503040220F331F220F331F3D
:10453000220F331FC80160E071E00E94D84D682F40
:10454000C9018E0D9F1D49815A8191010E94143627
:1045500020E030E0B9CF8FEF90E0E80EF91E95CF64
:1045600081509F4F5CCF81509F4FD0CF2F923F9271
:104570004F925F926F927F928F929F92AF92BF9273
:10458000CF92DF92EF92FF920F931F93DF93CF931F
:10459000CDB7DEB728970FB6F894DEBF0FBECDBFFC
:1045A00098878F837A8369831A01FC01E680F780FC
:1045B000008511853A01882477FC8094982CD401D9
:1045C000C3018E0D9F1DA01FB11F648175819B01CA
:1045D00040E050E0281739074A075B0714F5372FEA
:1045E000387F20E077706115710511F02050384F49
:1045F00040E050E0281739074A075B070CF4BCC0BD
:10460000A1014E0D5F1DEF81F885558344838281A2
:1046100090E06DE170E00E94C626EF81F88564812C
:104620007581FAEF61307F0708F0A3C0EF81F8854C
:10463000A680B780C084D184E12C38E0F32E012D10
:10464000112DC601B501A80197010E940D4E6B8383
:104650007C838D839E832901C601B5016150704022
:1046600080409040660D771D881D991DA801970117
:104670000E940D4E69014216530609F49BC08B81BE
:104680009C8160E071E00E94D84D7C018B819C810F
:1046900097FDBFC0A92EBB24A7FCBA94EF81F88573
:1046A0008281642D0E94822D00E011E00E191F0905
:1046B00090E00197880F991F880F991F880F991F05
:1046C0008A0D9B1D6E2D49815A8198010E941736D3
:1046D000EF81F88566817781808591856150704092
:1046E00080409040660D771D881D991D20E038E0C0
:1046F00040E050E00E940D4EE62EF72EF7FC84C0FD
:10470000EF2CFF0CFF08EF81F88582816C2D0E9451
:10471000822D90E00197880F991F880F991F880FAD
:10472000991F49815A81400F511F9101201B310B64
:104730008E0D9F1D60E00E94173620E030E0C90119
:1047400028960FB6F894DEBF0FBECDBFCF91DF9194
:104750001F910F91FF90EF90DF90CF90BF90AF909F
:104760009F908F907F906F905F904F903F902F9091
:10477000089522E030E0E3CFEF81F885828190E078
:104780000E949B2DEF81F885E680F78000851185DA
:1047900064817581A40193012E0D3F1D401F511F9F
:1047A000CB01A0E0B0E082179307A407B5070CF097
:1047B00038CF26CF0B811C81C80117FD2DC0E92EF3
:1047C000FF24E7FCFA94EF81F8858281642D0E9432
:1047D000822D282F30E021503040220F331F220F2E
:1047E000331F220F331FC80160E071E00E94D84DD3
:1047F000682FC9018E0D9F1D49815A8191010E9428
:10480000173620E030E09BCF8FEF90E0E80EF91EE6
:1048100077CF81509F4F3ECF81509F4FD0CFAF92E7
:10482000BF92DF92EF92FF920F931F93DF93CF938C
:1048300000D000D000D0CDB7DEB77C018B01CB011A
:104840000E9456279C01C8012D833E830E94483B4D
:104850005C01C701BE016F5F7F4F0E94392CF82EAB
:10486000E92E6FE170E00E945C266F2D0E94092EF8
:10487000C801BE016D5F7F4F0E94392CD82E8F2D4D
:104880009E2D6FE170E04D2D0E94AA260A0D1B1D82
:104890002D81021B8F2D9E2D60E070E0402F50E097
:1048A0003E810E9414278F2D9E2D602F70E040E0E6
:1048B0000E94AA268D2D6F2D0E94E02D80E090E0B1
:1048C00026960FB6F894DEBF0FBECDBFCF91DF9115
:1048D0001F910F91FF90EF90DF90BF90AF900895E0
:1048E0008F929F92BF92CF92DF92EF92FF920F939F
:1048F0001F93DF93CF9300D000D000D0CDB7DEB7A9
:104900007C018B01CB010E9456279C01C8012D839D
:104910003E830E94483B4C01C701BE016F5F7F4F41
:104920000E94392C7C01C801BE016D5F7F4F0E943F
:10493000392CB82E0E94882FD82EC92EC7016D2D74
:104940007C2D0E94F629080D191D2D81021B8D2D2D
:104950009C2D60E070E0402F50E03E810E941427C3
:104960008D2D9C2D602F70E040E00E94AA268D2D99
:104970009C2D6FE170E04B2D0E94AA268B2D6D2D92
:104980000E94E02D0EE010E005C00F5F1F4F0631C2
:104990001105D9F0C701B8010E945C26B82E882302
:1049A000A1F30E947D2E882E8D2D9C2DB801482DBF
:1049B0000E94AA268B2D90E0682D70E00E94142A98
:1049C0000F5F1F4F0631110529F780E090E0269612
:1049D0000FB6F894DEBF0FBECDBFCF91DF911F9110
:1049E0000F91FF90EF90DF90CF90BF909F908F90AE
:1049F0000895DF93CF9300D0CDB7DEB7BE016F5FD0
:104A00007F4F0E94392C0E94B62B0F900F90CF91B0
:104A1000DF9108954F925F926F927F929F92AF9233
:104A2000BF92CF92DF92EF92FF920F931F93DF938B
:104A3000CF93CDB7DEB72D970FB6F894DEBF0FBE7C
:104A4000CDBF2C013B01089461087108680E791EE6
:104A5000F301108273010894E108F1080E94B12B60
:104A60006C015E010894A11CB11C4FE2942EC5019B
:104A7000B6010E94F42AC5010E94483B482F082F26
:104A8000192FC701801B910BB5010E94553AF70100
:104A9000908200951095E00EF11EC6016FE170E066
:104AA0000E945C26C82EDD24C114D10401F7F70151
:104AB00090826E187F08161417047CF4D7011196A3
:104AC000F2012FE280E090E001C02D912193019648
:104AD00086159705D1F7480E591EF20131971082BD
:104AE0002D960FB6F894DEBF0FBECDBFCF91DF91EC
:104AF0001F910F91FF90EF90DF90CF90BF90AF90FC
:104B00009F907F906F905F904F9008950F931F93A9
:104B1000CF93DF938C01EB01CB0160E070E04CE0C0
:104B200050E098010E940427CE016CE070E00E94E2
:104B30005C26F8018487CE016DE170E00E945C265E
:104B4000F8018587CE016EE170E00E945C26F801D5
:104B50008687DF91CF911F910F910895DF92EF9299
:104B6000FF920F931F93CF93DF937C018B01EA0198
:104B7000FB011082DD24D39404C0D394FD2DF136C3
:104B8000A9F08D2DBE010E94422A81309105A9F71E
:104B9000F8018081F701E80FF11DD082F8018081D2
:104BA0008F5F8083D394FD2DF13659F7DF91CF913C
:104BB0001F910F91FF90EF90DF9008950E94B12810
:104BC00008954F925F926F927F929F92AF92BF92A1
:104BD000CF92DF92EF92FF920F931F93DF93CF93C9
:104BE000CDB7DEB72D970FB6F894DEBF0FBECDBFA1
:104BF0002C013B01089461087108680E791EF301CD
:104C0000108273010894E108F108C42ED52E5E01CC
:104C10000894A11CB11C5FE2952EC501B6010E944B
:104C2000F42AC5010E94483B482F082F192FC701BD
:104C3000801B910BB5010E94553AF70190820095B7
:104C40001095E00EF11EC6016FE170E00E945C2637
:104C5000C82EDD24C114D10401F7F70190826E182B
:104C60007F08161417047CF4D7011196F2012FE285
:104C700080E090E001C02D91219301968615970563
:104C8000D1F7480E591EF201319710822D960FB6BA
:104C9000F894DEBF0FBECDBFCF91DF911F910F9172
:104CA000FF90EF90DF90CF90BF90AF909F907F905C
:104CB0006F905F904F900895880F991F82959295FD
:104CC000907F9827807F9827860F971F0E94091E44
:104CD0000895880F991F82959295907F9827807FDD
:104CE0009827860F971F0E940C1E0895880F991F02
:104CF00082959295907F9827807F9827860F971F9F
:104D00000E940F1E0895880F991F82959295907F9B
:104D10009827807F9827860F971F0E94121E08955C
:104D2000880F991F82959295907F9827807F98276A
:104D3000860F971F0E94151E0895880F991F829550
:104D40009295907F9827807F9827860F971F0E94C3
:104D5000181E0895880F991F82959295907F982725
:104D6000807F9827860F971F642F0E941B1E08952F
:104D7000880F991F82959295907F9827807F98271A
:104D8000860F971F642F0E941E1E08959B01BA0173
:104D9000880F991F82959295907F9827807F9827FA
:104DA000820F931F0E94211E08959B01BA01880F54
:104DB000991F82959295907F9827807F9827820FE0
:104DC000931F0E94241E0895FB01BA01A901880FB8
:104DD000991F82959295907F9827807F98278E0FB4
:104DE0009F1F0E94271E0895FB01BA01A901880F89
:104DF000991F82959295907F9827807F98278E0F94
:104E00009F1F0E94271E0895FB01BA01880F991F5A
:104E100082959295907F9827807F98278E0F9F1F6D
:104E2000A9010E94001E0895FB01BA01880F991F75
:104E300082959295907F9827807F98278E0F9F1F4D
:104E4000A9010E94031E0895FB01BA01880F991F52
:104E500082959295907F9827807F98278E0F9F1F2D
:104E6000422F0E94061E0895DC018C918F32C1F002
:104E7000FD01A62FB72F03C08D9331968081982F07
:104E800091569A31C8F3905E9A31B0F38F35A1F301
:104E90008E3291F39F5E9A3078F31C92CF01089581
:104EA000FD01319611968C911197E3CFCF93DF934B
:104EB000EC010E94483BFC013197EC0FFD1F808103
:104EC0008F3221F40AC082918F3239F0CE17DF077A
:104ED000D1F7CF01DF91CF910895EC17FD0729F0AD
:104EE0003196CF01DF91CF9108958F3291F73196AE
:104EF000F8CFCF93DF93EC010E94483B81309105BE
:104F000061F0CE010E94483B8230910591F020E093
:104F100030E0C901DF91CF9108958881823779F01F
:104F2000873799F0813671F0843789F724E030E0D3
:104F3000F0CF25E030E0C901DF91CF91089521E065
:104F400030E0E7CF23E030E0E4CF22E030E0E1CF13
:104F50001F93CF93DF93EC016DE070E00E945C261D
:104F6000182FCE016CE070E00E945C26112339F00E
:104F7000282F30E0C901DF91CF911F91089520E0E3
:104F800030E0C901DF91CF911F910895CF92DF9258
:104F9000EF92FF920F931F93CF93DF937C01EB016E
:104FA000D42E122FCB010E94483B482F8C3008F49E
:104FB0004F5F013059F1023009F457C0033009F452
:104FC00060C0043009F469C0E114F10411F4112344
:104FD00069F0CEE0D0E0812F90E0BE010E945C2617
:104FE000882369F02196C831D105A9F7DF91CF91C7
:104FF0001F910F91FF90EF90DF90CF900895812F38
:1050000090E0BE014E2D0E94AA26F0CFC70160E0BD
:1050100070E050E09E010E941427C7016CE070E030
:1050200041E00E94AA26C7016DE070E041E00E94C5
:10503000AA26C7016EE070E04EE050E020E00E943A
:105040002427C7016CE170E04D2D0E94AA26C701FC
:105050006DE170E040E050E00E94C626C7016FE1BC
:1050600070E0412F0E94AA26AFCFC70160E070E038
:1050700050E09E010E941427C7016CE070E042E0FE
:10508000D0CFC70160E070E050E09E010E9414277D
:10509000C7016CE070E043E0C4CFC70160E070E09E
:1050A00050E09E010E941427C7016CE070E044E0CC
:1050B000B8CFEF92FF920F931F93DF93CF93CDB7AB
:1050C000DEB72D970FB6F894DEBF0FBECDBF7C01C3
:1050D0001D8660E070E04CE050E09E012F5F3F4F86
:1050E0000E940427C7016CE070E00E945C26082F34
:1050F000C7016DE070E00E945C26882379F00130E2
:1051000021F1023059F40EE010E0C701B8010E940D
:105110005C260F5F1F4F06311105B9F7C7016CE11F
:1051200070E00E945C26C7016FE170E00E945C267F
:105130002D960FB6F894DEBF0FBECDBFCF91DF9195
:105140001F910F91FF90EF9008950EE010E0C701BE
:10515000B8010E945C260F5F1F4F08311105B9F797
:10516000DDCFCF93DF93C0E0D0E0CE0160E070E010
:1051700040E250E020E00E9424272196C132D10570
:10518000A1F70E94752E0E94802FDF91CF91089584
:105190000E94752E0E94802F0895AF92BF92CF92E9
:1051A000DF92EF92FF920F931F93DF93CF930F92B3
:1051B000CDB7DEB78C016CE070E00E945C26282F32
:1051C000C8016FE170E029830E945C26F82E2981D6
:1051D0002130C1F0223009F473C0233009F4C5C076
:1051E000243009F44CC0C8010E94EA2F0F90CF91DF
:1051F000DF911F910F91FF90EF90DF90CF90BF90C4
:10520000AF9008955EE0C52ED12C07C00894C11C54
:10521000D11C28E1C216D10481F0C801B6010E9458
:105220005C26882399F390E00E94CD280894C11C45
:10523000D11C28E1C216D10481F7C8016DE070E0ED
:1052400040E00E94AA2601151105B1F0EE24CE2CF3
:10525000DD248EE090E0C80ED91E8F2D90E0B601BF
:105260000E945C2690E08017910709F49BC0E394AC
:105270009E2D9A3061F7B7CFFF2041F7B4CFC80118
:105280006DE070E040E00E94AA260115110519F4B6
:10529000FF2009F4A8CF8EE0A82EB12C8F2D90E02E
:1052A000B5010E945C2690E08017910709F484C044
:1052B0000894A11CB11C88E1A816B10479F793CF1A
:1052C000C8016DE070E040E00E94AA2601151105BA
:1052D000C1F5FF20B1F53EE0E32EF12CC801B70186
:1052E0000E945C26882351F090E00E94E82E0894EA
:1052F000E11CF11CF6E1EF16F10481F7F02E8F2D81
:1053000090E068E170E00E945C26F82E882309F4A2
:105310006ACF90E00E94EA2F2EE0C22ED12C8F2D72
:1053200090E0B6010E945C26882349F390E00E9439
:10533000E82E0894C11CD11C26E1C216D10479F7CD
:10534000DECF4EE0A42EB12C8F2D90E0B5010E944F
:105350005C2690E080179107B1F10894A11CB11C64
:10536000E8E1AE16B10481F7B6CFC8016DE070E098
:1053700040E00E94AA2601151105D9F09EE0A92E51
:10538000B12C8F2D90E0B5010E945C2690E0801733
:10539000910791F00894A11CB11C38E1A316B10447
:1053A00081F721CF8F2D90E0B60140E00E94AA2620
:1053B0001ACFFF2019F717CF8F2D90E0B50140E0ED
:1053C0000E94AA2610CF8F2D90E0B50140E00E94E8
:1053D000AA2681CF0F9380E090E067E672E040E07C
:1053E00020E001E00E94C6270F910895EF92FF92FE
:1053F0000F931F93CF93DF938C017B01C0E0D0E02C
:10540000C801BE010E945C26482FC701BE010E9450
:10541000AA262196C032D10599F7DF91CF911F912D
:105420000F91FF90EF900895EF92FF920F931F93CB
:10543000CF93DF938B017C010894E108F108EE0C17
:10544000FF1CEE0CFF1CEE0CFF1C01501040000F67
:10545000111F000F111F000F111FC0E0D0E0BE018F
:10546000600F711FCE018E0D9F1D0E941A3621966E
:10547000C830D105A1F7DF91CF911F910F91FF9017
:10548000EF900895BF92CF92DF92EF92FF920F9329
:105490001F93DF93CF93CDB7DEB72D970FB6F89458
:1054A000DEBF0FBECDBF082F6B0190E06DE070E056
:1054B0000E945C26882399F420E030E0C9012D96F3
:1054C0000FB6F894DEBF0FBECDBFCF91DF911F9115
:1054D0000F91FF90EF90DF90CF90BF900895802FB5
:1054E00090E060E070E04CE050E07E010894E11C48
:1054F000F11C97010E9404271D86C7010E94483BAA
:10550000B82E8823C9F200E010E004C00F5F1F4FDF
:105510000B1590F6C701800F911FB6010E94FB3A50
:105520000097A1F721E030E0C9CFBF92CF92DF9280
:10553000EF92FF920F931F93CF93DF93C82EE92E24
:105540008B010E94483B8D3091056CF021E030E0EA
:10555000C901DF91CF911F910F91FF90EF90DF90E4
:10556000CF90BF900895C8010E94A827009771F3BB
:105570008E2DEC2CE7017E01F82EE701EE24FF24AE
:105580006E01B880C801B7010E945C26B816F1F61A
:105590002196F6018081882339F00894E11CF11CE2
:1055A000FCE0EF16F10461F720E030E0D1CF0F937B
:1055B0001F93CF93DF938C01CEE0D0E0C801BE01F2
:1055C0000E945C26882351F02196C831D105B1F79D
:1055D00081E0DF91CF911F910F91089580E0DF91DD
:1055E000CF911F910F910895CF92DF92EF92FF928A
:1055F0000F931F93CF93DF936B01E82EE7017E019A
:10560000F92EE70100E010E07E01C601B8010E941A
:105610005C268993882331F07E010F5F1F4F0C3089
:10562000110591F7F7011082DF91CF911F910F9132
:10563000FF90EF90DF90CF900895CF92DF92EF929E
:10564000FF920F931F93CF93DF937C016B01CEE00A
:10565000D0E0C601BE010E945C26082F10E0C70101
:10566000B8010E94952A009731F02196C831D105E2
:1056700081F70FEF1FEFC801DF91CF911F910F91BD
:10568000FF90EF90DF90CF9008956FE170E00E945F
:105690005C2690E00895DF92EF92FF920F931F93A4
:1056A000CF93DF938C017B01CEE0D0E004C0219644
:1056B000C831D105B9F0C701BE010E945C26D82EC1
:1056C000C8016D2D70E00E94952A009781F78D2DFD
:1056D00090E00E94A827882351F3DD2041F3282F72
:1056E00030E002C020E030E0C901DF91CF911F918E
:1056F0000F91FF90EF90DF900895BF92CF92DF92CD
:10570000EF92FF920F931F93CF93DF937C016B0176
:10571000CEE0D0E004C02196C831D105F9F0C60131
:10572000BE010E945C26B82E082F10E0C701B80108
:105730000E94952A009779F7C8010E94A82788231C
:1057400051F3BB2041F3C801DF91CF911F910F911D
:10575000FF90EF90DF90CF90BF90089500E010E0B1
:10576000F2CF809107059091080508959093080560
:105770008093070508950F931F93CF93DF938C01B8
:10578000CEE0D0E0C801BE010E945C26882361F40F
:105790002196C831D105B1F720E030E0C901DF9191
:1057A000CF911F910F91089521E030E0C901DF9161
:1057B000CF911F910F9108950F931F93CF93DF9374
:1057C000EC018B010E947D2B181619063CF410E0A9
:1057D000812FDF91CF911F910F910895C8010E94F1
:1057E000D72A813081F00E94882F182F90E0BE01C7
:1057F00040E0202F01E00E94C627812FDF91CF914A
:105800001F910F9108951FEFE3CF0F931F93CF9335
:10581000DF93EC018B010E947D2B181619063CF4D6
:1058200010E0812FDF91CF911F910F910895C80152
:105830000E94D72A813081F00E94882F182F90E093
:10584000BE0140E0202F02E00E94C627812FDF9199
:10585000CF911F910F9108951FEFE3CF0E94A827CA
:1058600021E030E08130910511F020E030E0C90105
:105870000895AF92BF92CF92DF92EF92FF920F9373
:105880001F93DF93CF93CDB7DEB72D970FB6F89464
:10589000DEBF0FBECDBF6C015B01FC0181917F01BA
:1058A000F601918100910705109108058E3209F4E7
:1058B00054C08F3209F479C0982F91569A3140F52F
:1058C000C6016E010894C11CD11CB6010E94342788
:1058D0007C01009709F046C0C601B8010E944B2B1D
:1058E000009709F04BC0F50111821082C8012D9676
:1058F0000FB6F894DEBF0FBECDBFCF91DF911F91E1
:105900000F91FF90EF90DF90CF90BF90AF900895F0
:1059100081548A31A8F276016E010894C11CD11C11
:1059200014C0C701B6010E9434277C01FC018081AC
:10593000882371F1C601B8010E944B2B009751F0EA
:10594000C601B8010E941D2B8C01C8010E942E2C9B
:10595000009739F70FEF1FEFC9CF9E3251F19F32F9
:10596000D1F6DACFC601B8010E944B2B009791F314
:10597000C601B8010E941D2B8C01CECFF501918389
:105980008083C601B8010E941D2B082F192FAECFAE
:10599000C601B8010E944B2B009709F4A4CFF50172
:1059A00091838083C601B801EECF760100E010E05C
:1059B000B3CFC8010E94452B8C0182E0E82EF12C68
:1059C000EC0CFD1CA9CF0F931F93CF93DF938C0199
:1059D000CEE0D0E0C801BE010E945C26882339F0E9
:1059E00090E00E94E82E2196C631D10599F7DF910B
:1059F000CF911F910F910895EF92FF920F931F93F4
:105A0000CF93DF93F82EE92E8B01EA01CB01FB0146
:105A1000EE0FFF1F880F991F880F991F880F991F7E
:105A2000E80FF91FE156F64FF282CB01FB01EE0FB2
:105A3000FF1F880F991F880F991F880F991FE80F64
:105A4000F91FE156F64F43838F2D9E2D6DE170E0D7
:105A50000E9476269801F801EE0FFF1F220F331FD8
:105A6000220F331F220F331FE20FF31FE156F64FB1
:105A700095838483C130D10541F1C230D10529F12C
:105A8000C330D105D9F49801F801EE0FFF1F220FA2
:105A9000331F220F331F220F331FE20FF31FE15674
:105AA000F64FA0E0B0E086839783A087B187DF91AF
:105AB000CF911F910F91FF90EF900895C430D105C1
:105AC000E9F48F2D9E2D0E94E32CC801F801EE0F02
:105AD000FF1F880F991F880F991F880F991FE80FC4
