:100000000C9446000C9465000C9465000C946500FB
:100010000C9465000C9465000C9465000C94C4125B
:100020000C9465000C9465000C9465000C948E157E
:100030000C94F6150C9465000C9465000C940E0756
:100040000C9465000C9465000C948D0A0C9465006A
:100050000C9465000C94931A0C9465000C94650044
:100060000C9465000C9465000C947B070C9465005F
:100070000C9465000C9465000C9465000C9465006C
:100080000C9465000C9465000C94650011241FBE4F
:10009000CFEFD0E1DEBFCDBF11E0A0E0B1E0EEEFE9
:1000A000F3E900E00BBF02C007900D92A634B10740
:1000B000D9F718E0A6E4B1E001C01D92AF33B10753
:1000C000E1F70E94C5070C94FD490C940000682FCD
:1000D0008EE292E00E9480090895FF920F931F9391
:1000E000DF93CF930F92CDB7DEB7182F99830E947D
:1000F0003537E12F9981F92FF0932803E0932703F7
:100100001093AE029093AF0220812093B0022EE7AD
:1001100020932E0222E420932F0222E02093B102AA
:1001200026E02093B2027DE56DE75EE52FC0DF019A
:10013000A40FB11D3C913E3771F42091B102A22F62
:10014000B0E0A25DBD4F6C932F5FA22FB0E0A25D27
:10015000BD4F5C9315C02091B1023D3761F4A22FD1
:10016000B0E0A25DBD4F3C932F5FA22FB0E0A25D37
:10017000BD4F7C9305C0A22FB0E0A25DBD4F3C9364
:100180002F5F2093B1024F5F4093B2024091B202C1
:100190004A3068F22091B1023091B002E22FF0E0D3
:1001A000E25DFD4F30832F5F2093B1022AE0209360
:1001B000B20240912703509128032DE5F22E0DE75E
:1001C000BEE52FC0640F751FFB0130813E3771F40F
:1001D0002091B102E22FF0E0E25DFD4F00832F5F3E
:1001E000E22FF0E0E25DFD4FB08315C02091B10237
:1001F0003D3761F4E22FF0E0E25DFD4F30832F5F89
:10020000E22FF0E0E25DFD4FF08205C0E22FF0E06A
:10021000E25DFD4F30832F5F2093B102AF5FA0936B
:10022000B2022091B002A091B20230E0275F3F4FAE
:100230006A2F70E0261737072CF62091B102E22FC3
:10024000F0E0E25DFD4F10822F5FE22FF0E0E25D13
:10025000FD4F10822F5FE22FF0E0E25DFD4F3EE7A1
:1002600030832F5F2093B10299830E9438378091A9
:10027000B1020E946700812F99810F90CF91DF9189
:100280001F910F91FF9008951F93CF93DF93EC017F
:1002900018818981823021F48A810E94200C3BC020
:1002A0000E9435372DEB32E030932803209327034B
:1002B0001092B20211C030E0E0912703F0912803C0
:1002C000E20FF31F2C0F3D1FD9019C919083909159
:1002D000B2029F5F9093B2022091B202211758F3AD
:1002E0000E9438378EEF9EEF9093BC028093BB0242
:1002F0006FEF7FEF412F23EB32E00E94930B83EBF4
:1003000092E00E946D008EE061E024E130E040E088
:1003100050E00E94B632DF91CF911F910895000006
:1003200000000895789488950E948F01089588951B
:10033000089578940895F89408958FB7F8940895DF
:100340008FBF0895E0E0F0E00995089500000000F7
:10035000089509C000000000000000000000000037
:1003600000000000019718161906A4F30895DA9A00
:100370000895DA98089521E030E0CA9902C020E09B
:1003800030E0C9010895D29A0895D2980895D99A73
:100390000895D998089521E030E0C99902C020E07D
:1003A00030E0C9010895D19A0895D1980895D89A56
:1003B0000895D898089529B330E021703070C901AC
:1003C0000895D09A0895D0980895DC9A0895DC98FD
:1003D000089521E030E0CC9902C020E030E0C9016E
:1003E0000895D49A0895D4980895DD9A0895DD98D3
:1003F000089521E030E0CD9902C020E030E0C9014D
:100400000895D59A0895D5980895DF9A0895DF98AC
:10041000089589B3992787FD9095892F881F88278C
:10042000881F90E00895D79A0895D7980895DB9A89
:100430000895DB98089521E030E0CB9902C020E0D8
:1004400030E0C9010895D39A0895D3980895959AF4
:1004500008959598089521E030E0859902C020E044
:1004600030E0C90108958D9A08958D980895939A62
:1004700008959398089521E030E0839902C020E028
:1004800030E0C90108958B9A08958B980895929A47
:1004900008959298089521E030E0829902C020E00A
:1004A00030E0C90108958A9A08958A9808951C9A9F
:1004B00008951C98089521E030E00C9902C020E0D6
:1004C00030E0C9010895149A0895149808951D9A6A
:1004D00008951D98089521E030E00D9902C020E0B4
:1004E00030E0C9010895159A0895159808951E9A47
:1004F00008951E98089521E030E00E9902C020E092
:1005000030E0C9010895169A0895169808951F9A23
:1005100008951F98089581B1992787FD9095892F97
:10052000881F8827881F90E00895179A08951798C4
:100530000895C29A0895C298089521E030E0B299D2
:1005400002C020E030E0C9010895BA9A0895BA982F
:100550000895C39A0895C398089521E030E0B399AF
:1005600002C020E030E0C9010895BB9A0895BB980D
:100570000895C19A0895C198089521E030E0B19995
:1005800002C020E030E0C9010895B99A0895B998F1
:100590000895A89A0895A898089523B330E021708B
:1005A0003070C9010895A09A0895A0980895A99A55
:1005B0000895A998089521E030E0999902C020E0BB
:1005C00030E0C9010895A19A0895A1980895AA9AC2
:1005D0000895AA98089521E030E09A9902C020E099
:1005E00030E0C9010895A29A0895A2980895AB9A9F
:1005F0000895AB98089521E030E09B9902C020E077
:1006000030E0C9010895A39A0895A3980895AC9A7B
:100610000895AC98089521E030E09C9902C020E054
:1006200030E0C9010895A49A0895A4980895AD9A58
:100630000895AD98089521E030E09D9902C020E032
:1006400030E0C9010895A59A0895A5980895AE9A35
:100650000895AE98089521E030E09E9902C020E010
:1006600030E0C9010895A69A0895A6980895AF9A12
:100670000895AF98089583B3992787FD9095892FA2
:10068000881F8827881F90E00895A79A0895A79843
:100690000895909A08959098089520B330E02170BD
:1006A0003070C9010895889A089588980895919A9C
:1006B00008959198089521E030E0819902C020E0EA
:1006C00030E0C9010895899A089589980895189A83
:1006D00008951898089521B130E021703070C90153
:1006E0000895109A089510980895199A08951998E0
:1006F000089521E030E0099902C020E030E0C9010E
:100700000895119A0895119808951A9A08951A98BB
:10071000089521E030E00A9902C020E030E0C901EC
:100720000895129A0895129808951B9A08951B9897
:10073000089521E030E00B9902C020E030E0C901CB
:100740000895139A089513980895929A0895929887
:10075000089521E030E0829902C020E030E0C90134
:1007600008958A9A08958A980895939A0895939877
:10077000089521E030E0839902C020E030E0C90113
:1007800008958B9A08958B980895959A0895959851
:10079000089521E030E0859902C020E030E0C901F1
:1007A00008958D9A08958D9808950E94870208955E
:1007B0000E948902089581B1881F8827881F0895A3
:1007C0000E94950208950E94970208950E94670270
:1007D00008950E94690208950E946B0208950E9484
:1007E000730208950E94750208950E947702089589
:1007F0000E94790208950E947B0208950E9483025C
:1008000008950E94850208950E94F70208950E94AB
:10081000F902089508950E94E70208950E94E902EE
:10082000089508950E94070308950E9409030895FA
:1008300008950E94170308950E94190308950895CA
:100840000E94270308950E942903089508950E9495
:10085000C3010E94E1010E94D3010E9445030E944E
:1008600033030E9423030E9413030E9403030E9488
:10087000F3020E94E3020E94D3020E94F3010E944D
:10088000E7010E9423020E9443020E9433020E9459
:1008900017020E94B7010E94D7010E94C701089564
:1008A000E8E8FCEE09950895E0E8FCEE0995089566
:1008B000E4E8FCEE09950895ECE8FCEE099508954E
:1008C000E0E9FCEE09950895ECE9FCEE0995089540
:1008D000E0EAFCEE09950895E4E9FCEE0995089537
:1008E000E8E9FCEE099508950E94BC1AE0913105F3
:1008F000F0913205968F858F08950E94C71AE09176
:100900003105F0913205968F858F08950E94D21A95
:10091000E0913105F0913205968F858F08950E9400
:10092000DB1AE0913105F0913205968F858F08959D
:100930000E94E41AE0913105F0913205968F858F7F
:1009400008950E94ED1AE0913105F0913205968FDD
:10095000858F089586E491E0089560914801709133
:10096000490140914A0150914B018091460190917B
:1009700047010E94191C0895609148017091490136
:1009800040914A0150914B0180914601909147015D
:100990000E941C1C089560914D0370914E0340917C
:1009A00032035091330380912B0390912C030E94CA
:1009B000952087E064E00E94521A089560914D03EB
:1009C00070914E03409132035091330380912B0379
:1009D00090912C030E94AC1F87E063E00E94521AA2
:1009E000089580912B0390912C030E94D01E87E0E4
:1009F00062E00E94521A089586E393E06DE273E08C
:100A00000E946B1EE0913403F091350392A381A301
:100A100087E061E00E94521A089586E393E008950A
:100A20008DE293E008958091310590913205909385
:100A30003503809334038CEF94E065E00E947516D3
:100A40000895E0913105F091320581A192A1909332
:100A50002C0380932B0381EF94E065E00E947516D0
:100A60000895E0913105F091320581A192A1909312
:100A70002C0380932B0383A194A190934E03809326
:100A80004D0385A196A190933303809332038EED9D
:100A900094E065E00E9475160895E0913105F091AB
:100AA000320581A192A190932C0380932B0383A103
:100AB00094A190934E0380934D0385A196A19093AA
:100AC0003303809332038BEC94E065E00E9475164B
:100AD0000895A0913105B09132059196ED91FC9168
:100AE0009297E0932B03F0932C0393964D915C9196
:100AF000949750934C0340934B0395962D913C91C2
:100B0000969730932A0320932903662757FD609513
:100B1000762FCF010E94D61E0895DF93CF9300D089
:100B2000CDB7DEB7842F952F9A83898389819A81E7
:100B30000E94860D0F900F90CF91DF910895DF9363
:100B4000CF9300D0CDB7DEB7842F952F9A838983BA
:100B500089819A810E94200C0F900F90CF91DF9194
:100B60000895DF93CF9300D0CDB7DEB7842F952FB4
:100B70009A83898389819A810E94230C0F900F9018
:100B8000CF91DF91089586EF95E069E00E94751698
:100B900084E190E00E944D190E94050C08958BE5B8
:100BA00093E008958FE493E00895EF92FF920F93FE
:100BB0001F9340915203509153032091540330915D
:100BC00055030091560310915703E0905903F0909C
:100BD0005A0380914F0390915003609151030E94FA
:100BE000430C1F910F91FF90EF90089580915F0348
:100BF000882341F480916003909161030E94E43660
:100C000080935F0360916003709161038CE693E0D1
:100C100040915F030E94543660915D0370915E03C2
:100C200022E633E06115710549F080915B039091F4
:100C30005C0340915F030E94930B089580915F03D2
:100C400080936203F9011782168280915B03909171
:100C50005C03918780871092D0031092D103B90171
:100C60000E94930C089590935C0380935B037093B0
:100C70005E0360935D0340935F03309361032093B1
:100C8000600386EF95E069E00E94751684E190E0CC
:100C90000E944D190E94050C089581E395E0089586
:100CA00083E395E00895EAE8F0E080818160808345
:100CB000808188608083EDE7F0E0808180618083BF
:100CC000ECE7F0E080818061808380E593EC909395
:100CD0008700809386001092DB031092DA038091E4
:100CE000DA039091DB039093E1038093E003109289
:100CF0008900109288001092D6031092D7031092A8
:100D0000D8031092D9030895EAE8F0E080818E7F3D
:100D1000808308952091DA033091DB03C90108959F
:100D20001F93CF93DF931FB7F894C0918800D091A1
:100D30008900CE0190708E5F90408230910510F452
:100D4000C050D140C230D10538F46091E0037091B9
:100D5000E1036F5F7F4F04C06091E0037091E10396
:100D600080E090E020E533EC40E050E00E94E24873
:100D70009B01AC01CE01A0E0B0E0280F391F4A1F53
:100D80005B1F1FBF8091D6039091D703A091D8031A
:100D9000B091D903281739074A075B0720F4205B75
:100DA0003C434F4F5F4F2093D6033093D70340937C
:100DB000D8035093D903B901CA01DF91CF911F9194
:100DC000089582B7089581B708950E94D535089592
:100DD00081BF08951F93DF93CF930F92CDB7DEB7F6
:100DE000182F677069830E94353797B79E7F97BF2A
:100DF00097B79D7F97BF90B7986090BF69816860F3
:100E000063BF12BE11BF97B7926097BF0E94383779
:100E100081E00F90CF91DF911F91089578941F92F8
:100E20000F920FB60F920BB60F9211240F931F93D0
:100E30002F933F934F935F936F937F938F939F93E2
:100E4000AF93BF93EF93FF930E943537082F0E9413
:100E50001D17882371F02DB73EB73093AA05209354
:100E6000A90520912F05309130053EBF2DBF11E01F
:100E700001C010E0802F0E9438370E9435379091D2
:100E8000DE03992369F09091DD039093DC03986071
:100E90009093DD0393BF9091DF0391BF1092DE0327
:100EA0000E9438370E94D5350E943537113061F4E1
:100EB0002DB73EB73093300520932F052091A9051B
:100EC0003091AA053EBF2DBF0E943837FF91EF91A8
:100ED000BF91AF919F918F917F916F915F914F9152
:100EE0003F912F911F910F910F900BBE0F900FBE4E
:100EF0000F901F9018951F920F920FB60F920BB67E
:100F00000F9211242F933F934F935F936F937F938F
:100F10008F939F93AF93BF93EF93FF930E949D0195
:100F20002091E0033091E1032F5F3F4F3093E103C5
:100F30002093E0032091E0033091E10393EC20350E
:100F4000390771F42091DA033091DB032F5F3F4FB3
:100F50003093DB032093DA031092E1031092E00355
:100F60000E94A001FF91EF91BF91AF919F918F914E
:100F70007F916F915F914F913F912F910F900BBE99
:100F80000F900FBE0F901F901895AF92BF92CF9207
:100F9000DF92EF92FF920F930E9427040E949F1A04
:100FA0000E9463160E94FA160E9420090E94F61AF7
:100FB0000E943F1B0E94841B0E94C91B85EF93E087
:100FC00060E071E048E00E94543682EE93E069E010
:100FD00071E047E00E94543681E090E09093F40382
:100FE0008093F3038091F3039091F40390934D0168
:100FF00080934C016AE070E00E940149605D60935B
:10100000E603805D8093E7030E94962F0E94E21B17
:1010100080E29CE060E170E045EF53E00E941C1C20
:1010200085E39CE060E170E042EE53E00E941C1C0E
:1010300080914C0190914D010E9457080E943F1BE6
:101040000E94841B0E94C91B8091F3039091F403BA
:101050000E94B8490E9493320E9471330E947E0B15
:101060000E948E0B0E94380C0E94B73F85E10E94BF
:10107000200C8FE10E94230C89E890E461EB76E07C
:101080004FEA57E020E030E00FE0E1E1EE2EE1E052
:10109000FE2ECC24DD24AA24BB240E9429170E9402
:1010A00099010E94AD16FDCF82EE93E00895BC0138
:1010B0008EE49CE00E943A1C08958EE49CE00E941D
:1010C000281C0895682F84E59CE00E94341C089534
:1010D00084E59CE00E94221C08959AB790629ABF12
:1010E000882319F08AB7806102C08AB78F7E8ABFD1
:1010F0000895DE9A0895DE98089521E030E0CE99B3
:1011000002C020E030E0C9010895D69A0895D6982B
:101110000895DD9A0895DD98089521E030E0CD9995
:1011200002C020E030E0C9010895D59A0895D5980D
:1011300008951E9A08951E98089521E030E00E99B2
:1011400002C020E030E0C9010895169A089516986B
:1011500008951E9A08951E98089521E030E00E9992
:1011600002C020E030E0C9010895169A089516984B
:101170000895969A08959698089521E030E086990A
:1011800002C020E030E0C90108958E9A08958E983B
:101190000895949A08959498089521E030E08499F0
:1011A00002C020E030E0C90108958C9A08958C981F
:1011B0000895C09A0895C098089526B330E021702C
:1011C0003070C9010895B89A0895B8980895C79ADB
:1011D0000895C798089586B3992787FD9095892F1C
:1011E000881F8827881F90E00895BF9A0895BF98A8
:1011F0000895969A08959698089521E030E086998A
:1012000002C020E030E0C90108958E9A08958E98BA
:1012100008950E94B7020E94A5020E94C5020E9482
:1012200085080E9495080E94E5080E94B7080E9460
:10123000C7080E94D7080E94F7080E94070908956E
:10124000109290008FE089B9599AE5E9F0E0808129
:10125000866080838AB188698AB981E0809392012F
:10126000109293010895DF93CF930F92CDB7DEB71D
:1012700090919201992321F489830E942009898108
:101280005D9BFECF8CB90F90CF91DF910895DF93D6
:10129000CF930F92CDB7DEB790919201992321F4AD
:1012A00089830E94200989815D9BFECF8CB90F90B4
:1012B000CF91DF910895EF92FF920F931F93DF93E9
:1012C000CF930F92CDB7DEB7182F8CEF99830E9482
:1012D00033099981612F792F8B0102C00E94330954
:1012E000F80181918F018823C9F78CEF0E9433099F
:1012F0000F90CF91DF911F910F91FF90EF90089584
:10130000EF92FF920F931F93DF93CF930F92CDB77E
:10131000DEB7182F062F8CEF99830E94330999812D
:10132000612F792F7B0105C0F70181917F010E9418
:1013300033098E2D811B8017B8F38CEF0E9433097F
:101340000F90CF91DF911F910F91FF90EF90089533
:10135000EF92FF921F93DF93CF930F92CDB7DEB73B
:10136000182FE12FF92F7F0107C0F70181917F012D
:1013700069830E94470969818E2D811B8617A8F316
:101380000F90CF91DF911F91FF90EF9008958A30D9
:1013900010F0895A01C0805D0E9433090895DF93DF
:1013A000CF9300D000D0CDB7DEB769837A838B832B
:1013B0009C838C810E9433098B810E9433098A812E
:1013C0000E94330989810E9433090F900F900F907A
:1013D0000F90CF91DF9108951F93182F82958F70F2
:1013E0000E94C709812F8F700E94C7091F9108951D
:1013F000EF92FF920F931F937B018C018DEF0E9460
:101400003309C801B7010E94CF098DEF0E9433094B
:101410001F910F91FF90EF900895EF92FF920F931D
:101420001F937B018C018EEF0E943309C801B70125
:101430000E94CF098EEF0E9433091F910F91FF90F8
:10144000EF9008958CEF0E9433098DE60E943309D6
:101450008DE60E9433098DE60E9433098CEF0E94CD
:1014600033090895DF93CF9300D000D0CDB7DEB716
:1014700069837A838B839C8380E30E94330988E7A6
:101480000E9433098C810E94EC098B810E94EC0937
:101490008A810E94EC0989810E94EC090F900F90CB
:1014A0000F900F90CF91DF9108952F923F924F921E
:1014B0005F926F927F928F929F92AF92BF92CF92E4
:1014C000DF92EF92FF920F931F931B012C013901C2
:1014D0004A0181E00E943309C201B1010E94320A2F
:1014E000C401B3010E94320AC801B7010E94320A46
:1014F000C601B5010E94320A1F910F91FF90EF9033
:10150000DF90CF90BF90AF909F908F907F906F9023
:101510005F904F903F902F9008951F920F920FB6BB
:101520000F920BB60F921124FF920F931F932F93DC
:101530003F934F935F936F937F938F939F93AF935B
:10154000BF93CF93DF93EF93FF930CB10E94353796
:10155000F82E0E941D17882371F02DB73EB73093E7
:10156000AA052093A90520912F05309130053EBF93
:101570002DBF11E001C010E08F2D0E9438370136D9
:1015800099F40E943537C2E5D1E05F9BFECF9CB154
:10159000999391E0C137D907C1F70E943837CE013E
:1015A0004F976FE170E016C00C36B1F40E943537EA
:1015B000C2E5D1E05F9BFECF9CB1999391E0C13928
:1015C000D907C1F70E9438370E94841BCE01CF97FC
:1015D0006FE370E00E9444010E943537113061F4DE
:1015E0002DB73EB73093300520932F052091A905E4
:1015F0003091AA053EBF2DBF0E943837FF91EF9171
:10160000DF91CF91BF91AF919F918F917F916F911A
:101610005F914F913F912F911F910F91FF900F90EC
:101620000BBE0F900FBE0F901F9018951F93CF9376
:10163000DF93EC010E943537182F0E9454080E9456
:101640005B0982E391E00E945B09CE010E945B0985
:10165000812F0E943837DF91CF911F910895DF933A
:10166000CF930F92CDB7DEB70E94353789830E94A2
:10167000220A89810E9438370F90CF91DF91089517
:10168000DF92EF92FF920F931F937B018C010E94D8
:101690003537D82E0E9454080E945B0982E391E0FE
:1016A0000E945B09C801B7010E94F8098D2D0E94B4
:1016B00038371F910F91FF90EF90DF900895DF92E0
:1016C000EF92FF920F931F937B018C010E9435379D
:1016D000D82E0E9454080E945B0982E391E00E9488
:1016E0005B09C801B7010E940D0A8D2D0E94383791
:1016F0001F910F91FF90EF90DF90089510920704D3
:10170000109206040E94320F10920A0410920904EB
:101710001092080408950E947D0F08950E947D0F85
:1017200010920A040895CF92DF92EF92FF920F93E6
:101730001F93DF93CF930F92CDB7DEB77C016B0180
:10174000890180910A04882301F581E080930A04CD
:10175000453618F010920A0418C085E19CE064E157
:1017600049830E9475164981882319F410920A044E
:101770000DC010930C0400930B04F8014083D78232
:10178000C682F186E08681E001C080E00F90CF91B3
:10179000DF911F910F91FF90EF90DF90CF90089510
:1017A00081E0089580E0089581E0089581E0089542
:1017B000CB010895CB0108950F931F938C012091C5
:1017C000F3033091F40320910804309109042F5F52
:1017D0003F4F30930904209308048093AE02109386
:1017E000AF020E946D00009709F08C01C8011F91A3
:1017F0000F9108950E94DC0B089510920A0481E075
:10180000089510920A0481E0089510920A040E943B
:10181000B9110895CF93DF93EC010E94050CCE011E
:101820000E942510DF91CF91089580910B04909133
:101830000C040E940A0C882311F410920A040895E3
:101840000E949F0D08950E94A90D089520910604FD
:1018500030910704C901089581E090E09093070456
:1018600080930604089510920704109206040895C8
:1018700010921804109224041092300410923C0428
:10188000109248040895EF92FF920F931F93E8E19E
:10189000F4E0A0E0B0E070817723C9F4FD01EE0F21
:1018A000FF1FEA0FFB1FEE0FFF1FEE0FFF1FE15F91
:1018B000FB4F9183808362835483438336832583E4
:1018C00010870783F386E28681E0818705C0119641
:1018D0003C96A530B105F9F61F910F91FF90EF905E
:1018E0000895EFE0F4E020E030E041854130A1F4DC
:1018F000408151814817590779F4F901EE0FFF1F14
:10190000E20FF31FEE0FFF1FEE0FFF1FE15FFB4F14
:1019100011861182108208952F5F3F4F3C9625302B
:10192000310519F70895FF920F931F93CF93DF931B
:101930008B01EFE0F4E0C0E0D0E020813181281796
:10194000390709F062C02185213009F05EC010938B
:101950000E0400930D04FE01EE0FFF1FEC0FFD1FA0
:10196000EE0FFF1FEE0FFF1FE15FFB4F258136815A
:10197000D8018C91F2808F1508F4F82EF8013A9670
:1019800080E005C09191D9019D939D018F5F8F15D6
:10199000C9F7FE01EE0FFF1FEC0FFD1FEE0FFF1F3B
:1019A000EE0FFF1FE15FFB4F0780F085E02D3097C2
:1019B00051F0D801A259BF4F8C918083D801A15911
:1019C000BF4F8C918183FE01EE0FFF1FEC0FFD1FB7
:1019D000EE0FFF1FEE0FFF1FE15FFB4F8285938528
:1019E000009719F066E00E947516FE01EE0FFF1FCA
:1019F000EC0FFD1FEE0FFF1FEE0FFF1FE15FFB4F10
:101A00000380F481E02DF0820AC021963C96C53017
:101A1000D10509F092CF10930E0400930D04C80174
:101A2000DF91CF911F910F91FF900895EFE0F4E0C7
:101A30002185213059F4238134816217730730F0F6
:101A40002817390718F01186118210823C9624E07D
:101A5000EB34F20769F708950E94300F08950E9451
:101A60006B1308950E94890888E592E00E94A901FD
:101A700081E008950E948B0888E592E00E94A90108
:101A800081E008950E94300F08950E94A7140895E0
:101A90000E94761408958DE168E170E00E9476144A
:101AA00081E00E946B1381E00E94A71481E00895F9
:101AB0000E94451508951F930E94353790914B045D
:101AC000923029F493E090934B0411E001C010E0B0
:101AD0000E943837112379F00E9445150E94320D7B
:101AE0000E947B080E948F010E9479080E948F014A
:101AF0000E944B0D01C080E01F91089583E00E9479
:101B0000A71481E008950E94AD0F0895BC016050B4
:101B1000784080915C0490915D0480709C7F682B7C
:101B2000792B70935D0460935C0488E10E947614C5
:101B300086FF03C083E00E94A71481E0089595E02A
:101B4000899FC0011124825D964F0E94860D81E01D
:101B5000089590E08F719070209156043091570451
:101B6000207E822B932B9093570480935604609190
:101B70005C0470915D0485E10E94761486FF03C0C9
:101B800083E00E94A71481E0089581E008950E94F7
:101B90001B140895DF93CF9300D0CDB7DEB79A839F
:101BA00089830E941E369A8389838AE691E062E0E7
:101BB000AE014F5F5F4F0E941B140F900F90CF91AB
:101BC000DF9108950E94C214089560914C047091B1
:101BD0004D0480E10E94761460914E0470914F0490
:101BE00081E10E94761481E10E94C21420914E048A
:101BF00030914F048217930709F055C0609150044B
:101C00007091510482E10E947614609152047091A7
:101C1000530483E10E94761460915404709155043A
:101C200084E10E947614609156047091570485E116
:101C30000E947614609158047091590486E10E94C4
:101C4000761460915A0470915B0487E10E947614C7
:101C500060915C0470915D0488E10E94761460914B
:101C60005E0470915F0489E10E94761460916004C3
:101C7000709161048AE10E9476146091640470910D
:101C800065048CE10E94761460916604709167048B
:101C90008DE10E94761489E00E94A71488E00E94DA
:101CA000A71481E0089580E008950E94E50D8091D9
:101CB000F3039091F4030E94CA0D80915C0490910B
:101CC0005D0491708050984F0E94860D0E943537B8
:101CD00094E090934B040E9438370E94AD0F089512
:101CE0008DE160E070E00E94761485E59EE065E09D
:101CF0000E94751680E008951F930E94E413182F28
:101D00000E94FB14682F812F0E941B371F9108959A
:101D10001F930E94353710914B0410924B040E9480
:101D20003837112309F05EC00E947C0E80E098EFE6
:101D300090934D0480934C0482EE92E090934F0474
:101D400080934E0480E095E090935104809350047A
:101D500080E890EE90935304809352048FE097EACA
:101D600090935504809354048FEF90E6909357041A
:101D70008093560485EE92E1909359048093580421
:101D800086E59AE090935B0480935A0485E691E49B
:101D900090935D0480935C0484EC91E090935F04E5
:101DA00080935E04109261041092600410926304A8
:101DB000109262048FE792E090936504809364042C
:101DC00010926704109266040E94353792E0909357
:101DD0004B040E9438378CE29DE065E00E94751646
:101DE00081E001C080E01F910895CF93DF930E94AE
:101DF000353792E09093E404C091E204D091E3047B
:101E000098819B5098830E943837CE0161E00E94F0
:101E1000FD0BDF91CF910895CF93DF930E9435376B
:101E2000C0916804D09169040E943837CE010E94A5
:101E3000FA0BEC010E943537209721F0D09369040A
:101E4000C0936804E0916804F091690410821092D4
:101E50006B040E943837DF91CF91089581E0089597
:101E600081E008950E9435371092E40410926A04CC
:101E70001092E00410926B042CE634E03093690475
:101E80002093680410926C040E9438370E94880ED8
:101E900008950E945B0D08951F930E94353710919D
:101EA000E4040E943837112389F40E9435379AE000
:101EB0009093E4041092E104E0916804F0916904C5
:101EC00010820E9438370E945B0D01C080E01F9194
:101ED00008951F930E9435379091E404913021F4C6
:101EE0001092E40411E001C010E00E943837113074
:101EF00011F40E944C0F1F9108950F931F930E949D
:101F00003537182F8091E404882361F489E69FE037
:101F100065E00E947516882329F081E08093E4042F
:101F200001E001C000E0812F0E943837802F1F910F
:101F30000F91089581E0089581E008950E94A9130A
:101F400008950E94A71408950E94EE1108950E941A
:101F5000231308950E947E0D08951F930E94353724
:101F60001091E4040E9438371A3079F40E947E0DF3
:101F700080E00E94231381E00E94A9130E9435375C
:101F800092E09093E4040E94383781E01F91089515
:101F90000E94C21408950E94361308950E94FA0BFD
:101FA00008950E94501208950E94FD0B08950E940A
:101FB000BF1308950E94353792E09093E4040E9485
:101FC00038378091E2049091E304FC0120812B508A
:101FD000208360E00E94FD0B0895CF93DF93EC0116
:101FE0008091E404833019F0843059F519C080E001
:101FF0000E94A9130E94CD08009719F40E94BF13F4
:1020000003C084E08093E404E091E204F091E304EF
:10201000EE58FF4FD183C0838091E404843089F06F
:1020200086E08093E4040E94BF1381E00E94A9131C
:1020300085EF9EE065E00E947516882311F40E94EA
:10204000DA0F81E0DF91CF9108951F93CF93DF9353
:10205000EC010E9435371091E4040E9438371230A9
:10206000F1F588E08A838091E004882311F081E211
:1020700001C081E089838FEF9FEF9D838C838E81E8
:102080009F810E941E369F838E838881855F88830F
:1020900080916A048F5F80936A048B83FE01EE58FF
:1020A000FF4F11821082888182508093E504D09383
:1020B000E304C093E20488E08093E1040E94353792
:1020C00095E09093E4040E94383786E790E165E05C
:1020D0000E947516882329F40E94DA0F02C080E05E
:1020E00001C081E0DF91CF911F91089589E00E94A6
:1020F000A714882319F40E94DA0F08958091E5044B
:102100006091E2047091E3048F5F0E94EE118823D6
:1021100011F40E94DA0F089585E00E94A71480E070
:102120000E94A71486958695869580FF04C081E05D
:102130000E94A91308950E94DA0F08950E94361391
:102140008FE30E94C21488E00E94A71488E00E94D6
:10215000A7140E94353710926B040E94383780E034
:102160000E94231308951F93CF93DF93182FEB0141
:102170000E9435370E9438370E94EB08009721F4FF
:102180000E949D080097A1F0112391F0113780F46F
:10219000D0936904C093680489818770813041F4C9
:1021A0008A81883029F488818B508883853648F06D
:1021B0000E949E100E94353710926B040E9438379F
:1021C0004AC08E819F810E9430369F838E832091EA
:1021D000680430916904812F90E0FC013197EC0F85
:1021E000FD1FD901A059BF4F4081441F4427441F00
:1021F0004C93D901A259BF4FC80FD91F229788818C
:102200008C9321593F4F80818F77F90180830E9401
:102210003537182F8CE09FE065E00E947516882303
:1022200011F410926B04812F0E9438370E94EB0842
:10223000009721F40E949D08009759F00E949D0884
:10224000009739F484EB91E165E00E9475168823CC
:1022500011F40E949E1081E0DF91CF911F910895AB
:102260001F930E94EB08009719F40E949E1012C061
:102270000E943537182F84EB91E165E00E947516B6
:10228000882319F00E94361302C00E949E10812FED
:102290000E94383781E01F9108951F930E943537BF
:1022A0001091E4040E9438371530C1F40E94EB0805
:1022B000009731F40E949D08009711F40E949E102F
:1022C0000E94FD08009761F00E94353793E09093DB
:1022D000E4040E9438370E948C1002C00E949E10B5
:1022E0001F9108950E944D1181E008950F931F934F
:1022F0000E94EB08009721F40E949D08009779F155
:102300000E943537082F10916B04112351F084EB94
:1023100091E165E00E947516882331F40E949E10B9
:1023200003C081E080936B04802F0E943837112313
:10233000B1F4609168047091690480E70E945012C2
:10234000882369F40E94353710926B040E94383755
:1023500084EB91E165E00E947516882311F40E94D8
:102360009E101F910F9108950E947611089581E0AB
:10237000089582E08093E40408951F93CF93DF9340
:102380000E9435371091EE04C091E804D091E90421
:102390001092ED040E943837812FBE010E94B310C5
:1023A000DF91CF911F9108951F93CF93DF930E94E8
:1023B00035371091E604C091EB04D091EC041092F3
:1023C000EA040E943837812FBE010E947211DF910A
:1023D000CF911F9108950E9472110895EF92FF927C
:1023E0000F931F93DF93CF930F92CDB7DEB7182FC4
:1023F0007B010E9435379091EA04992329F491E0FA
:102400009093EA0400E001C001E00E943837002305
:10241000D1F50E9435371092E7041093E604F0924C
:10242000EC04E092EB0489830E94DB089EE39FB9F1
:102430008981779BFECF1FB190E00DC0E091EB0446
:10244000F091EC0421912FB9F093EC04E093EB04AC
:10245000779BFECF9F5F2091E604921778F391E07F
:102460009093E7040E9438370E94D90884ED91E1E7
:1024700065E00E947516882339F40E943537109262
:10248000EA040E94383710E0812F0F90CF91DF913E
:102490001F910F91FF90EF9008950E94B31008953F
:1024A000EF92FF920F931F93DF93CF930F92CDB7CD
:1024B000DEB7182F7B010E9435379091ED049923E8
:1024C00029F491E09093ED0400E001C001E00E9446
:1024D0003837002309F04DC00E9435371092E704C9
:1024E000F092E904E092E80489830E94DB089FE708
:1024F0009FB98981779BFECF9FB11FB8779BFECF95
:102500009FB19093EE04992301F1E091E804F091DA
:10251000E90490839091EE049F5F9093EE04191765
:1025200010F41093EE0491E00CC01FB8779BFECF1F
:102530002FB1E091E804F091E904E90FF11D208347
:102540009F5F2091EE04921780F391E09093E7044F
:102550000E9438370E94D9088DEB91E165E00E9416
:102560007516882341F40E9435371092ED040E94BD
:10257000383780E001C081E00F90CF91DF911F914B
:102580000F91FF90EF9008951F920F920FB60F9248
:102590000BB60F9211240F931F932F933F934F93DA
:1025A0005F936F937F938F939F93AF93BF93EF93BB
:1025B000FF930E943537082F0E941D17882371F062
:1025C0002DB73EB73093AA052093A90520912F057A
:1025D000309130053EBF2DBF11E001C010E0802FCB
:1025E0000E9438370E943011882331F489B78F7BDD
:1025F00089BF88B7806488BF0E943537113061F485
:102600002DB73EB73093300520932F052091A905B3
:102610003091AA053EBF2DBF0E943837FF91EF9140
:10262000BF91AF919F918F917F916F915F914F91EA
:102630003F912F911F910F910F900BBE0F900FBEE6
:102640000F901F9018950F931F93082F0E943537F6
:10265000182F802F0E946D0889B7806489BF812F51
:102660000E94383781E01F910F91089589B78F7BC1
:1026700089BF81E008950E9430110895982F9A0132
:10268000AB018AE0692F0E94B632089580E0089578
:1026900080E008950E94EB089091EF042091F004EF
:1026A000291711F0891751F08093F00481E041E07F
:1026B00050E060E070E00E943E13089581E00895CC
:1026C0000E94700E0895982F9A01AB018BE0692F3C
:1026D0000E94B63208951F93182F0E943537109329
:1026E000F2040E9438370E94BD088093F10481E013
:1026F00041E050E060E070E00E9463131F91089594
:102700001F930E94BD08182F8091F2049091F1044C
:10271000981731F0181721F40E94700E882351F099
:102720001093F10481E041E050E060E070E00E942D
:10273000631301C081E01F9108950E9462150895FE
:102740000E946C1508950E94EA1508950E94701564
:1027500008950F931F93082F0E943537182F0E945A
:102760007015802F0E94EA150E946C150E94621558
:10277000812F0E94383781E01F910F9108950E94A8
:10278000701581E008950E94ED0F08950E94E715ED
:1027900008950E94ED0F882319F40E947015089582
:1027A0000E94E715882311F00E946C15089540914E
:1027B000F4045091F5048091F7049091F80460912D
:1027C000F3040E94C50D0895DF93CF930F92CDB708
:1027D000DEB781E08093F6040E94B7020E94A50252
:1027E0000E94C5020E9485080E9495080E94E30885
:1027F0000E94B7080E94C7080E94D7080E94F708E5
:102800000E94353789830E94C5020E94B7020E9448
:10281000A502709A6C9A6B986A98699868986E9AF3
:1028200089810E94383781E00F90CF91DF91089520
:102830000E94C50D0895EF92FF920F931F93DF93AF
:10284000CF930F92CDB7DEB77C018A018091F60459
:10285000882309F442C069830E9435371092F60438
:10286000F092F804E092F70469816093F304109306
:10287000F5040093F40489830E94DB089091F70427
:1028800090689FB98981779BFECF9FB12091F70413
:102890003091F80436952795207C2FB9779BFECF91
:1028A0009FB190E00BC0E091F404F091F504E90FC2
:1028B000F11D20812FB9779BFECF9F5F2091F304FC
:1028C000921788F30E94383781E08093F60487EDF1
:1028D00093E165E00E94751601C080E00F90CF91F2
:1028E000DF911F910F91FF90EF9008950F931F9329
:1028F000DF93CF9300D00F92CDB7DEB7182F6A8346
:102900007B830E9435371092F60489830E94DB088E
:102910001FB989817B816A81779BFECF0FB11F3000
:1029200030F07FB9779BFECF6FB9779BFECF91E0F8
:102930009093F6040E9438370E94D908802F0F9098
:102940000F900F90CF91DF911F910F9108951F93DA
:10295000DF93CF930F92CDB7DEB7182F0E94353794
:1029600089830E94DB081FB98981779BFECF1FB145
:102970000E9438370E94D908812F0F90CF91DF91A4
:102980001F910895CF92DF92EF92FF921F93DF93F2
:10299000CF930F92CDB7DEB7182F0E943537109224
:1029A000F60489830E94DB0810641FB98981779B34
:1029B000FECF9FB11FB8779BFECF9FB11FB8779B0B
:1029C000FECFD92ECC241FB189830E94D90891E073
:1029D0009093F60489810E943837212F30E02C290A
:1029E0003D29C9010F90CF91DF911F91FF90EF908A
:1029F000DF90CF9008950E94353794E09093FD04C6
:102A00002FEF30E03093FC042093FB040E94383712
:102A100081E008950F931F93DF93CF930F92CDB76B
:102A2000DEB78C01677069830E9435371FBC97B78A
:102A30009F7E97BF97B79B7F97BF97B79F7D97BFA5
:102A40001DBC1CBC1BBD0ABD96B7906196BF6981B9
:102A500068606EBD0E94383781E00F90CF91DF91A2
:102A60001F910F910895CF93DF930E943537C09146
:102A7000FB04D091FC040E943837CE0160E00E9434
:102A80000A1581E0DF91CF9108950F931F93DF9393
:102A9000CF930F92CDB7DEB70E9435370091FB047C
:102AA0001091FC046091FD0469830E943837C801CD
:102AB00069810E940A1581E00F90CF91DF911F91EB
:102AC0000F9108958EB58F7E8EBD8EB5877F8EBD9A
:102AD00087B7806287BF089586B7846086BF0895F0
:102AE00087B78F7D87BF86B7806286BF089581E0F4
:102AF000089581E00895EF92FF92CF93DF930E94B3
:102B00003537C6B5D7B50E943837CE01DF91CF91A2
:102B1000FF90EF9008950E94C91308951F920F929D
:102B20000FB60F920BB60F9211240F931F932F9392
:102B30003F934F935F936F937F938F939F93AF9345
:102B4000BF93EF93FF930E943537082F0E941D1704
:102B5000882371F02DB73EB73093AA052093A905BD
:102B600020912F05309130053EBF2DBF11E001C0EF
:102B700010E0802F0E9438370E947B150E94C913F5
:102B80000E943537113061F42DB73EB730933005D0
:102B900020932F052091A9053091AA053EBF2DBF96
:102BA0000E943837FF91EF91BF91AF919F918F9124
:102BB0007F916F915F914F913F912F911F910F9155
:102BC0000F900BBE0F900FBE0F901F90189586B7F9
:102BD00082700895882319F08EB5806402C08EB586
:102BE0008F7B8EBD86B7806286BF08951F920F923D
:102BF0000FB60F920BB60F9211240F931F932F93C2
:102C00003F934F935F936F937F938F939F93AF9374
:102C1000BF93EF93FF930E943537082F0E941D1733
:102C2000882371F02DB73EB73093AA052093A905EC
:102C300020912F05309130053EBF2DBF11E001C01E
:102C400010E0802F0E9438370E9435379091F904A8
:102C5000992381F09091FA049093FD0498609093E9
:102C6000FA049EBD2091FB043091FC043BBD2ABDBB
:102C70001092F9040E9438370E943537113061F400
:102C80002DB73EB73093300520932F052091A9052D
:102C90003091AA053EBF2DBF0E943837FF91EF91BA
:102CA000BF91AF919F918F917F916F915F914F9164
:102CB0003F912F911F910F910F900BBE0F900FBE60
:102CC0000F901F90189510922E0580E090E0FC0167
:102CD000EE0FFF1FE80FF91FE250FB4F1182108229
:102CE00001968031910599F708950F931F93DF9313
:102CF000CF930F92CDB7DEB78C0169830E94353731
:102D000090912E0569819031F9F020E030E0F901D1
:102D1000EE0FFF1FE20FF31FE250FB4F4081518186
:102D20004115510561F411830083628390912E0552
:102D30009F5F90932E050E94383781E008C02F5F77
:102D40003F4F2031310519F70E94383780E00F904E
:102D5000CF91DF911F910F910895CF93DF930E9440
:102D6000353790912E05992341F40E9438370E94FF
:102D700099010E94970180E037C020E030E0C0E078
:102D8000D0E060E090E0F901EE0FFF1FE20FF31FCB
:102D9000E250FB4F408151814115510539F042818C
:102DA000941720F4C081D1819281622F2F5F3F4F11
:102DB0002031310541F7209781F090912E059150F7
:102DC00090932E05262F30E0F901EE0FFF1FE20F42
:102DD000F31FE250FB4F118210820E943837209778
:102DE00011F0FE01099581E0DF91CF910895FC017A
:102DF000099508951F930E943537182F83E395E0B6
:102E000060E070E045E750E00E943B3710923205E9
:102E1000109231051092300510922F051092AA05DC
:102E20001092A9051092A8051092AC051092AB055E
:102E3000812F0E9438371F9108952DB73EB781E04A
:102E40004091AB055091AC054217530708F480E060
:102E500008952F923F924F925F926F927F928F923E
:102E60009F92AF92BF92CF92DF92EF92FF920F9319
:102E70001F93CF93DF931C012B01EA013901460117
:102E80000E941D17882309F096C08091AB05909190
:102E9000AC058C179D0720F4D093AC05C093AB050F
:102EA00080913505882369F080915C05882361F065
:102EB00080918305882309F07EC092E0C92ED12C31
:102EC00006C0CC24DD2403C081E0C82ED12C0E9492
:102ED0003537182F87E290E0C89EF001C99EF00DAB
:102EE000D89EF00D1124ED5CFA4FF0933205E0937B
:102EF0003105D183C08382E08283368E258E0383A1
:102F00000483528A418AD48BC38B148E138E768AA3
:102F1000658A908E878AB28EA18EC7010E94E436A0
:102F20002091310530913205482F4F5FC901059638
:102F3000B7010E945436F201E60DF71D8FEF9EEEA9
:102F400091838083938382838DB79EB7909330055E
:102F500080932F05E0913105F091320580819181B8
:102F60009EBF8DBF83E499E18F939F9382E290E0AF
:102F70001F920197E9F78DB79EB791838083809167
:102F80002F05909130059EBF8DBF10923205109293
:102F900031058091A805882341F485E598E162E038
:102FA0000E94751681E08093A805812F0E94383712
:102FB00021E030E002C020E030E0C901DF91CF9194
:102FC0001F910F91FF90EF90DF90CF90BF90AF9047
:102FD0009F908F907F906F905F904F903F902F9039
:102FE000089590E027E230E0829FF001839FF00D8A
:102FF000929FF00D1124ED5CFA4F748F638F08954A
:10300000FF93FFB7FF930F921F922F923F924F9221
:103010005F926F927F928F929F92AF92BF92CF9268
:10302000DF92EF92FF920F931F932F933F934F9353
:103030005F936F937F938F939F93AF93BF93CF9340
:10304000DF93EF93FF938DB79EB7909330058093F6
:103050002F05E0913105F0913205808191819EBF6D
:103060008DBFFF91EF91DF91CF91BF91AF919F9174
:103070008F917F916F915F914F913F912F911F9110
:103080000F91FF90EF90DF90CF90BF90AF909F9007
:103090008F907F906F905F904F903F902F901F90F8
:1030A0000F90FF91FFBFFF910895FF920F931F9321
:1030B000CF93DF930E943537F82E80913505843009
:1030C00061F080915C05843059F0809183058430F3
:1030D00009F048C0C2E0D0E005C0C0E0D0E002C0C6
:1030E000C1E0D0E085E598E163E00E94751627E233
:1030F00030E0C29F8001C39F100DD29F100D11249C
:103100000D5C1A4F85E0F80182838F2D0E943837BD
:10311000F801258D368D40E050E08C2F61E00E9453
:10312000B63228C085E598E163E00E947516CE01AD
:103130000E94EF1997FD1EC047E250E0849F900166
:10314000859F300D949F300D11242D5C3A4F3093A4
:103150003205209331050E9400181092320510921A
:10316000310508C08F2D0E9438370E947148EC014C
:1031700097FFD8CFDF91CF911F910F91FF900895C6
:10318000FF93FFB7FF930F921F922F923F924F92A0
:103190005F926F927F928F929F92AF92BF92CF92E7
:1031A000DF92EF92FF920F931F932F933F934F93D2
:1031B0005F936F937F938F939F93AF93BF93CF93BF
:1031C000DF93EF93FF93E0913105F09132058DB7D6
:1031D0009EB79183808380912F05909130059EBF8B
:1031E0008DBFFF91EF91DF91CF91BF91AF919F91F3
:1031F0008F917F916F915F914F913F912F911F918F
:103200000F91FF90EF90DF90CF90BF90AF909F9085
:103210008F907F906F905F904F903F902F901F9076
:103220000F90FF91FFBFFF9108951F93CF93DF93FE
:103230000E943537182FE0913105F0913205128246
:1032400081899289638974890E94160D0E94341ABB
:1032500027E230E0829FE001839FD00D929FD00D46
:103260001124CD5CDA4FEB8DFC8D309719F0099568
:103270001C8E1B8E0E94C018812F0E943837DF9150
:10328000CF911F910895E0913105F0913205858D20
:10329000968D0E94F7160E941519CF93DF93EC01CB
:1032A0000E941D17882351F0E0913105F0913205FD
:1032B00084E08283D68FC58F0E94C018DF91CF91A2
:1032C00008958330E8F490E027E230E0829FF00137
:1032D000839FF00D929FF00D1124ED5CFA4F8281D7
:1032E000853011F482E082838091A805882341F41F
:1032F00085E598E162E00E94751681E08093A8055B
:1033000008958091A805882341F485E598E162E05D
:103310000E94751681E08093A80508958F929F9270
:10332000AF92BF92CF92DF92EF92FF920F931F93D3
:10333000CF93DF938C017A0176956795680F791F9B
:10334000E4E4F5E080E090E047E2842E912C889D53
:10335000D001899DB00D989DB00D1124AD5CBA4F80
:1033600012964C911297442329F1468157814115B9
:10337000510501F1A080B180C280D380DA0112969C
:10338000C085D185D695C795AC0FBD1FA017B107D5
:1033900028F0425050406417750798F40894C11CF7
:1033A000D11CCE14DF0430F00894A108B1082A150E
:1033B0003B0538F40196B7968330910541F680E0DD
:1033C00001C081E0DF91CF911F910F91FF90EF90AD
:1033D000DF90CF90BF90AF909F908F9008959C0109
:1033E00087E290E0289FD001299FB00D389FB00D53
:1033F0001124AD5CBA4F5196ED91FC9152975596C0
:103400008D919C915697E80FF91F808191814EEE26
:103410008F3F940731F4828193814EEE8F3F940762
:1034200079F087E290E0289FF001299FF00D389F06
:10343000F00D1124ED5CFA4F89E082832FEF3FEF0E
:10344000C9010895893051F48091A805882341F479
:1034500085E598E162E00E94751608950E94611961
:1034600008958FE295E008954F935F938091310521
:103470009091320525E08333920771F025E08A357B
:10348000920739F025E08138920731F422E030E0EC
:1034900005C021E030E002C020E030E05F914F91B4
:1034A000C9010895AF92BF92DF92EF92FF920F93FE
:1034B0001F93DF93CF930F92CDB7DEB7F82EE62E92
:1034C0000E943537AA24BB2407E210E062E0D62E22
:1034D000A09EF001A19EF00DB09EF00D1124ED5CB8
:1034E000FA4F9281963059F4958D9F1541F4968D3F
:1034F0009E1529F4D28289830E94811989810894BA
:10350000A11CB11C93E0A916B10411F70E94383731
:103510000F90CF91DF911F910F91FF90EF90DF906F
:10352000BF90AF9008951F920F920FB60F92112483
:10353000349A37980F900FBE0F901F90189517B8B8
:103540008EE086B9089517B897B18F71892B87B926
:103550003398349A86B1806C86B93699FECF84B19F
:1035600090E025B1379830E023703070322F222759
:10357000282B392BC90108951E9816981D9A159A63
:1035800081E090E00E94A31A1D98159808951D9857
:1035900015981E9A169A81E090E00E94A31A1E9830
:1035A00016980895A59AAD9A85E090E00E94A31A16
:1035B000A598AD980895A59AAD9A86E090E00E94EE
:1035C000A31AA598AD980895A49AAC9A83E090E0C8
:1035D0000E94A31AA498AC980895A49AAC9A84E087
:1035E00090E00E94A31AA498AC980895DF93CF931B
:1035F0000F92CDB7DEB70E943537109294018983C0
:103600000E94C3010E94E1010E94D3010E94B70100
:103610000E94D7010E94C70189810E9438370F900C
:10362000CF91DF910895DF93CF930F92CDB7DEB79F
:103630000E94353789830E94B9019091940191606D
:103640009093940189810E9438370F90CF91DF9138
:103650000895DF93CF930F92CDB7DEB70E94353731
:1036600089830E94B701909194019E7F9093940169
:1036700089810E9438370F90CF91DF910895DF93B1
:10368000CF930F92CDB7DEB70E943537909194015A
:1036900090FF04C089830E94291B03C089830E9474
:1036A000131B89810E9438370F90CF91DF910895C5
:1036B000DF93CF930F92CDB7DEB70E943537898362
:1036C0000E94C90190919401926090939401898124
:1036D0000E9438370F90CF91DF910895DF93CF93F9
:1036E0000F92CDB7DEB70E94353789830E94C7019C
:1036F000909194019D7F9093940189810E94383725
:103700000F90CF91DF910895DF93CF930F92CDB7B4
:10371000DEB70E9435379091940191FF04C08983F0
:103720000E946E1B03C089830E94581B89810E94DE
:1037300038370F90CF91DF910895DF93CF930F9299
:10374000CDB7DEB70E94353789830E94D9019091A9
:10375000940194609093940189810E9438370F906E
:10376000CF91DF910895DF93CF930F92CDB7DEB75E
:103770000E94353789830E94D701909194019B7FE5
:103780009093940189810E9438370F90CF91DF91F7
:103790000895DF93CF930F92CDB7DEB70E943537F0
:1037A0009091940192FF04C089830E94B31B03C0CF
:1037B00089830E949D1B89810E9438370F90CF9189
:1037C000DF910895DF93CF930F92CDB7DEB70E94BC
:1037D000353789830E94F30289810E9438370F9020
:1037E000CF91DF910895DF93CF930F92CDB7DEB7DE
:1037F0000E94353789830E94F3020E94E702898183
:103800000E9438370F90CF91DF910895DF93CF93C7
:103810000F92CDB7DEB70E94353789830E94F3023D
:103820000E94E90289810E9438370F90CF91DF9181
:1038300008950E94461C08950E94501C08950E94FD
:10384000F21D08950E945A1C08950E94711C08954B
:103850000E94881C08950E94A91C08950E94361D8C
:1038600008950E94641D08950E94CA1C08950E9434
:10387000E71C08950E94041D08950E941D1D0895CF
:103880000E94921D08950E94BC1D0895FC019B0199
:10389000CA01E199FECFBF01A9010E94C349089561
:1038A000FC019B01CA01E199FECFBF01A9010E9461
:1038B000E14908950F931F93CF93DF93EC010E948A
:1038C0003537182FE199FECFCE010E94D349082F3A
:1038D000812F0E943837802FDF91CF911F910F9158
:1038E00008950F931F93CF93DF93EC010E94353718
:1038F000182FE199FECFCE010E94D349082F812FC6
:103900000E943837802FDF91CF911F910F9108953A
:10391000EF92FF920F931F93DF93CF930F92CDB748
:10392000DEB77C010E943537082FE199FECFC70131
:103930000E94DB49182F802F99830E943837812FEE
:1039400099810F90CF91DF911F910F91FF90EF9090
:103950000895EF92FF920F931F93DF93CF930F92EF
:10396000CDB7DEB77C010E943537082FE199FECF35
:10397000C7010E94DB49182F802F99830E94383796
:10398000812F99810F90CF91DF911F910F91FF901F
:10399000EF900895EF92FF921F93DF93CF930F92D2
:1039A000CDB7DEB77C0169830E943537182F698156
:1039B000E199FECFC7010E94EB49812F0E94383761
:1039C0000F90CF91DF911F91FF90EF900895EF92AC
:1039D000FF921F93DF93CF930F92CDB7DEB77C0199
:1039E00069830E943537182F6981E199FECFC7019D
:1039F0000E94EB49812F0E9438370F90CF91DF91C1
:103A00001F91FF90EF900895FF920F931F93CF9314
:103A1000DF93EC018B010E943537F82EE199FECF40
:103A2000CE01B8010E94F8498F2D0E943837DF91EE
:103A3000CF911F910F91FF900895FF920F931F93C5
:103A4000CF93DF93EC018B010E943537F82EE1997B
:103A5000FECFCE01B8010E94F8498F2D0E94383761
:103A6000DF91CF911F910F91FF900895FF920F93D7
:103A70001F93CF93DF938C010E943537F82EE19985
:103A8000FECFC8010E94DB49EC01E199FECFC801DD
:103A900002960E94DB498C018F2D0E9438379801D5
:103AA00040E050E0A90133272227CE01A0E0B0E09A
:103AB000280F391F4A1F5B1FB901CA01DF91CF913F
:103AC0001F910F91FF900895FF920F931F93CF9333
:103AD000DF938C010E943537F82EE199FECFC801A3
:103AE0000E94DB49EC01E199FECFC80102960E94D9
:103AF000DB498C018F2D0E943837980140E050E05F
:103B0000A90133272227CE01A0E0B0E0280F391FFA
:103B10004A1F5B1FB901CA01DF91CF911F910F911D
:103B2000FF900895BF92CF92DF92EF92FF920F9392
:103B30001F93CF93DF93EC017A018B010E943537FD
:103B4000B82E6801B701E199FECFCE010E94F84975
:103B5000CE010296E199FECFB6010E94F8498B2D65
:103B60000E943837DF91CF911F910F91FF90EF9016
:103B7000DF90CF90BF900895CF92DF92FF920F9386
:103B80001F93DF93CF9300D000D0CDB7DEB76C0189
:103B900049835A836B837C830E943537F82E498191
:103BA0005A816B817C81062F172F642F752FE19925
:103BB000FECFC6010E94F849C6010296E199FECFE8
:103BC000B8010E94F8498F2D0E9438370F900F904E
:103BD0000F900F90CF91DF911F910F91FF90DF9089
:103BE000CF900895CF92DF92EF92FF920F931F93A1
:103BF000CF93DF93EC017B01C42E0E943537D82E82
:103C000000E010E008C0C8018C0F9D1F6C2D0E94C1
:103C1000CA1C0F5F1F4F0E151F05ACF38D2D0E94A0
:103C20003837DF91CF911F910F91FF90EF90DF9088
:103C3000CF90089580E090E00E941A2521E030E0C6
:103C40008130910511F020E030E0C9010895109213
:103C5000AD051092B70508958091AD05882339F020
:103C60008091B705882331F461E070E005C060E021
:103C700070E002C062E070E0FB01EE0FFF1FCB01BD
:103C800023E0880F991F2A95E1F7E80FF91FE35504
:103C9000FA4F81E080836183138212822FEF3FEF1E
:103CA000A9012683378340875187CB0108959C0162
:103CB000FC01EE0FFF1F43E0220F331F4A95E1F78F
:103CC000E20FF31FE355FA4F108208951092AD05ED
:103CD0001092B7050895CF92DF92EF92FF920F9363
:103CE0001F93DF93CF9300D0CDB7DEB76C018B016C
:103CF000BE016F5F7F4F0E9460297C01C8010E9456
:103D0000EE248C010097F1F18FEFE8168FEFF806A3
:103D1000C9F189819A810097C9F40230110591F5A2
:103D2000C6010E94D724B7010E943129D82E0E94D3
:103D30002C1EE82E092F8D2D90E06E2D702F42E065
:103D400050E00E941E2A4E2D502F0FC08230910548
:103D5000C9F40E942C1ED82EC92EC7016D2D7C2DB2
:103D6000A8010E941E2A4D2D5C2D9A01220F331F9F
:103D700083E0440F551F8A95E1F7240F351F235523
:103D80003A4F02C020E030E0C9010F900F90CF9170
:103D9000DF911F910F91FF90EF90DF90CF900895EA
:103DA000FC01818190E00E94571E0895EF92FF92DE
:103DB0000F931F93CF93DF93FC012115310579F405
:103DC00084819581A0E0B0E084179507A607B70726
:103DD0000CF443C0468357836087718741C0868156
:103DE0009781A085B185EC012130310541F4840F24
:103DF000951FA61FB71F86839783A087B187E6808C
:103E0000F7800085118517FD1FC084819581A0E092
:103E1000B0E08E159F05A007B107B4F02230310540
:103E200041F4480F591F6A1F7B1F468357836087E1
:103E30007187268137814085518557FD05C08217DE
:103E40009307A407B50764F4CE01AA2797FDA095B0
:103E5000BA2F86839783A087B1872FEF3FEF02C0E9
:103E600020E030E0C901DF91CF911F910F91FF90C9
:103E7000EF900895DF93CF9300D0CDB7DEB7BE01AA
:103E80006F5F7F4F0E9460299C018FEF2F3F3807A3
:103E900031F089819A81009711F42FEF3FEFC9012A
:103EA0000F900F90CF91DF910895EF92FF920F93B3
:103EB0001F93DF93CF9300D0CDB7DEB78C01BE0147
:103EC0006F5F7F4F0E9460297C018FEFE8168FEFB4
:103ED000F80669F089819A81009749F4C8010E9427
:103EE000D724B7010E940D2920E030E002C02FEF57
:103EF0003FEFC9010F900F90CF91DF911F910F916C
:103F0000FF90EF9008950E943A1F2FEF8F3F920786
:103F100029F00E943E2620E030E002C02FEF3FEF64
:103F2000C90108950E94AD2C08950E94E32B0895C5
:103F3000CF93DF93C0E0D0E0CE010E941A2518167F
:103F400019061CF4CE010E94C1252196C136D10567
:103F500099F7DF91CF9108952F923F924F925F9200
:103F60006F927F928F929F92AF92BF92CF92DF9289
:103F7000EF92FF920F931F93DF93CF93CDB7DEB7EE
:103F80002C970FB6F894DEBF0FBECDBF9C878B87F2
:103F90002B011A01FC016681778180859185910151
:103FA000442737FD4095542F29833A834B835C8304
:103FB00059016A01A60EB71EC81ED91E248135817B
:103FC00040E050E02A153B054C055D050CF491C01E
:103FD000612C58E0752E812C912CA40193010E9434
:103FE0004A496F83788789879A877901C601B50125
:103FF0006150704080409040A40193010E944A4962
:104000003E832D83E216F306F1F48F81988560E0FC
:1040100071E00E9415498B01C82EEB85FC858281D9
:104020006E2D0E94992A282F30E02150304043E025
:10403000220F331F4A95E1F7C901800F911F6C2DA4
:10404000A201910151C08F81988500E011E0B80173
:104050000E9415495B016C01EB85FC8582816E2D08
:104060000E94992A7801EC18FD0890E0019733E04E
:10407000880F991F3A95E1F78A0D9B1D6C2DA201BF
:1040800097010E948A32EB85FC8566817781808565
:104090009185615070408040904029813A814B81E8
:1040A0005C81620F731F841F951FA40193010E94FE
:1040B0004A49CB01B8010E9415498B01EB85FC856B
:1040C00082816D810E94992A90E0019723E0880FF8
:1040D000991F2A95E1F7A2014E0D5F1D91012E193E
:1040E0003F09800F911F60E00E948A3220E030E09B
:1040F00002C02FEF3FEFC9012C960FB6F894DEBF38
:104100000FBECDBFCF91DF911F910F91FF90EF9028
:10411000DF90CF90BF90AF909F908F907F906F90E7
:104120005F904F903F902F9008952F923F924F9223
:104130005F926F927F928F929F92AF92BF92CF9237
:10414000DF92EF92FF920F931F93DF93CF93CDB740
:10415000DEB72C970FB6F894DEBF0FBECDBF9C879D
:104160008B8778876F835E834D839A01442737FD61
:104170004095542F29833A834B835C83FC018681CD
:104180009781A085B185820F931FA41FB51F6481FD
:1041900075819B0140E050E0281739074A075B070B
:1041A000D4F5372F387F20E077706115710511F055
:1041B0002050384F40E050E0281739074A075B0786
:1041C0003CF4AB85BC8512968C9190E00E94B12A9C
:1041D000EB85FC85468157816085718509811A814F
:1041E0002B813C81040F151F261F371F8481958169
:1041F000A0E0B0E080179107A207B30764F42D8117
:104200003E81420F531F55834483828190E06DE1CC
:1042100070E00E946224AB85BC8514968D919C91C0
:104220001597BAEF81309B0708F0A6C0EB85FC8597
:10423000E680F78000851185612CF8E07F2E812CC7
:10424000912CC801B701A40193010E944A491B01A6
:104250002C015901C801B701615070408040904065
:1042600029813A814B815C81620F731F841F951FE6
:10427000A40193010E944A493A872987A216B306EE
:1042800001F5C10160E071E00E9415498B01E82E43
:10429000AB85BC8512968C916A2D0E94992A282F95
:1042A00030E021503040E3E0220F331FEA95E1F780
:1042B000C901800F911F6E2D4F8158852D813E8140
:1042C00056C0C10100E011E0B8010E9415492B0160
:1042D0006C01EB85FC8582816A2D0E94992A780108
:1042E000EC18FD0890E0019773E0880F991F7A950C
:1042F000E1F7840D951D6C2D4F81588597010E9423
:104300008D32AB85BC8516966D917D918D919C917A
:104310001997615070408040904029813A814B81CB
:104320005C81620F731F841F951FA40193010E947B
:104330004A49CB01B8010E9415498B01AB85BC8568
:1043400012968C9169850E94992A90E0019763E00A
:10435000880F991F6A95E1F74F8158854E0D5F1DB3
:104360002D813E812E193F09800F911F60E00E9430
:104370008D3220E030E002C022E030E0C9012C960E
:104380000FB6F894DEBF0FBECDBFCF91DF911F9166
:104390000F91FF90EF90DF90CF90BF90AF909F90E4
:1043A0008F907F906F905F904F903F902F900895E7
:1043B000AF92BF92DF92EF92FF920F931F93DF9322
:1043C000CF9300D000D000D0CDB7DEB77C018B01F9
:1043D000CB010E94D7249C01C8012D833E830E94FB
:1043E000E4365C01C701BE016F5F7F4F0E94602908
:1043F000F82EE92E6FE170E00E9410246F2D0E94CC
:104400001D2BC801BE016D5F7F4F0E946029D82E11
:104410008F2D9E2D6FE170E04D2D0E944C240A0DD2
:104420001B1D2D81021B8F2D9E2D60E070E0402F03
:1044300050E03E810E94A1248F2D9E2D602F70E0C0
:1044400040E00E944C248D2D6F2D0E94EF2A80E0C9
:1044500090E026960FB6F894DEBF0FBECDBFCF9189
:10446000DF911F910F91FF90EF90DF90BF90AF9081
:1044700008958F929F92AF92BF92DF92EF92FF9238
:104480000F931F93DF93CF9300D000D000D0CDB710
:10449000DEB77C018B01CB010E94D7249C01C801AF
:1044A0002D833E830E94E4364C01C701BE016F5F3D
:1044B0007F4F0E9460295C01C801BE016D5F7F4F84
:1044C0000E946029D82E0E94582CF82EE92EC50192
:1044D0006F2D7E2D0E943A27080D191D2D81021B7C
:1044E0008F2D9E2D60E070E0402F50E03E810E94B5
:1044F000A1248F2D9E2D602F70E040E00E944C245F
:104500008F2D9E2D6FE170E04D2D0E944C248D2D3E
:104510006F2D0E94EF2A0EE010E0C501B8010E9445
:104520001024882E882379F00E947C2BD82E8F2D82
:104530009E2DB8014D2D0E944C24882D90E06D2DAC
:1045400070E00E9458270F5F1F4F0631110529F7B1
:1045500080E090E026960FB6F894DEBF0FBECDBF88
:10456000CF91DF911F910F91FF90EF90DF90BF905F
:10457000AF909F908F900895DF93CF9300D0CDB7E9
:10458000DEB7BE016F5F7F4F0E9460290E94EC285A
:104590000F900F90CF91DF9108955F926F927F926D
:1045A0008F929F92AF92BF92CF92DF92EF92FF9243
:1045B0000F931F93DF93CF93CDB7DEB72D970FB631
:1045C000F894DEBF0FBECDBF3C017B010894E1082B
:1045D000F108E80EF91EF701108267010894C1087E
:1045E000D1080E94E7285C014E010894811C911CAF
:1045F000AFE25A2EC401B5010E942D28C4010E94C9
:10460000E436482F082F192FC601801B910BB401E7
:104610000E945436F601508200951095C00ED11EAE
:10462000C5016FE170E00E941024A82EBB24A114E4
:10463000B10401F7F6015082EC18FD08D601F30130
:1046400080E090E003C02D91219301968E159F0587
:10465000D4F3319710822D960FB6F894DEBF0FBEBB
:10466000CDBFCF91DF911F910F91FF90EF90DF9021
:10467000CF90BF90AF909F908F907F906F905F9002
:1046800008950F931F93CF93DF938C01EB01CB0120
:1046900060E070E04CE050E098010E949424CE016C
:1046A0006CE070E00E941024F8018487CE016DE177
:1046B00070E00E941024F8018587CE016EE170E061
:1046C0000E941024F8018687DF91CF911F910F91EE
:1046D0000895CF92DF92EF92FF920F931F93DF9393
:1046E000CF930F92CDB7DEB78C016B017A01FB013E
:1046F000108221E0822FB70129830E94842729811B
:104700008130910551F4F6018081F801E80FF11D27
:104710002083F60180818F5F80832F5F213651F7E0
:104720000F90CF91DF911F910F91FF90EF90DF904D
:10473000CF9008950E94222608955F926F927F92F3
:104740008F929F92AF92BF92CF92DF92EF92FF92A1
:104750000F931F93DF93CF93CDB7DEB72D970FB68F
:10476000F894DEBF0FBECDBF3C016B010894C108B9
:10477000D108C80ED91EF601108276010894E1080E
:10478000F108A42EB52E4E010894811C911CBFE2A5
:104790005B2EC401B5010E942D28C4010E94E4369D
:1047A000482F082F192FC701801B910BB4010E94BD
:1047B0005436F701508200951095E00EF11EC501A8
:1047C0006FE170E00E941024A82EBB24A114B10454
:1047D00001F7F7015082CE18DF08D701F30180E01E
:1047E00090E003C02D91219301968C159D05D4F383
:1047F000319710822D960FB6F894DEBF0FBECDBF55
:10480000CF91DF911F910F91FF90EF90DF90CF90AC
:10481000BF90AF909F908F907F906F905F90089522
:1048200025E0880F991F2A95E1F7860F971F0E94B0
:10483000221C089535E0880F991F3A95E1F7860FFD
:10484000971F0E94251C089545E0880F991F4A95DF
:10485000E1F7860F971F0E94281C089555E0880FE6
:10486000991F5A95E1F7860F971F0E942B1C0895F8
:10487000E5E0880F991FEA95E1F7860F971F0E94E0
:104880002E1C0895F5E0880F991FFA95E1F7860F21
:10489000971F0E94311C0895A5E0880F991FAA95C3
:1048A000E1F7860F971F642F0E94341C0895B5E02E
:1048B000880F991FBA95E1F7860F971F642F0E9402
:1048C000371C08959B01BA0145E0880F991F4A954E
:1048D000E1F7820F931F0E943A1C08959B01BA01D1
:1048E00055E0880F991F5A95E1F7820F931F0E9498
:1048F0003D1C0895FB01BA01A901A5E0880F991F8D
:10490000AA95E1F78E0F9F1F0E94401C0895FB019E
:10491000BA01A901B5E0880F991FBA95E1F78E0F8A
:104920009F1F0E94401C0895FB01BA0145E0880FBB
:10493000991F4A95E1F78E0F9F1FA9010E94191C2C
:104940000895FB01BA0155E0880F991F5A95E1F7C8
:104950008E0F9F1FA9010E941C1C0895FB01BA0124
:10496000A5E0880F991FAA95E1F78E0F9F1F422F90
:104970000E941F1C0895FC0120812F3209F401962A
:10498000FC01A62FB72F01C02D93CF012191322F0B
:1049900031563A31C8F3305E3A31B0F32F35A1F3D6
:1049A0002E3291F33F5E3A3078F31C920895CF9304
:1049B000DF93EC010E94E436FC013197EC0FFD1F00
:1049C00001C0319780818F3221F0EC17FD07C9F7C4
:1049D00001C03196CF01DF91CF910895CF93DF933E
:1049E000EC010E94E4368130910561F488818237C0
:1049F00091F0873799F08136A1F08437A9F424E04B
:104A000030E014C0CE010E94E4368230910561F49A
:104A100025E030E00BC021E030E008C022E030E0CB
:104A200005C023E030E002C020E030E0C901DF91A2
:104A3000CF9108951F93CF93DF93EC016DE070E069
:104A40000E941024182FCE016CE070E00E94102408
:104A5000112319F0282F30E002C020E030E0C90116
:104A6000DF91CF911F910895DF92EF92FF920F9304
:104A70001F93CF93DF93EC017B01142FD22ECB0138
:104A80000E94E436482F8C3008F44F5F013061F407
:104A9000CE0160E070E050E097010E94A124CE01B9
:104AA0006CE070E041E029C0023061F4CE0160E0CA
:104AB00070E050E097010E94A124CE016CE070E00C
:104AC00042E01BC0033061F4CE0160E070E050E0D2
:104AD00097010E94A124CE016CE070E043E00DC07C
:104AE000043071F5CE0160E070E050E097010E9463
:104AF000A124CE016CE070E044E00E944C24CE0181
:104B00006DE070E041E00E944C24CE016EE070E068
:104B10004EE050E020E00E94AE24CE016CE170E057
:104B2000412F0E944C24CE016DE170E040E050E046
:104B30000E946224CE016FE170E04D2D0E944C2452
:104B4000209711F4DD20A9F00EE010E08D2D90E00B
:104B5000B8010E941024882339F48D2D90E0B8010B
:104B60004C2F0E944C2405C00F5F1F4F08311105C8
:104B700069F7DF91CF911F910F91FF90EF90DF9038
:104B80000895EF92FF920F931F93DF93CF93CDB7CA
:104B9000DEB72E970FB6F894DEBF0FBECDBF8C01E7
:104BA0001D8660E070E04CE050E09E012F5F3F4FBB
:104BB0000E949424C8016CE070E00E941024282F09
:104BC000C8016DE070E02E870E9410242E85882396
:104BD000F9F02130A1F59EE0E92EF12CC801B701D2
:104BE0000E9410240894E11CF11C88E1E816F104ED
:104BF000A9F70EC08EE0E82EF12CC801B7010E9483
:104C000010240894E11CF11C86E1E816F104A9F7D0
:104C1000C8016CE170E00E941024C8016FE170E0EF
:104C20000E9410242E960FB6F894DEBF0FBECDBFA3
:104C3000CF91DF911F910F91FF90EF900895223057
:104C4000C9F2E6CFCF93DF93C0E0D0E0CE0160E0C1
:104C500070E040E250E020E00E94AE242196C13294
:104C6000D105A1F70E94742B0E94502CDF91CF91A7
:104C700008950E94742B0E94502C0895CF92DF92C9
:104C8000FF920F931F93DF93CF930F92CDB7DEB7B1
:104C90006C016CE070E00E941024082FC6016FE1E7
:104CA00070E00E941024F82E0130A1F50EE010E013
:104CB000C601B8010E941024882319F090E00E94D8
:104CC0003E260F5F1F4F0831110591F7C6016DE0B9
:104CD00070E040E00E944C24C114D10419F4FF207C
:104CE00009F4B0C020E0022F10E0025F1F4F8F2DAB
:104CF00090E0B80129830E94102490E029818C154E
:104D00009D0521F48F2D90E0B80193C02F5F2A30CC
:104D100051F798C0023009F053C0C6016DE070E051
:104D200040E00E944C24C114D10411F4FF2089F00A
:104D30000EE010E08F2D90E0B8010E94102490E06A
:104D40008C159D0549F48F2D90E0B80140E00E943C
:104D50004C240EE010E006C00F5F1F4F0831110514
:104D600049F7F7CFC601B8010E941024882341F00B
:104D700090E00E94DD2B0F5F1F4F0631110591F768
:104D8000FC2C8F2D90E068E170E00E941024F82E3A
:104D9000882309F457C090E00E94A32C0EE010E095
:104DA0008F2D90E0B8010E941024882351F390E0E9
:104DB0000E94DD2B0F5F1F4F0631110589F7E1CFF0
:104DC0000330E1F4C6016DE070E040E00E944C2445
:104DD000C114D10411F4FF20A9F10EE010E08F2DD1
:104DE00090E0B8010E94102490E08C159D05F1F030
:104DF0000F5F1F4F0831110591F724C0043011F5E2
:104E0000C6016DE070E040E00E944C24C114D10462
:104E100011F4FF20B9F00EE010E08F2D90E0B80102
:104E20000E94102490E08C159D0539F48F2D90E0A0
:104E3000B80140E00E944C2405C00F5F1F4F0831AD
:104E4000110559F7C6010E94A32C0F90CF91DF9155
:104E50001F910F91FF90DF90CF9008950F9380E006
:104E600090E065E371E040E020E001E00E9434253D
:104E70000F910895EF92FF920F931F93CF93DF93BB
:104E80008C017B01C0E0D0E0C801BE010E9410246B
:104E9000482FC701BE010E944C242196C032D10583
:104EA00099F7DF91CF911F910F91FF90EF900895A7
:104EB000EF92FF920F931F93CF93DF938B017C01AF
:104EC0000894E108F10833E0EE0CFF1C3A95E1F795
:104ED0000150104023E0000F111F2A95E1F7C0E0B8
:104EE000D0E0BE01600F711FCE018E0D9F1D0E948C
:104EF00090322196C830D105A1F7DF91CF911F9153
:104F00000F91FF90EF900895BF92CF92DF92EF92B2
:104F1000FF920F931F93DF93CF93CDB7DEB72D97FB
:104F20000FB6F894DEBF0FBECDBF082F6B0190E027
:104F30006DE070E00E941024882309F1802F90E03A
:104F400060E070E04CE050E07E010894E11CF11C50
:104F500097010E9494241D86C7010E94E436B82E52
:104F600000E010E00AC0C701800F911FB6010E9447
:104F7000B7360F5F1F4F009729F00B15A0F320E005
:104F800030E002C021E030E0C9012D960FB6F89460
:104F9000DEBF0FBECDBFCF91DF911F910F91FF906C
:104FA000EF90DF90CF90BF900895BF92CF92DF92A5
:104FB000EF92FF920F931F93CF93DF93C82E092F89
:104FC0007B010E94E4368D309105F4F4C7010E9404
:104FD0001A250097C9F0E6016E01D02EE60100E027
:104FE00010E06E01B880C701B8010E941024B81605
:104FF00059F42196F6018081882349F00F5F1F4FF5
:105000000C30110571F703C021E030E002C020E050
:1050100030E0C901DF91CF911F910F91FF90EF9088
:10502000DF90CF90BF9008950F931F93CF93DF939E
:105030008C01CEE0D0E0C801BE010E94102488237C
:1050400031F02196C831D105B1F781E001C080E08F
:10505000DF91CF911F910F910895CF92DF92EF9240
:10506000FF920F931F93CF93DF936B01E82EE7011D
:105070007E01F92EE70100E010E07E01C601B801D3
:105080000E9410248993882331F07E010F5F1F4F07
:105090000C30110591F7F7011082DF91CF911F912C
:1050A0000F91FF90EF90DF90CF900895CF92DF9215
:1050B000EF92FF920F931F93CF93DF937C016B01CD
:1050C000CEE0D0E0C601BE010E941024082F10E0FF
:1050D000C701B8010E94D527009731F02196C83149
:1050E000D10581F70FEF1FEFC801DF91CF911F911D
:1050F0000F91FF90EF90DF90CF9008956FE170E0F7
:105100000E94102490E00895DF92EF92FF920F9397
:105110001F93CF93DF938C017B01CEE0D0E0C701DA
:10512000BE010E941024D82EC8016D2D70E00E948F
:10513000D527009759F48D2D90E00E941A258823D9
:1051400029F0DD2019F0282F30E006C02196C83163
:10515000D10529F720E030E0C901DF91CF911F91FF
:105160000F91FF90EF90DF900895BF92CF92DF9262
:10517000EF92FF920F931F93CF93DF937C016B010C
:10518000CEE0D0E0C601BE010E941024B82E082F48
:1051900010E0C701B8010E94D527009739F4C80173
:1051A0000E941A25882311F0BB2031F42196C831C2
:1051B000D10541F700E010E0C801DF91CF911F91C8
:1051C0000F91FF90EF90DF90CF90BF900895809166
:1051D0009501909196010895909396018093950181
:1051E00008950F931F93CF93DF938C01CEE0D0E00F
:1051F000C801BE010E941024882339F42196C831C9
:10520000D105B1F720E030E002C021E030E0C90173
:10521000DF91CF911F910F9108950F931F93CF931B
:10522000DF93EC018B010E94B5281816190684F053
:10523000C8010E941428813069F00E94582C182F50
:1052400090E0BE0140E0202F01E00E94342503C021
:1052500010E001C01FEF812FDF91CF911F910F91BF
:1052600008950F931F93CF93DF93EC018B010E945E
:10527000B5281816190684F0C8010E941428813038
:1052800069F00E94582C182F90E0BE0140E0202FBA
:1052900002E00E94342503C010E001C01FEF812FFF
:1052A000DF91CF911F910F9108950E941A2521E05F
:1052B00030E08130910511F020E030E0C90108951F
:1052C000AF92BF92CF92DF92EF92FF920F931F9314
:1052D000DF93CF93CDB7DEB72D970FB6F894DEBF2F
:1052E0000FBECDBF6C015B01FC0181917F01F60116
:1052F000918100919501109196018E3279F49E3240
:1053000051F4C8010E947E288C0182E0E82EF12C25
:10531000EC0CFD1C34C09F3219F431C08F3251F1B6
:10532000982F91569A3118F081548A3138F5C60178
:105330006E010894C11CD11CB6010E94BB247C01E3
:10534000009761F4C601B8010E948428009779F1A2
:10535000F50191838083C601B80132C0C601B8014E
:105360000E9484280097E9F1C601B8010E945628DE
:105370008C0105C0760100E010E001C076016E01ED
:105380000894C11CD11CC8010E945529009749F1FD
:10539000C701B6010E94BB247C01FC0180818823E7
:1053A000A1F4C601B8010E948428009721F4F501F8
:1053B0001182108218C0F50191838083C601B80163
:1053C0000E945628082F192F0EC0C601B8010E944E
:1053D0008428009731F0C601B8010E9456288C013C
:1053E000D2CF0FEF1FEFC8012D960FB6F894DEBF96
:1053F0000FBECDBFCF91DF911F910F91FF90EF9026
:10540000DF90CF90BF90AF9008950F931F93CF93ED
:10541000DF938C01CEE0D0E0C801BE010E941024D1
:10542000882339F090E00E94DD2B2196C631D1050A
:1054300099F7DF91CF911F910F910895EF92FF920D
:105440000F931F93CF93DF93F82EE92E8B01EA0180
:10545000CB01FB01EE0FFF1F23E0880F991F2A9558
:10546000E1F7E80FF91FE355FA4FF282CB01FB0198
:10547000EE0FFF1FA3E0880F991FAA95E1F7E80F31
:10548000F91FE355FA4F43838F2D9E2D6DE170E098
:105490000E9424249801F801EE0FFF1F63E0220F01
:1054A000331F6A95E1F7E20FF31FE355FA4F958337
:1054B0008483C130D10529F1C230D10511F1C33047
:1054C000D105A1F49801F801EE0FFF1F43E0220F70
:1054D000331F4A95E1F7E20FF31FE355FA4FA0E0BF
:1054E000B0E086839783A087B1871CC0C430D10504
:1054F00029F48F2D9E2D0E94052A03C0C530D105A9
:1055000089F4C801F801EE0FFF1F23E0880F991FEF
:105510002A95E1F7E80FF91FE355FA4F1682178233
:1055200010861186DF91CF911F910F91FF90EF9020
:1055300008950F931F93062F162F06C090E068E181
:1055400070E00E94102418501830C0F70770602FC8
:1055500070E0625F7F4F90E00E9410241F910F91D6
:105560000895EF92FF920F931F93CF93DF93082F2D
:10557000CEE0D0E0802F90E0BE010E94102488236E
:1055800069F02196C631D105A9F7802F90E068E136
:1055900070E00E941024882351F707C00E947C2BE2
:1055A000482F802F90E0BE0111C00E94582C182F68
:1055B000802F90E068E170E0412F0E944C240E940F
:1055C0007C2B482F812F90E06EE070E00E944C24ED
:1055D000DF91CF911F910F91FF90EF900895CF929F
:1055E000DF92EF92FF921F93DF93CF930F92CDB78D
:1055F000DEB7182F462F5EE0C52ED12C812F90E00C
:10560000B60149830E9410244981882331F4812FF7
:1056100090E0B6010E944C2407C00894C11CD11C24
:1056200028E1C216D10451F70F90CF91DF911F915D
:10563000FF90EF90DF90CF900895EF92FF920F933D
:105640001F93CF93DF93182F062FCEE0D0E0812F4A
:1056500090E0BE010E941024801739F4812F90E061
:10566000BE0140E00E944C2404C02196C831D105FF
:1056700071F7DF91CF911F910F91FF90EF900895F7
:105680009B0168E070E00E941549FB01E956FE4F5E
:105690002115310559F021E030E002C0220F331FFF
:1056A0008A95E2F78081822B8083089521E030E0A3
:1056B00002C0220F331F8A95E2F7209580812823AC
:1056C000208308958CE69CE060E270E047E951E0B9
:1056D0000E941C1C08958CE69CE060E270E047E9A3
:1056E00051E00E94191C0895E7E9F1E0119281E070
:1056F000E73BF807D9F70895EF92FF92CF93DF9336
:1057000080E090E0FC0123E0F595E7952A95E1F72C
:10571000E956FE4F2081332727FD3095AC014770B5
:10572000507002C0359527954A95E2F7EC01219615
:1057300020FD05C061E070E00E94402B07C0CE0153
:1057400021E0C030D207F1F6CFEFDFEFCE01DF91DD
:10575000CF91FF90EF9008950F931F93CF93DF9316
:10576000C0E0D0E02196CE016DE070E00E941024F0
:10577000082FCE016CE070E00E9410240130A9F4E3
:10578000823099F40EE010E0CE01B8010E9410249E
:10579000882331F090E0019761E070E00E94402B97
:1057A0000F5F1F4F0631110579F7C036D105D1F6CD
:1057B000DF91CF911F910F910895019760E070E004
:1057C0000E94402B089520E030E080E090E0F90155
:1057D00043E0F595E7954A95E1F7E956FE4F40819C
:1057E000552747FD5095B9016770707002C05595F7
:1057F00047956A95E2F740FD01962F5F3F4F41E0E4
:105800002030340721F7281B390BC901089508956A
:1058100080E69CE06CE070E041EC55E00E94191CD1
:10582000089580E69CE06CE070E041EC55E00E9459
:105830001C1C0895FC01CB0168E070E00E94154932
:10584000E60FF71F2081332727FD309502C03595DD
:1058500027958A95E2F721703070C9010895FC01FF
:10586000CB019A0168E070E00E941549E60FF71F2E
:1058700090812115310549F021E030E002C0220F6E
:10588000331F8A95E2F7292B09C021E030E002C0DE
:10589000220F331F8A95E2F720952923208308954C
:1058A000E1ECF5E0119285E0ED3CF807D9F70895B9
:1058B0000F931F93CF93DF93C0E0D0E081EC95E08E
:1058C000BE010E941A2C8E010F5F1F4F009741F4FA
:1058D00081EC95E0BE0141E050E00E942F2C06C013
:1058E000E8010036110551F70FEF1FEFC801DF91F6
:1058F000CF911F910F9108950F931F93CF93DF9333
:10590000C0E0D0E001C0E8018E010F5F1F4FC80169
:105910006DE070E00E941024882331F481EC95E062
:10592000BE0140E050E005C081EC95E0BE0141E0E1
:1059300050E00E942F2C0036110529F7DF91CF91FE
:105940001F910F910895BC016150704081EC95E06A
:1059500040E050E00E942F2C0895EF92FF920F93A9
:105960001F93CF93DF9300E010E0C0E0D0E081EC24
:1059700095E0BE010E941A2C8130910511F40F5F51
:105980001F4F2196C036D10591F7C01BD10BCE0118
:10599000DF91CF911F910F91FF90EF9008958FB7F6
:1059A000F8949598DB988FBF0895DB9A08952FB7E8
:1059B000F89492B3977D92BB80E0959A8299806823
:1059C00092BB959A8299806492BB959A82998062E3
:1059D00092BB959A8299806192BB959A82998860D0
:1059E00092BB959A8299846092BB959A82998260C3
:1059F00092BB959A829981602FBF0895282F3FB757
:105A0000F89492B3977D92BB80E027FD939A959A84
:105A100092BB26FD939A959A92BB25FD939A959AEF
:105A200092BB24FD939A959A92BB23FD939A959AE3
:105A300092BB22FD939A959A92BB21FD939A959AD7
:105A400092BB20FD939A959A3FBF0895AF92BF9263
:105A5000CF92DF92EF92FF920F931F93DF93CF933A
:105A600000D000D0CDB7DEB7B42EA52E790181309D
:105A700011F484E801C087E889831A827B836C83F0
:105A80000E94CF2C8E010F5F1F4F85E0C82ED12CB6
:105A9000CC0EDD1EF80181918F010E94FE2C0C15A9
:105AA0001D05C1F7C501C92EDA2C00E010E007C0C2
:105AB000F60181916F010E94FE2C0F5F1F4F0E15A2
:105AC0001F05B0F30E94D52C81E00F900F900F902E
:105AD0000F90CF91DF911F910F91FF90EF90DF908A
