:100000000C9446000C9463000C9463000C94630001
:100010000C9463000C9463000C9463000C94022F06
:100020000C9463000C9463000C9463000C941631E0
:100030000C9471310C9463000C9463000C94FB16C7
:100040000C9463000C9463000C94535A0C9463005A
:100050000C9463000C94CD260C9463000C94630004
:100060000C9463000C9463000C9494160C9463003D
:100070000C9463000C9463000C9463000C94630074
:100080000C9463000C9463000C94630011241FBE55
:10009000CFEFD0E1DEBFCDBF11E0A0E0B1E0E6EFF1
:1000A000F7EB00E00BBF02C007900D92A23BB10737
:1000B000D9F71DE0A2EBB1E001C01D92A738B1074E
:1000C000E1F70C9468170C9400001092A80480913A
:1000D000A8048093A7048091A7048093A6040895A0
:1000E00086EA94E008958DEA94E0089581EA94E028
:1000F0000895E0916D0BF0916E0B878D90A1909318
:10010000A00480939F0441A152A15093C304409343
:10011000C20423A134A130939E0420939D0466273A
:1001200057FD6095762F0E9477010895E0916D0B41
:10013000F0916E0B878D90A19093A00480939F0403
:1001400081A192A19093C5048093C40483A194A13A
:100150009093AA048093A90465E08CEE90E00E943D
:100160005B490895E0916D0BF0916E0B878D90A126
:100170009093A00480939F0481A192A19093C504C1
:100180008093C40483A194A19093AA048093A904AA
:1001900065E08FEF90E00E945B490895E0916D0B60
:1001A000F0916E0B878D90A19093A00480939F0493
:1001B00065E082E191E00E945B49089580916D0BBA
:1001C00090916E0B9093AC048093AB0465E08DE14D
:1001D00091E00E945B4908954091A9045091AA04BE
:1001E0006091C4047091C50480919F049091A00413
:1001F0000E94330464E087E00E942D4E08954091F0
:10020000A9045091AA046091C4047091C50480911E
:100210009F049091A0040E947D0563E087E00E9406
:100220002D4E089580919F049091A0040E94E506B0
:1002300062E087E00E942D4E089561EA74E08DEA45
:1002400094E00E94EB06E091AB04F091AC0490A323
:10025000878F61E087E00E942D4E0895E6ECF4E080
:1002600010823A9685E0E631F807D1F7089520E04C
:1002700030E0E6ECF4E08081882331F02F5F3F4FDF
:100280003A9628303105B9F78AE090E0289FF001CE
:10029000299FF00D389FF00D1124EA53FB4F81E0A8
:1002A00080832183138212828FEF9FEFAFEFBFEF26
:1002B00086839783A087B187C90108952AE030E03B
:1002C000829FF001839FF00D929FF00D1124EA535D
:1002D000FB4F1082089580E090E00E94680820E0C3
:1002E00030E0019711F421E030E0C9010895EF9268
:1002F000FF920F931F93CF93DF93FC017A018B0141
:10030000B9012115310571F484819581AA27BB2794
:100310008E159F05A007B1076CF1E682F782008772
:1003200011873FC086819781A085B185EC0121307E
:10033000310541F48E0D9F1DA01FB11F8683978349
:10034000A087B187268137814085518557FD09C037
:1003500084819581AA27BB2782179307A407B50735
:1003600064F4CE01AA2797FDA095BA2F86839783C0
:10037000A087B1878FEF9FEF16C06230710589F4B7
:10038000AC01BD014E0D5F1D601F711F4683578379
:100390006087718777FDE5CF84179507A607B707B4
:1003A00004F380E090E0DF91CF911F910F91FF90D7
:1003B000EF9008956F927F928F929F92AF92BF922B
:1003C000CF92DF92EF92FF920F931F93CF93DF9321
:1003D000CDB7DEB72D970FB6F894DEBF0FBECDBFF9
:1003E0003C014B01880E991EF401319710826F0178
:1003F0000894C108D1085A01B5018E010F5F1F4F43
:10040000C8010E94E60BC8010E940D517601E81A4E
:10041000F90A482FB801C7010E94BF500FE2F60148
:10042000008367010894C108D1086FE170E0C5013D
:100430000E94F807A82EBB248823F1F6F60100835A
:10044000B4016C197D0961507040D30120E030E0A7
:1004500006C0F60181916F018D932F5F3F4F2617E4
:100460003707BCF311971C922D960FB6F894DEBF98
:100470000FBECDBFDF91CF911F910F91FF90EF90F5
:10048000DF90CF90BF90AF909F908F907F906F90B4
:1004900008950E946D0A0895CF92DF92EF92FF9225
:1004A0001F93CF93DF936C01EB017A01188211E067
:1004B000B701812F0E94D908019741F48881F60184
:1004C000E80FF11D108388818F5F88831F5F1136CD
:1004D00079F7DF91CF911F91FF90EF90DF90CF9050
:1004E0000895EF92FF920F931F937C018B019C0163
:1004F0004CE050E060E070E0C8010E946C076CE0E6
:1005000070E0C8010E94F807F70184876DE170E090
:10051000C8010E94F807F70185876EE170E0C80105
:100520000E94F807F70186871F910F91FF90EF90C7
:1005300008956F927F928F929F92AF92BF92CF92C7
:10054000DF92EF92FF920F931F93CF93DF93CDB77C
:10055000DEB72D970FB6F894DEBF0FBECDBF3C01BE
:100560004B01880E991EF401319710826F01089497
:10057000C108D1080E94A70B5C01B5018E010F5F75
:100580001F4FC8010E94E60BC8010E940D51760161
:10059000E81AF90A482FB801C7010E94BF500FE2BC
:1005A000F601008367010894C108D1086FE170E08B
:1005B000C5010E94F807A82EBB248823F1F6F60196
:1005C0000083B4016C197D0961507040D30120E0B3
:1005D00030E006C0F60181916F018D932F5F3F4F90
:1005E00026173707BCF311971C922D960FB6F89477
:1005F000DEBF0FBECDBFDF91CF911F910F91FF9056
:10060000EF90DF90CF90BF90AF909F908F907F90B2
:100610006F900895CF93DF93CDB7DEB722970FB6D3
:10062000F894DEBF0FBECDBFBE016F5F7F4F0E944B
:10063000570E9C018FEF2F3F380731F089819A8147
:10064000892B11F42FEF3FEFC90122960FB6F894D2
:10065000DEBF0FBECDBFDF91CF910895CF93DF9363
:10066000CDB7DEB722970FB6F894DEBF0FBECDBF71
:10067000BE016F5F7F4F0E94570E0E94AC0B229607
:100680000FB6F894DEBF0FBECDBFDF91CF910895B6
:100690006F927F928F929F92AF92BF92CF92DF9292
:1006A000EF92FF920F931F93CF93DF93CDB7DEB7F7
:1006B00024970FB6F894DEBF0FBECDBF7C018B012F
:1006C000CB010E9447086C01C8010E940D515C01DA
:1006D000BE016D5F7F4FC7010E94570E3C01BE01F6
:1006E0006F5F7F4FC8010E94570E7C010E943E1031
:1006F0004C01BC01C3010E9457090A0D1B1D0C19B6
:1007000011279601A80160E070E0C4010E945F0714
:1007100040E0B801C4010E94B7074E2D6FE170E0C0
:10072000C4010E94B707682D8E2D0E944C0CCC246A
:10073000DD248EE0E82EF12CEC0CFD1CB701C3018A
:100740000E94F807A82E882371F00E94520F082FEC
:10075000482FB701C4010E94B7071127B8018A2D9D
:1007600099270E942B090894C11CD11C88E0C81647
:10077000D104F9F680E090E024960FB6F894DEBF3D
:100780000FBECDBFDF91CF911F910F91FF90EF90E2
:10079000DF90CF90BF90AF909F908F907F906F90A1
:1007A00008958F929F92AF92BF92CF92DF92EF9275
:1007B000FF920F931F93CF93DF93CDB7DEB72497AC
:1007C0000FB6F894DEBF0FBECDBF7C018B01CB010D
:1007D0000E9447085C01C8010E940D514C01BE01F6
:1007E0006D5F7F4FC7010E94570E7C016FE170E083
:1007F0000E94F8076E2D0E94200CBE016F5F7F4F94
:10080000C8010E94570E6C01482F6FE170E0C701CC
:100810000E94B707080D191D0A1911279501A80193
:1008200060E070E0C7010E945F0740E0B801C701C7
:100830000E94B7076E2D8C2D0E944C0C80E090E03A
:1008400024960FB6F894DEBF0FBECDBFDF91CF91D7
:100850001F910F91FF90EF90DF90CF90BF90AF90DE
:100860009F908F9008952F923F924F925F926F9238
:100870007F928F929F92AF92BF92CF92DF92EF9230
:10088000FF920F931F93CF93DF93CDB7DEB72697D9
:100890000FB6F894DEBF0FBECDBF9E838D837A83E3
:1008A00069835C834B83FC01E680F78000851185BA
:1008B0003A01882477FC8094982CB801A701460D52
:1008C000571D681D791D24813581C901AA27BB27C1
:1008D00084179507A607B707C4F5C9018070987FEC
:1008E0003770232B11F08050984FAA27BB2784170D
:1008F0009507A607B707DCF4ED81FE818281992771
:100900000E94780CED81FE81E680F78000851185DC
:10091000A8019701260D371D481D591D8481958119
:10092000AA27BB2782179307A407B50774F44B8146
:100930005C814E0D5F1DED81FE8155834483828174
:100940006DE170E099270E949F07ED81FE81E680AE
:10095000F78000851185C801B70120E038E040E04C
:1009600050E00E94C25B1901C801B701660D771DF6
:10097000881D991D615070408040904020E038E013
:1009800040E050E00E94C25B29012216330669F55F
:10099000C801B70120E038E040E050E00E94C25BAF
:1009A0007B018C01642DED81FE8182810E94B10B5F
:1009B000E82FC70160E071E00E948D5B6C018E2E14
:1009C000992473E0880C991C7A95E1F7C70160E0DF
:1009D00071E00E948D5BCB0108972B813C8149819E
:1009E0005A816C2D880D991D6BC0C801B70120E09C
:1009F00038E040E050E00E94C25B5B016C01E12CFA
:100A000061E0F62EC50160E071E00E948D5B8C0113
:100A1000622DED81FE8182810E94B10BE01AF10A04
:100A2000282E332453E0220C331C5A95E1F7C501DC
:100A300060E071E00E948D5BCB01089797014981CE
:100A40005A81602F820D931D0E944049ED81FE81E5
:100A500086819781A085B185680E791E8A1E9B1EAE
:100A600008946108710881089108C401B30120E06D
:100A700038E040E050E00E94C25BDC01CB0160E066
:100A800071E00E948D5B8B01642DED81FE8182817E
:100A90000E94B10B2B813C812E193F093C832B8393
:100AA000E981FA81EE0EFF1E992743E0880F991F16
:100AB0004A95E1F708501040A70160E0800F911FB0
:100AC0000E94404980E090E026960FB6F894DEBF81
:100AD0000FBECDBFDF91CF911F910F91FF90EF908F
:100AE000DF90CF90BF90AF909F908F907F906F904E
:100AF0005F904F903F902F9008952F923F924F928A
:100B00005F926F927F928F929F92AF92BF92CF929D
:100B1000DF92EF92FF920F931F93CF93DF93CDB7A6
:100B2000DEB726970FB6F894DEBF0FBECDBF9E830B
:100B30008D837A8369835C834B83FC01A680B780B5
:100B4000C084D1843A01882477FC8094982C860153
:100B50007501E60CF71C081D191D84819581AA27D3
:100B6000BB278E159F05A007B1071CF48FEF9FEFE1
:100B7000B6C0C601B50120E038E040E050E00E9478
:100B8000C25B19010894E108F10801091109C801C3
:100B9000B70120E038E040E050E00E94C25B29014C
:100BA0002216330669F5C601B50120E038E040E0C1
:100BB00050E00E94C25B7B018C01642DED81FE81BF
:100BC00082810E94B10BE82FC70160E071E00E94B2
:100BD0008D5B6C01AE2EBB24B3E0AA0CBB1CBA9596
:100BE000E1F7C70160E071E00E948D5BCB010897DF
:100BF0002B813C8149815A816C2D8A0D9B1D6BC0D4
:100C0000C601B50120E038E040E050E00E94C25B40
:100C10005B016C01E12CA1E0FA2ECB0160E071E0F8
:100C20000E948D5B8C01622DED81FE8182810E948C
:100C3000B10BE01AF10A282E3324F3E0220C331C06
:100C4000FA95E1F7C50160E071E00E948D5BCB0190
:100C50000897970149815A81602F820D931D0E9448
:100C60004349ED81FE8186819781A085B185680E1B
:100C7000791E8A1E9B1E08946108710881089108DC
:100C8000C401B30120E038E040E050E00E94C25BC4
:100C9000DC01CB0160E071E00E948D5B8B01642D73
:100CA000ED81FE8182810E94B10B2B813C812E1946
:100CB0003F093C832B83E981FA81EE0EFF1E9927C1
:100CC000E3E0880F991FEA95E1F708501040A7016B
:100CD00060E0800F911F0E94434980E090E02696DB
:100CE0000FB6F894DEBF0FBECDBFDF91CF911F913D
:100CF0000F91FF90EF90DF90CF90BF90AF909F90BB
:100D00008F907F906F905F904F903F902F900895BD
:100D1000CF93DF93C0E0D0E0CE010E9468081816A0
:100D200019061CF4CE010E9480082196C136D10517
:100D300099F7DF91CF9108950E947F0F08950E9447
:100D40006B1008950E940A032FEF8F3F920719F44A
:100D50008FEF9FEF08950E94750980E090E008955D
:100D6000EF92FF920F931F93CF93DF93CDB7DEB730
:100D700022970FB6F894DEBF0FBECDBF7C01BE0137
:100D80006F5F7F4F0E94570E8C018FEF0F3F180748
:100D900069F089819A81892B49F4C7010E9447082B
:100DA000B8010E94CC0D80E090E002C08FEF9FEF71
:100DB00022960FB6F894DEBF0FBECDBFDF91CF9164
:100DC0001F910F91FF90EF900895FC018181992769
:100DD0000E945E010895AF92BF92CF92DF92EF9290
:100DE000FF920F931F93CF93DF93CDB7DEB7229778
:100DF0000FB6F894DEBF0FBECDBF5C018B01BE0104
:100E00006F5F7F4F0E94570E6C01C8010E941E0841
:100E10007C01892BA1F12FEFC2162FEFD20679F1B9
:100E200089819A810097A1F432E0E316F10439F543
:100E3000C5010E944708B6010E949E0DF82E0E942F
:100E400037018C0142E050E0BC018F2D992708C08A
:100E50000297A9F40E9437018C01A701BC01C601C9
:100E60000E94D30C8AE090E09C01029FC001039F86
:100E7000900D129F900D11248A539B4F02C080E069
:100E800090E022960FB6F894DEBF0FBECDBFDF9183
:100E9000CF911F910F91FF90EF90DF90CF90BF9077
:100EA000AF900895FB01BA0135E0880F991F3A957C
:100EB000E1F7422F8E0F9F1F0E9455390895FB01C5
:100EC000BA0145E0880F991F4A95E1F7A9018E0FF5
:100ED0009F1F0E9458390895FB01BA0155E0880F01
:100EE000991F5A95E1F7A9018E0F9F1F0E946A3939
:100EF0000895FB0165E0880F991F6A95E1F7BA0133
:100F0000A9018E0F9F1F0E9430390895FB0175E0E3
:100F1000880F991F7A95E1F7BA01A9018E0F9F1FDB
:100F20000E94303908959B01E5E0880F991FEA95EA
:100F3000E1F7BA01820F931F0E94333908959B0194
:100F4000F5E0880F991FFA95E1F7BA01820F931F18
:100F50000E94363908959B01A5E0880F991FAA9534
:100F6000E1F7642F820F931F0E94393908959B0186
:100F7000B5E0880F991FBA95E1F7642F820F931F90
:100F80000E943C39089525E0880F991F2A95E1F7C2
:100F9000860F971F0E943F39089535E0880F991FEB
:100FA0003A95E1F7860F971F0E944239089545E070
:100FB000880F991F4A95E1F7860F971F0E944539C0
:100FC000089555E0880F991F5A95E1F7860F971FEE
:100FD0000E9448390895E5E0880F991FEA95E1F7E6
:100FE000860F971F0E944B39992787FD909508958A
:100FF000F5E0880F991FFA95E1F7860F971F0E9479
:10100000513999270895FC0180818F3209F4319676
:10101000DB0102C09D9331969081892F81568A31E0
:10102000C8F3805E8A31B0F39F35A1F39E3291F30D
:101030008F5E8A3078F31C92CF010895CF93DF93AF
:10104000EC010E940D510197A9F48881823719F4AF
:1010500081E090E019C0873719F482E090E014C075
:10106000813619F483E090E00FC0843759F484E0AE
:1010700090E00AC0CE010E940D51029719F485E05C
:1010800090E002C080E090E0DF91CF910895CF938F
:10109000DF93EC010E940D51FE01E80FF91F31971B
:1010A0009E0101C0319780818F3221F0E217F30752
:1010B000C9F703C0EC17FD0729F488818F3211F0BE
:1010C000CE0102C0CF010196DF91CF91089508951E
:1010D000FF920F931F938C016DE070E00E94F80760
:1010E000F82E6CE070E0C8010E94F807FF2019F4A8
:1010F00080E090E001C099271F910F91FF90089523
:10110000EF92FF920F931F93CF93DF93CDB7DEB78C
:101110002D970FB6F894DEBF0FBECDBF7C011D86A4
:101120009E012F5F3F4F4CE050E060E070E00E9476
:101130006C076CE070E0C7010E94F807182F6DE0A3
:1011400070E0C7010E94F8078823E1F01130C1F474
:101150000EE010E0B801C7010E94F8070F5F1F4FB3
:1011600008311105B9F70EC00EE010E0B801C70153
:101170000E94F8070F5F1F4F06311105B9F702C033
:10118000123091F36CE170E0C7010E94F8076FE143
:1011900070E0C7010E94F8072D960FB6F894DEBFE5
:1011A0000FBECDBFDF91CF911F910F91FF90EF90B8
:1011B0000895CF92DF92EF92FF920F931F93CF93F8
:1011C000DF93CDB7DEB72D970FB6F894DEBF0FBE15
:1011D000CDBF6B01E82EFF246DE070E0C7010E94D7
:1011E000F807882339F18E010F5F1F4F98014CE0FB
:1011F00050E060E070E0C7010E946C071D86C801E6
:101200000E940D51F82E00E010E00EC0B601CE0194
:101210000196820F911D0E94CD500F5F1F4F892BA9
:1012200019F481E090E008C0202F8F2D992708172E
:10123000190761F780E090E02D960FB6F894DEBFB5
:101240000FBECDBFDF91CF911F910F91FF90EF9017
:10125000DF90CF900895EF92FF920F931F93CF935B
:10126000DF93EB018C0123E0000F111F2A95E1F7BA
:1012700093E0CC0FDD1F9A95E1F788E0E82EF12C82
:10128000085010402897BE01C8010E94592C0894AC
:10129000E108F10821960F5F1F4FE114F10499F75F
:1012A000DF91CF911F910F91FF90EF900895EF92F2
:1012B000FF920F931F93CF93DF937C018B01C0E0CC
:1012C000D0E0BE01C7010E94F807482FBE01C80147
:1012D0000E94B7072196C032D10599F7DF91CF91CF
:1012E0001F910F91FF90EF900895BF92CF92DF92E0
:1012F000EF92FF920F931F93CF93DF93EC016CE07B
:1013000070E00E94F807182F6FE170E0CE010E9494
:10131000F807B82E1130B1F500E010E0B801625FB7
:101320007F4FCE010E94F807882319F099270E9469
:1013300075090F5F1F4F0A30110581F740E06DE01E
:1013400070E0CE010E94B707209719F4BB2009F482
:10135000B2C000E010E03EE0C32ED12CC00ED11E82
:10136000EB2CFF24B601C7010E94F80799278C17C0
:101370009D0709F47AC00F5F1F4F0A30110509F469
:101380009AC0E9CF123009F052C040E06DE070E041
:10139000CE010E94B707209711F4BB20B9F00EE0F0
:1013A00010E0EB2CFF24B801C7010E94F807992731
:1013B0008C179D0731F440E0B801C7010E94B707C0
:1013C00005C00F5F1F4F0831110559F70EE010E0FF
:1013D000B801CE010E94F807882341F099270E94A6
:1013E000760F0F5F1F4F0631110591F7FC2E68E154
:1013F00070E08F2D99270E94F807F82E882309F4B2
:101400005AC0C82EDD24C6010E9462100EE010E012
:10141000B801C6010E94F807882349F399270E9462
:10142000760F0F5F1F4F0631110509F3F1CF13300F
:1014300029F540E06DE070E0CE010E94B7072097EB
:1014400011F4BB20C1F10EE010E0EB2CFF24B80139
:10145000C7010E94F80799278C179D0749F00F5F75
:101460001F4F0831110539F1F0CF40E0B60102C03D
:1014700040E0B801C7010E94B7071DC01430D9F47D
:1014800040E06DE070E0CE010E94B707209711F4B4
:10149000BB2089F00EE010E0EB2CFF24B801C7015F
:1014A0000E94F80799278C179D0711F30F5F1F4FB4
:1014B0000831110589F7CE010E946210DF91CF91AA
:1014C0001F910F91FF90EF90DF90CF90BF90089504
:1014D0000E944A0F0E9436100895CF93DF93C0E018
:1014E000D0E020E040E250E060E070E0CE010E94F9
:1014F00052072196C132D105A1F70E944A0F0E94DE
:101500003610DF91CF910895DF92EF92FF920F9303
:101510001F93CF93DF93EC017B01142FD22ECB01CD
:101520000E940D518C3008F48F5F013051F4482F28
:101530005527970160E070E0CE010E945F0741E00F
:1015400029C0023051F4482F5527970160E070E020
:10155000CE010E945F0742E01DC0033081F4482F96
:101560005527970160E070E0CE010E945F0743E0DD
:1015700011C04C2FB801C7010E94B70745C0043005
:1015800079F5482F5527970160E070E0CE010E9461
:101590005F0744E06CE070E0CE010E94B70741E0D5
:1015A0006DE070E0CE010E94B70720E04EE050E011
:1015B0006EE070E0CE010E945207412F6CE170E0B6
:1015C000CE010E94B70740E050E06DE170E0CE012F
:1015D0000E949F074D2D6FE170E0CE010E94B7077A
:1015E000209711F4DD2081F00EE010E0ED2CFF24B7
:1015F000B801C7010E94F807882309F4BACF0F5F2A
:101600001F4F0831110591F7DF91CF911F910F9175
:10161000FF90EF90DF9008954F925F927F928F92AC
:101620009F92AF92BF92CF92DF92EF92FF920F9371
:101630001F93782E6B015A01490128010E943E1028
:10164000E82EFF2403E0272D40E0B601C7010E94E9
:10165000840AA5016EE070E0C7010E949F07A40103
:1016600060E170E0C7010E949307A20162E170E0AF
:10167000C7010E949F071F910F91FF90EF90DF908D
:10168000CF90BF90AF909F908F907F905F904F9042
:101690000895AF92BF92CF92DF92EF92FF920F9395
:1016A0001F930E943E107C0101E020E040E060E0DA
:1016B00071E099270E94840A0E94C7265C010E945B
:1016C000CA268C0195014FE654E364E071E08E2D4B
:1016D0000E940C0B95014FE257E268E071E08E2DFD
:1016E0000E940C0B950146E357E26EE071E08E2DEF
:1016F0000E940C0B95014BE457E263E171E08E2DE3
:101700000E940C0B95014DE357E26AE171E08E2DCA
:101710000E940C0B950147E658E060E271E08E2DC7
:101720000E940C0B1F910F91FF90EF90DF90CF90D4
:10173000BF90AF9008950F9301E020E040E066E293
:1017400071E080E090E00E94840A0F9108958091FA
:10175000B2019091B30108959093B3018093B201C7
:1017600008951F93162F05C068E170E00E94F807E6
:10177000185099271830C0F7612F7727625F7F4F85
:101780000E94F80799271F9108950F931F93CF93F5
:10179000DF938C01CEE0D0E0BE01C8010E94F807C3
:1017A000882319F081E090E006C02196C831D10568
:1017B00099F780E090E0DF91CF911F910F9108950C
:1017C0006FE170E00E94F80799270895EF92FF9269
:1017D0000F931F93CF93DF937B01EC0100E010E0A8
:1017E000B801C7010E94F8078883882331F0219649
:1017F0000F5F1F4F0C30110599F71882DF91CF91C1
:101800001F910F91FF90EF9008950F931F93CF9327
:10181000DF938C01CEE0D0E0BE01C8010E94F80742
:10182000882319F480E090E006C02196C831D105E4
:1018300099F781E090E0DF91CF911F910F9108958A
:10184000CF92DF92EF92FF920F931F93CF93DF938C
:10185000C82ED62EC0E0D0E08EE0E82EF12CEC0EA3
:10186000FD1E0C2D1127B701C8010E94F8078D1528
:1018700031F440E0B701C8010E94B70704C02196C7
:10188000CA30D10549F7DF91CF911F910F91FF9099
:10189000EF90DF90CF900895CF92DF92EF92FF927A
:1018A0000F931F93CF93DF93D82EC62EC0E0D0E0C6
:1018B0009EE0E92EF12CEC0EFD1E0D2D1127B70137
:1018C000C8010E94F807882331F44C2DB701C801E4
:1018D0000E94B70704C02196CA30D10549F7DF91AD
:1018E000CF911F910F91FF90EF90DF90CF900895CF
:1018F000DF92EF92FF920F931F93CF93DF93D82E37
:10190000C0E0D0E0ED2CFF248E01025F1F4FB80134
:10191000C7010E94F807882329F02196C830D10515
:1019200039F0F0CF0E94520F482FB801C70118C0FC
:1019300068E170E0C7010E94F807D82E882301F7FC
:101940000E943E10182F482F68E170E0C7010E94E6
:10195000B7070E94520F482F6EE070E0812F992741
:101960000E94B707DF91CF911F910F91FF90EF90E9
:10197000DF9008950F931F93CF93DF938C01CEE0F8
:10198000D0E0BE01C8010E94F807882339F09927EA
:101990000E94760F2196C631D10599F7DF91CF913C
:1019A0001F910F910895CF92DF92EF92FF920F93C4
:1019B0001F93CF93DF937C016B018A018AE090E053
:1019C000689FE001699FD00D789FD00D1124CA5304
:1019D000DB4FEA824B836DE170E0C7010E94E107B3
:1019E0009D838C830130110529F41E821F82188685
:1019F000198618C00230110581F00330110539F441
:101A0000AA27BB278E839F83A887B9871DC0043070
:101A1000110541F4C7010E94BA0C1E821F8218866C
:101A2000198612C00530110579F48AE090E0C89E4D
:101A3000F001C99EF00DD89EF00D1124EA53FB4F22
:101A40001682178210861186DF91CF911F910F9118
:101A5000FF90EF90DF90CF9008950E94680820E0FB
:101A600030E0019711F421E030E0C9010895CF92F0
:101A7000DF92EF92FF921F93CF93DF93EC016B0104
:101A80000E940D510D97D4F4C6010E946808892B5D
:101A9000A9F0EE24FF241881B701C6010E94F807BF
:101AA000181761F48881882361F00894E11CF11C07
:101AB00021968CE0E816F10421F0EDCF81E090E072
:101AC00002C080E090E0DF91CF911F91FF90EF90F6
:101AD000DF90CF900895AF92BF92CF92DF92FF92A6
:101AE0000F931F93CF93DF935C016B010EE010E027
:101AF000B801C6010E94F807F82EC82FDD27BE01E5
:101B0000C5010E94370D892B39F4CE010E94680867
:101B1000882311F0FF2039F40F5F1F4F08311105A2
:101B200039F7C0E0D0E0CE01DF91CF911F910F9146
:101B3000FF90DF90CF90BF90AF900895CF92DF924B
:101B4000EF92FF920F93CF93DF936C01EB010E9412
:101B50006B0D181619061CF4EE24FF2414C0CE01D8
:101B60000E94050C813021F42FEFE22EF12C0BC0E6
:101B70000E943E10E82EFF2402E02C2F40E0B60128
:101B8000C7010E94840AC701DF91CF910F91FF9096
:101B9000EF90DF90CF900895CF92DF92EF92FF9277
:101BA0000F93CF93DF936C01EB010E946B0D18161E
:101BB00019061CF4EE24FF2414C0CE010E94050C6B
:101BC000813021F43FEFE32EF12C0BC00E943E1038
:101BD000E82EFF2401E02C2F40E0B601C7010E944F
:101BE000840AC701DF91CF910F91FF90EF90DF90B2
:101BF000CF900895AF92BF92CF92DF92FF920F9352
:101C00001F93CF93DF935C016B010EE010E0B801EE
:101C1000C6010E94F807F82EC82FDD27BE01C501B6
:101C20000E94370D892B49F4CE010E946808882351
:101C300021F0FF2011F0992707C00F5F1F4F0831D7
:101C4000110529F780E090E0DF91CF911F910F916E
:101C5000FF90DF90CF90BF90AF900895CF92DF922A
:101C6000EF92FF920F931F93CF93DF936C017B0151
:101C70000EE010E0B801C7010E94F807C82FDD2769
:101C8000BE01C6010E94370D892B39F00F5F1F4F2F
:101C90000831110579F7CFEFDFEFCE01DF91CF915A
:101CA0001F910F91FF90EF90DF90CF9008958F924A
:101CB0009F92AF92BF92CF92DF92EF92FF920F93DB
:101CC0001F93CF93DF93CDB7DEB72D970FB6F89460
:101CD000DEBF0FBECDBF6C014B01FC0191917F01B6
:101CE000F60181810091B2011091B3019E3279F425
:101CF0008E3251F4C8010E94E00B8C0142E0E42EC8
:101D0000F12CEC0CFD1C35C08F3291F532C09F32A6
:101D100021F4760100E010E02CC0892F81568A3131
:101D200018F091549A3120F55E010894A11CB11C61
:101D3000B501C6010E9403087C01892B61F4B8013A
:101D4000C5010E94FA0D009779F0F4019183808318
:101D5000B801C5012BC0B801C5010E94FA0D892B3D
:101D6000A9F1B801C5012EC0F4011182108230C062
:101D70007601C8010E942D0D892B41F16E01089456
:101D8000C11CD11CB601C7010E9403087C01FC01E3
:101D90008081882379F4B801C6010E94FA0D00976A
:101DA00019F3F40191838083B801C6010E942E0EBD
:101DB0008C010EC0B801C6010E94FA0D892B31F0CA
:101DC000B801C6010E942E0E8C01D3CF0FEF1FEF7A
:101DD000C8012D960FB6F894DEBF0FBECDBFDF91C0
:101DE000CF911F910F91FF90EF90DF90CF90BF9018
:101DF000AF909F908F9008950F931F93FC018B01DC
:101E0000CB0168E070E00E948D5BE60FF71F208138
:101E1000332727FD3095C80168E070E00E948D5B94
:101E200002C0359527958A95E2F7C90181709070B7
:101E30001F910F910895CF93DF93EC01FB019A015D
:101E4000CB0168E070E00E948D5BC60FD71F488110
:101E5000232B71F0CF0168E070E00E948D5B21E0E0
:101E600030E002C0220F331F8A95E2F7422B0EC0EA
:101E7000CF0168E070E00E948D5B21E030E002C09D
:101E8000220F331F8A95E2F7209542234883DF9182
:101E9000CF910895E4EBF1E0119281E0E43DF80781
:101EA000D9F708950F931F93CF93DF93C0E0D0E04D
:101EB000BE0184EB91E00E94FC0E8E010F5F1F4F6C
:101EC000892B49F441E050E0BE0184EB91E00E948F
:101ED0001B0FC80106C0E8010050114049F78FEF01
:101EE0009FEFDF91CF911F910F910895019740E0EF
:101EF00050E0BC0184EB91E00E941B0F08950F930A
:101F00001F93CF93DF9300E010E0C0E0D0E0BE016C
:101F100084EB91E00E94FC0E019711F40F5F1F4FBC
:101F2000219681E0C030D80791F780E091E0801BD6
:101F3000910BDF91CF911F910F91089508950F9309
:101F40001F93CF93DF9380E090E0EC0121966DE04A
:101F500070E0CE010E94F807182F6CE070E0CE010F
:101F60000E94F8071130C9F48230B9F40EE010E095
:101F7000B801CE010E94F807882351F0682F772717
:101F80006150704041E050E084EB91E00E941B0FF3
:101F90000F5F1F4F0631110559F7CE01C036D1052D
:101FA000A1F6DF91CF911F910F91089544EB51E07D
:101FB00060E270E08EE49CE00E946A39089544EB90
:101FC00051E060E270E08EE49CE00E945839089590
:101FD0000F931F93FC018B01CB0168E070E00E941E
:101FE0008D5BE60FF71F2081332727FD3095C80151
:101FF00068E070E00E948D5B02C0359527958A9558
:10200000E2F7C901817090701F910F910895CF93ED
:10201000DF93EC01FB019A01CB0168E070E00E94C4
:102020008D5BC60FD71F4881232B71F0CF0168E06D
:1020300070E00E948D5B21E030E002C0220F331F70
:102040008A95E2F7422B0EC0CF0168E070E00E9453
:102050008D5B21E030E002C0220F331F8A95E2F74A
:10206000209542234883DF91CF910895EEEEF4E06E
:10207000119284E0EA3FF807D9F708950F931F9370
:10208000CF93DF93C0E0D0E0BE018EEE94E00E94DB
:10209000E80F8E010F5F1F4F892B49F441E050E09C
:1020A000BE018EEE94E00E940710C80106C0E80150
:1020B0000036110549F78FEF9FEFDF91CF911F9108
:1020C0000F910895019740E050E0BC018EEE94E03E
:1020D0000E94071008950F931F93CF93DF93C0E0E2
:1020E000D0E000E010E0BE018EEE94E00E94E80F28
:1020F000019711F40F5F1F4F2196C036D10599F754
:1021000080E690E0801B910BDF91CF911F910F91A2
:1021100008950F931F93CF93DF93C0E0D0E08E011B
:102120000F5F1F4F6DE070E0C8010E94F807882321
:1021300019F440E050E002C041E050E0BE018EEEF4
:1021400094E00E940710E8010036110541F7DF9185
:10215000CF911F910F9108954EEE54E06CE070E026
:1021600082E49CE00E94583908954EEE54E06CE001
:1021700070E082E49CE00E946A39089581E090E07A
:1021800008951F930E944F30182F0E940331682F2B
:10219000812F0E94935199271F9108950E94BF514A
:1021A000982F8091FA04882309F074C01092FA04E1
:1021B0008BE0809318058FE18093FB04892F0E94A8
:1021C000BC510E94C11080E098EF9093FD04809371
:1021D000FC0482EE92E09093FF048093FE0480E082
:1021E00095E0909301058093000580E890EE909330
:1021F0000305809302058FE097EA9093050580938D
:1022000004058091FB049927806E906690930705E2
:102210008093060585EE92E1909309058093080569
:1022200086E59AE090930B0580930A058091180546
:1022300025E0829FC0011124825D9E4F906490939F
:102240000D0580930C0584EC91E090930F0580932D
:102250000E051092110510921005109213051092A0
:1022600012058FE792E09093150580931405109264
:102270001705109216050E94BF5192E09093FA0440
:102280000E94BC5165E086EC92E10E945B4981E0CE
:1022900090E008951092FA048BE0809318058FE186
:1022A0008093FB04892F0E94BC5180E090E0089548
:1022B0000E94782F08950E94E52F99270895CF93C3
:1022C000DF93CDB7DEB722970FB6F894DEBF0FBE0F
:1022D000CDBF9A8389830E9477509A838983AE0108
:1022E0004F5F5F4F62E08AE691E00E945B119927A1
:1022F00022960FB6F894DEBF0FBECDBFDF91CF910F
:1023000008950E94F615992708950E94EC309927A8
:1023100008950E94B92F9927089560E070E08DE13B
:102320000E94891165E080E692E10E945B4980E0AD
:1023300090E008950E94A32F992708956091FC04CE
:102340007091FD0480E10E9489116091FE047091FA
:10235000FF0481E10E94891181E10E9458112091BE
:10236000FE043091FF048217930719F080E090E09B
:102370000895609100057091010582E10E94891124
:10238000609102057091030583E10E9489116091BB
:1023900004057091050584E10E948911609106058C
:1023A0007091070585E10E9489116091080570917F
:1023B000090586E10E94891160910A0570910B055B
:1023C00087E10E94891160910C0570910D0588E1EB
:1023D0000E94891160910E0570910F0589E10E949C
:1023E000891160911005709111058AE10E9489118F
:1023F00060911405709115058CE10E94891160911E
:102400001605709117058DE10E94891189E00E94DF
:102410009A1188E00E949A1181E090E0089520913D
:10242000060530910705207E99278F719070282B23
:10243000392B309307052093060560910C057091A8
:102440000D0585E10E94891186FF03C083E00E948B
:102450009A1181E090E00895CF93DF93CDB7DEB776
:1024600022970FB6F894DEBF0FBECDBF842F952FF5
:102470009A83898389819A810E940F1222960FB6CE
:10248000F894DEBF0FBECDBFDF91CF91089560916C
:102490000C0570910D0560707C7F80509840682B12
:1024A000792B70930D0560930C0588E10E948911CA
:1024B00086FF03C083E00E949A1181E090E00895B6
:1024C0000E949E1180911F0A9091200A0E945F1124
:1024D00080910C0590910D0591708050984F0E944D
:1024E00047120E94BF5194E09093FA040E94BC519D
:1024F0000E9481110895CF93DF93CDB7DEB7229765
:102500000FB6F894DEBF0FBECDBF842F952F9A83F0
:10251000898389819A810E94471222960FB6F89486
:10252000DEBF0FBECDBFDF91CF91089595E0899FAB
:10253000C0011124825D964F0E94471281E090E015
:102540000895CF93DF93CDB7DEB722970FB6F894F7
:10255000DEBF0FBECDBF842F952F9A8389838981DB
:102560009A810E94961222960FB6F894DEBF0FBE93
:10257000CDBFDF91CF91089583E00E949A1181E051
:1025800090E008950E94F315992708950E94C212C1
:1025900008950E946E3588E592E00E94DE3481E065
:1025A00090E008950E946C3588E592E00E94DE3448
:1025B00081E090E008950E94B12E9927089568E186
:1025C00070E08DE10E94891181E00E94DB1281E0C0
:1025D0000E949A1181E090E008950E94BF51982FC7
:1025E0008091FA048230B1F483E08093FA04892F59
:1025F0000E94BC510E9485110E94D2120E945C353B
:102600000E9412160E945A350E9412160E94DF1272
:1026100099270895892F0E94BC5180E090E0089589
:1026200081E090E0089581E090E0089581E090E0FD
:10263000089581E090E0089582E0809397050895E1
:102640000F931F930E94BF51082F809197058823F5
:1026500061F465E080EC95E10E945B49882329F0F4
:1026600081E08093970511E001C010E0802F0E9467
:10267000BC51812F99271F910F9108950E946E2EB2
:10268000992708950E942239992708950E94BF51E1
:1026900092E0909397050E94BC51E0919505F091CE
:1026A000960580818B50808360E0809195059091A4
:1026B00096050E94421308950F931F930E94BF51E5
:1026C00092E0909397050091950510919605F80179
:1026D00090819B5090830E94BC5161E0C8010E9490
:1026E00042131F910F9108950E945A2D9927089522
:1026F0000E94C43808950F931F93CF93DF930E94D5
:10270000BF510091190510911A050E94BC51C801D2
:102710000E947813EC010E94BF51209721F0D093C2
:102720001A05C0931905E0911905F0911A05108258
:1027300010921C050E94BC51DF91CF911F910F9107
:1027400008950E94572E992708950E94782F089582
:102750000E94BC12992708950E94EE2E9927089591
:102760001F93CF93DF93EC010E94BF511091970507
:102770000E94BC51123019F080E090E040C088E027
:102780008A8380919105882311F081E201C081E064
:1027900089838FEF9FEF9D838C838E819F810E9421
:1027A00077509F838E838881855F888380911B0506
:1027B0008F5F80931B058B83CE58DF4F1982188261
:1027C000C257D0408881825080939805D093960557
:1027D000C093950588E0809392050E94BF5195E0D3
:1027E000909397050E94BC5165E08EE095E10E94B0
:1027F0005B49882311F40E94461381E090E0DF9149
:10280000CF911F9108950E94C72D992708950E9486
:10281000A32F992708950E94A1138FE30E94A51367
:1028200088E00E94071488E00E9407140E94BF51AC
:1028300010921C050E94BC5180E00E94AC130895C8
:102840001F930E94D735892B21F40E948235892B52
:1028500091F10E94BF51182F80911C05882351F0DF
:1028600065E08FE594E10E945B49882399F40E941A
:102870000B1410C081E080931C05812F0E94BC5175
:102880006091190570911A0580E70E9474138823DE
:1028900091F404C0812F0E94BC510DC00E94BF5111
:1028A00010921C050E94BC5165E08FE594E10E94E6
:1028B0005B49882311F40E940B141F9108950E9414
:1028C00020140895FF920F931F93CF93DF93F82E58
:1028D0008B010E94BF510E94BC510E94D735892BA9
:1028E00021F40E948235892BE1F0FF20D1F080E7AE
:1028F0008F15B8F010931A0500931905E801898126
:102900008770813071F48A81883059F4F8018081B0
:102910008B508083C0911905D0911A058881853626
:1029200048F00E940B140E94BF5110921C050E9497
:10293000BC514EC08E819F810E9496509F838E8392
:10294000D801AF0DB11D9D0121503040E091190516
:10295000F0911A05E059FF4FE9018881881F882707
:10296000881F8083E0911905F0911A05E259FF4F05
:1029700012978C918083E0911905F0911A05E15925
:10298000FF4F88818F7780830E94BF51182F65E0A9
:102990008BE793E10E945B49882311F410921C0598
:1029A000812F0E94BC510E94D735892B21F40E94AF
:1029B0008235892B59F00E948235892B39F465E0E4
:1029C0008FE594E10E945B49882311F40E940B1467
:1029D00081E090E0DF91CF911F910F91FF900895DA
:1029E0001F930E94D735892B19F40E940B1412C033
:1029F0000E94BF51182F65E08FE594E10E945B496A
:102A0000882319F00E94A11302C00E940B14812F89
:102A10000E94BC5181E090E01F91089589E00E94DE
:102A20000714882319F40E944613089560919505B0
:102A300070919605809198058F5F0E9403148823FA
:102A400011F40E94461308950E948A2E9927089532
:102A5000CF93DF93EC0180919705833019F0843098
:102A600059F519C080E00E9424150E94B835892BC1
:102A700019F40E943E1303C084E080939705E0910F
:102A80009505F0919605EE58FF4FD183C083809154
:102A90009705843089F086E0809397050E943E1365
:102AA00081E00E94241565E08CE593E10E945B497A
:102AB000882311F40E94461381E090E0DF91CF91CA
:102AC000089585E00E94071480E00E94071486950F
:102AD0008695869580FF04C081E00E9424150895A4
:102AE0000E94461308951F930E94BF5110919705AD
:102AF0000E94BC511530C1F40E94D735892B31F4A6
:102B00000E948235892B11F40E940B140E94E83533
:102B1000892B61F00E94BF5193E0909397050E942A
:102B2000BC510E94611502C00E940B141F910895B0
:102B30000E94731581E090E008950E94ED1299279C
:102B400008951F930E94BF51109197050E94BC5198
:102B5000112319F080E090E011C00E94BF519AE06B
:102B60009093970510929205E0911905F0911A053E
:102B700010820E94BC510E949D1599271F910895B3
:102B80000E94BF51982F80919705813041F4109297
:102B90009705892F0E94BC510E94A1150895892F85
:102BA0000E94BC5108950E94BF5110929705109247
:102BB0001B051092910510921C052DE135E0309314
:102BC0001A052093190510921D050E94BC51809191
:102BD0001F0A9091200A90939405809393050E9478
:102BE000CE109927089581E090E008951F930E94E8
:102BF000BF51109197050E94BC511A3079F40E9480
:102C0000A81380E00E94AC1381E00E9424150E946A
:102C1000BF5192E0909397050E94BC5181E090E0F3
:102C20001F910895000000000895889508957894F4
:102C30000895F89408958FB7F894992708958FBF51
:102C40000895E0E0F0E009950895789488950000F3
:102C500000000895EAE8F0E080818160808380814F
:102C600088608083EDE7F0E080818061808380E58B
:102C700093EC909387008093860010929A051092AF
:102C800099058091990590919A059093A00580935C
:102C90009F0510928900109288000895EAE8F0E0FC
:102CA00080818E7F808308958091990590919A0507
:102CB0000895CF93DF932FB7F894C0918800D091F7
:102CC0008900CE0190708E5F9040029710F4C05042
:102CD000D140C230D10538F460919F057091A005B4
:102CE0006F5F7F4F04C060919F057091A0052FBF5B
:102CF0008827992720E533EC40E050E00E945A5B9A
:102D00009B01AC01BE0188279927620F731F841FA6
:102D1000951FDF91CF91089582B79927089581B7C4
:102D20009927089581BF08951F920F920FB60F92B1
:102D300011242F933F934F935F936F937F938F93C0
:102D40009F93AF93BF93EF93FF930E941B16282F7F
:102D500080919F059091A00501969093A005809386
:102D60009F0580919F059091A0058055934C69F433
:102D70008091990590919A05019690939A05809378
:102D800099051092A00510929F05822F0E941F1690
:102D9000FF91EF91BF91AF919F918F917F916F9133
:102DA0005F914F913F912F910F900FBE0F901F9009
:102DB00018950F931F93082F162F17700E94BF515D
:102DC00097B79E7F97BF97B79D7F97BF90B7986043
:102DD00090BF186013BF12BE01BF97B7926097BF34
:102DE0000E94BC5181E090E01F910F9108950E94D4
:102DF00077249927089578941F920F920FB60F9217
:102E000011240F931F932F933F934F935F936F93CF
:102E10007F938F939F93AF93BF93EF93FF930E9402
:102E2000BF51182F0E94394C882311F400E00DC0C7
:102E30008DB79EB790939C0C80939B0C8091620BF6
:102E40009091630B9EBF8DBF01E0812F0E94BC510A
:102E50000E94BF51982F80919D05882369F0809131
:102E60009C0580939B05886080939C0583BF80911F
:102E70009E0581BF10929D05892F0E94BC510E9422
:102E8000F7160E94BF51282F013061F48DB79EB70D
:102E90009093630B8093620B80919B0C90919C0CA0
:102EA0009EBF8DBF822F0E94BC51FF91EF91BF91B9
:102EB000AF919F918F917F916F915F914F913F91D2
:102EC0002F911F910F910F900FBE0F901F9018958B
:102ED000AF92BF92CF92DF92EF92FF920F930E9438
:102EE000EF370E94D9260E944F490E940A500E9443
:102EF00017160E9447488A30D1F50E94594890938E
:102F0000200A80931F0A0E944F5B41E25AE060E171
:102F100070E080E29CE00E946A394EE05AE060E195
:102F200070E085E39CE00E946A3980911F0A9091CD
:102F3000200A9093D9038093D8031092310A1092FB
:102F40001E0A0E945D340E942B340E94F9330E94B5
:102F500049020E949B0B0E94490B0E945D340E9413
:102F60002B340E94F9338AE00E9453487BC00E94B0
:102F700047488B3079F50E9459489093200A8093F6
:102F80001F0A0E944F5B41E25AE060E170E080E27C
:102F90009CE00E946A394EE05AE060E170E085E30F
:102FA0009CE00E946A3980911F0A9091200A9093B8
:102FB000D9038093D8031092310A10921E0A0E94FE
:102FC0005D340E942B340E94F9330E94D60F0E9478
:102FD000AC1042C00E945D340E942B340E94F93331
:102FE00045E063E471E081E29AE00E94BF5046E070
:102FF00069E471E08EE09AE00E94BF5081E090E0C9
:103000009093200A80931F0A9093D9038093D8034A
:103010000E944F5B0E9449020E949B0B0E94490B39
:1030200041E25AE060E170E080E29CE00E945839A1
:103030004EE05AE060E170E085E39CE00E94583980
:103040008091D8039091D9030E945E488AE00E9443
:1030500053488FE00E944D480E945D340E942B34FB
:103060000E94F93380E591E00E94374B0E94C947E6
:103070000E9465000E9409390E9403390E94DA49C2
:103080000E9467480E947D390E94CA510E94D84719
:103090000E9441480E9496128FE10E940F12AA24BA
:1030A000BB24CC24DD2491E6E92E91E0F92E0FE03B
:1030B00020E030E04DE857E06FE876E080E796E406
:1030C0000E942D4F8AE6E82E81E0F82E20E030E0C5
:1030D0004DE75DE067EB7CE085E394E50E942D4FD2
:1030E0006FE671E286EF9DE00E94184B0E948A4BCA
:1030F0006DE97AE38BEA9FEF0E94504B0E948A4B66
:1031000061E37EED8BE090E00E94504B0E948A4B81
:1031100080E791E00E94374B0E9417160E948E496B
:10312000FDCF0F931F938C01AC0160E170E080E252
:103130009CE00E945839A801405F5F4F6FE070E04B
:1031400085E39CE00E945839F801878D0E944D4824
:10315000F80180A199270E945E488AE00E945348A6
:1031600000E080E090E00E94374B0F5F0032C9F72B
:103170000E943E481F910F910895CF93DF93CDB7E2
:10318000DEB722970FB6F894DEBF0FBECDBF0E9408
:10319000BF5189830E947D4D8A8389810E94BC51E1
:1031A0006A8185E60E94E7510E94AD4C22960FB6D7
:1031B000F894DEBF0FBECDBFDF91CF910895CF93BE
:1031C000DF93CDB7DEB722970FB6F894DEBF0FBE00
:1031D000CDBF0E94BF5189830E947D4D8A83898122
:1031E0000E94BC516A8186E60E94E7510E942B34FE
:1031F00022960FB6F894DEBF0FBECDBFDF91CF9100
:103200000895CF93DF93CDB7DEB722970FB6F8942A
:10321000DEBF0FBECDBF0E94BF5189830E947D4D8E
:103220008A8389810E94BC516A8187E60E94E751A6
:103230000E945D3422960FB6F894DEBF0FBECDBF5C
:10324000DF91CF910895CF93DF93CDB7DEB722976B
:103250000FB6F894DEBF0FBECDBF0E94774D9A83A4
:10326000898389819A81482F592F22960FB6F89425
:10327000DEBF0FBECDBFDF91CF910895CF93DF9317
:10328000CDB7DEB722970FB6F894DEBF0FBECDBF25
:103290000E94BF5189830E947D4D8A8389810E944B
:1032A000BC516A8188E60E94E7510E942319229648
:1032B0000FB6F894DEBF0FBECDBFDF91CF9108955A
:1032C000CF93DF93CDB7DEB722970FB6F894DEBF6A
:1032D0000FBECDBF0E94014A9A83898389819A815A
:1032E000482F592F22960FB6F894DEBF0FBECDBFE0
:1032F000DF91CF910895CF93DF93CDB7DEB72297BB
:103300000FB6F894DEBF0FBECDBF0E94BF518983B8
:103310000E947D4D8A8389810E94BC516A8189E621
:103320000E94E7510E94601922960FB6F894DEBF02
:103330000FBECDBFDF91CF910895CF93DF93CDB76F
:10334000DEB722970FB6F894DEBF0FBECDBF0E9446
:10335000BF5189830E947D4D8A8389810E94BC511F
:103360006A818AE60E94E7510E949C4A22960FB623
:10337000F894DEBF0FBECDBFDF91CF910895CF93FC
:10338000DF93CDB7DEB722970FB6F894DEBF0FBE3E
:10339000CDBF842F952F9A83898389819A810E943A
:1033A000084A22960FB6F894DEBF0FBECDBFDF915C
:1033B000CF910895CF93DF93CDB7DEB722970FB6A5
:1033C000F894DEBF0FBECDBF0E94BF5189830E941B
:1033D0007D4D8A8389810E94BC516A818BE60E945F
:1033E000E7510E94BF1922960FB6F894DEBF0FBEB8
:1033F000CDBFDF91CF910895CF93DF93CDB7DEB7E7
:1034000022970FB6F894DEBF0FBECDBF0E947D4D50
:103410009A83898389819A81482F592F22960FB6E2
:10342000F894DEBF0FBECDBFDF91CF910895CF934B
:10343000DF93CDB7DEB722970FB6F894DEBF0FBE8D
:10344000CDBF0E94BF5189830E947D4D8A838981AF
:103450000E94BC516A818CE60E94E7510E94FC19CF
:1034600022960FB6F894DEBF0FBECDBFDF91CF918D
:103470000895CF93DF93CDB7DEB722970FB6F894B8
:10348000DEBF0FBECDBF0E9473009A8389838981FE
:103490009A81482F592F22960FB6F894DEBF0FBE9F
:1034A000CDBFDF91CF910895CF93DF93CDB7DEB736
:1034B00022970FB6F894DEBF0FBECDBF0E94BF515A
:1034C00089830E947D4D8A8389810E94BC516A81D3
:1034D0008DE60E94E7510E94391A22960FB6F894A1
:1034E000DEBF0FBECDBFDF91CF910895CF93DF93A5
:1034F000CDB7DEB722970FB6F894DEBF0FBECDBFB3
:103500000E9476009A83898389819A81482F592F56
:1035100022960FB6F894DEBF0FBECDBFDF91CF91DC
:103520000895CF93DF93CDB7DEB722970FB6F89407
:10353000DEBF0FBECDBF0E94BF5189830E947D4D6B
:103540008A8389810E94BC516A818EE60E94E7517C
:103550000E94761A22960FB6F894DEBF0FBECDBF3A
:10356000DF91CF910895CF93DF93CDB7DEB7229748
:103570000FB6F894DEBF0FBECDBF0E9470009A83D5
:10358000898389819A81482F592F22960FB6F89402
:10359000DEBF0FBECDBFDF91CF910895CF93DF93F4
:1035A000CDB7DEB722970FB6F894DEBF0FBECDBF02
:1035B0000E94BF5189830E947D4D8A8389810E9428
:1035C000BC516A818FE60E94E7510E94B31A22968D
:1035D0000FB6F894DEBF0FBECDBFDF91CF91089537
:1035E000CF93DF93CDB7DEB722970FB6F894DEBF47
:1035F0000FBECDBF0E94BF5189830E947D4D8A833B
:1036000089810E94BC516A8180E70E94E7510E9433
:10361000DE0022960FB6F894DEBF0FBECDBFDF915D
:10362000CF910895CF93DF93CDB7DEB722970FB632
:10363000F894DEBF0FBECDBF0E94BF5189830E94A8
:103640007D4D8A8389810E94BC516A8181E70E94F5
:10365000E7510E94CE0022960FB6F894DEBF0FBE4F
:10366000CDBFDF91CF910895CF93DF93CDB7DEB774
:1036700022970FB6F894DEBF0FBECDBF0E94BF5198
:1036800089830E947D4D8A8389810E94BC516A8111
:1036900082E70E94E7510E94B20022960FB6F8948A
:1036A000DEBF0FBECDBFDF91CF910895CF93DF93E3
:1036B000CDB7DEB722970FB6F894DEBF0FBECDBFF1
:1036C0000E94BF5189830E947D4D8A8389810E9417
:1036D000BC516A8183E70E94E7510E9496002296BE
:1036E0000FB6F894DEBF0FBECDBFDF91CF91089526
:1036F000CF93DF93CDB7DEB722970FB6F894DEBF36
:103700000FBECDBF0E94BF5189830E947D4D8A8329
:1037100089810E94BC516A8184E70E94E7510E941E
:10372000790022960FB6F894DEBF0FBECDBFDF91B1
:10373000CF910895CF93DF93CDB7DEB722970FB621
:10374000F894DEBF0FBECDBF0E94BF5189830E9497
:103750007D4D8A8389810E94BC516A8185E70E94E0
:10376000E7510E94862722960FB6F894DEBF0FBE5F
:10377000CDBFDF91CF910895CF93DF93CDB7DEB763
:1037800022970FB6F894DEBF0FBECDBF0E94BF5187
:1037900089830E947D4D8A8389810E94BC516A8100
:1037A00086E70E94E7510E947D2722960FB6F89483
:1037B000DEBF0FBECDBFDF91CF910895CF93DF93D2
:1037C000CDB7DEB722970FB6F894DEBF0FBECDBFE0
:1037D0000E94BF5189830E947D4D8A8389810E9406
:1037E000BC516A8187E70E94E7510E9474272296A4
:1037F0000FB6F894DEBF0FBECDBFDF91CF91089515
:10380000CF93DF93CDB7DEB722970FB6F894DEBF24
:103810000FBECDBF0E94BF5189830E947D4D8A8318
:1038200089810E94BC516A8188E70E94E7510E9409
:103830006B2722960FB6F894DEBF0FBECDBFDF9187
:10384000CF910895CF93DF93CDB7DEB722970FB610
:10385000F894DEBF0FBECDBF0E94BF5189830E9486
:103860007D4D8A8389810E94BC516A8189E70E94CB
:10387000E7510E94622722960FB6F894DEBF0FBE72
:10388000CDBFDF91CF910895CF93DF93CDB7DEB752
:1038900022970FB6F894DEBF0FBECDBF0E94BF5176
:1038A00089830E947D4D8A8389810E94BC516A81EF
:1038B0008AE70E94E7510E94592722960FB6F89492
:1038C000DEBF0FBECDBFDF91CF910895CF93DF93C1
:1038D000CDB7DEB724970FB6F894DEBF0FBECDBFCD
:1038E000842F952F9C838B83862F972F9A83898390
:1038F00029818B819C81622F0E945B4924960FB69F
:10390000F894DEBF0FBECDBFDF91CF910895CF9366
:10391000DF93CDB7DEB722970FB6F894DEBF0FBEA8
:10392000CDBF0E94BF5189830E947D4D8A838981CA
:103930000E94BC516A818BE70E94E7510E94661C7D
:1039400022960FB6F894DEBF0FBECDBFDF91CF91A8
:103950000895CF93DF93CDB7DEB722970FB6F894D3
:10396000DEBF0FBECDBF0E94FB499A838983898148
:103970009A81482F592F22960FB6F894DEBF0FBEBA
:10398000CDBFDF91CF910895CF93DF93CDB7DEB751
:1039900022970FB6F894DEBF0FBECDBF0E94BF5175
:1039A00089830E947D4D8A8389810E94BC516A81EE
:1039B0008CE70E94E7510E94A91C22960FB6F8944A
:1039C000DEBF0FBECDBFDF91CF910895CF93DF93C0
:1039D000CDB7DEB722970FB6F894DEBF0FBECDBFCE
:1039E0000E9464489A83898389819A81482F592F3C
:1039F00022960FB6F894DEBF0FBECDBFDF91CF91F8
:103A00000895CF93DF93CDB7DEB722970FB6F89422
:103A1000DEBF0FBECDBF0E94BF5189830E947D4D86
:103A20008A8389810E94BC516A818DE70E94E75197
:103A30000E94E61C22960FB6F894DEBF0FBECDBFE3
:103A4000DF91CF910895CF93DF93CDB7DEB7229763
:103A50000FB6F894DEBF0FBECDBF0E94BF51898361
:103A60000E947D4D8A8389810E94BC516A818EE7C4
:103A70000E94E7510E949B4822960FB6F894DEBF41
:103A80000FBECDBFDF91CF910895CF93DF93CDB718
:103A9000DEB722970FB6F894DEBF0FBECDBF0E94EF
:103AA000BF5189830E947D4D8A8389810E94BC51C8
:103AB0006A818FE70E94E7510E94234E22960FB63B
:103AC000F894DEBF0FBECDBFDF91CF910895CF93A5
:103AD000DF93CDB7DEB7882D992D9093A405809301
:103AE000A3058091A3059091A40502969093A40547
:103AF0008093A3058A2D9B2D9093A4058093A30505
:103B00008091A3059091A40502969093A4058093BB
:103B1000A3058C2D9D2D9093A4058093A3058091E2
:103B2000A3059091A40502969093A4058093A30504
:103B3000DF91CF910895CF93DF93CDB7DEB7229772
:103B40000FB6F894DEBF0FBECDBF0E94BF51898370
:103B50000E947D4D8A8389810E94BC516A8180E8E0
:103B60000E94E7510E94671D22960FB6F894DEBFAF
:103B70000FBECDBFDF91CF910895CF93DF93CDB727
:103B8000DEB722970FB6F894DEBF0FBECDBF0E94FE
:103B9000BF5189830E947D4D8A8389810E94BC51D7
:103BA0006A8181E80E94E7510E94F93322960FB69C
:103BB000F894DEBF0FBECDBFDF91CF910895CF93B4
:103BC000DF93CDB7DEB722970FB6F894DEBF0FBEF6
:103BD000CDBF0E94BF5189830E947D4D8A83898118
:103BE0000E94BC516A8182E80E94E7510E944D34D4
:103BF00022960FB6F894DEBF0FBECDBFDF91CF91F6
:103C00000895CF93DF93CDB7DEB722970FB6F89420
:103C1000DEBF0FBECDBF0E94BF5189830E947D4D84
:103C20008A8389810E94BC516A8183E80E94E7519E
:103C30000E943D3422960FB6F894DEBF0FBECDBF72
:103C4000DF91CF910895CF93DF93CDB7DEB7229761
:103C50000FB6F894DEBF0FBECDBF0E94BF5189835F
:103C60000E947D4D8A8389810E94BC516A8184E8CB
:103C70000E94E7510E94E93322960FB6F894DEBF06
:103C80000FBECDBFDF91CF910895CF93DF93CDB716
:103C9000DEB722970FB6F894DEBF0FBECDBF0E94ED
:103CA000BF5189830E947D4D8A8389810E94BC51C6
:103CB0006A8185E80E94E7510E94D93322960FB6A7
:103CC000F894DEBF0FBECDBFDF91CF910895CF93A3
:103CD000DF93CDB7DEB722970FB6F894DEBF0FBEE5
:103CE000CDBF0E94BF5189830E947D4D8A83898107
:103CF0000E94BC516A8186E80E94E7510E941B34F1
:103D000022960FB6F894DEBF0FBECDBFDF91CF91E4
:103D10000895CF93DF93CDB7DEB722970FB6F8940F
:103D2000DEBF0FBECDBF0E94BF5189830E947D4D73
:103D30008A8389810E94BC516A8187E80E94E75189
:103D40000E940B3422960FB6F894DEBF0FBECDBF93
:103D5000DF91CF910895CF93DF93CDB7DEB7229750
:103D60000FB6F894DEBF0FBECDBF0E94BF5189834E
:103D70000E947D4D8A8389810E94BC516A8188E8B6
:103D80000E94E7510E94954D22960FB6F894DEBF2F
:103D90000FBECDBFDF91CF910895CF93DF93CDB705
:103DA000DEB722970FB6F894DEBF0FBECDBF0E94DC
:103DB000044A9A83898389819A81482F592F2296B0
:103DC0000FB6F894DEBF0FBECDBFDF91CF9108953F
:103DD000CF93DF93CDB7DEB722970FB6F894DEBF4F
:103DE0000FBECDBF0E94BF5189830E947D4D8A8343
:103DF00089810E94BC516A8189E80E94E7510E9432
:103E0000CD1E22960FB6F894DEBF0FBECDBFDF9158
:103E1000CF910895CF93DF93CDB7DEB722970FB63A
:103E2000F894DEBF0FBECDBF0E94FE499A838983FE
:103E300089819A81482F592F22960FB6F894DEBFB8
:103E40000FBECDBFDF91CF910895CF93DF93CDB754
:103E5000DEB722970FB6F894DEBF0FBECDBF0E942B
:103E6000BF5189830E947D4D8A8389810E94BC5104
:103E70006A818AE80E94E7510E940A1F22960FB6C3
:103E8000F894DEBF0FBECDBFDF91CF910895CF93E1
:103E9000DF93CDB7DEB722970FB6F894DEBF0FBE23
:103EA000CDBF0E94BF5189830E947D4D8A83898145
:103EB0000E94BC516A818BE80E94E7510E948D4AA2
:103EC00022960FB6F894DEBF0FBECDBFDF91CF9123
:103ED0000895CF93DF93CDB7DEB722970FB6F8944E
:103EE000DEBF0FBECDBF0E94954B9A838983898127
:103EF0009A81482F592F22960FB6F894DEBF0FBE35
:103F0000CDBFDF91CF910895CF93DF93CDB7DEB7CB
:103F100022970FB6F894DEBF0FBECDBF0E94BF51EF
:103F200089830E947D4D8A8389810E94BC516A8168
:103F30008CE80E94E7510E94691F22960FB6F89400
:103F4000DEBF0FBECDBFDF91CF910895CF93DF933A
:103F5000CDB7DEB722970FB6F894DEBF0FBECDBF48
:103F60000E94BF5189830E947D4D8A8389810E946E
:103F7000BC516A818DE80E94E7510E94BE4B229697
:103F80000FB6F894DEBF0FBECDBFDF91CF9108957D
:103F9000CF93DF93CDB7DEB722970FB6F894DEBF8D
:103FA0000FBECDBF0E942A399A83898389819A8165
:103FB000482F592F22960FB6F894DEBF0FBECDBF03
:103FC000DF91CF910895CF93DF93CDB7DEB72297DE
:103FD0000FB6F894DEBF0FBECDBF0E94BF518983DC
:103FE0000E947D4D8A8389810E94BC516A818EE83E
:103FF0000E94E7510E94C81F22960FB6F894DEBFB8
:104000000FBECDBFDF91CF910895CF93DF93CDB792
:10401000DEB70E946D39DF91CF910895CF93DF9382
:10402000CDB7DEB722970FB6F894DEBF0FBECDBF77
:104030000E94BF5189830E947D4D8A8389810E949D
:10404000BC516A818FE80E94E7510E9405202296A8
:104050000FB6F894DEBF0FBECDBFDF91CF910895AC
:10406000CF93DF93CDB7DEB70E945B39DF91CF915D
:104070000895CF93DF93CDB7DEB722970FB6F894AC
:10408000DEBF0FBECDBF0E94BF5189830E947D4D10
:104090008A8389810E94BC516A8180E90E94E7512C
:1040A0000E94302022960FB6F894DEBF0FBECDBF1F
:1040B000DF91CF910895CF93DF93CDB7DEB7DF9136
:1040C000CF910895CF93DF93CDB7DEB722970FB688
:1040D000F894DEBF0FBECDBF0E94BF5189830E94FE
:1040E0007D4D8A8389810E94BC516A8181E90E9449
:1040F000E7510E945B2022960FB6F894DEBF0FBEF8
:10410000CDBFDF91CF910895CF93DF93CDB7DEB7C9
:10411000DF91CF910895CF93DF93CDB7DEB722978C
:104120000FB6F894DEBF0FBECDBF0E94BF5189838A
:104130000E947D4D8A8389810E94BC516A8182E9F7
:104140000E94E7510E94842022960FB6F894DEBFA9
:104150000FBECDBFDF91CF910895CF93DF93CDB741
:10416000DEB722970FB6F894DEBF0FBECDBF0E9418
:10417000BF5189830E947D4D8A8389810E94BC51F1
:104180006A8183E90E94E7510E946E3822960FB639
:10419000F894DEBF0FBECDBFDF91CF910895CF93CE
:1041A000DF93CDB7DEB722970FB6F894DEBF0FBE10
:1041B000CDBF0E9407529A83898389819A81482FB3
:1041C000592F22960FB6F894DEBF0FBECDBFDF91F8
:1041D000CF910895CF93DF93CDB7DEB722970FB677
:1041E000F894DEBF0FBECDBF0E94BF5189830E94ED
:1041F0007D4D8A8389810E94BC516A8184E90E9435
:10420000E7510E94CF2022960FB6F894DEBF0FBE72
:10421000CDBFDF91CF910895CF93DF93CDB7DEB7B8
:1042200022970FB6F894DEBF0FBECDBF0E94BF51DC
:1042300089830E947D4D8A8389810E94BC516A8155
:1042400085E90E94E7510E947B1222960FB6F894EE
:10425000DEBF0FBECDBFDF91CF910895CF93DF9327
:10426000CDB7DEB722970FB6F894DEBF0FBECDBF35
:104270000E94BF5189830E947D4D8A8389810E945B
:10428000BC516A8186E90E94E7510E94A1122296E0
:104290000FB6F894DEBF0FBECDBFDF91CF9108956A
:1042A000CF93DF93CDB7DEB722970FB6F894DEBF7A
:1042B0000FBECDBF0E94BF5189830E947D4D8A836E
:1042C00089810E94BC516A8187E90E94E7510E945E
:1042D0002C1222960FB6F894DEBF0FBECDBFDF9131
:1042E000CF910895CF93DF93CDB7DEB722970FB666
:1042F000F894DEBF0FBECDBF0E9459489A838983D0
:1043000089819A81482F592F22960FB6F894DEBFE3
:104310000FBECDBFDF91CF910895CF93DF93CDB77F
:10432000DEB722970FB6F894DEBF0FBECDBF0E9456
:10433000BF5189830E947D4D8A8389810E94BC512F
:104340006A8188E90E94E7510E94722122960FB685
:10435000F894DEBF0FBECDBFDF91CF910895CF930C
:10436000DF93CDB7DEB722970FB6F894DEBF0FBE4E
:10437000CDBF842F952F9A83898389819A810E944A
:104380005E4822960FB6F894DEBF0FBECDBFDF9118
:10439000CF910895CF93DF93CDB7DEB722970FB6B5
:1043A000F894DEBF0FBECDBF0E94BF5189830E942B
:1043B0007D4D8A8389810E94BC516A8189E90E946E
:1043C000E7510E94AF2122960FB6F894DEBF0FBED0
:1043D000CDBFDF91CF910895CF93DF93CDB7DEB7F7
:1043E00022970FB6F894DEBF0FBECDBF0E94494C96
:1043F0009A83898389819A81482F592F22960FB6F3
:10440000F894DEBF0FBECDBFDF91CF910895CF935B
:10441000DF93CDB7DEB722970FB6F894DEBF0FBE9D
:10442000CDBF0E94BF5189830E947D4D8A838981BF
:104430000E94BC516A818AE90E94E7510E94EC21E6
:1044400022960FB6F894DEBF0FBECDBFDF91CF919D
:104450000895CF93DF93CDB7DEB722970FB6F894C8
:10446000DEBF0FBECDBF0E944C4C9A8389838981E9
:104470009A81482F592F22960FB6F894DEBF0FBEAF
:10448000CDBFDF91CF910895CF93DF93CDB7DEB746
:1044900022970FB6F894DEBF0FBECDBF0E94BF516A
:1044A00089830E947D4D8A8389810E94BC516A81E3
:1044B0008AE90E94E7510E94292222960FB6F894B9
:1044C000DEBF0FBECDBFDF91CF910895CF93DF93B5
:1044D000CDB7DEB722970FB6F894DEBF0FBECDBFC3
:1044E0000E94BF5189830E947D4D8A8389810E94E9
:1044F000BC516A818CE90E94E7510E94804E22964D
:104500000FB6F894DEBF0FBECDBFDF91CF910895F7
:10451000CF93DF93CDB7DEB722970FB6F894DEBF07
:104520000FBECDBF0E94E4519A83898389819A810D
:10453000482F592F22960FB6F894DEBF0FBECDBF7D
:10454000DF91CF910895CF93DF93CDB7DEB7249756
:104550000FB6F894DEBF0FBECDBF842F952F9C837E
:104560008B83862F972F9A83898329818B819C81C6
:10457000622F0E94A4F324960FB6F894DEBF0FBEFC
:10458000CDBFDF91CF910895CF93DF93CDB7DEB745
:1045900024970FB6F894DEBF0FBECDBF842F952FA2
:1045A0009C838B83862F972F9A83898329818B8184
:1045B0009C81622F0E94ECF224960FB6F894DEBF25
:1045C0000FBECDBFDF91CF910895CF93DF93CDB7CD
:1045D000DEB723970FB6F894DEBF0FBECDBF842F92
:1045E000952F9B838A830E947D4D89838A819B813D
:1045F000BC0189810E944F4C23960FB6F894DEBF10
:104600000FBECDBFDF91CF910895CF93DF93CDB78C
:10461000DEB727970FB6F894DEBF0FBECDBF822F4F
:10462000932F9C838B83842F952F9A838983862F46
:10463000972F9F838E830E947D4D8D838E819F81D6
:1046400049815A816B817C819C018D810E94AF4799
:1046500027960FB6F894DEBF0FBECDBFDF91CF9186
:104660000895CF93DF93CDB7DEB722970FB6F894B6
:10467000DEBF0FBECDBF0E947A4D9A8389838981A8
:104680009A81482F592F22960FB6F894DEBF0FBE9D
:10469000CDBFDF91CF910895CF93DF93CDB7DEB734
:1046A00026970FB6F894DEBF0FBECDBF842F952F8F
:1046B0009E838D83862F972F9C838B83822F932FAE
:1046C0009A8389838DB79EB79093A2058093A105A5
:1046D0008091620B9091630B9EBF8DBF6B8189812E
:1046E0009A812D813E81AC01C9010E94CFF18DB725
:1046F0009EB79093630B8093620B8091A10590917C
:10470000A2059EBF8DBF26960FB6F894DEBF0FBEE2
:10471000CDBFDF91CF910895CF93DF93CDB7DEB7B3
:1047200026970FB6F894DEBF0FBECDBF842F952F0E
:104730009E838D83862F972F9C838B83822F932F2D
:104740009A8389838DB79EB79093A2058093A10524
:104750008091620B9091630B9EBF8DBF6B818981AD
:104760009A812D813E81AC01C9010E9413F18DB760
:104770009EB79093630B8093620B8091A1059091FB
:10478000A2059EBF8DBF26960FB6F894DEBF0FBE62
:10479000CDBFDF91CF910895CF93DF93CDB7DEB733
:1047A00022970FB6F894DEBF0FBECDBF0E94BF5157
:1047B00089830E947D4D8A8389810E94BC516A81D0
:1047C0008DE90E94E7510E944F3822960FB6F89467
:1047D000DEBF0FBECDBFDF91CF910895CF93DF93A2
:1047E000CDB7DEB722970FB6F894DEBF0FBECDBFB0
:1047F0000E94BF5189830E947D4D8A8389810E94D6
:10480000BC516A818EE90E94E7510E94423822968B
:104810000FB6F894DEBF0FBECDBFDF91CF910895E4
:10482000CF93DF93CDB7DEB724970FB6F894DEBFF2
:104830000FBECDBF0E94DE47DC01CB0189839A8386
:10484000AB83BC8389819A81AB81BC81282F392FAE
:104850004A2F5B2F24960FB6F894DEBF0FBECDBF54
:10486000DF91CF910895982F8091A5058F3019F48D
:104870008FEF8093A505E091A505EF5FE093A50577
:104880008091AA058F5F8093AA05FF27E255FA4F12
:104890009083089581E090E008959091AA0599236E
:1048A00019F480E190E008958091C0058F3019F4EB
:1048B0008FEF8093C005E091C005EF5FE093C005E6
:1048C00091509093AA05FF27E255FA4F80819927CE
:1048D000089581E090E008950E94921608950E9444
:1048E0008F16992708950E948C1699270895FF9294
:1048F0000F931F930E94BF51F82E8091BE05909197
:10490000BF05892B29F46CE087E095E20E945B49A2
:104910000091BE051091BF050E946F240F5F1F4FCD
:10492000080F111D1093BF050093BE058F2D0E9427
:10493000BC5181E090E01F910F91FF9008959F92EC
:10494000AF92BF92CF92DF92EF92FF920F931F939D
:10495000E090A605F090A7050091A8051091A90583
:10496000E114F10401051105D9F196EE992E60E0EC
:1049700070E0E6ECF5E081E0A82EB12CC12CD12C42
:10498000D601C501062E04C0880F991FAA1FBB1FA0
:104990000A94D2F78E219F21A023B1230097A1056D
:1049A000B10571F02081318142815381892D992790
:1049B000AA27BB27281739074A075B070CF4922E52
:1049C0006F5F7F4F399660317105D1F60E94BF51FC
:1049D000182F0E9473248D5F891530F4892D04C02F
:1049E0000E94BF51182F86EE8093AC050E946C2464
:1049F0001092AD05812F0E94BC511F910F91FF9025
:104A0000EF90DF90CF90BF90AF909F9008959F92CE
:104A1000AF92BF92CF92DF92EF92FF920F931F93CC
:104A2000CF93DF9381E08093AD050E94BF51A090AA
:104A3000BE05B090BF051092BF051092BE050E9442
:104A4000BC518091A6059091A705A091A805B091B1
:104A5000A9050097A105B10509F482C0C1ECD5E014
:104A6000CC24DD249C2C21E0E22EF12C012D112DF3
:104A70000C2C04C0EE0CFF1C001F111F0A94D2F76F
:104A80008091A6059091A705A091A805B091A905D0
:104A90008E219F21A023B1230097A105B10509F420
:104AA00056C08D819E81AF81B885950144275527D9
:104AB000821B930BA40BB50B8D839E83AF83B887AA
:104AC0000397A105B1050CF042C067E080EA96E2C9
:104AD0000E945B49882391F18881882389F48D8124
:104AE0009E81AF81B88529813A814B815C81820F9B
:104AF000931FA41FB51F8D839E83AF83B8871AC0F1
:104B0000A801970120953095409550958091A60574
:104B10009091A705A091A805B091A90582239323A0
:104B2000A423B5238093A6059093A705A093A80579
:104B3000B093A905892D0E94332409C08091AC054A
:104B40009927AA27BB278D839E83AF83B8870894B4
:104B5000C11CD11C299680E1C816D10409F082CF6E
:104B60000E94BF510091BE051091BF050E94BC512B
:104B7000012B11F40E949F24DF91CF911F910F917F
:104B8000FF90EF90DF90CF90BF90AF909F900895EF
:104B90009F92AF92BF92CF92DF92EF92FF920F93CC
:104BA0001F9359016A01803108F061C062300CF036
:104BB0005EC0662331F4233031054105510508F408
:104BC00056C0E82EFF24870133E0000F111F3A95ED
:104BD000E1F70E0D1F1D0F531A4FF801A182B2828B
:104BE000C382D48260830E94BF51982E0E94732496
:104BF000A80EB11CC11CD11CF801A582B682C782C7
:104C0000D08621E030E040E050E004C0220F331FA6
:104C1000441F551FEA94D2F78091A6059091A705ED
:104C2000A091A805B091A905822B932BA42BB52B9D
:104C30008093A6059093A705A093A805B093A90516
:104C40008091AC059927AA27BB27A816B906CA06E2
:104C5000DB0638F4A092AC058A2D0E946C241092D9
:104C6000AD05892D0E94BC5181E090E002C080E03A
:104C700090E01F910F91FF90EF90DF90CF90BF9049
:104C8000AF909F900895EF92FF920F931F93813101
:104C900008F04AC041E0E42EF12C012D112D04C092
:104CA000EE0CFF1C001F111F8A95D2F78091A605FC
:104CB0009091A705A091A805B091A9058E219F21EB
:104CC000A023B1230097A105B10571F10E94BF5146
:104CD000E094F094009510952091A6053091A705D9
:104CE0004091A8055091A9052E213F214023512331
:104CF0002093A6053093A7054093A8055093A905D6
:104D00000E94BC518091A6059091A705A091A8058D
:104D1000B091A9050097A105B10519F481E0809330
:104D2000AD0581E090E002C080E090E01F910F911E
:104D3000FF90EF9008950E94684781E090E0089509
:104D40000E944D24803110F40E949B2608950E94F9
:104D5000D916992708951092A6051092A7051092CA
:104D6000A8051092A9051092AD058FEF8093A505B7
:104D70008093C0051092AA0583E08093AB0586EE70
:104D80008093AC0563E00E94A726992708958AEDD9
:104D900093E0089586EE93E008951F920F920FB668
:104DA0000F921124349A37980F900FBE0F901F90D6
:104DB000189517B88EE086B9089517B897B18F7116
:104DC000982B97B93398349A86B1806C86B9369906
:104DD000FECF84B1992725B13798332723703070DF
:104DE000322F2227822B932B08951E9816981D9AF6
:104DF000159A81E090E00E94DD261D98159808958F
:104E00001D9815981E9A169A81E090E00E94DD2662
:104E10001E9816980895A59AAD9A85E090E00E9494
:104E2000DD26A598AD980895A59AAD9A86E090E004
:104E30000E94DD26A598AD980895A49AAC9A83E0C7
:104E400090E00E94DD26A498AC980895A49AAC9AAC
:104E500084E090E00E94DD26A498AC9808950E941A
:104E6000F5269093E7038093E60308950E940027B8
:104E70009093E7038093E60308950E941D27909383
:104E8000E7038093E60308950E9426279093E703A3
:104E90008093E60308950E940B279093E703809385
:104EA000E60308950E9414279093E7038093E60396
:104EB00008950E942627E0916D0BF0916E0B948F60
:104EC000838F08950E941D27E0916D0BF0916E0B6A
:104ED000948F838F08950E941427E0916D0BF091B9
:104EE0006E0B948F838F08950E940B27E0916D0BBA
:104EF000F0916E0B948F838F08950E940027E091AC
:104F00006D0BF0916E0B948F838F08950E94F526A0
:104F1000E0916D0BF0916E0B948F838F08958FB796
:104F2000F894D39ADB9A95988D9A92988A98939A46
:104F30008B9A8FBF1092E8031092E9031092EA0354
:104F40001092EB0321E02093EC0380E098E0909333
:104F5000EE038093ED031092EF032093F00380E4BF
:104F60009CE90197F1F708958FB7F8949598DB982D
:104F70008FBF08952FB7F89492B3977D92BB80E0CE
:104F8000959A8299806892BB959A8299806492BB27
:104F9000959A8299806292BB959A8299806192BB20
:104FA000959A8299886092BB959A8299846092BB07
:104FB000959A8299826092BB959A829981602FBF5F
:104FC00099270895982F3FB7F89422B3277D22BBE5
:104FD00080E097FD939A959A22BB96FD939A959AB5
:104FE00022BB95FD939A959A22BB94FD939A959A2C
:104FF00022BB93FD939A959A22BB92FD939A959A20
:1050000022BB91FD939A959A22BB90FD939A959A13
:105010003FBF99270895CF92DF92EF92FF920F93AF
:105020001F93CF93DF93CDB7DEB724970FB6F894D5
:10503000DEBF0FBECDBF7A016901813011F484E873
:1050400001C087E889831A82872F99278B836C8315
:105050000E94B4278E010F5F1F4FF80181918F01CD
:105060000E94E227CE01059608171907B1F700E064
:1050700010E007C0F70181917F010E94E2270F5FD6
:105080001F4F0C151D05B1F7DB9A81E090E02496C7
:105090000FB6F894DEBF0FBECDBFDF91CF911F9149
:1050A0000F91FF90EF90DF90CF9008950F931F9393
:1050B000CF93DF93CDB7DEB724970FB6F894DEBF5A
:1050C0000FBECDBF813011F483E801C086E889832B
:1050D000CB01880F892F881F990B91958A83862F82
:1050E000880F8B831C820E94B4278E010F5F1F4F95
:1050F000F80181918F010E94E227CE0105960817E1
:105100001907B1F7DB9A81E090E024960FB6F89486
:10511000DEBF0FBECDBFDF91CF911F910F910895DC
:1051200080E091E0089580E098E00895FF920F9369
:105130001F930E94BF51F82E0E94B42787ED0E9452
:10514000E2270E94BA27082FDB9A8F2D0E94BC51BC
:10515000112707FD1095009510950027110F001FCE
:105160001127C8011F910F91FF900895FF920F938F
:105170001F93CF93DF93CDB7DEB724970FB6F89484
:10518000DEBF0FBECDBFF82E8B010E94962888236C
:10519000E1F76091ED037091EE038091EC030E94C2
:1051A00056280E9496288823E1F781E0F81611F42A
:1051B00083E501C085E58983C801880F892F881F91
:1051C000990B91958A83802F880F8B831C820E9474
:1051D000B4278E010F5F1F4FF80181918F010E944C
:1051E000E227CE01059608171907B1F7DB9A81E08F
:1051F00090E024960FB6F894DEBF0FBECDBFDF91CE
:10520000CF911F910F91FF9008954F925F926F92EF
:105210007F928F929F92AF92BF92CF92DF92EF9246
:10522000FF920F931F93CF93DF93CDB7DEB72897ED
:105230000FB6F894DEBF0FBECDBF2B013C01E0904E
:10524000E803F090E9030091EA031091EB03C80131
:10525000B70128E031E040E050E00E94A05B690126
:10526000C801B70128E031E040E050E00E94A05BB7
:105270004B018091EF03882389F1A090ED03B0905A
:10528000EE03AC14BD0450F1760100271127B401E0
:1052900088279927640D751D861D971D28E031E02C
:1052A00040E050E00E94A05BE20EF31E041F151FB9
:1052B000C501AA27BB27E816F9060A071B0770F0E5
:1052C0000E9496288823E1F76091ED037091EE0328
:1052D0008091EC030E9456281092EF030E949628BA
:1052E0008823E1F788EE8983C601880F892F881FFC
:1052F000990B91958A832C2D220F892D9927282B84
:105300002B838C821D821E821F8218860E94B427E6
:105310008E010F5F1F4FF80181918F010E94E227DC
:10532000CE01099608171907B1F70FEF1FEFCC242C
:10533000DD2476011FC00E94BA27582F40E890E074
:1053400061E270E19801220F331F852F842311F051
:105350002F5F3F4F17FF02C0262737279F5F9830E8
:1053600019F046958901EECF0894C11CD11CE11CAF
:10537000F11C8901C414D504E604F704E1F620E029
:1053800041E250E1C801880F991F17FF07C08C0147
:10539000042715272F5F203119F0F4CF8C01FACFA5
:1053A000DB9AC80128960FB6F894DEBF0FBECDBFBA
:1053B000DF91CF911F910F91FF90EF90DF90CF90F1
:1053C000BF90AF909F908F907F906F905F904F9025
:1053D00008956F927F928F929F92AF92BF92CF92D9
:1053E000DF92EF92FF920F931F93CF93DF93CDB78E
:1053F000DEB724970FB6F894DEBF0FBECDBF3C01D9
:105400005B018091EF03882371F00E949628882326
:10541000E1F76091ED037091EE038091EC030E943F
:1054200056281092EF030E9496288823E1F78824DB
:10543000992483C0E090E803F090E9030091EA0327
:105440001091EB03C801B70128E031E040E050E0E3
:105450000E94A05B6901C801B70128E031E040E08B
:1054600050E00E94A05B8B01C501800F911F895005
:10547000914010F4750106C088E0E82E81E0F82E16
:10548000E01AF10A88E0E81681E0F80640F4B60177
:1054900081E00E94B6280E9496288823E1F7A301A4
:1054A000480D591D9701B80181E00E940B2880E644
:1054B0008983C601880F892F881F990B91958A834C
:1054C0008C2D880F8B831C820E94B4278E010F5F66
:1054D0001F4FF80181918F010E94E227CE010596AE
:1054E00008171907B1F7DB9A0E94B42787ED0E94CD
:1054F000E2270E94BA27DB9A87FDF6CF86FF02C01B
:1055000061E020C08E0C9F1C970144275527809195
:10551000E8039091E903A091EA03B091EB03820FB5
:10552000931FA41FB51F8093E8039093E903A093F2
:10553000EA03B093EB03AE18BF08A114B10409F05D
:1055400079CF60E09501442755278091E803909139
:10555000E903A091EA03B091EB03820F931FA41F0C
:10556000B51F8093E8039093E903A093EA03B093F7
:10557000EB03862F992724960FB6F894DEBF0FBE53
:10558000CDBFDF91CF911F910F91FF90EF90DF90F2
:10559000CF90BF90AF909F908F907F906F90089525
:1055A0004F925F926F927F928F929F92AF92BF9233
:1055B000CF92DF92EF92FF920F931F93CF93DF93DF
:1055C000CDB7DEB724970FB6F894DEBF0FBECDBFC0
:1055D0002C014B01E090E803F090E9030091EA030D
:1055E0001091EB03C801B70128E031E040E050E042
:1055F0000E94A05B6901C801B70128E031E040E0EA
:1056000050E00E94A05B7B018C010E9496288823B9
:10561000E1F757016624772490C0C4018A0D9B1DD1
:105620008950914010F4740106C038E0E32E31E057
:10563000F32EEA18FB088091ED039091EE03C81653
:10564000D90609F44EC08091EF03882371F00E94BF
:1056500096288823E1F76091ED037091EE03809125
:10566000EC030E9456281092EF038091EC038130E6
:1056700011F482E001C081E08093EC03D092EE034C
:10568000C092ED0388E0E81681E0F80648F40E9435
:1056900096288823E1F7B6018091EC030E94B62892
:1056A0000E9496288823E1F781E88983C601880F44
:1056B000892F881F990B91958A838C2D880F8B8356
:1056C0001C820E94B4278E010F5F1F4FF801819149
:1056D0008F010E94E227CE01059608171907B1F73E
:1056E000DB9AA201460D571D9701B5018091EC038D
:1056F0000E940B2881E08093EF036E0C7F1C9701C2
:10570000442755278091E8039091E903A091EA038B
:10571000B091EB03820F931FA41FB51F8093E80382
:105720009093E903A093EA03B093EB038E189F08CC
:105730000894C11CD11CAA24BB248114910409F033
:105740006CCF80E090E024960FB6F894DEBF0FBED9
:10575000CDBFDF91CF911F910F91FF90EF90DF9020
:10576000CF90BF90AF909F908F907F906F905F9001
:105770004F9008958F929F92AF92BF92CF92DF92F7
:10578000EF92FF920F931F93CF93DF93CDB7DEB7C6
:1057900028970FB6F894DEBF0FBECDBF4C015B015A
:1057A000E090E803F090E9030091EA031091EB0325
:1057B000C801B70128E031E040E050E00E94A05B62
:1057C0006901C801B70128E031E040E050E00E94E3
:1057D000A05B8B018091EF03882309F12091ED03F9
:1057E0003091EE032C153D05D0F0C8018A0D9B1DAC
:1057F00068E071E00E94795B6C0D7D1D6217730794
:1058000070F00E9496288823E1F76091ED03709173
:10581000EE038091EC030E9456281092EF030E9441
:1058200096288823E1F788EE8983C601880F892F9F
:10583000881F990B91958A832C2D220F812F9927F0
:10584000282B2B830C831D821E821F8218860E94A8
:10585000B4278E010F5F1F4FF80181918F010E94C5
:10586000E227CE01099608171907B1F700E010E00A
:10587000740107C00E94BA27F70181937F010F5F6F
:105880001F4F0A151B05B1F7DB9AC50128960FB605
:10589000F894DEBF0FBECDBFDF91CF911F910F9166
:1058A000FF90EF90DF90CF90BF90AF909F908F9040
:1058B00008950F931F93CF93DF93EC018B010E9408
:1058C00096288823E1F7BE0181E00E94B6280E9455
:1058D00096288823E1F7B80181E00E9456280E94AB
:1058E00096288823E1F7DF91CF911F910F910895BA
:1058F000AF92BF92DF92EF92FF920F931F93CF93DD
:10590000DF93EC01D62E5A0189018091F0038823A0
:1059100011F40E948F2788E091E0C89F7001C99F11
:10592000F00CD89FF00C11246D2D7727C701860F3E
:10593000971FAA2797FDA095BA2F8093E80390930D
:10594000E903A093EA03B093EB03CB01800F911F0F
:10595000815091402CF0C0E0D1E0C61BD70B01C0B4
:10596000E8010E9496288823E1F7BE01C5010E9444
:10597000D02A0E9496288823E1F7C017D107F8F4AF
:10598000C701885F9E4FAA2797FDA095BA2F8093E5
:10599000E8039093E903A093EA03B093EB030E941A
:1059A00096288823E1F70C1B1D0BB801C5018C0F4D
:1059B0009D1F0E94D02A0E9496288823E1F7DF913C
:1059C000CF911F910F91FF90EF90DF90BF90AF901C
:1059D0000895AF92BF92DF92EF92FF920F931F93C1
:1059E000CF93DF93EC01D62E5A0189018091F00309
:1059F000882311F40E948F2788E091E0C89F7001EE
:105A0000C99FF00CD89FF00C11246D2D7727C7018A
:105A1000860F971FAA2797FDA095BA2F8093E803BA
:105A20009093E903A093EA03B093EB03CB01800FBB
:105A3000911F815091402CF0C0E0D1E0C61BD70BE4
:105A400001C0E8010E9496288823E1F7BE01C50144
:105A50000E94BA2B0E9496288823E1F7C017D1072D
:105A6000F8F4C701885F9E4FAA2797FDA095BA2F2B
:105A70008093E8039093E903A093EA03B093EB03C8
:105A80000E9496288823E1F70C1B1D0BB801C50165
:105A90008C0F9D1F0E94BA2B0E9496288823E1F745
:105AA000DF91CF911F910F91FF90EF90DF90BF900A
:105AB000AF9008950F931F93CF93DF93182FEB01AF
:105AC0000E94BF51982F809158068823A1F481E04D
:105AD00080935806892F0E94BC510E94BF51082F05
