:100000000C94DE000C94FD000C94FD000C94FD009B
:100010000C94FD000C94FD000C94FD000C940F1347
:100020000C94FD000C94FD000C94FD000C945415F0
:100030000C94A2140C94FD000C94FD000C94C63595
:100040000C94FD000C94FD000C9453070C94FD00DF
:100050000C94FD000C94851B0C94FD000C94FD0089
:100060000C94FD000C94FD000C945D350C94FD0087
:100070000C94FD000C94FD000C94FD000C94FD000C
:100080000C94FD000C94FD000C94FD0099449D44DB
:10009000A144A544A944AD444C444C444C444C4474
:1000A000B14463445F445F444C444C444C444C442E
:1000B0004C444C444C444C444C444C444C444C44C0
:1000C0004C444C444C444C4467446B446F4472442D
:1000D00076444C444C444C444C444C444C444C4476
:1000E0004C444C444C444C444C444C444C444C4490
:1000F0007A444C444C444C444C444C444C444C4452
:100100004C444C447E444C444C444C444C444C443D
:100110004C444C444C444C4482444C444C444C4429
:100120004C444C444C444C444C444C4486444C4415
:100130004C444C444C444C444C444C444C444C443F
:100140004C444C444C444C444C444C444C444C442F
:100150004C444C444C444C444C444C444C444C441F
:100160004C444C444C444C444C444C444C444C440F
:100170004C444C444C444C444C444C448A444C44C1
:100180004C444C444C444C444C444C444C444C44EF
:100190008E444C444C444C444C444C444C444C449D
:1001A0004C444C444C444C4492444C444C444C4489
:1001B0004C444C444C444C444C44964411241FBE83
:1001C000CFEFD0E1DEBFCDBF11E0A0E0B1E0ECEFBA
:1001D000FAEA00E00BBF02C007900D92AC33B10702
:1001E000D9F719E0ACE3B1E001C01D92A03FB1071F
:1001F000E1F70E94FF000C947C550C940000AF9234
:10020000BF92CF92DF92EF92FF920F930E9402056E
:100210000E94911B0E940F160E9475190E94F00502
:100220000E94F3018A30F1F10E94F3018B3009F44E
:1002300071C00E94F2360E940A370E94FE080E9496
:10024000F9080E945C090E94E53B0E94EE010E94B1
:10025000820B8FE10E94220B84EB94E466E077E04E
:1002600044E058E020E030E00FE0F0E0EF2EF1E075
:10027000FF2ECC24DD24AA24BB240E94AC1889E1E3
:1002800094E564E579E048EE59E020E030E0E9E00B
:10029000EE2EE1E0FE2E0E94AC180E9419020E9490
:1002A0005716FDCF0E9404029093F7038093F60344
:1002B0000E94375580E29CE060E170E048EF53E037
:1002C0000E94F01C85E39CE060E170E045EE53E0A5
:1002D0000E94F01C8091F6039091F70390933D01EA
:1002E00080933C01109208041092F5030E94741C44
:1002F0000E943E1C0E94081C0E9424200E942A2961
:100300000E94741C0E943E1C0E94081C8AE00E94ED
:10031000FE018FCF0E9404029093F7038093F603AF
:100320000E94375580E29CE060E170E048EF53E0C6
:100330000E94F01C85E39CE060E170E045EE53E034
:100340000E94F01C8091F6039091F70390933D0179
:1003500080933C01109208041092F5030E94741CD3
:100360000E943E1C0E94081C0E94952D0E947F2E18
:100370000E94741C0E943E1C0E94081C5ACF0F93BE
:100380001F938C0180E29CE060E170E0A8010E9474
:10039000ED1CA801405F5F4F85E39CE06FE070E0DB
:1003A0000E94ED1CF801878D0E94F801F80180A1E0
:1003B00090E00E9409028AE00E94FE0100E080E0D5
:1003C00090E00E9413080F5F0032C9F70E942202DA
:1003D0001F910F91089585EE93E0089584E59CE0C8
:1003E0000E94E71C089582E59CE00E94E71C0895A6
:1003F000682F84E59CE00E94D51C0895682F82E553
:100400009CE00E94D51C08958EE49CE00E94E11CB3
:100410000895BC018EE49CE00E94CF1C089500006A
:10042000000008957894889500000000089588954C
:10043000089578940895F89408958FB7F8940895DE
:100440008FBF0895E0E0F0E00995089500000000F6
:1004500008951816190664F400000000000000005A
:100460000000000000000000019718161906A4F310
:100470000895DA9A0895DA98089529B330E0369508
:1004800027953695279521703070C9010895D29A25
:100490000895D2980895D99A0895D998089529B3BE
:1004A00030E03695279521703070C9010895D19AB2
:1004B0000895D1980895D89A0895D898089529B3A1
:1004C00030E021703070C9010895D09A0895D09815
:1004D0000895DC9A0895DC98089529B330E03295A8
:1004E00022952F7023273F70232721703070C90178
:1004F0000895D49A0895D4980895DD9A0895DD98C2
:10050000089529B330E036952795329522952F70BE
:1005100023273F70232721703070C9010895D59A91
:100520000895D5980895DF9A0895DF98089529B31E
:10053000332727FD30952227330F221F3327C90188
:100540000895D79A0895D7980895DB9A0895DB986F
:10055000089529B330E03695279536952795369539
:10056000279521703070C9010895D39A0895D398C2
:100570000895959A08959598089520B330E036959A
:100580002795329522952F7023273F7023272170BE
:100590003070C90108958D9A08958D980895939AA1
:1005A00008959398089520B330E0369527953695B1
:1005B00027953695279521703070C90108958B9A3B
:1005C00008958B980895929A08959298089520B36B
:1005D00030E0369527953695279521703070C90102
:1005E00008958A9A08958A9808951C9A08951C98E7
:1005F000089521B130E0329522952F7023273F7066
:10060000232721703070C9010895149A0895149811
:1006100008951D9A08951D98089521B130E03695EA
:100620002795329522952F7023273F70232721701D
:100630003070C9010895159A0895159808951E9A65
:1006400008951E98089521B130E00024220F331F31
:10065000001C220F331F001C232F302D21703070FF
:10066000C9010895169A0895169808951F9A089535
:100670001F98089521B1332727FD30952227330F86
:10068000221F3327C9010895179A089517980895CE
:10069000C29A0895C298089526B330E036952795FA
:1006A0003695279521703070C9010895BA9A08953A
:1006B000BA980895C39A0895C398089526B330E070
:1006C0003695279536952795369527952170307064
:1006D000C9010895BB9A0895BB980895C19A0895D9
:1006E000C198089526B330E0369527952170307073
:1006F000C9010895B99A0895B9980895A89A0895D6
:10070000A898089523B330E021703070C90108958E
:10071000A09A0895A0980895A99A0895A99808956F
:1007200023B330E03695279521703070C9010895C4
:10073000A19A0895A1980895AA9A0895AA9808954B
:1007400023B330E036952795369527952170307084
:10075000C9010895A29A0895A2980895AB9A0895A0
:10076000AB98089523B330E03695279536952795B5
:100770003695279521703070C9010895A39A089580
:10078000A3980895AC9A0895AC98089523B330E0E7
:10079000329522952F7023273F70232721703070C8
:1007A000C9010895A49A0895A4980895AD9A08954A
:1007B000AD98089523B330E036952795329522956C
:1007C0002F7023273F70232721703070C9010895AF
:1007D000A59A0895A5980895AE9A0895AE9808959B
:1007E00023B330E00024220F331F001C220F331FDD
:1007F000001C232F302D21703070C9010895A69A56
:100800000895A6980895AF9A0895AF98089523B3D0
:10081000332727FD30952227330F221F3327C901A5
:100820000895A79A0895A7980895909A0895909882
:10083000089520B330E021703070C9010895889A7E
:10084000089588980895919A08959198089520B3ED
:1008500030E03695279521703070C9010895899A46
:10086000089589980895189A08951898089521B1BF
:1008700030E021703070C9010895109A08951098E1
:100880000895199A08951998089521B130E0369580
:10089000279521703070C9010895119A0895119813
:1008A00008951A9A08951A98089521B130E036955E
:1008B00027953695279521703070C9010895129AB1
:1008C0000895129808951B9A08951B98089521B1D0
:1008D00030E03695279536952795369527952170E2
:1008E0003070C9010895139A089513980895929A43
:1008F00008959298089520B330E03695279536955F
:10090000279521703070C90108958A9A08958A98B0
:100910000895939A08959398089520B330E03695FA
:100920002795369527953695279521703070C90102
:1009300008958B9A08958B980895959A089595989F
:10094000089520B330E036952795329522952F7083
:1009500023273F70232721703070C90108958D9A95
:1009600008958D9808951F9A08951F98089581B14C
:10097000881F8827881F0895179A08951798089543
:100980001D9A08951D98089581B190E096958795D8
:10099000929582958F7089279F708927817008951D
:1009A000159A0895159808951E9A08951E98089509
:1009B00081B190E00024880F991F001C880F991FB7
:1009C000001C892F902D81700895169A089516980D
:1009D0000895AB9A0895AB9808950895AA9A08953A
:1009E000AA9808950895AC9A0895AC98089508952A
:1009F000AD9A0895AD9808950895AE9A0895AE9869
:100A000008950895D29AD09AD19AA79AA69AA59AAB
:100A1000A49AA39AA29AA19AA09AD498DC98D39A5D
:100A20008B9A8D9ADB9ADA9AD89AD99A08959AB7BE
:100A300090629ABF882321F48AB78F7E8ABF089577
:100A40008AB780618ABF0895DE9A0895DE98089576
:100A500029B330E00024220F331F001C220F331F64
:100A6000001C232F302D21703070C9010895D69AB3
:100A70000895D6980895DD9A0895DD98089529B3CC
:100A800030E036952795329522952F7023273F70B9
:100A9000232721703070C9010895D59A0895D598FB
:100AA00008951E9A08951E98089521B130E00024FB
:100AB000220F331F001C220F331F001C232F302D49
:100AC00021703070C9010895169A089516980895F6
:100AD0001E9A08951E98089521B130E00024220F37
:100AE000331F001C220F331F001C232F302D2170B9
:100AF0003070C9010895169A089516980895969A27
:100B000008959698089520B330E00024220F331FF3
:100B1000001C220F331F001C232F302D217030703A
:100B2000C90108958E9A08958E980895949A08950B
:100B30009498089520B330E0329522952F702327A2
:100B40003F70232721703070C90108958C9A089551
:100B50008C980895C09A0895C098089526B330E0FF
:100B600021703070C9010895B89A0895B898089511
:100B7000C79A0895C798089526B3332727FD30955F
:100B80002227330F221F3327C9010895BF9A0895E2
:100B9000BF980895969A08959698089520B330E0E6
:100BA0000024220F331F001C220F331F001C232F91
:100BB000302D21703070C90108958E9A08958E9855
:100BC00008950E946C030E9456030E947A03D69AED
:100BD000D59AB89816988E988C98BF988E98089544
:100BE000109290008FE089B9599AE5E9F0E0808190
:100BF000866080838AB188698AB981E080934203E4
:100C0000109264031092650308951F93182F80912A
:100C10004203882329F05D9BFECF1CB91F910895E4
:100C20000E94F005F8CF1F93182F8091420388236C
:100C300029F05D9BFECF1CB91F9108950E94F0051D
:100C4000F8CFCF93DF93EC018CEF0E9405068881EB
:100C5000882331F00E940506219688818823D1F7E8
:100C60008CEF0E940506DF91CF910895FF920F93BC
:100C70001F93CF93DF93082FF92E162F8CEF0E942E
:100C80000506112359F0802F9F2D9C01E9018991C0
:100C90000E9405069E01201B2117C8F38CEF0E94BD
:100CA0000506DF91CF911F910F91FF9008950F934B
:100CB0001F93CF93DF93082F162F662349F09C01D3
:100CC000E90189910E9413069E01201B2117C8F398
:100CD000DF91CF911F910F9108958A3020F4805DAC
:100CE0000E9405060895895A0E9405060895DF931B
:100CF000CF9300D000D0CDB7DEB769837A838B83E2
:100D00009C838C810E9405068B810E9405068A8146
:100D10000E94050689810E9405060F900F900F9092
:100D20000F90CF91DF9108951F93182F82958F70A8
:100D30000E946D06812F8F700E946D061F9108958D
:100D4000DF93CF9300D000D0CDB7DEB769837A832D
:100D50008B839C838DEF0E94050669817A818B814C
:100D60009C810E9477068DEF0E9405060F900F90E0
:100D70000F900F90CF91DF910895EF92FF920F9314
:100D80001F937B018C018EEF0E940506C801B701FD
:100D90000E9477068EEF0E9405061F910F91FF902B
:100DA000EF9008958CEF0E9405068DE60E940506DF
:100DB0008DE60E9405068DE60E9405068CEF0E94D6
:100DC00005060895DF93CF9300D000D0CDB7DEB7EE
:100DD00069837A838B839C8380E30E94050688E77E
:100DE0000E9405068C810E9494068B810E949406C5
:100DF0008A810E94940689810E9494060F900F9028
:100E00000F900F90CF91DF910895AF92BF92CF9244
:100E1000DF92EF92FF920F931F93DF93CF93CDB7A3
:100E2000DEB760970FB6F894DEBF0FBECDBF698303
:100E30007A838B839C832D833E834F835887E986F7
:100E4000FA860B871C87AD86BE86CF86D88A81E05E
:100E50000E94050669817A818B819C810E94E2064D
:100E60006D817E818F8198850E94E20669857A85F1
:100E70008B859C850E94E2066D857E858F8598898D
:100E80000E94E20660960FB6F894DEBF0FBECDBF9B
:100E9000CF91DF911F910F91FF90EF90DF90CF9056
:100EA000BF90AF9008951F920F920FB60F920BB69E
:100EB0000F9211240F931F932F933F934F935F93A0
:100EC0006F937F938F939F93AF93BF93EF93FF9312
:100ED000DF93CF930F92CDB7DEB70CB10E94DE3B0C
:100EE000182F0E94AD168823B9F51982812F0E9410
:100EF000DB3B013609F444C00A3709F45EC00E94A6
:100F0000DE3B282F8981813061F48DB79EB79093A5
:100F10004F0580934E058091A1059091A2059EBF3B
:100F20008DBF822F0E94DB3B0F90CF91DF91FF910D
:100F3000EF91BF91AF919F918F917F916F915F9151
:100F40004F913F912F911F910F910F900BBE0F90DA
:100F50000FBE0F901F9018958DB79EB79093A20566
:100F60008093A10580914E0590914F059EBF8DBF46
:100F700081E08983812F0E94DB3B013609F0BCCFE1
:100F80000E94DE3B982F5F9BFECF8CB15F9BFECF14
:100F90008CB1803371F0E3E4F3E08153282F30E02B
:100FA0002C5B3C4F5F9BFECF8CB18193E217F30724
:100FB000C9F7892F0E94DB3BA2CF0E94DE3B982F0E
:100FC00003E413E05F9BFECF8CB1F80181938F01A6
:100FD000F3E004361F07B1F7892F0E94DB3BC801FD
:100FE00081970E94BF018BCFDF92EF92FF920F9308
:100FF0001F937B018C010E94DE3BD82E0E94EB01E7
:101000000E94210687E291E00E942106C801B701F3
:101010000E94BD068D2D0E94DB3B1F910F91FF901A
:10102000EF90DF900895FF920F931F938C010E9421
:10103000DE3BF82E0E94EB010E94210687E291E040
:101040000E942106C8010E9421068F2D0E94DB3BD1
:101050001F910F91FF900895DF92EF92FF920F93EF
:101060001F937B018C010E94DE3BD82E0E94EB0176
:101070000E94210687E291E00E942106C801B70183
:101080000E94A0068D2D0E94DB3B1F910F91FF90C7
:10109000EF90DF9008950E94050608950E9457067C
:1010A0000895FF920F931F938C01F62E0E94EB017F
:1010B0000E94210687E291E00E942106C8016F2D5F
:1010C0000E9436061F910F91FF9008951F930E9472
:1010D000DE3B182F0E94D206812F0E94DB3B1F911E
:1010E000089581E0089580E0089581E0089581E009
:1010F0000895CB010895CB0108951092090481E071
:1011000008951092090481E00895109209040E9444
:101110000B0D0895CF93DF93EC012091F6033091EE
:10112000F70380910A0490910B04019690930B04AD
:1011300080930A04C059DF4F8881C057D040813066
:1011400021F0CE01DF91CF9108958E819F814FEFE5
:101150008F3F940719F02817390799F788859985E3
:10116000BE010E94E809009761F3EC01CE01DF9116
:10117000CF910895DF92EF92FF920F931F93CF9339
:10118000DF937C018B01D42EE9018091090488232F
:1011900041F481E08093090484E6841758F41092A6
:1011A000090480E0DF91CF911F910F91FF90EF90A4
:1011B000DF90089588E199E064E10E942116882378
:1011C00091F0D0930F04C0930E04D8821F830E8336
:1011D000F986E88681E0DF91CF911F910F91FF9012
:1011E000EF90DF90089510920904DCCF0E940F0D5C
:1011F00008950E940F0D1092090408950E94F80DA1
:101200001092090410920D0410920C0410920B0419
:1012100010920A0408950F931F938C0110920904F1
:101220000E940B0DC8010E94F10E1F910F910895AD
:101230000F931F9300910E0410910F041092090454
:101240000E940B0DC8010E94F10E882311F4109228
:1012500009041F910F910895CF93DF93EC01209122
:10126000F6033091F70380910A0490910B040196E4
:1012700090930B0480930A04C059DF4F8881C057B4
:10128000D040813021F0CE01DF91CF9108958E8141
:101290009F814FEF8F3F940719F02817390799F76F
:1012A00088859985BE010E94E809009761F3EC01E9
:1012B000CE01DF91CF91089510921B041092270464
:1012C0001092330410923F0410924B040895EF9251
:1012D000FF920F931F93CF93DF93EC01EBE1F4E0C8
:1012E000A0E0B0E08081882361F011963C96A530A3
:1012F000B105C1F7DF91CF911F910F91FF90EF9052
:101300000895FD01EE0FFF1FEA0FFB1FEE0FFF1FF9
:10131000EE0FFF1FDF01AE5EBB4F1196DC93CE9345
:10132000EC5EFB4F608314965C934E931397169676
:101330003C932E93159718961C930E9317971B9614
:10134000FC92EE921A9781E019968C93DF91CF91DF
:101350001F910F91FF90EF900895AC01E2E1F4E04E
:1013600020E030E08185813039F02F5F3F4F3C969F
:1013700025303105B9F7089580819181841795074B
:10138000A1F7F901EE0FFF1FE20FF31FEE0FFF1F92
:10139000EE0FFF1FEE5EFB4F118611821082089543
:1013A000AC01E2E1F4E08185813031F03C9684E0EB
:1013B000EE34F807C1F7089523813481621773076B
:1013C000A8F32417350790F3118611821082EECF0F
:1013D000CF92DF92FF920F931F93CF93DF939C01E5
:1013E0008B017093110460931004E2E1F4E0C0E01B
:1013F000D0E0808191818217930771F021963C960D
:10140000C530D105B1F7C801DF91CF911F910F9180
:10141000FF90DF90CF9008958185813079F76E013C
:10142000CC0CDD1CF601EC0FFD1FEE0FFF1FEE0FC5
:10143000FF1FDF01AE5EBB4F15964C9115971696B8
:101440002C91EC5EFB4FD8018C91F0808F1508F445
:1014500044C0FF2071F0D801842F922F9C01F90124
:101460001A968C911A97819311968E2F841B8F1543
:10147000B8F3F601EC0FFD1FEE0FFF1FEE0FFF1F7D
:10148000EE5EFB4F0780F085E02D309751F002595A
:101490001F4FD8018D918D0180838C910F56104084
:1014A0008183F601EC0FFD1FEE0FFF1FEE0FFF1FF4
:1014B000EE5EFB4F82859385009719F066E00E94EF
:1014C0002116CC0DDD1DCC0FDD1FCC0FDD1FCE5E38
:1014D000DB4FEB81FC81F08296CFF82EBACF81E012
:1014E00008951F930E944814182F0E944215682FD8
:1014F000812F0E94AE3B1F9108950E9470130895A2
:101500000E94DB130895DF93CF9300D0CDB7DEB7F1
:101510009A8389830E94493A9A8389838AE691E073
:1015200062E0AE014F5F5F4F0E94DB130F900F90A0
:10153000CF91DF9108950E94B90D08950E94E5159D
:1015400008950E94B11308958DE160E070E00E945B
:10155000B1138FE59CE065E00E94211680E00895BC
:101560000E949C130895609150047091510480E191
:101570000E94B113609152047091530481E10E9462
:10158000B11381E10E9470132091520430915304F1
:101590002817390711F080E0089560915404709184
:1015A000550482E10E94B113609156047091570472
:1015B00083E10E94B113609158047091590484E151
:1015C0000E94B11360915A0470915B0485E10E94FE
:1015D000B11360915C0470915D0486E10E94B113C7
:1015E00060915E0470915F0487E10E94B113609185
:1015F00060047091610488E10E94B11360916204FB
:101600007091630489E10E94B11360916404709148
:1016100065048AE10E94B1136091680470916904C5
:101620008CE10E94B11360916A0470916B048DE1AA
:101630000E94B11389E00E949C1388E00E949C13D1
:1016400081E0089590E08F71907020915A0430915C
:101650005B04207E822B932B90935B0480935A042F
:10166000609160047091610485E10E94B11386FF6E
:1016700003C083E00E949C1381E00895BC01605088
:101680007840809160049091610480709C7F682B09
:10169000792B709361046093600488E10E94B11318
:1016A00086FF03C083E00E949C1381E0089583E0DD
:1016B0000E949C1381E008950E94030D08950E94EA
:1016C000030D08950E943D0588E592E00E942902DD
:1016D00081E008950E943B0588E592E00E9429027E
:1016E00081E008950E94AA1208958DE168E170E0FA
:1016F0000E94B11381E00E94AA1281E00E949C1313
:1017000081E0089595E0899FB0011124625D7E4FCC
:10171000809160049091610480709C7F682B792B8C
:10172000709361046093600488E10E94B11386FFA6
:1017300003C083E00E949C1381E008950E94DE3B79
:10174000982F80914E04823029F0892F0E94DB3B34
:1017500080E0089583E080934E04892F0E94DB3B54
:101760000E94E5150E943B0588E592E00E9429024F
:101770000E9426050E940F020E9424050E940F026B
:101780008DE168E170E00E94B11381E00E94AA122D
:1017900081E00E949C1381E008951F930E94DE3B2C
:1017A000982F80914E04882309F07BC010924E043C
:1017B0008BE080936C048FE180934F04892F0E940B
:1017C000DB3B0E944814182F0E944215682F812F7E
:1017D0000E94AE3B80E098EF9093510480935004B8
:1017E00082EE92E0909353048093520480E095E05F
:1017F000909355048093540480E890EE909357049E
:10180000809356048FE097EA90935904809358048C
:1018100080914F0490E0806E906690935B0480937B
:101820005A0485EE92E190935D0480935C0486E512
:101830009AE090935F0480935E0480916C0425E0AD
:10184000829FC0011124825D9E4F90649093610439
:101850008093600484EC91E090936304809362042D
:10186000109265041092640410926704109266044A
:101870008FE792E0909369048093680410926B0460
:1018800010926A040E94DE3B92E090934E040E9404
:10189000DB3B8FE59BE065E00E94211681E01F9114
:1018A000089510924E048BE080936C048FE1809336
:1018B0004F04892F0E94DB3B80E01F910895DF9346
:1018C000CF9300D0CDB7DEB7609150047091510432
:1018D00080E10E94B113609152047091530481E140
:1018E0000E94B11381E10E94701320915204309143
:1018F00053048217930789F18091F6039091F703BF
:101900009A8389830E94493A9A8389838AE691E07F
:1019100062E0AE014F5F5F4F0E94DB136091600495
:10192000709161047D7F709361046093600488E12D
:101930000E94B11386FF03C083E00E949C130E94A3
:10194000DE3B94E090934E040E94DB3B0E94B90D75
:101950000F900F90CF91DF91089560915404709192
:10196000550482E10E94B1136091560470915704AE
:1019700083E10E94B113609158047091590484E18D
:101980000E94B11360915A0470915B0485E10E943A
:10199000B11360915C0470915D0486E10E94B11303
:1019A00060915E0470915F0487E10E94B1136091C1
:1019B00060047091610488E10E94B1136091620437
:1019C0007091630489E10E94B11360916404709185
:1019D00065048AE10E94B113609168047091690402
:1019E0008CE10E94B11360916A0470916B048DE1E7
:1019F0000E94B11389E00E949C1388E00E949C130E
:101A00007BCF81E0089581E0089581E0089581E031
:101A1000089581E0089582E08093EB0408950F9388
:101A20001F930E94DE3B082F8091EB04882341F036
:101A300010E0802F0E94DB3B812F1F910F910895B2
:101A400086EC9EE065E00E942116882389F381E000
:101A50008093EB0411E0802F0E94DB3B812F1F91CC
:101A60000F9108950E94681208950E947D080895BC
:101A70000E94DE3B92E09093EB040E94DB3BE091FE
:101A8000E904F091EA0480818B508083CF0160E00B
:101A90000E947D0808950F931F930E94DE3B92E001
:101AA0009093EB040091E9041091EA04F80190810D
:101AB0009B5090830E94DB3BC80161E00E947D083F
:101AC0001F910F9108950E944A1108950E942C09B8
:101AD00008950F931F93CF93DF930E94DE3B0091F5
:101AE0006D0410916E040E94DB3BC8010E942C091A
:101AF000EC010E94DE3B209721F0D0936E04C0934E
:101B00006D04E0916D04F0916E04108210927004E7
:101B10000E94DB3BDF91CF911F910F9108950E94AE
:101B2000561208950E94701308950E94570B08954D
:101B30000E94FC1208950E94C21108950E949C13F5
:101B400008950E9456128FE30E94701388E00E944D
:101B50009C1388E00E949C130E94DE3B109270044C
:101B60000E94DB3B80E00E94FC1208950E948412D8
:101B700008951F930E94DE3B1091EB040E94DB3B13
:101B80001A3019F081E01F9108950E94570B80E0F0
:101B90000E94FC1281E00E9484120E94DE3B92E0CF
:101BA0009093EB040E94DB3B81E01F9108950E941B
:101BB0009E0B08951F930E94DE3B1091EB040E9440
:101BC000DB3B112319F080E01F9108950E94DE3B5A
:101BD0009AE09093EB041092E604E0916D04F0918A
:101BE0006E0410820E94DB3B0E949E0B1F910895A1
:101BF0000E94DE3B1092EB0410926F041092E504F9
:101C00001092700421E734E030936E0420936D0449
:101C1000109271040E94DB3B8091F6039091F703D0
:101C20009093E8048093E7040E94CD0B089585E02B
:101C30000E949C1380E00E949C1386958695869551
:101C400080FD13C00E94DE3B92E09093EB040E9463
:101C5000DB3BE091E904F091EA0480818B508083C2
:101C6000CF0160E00E947D08089581E00E94841207
:101C70000895CF93DF93EC018091EB048330C9F199
:101C8000843091F081E0DF91CF9108950E94681235
:101C9000E091E904F091EA04EE58FF4FD183C0834C
:101CA0008091EB04843071F386E08093EB040E9412
:101CB000681281E00E9484128BE49DE065E00E943E
:101CC00021168823F9F60E94DE3B92E09093EB0404
:101CD0000E94DB3BE091E904F091EA0480818B50A3
:101CE0008083CF0160E00E947D0881E0DF91CF9189
:101CF000089580E00E9484120E949A05892B31F297
:101D000084E08093EB04E091E904F091EA04EE585A
:101D1000FF4FD183C08381E0DF91CF91089589E0A7
:101D20000E949C13882361F08091EC046091E90487
:101D30007091EA048F5F0E94C2118823A1F0089578
:101D40000E94DE3B92E09093EB040E94DB3BE0912B
:101D5000E904F091EA0480818B508083CF0160E038
:101D60000E947D0808950E94DE3B92E09093EB0470
:101D70000E94DB3BE091E904F091EA0480818B5002
:101D80008083CF0160E00E947D0808951F930E9428
:101D9000DE3B982F8091EB04813029F0892F0E943F
:101DA000DB3B1F9108951092EB04892F0E94DB3BCF
:101DB0000E94DE3B1091EB040E94DB3B112389F76C
:101DC0000E94DE3B9AE09093EB041092E604E091CF
:101DD0006D04F0916E0410820E94DB3B0E949E0B0A
:101DE000E0CF1F93CF93DF93EC010E94DE3B109175
:101DF000EB040E94DB3B123029F080E0DF91CF91B1
:101E00001F91089588E08A838091E5048823C9F5AD
:101E100081E089838FEF9FEF9D838C838E819F81EB
:101E20000E94493A9F838E838881855F8883809151
:101E30006F048F5F80936F048B83CE58DF4F1982BE
:101E40001882C257D040888182508093EC04D0938E
:101E5000EA04C093E90488E08093E6040E94DE3B34
:101E600095E09093EB040E94DB3B8FE89EE065E0F9
:101E70000E942116882341F081E0DF91CF911F91CC
:101E8000089581E28983C6CF0E94DE3B92E0909361
:101E9000EB040E94DB3BE091E904F091EA048081CD
:101EA0008B508083CF0160E00E947D0881E0E5CF08
:101EB0001F930E94DE3B1091EB040E94DB3B153028
:101EC000B1F00E9456128FE30E94701388E00E94C6
:101ED0009C1388E00E949C130E94DE3B10927004C9
:101EE0000E94DB3B80E00E94FC121F9108950E943B
:101EF000BC05892B71F00E94CE05892BB1F30E949D
:101F0000DE3B93E09093EB040E94DB3B0E94170EB4
:101F1000ECCF0E945505892B71F70E94A10DEBCFE4
:101F20001F930E94DE3B1091EB040E94DB3B1530B7
:101F3000B9F00E9456128FE30E94701388E00E944D
:101F40009C1388E00E949C130E94DE3B1092700458
:101F50000E94DB3B80E00E94FC1281E01F9108950B
:101F60000E94BC05892B71F00E94CE05892BA9F334
:101F70000E94DE3B93E09093EB040E94DB3B0E94C7
:101F8000170EEBCF0E945505892B71F70E94A10D0A
:101F9000EBCF1F930E94BC05892B39F10E94DE3BD9
:101FA000182F87EF90E165E00E9421168823D1F475
:101FB0000E9456128FE30E94701388E00E949C13C7
:101FC00088E00E949C130E94DE3B109270040E94E5
:101FD000DB3B80E00E94FC12812F0E94DB3B81E012
:101FE0001F9108950E945612F7CF0E9456128FE358
:101FF0000E94701388E00E949C1388E00E949C134A
:102000000E94DE3B109270040E94DB3B80E00E9445
:10201000FC1281E01F9108951F93CF93DF93182F37
:10202000EB010E94DE3B0E94DB3B0E94BC05892B3A
:1020300071F1112369F0113758F4D0936E04C093F5
:102040006D0489818770813019F48A81883021F18B
:102050000E9456128FE30E94701388E00E949C1326
:1020600088E00E949C130E94DE3B109270040E9444
:10207000DB3B80E00E94FC120E94DE3B1092700469
:102080000E94DB3B81E0DF91CF911F9108950E9478
:102090005505892B71F6DCCF88818B508883853676
:1020A00008F049C08E819F810E945F3A9F838E8392
:1020B000E0916D04F0916E04212F30E0215030400A
:1020C000DE01A20FB31F2F5F3F4FE059FF4F8C91EE
:1020D000881F8827881F80833297C20FD31F2297BB
:1020E000888181938C918F7780830E94DE3B182FAB
:1020F00089E69DE065E00E942116882311F4109284
:102100007004812F0E94DB3B0E94BC05892B21F4C7
:102110000E945505892B61F00E945505892B41F4D9
:1021200087EF90E165E00E942116882309F0AACF8D
:102130000E94A10DA7CF0E94A10D0E94DE3B10922C
:1021400070040E94DB3B9ECF1F930E94BC05892B2D
:1021500021F40E945505892BB1F00E94DE3B182F17
:1021600080917004882329F581E080937004812F89
:102170000E94DB3B60916D0470916E0480E70E94C9
:102180004A11882309F10E9456128FE30E947013AE
:1021900088E00E949C1388E00E949C130E94DE3B12
:1021A000109270040E94DB3B80E00E94FC121F91A1
:1021B000089587EF90E165E00E9421168823A1F041
:1021C000812F0E94DB3BDFCF0E94DE3B1092700428
:1021D0000E94DB3B87EF90E165E00E942116882397
:1021E00031F70E94A10DE3CF0E94A10DE9CF1F930B
:1021F0000E94BC05892B21F40E945505892BB1F062
:102200000E94DE3B182F80917004882329F581E01D
:1022100080937004812F0E94DB3B60916D0470916C
:102220006E0480E70E944A11882309F10E94561229
:102230008FE30E94701388E00E949C1388E00E9444
:102240009C130E94DE3B109270040E94DB3B80E0F6
:102250000E94FC121F91089587EF90E165E00E94B3
:1022600021168823A1F0812F0E94DB3BDFCF0E9443
:10227000DE3B109270040E94DB3B87EF90E165E04B
:102280000E942116882331F70E94A10DE3CF0E94FE
:10229000A10DE9CF0F931F93CF93DF93182FEB017D
:1022A0000E94DE3B982F8091F404882309F055C0EA
:1022B00081E08093F404892F0E94DB3B0E94DE3B87
:1022C000082F1092EE04D093F004C093EF040E9404
:1022D000AC058FE78FB9779BFECF8FB11FB8779B87
:1022E000FECF8FB18093F504882311F1E091EF04C4
:1022F000F091F00480838091F5048F5F8093F50462
:10230000181718F41093F504812F823088F091E0AB
:102310001FB8779BFECF8FB1E091EF04F091F004EE
:10232000E90FF11D80839F5F8091F504981780F37A
:1023300081E08093EE04802F0E94DB3B0E94AA057F
:1023400085E292E165E00E942116882379F081E020
:10235000DF91CF911F910F910895892F0E94DB3B50
:1023600080E0DF91CF911F910F9108950E94DE3B95
:102370001092F4040E94DB3B80E0DF91CF911F912B
:102380000F9108950F931F93CF93DF93182FEB01B5
:102390000E94DE3B982F8091F104882309F048C009
:1023A00081E08093F104892F0E94DB3B0E94DE3B99
:1023B000082F1092EE041093ED04D093F304C09311
:1023C000F2040E94AC058EE38FB9779BFECF1FB15C
:1023D0002091ED04222381F090E0E091F204F0914D
:1023E000F30481918FB9F093F304E093F204779BA7
:1023F000FECF9F5F9217A8F381E08093EE04802FB9
:102400000E94DB3B0E94AA058FE392E165E00E94F7
:102410002116882389F40E94DE3B1092F1040E9469
:10242000DB3B10E0812FDF91CF911F910F91089539
:10243000892F0E94DB3B10E0812FDF91CF911F910C
:102440000F9108950E940C100895FF920F931F930F
:102450000E94DE3BF090F5040091EF041091F0042F
:102460001092F4040E94DB3B8F2DB8010E940C10E7
:102470001F910F91FF9008950E94900F0895FF9271
:102480000F931F930E94DE3BF090ED040091F20445
:102490001091F3041092F1040E94DB3B8F2DB801E0
:1024A0000E94900F1F910F91FF90089589B78F7B25
:1024B00089BF81E0089580E0089580E008950E943A
:1024C0008F1408950E94390E08950E94841408956F
:1024D0000E94841481E008950E94921408950E943D
:1024E000801408950E94390E882329F00E948F14C9
:1024F000882321F408950E94841408950E94801472
:1025000008950E94761408950F931F93182F0E9428
:10251000DE3B082F0E948414812F0E9492140E9497
:1025200080140E947614802F0E94DB3B81E01F9173
:102530000F910895982F9A01AB018BE0692F0E94AB
:10254000D5360895982F9A01AB018AE0692F0E9431
:10255000D53608951F93182F0E94DE3B1093FF0479
:102560000E94DB3B0E9483058093FE048BE061E0C8
:1025700021E030E040E050E00E94D5361F91089500
:102580000E94A40A08951F930E948305182F90911A
:10259000FF048091FE04891711F0191761F0109360
:1025A000FE048BE061E021E030E040E050E00E947A
:1025B000D5361F9108950E94A40A882381F781E0EF
:1025C000F8CF0E94BC05282F9091F6048091FD045D
:1025D000891711F0291759F02093FD048AE061E072
:1025E00021E030E040E050E00E94D536089581E0DF
:1025F00008950E94C90F08950F931F93182F0E94EA
:10260000DE3B082F812F0E94170589B7806489BFA0
:10261000802F0E94DB3B81E01F910F9108951F9254
:102620000F920FB60F920BB60F9211240F931F93B8
:102630002F933F934F935F936F937F938F939F93CA
:10264000AF93BF93EF93FF930E94DE3B182F0E943E
:10265000AD168823B9F500E0812F0E94DB3B0E9474
:10266000C90F882331F489B78F7B89BF88B780640D
:1026700088BF0E94DE3B282F013061F48DB79EB7E2
:1026800090934F0580934E058091A1059091A205EE
:102690009EBF8DBF822F0E94DB3BFF91EF91BF91C8
:1026A000AF919F918F917F916F915F914F913F91EA
:1026B0002F911F910F910F900BBE0F900FBE0F9097
:1026C0001F9018958DB79EB79093A2058093A10592
:1026D00080914E0590914F059EBF8DBF01E0BCCF0C
:1026E000EF92FF920F931F93182F0E94DE3BF82E5C
:1026F000109209050E94AC0510641FB9779BFECFAC
:102700008FB11FB8779BFECF8FB11FB8779BFECFDD
:10271000182F00E0EFB00E94AA0581E08093090520
:102720008F2D0E94DB3BFF24E02AF12AC7011F9175
:102730000F91FF90EF9008950F931F93182F0E9411
:10274000DE3B082F0E94AC051FB9779BFECF1FB15F
:10275000802F0E94DB3B0E94AA05812F1F910F91C1
:102760000895DF92EF92FF920F931F93182FD62EAA
:10277000F72E0E94DE3BE82E109209050E94AC0560
:102780001FB9779BFECF0FB11F3030F0FFB8779B9A
:10279000FECFDFB8779BFECF81E0809309058E2DB9
:1027A0000E94DB3B0E94AA05802F1F910F91FF9092
:1027B000EF90DF900895EF92FF920F931F93CF93C6
:1027C000DF93EC01F62E8A0180910905882339F404
:1027D000DF91CF911F910F91FF90EF9008950E948C
:1027E000DE3BE82E10920905D0930B05C0930A0535
:1027F000F092060510930805009307050E94AC05AA
:1028000020910A0530910B05822F80688FB9779B44
:10281000FECF8FB136952795822F807C8FB9779B1D
:10282000FECF8FB150910605552381F040910705E9
:10283000842F909108059C01F90180818FB9779BC5
:10284000FECF31968E2F841B8517B8F38E2D0E94F4
:10285000DB3B81E0809309058BE394E165E00E9416
:102860002116DF91CF911F910F91FF90EF90089566
:102870000E946F0A089540910705509108058091C4
:102880000A0590910B05609106050E946F0A089554
:102890001F9381E0809309050E946C030E945603F8
:1028A0000E947A030E9437050E944D050E94B405DC
:1028B0000E947D050E9494050E94A8050E94C805FB
:1028C0000E94DE3B182F0E947A030E946C030E9434
:1028D0005603709A6C9A6B986A98699868986E9A81
:1028E000812F0E94DB3B81E01F9108958EB58F7E82
:1028F0008EBD8EB5877F8EBD87B7806287BF0895F6
:1029000086B7846086BF089587B78F7D87BF86B7F7
:10291000806286BF089581E0089581E0089586B7BA
:1029200082700895882339F48EB58F7B8EBD86B76B
:10293000806286BF08958EB580648EBD86B7806242
:1029400086BF08951F920F920FB60F920BB60F928B
:1029500011240F931F932F933F934F935F936F9384
:102960007F938F939F93AF93BF93EF93FF930E94B7
:10297000DE3B182F0E94AD16882309F047C000E007
:10298000812F0E94DB3B0E94DE3B282F80911405A3
:10299000882381F08091190580931C0588608093BD
:1029A00019058EBD80911A0590911B059BBD8ABDAE
:1029B00010921405822F0E94DB3B0E94DE3B282FE1
:1029C000013061F48DB79EB790934F0580934E050B
:1029D0008091A1059091A2059EBF8DBF822F0E947C
:1029E000DB3BFF91EF91BF91AF919F918F917F91D1
:1029F0006F915F914F913F912F911F910F910F9088
:102A00000BBE0F900FBE0F901F9018958DB79EB7FD
:102A10009093A2058093A10580914E0590914F055A
:102A20009EBF8DBF01E0ACCF0F931F930E94DE3B92
:102A300006B517B50E94DB3BC8011F910F910895A1
:102A4000EF92FF921F937C01162F17700E94DE3BBE
:102A50001FBC97B79F7E97BF97B79B7F97BF97B7CE
:102A60009F7D97BF1DBC1CBCFBBCEABC96B79061A8
:102A700096BF18601EBD0E94DB3B81E01F91FF9056
:102A8000EF9008950E94DE3B94E090931C052FEF99
:102A900030E030931B0520931A050E94DB3B81E058
:102AA00008950E94721208951F920F920FB60F920E
:102AB0000BB60F9211240F931F932F933F934F93B5
:102AC0005F936F937F938F939F93AF93BF93EF9396
:102AD000FF930E94DE3B082F0E94AD16882309F465
:102AE0003FC08DB79EB79093A2058093A1058091BA
:102AF0004E0590914F059EBF8DBF802F0E94DB3BFE
:102B00000E94DE3B06B517B50E94DB3BC8010E9460
:102B100072120E94DE3B282F8DB79EB790934F050F
:102B200080934E058091A1059091A2059EBF8DBF17
:102B3000822F0E94DB3BFF91EF91BF91AF919F915C
:102B40008F917F916F915F914F913F912F911F9145
:102B50000F910F900BBE0F900FBE0F901F90189506
:102B6000802F0E94DB3B0E94DE3B06B517B50E941A
:102B7000DB3BC8010E9472120E94DE3B282FD8CF97
:102B80000F931F930E94DE3B00911A0510911B05C5
:102B90000E94DB3B0E94DE3B1FBC97B79F7E97BF26
:102BA00097B79B7F97BF97B79F7D97BF1DBC1CBCF6
:102BB0001BBD0ABD96B7906196BF98E09EBD0E946E
:102BC000DB3B81E01F910F910895EF92FF921F93DD
:102BD0000E94DE3BE0901A05F0901B0510911C0549
:102BE0000E94DB3B17700E94DE3B1FBC97B79F7EA5
:102BF00097BF97B79B7F97BF97B79F7D97BF1DBC28
:102C00001CBCFBBCEABC96B7906196BF18601EBDA9
:102C10000E94DB3B81E01F91FF90EF90089510929E
:102C20004D0580E090E0FC01EE0FFF1FE80FF91F5B
:102C3000E35EFA4F1182108201968031910599F777
:102C400008951F93CF93DF93EC01162F0E94DE3B74
:102C5000482F80914D05803191F020E030E0F9015E
:102C6000EE0FFF1FE20FF31FE35EFA4F80819181A9
:102C7000892B69F02F5F3F4F2031310581F7842F79
:102C80000E94DB3B80E0DF91CF911F910895D183BB
:102C9000C083128380914D058F5F80934D05842FF3
:102CA0000E94DB3B81E0DF91CF911F910895CF938C
:102CB000DF930E94DE3B682F80914D058823C1F190
:102CC000C0E0D0E040E050E020E030E0F901EE0F5D
:102CD000FF1FE20FF31FE35EFA4F80819181892B82
:102CE00039F08281481720F4C081D1814281522F6E
:102CF0002F5F3F4F2031310549F7209721F1809117
:102D00004D05815080934D05852F90E0FC01EE0F1D
:102D1000FF1FE80FF91FE35EFA4F11821082862F22
:102D20000E94DB3BFE01099581E0DF91CF91089580
:102D3000862F0E94DB3B0E9419020E94170280E04E
:102D4000DF91CF910895862F0E94DB3B81E0DF91D8
:102D5000CF910895FC01099508952DB73EB740E045
:102D60008091A3059091A4058217930708F041E094
:102D7000842F089590E0FC01EE0FFF1FEE0FFF1F60
:102D8000EE0FFF1F9F01220F331F220F331FE20F91
:102D9000F31FE81BF90BEE5AFA4F748F638F0895F7
:102DA000FF93FFB7FF930F921F922F923F924F9284
:102DB0005F926F927F928F929F92AF92BF92CF92CB
:102DC000DF92EF92FF920F931F932F933F934F93B6
:102DD0005F936F937F938F939F93AF93BF93CF93A3
:102DE000DF93EF93FF938DB79EB790934F0580933A
:102DF0004E05E0915005F0915105808191819EBF73
:102E00008DBFFF91EF91DF91CF91BF91AF919F91D6
:102E10008F917F916F915F914F913F912F911F9172
:102E20000F91FF90EF90DF90CF90BF90AF909F9069
:102E30008F907F906F905F904F903F902F901F905A
:102E40000F90FF91FFBFFF910895FF93FFB7FF938E
:102E50000F921F922F923F924F925F926F927F92AA
:102E60008F929F92AF92BF92CF92DF92EF92FF929A
:102E70000F931F932F933F934F935F936F937F9382
:102E80008F939F93AF93BF93CF93DF93EF93FF9372
:102E9000E0915005F09151058DB79EB791838083E5
:102EA00080914E0590914F059EBF8DBFFF91EF9190
:102EB000DF91CF91BF91AF919F918F917F916F9152
:102EC0005F914F913F912F911F910F91FF90EF9044
:102ED000DF90CF90BF90AF909F908F907F906F903A
:102EE0005F904F903F902F901F900F90FF91FFBFEA
:102EF000FF910895AC012DB73EB78091A305909145
:102F0000A4058217930750F0E0915005F091510508
:102F100084E08283568F458F0E9425170895809103
:102F2000A0058111089588E999E162E00E942116C7
:102F300081E08093A0050895823008F0089590E024
:102F40009C01220F331F220F331F220F331FF90161
:102F5000EE0FFF1FEE0FFF1FE20FF31FE81BF90B31
:102F6000EE5AFA4F8281853069F08091A00588235E
:102F700029F788E999E162E00E94211681E08093B7
:102F8000A005089582E08283F0CFEF92FF920F9325
:102F90001F93CF93DF930E94DE3B282F809154052F
:102FA000823009F487C0CFEFDFEFEE24EA94FE2CE5
:102FB00080917B05823009F467C08FEFCF3FD8073F
:102FC00039F18701822F0E94DB3BCD2B81F10E94DA
:102FD000DE3B9701220F331F220F331F220F331FB7
:102FE000F901EE0FFF1FEE0FFF1FE20FF31FEE19A7
:102FF000FF09EE5AFA4F9481915094830E94DB3B73
:10300000C801DF91CF911F910F91FF90EF9008952C
:103010001092A005822F0E94DB3B0FEF1FEFC8012B
:10302000DF91CF911F910F91FF90EF9008950E9433
:10303000DE3B282F80915405823009F449C08091ED
:103040007B05823009F43FC0C701880F991F880FA4
:10305000991F880F991FFC01EE0FFF1FEE0FFF1F36
:10306000E80FF91FEE19FF09EE5AFA4F84818150DB
:103070008483822F0E94DB3BC801DF91CF911F9197
:103080000F91FF90EF90089580917D0590E0C81713
:10309000D9070CF096CF80917D05C82FD0E051E084
:1030A000E52EF12C8701822F0E94DB3BCD2B09F00E
:1030B0008ECFBDCF8091560580915605C82FD0E0A8
:1030C000EE24FF2475CF80917C0580937D05BCCFD5
:1030D0008091550580935605B2CF1F93CF93DF9310
:1030E0000E94DE3B182FE0915005F09151051282AD
:1030F00081899289638974890E94D0090E94271B63
:103100009C01220F331F220F331F220F331FE901AF
:10311000CC0FDD1FCC0FDD1FC20FD31FC81BD90B77
:10312000CE5ADA4FEB8DFC8D309719F009951C8E35
:103130001B8E0E942517812F0E94DB3BDF91CF91D0
:103140001F910895E0915005F0915105858D968D60
:103150000E94AA160E946D182F923F924F925F9282
:103160006F927F928F929F92AF92BF92CF92DF9297
:10317000EF92FF920F931F93CF93DF933C011B01BC
:103180004A0129018DB79EB72091A3053091A4056E
:103190002817390760F424173507F8F08091540593
:1031A000882309F49FC080917B058823D9F020E013
:1031B00030E0C901DF91CF911F910F91FF90EF9007
:1031C000DF90CF90BF90AF909F908F907F906F9047
:1031D0005F904F903F902F9008955093A405409397
:1031E000A305DCCFC1E0D0E00E94DE3B182FCE016A
:1031F000880F991F880F991F880F991FFC01EE0FE8
:10320000FF1FEE0FFF1FE80FF91FEC1BFD0BEE5A1F
:10321000FA4FF0935105E09350059182808282E04D
:103220008283768E658E03830483328A218A948A10
:10323000838A148E138E568A458AD08EC78AB28EA0
:10324000A18EC7010E944D3B209150053091510540
:10325000482F4F5FC9010596B7010E94943AF101CA
:10326000E40DF51D8FEF9EEE91838083938382831F
:103270008DB79EB790934F0580934E05E091500512
:10328000F0915105808191819EBF8DBF82EA98E1C6
:103290008F939F9380E090E01F9201968232910578
:1032A000D9F78DB79EB79183808380914E05909119
:1032B0004F059EBF8DBF1092510510925005809111
:1032C000A005882331F0812F0E94DB3B21E030E014
:1032D00070CF88E999E162E00E94211681E0809335
:1032E000A005F1CFC0E0D0E07FCF1F930E94DE3B6E
:1032F000182F82E595E060E070E04EE450E00E9417
:10330000CD3B109251051092500510924F0510922E
:103310004E051092A2051092A1051092A0051092E0
:10332000A4051092A305812F0E94DB3B1F910895F5
:10333000FF920F931F93CF93DF930E94DE3BF82EF3
:1033400080915405843009F4BDC080917B058430A0
:1033500009F4E1C08F2D0E94DB3B0E94DE3B282F49
:1033600080915405823009F49AC0CFEFDFEF0FEF60
:103370001FEF80917B05823009F454C0FFEFCF3FEF
:10338000DF0709F45DC0822F0E94DB3BCD2B09F4DF
:1033900062C00E94DE3B9801220F331F220F331FB1
:1033A000220F331FF901EE0FFF1FEE0FFF1FE20F79
:1033B000F31FE01BF10BEE5AFA4F94819150948366
:1033C0000E94DB3B8FEF0F3F180731F188E999E14D
:1033D00063E00E942116C8010E94ED1AAC0197FD1E
:1033E0001BC0880F991F880F991F880F991F9C0178
:1033F000220F331F220F331F820F931F841B950B45
:103400008E5A9A4F90935105809350050E94D01682
:103410001092510510925005DF91CF911F910F919D
:10342000FF90089580917D0590E0C817D9070CF0B2
:10343000AACF80917D05C82FD0E001E010E0A3CF96
:103440001092A005822F0E94DB3BDF91CF911F914C
:103450000F91FF9008950E94DE3B282F8091540524
:10346000823059F180917B05823011F1C801880FBB
:10347000991F880F991F880F991FFC01EE0FFF1FDE
:10348000EE0FFF1FE80FF91FE01BF10BEE5AFA4F8A
:10349000848181508483822F0E94DB3B93CF809173
:1034A000560580915605C82FD0E000E010E061CFAE
:1034B00080917C0580937D05D9CF809155058093BF
:1034C0005605D0CFC0E0D0E088E999E163E00E94E2
:1034D0002116CE01880F991F880F991F880F991FF9
:1034E0008C01000F111F000F111F080F191F0C1B5B
:1034F0001D0B0E5A1A4F85E0F80182838F2D0E9412
:10350000DB3BF801258D368D40E050E08C2F61E0EB
:103510000E94D53681CFC1E0D0E0D6CFAF92BF9226
:10352000CF92DF92EF92FF920F931F93CF93DF938F
:103530007C016A01590176956795680F791FC3E68A
:10354000D5E0A0E0B0E0FD01EE0FFF1FEE0FFF1F82
:10355000EE0FFF1FCF01880F991F880F991FE80FEB
:10356000F91FEA1BFB0BEE5AFA4F8281882311F1F7
:10357000EE81FF813097F1F0088119814A815B81EA
:103580009F012E5F3F4F8885998596958795280FD7
:10359000391F2E153F0520F032976E177F07D8F49C
:1035A0004F5F5F4F4C155D0528F001501040A0168D
:1035B000B10688F41196A796A230B10521F680E0F5
:1035C000DF91CF911F910F91FF90EF90DF90CF90FF
:1035D000BF90AF90089581E0F3CF9C01AC01440F00
:1035E000551F440F551F440F551FFA01EE0FFF1FC3
:1035F000EE0FFF1FE40FF51FE81BF90BEE5AFA4F11
:10360000A189B28985899689A80FB91F8D919C914E
:1036100011978F5F9E4E39F412968D919C9113975E
:103620008F5F9E4E79F0FA01EE0FFF1FEE0FFF1F26
:10363000E40FF51FE21BF30BEE5AFA4F89E0828389
:103640002FEF3FEFC90108958EE495E008954F9361
:103650005F93809150059091510525E08235920746
:1036600049F08957954051F020E030E05F914F914B
:10367000C901089580E090E09C01F8CF81E090E0DE
:103680009C01F4CFFF920F931F93082FF62E0E94F8
:10369000DE3B182F80915405863059F080917B05D0
:1036A0008630A9F0812F0E94DB3B1F910F91FF9084
:1036B000089580916F05801789F7809170058F15A7
:1036C00069F782E0809354050E948F17E7CF8091BD
:1036D0009605801739F7809197058F1519F782E0C5
:1036E00080937B050E948F17DDCF893029F480916C
:1036F000A005882321F008950E949C17089588E969
:1037000099E162E00E94211608951F920F920FB670
:103710000F921124349A37980F900FBE0F901F907C
:10372000189517B88EE086B9089517B897B18F71BC
:10373000892B87B93398349A86B1806C86B93699CB
:10374000FECF84B190E025B1379830E0237030701F
:10375000322F2227282B392BC90108951E9816983D
:103760001D9A159A81E090E00E94951B1D9815986E
:1037700008951D9815981E9A169A81E090E00E946F
:10378000951B1E9816980895A59AAD9A85E090E02D
:103790000E94951BA598AD980895A59AAD9A86E0CC
:1037A00090E00E94951BA598AD980895A49AAC9AB4
:1037B00083E090E00E94951BA498AC980895A49A89
:1037C000AC9A84E090E00E94951BA498AC98089570
:1037D0001F930E94DE3B182F0E945B028091A5057B
:1037E0008B7F8093A505812F0E94DB3B1F9108955D
:1037F0001F930E94DE3B182F0E945D028091A50559
:1038000084608093A505812F0E94DB3B1F91089562
:103810001F930E94DE3B182F8091A50582FD07C0F3
:103820000E94F81B812F0E94DB3B1F9108950E948C
:10383000E81B812F0E94DB3B1F9108951F930E947C
:10384000DE3B182F0E944B028091A5058D7F80934F
:10385000A505812F0E94DB3B1F9108951F930E94B5
:10386000DE3B182F0E944D028091A5058260809357
:10387000A505812F0E94DB3B1F9108951F930E9495
:10388000DE3B182F8091A50581FD07C00E942E1CEC
:10389000812F0E94DB3B1F9108950E941E1C812FE7
:1038A0000E94DB3B1F9108951F930E94DE3B182F5F
:1038B0000E9439028091A5058E7F8093A505812FF6
:1038C0000E94DB3B1F9108951F930E94DE3B182F3F
:1038D0000E943B028091A50581608093A505812F00
:1038E0000E94DB3B1F9108951F930E94DE3B182F1F
:1038F0008091A50580FD07C00E94641C812F0E9455
:10390000DB3B1F9108950E94541C812F0E94DB3BDA
:103910001F9108951F930E94DE3B182F1092A5055A
:103920000E9447020E9465020E9457020E943902CB
:103930000E945B020E944B02812F0E94DB3B1F9181
:1039400008951F930E94DE3B182F0E94AA03812F27
:103950000E94DB3B1F9108951F930E94DE3B182FAE
:103960000E94A11C0E949E03812F0E94DB3B1F919D
:1039700008951F930E94DE3B182F0E94A11C0E94F5
:103980009C03812F0E94DB3B1F9108950E94F31C32
:1039900008950E942D1D08950E94551D08950E94AE
:1039A000751D08950E94361E08950E94531E0895A5
:1039B0000E948E1D08950E94CC1D08950E94FF1D37
:1039C00008950E941F1E08950E94931E08950E944C
:1039D000B01E08950E946A1E08950E94C71E089591
:1039E0000E94D11E0895BF92CF92DF92EF92FF9274
:1039F0000F931F93DF93CF9300D000D0CDB7DEB7E6
:103A00006C0149835A836B837C830E94DE3BB82E12
:103A1000E980FA800B811C81E199FECFC601B701D4
:103A20000E947755E199FECF980144275527C6019A
:103A30000296B9010E9477558B2D0E94DB3B0F90B7
:103A40000F900F900F90CF91DF911F910F91FF90EA
:103A5000EF90DF90CF90BF900895DF92EF92FF92AA
:103A60000F931F93CF93DF93EC017A018B010E9498
:103A7000DE3BD82EE199FECFCE01B7010E947755EB
:103A8000E199FECF980144275527CE010296B9014E
:103A90000E9477558D2D0E94DB3BDF91CF911F91C6
:103AA0000F91FF90EF90DF900895FF920F931F9377
:103AB000DF93CF9300D0CDB7DEB78C017A836983D3
:103AC0000E94DE3BF82EE199FECF69817A81C80120
:103AD0000E9477558F2D0E94DB3B0F900F90CF9166
:103AE000DF911F910F91FF900895FF920F931F9305
:103AF000CF93DF93EC018B010E94DE3BF82EE1991E
:103B0000FECFCE01B8010E9477558F2D0E94DB3B7E
:103B1000DF91CF911F910F91FF900895DF92EF9267
:103B2000FF920F931F93DF93CF9300D000D0CDB7B8
:103B3000DEB78C010E94DE3BD82EE199FECFC80192
:103B40000E945A557C01E199FECFC80102960E945D
:103B50005A55A0E0B0E0DC0199278827970140E0A2
:103B600050E0820F931FA41FB51F89839A83AB83F4
:103B7000BC838D2D0E94DB3B69817A818B819C8186
:103B80000F900F900F900F90CF91DF911F910F9199
:103B9000FF90EF90DF900895CF92DF92EF92FF9227
:103BA0000F931F93CF93DF93EC010E94DE3B182FFE
:103BB000E199FECFCE010E945A556C01E199FECFEA
:103BC000CE0102960E945A557C01812F0E94DB3B58
:103BD00000E010E08701FF24EE24C601A0E0B0E081
:103BE000E80EF91E0A1F1B1FB701C801DF91CF9114
:103BF0001F910F91FF90EF90DF90CF900895FF926B
:103C00000F931F93DF93CF9300D0CDB7DEB78C0116
:103C10000E94DE3BF82EE199FECFC8010E945A5562
:103C20009A8389838F2D0E94DB3B89819A810F9033
:103C30000F90CF91DF911F910F91FF900895FF9208
:103C40000F931F938C010E94DE3BF82EE199FECF6B
:103C5000C8010E945A55182F092F8F2D0E94DB3B57
:103C6000812F902F1F910F91FF900895FF920F9336
:103C70001F93DF93CF930F92CDB7DEB78C0169838B
:103C80000E94DE3BF82EE199FECFC80169810E94B7
:103C90006A558F2D0E94DB3B0F90CF91DF911F91D2
:103CA0000F91FF9008950F931F93CF93DF93EC0133
:103CB000062F0E94DE3B182FE199FECFCE01602F28
:103CC0000E946A55812F0E94DB3BDF91CF911F91AB
:103CD0000F910895CF92DF92EF92FF920F931F936F
:103CE000CF93DF937C018B01D42E0E94DE3BC82E44
:103CF0001016110664F4C0E0D0E0CE018E0D9F1DB9
:103D00006D2D0E94531E2196C017D107B4F38C2D40
:103D10000E94DB3BDF91CF911F910F91FF90EF90BD
:103D2000DF90CF900895FF920F931F93DF93CF936F
:103D30000F92CDB7DEB78C010E94DE3BF82EE199E1
:103D4000FECFC8010E94525589838F2D0E94DB3B14
:103D500089810F90CF91DF911F910F91FF9008956E
:103D60000F931F93CF93DF93EC010E94DE3B082F4C
:103D7000E199FECFCE010E945255182F802F0E944C
:103D8000DB3B812FDF91CF911F910F9108959C0113
:103D9000FB01E199FECFCA01B901AF010E94605554
:103DA00008959C01FB01E199FECFCA01B901AF0161
:103DB0000E94425508951092A6051092B0050895EC
:103DC0008091A605882381F18091B005882379F13F
:103DD00042E050E09A01220F331FCA01880F991F59
:103DE000880F991F880F991F280F391F2A553A4F9E
:103DF00081E0F901808341831382FA01EE0FFF1FF6
:103E0000EE0FFF1FE40FF51FEE0FFF1FE855FA4FEF
:103E100010828FEF9FEFAFEFBFEFF901868397839B
:103E2000A087B187CA01089540E050E0D3CF41E0B8
:103E300050E0D0CF9C01FC01EE0FFF1FEE0FFF1FE3
:103E4000EE0FFF1F220F331FE20FF31FEA55FA4F49
:103E5000108208951092A6051092B005089580E092
:103E600090E00E94742620E030E0019711F0C90133
:103E7000089521E030E0C9010895CF92DF92EF92DA
:103E8000FF920F931F93CF93DF93EC017A018B0185
:103E9000F9012115310509F447C02E813F8148857C
:103EA00059856901E130F105B1F157FD1FC08C81E1
:103EB0009D81A0E0B0E082179307A407B507B4F096
:103EC000329719F020E030E01CC0B801A701480F7C
:103ED000591F6A1F7B1F4E835F836887798777FD31
:103EE00005C084179507A607B70764F7C601AA2778
:103EF00097FDA095BA2F8E839F83A887B9872FEF50
:103F00003FEFC901DF91CF911F910F91FF90EF908B
:103F1000DF90CF9008952E0D3F1D401F511F2E831F
:103F20003F8348875987C1CF8C819D81A0E0B0E055
:103F300084179507A607B70714F34E835F83688736
:103F4000798720E030E0DDCF5F926F927F928F9291
:103F50009F92AF92BF92CF92DF92EF92FF920F9318
:103F60001F93DF93CF93CDB7DEB72D970FB6F8949D
:103F7000DEBF0FBECDBF3C014B0108948108910804
:103F8000880E991ED4011C9274010894E108F1086E
:103F90006A015E010894A11CB11C8FE2582EC50174
:103FA000B6010E948029C5010E944D3B482F082F71
:103FB000192FC701801B910BB5010E94943AF7019C
:103FC000508200951095E00EF11EC6016FE170E081
:103FD0000E94FB25C82EDD24C114D10401F7D701AE
:103FE0005C92B4016E197F09161617065CF5F30191
:103FF00020E030E04FE205C00894E11CF11CD7013D
:104000004C9141932F5F3F4F26173707ACF3F301D5
:10401000E60FF71F319710822D960FB6F894DEBF8A
:104020000FBECDBFCF91DF911F910F91FF90EF9009
:10403000DF90CF90BF90AF909F908F907F906F90C8
:104040005F900895F301E6CF0E947B280895CF92F8
:10405000DF92EF92FF921F93CF93DF936C01EB01FE
:104060007A01188211E003C01F5F113689F0812F99
:10407000B7010E94EA260197B9F78881F601E80F97
:10408000F11D108388818F5F88831F5F113679F758
:10409000DF91CF911F91FF90EF90DF90CF90089527
:1040A000EF92FF920F931F937C018B01CB0160E095
:1040B00070E04CE050E097010E945525C8016CE08B
:1040C00070E00E94FB25F7018487C8016DE170E074
:1040D0000E94FB25F7018587C8016EE170E00E9410
:1040E000FB25F70186871F910F91FF90EF900895B0
:1040F0005F926F927F928F929F92AF92BF92CF9278
:10410000DF92EF92FF920F931F93DF93CF93CDB780
:10411000DEB72D970FB6F894DEBF0FBECDBF3C01C2
:104120004B01089481089108880E991ED4011C92B5
:1041300074010894E108F1080E9436296C015E01BF
:104140000894A11CB11C9FE2592EC501B6010E9422
:104150008029C5010E944D3B482F082F192FC70108
:10416000801B910BB5010E94943AF7015082009593
:104170001095E00EF11EC6016FE170E00E94FB2574
:10418000C82EDD24C114D10401F7D7015C92B4011B
:104190006E197F09161617065CF5F30120E030E072
:1041A0004FE205C00894E11CF11CD7014C914193EA
:1041B0002F5F3F4F26173707ACF3F301E60FF71FCA
:1041C000319710822D960FB6F894DEBF0FBECDBF8B
:1041D000CF91DF911F910F91FF90EF90DF90CF90E3
:1041E000BF90AF909F908F907F906F905F90089559
:1041F000F301E6CFDF93CF9300D0CDB7DEB7BE019A
:104200006F5F7F4F0E94FB2B9C018FEF2F3F380782
:1042100031F4C9010F900F90CF91DF9108958981FA
:104220009A81892BB1F72FEF3FEFF3CFDF93CF9335
:1042300000D0CDB7DEB7BE016F5F7F4F0E94FB2B72
:104240000E943B290F900F90CF91DF9108956F92BC
:104250007F928F929F92AF92BF92CF92DF92EF9216
:10426000FF920F931F93DF93CF9300D000D0CDB771
:10427000DEB77C018B01CB010E945426B82EA92EFB
:10428000C8010E944D3B6C01C701BE016F5F7F4FAB
:104290000E94FB2B4C01C801BE016D5F7F4F0E9445
:1042A000FB2BF82E0E94022E782E692EC401672D5A
:1042B000762D0E946A270C0D1D1D0B19872D962D3A
:1042C00060E070E0402F50E02B2D3A2D0E944625F3
:1042D000872D962D602F70E040E00E94AC25872D41
:1042E000962D6FE170E04F2D0E94AC258F2D672D2C
:1042F0000E94DB292EE0E22EF12C07C00894E11C7D
:10430000F11C86E1E816F104E9F0C401B7010E944E
:10431000FB25082F882391F30E94032D182F872D4A
:10432000962DB701412F0E94AC25802F90E0612F80
:1043300070E00E943C270894E11CF11C86E1E8161D
:10434000F10419F780E090E00F900F900F900F901C
:10435000CF91DF911F910F91FF90EF90DF90CF9061
:10436000BF90AF909F908F907F906F9008959F9295
:10437000AF92BF92CF92DF92EF92FF920F931F9373
:10438000DF93CF9300D000D0CDB7DEB77C018B0197
:10439000CB010E945426A82E992EC8010E944D3BA5
:1043A0006C01C701BE016F5F7F4F0E94FB2BF82E8F
:1043B000E92E6FE170E00E94FB256F2D0E94B82965
:1043C000C801BE016D5F7F4F0E94FB2BB82E8F2D61
:1043D0009E2D6FE170E04B2D0E94AC250C0D1D1D34
:1043E0000A198F2D9E2D60E070E0402F50E02A2D9D
:1043F000392D0E9446258F2D9E2D602F70E040E0C4
:104400000E94AC258B2D6F2D0E94DB2980E090E06F
:104410000F900F900F900F90CF91DF911F910F9100
:10442000FF90EF90DF90CF90BF90AF909F90089556
:104430002F923F924F925F926F927F928F929F92B4
:10444000AF92BF92CF92DF92EF92FF920F931F93A2
:10445000CF93DF93EC012B013A01EE80FF800885BA
:1044600019855A01CC24B7FCC094DC2CA601950117
:104470002E0D3F1D401F511F6C817D81CB01A0E09F
:10448000B0E082179307A407B507ECF4972F987F45
:1044900080E07770672B11F08050984FA0E0B0E07B
:1044A00082179307A407B5070CF4AEC0A3014E0D05
:1044B0005F1D5D834C838A8190E06DE170E00E9416
:1044C00090256C817D8161507A4F08F09AC0EE8012
:1044D000FF8008851985C801B70120E038E040E079
:1044E00050E00E94BC544901C801B70161507040BE
:1044F000804090406A0D7B1D8C1D9D1D20E038E0A2
:1045000040E050E00E94BC5419018216930609F461
:1045100095C0C801B70120E038E040E050E00E94BB
:10452000BC54462FE72F862F9E2F60E071E00E943B
:1045300087547C01242F3E2FC90197FDB2C0092F5B
:10454000112707FD1A958A81682D0E944029812C28
:1045500061E0962E8E189F0890E00197880F991FB2
:10456000880F991F880F991F800F911F6E2DA20130
:1045700094010E94B8346E817F818885998561504D
:104580007040804090406A0D7B1D8C1D9D1D20E079
:1045900038E040E050E00E94BC54CB0177FD7EC083
:1045A000092F112707FD1A958A81622D0E94402943
:1045B00090E00197880F991F880F991F880F991F06
:1045C000480C591C68187908800F911F60E0A201FF
:1045D00093010E94B83420E030E0C901DF91CF910F
:1045E0001F910F91FF90EF90DF90CF90BF90AF9011
:1045F0009F908F907F906F905F904F903F902F9003
:10460000089522E030E0E9CF8A8190E00E94FE29FF
:10461000EE80FF80088519856C817D81A60195015A
:104620002E0D3F1D401F511FCB01A0E0B0E08217AF
:104630009307A407B5070CF046CF38CFC801B701E0
:1046400020E038E040E050E00E94BC54F62EE72E17
:10465000CB0177FD29C0092F112707FD1A958A8103
:10466000682D0E944029282F30E021503040220F31
:10467000331F220F331F220F331F8F2D9E2D60E01B
:1046800071E00E948754682FC901800F911FA20119
:1046900093010E94B83420E030E09FCF81509F4FBB
:1046A0007FCF81509F4F4BCF81509F4FD4CF2F92C0
:1046B0003F924F925F926F927F928F929F92AF92B2
:1046C000BF92CF92DF92EF92FF920F931F93DF93EF
:1046D000CF9300D000D000D0CDB7DEB74C017C83A3
:1046E0006B831A01FC01A680B780C084D1842A01A3
:1046F000662457FC6094762C83017201EA0CFB1C43
:104700000C1D1D1D84819581A0E0B0E08E159F05D4
:10471000A007B1070CF4A5C0C601B50120E038E040
:1047200040E050E00E94BC543E832D830894E10891
:10473000F10801091109C801B70120E038E040E0A3
:1047400050E00E94BC543A8329838D819E81821758
:10475000930709F489C0C601B50120E038E040E0C4
:1047600050E00E94BC54462FE72F862F9E2F60E01A
:1047700071E00E9487547C01242F3E2FC90197FDD0
:10478000A8C0092F112707FD1A95F40182816D81B8
:104790000E944029C12C31E0D32ECE18DF0890E0D2
:1047A0000197880F991F880F991F880F991F800FF5
:1047B000911F6E2D4B815C8196010E94BB34F401E8
:1047C00066817781808591856150704080409040FE
:1047D000640D751D861D971D20E038E040E050E017
:1047E0000E94BC54CB0177FD71C0092F112707FD32
:1047F0001A95F401828169810E94402990E0019715
:10480000880F991F880F991F880F991F2B813C8152
:104810002C0D3D1D3C832B832C183D08800F911FD0
:1048200060E0A90191010E94BB3420E030E0C901A1
:1048300026960FB6F894DEBF0FBECDBFCF91DF91A5
:104840001F910F91FF90EF90DF90CF90BF90AF90AE
:104850009F908F907F906F905F904F903F902F90A0
:1048600008952FEF3FEFE3CFC601B50120E038E018
:1048700040E050E00E94BC54F62EE72ECB0177FDBD
:104880002BC0092F112707FD1A95F40182816D8134
:104890000E944029282F30E021503040220F331F42
:1048A000220F331F220F331F8F2D9E2D60E071E0EA
:1048B0000E948754682FC901800F911F4B815C8132
:1048C00091010E94BB3420E030E0B1CF81509F4F76
:1048D0008CCF81509F4F55CF81509F4FD2CFCF93D8
:1048E000DF93C0E0D0E0CE010E94742618161906AE
:1048F0001CF4CE010E9492262196C136D10599F76B
:10490000DF91CF9108950E94322D08950E94302E9C
:1049100008950E94FA202FEF8F3F920731F00E94F6
:10492000882720E030E0C90108952FEF3FEFC9014B
:104930000895EF92FF920F931F93DF93CF9300D0D0
:10494000CDB7DEB77C01BE016F5F7F4F0E94FB2BAE
:104950008C018FEF0F3F180761F42FEF3FEFC90174
:104960000F900F90CF91DF911F910F91FF90EF90DB
:10497000089589819A81892B81F7C7010E94542665
:10498000B8010E94732B20E030E0E9CFFC01818167
:1049900090E00E941A1F0895AF92BF92CF92DF92CB
:1049A000EF92FF920F931F93DF93CF9300D0CDB779
:1049B000DEB76C018B01BE016F5F7F4F0E94FB2B46
:1049C0005C01C8010E9427267C01009781F420E049
:1049D00030E0C9010F900F90CF91DF911F910F919F
:1049E000FF90EF90DF90CF90BF90AF9008958FEF42
:1049F000A8168FEFB80659F389819A81009739F587
:104A000082E0E816F10419F7C6010E945426B501A8
:104A10000E94452B182F0E94E01E082FF92E812F8F
:104A200090E0602F7F2D42E050E00E94612A802FAD
:104A30009F2D9C01220F331F220F331F220F331F84
:104A4000880F991F280F391F2A553A4FC2CF029756
:104A500009F0BDCF0E94E01E182F092FC501612F5C
:104A6000702FA7010E94612A812F902FE2CF880F1B
:104A7000991F82959295907F9827807F9827860F1F
:104A8000971FBA01422F0E94EA1C0895880F991FB0
:104A900082959295907F9827807F9827860F971F01
:104AA000BA01A9010E94ED1C0895880F991F8295F3
:104AB0009295907F9827807F9827860F971FBA013D
:104AC000A9010E94F01C0895880F991F8295929564
:104AD000907F9827807F9827860F971FBA01A9019A
:104AE0000E94C91C0895880F991F82959295907F06
:104AF0009827807F9827860F971FBA01A9010E94E7
:104B0000C91C0895880F991F82959295907F9827C8
:104B1000807F9827860F971FBA010E94CC1C0895AA
:104B2000880F991F82959295907F9827807F98276C
:104B3000860F971FBA010E94CF1C0895880F991FF6
:104B400082959295907F9827807F9827860F971F50
:104B5000642F0E94D21C0895880F991F8295929508
:104B6000907F9827807F9827860F971F642F0E9439
:104B7000D51C0895880F991F82959295907F98274C
:104B8000807F9827860F971F0E94D81C0895880F52
:104B9000991F82959295907F9827807F9827860FFE
:104BA000971F0E94DB1C0895880F991F829592958C
:104BB000907F9827807F9827860F971F0E94DE1C82
:104BC0000895880F991F82959295907F9827807FEE
:104BD0009827860F971F0E94E11C0895880F991F40
:104BE00082959295907F9827807F9827860F971FB0
:104BF0000E94E41C0895880F991F82959295907FDA
:104C00009827807F9827860F971F0E94E71C08959A
:104C1000FC0140814F32B9F0DC01FB0103C041933C
:104C200011964C91842F81568A31C8F3805E8A3167
:104C3000B0F34F35A1F34E3291F38F5E8A3078F3A3
:104C40001082CD010895DC0111964181E6CFCF930A
:104C5000DF93EC010E944D3B019789F0CE010E9449
:104C60004D3B029731F020E030E0C901DF91CF9158
:104C7000089525E030E0C901DF91CF910895888142
:104C8000823749F0873769F0813641F0843759F728
:104C900024E030E0EACF21E030E0E7CF23E030E06D
:104CA000E4CF22E030E0E1CFCF93DF93EC010E942C
:104CB0004D3BFC013197EC0FFD1F80818F3221F4B9
:104CC00008C082918F3229F0CE17DF07D1F7FE019D
:104CD00004C0EC17FD0729F03196CF01DF91CF9189
:104CE00008958F32C9F3F9CFFF920F931F938C0170
:104CF0006DE070E00E94FB25F82EC8016CE070E0CA
:104D00000E94FB25FF2039F0282F30E0C9011F91B8
:104D10000F91FF90089520E030E0C9011F910F919D
:104D2000FF900895EF92FF920F931F93DF93CF931D
:104D3000CDB7DEB72D970FB6F894DEBF0FBECDBF4F
:104D40007C011D8660E070E04CE050E09E012F5F2A
:104D50003F4F0E945525C7016CE070E00E94FB2583
:104D6000182FC7016DE070E00E94FB25882379F0C1
:104D7000113021F1123059F40EE010E0C701B801F2
:104D80000E94FB250F5F1F4F06311105B9F7C701C0
:104D90006CE170E00E94FB25C7016FE170E00E94AA
:104DA000FB252D960FB6F894DEBF0FBECDBFCF9179
:104DB000DF911F910F91FF90EF9008950EE010E0AA
:104DC000C701B8010E94FB250F5F1F4F0831110575
:104DD000B9F7DDCFAF92BF92DF92EF92FF920F93C0
:104DE0001F93DF93CF93CDB7DEB72D970FB6F8940F
:104DF000DEBF0FBECDBF182F5B0190E06DE070E00D
:104E00000E94FB25882399F420E030E0C9012D960B
:104E10000FB6F894DEBF0FBECDBFCF91DF911F91CB
:104E20000F91FF90EF90DF90BF90AF900895812F8A
:104E300090E060E070E04CE050E07E010894E11CFE
:104E4000F11C97010E9455251D86C7010E944D3B0C
:104E5000D82E8823C9F2870106C00F5F1F4F802F0D
:104E60008E198D1588F6C801B5010E94F43A892B78
:104E7000A1F721E030E0CACFEF92FF920F931F938A
:104E8000CF93DF938B017C010894E108F108EE0CCD
:104E9000FF1CEE0CFF1CEE0CFF1C01501040000F1D
:104EA000111F000F111F000F111FC0E0D0E0BE0145
:104EB000600F711FCE018E0D9F1D0E94B53421968B
:104EC000C830D105A1F7DF91CF911F910F91FF90CD
:104ED000EF900895EF92FF920F931F93CF93DF937C
:104EE0007C018B01C0E0D0E0C701BE010E94FB2520
:104EF000482FC801BE010E94AC252196C032D105C1
:104F000099F7DF91CF911F910F91FF90EF90089546
:104F1000EF92FF920F931F93CF93DF937C016CE08E
:104F200070E00E94FB25182FC7016FE170E00E941E
:104F3000FB25082F113099F0123009F463C01330AB
:104F400009F444C0143009F4A6C0C7010E94262EFB
:104F5000DF91CF911F910F91FF90EF900895CEE0D8
:104F6000D0E004C02196C831D10569F0C701BE0167
:104F70000E94FB258823B1F390E00E9488272196A8
:104F8000C831D10599F7C7016DE070E040E00E949B
:104F9000AC25E114F104B9F0CEE0D0E004C02196D4
:104FA000C831D10591F2802F90E0BE010E94FB250F
:104FB00090E08E159F0599F7802F90E0BE0140E0AC
:104FC0000E94AC25C2CF002339F7BFCFC7016DE0E7
:104FD00070E040E00E94AC25E114F10409F476C0D1
:104FE000CEE0D0E005C02196C831D10509F4ADCF9F
:104FF000802F90E0BE010E94FB2590E08E159F055A
:1050000091F7DACFC7016DE070E040E00E94AC2577
:10501000E114F10411F4002381F0CEE0D0E0802F00
:1050200090E0BE010E94FB2590E08E159F0509F4DB
:1050300054C02196C831D10591F7CEE0D0E0C70128
:10504000BE010E94FB25882339F090E00E94282DA4
:105050002196C631D10599F71E2D812F90E068E188
:1050600070E00E94FB25182F882309F46ECF90E092
:105070000E94262ECEE0D0E0812F90E0BE010E945B
:10508000FB25882351F390E00E94282D2196C631FC
:10509000D10591F7E2CFC7016DE070E040E00E94DA
:1050A000AC25E114F104B1F0CEE0D0E005C02196CA
:1050B000C831D10509F449CF802F90E0BE010E948C
:1050C000FB2590E08E159F0591F776CF002309F020
:1050D00087CF3BCF002341F738CF802F90E0BE0130
:1050E00040E00E94AC25CEE0D0E0A9CF0E94FB2C8E
:1050F0000E94FA2D0895CF93DF93C0E0D0E0CE0157
:1051000060E070E040E250E020E00E943725219608
:10511000C132D105A1F70E94FB2C0E94FA2DDF912C
:10512000CF910895DF92EF92FF920F931F93CF9349
:10513000DF937C01EB01D42E122FCB010E944D3B5B
:10514000482F8C3008F44F5F013009F45FC0023003
:1051500009F468C0033009F471C0043041F1E1146E
:10516000F10411F4112369F0CEE0D0E0812F90E03A
:10517000BE010E94FB25882361F02196C831D1052C
:10518000A9F7DF91CF911F910F91FF90EF90DF90E2
:105190000895812F90E0BE014E2D0E94AC25DF9135
:1051A000CF911F910F91FF90EF90DF900895C7016D
:1051B00060E070E050E09E010E944625C7016CE06F
:1051C00070E044E00E94AC25C7016DE070E041E072
:1051D0000E94AC25C7016EE070E04EE050E020E098
:1051E0000E943725C7016CE170E04D2D0E94AC256F
:1051F000C7016DE170E040E050E00E949025C701DA
:105200006FE170E0412F0E94AC25A9CFC70160E09B
:1052100070E050E09E010E944625C7016CE070E0FE
:1052200041E0D0CFC70160E070E050E09E010E94F5
:105230004625C7016CE070E042E0C4CFC70160E0E2
:1052400070E050E09E010E944625C7016CE070E0CE
:1052500043E0B8CF0F9380E090E06AE271E040E075
:1052600020E001E00E9492280F910895809166034A
:105270009091670308959093670380936603089560
:105280000F931F93062F683050F0162F90E068E1BF
:1052900070E00E94FB2518501830C0F70770602F8F
:1052A00070E0625F7F4F90E00E94FB251F910F919D
:1052B00008950F931F93CF93DF938C01CEE0D0E03E
:1052C000C801BE010E94FB25882361F42196C831E4
:1052D000D105B1F720E030E0C901DF91CF911F91F6
:1052E0000F91089521E030E0C901DF91CF911F9126
:1052F0000F9108956FE170E00E94FB2590E0089502
:10530000EF92FF920F931F93CF93DF937B018C015A
:10531000C0E0D0E0C701BE010E94FB25F8018083F8
:10532000882331F00F5F1F4F2196CC30D10591F7C4
:10533000F8011082DF91CF911F910F91FF90EF90B4
:1053400008950F931F93CF93DF938C01CEE0D0E0AD
:10535000C801BE010E94FB25882329F02196C8318F
:10536000D105B1F781E0DF91CF911F910F910895A1
:105370000F931F93CF93DF93082F162FCEE0D0E02B
:10538000802F90E0BE010E94FB25811749F02196F5
:10539000C831D105A9F7DF91CF911F910F910895E1
:1053A000802F90E0BE0140E00E94AC25DF91CF91BC
:1053B0001F910F9108950F931F93CF93DF93182F91
:1053C000062FCEE0D0E0812F90E0BE010E94FB25A9
:1053D000882349F02196C831D105A9F7DF91CF91F3
:1053E0001F910F910895812F90E0BE01402F0E94E0
:1053F000AC25DF91CF911F910F9108950F931F93CB
:10540000CF93DF93182F012F6EE070E0EB01812F17
:1054100090E00E94FB25882371F19E012D50BE0172
:105420006F5F7F4F6631710589F7283008F1812F52
:1054300090E068E170E00E94FB25182F882319F79F
:105440000E94022E182F802F90E068E170E0412F1B
:105450000E94AC250E94032D482F812F90E06EE022
:1054600070E00E94AC25DF91CF911F910F910895BC
:10547000C22FD0E02E960E94032D482F812F90E05E
:10548000BE010E94AC25DF91CF911F910F9108952D
:105490000F931F93CF93DF938C01CEE0D0E0C80130
:1054A000BE010E94FB25882339F090E00E94282D40
:1054B0002196C631D10599F7DF91CF911F910F91B8
:1054C0000895AF92BF92CF92DF92EF92FF920F9327
:1054D0001F93CF93DF93D82EC92E8A01FB01EE0FC5
:1054E000FF1FEE0FFF1FE60FF71FEE0FFF1FE85520
:1054F000FA4F80835B01AA0CBB1C7B01EE0CFF1CE6
:10550000EE0CFF1CEE0CFF1CE501CE0DDF1DCA5595
:10551000DA4F4B838D2D9C2D6DE170E00E94E125CB
:105520009D838C830130110519F102301105D9F0EA
:105530000330110589F4A0E0B0E08E839F83A88733
:10554000B987DF91CF911F910F91FF90EF90DF907E
:10555000CF90BF90AF9008950430110569F48D2D60
:105560009C2D0E94482A1E821F8218861986E9CF28
:105570001E821F82188619860530110511F7EA0C64
:10558000FB1C86EA95E0E80EF91EF70116821782E9
:1055900010861186D6CF0E94742620E030E0019755
:1055A00011F0C901089521E030E0C9010895CF92BA
:1055B000DF92EF92FF921F93CF93DF93182FF92E74
:1055C0006B010E944D3B0D975CF021E030E0C9017A
:1055D000DF91CF911F91FF90EF90DF90CF900895D2
:1055E000C6010E947426892B81F3812F9F2D9C0177
:1055F0007901C0E0D0E0F7011081C601BE010E9430
:10560000FB25181711F7F7018081882339F02196BF
:105610000894E11CF11CCC30D10569F720E030E0A2
:10562000D6CFAF92BF92CF92DF92FF920F931F938C
:10563000CF93DF935C016B01CEE0D0E004C02196F4
:10564000C831D105F9F0C601BE010E94FB25F82E34
:10565000082F10E0C501B8010E94D72A892B79F7DD
:10566000C8010E947426882351F3FF2041F3C8012A
:10567000DF91CF911F910F91FF90DF90CF90BF905E
:10568000AF90089500E010E0F2CF0F931F93CF93F7
:10569000DF93EC018B010E94112B181619063CF4C4
:1056A00010E0812FDF91CF911F910F910895C801D4
:1056B0000E94A129813081F00E94022E182F90E0D3
:1056C000BE0140E0202F02E00E949228812FDF914E
:1056D000CF911F910F9108951FEF812FDF91CF91EF
:1056E0001F910F9108950F931F93CF93DF93EC01B8
:1056F0008B010E94112B181619063CF410E0812F23
:10570000DF91CF911F910F910895C8010E94A129A7
:10571000813081F00E94022E182F90E0BE0140E0FF
:10572000202F01E00E949228812FDF91CF911F91BD
:105730000F9108951FEF812FDF91CF911F910F914E
:105740000895CF92DF92EF92FF921F93CF93DF9352
:105750006C017B01CEE0D0E004C02196C831D105B8
:10576000B9F0C701BE010E94FB25182FC601612FA9
:1057700070E00E94D72A892B81F7812F90E00E9448
:105780007426882351F3112341F3282F30E002C0FF
:1057900020E030E0C901DF91CF911F91FF90EF90A1
:1057A000DF90CF900895CF92DF92EF92FF920F9308
:1057B0001F93CF93DF936C017B01CEE0D0E0C70154
:1057C000BE010E94FB25082F10E0C601B8010E940F
:1057D000D72A892B31F02196C831D10581F70FEFF7
:1057E0001FEFC801DF91CF911F910F91FF90EF90B4
:1057F000DF90CF900895AF92BF92CF92DF92EF9259
:10580000FF920F931F93DF93CF93CDB7DEB72D9702
:105810000FB6F894DEBF0FBECDBF6C015B01FC017B
:1058200091918F01F6018181E0906603F09067030A
:105830009E3209F456C09F32F1F0892F81568A3189
:1058400008F05FC0C6016E010894C11CD11CB601EE
:105850000E9408268C01009709F06DC0C601B701AF
:105860000E94A12B009709F448C0F5019183808321
:10587000C601B70151C08601EE24FF246E010894D1
:10588000C11CD11C14C0C801B6010E9408268C019D
:10589000FC018081882359F1C601B7010E94A12B28
:1058A000892B51F0C601B7010E94D32B7C01C7019F
:1058B0000E94CB2A892B39F7EE24EA94FE2CC701EB
:1058C0002D960FB6F894DEBF0FBECDBFCF91DF91FE
:1058D0001F910F91FF90EF90DF90CF90BF90AF900E
:1058E00008958E32E9F08F3249F28601C7CFC601A2
:1058F000B7010E94A12B009751F4F501118210828B
:10590000DECF91549A3108F49DCF8601B7CFF501CF
:1059100091838083C601B7010E94D32B7C01CFCF36
:10592000C7016FE170E00E94FB25E82EFF2486018D
:105930000E5F1F4FA3CFC601B7010E94A12B892B79
:1059400009F4BACFC601B7010E94D32B7C0196CFD0
:10595000AC01FB0177FD1AC0F595E795F595E79544
:10596000F595E795E40FF51F2081332727FD309546
:10597000CB0168E070E00E94875402C035952795FE
:105980008A95E2F721703070C90108953796E4CF07
:10599000DC019B0177FD2CC0F901F595E795F595A4
:1059A000E795F595E795EA0FFB1F452B89F4CB01A9
:1059B00068E070E00E94875421E030E002C0220FCE
:1059C000331F8A95E2F72095808182238083089592
:1059D000CB0168E070E00E94875421E030E002C013
:1059E000220F331F8A95E2F78081822B80830895EE
:1059F000295F3F4FD1CFE8E6F3E0119283E0E8382A
:105A0000F807D9F70895CF93DF93C0E0D0E005C041
:105A1000219681E0C030D807A9F088E693E0BE0166
:105A20000E94A82C892BA1F788E693E0BE0141E0F3
:105A300050E00E94C82CBE016F5F7F4FCB01DF9109
:105A4000CF9108956FEF7FEFCB01DF91CF91089554
:105A5000BC016150704088E693E040E050E00E9455
:105A6000C82C08950F931F93CF93DF9300E010E0AD
:105A7000C0E0D0E005C0219681E0C030D80771F0C9
:105A800088E693E0BE010E94A82C0197A1F70F5F62
:105A90001F4F219681E0C030D80791F79E01201B4F
:105AA000310BC901DF91CF911F910F910895089596
:105AB000EF92FF921F93CF93DF9380E090E004C0BA
:105AC000C7018036910559F17C010894E11CF11C55
:105AD000C7016DE070E00E94FB25182FC7016CE044
