:100000000C94DE000C94FD000C94FD000C94FD009B
:100010000C94FD000C94FD000C94FD000C945E13F8
:100020000C94FD000C94FD000C94FD000C94A315A1
:100030000C94F1140C94FD000C94FD000C943C36CF
:100040000C94FD000C94FD000C949A070C94FD0098
:100050000C94FD000C94FB1B0C94FD000C94FD0013
:100060000C94FD000C94FD000C94D3350C94FD0011
:100070000C94FD000C94FD000C94FD000C94FD000C
:100080000C94FD000C94FD000C94FD007D45814511
:10009000854589458D45914530453045304530454C
:1000A0009545474543454345304530453045304506
:1000B0003045304530453045304530453045304598
:1000C00030453045304530454B454F455345564505
:1000D0005A4530453045304530453045304530454E
:1000E0003045304530453045304530453045304568
:1000F0005E4530453045304530453045304530452A
:100100003045304562453045304530453045304515
:100110003045304530453045664530453045304501
:100120003045304530453045304530456A453045ED
:100130003045304530453045304530453045304517
:100140003045304530453045304530453045304507
:1001500030453045304530453045304530453045F7
:1001600030453045304530453045304530453045E7
:100170003045304530453045304530456E45304599
:1001800030453045304530453045304530453045C7
:100190007245304530453045304530453045304575
:1001A0003045304530453045764530453045304561
:1001B000304530453045304530457A4511241FBE25
:1001C000CFEFD0E1DEBFCDBF11E0A0E0B1E0E2E4CF
:1001D000FDEA00E00BBF02C007900D92AA34B10700
:1001E000D9F71AE0AAE4B1E001C01D92AD31B10720
:1001F000E1F70E94FF000C949F560C940000AF9210
:10020000BF92CF92DF92EF92FF920F930E94490527
:100210000E94071C0E945E160E94EB190E9437067E
:100220000E943A028A3009F484C00E943A028B305C
:1002300009F4B7C00E94EA1C0E94B41C0E947E1CF4
:1002400086E094E060E071E045E00E940A3B83EFC5
:1002500093E066E071E046E00E940A3B81E090E0B6
:10026000909305048093040490934B0180934A017A
:100270000E945A560E949A200E94A02980E29CE087
:1002800060E170E046E054E00E94631D85E39CE07D
:1002900060E170E043EF53E00E94631D80914A01EA
:1002A00090914B010E9450028AE00E94450284E135
:1002B0000E943F020E94EA1C0E94B41C0E947E1C05
:1002C0000E9468370E9480370E9449090E944409B1
:1002D0000E94AB090E94873C0E9435020E94D10B0C
:1002E0008FE10E94710B88E995E466E177E044E1D3
:1002F00058E020E030E00FE0FDE0EF2EF1E0FF2ECF
:10030000CC24DD24AA24BB240E94221987E195E590
:100310006FE779E043E15AE020E030E0E6E1EE2EDD
:10032000E1E0FE2E0E9422190E9460020E94A616A1
:10033000FDCF0E944B0290930504809304040E9419
:100340005A5680E29CE060E170E046E054E00E9492
:10035000661D85E39CE060E170E043EF53E00E949E
:10036000661D809104049091050490934B01809345
:100370004A0110921604109203040E94EA1C0E9483
:10038000B41C0E947E1C0E949A200E94A0290E94F8
:10039000EA1C0E94B41C0E947E1C8AE00E94450256
:1003A0008FCF0E944B0290930504809304040E9417
:1003B0005A5680E29CE060E170E046E054E00E9422
:1003C000661D85E39CE060E170E043EF53E00E942E
:1003D000661D809104049091050490934B018093D5
:1003E0004A0110921604109203040E94EA1C0E9413
:1003F000B41C0E947E1C0E940B2E0E94F52E0E94AF
:10040000EA1C0E94B41C0E947E1C5ACF0F931F93BB
:100410008C0180E29CE060E170E0A8010E94631D15
:10042000A801405F5F4F85E39CE06FE070E00E94B1
:10043000631DF801878D0E943F02F80180A190E0C2
:100440000E9450028AE00E94450200E080E090E0B5
:100450000E945A080F5F0032C9F70E9469021F917B
:100460000F91089583EF93E0089584E59CE00E9446
:100470005D1D089582E59CE00E945D1D0895682F32
:1004800084E59CE00E944B1D0895682F82E59CE066
:100490000E944B1D08958EE49CE00E94571D089514
:1004A000BC018EE49CE00E94451D08950000000000
:1004B000089578948895000000000895889508951F
:1004C00078940895F89408958FB7F89408958FBF9D
:1004D0000895E8E9FAEE09950895000000000895EE
:1004E0001816190664F40000000000000000000067
:1004F000000000000000019718161906A4F30895E3
:10050000DA9A0895DA98089529B330E03695279558
:100510003695279521703070C9010895D29A0895B3
:10052000D2980895D99A0895D998089529B330E0BA
:100530003695279521703070C9010895D19A089594
:10054000D1980895D89A0895D898089529B330E09D
:1005500021703070C9010895D09A0895D0980895F7
:10056000DC9A0895DC98089529B330E032952295FD
:100570002F7023273F70232721703070C901089501
:10058000D49A0895D4980895DD9A0895DD98089531
:1005900029B330E036952795329522952F70232781
:1005A0003F70232721703070C9010895D59A0895AE
:1005B000D5980895DF9A0895DF98089529B33327D1
:1005C00027FD30952227330F221F3327C9010895B5
:1005D000D79A0895D7980895DB9A0895DB980895DF
:1005E00029B330E03695279536952795369527958A
:1005F00021703070C9010895D39A0895D398089551
:10060000959A08959598089520B330E036952795EA
:10061000329522952F7023273F7023272170307049
:10062000C90108958D9A08958D980895939A089513
:100630009398089520B330E0369527953695279501
:100640003695279521703070C90108958B9A0895C9
:100650008B980895929A08959298089520B330E067
:10066000369527953695279521703070C9010895E4
:100670008A9A08958A9808951C9A08951C98089556
:1006800021B130E0329522952F7023273F70232728
:1006900021703070C9010895149A0895149808952E
:1006A0001D9A08951D98089521B130E0369527953B
:1006B000329522952F7023273F70232721703070A9
:1006C000C9010895159A0895159808951E9A0895D8
:1006D0001E98089521B130E00024220F331F001C22
:1006E000220F331F001C232F302D21703070C901C1
:1006F0000895169A0895169808951F9A08951F98B8
:10070000089521B1332727FD30952227330F221F6B
:100710003327C9010895179A089517980895C29A22
:100720000895C298089526B330E0369527953695FA
:10073000279521703070C9010895BA9A0895BA9822
:100740000895C39A0895C398089526B330E0369566
:100750002795369527953695279521703070C901D4
:100760000895BB9A0895BB980895C19A0895C198B9
:10077000089526B330E03695279521703070C90171
:100780000895B99A0895B9980895A89A0895A898CF
:10079000089523B330E021703070C9010895A09A04
:1007A0000895A0980895A99A0895A998089523B343
:1007B00030E03695279521703070C9010895A19ACF
:1007C0000895A1980895AA9A0895AA98089523B320
:1007D00030E0369527953695279521703070C90100
:1007E0000895A29A0895A2980895AB9A0895AB9897
:1007F000089523B330E0369527953695279536959D
:10080000279521703070C9010895A39A0895A3987F
:100810000895AC9A0895AC98089523B330E03295CA
:1008200022952F7023273F70232721703070C90134
:100830000895A49A0895A4980895AD9A0895AD983E
:10084000089523B330E036952795329522952F7081
:1008500023273F70232721703070C9010895A59A7E
:100860000895A5980895AE9A0895AE98089523B373
:1008700030E00024220F331F001C220F331F001C06
:10088000232F302D21703070C9010895A69A089544
:10089000A6980895AF9A0895AF98089523B3332783
:1008A00027FD30952227330F221F3327C9010895D2
:1008B000A79A0895A7980895909A089590980895F2
:1008C00020B330E021703070C9010895889A0895EE
:1008D00088980895919A08959198089520B330E0EA
:1008E0003695279521703070C9010895899A089529
:1008F00089980895189A08951898089521B130E0BC
:1009000021703070C9010895109A089510980895C3
:10091000199A08951998089521B130E036952795D0
:1009200021703070C9010895119A089511980895A1
:100930001A9A08951A98089521B130E036952795AE
:100940003695279521703070C9010895129A08953F
:10095000129808951B9A08951B98089521B130E0CC
:1009600036952795369527953695279521703070C1
:10097000C9010895139A089513980895929A0895B5
:100980009298089520B330E03695279536952795AF
:1009900021703070C90108958A9A08958A9808953F
:1009A000939A08959398089520B330E0369527954B
:1009B000369527953695279521703070C901089591
:1009C0008B9A08958B980895959A0895959808950F
:1009D00020B330E036952795329522952F70232746
:1009E0003F70232721703070C90108958D9A0895B2
:1009F0008D9808951F9A08951F98089581B1881FB2
:100A00008827881F0895179A0895179808951D9AA2
:100A100008951D98089581B190E0969587959295D7
:100A200082958F7089279F70892781700895159A04
:100A30000895159808951E9A08951E98089581B1F5
:100A400090E00024880F991F001C880F991F001C3C
:100A5000892F902D81700895169A089516980895FB
:100A6000AB9A0895AB9808950895AA9A0895AA9804
:100A700008950895AC9A0895AC9808950895AD9A94
:100A80000895AD9808950895AE9A0895AE98089582
:100A90000895D29AD09AD19AA79AA69AA59AA49A7A
:100AA000A39AA29AA19AA09AD498DC98D39A8B9AE6
:100AB0008D9ADB9ADA9AD89AD99A08959AB7906261
:100AC0009ABF882321F48AB78F7E8ABF08958AB798
:100AD00080618ABF0895DE9A0895DE98089529B34B
:100AE00030E00024220F331F001C220F331F001C94
:100AF000232F302D21703070C9010895D69A0895A2
:100B0000D6980895DD9A0895DD98089529B330E0C8
:100B100036952795329522952F7023273F702327EE
:100B200021703070C9010895D59A0895D598089517
:100B30001E9A08951E98089521B130E00024220FD6
:100B4000331F001C220F331F001C232F302D217058
:100B50003070C9010895169A0895169808951E9A3E
:100B600008951E98089521B130E00024220F331F0C
:100B7000001C220F331F001C232F302D21703070DA
:100B8000C9010895169A089516980895969A089599
:100B90009698089520B330E00024220F331F001CE4
:100BA000220F331F001C232F302D21703070C901FC
:100BB00008958E9A08958E980895949A0895949819
:100BC000089520B330E0329522952F7023273F708F
:100BD000232721703070C90108958C9A08958C984C
:100BE0000895C09A0895C098089526B330E0217002
:100BF0003070C9010895B89A0895B8980895C79AB1
:100C00000895C798089526B3332727FD30952227E6
:100C1000330F221F3327C9010895BF9A0895BF9843
:100C20000895969A08959698089520B330E0002488
:100C3000220F331F001C220F331F001C232F302DC7
:100C400021703070C90108958E9A08958E98089584
:100C50000E94B3030E949D030E94C103D69AD59AB5
:100C6000B89816988E988C98BF988E980895109280
:100C700090008FE089B9599AE5E9F0E080818660BB
:100C800080838AB188698AB981E080935003109289
:100C900072031092730308951F93182F80915003CD
:100CA000882329F05D9BFECF1CB91F9108950E94F7
:100CB0003706F8CF1F93182F80915003882329F00F
:100CC0005D9BFECF1CB91F9108950E943706F8CF97
:100CD000CF93DF93EC018CEF0E944C068881882330
:100CE00031F00E944C06219688818823D1F78CEF41
:100CF0000E944C06DF91CF910895FF920F931F93AE
:100D0000CF93DF93082FF92E162F8CEF0E944C06FD
:100D1000112359F0802F9F2D9C01E90189910E9498
:100D20004C069E01201B2117C8F38CEF0E944C0635
:100D3000DF91CF911F910F91FF9008950F931F9313
:100D4000CF93DF93082F162F662349F09C01E9010A
:100D500089910E945A069E01201B2117C8F3DF913A
:100D6000CF911F910F9108958A3020F4805D0E94E9
:100D70004C060895895A0E944C060895DF93CF933C
:100D800000D000D0CDB7DEB769837A838B839C8394
:100D90008C810E944C068B810E944C068A810E94A5
:100DA0004C0689810E944C060F900F900F900F9077
:100DB000CF91DF9108951F93182F82958F700E9415
:100DC000B406812F8F700E94B4061F910895DF939F
:100DD000CF9300D000D0CDB7DEB769837A838B8301
:100DE0009C838DEF0E944C0669817A818B819C8166
:100DF0000E94BE068DEF0E944C060F900F900F9040
:100E00000F90CF91DF910895EF92FF920F931F9370
:100E10007B018C018EEF0E944C06C801B7010E9435
:100E2000BE068EEF0E944C061F910F91FF90EF902F
:100E300008958CEF0E944C068DE60E944C068DE6CC
:100E40000E944C068DE60E944C068CEF0E944C06D8
:100E50000895DF93CF9300D000D0CDB7DEB769837C
:100E60007A838B839C8380E30E944C0688E70E94F0
:100E70004C068C810E94DB068B810E94DB068A81F6
:100E80000E94DB0689810E94DB060F900F900F9075
:100E90000F90CF91DF910895AF92BF92CF92DF92E2
:100EA000EF92FF920F931F93DF93CF93CDB7DEB7EF
:100EB00060970FB6F894DEBF0FBECDBF69837A830B
:100EC0008B839C832D833E834F835887E986FA86E4
:100ED0000B871C87AD86BE86CF86D88A81E00E94AC
:100EE0004C0669817A818B819C810E9429076D81E2
:100EF0007E818F8198850E94290769857A858B85F7
:100F00009C850E9429076D857E858F8598890E9422
:100F1000290760960FB6F894DEBF0FBECDBFCF9104
:100F2000DF911F910F91FF90EF90DF90CF90BF90D6
:100F3000AF9008951F920F920FB60F920BB60F92BB
:100F400011240F931F932F933F934F935F936F93AE
:100F50007F938F939F93AF93BF93EF93FF93DF9311
:100F6000CF930F92CDB7DEB70CB10E94543C182F2F
:100F70000E94FC168823B9F51982812F0E94513CEA
:100F8000013609F444C00A3709F45EC00E94543C9B
:100F9000282F8981813061F48DB79EB790935F05CA
:100FA00080935E058091B1059091B2059EBF8DBF83
:100FB000822F0E94513C0F90CF91DF91FF91EF91D2
:100FC000BF91AF919F918F917F916F915F914F9161
:100FD0003F912F911F910F910F900BBE0F900FBE5D
:100FE0000F901F9018958DB79EB79093B205809380
:100FF000B10580915E0590915F059EBF8DBF81E038
:101000008983812F0E94513C013609F0BCCF0E9498
:10101000543C982F5F9BFECF8CB15F9BFECF8CB171
:10102000803371F0E1E5F3E08153282F30E02E5A50
:101030003C4F5F9BFECF8CB18193E217F307C9F75A
:10104000892F0E94513CA2CF0E94543C982F01E569
:1010500013E05F9BFECF8CB1F80181938F01F3E029
:1010600002371F07B1F7892F0E94513CC8018197B1
:101070000E9406028BCFDF92EF92FF920F931F9395
:101080007B018C010E94543CD82E0E9432020E94A7
:10109000680684E391E00E946806C801B7010E94D7
:1010A00004078D2D0E94513C1F910F91FF90EF90EE
:1010B000DF900895FF920F931F938C010E94543C80
:1010C000F82E0E9432020E94680684E391E00E949A
:1010D0006806C8010E9468068F2D0E94513C1F912E
:1010E0000F91FF900895DF92EF92FF920F931F935D
:1010F0007B018C010E94543CD82E0E9432020E9437
:10110000680684E391E00E946806C801B7010E9466
:10111000E7068D2D0E94513C1F910F91FF90EF909B
:10112000DF9008950E944C0608950E949E0608953F
:10113000FF920F931F938C01F62E0E9432020E94A1
:10114000680684E391E00E946806C8016F2D0E9442
:101150007D061F910F91FF9008951F930E94543CAC
:10116000182F0E941907812F0E94513C1F9108954A
:1011700081E0089580E0089581E0089581E0089578
:10118000CB010895CB0108951092170481E00895D2
:101190001092170481E00895109217040E945A0DCE
:1011A0000895CF93DF93EC0120910404309105045E
:1011B00090931B0480931A04809118049091190451
:1011C00001969093190480931804C059DF4F8881C9
:1011D000C057D040813021F0CE01DF91CF910895EA
:1011E0008E819F814FEF8F3F940719F028173907A1
:1011F00099F788859985BE010E94370A009761F3A7
:10120000EC01CE01DF91CF910895DF92EF92FF9232
:101210000F931F93CF93DF937C018B01D42EE901B1
:1012200080911704882341F481E08093170484E6B9
:10123000841758F41092170480E0DF91CF911F912A
:101240000F91FF90EF90DF90089583E699E064E1BD
:101250000E947016882391F0D0931F04C0931E043F
:10126000D8821F830E83F986E88681E0DF91CF91D3
:101270001F910F91FF90EF90DF9008951092170447
:10128000DCCF0E945E0D08950E945E0D109217043F
:1012900008950E94470E1092170410921D04109298
:1012A0001C04109219041092180408950F931F93B0
:1012B0008C01109217040E945A0DC8010E94400F21
:1012C0001F910F9108950F931F9300911E04109189
:1012D0001F04109217040E945A0DC8010E94400F6B
:1012E000882311F4109217041F910F910895CF9342
:1012F000DF93EC01209104043091050490931B04CA
:1013000080931A0480911804909119040196909387
:10131000190480931804C059DF4F8881C057D0400A
:10132000813021F0CE01DF91CF9108958E819F8190
:101330004FEF8F3F940719F02817390799F78885E1
:101340009985BE010E94370A009761F3EC01CE0136
:10135000DF91CF91089510922B04109237041092D0
:10136000430410924F0410925B040895EF92FF9291
:101370000F931F93CF93DF93EC01EBE2F4E0A0E037
:10138000B0E08081882361F011963C96A530B105CC
:10139000C1F7DF91CF911F910F91FF90EF900895CA
:1013A000FD01EE0FFF1FEA0FFB1FEE0FFF1FEE0FF9
:1013B000FF1FDF01AE5DBB4F1196DC93CE93EC5D5A
:1013C000FB4F608314965C934E93139716963C9351
:1013D0002E93159718961C930E9317971B96FC92B5
:1013E000EE921A9781E019968C93DF91CF911F911D
:1013F0000F91FF90EF900895AC01E2E2F4E020E05D
:1014000030E08185813039F02F5F3F4F3C962530A9
:101410003105B9F708958081918184179507A1F767
:10142000F901EE0FFF1FE20FF31FEE0FFF1FEE0F8C
:10143000FF1FEE5DFB4F1186118210820895AC01F3
:10144000E2E2F4E08185813031F03C9684E0EE35D3
:10145000F807C1F708952381348162177307A8F351
:101460002417350790F3118611821082EECFCF92A8
:10147000DF92FF920F931F93CF93DF939C018B0119
:101480007093210460932004E2E2F4E0C0E0D0E035
:10149000808191818217930771F021963C96C53027
:1014A000D105B1F7C801DF91CF911F910F91FF9046
:1014B000DF90CF9008958185813079F76E01CC0C53
:1014C000DD1CF601EC0FFD1FEE0FFF1FEE0FFF1FDF
:1014D000DF01AE5DBB4F15964C91159716962C917A
:1014E000EC5DFB4FD8018C91F0808F1508F444C05F
:1014F000FF2071F0D801842F922F9C01F9011A96D8
:101500008C911A97819311968E2F841B8F15B8F3A7
:10151000F601EC0FFD1FEE0FFF1FEE0FFF1FEE5D3C
:10152000FB4F0780F085E02D309751F002591F4F97
:10153000D8018D918D0180838C910F56104081834D
:10154000F601EC0FFD1FEE0FFF1FEE0FFF1FEE5D0C
:10155000FB4F82859385009719F066E00E94701614
:10156000CC0DDD1DCC0FDD1FCC0FDD1FCE5DDB4FA5
:10157000EB81FC81F08296CFF82EBACF81E00895FE
:101580001F930E949714182F0E949115682F812F86
:101590000E94243C1F9108950E94BF1308950E9449
:1015A0002A140895DF93CF9300D0CDB7DEB79A8386
:1015B00089830E94BF3A9A8389838AE691E062E038
:1015C000AE014F5F5F4F0E942A140F900F90CF9192
:1015D000DF9108950E94080E08950E943416089520
:1015E0000E94001408958DE160E070E00E940014F4
:1015F0008EEA9CE065E00E94701680E008950E94EB
:10160000EB130895609160047091610480E10E9481
:101610000014609162047091630481E10E940014DF
:1016200081E10E94BF132091620430916304281766
:10163000390711F080E008956091640470916504A9
:1016400082E10E940014609166047091670483E156
:101650000E940014609168047091690484E10E9402
:10166000001460916A0470916B0485E10E9400147B
:1016700060916C0470916D0486E10E940014609189
:101680006E0470916F0487E10E94001460917004F1
:101690007091710488E10E9400146091720470914D
:1016A000730489E10E9400146091740470917504C0
:1016B0008AE10E94001460917804709179048CE1B1
:1016C0000E94001460917A0470917B048DE10E9465
:1016D000001489E00E94EB1388E00E94EB1381E084
:1016E000089590E08F71907020916A0430916B049E
:1016F000207E822B932B90936B0480936A046091DD
:1017000070047091710485E10E94001486FF03C08B
:1017100083E00E94EB1381E00895BC0160507840A3
:10172000809170049091710480709C7F682B792B5C
:10173000709371046093700488E10E94001486FF26
:1017400003C083E00E94EB1381E0089583E00E94D0
:10175000EB1381E008950E94520D08950E94520DEE
:1017600008950E94840588E592E00E94700281E05D
:1017700008950E94820588E592E00E94700281E04F
:1017800008950E94F91208958DE168E170E00E94C9
:10179000001481E00E94F91281E00E94EB1381E0C5
:1017A000089595E0899FB0011124625D7E4F80917C
:1017B00070049091710480709C7F682B792B7093DA
:1017C00071046093700488E10E94001486FF03C0D6
:1017D00083E00E94EB1381E008950E94543C982F0F
:1017E00080915E04823029F0892F0E94513C80E074
:1017F000089583E080935E04892F0E94513C0E94EB
:1018000034160E94820588E592E00E9470020E94D0
:101810006D050E9456020E946B050E9456028DE1E2
:1018200068E170E00E94001481E00E94F91281E0FA
:101830000E94EB1381E008951F930E94543C982F5F
:1018400080915E04882309F07BC010925E048BE0D7
:1018500080937C048FE180935F04892F0E94513C28
:101860000E949714182F0E949115682F812F0E94B3
:10187000243C80E098EF909361048093600482EEB2
:1018800092E0909363048093620480E095E09093EB
:1018900065048093640480E890EE909367048093DD
:1018A00066048FE097EA90936904809368048091BE
:1018B0005F0490E0806E906690936B0480936A045E
:1018C00085EE92E190936D0480936C0486E59AE036
:1018D00090936F0480936E0480917C0425E0829F36
:1018E000C0011124825D9E4F906490937104809397
:1018F000700484EC91E090937304809372041092CE
:1019000075041092740410927704109276048FE795
:1019100092E0909379048093780410927B04109263
:101920007A040E94543C92E090935E040E94513CE1
:101930008EEA9BE065E00E94701681E01F91089599
:1019400010925E048BE080937C048FE180935F04AF
:10195000892F0E94513C80E01F910895DF93CF931F
:1019600000D0CDB7DEB7609160047091610480E172
:101970000E940014609162047091630481E10E94EE
:10198000001481E10E94BF1320916204309163042E
:101990008217930789F180910404909105049A833A
:1019A00089830E94BF3A9A8389838AE691E062E044
:1019B000AE014F5F5F4F0E942A14609170047091D6
:1019C00071047D7F709371046093700488E10E94BC
:1019D000001486FF03C083E00E94EB130E94543C76
:1019E00094E090935E040E94513C0E94080E0F9078
:1019F0000F90CF91DF910895609164047091650418
:101A000082E10E940014609166047091670483E192
:101A10000E940014609168047091690484E10E943E
:101A2000001460916A0470916B0485E10E940014B7
:101A300060916C0470916D0486E10E9400146091C5
:101A40006E0470916F0487E10E940014609170042D
:101A50007091710488E10E94001460917204709189
:101A6000730489E10E9400146091740470917504FC
:101A70008AE10E94001460917804709179048CE1ED
:101A80000E94001460917A0470917B048DE10E94A1
:101A9000001489E00E94EB1388E00E94EB137BCFD7
:101AA00081E0089581E0089581E0089581E008953E
:101AB00081E0089582E08093FB0408950F931F93C3
:101AC0000E94543C082F8091FB04882341F010E0D1
:101AD000802F0E94513C812F1F910F91089585E125
:101AE0009FE065E00E947016882389F381E080936F
:101AF000FB0411E0802F0E94513C812F1F910F9118
:101B000008950E94B71208950E94C40808950E9483
:101B1000543C92E09093FB040E94513CE091F90404
:101B2000F091FA0480818B508083CF0160E00E94A5
:101B3000C40808950F931F930E94543C92E0909321
:101B4000FB040091F9041091FA04F80190819B5074
:101B500090830E94513CC80161E00E94C4081F911B
:101B60000F9108950E94991108950E947709089590
:101B70000F931F93CF93DF930E94543C00917D04F9
:101B800010917E040E94513CC8010E947709EC012B
:101B90000E94543C209721F0D0937E04C0937D0492
:101BA000E0917D04F0917E041082109280040E94E6
:101BB000513CDF91CF911F910F9108950E94A51282
:101BC00008950E94BF1308950E94A60B08950E94D5
:101BD0004B1308950E94111208950E94EB1308956B
:101BE0000E94A5128FE30E94BF1388E00E94EB13AE
:101BF00088E00E94EB130E94543C109280040E94E3
:101C0000513C80E00E944B1308950E94D312089526
:101C10001F930E94543C1091FB040E94513C1A30C7
:101C200019F081E01F9108950E94A60B80E00E94A8
:101C30004B1381E00E94D3120E94543C92E0909397
:101C4000FB040E94513C81E01F9108950E94ED0B1E
:101C500008951F930E94543C1091FB040E94513C34
:101C6000112319F080E01F9108950E94543C9AE0DE
:101C70009093FB041092F604E0917D04F0917E04B1
:101C800010820E94513C0E94ED0B1F9108950E940A
:101C9000543C1092FB0410927F041092F5041092B1
:101CA000800421E834E030937E0420937D04109278
:101CB00081040E94513C809104049091050490930A
:101CC000F8048093F7040E941C0C089585E00E949C
:101CD000EB1380E00E94EB1386958695869580FD38
:101CE00013C00E94543C92E09093FB040E94513C2C
:101CF000E091F904F091FA0480818B508083CF0148
:101D000060E00E94C408089581E00E94D312089503
:101D1000CF93DF93EC018091FB048330C9F18430D1
:101D200091F081E0DF91CF9108950E94B712E09188
:101D3000F904F091FA04EE58FF4FD183C0838091EB
:101D4000FB04843071F386E08093FB040E94B71299
:101D500081E00E94D3128AE99DE065E00E9470163E
:101D60008823F9F60E94543C92E09093FB040E9471
:101D7000513CE091F904F091FA0480818B5080830A
:101D8000CF0160E00E94C40881E0DF91CF91089507
:101D900080E00E94D3120E94E105892B31F284E099
:101DA0008093FB04E091F904F091FA04EE58FF4FA0
:101DB000D183C08381E0DF91CF91089589E00E94B3
:101DC000EB13882361F08091FC046091F904709119
:101DD000FA048F5F0E9411128823A1F008950E94D7
:101DE000543C92E09093FB040E94513CE091F90432
:101DF000F091FA0480818B508083CF0160E00E94D3
:101E0000C40808950E94543C92E09093FB040E9401
:101E1000513CE091F904F091FA0480818B50808369
:101E2000CF0160E00E94C40808951F930E94543CB3
:101E3000982F8091FB04813029F0892F0E94513C1A
:101E40001F9108951092FB04892F0E94513C0E941B
:101E5000543C1091FB040E94513C112389F70E94CD
:101E6000543C9AE09093FB041092F604E0917D04B8
:101E7000F0917E0410820E94513C0E94ED0BE0CF55
:101E80001F93CF93DF93EC010E94543C1091FB040D
:101E90000E94513C123029F080E0DF91CF911F91D8
:101EA000089588E08A838091F5048823C9F581E04C
:101EB00089838FEF9FEF9D838C838E819F810E940A
:101EC000BF3A9F838E838881855F888380917F045A
:101ED0008F5F80937F048B83CE58DF4F19821882E7
:101EE000C257D040888182508093FC04D093FA047A
:101EF000C093F90488E08093F6040E94543C95E076
:101F00009093FB040E94513C8EED9EE065E00E94A0
:101F10007016882341F081E0DF91CF911F910895E1
:101F200081E28983C6CF0E94543C92E09093FB04E7
:101F30000E94513CE091F904F091FA0480818B50A9
:101F40008083CF0160E00E94C40881E0E5CF1F9349
:101F50000E94543C1091FB040E94513C1530B1F09A
:101F60000E94A5128FE30E94BF1388E00E94EB132A
:101F700088E00E94EB130E94543C109280040E945F
:101F8000513C80E00E944B131F9108950E9403066C
:101F9000892B71F00E941506892BB1F30E94543CE5
:101FA00093E09093FB040E94513C0E94660EECCF9C
:101FB0000E949C05892B71F70E94F00DEBCF1F93B7
:101FC0000E94543C1091FB040E94513C1530B9F022
:101FD0000E94A5128FE30E94BF1388E00E94EB13BA
:101FE00088E00E94EB130E94543C109280040E94EF
:101FF000513C80E00E944B1381E01F9108950E94A4
:102000000306892B71F00E941506892BA9F30E9403
:10201000543C93E09093FB040E94513C0E94660E56
:10202000EBCF0E949C05892B71F70E94F00DEBCF3E
:102030001F930E940306892B39F10E94543C182FEC
:1020400086E491E165E00E9470168823D1F40E9435
:10205000A5128FE30E94BF1388E00E94EB1388E073
:102060000E94EB130E94543C109280040E94513C49
:1020700080E00E944B13812F0E94513C81E01F9110
:1020800008950E94A512F7CF0E94A5128FE30E9427
:10209000BF1388E00E94EB1388E00E94EB130E94BC
:1020A000543C109280040E94513C80E00E944B13EB
:1020B00081E01F9108951F93CF93DF93182FEB01B9
:1020C0000E94543C0E94513C0E940306892B71F1EE
:1020D000112369F0113758F4D0937E04C0937D0426
:1020E00089818770813019F48A81883021F10E94BA
:1020F000A5128FE30E94BF1388E00E94EB1388E0D3
:102100000E94EB130E94543C109280040E94513CA8
:1021100080E00E944B130E94543C109280040E9465
:10212000513C81E0DF91CF911F9108950E949C0561
:10213000892B71F6DCCF88818B508883853608F037
:1021400049C08E819F810E94D53A9F838E83E09102
:102150007D04F0917E04212F30E021503040DE01DB
:10216000A20FB31F2F5F3F4FE059FF4F8C91881F85
:102170008827881F80833297C20FD31F22978881B8
:1021800081938C918F7780830E94543C182F88EB29
:102190009DE065E00E947016882311F4109280047F
:1021A000812F0E94513C0E940306892B21F40E943A
:1021B0009C05892B61F00E949C05892B41F486E4E3
:1021C00091E165E00E947016882309F0AACF0E9471
:1021D000F00DA7CF0E94F00D0E94543C1092800495
:1021E0000E94513C9ECF1F930E940306892B21F42D
:1021F0000E949C05892BB1F00E94543C182F8091BD
:102200008004882329F581E080938004812F0E9437
:10221000513C60917D0470917E0480E70E94991189
:10222000882309F10E94A5128FE30E94BF1388E062
:102230000E94EB1388E00E94EB130E94543C109222
:1022400080040E94513C80E00E944B131F9108952E
:1022500086E491E165E00E9470168823A1F0812F49
:102260000E94513CDFCF0E94543C109280040E9497
:10227000513C86E491E165E00E947016882331F7B5
:102280000E94F00DE3CF0E94F00DE9CF1F930E9452
:102290000306892B21F40E949C05892BB1F00E9432
:1022A000543C182F80918004882329F581E0809385
:1022B0008004812F0E94513C60917D0470917E04C6
:1022C00080E70E949911882309F10E94A5128FE3EB
:1022D0000E94BF1388E00E94EB1388E00E94EB137A
:1022E0000E94543C109280040E94513C80E00E9465
:1022F0004B131F91089586E491E165E00E947016EA
:102300008823A1F0812F0E94513CDFCF0E94543CD2
:10231000109280040E94513C86E491E165E00E94A5
:102320007016882331F70E94F00DE3CF0E94F00D64
:10233000E9CF0F931F93CF93DF93182FEB010E94E8
:10234000543C982F80910405882309F055C081E002
:1023500080930405892F0E94513C0E94543C082F11
:102360001092FE04D0930005C093FF040E94F30571
:102370008FE78FB9779BFECF8FB11FB8779BFECFCA
:102380008FB180930505882311F1E091FF04F0914E
:1023900000058083809105058F5F809305051817E0
:1023A00018F410930505812F823088F091E01FB852
:1023B000779BFECF8FB1E091FF04F0910005E90F0C
:1023C000F11D80839F5F80910505981780F381E060
:1023D0008093FE04802F0E94513C0E94F10584E707
:1023E00092E165E00E947016882379F081E0DF9128
:1023F000CF911F910F910895892F0E94513C80E049
:10240000DF91CF911F910F9108950E94543C10923B
:1024100004050E94513C80E0DF91CF911F910F9104
:1024200008950F931F93CF93DF93182FEB010E9412
:10243000543C982F80910105882309F048C081E021
:1024400080930105892F0E94513C0E94543C082F23
:102450001092FE041093FD04D0930305C09302056F
:102460000E94F3058EE38FB9779BFECF1FB12091B9
:10247000FD04222381F090E0E0910205F091030534
:1024800081918FB9F0930305E0930205779BFECF0E
:102490009F5F9217A8F381E08093FE04802F0E9433
:1024A000513C0E94F1058EE892E165E00E947016B1
:1024B000882389F40E94543C109201050E94513CEB
:1024C00010E0812FDF91CF911F910F910895892FF7
:1024D0000E94513C10E0812FDF91CF911F910F910D
:1024E00008950E945B100895FF920F931F930E941E
:1024F000543CF09005050091FF04109100051092E6
:1025000004050E94513C8F2DB8010E945B101F9161
:102510000F91FF9008950E94DF0F0895FF920F938F
:102520001F930E94543CF090FD040091020510910D
:102530000305109201050E94513C8F2DB8010E94A5
:10254000DF0F1F910F91FF90089589B78F7B89BF8F
:1025500081E0089580E0089580E008950E94DE14EF
:1025600008950E94880E08950E94D31408950E9431
:10257000D31481E008950E94E11408950E94CF14BD
:1025800008950E94880E882329F00E94DE14882373
:1025900021F408950E94D31408950E94CF14089541
:1025A0000E94C51408950F931F93182F0E94543C46
:1025B000082F0E94D314812F0E94E1140E94CF148F
:1025C0000E94C514802F0E94513C81E01F910F9101
:1025D0000895982F9A01AB018BE0692F0E944B3729
:1025E0000895982F9A01AB018AE0692F0E944B371A
:1025F00008951F93182F0E94543C10930F050E94BA
:10260000513C0E94CA0580930E058BE061E021E0F9
:1026100030E040E050E00E944B371F9108950E9447
:10262000F30A08951F930E94CA05182F90910F0571
:1026300080910E05891711F0191761F010930E059E
:102640008BE061E021E030E040E050E00E944B3759
:102650001F9108950E94F30A882381F781E0F8CF43
:102660000E940306282F9091060580910D05891779
:1026700011F0291759F020930D058AE061E021E05F
:1026800030E040E050E00E944B37089581E008952B
:102690000E94181008950F931F93182F0E94543C06
:1026A000082F812F0E945E0589B7806489BF802F23
:1026B0000E94513C81E01F910F9108951F920F924B
:1026C0000FB60F920BB60F9211240F931F932F93F7
:1026D0003F934F935F936F937F938F939F93AF93AA
:1026E000BF93EF93FF930E94543C182F0E94FC1657
:1026F0008823B9F500E0812F0E94513C0E941810F8
:10270000882331F489B78F7B89BF88B7806488BFFD
:102710000E94543C282F013061F48DB79EB79093EE
:102720005F0580935E058091B1059091B2059EBFD3
:102730008DBF822F0E94513CFF91EF91BF91AF91CD
:102740009F918F917F916F915F914F913F912F91C9
:102750001F910F910F900BBE0F900FBE0F901F9007
:1027600018958DB79EB79093B2058093B10580916F
:102770005E0590915F059EBF8DBF01E0BCCFEF92DB
:10278000FF920F931F93182F0E94543CF82E109223
:1027900019050E94F30510641FB9779BFECF8FB116
:1027A0001FB8779BFECF8FB11FB8779BFECF182F36
:1027B00000E0EFB00E94F10581E0809319058F2DB4
:1027C0000E94513CFF24E02AF12AC7011F910F917A
:1027D000FF90EF9008950F931F93182F0E94543C81
:1027E000082F0E94F3051FB9779BFECF1FB1802FE2
:1027F0000E94513C0E94F105812F1F910F91089575
:10280000DF92EF92FF920F931F93182FD62EF72E81
:102810000E94543CE82E109219050E94F3051FB93E
:10282000779BFECF0FB11F3030F0FFB8779BFECF04
:10283000DFB8779BFECF81E0809319058E2D0E9433
:10284000513C0E94F105802F1F910F91FF90EF9056
:10285000DF900895EF92FF920F931F93CF93DF9332
:10286000EC01F62E8A0180911905882339F4DF9155
:10287000CF911F910F91FF90EF9008950E94543CCB
:10288000E82E10921905D0931B05C0931A05F092FB
:10289000160510931805009317050E94F305209163
:1028A0001A0530911B05822F80688FB9779BFECF68
:1028B0008FB136952795822F807C8FB9779BFECF7D
:1028C0008FB150911605552381F040911705842F43
:1028D000909118059C01F90180818FB9779BFECFFB
:1028E00031968E2F841B8517B8F38E2D0E94513C94
:1028F00081E0809319058AE894E165E00E947016F2
:10290000DF91CF911F910F91FF90EF9008950E945A
:10291000BE0A0895409117055091180580911A0537
:1029200090911B05609116050E94BE0A08951F93A1
:1029300081E0809319050E94B3030E949D030E94C9
:10294000C1030E947E050E9494050E94FB050E941F
:10295000C4050E94DB050E94EF050E940F060E943D
:10296000543C182F0E94C1030E94B3030E949D0390
:10297000709A6C9A6B986A98699868986E9A812F89
:102980000E94513C81E01F9108958EB58F7E8EBDCF
:102990008EB5877F8EBD87B7806287BF089586B763
:1029A000846086BF089587B78F7D87BF86B78062B2
:1029B00086BF089581E0089581E0089586B782700A
:1029C0000895882339F48EB58F7B8EBD86B78062DB
:1029D00086BF08958EB580648EBD86B7806286BF3F
:1029E00008951F920F920FB60F920BB60F921124FB
:1029F0000F931F932F933F934F935F936F937F9307
:102A00008F939F93AF93BF93EF93FF930E94543C98
:102A1000182F0E94FC16882309F047C000E0812F80
:102A20000E94513C0E94543C282F80912405882309
:102A300081F08091290580932C0588608093290579
:102A40008EBD80912A0590912B059BBD8ABD109269
:102A50002405822F0E94513C0E94543C282F0130B3
:102A600061F48DB79EB790935F0580935E0580916A
:102A7000B1059091B2059EBF8DBF822F0E94513C3F
:102A8000FF91EF91BF91AF919F918F917F916F9146
:102A90005F914F913F912F911F910F910F900BBE1E
:102AA0000F900FBE0F901F9018958DB79EB7909303
:102AB000B2058093B10580915E0590915F059EBF40
:102AC0008DBF01E0ACCF0F931F930E94543C06B51D
:102AD00017B50E94513CC8011F910F910895EF92C4
:102AE000FF921F937C01162F17700E94543C1FBC4D
:102AF00097B79F7E97BF97B79B7F97BF97B79F7DED
:102B000097BF1DBC1CBCFBBCEABC96B7906196BFCE
:102B100018601EBD0E94513C81E01F91FF90EF9014
:102B200008950E94543C94E090932C052FEF30E0E0
:102B300030932B0520932A050E94513C81E0089593
:102B40000E94C11208951F920F920FB60F920BB6FA
:102B50000F9211240F931F932F933F934F935F93E3
:102B60006F937F938F939F93AF93BF93EF93FF9355
:102B70000E94543C082F0E94FC16882309F43FC091
:102B80008DB79EB79093B2058093B10580915E0595
:102B900090915F059EBF8DBF802F0E94513C0E9487
:102BA000543C06B517B50E94513CC8010E94C112A1
:102BB0000E94543C282F8DB79EB790935F05809359
:102BC0005E058091B1059091B2059EBF8DBF822FA9
:102BD0000E94513CFF91EF91BF91AF919F918F91D6
:102BE0007F916F915F914F913F912F911F910F9125
:102BF0000F900BBE0F900FBE0F901F901895802F57
:102C00000E94513C0E94543C06B517B50E94513CAD
:102C1000C8010E94C1120E94543C282FD8CF0F93A4
:102C20001F930E94543C00912A0510912B050E948D
:102C3000513C0E94543C1FBC97B79F7E97BF97B7EB
:102C40009B7F97BF97B79F7D97BF1DBC1CBC1BBDCB
:102C50000ABD96B7906196BF98E09EBD0E94513C18
:102C600081E01F910F910895EF92FF921F930E94B0
:102C7000543CE0902A05F0902B0510912C050E9401
:102C8000513C17700E94543C1FBC97B79F7E97BF62
:102C900097B79B7F97BF97B79F7D97BF1DBC1CBC05
:102CA000FBBCEABC96B7906196BF18601EBD0E943F
:102CB000513C81E01F91FF90EF90089510925D05C7
:102CC00080E090E0FC01EE0FFF1FE80FF91FE35DCD
:102CD000FA4F1182108201968031910599F708957B
:102CE0001F93CF93DF93EC01162F0E94543C482F83
:102CF00080915D05803191F020E030E0F901EE0F28
:102D0000FF1FE20FF31FE35DFA4F80819181892B52
:102D100069F02F5F3F4F2031310581F7842F0E94EA
:102D2000513C80E0DF91CF911F910895D183C08302
:102D3000128380915D058F5F80935D05842F0E94D3
:102D4000513C81E0DF91CF911F910895CF93DF93A4
:102D50000E94543C682F80915D058823C1F1C0E03A
:102D6000D0E040E050E020E030E0F901EE0FFF1F3E
:102D7000E20FF31FE35DFA4F80819181892B39F0D7
:102D80008281481720F4C081D1814281522F2F5F68
:102D90003F4F2031310549F7209721F180915D05A2
:102DA000815080935D05852F90E0FC01EE0FFF1FA1
:102DB000E80FF91FE35DFA4F11821082862F0E94FF
:102DC000513CFE01099581E0DF91CF910895862F56
:102DD0000E94513C0E9460020E945E0280E0DF91EE
:102DE000CF910895862F0E94513C81E0DF91CF91D1
:102DF0000895FC01099508952DB73EB740E08091F4
:102E0000B3059091B4058217930708F041E0842F31
:102E1000089590E0FC01EE0FFF1FEE0FFF1FEE0F75
:102E2000FF1F9F01220F331F220F331FE20FF31FDB
:102E3000E81BF90BEE59FA4F748F638F0895FF93D7
:102E4000FFB7FF930F921F922F923F924F925F9284
:102E50006F927F928F929F92AF92BF92CF92DF92AA
:102E6000EF92FF920F931F932F933F934F935F9394
:102E70006F937F938F939F93AF93BF93CF93DF9382
:102E8000EF93FF938DB79EB790935F0580935E0598
:102E9000E0916005F0916105808191819EBF8DBFB9
:102EA000FF91EF91DF91CF91BF91AF919F918F9162
:102EB0007F916F915F914F913F912F911F910F9152
:102EC000FF90EF90DF90CF90BF90AF909F908F904A
:102ED0007F906F905F904F903F902F901F900F903A
:102EE000FF91FFBFFF910895FF93FFB7FF930F92EC
:102EF0001F922F923F924F925F926F927F928F928A
:102F00009F92AF92BF92CF92DF92EF92FF920F9378
:102F10001F932F933F934F935F936F937F938F9361
:102F20009F93AF93BF93CF93DF93EF93FF93E09182
:102F30006005F09161058DB79EB791838083809184
:102F40005E0590915F059EBF8DBFFF91EF91DF9170
:102F5000CF91BF91AF919F918F917F916F915F9131
:102F60004F913F912F911F910F91FF90EF90DF9024
:102F7000CF90BF90AF909F908F907F906F905F9019
:102F80004F903F902F901F900F90FF91FFBFFF91A8
:102F90000895AC012DB73EB78091B3059091B4056B
:102FA0008217930750F0E0916005F091610584E08D
:102FB0008283568F458F0E94741708958091600513
:102FC0009091610525E08236920719F08958954065
:102FD000C9F020E030E0F901EE0FFF1FEE0FFF1FF8
:102FE000EE0FFF1FCF01880F991F880F991FE80F61
:102FF000F91FE21BF30BEE59FA4F88E082830E941F
:103000007417089521E030E0E6CF8091B00581117A
:1030100008958EE09AE162E00E94701681E080934C
:10302000B0050895823008F0089590E09C01220FC9
:10303000331F220F331F220F331FF901EE0FFF1F23
:10304000EE0FFF1FE20FF31FE81BF90BEE59FA4FCB
:103050008281853069F08091B005882329F78EE060
:103060009AE162E00E94701681E08093B0050895B5
:1030700082E08283F0CFEF92FF920F931F93CF9362
:10308000DF930E94543C282F80916405823009F41C
:1030900087C0CFEFDFEFEE24EA94FE2C80918B0502
:1030A000823009F467C08FEFCF3FD80739F187012D
:1030B000822F0E94513CCD2B81F10E94543C9701FC
:1030C000220F331F220F331F220F331FF901EE0F80
:1030D000FF1FEE0FFF1FE20FF31FEE19FF09EE595E
:1030E000FA4F9481915094830E94513CC801DF9122
:1030F000CF911F910F91FF90EF9008951092B0051E
:10310000822F0E94513C0FEF1FEFC801DF91CF913A
:103110001F910F91FF90EF9008950E94543C282F2B
:1031200080916405823009F449C080918B0582301A
:1031300009F43FC0C701880F991F880F991F880F96
:10314000991FFC01EE0FFF1FEE0FFF1FE80FF91F85
:10315000EE19FF09EE59FA4F848181508483822F42
:103160000E94513CC801DF91CF911F910F91FF90B8
:10317000EF90089580918D0590E0C817D9070CF065
:1031800096CF80918D05C82FD0E071E0E72EF12C0D
:103190008701822F0E94513CCD2B09F08ECFBDCFED
:1031A0008091660580916605C82FD0E0EE24FF244B
:1031B00075CF80918C0580938D05BCCF809165057E
:1031C00080936605B2CF1F93CF93DF930E94543C48
:1031D000182FE0916005F091610512828189928932
:1031E000638974890E941F0A0E949D1B9C01220F03
:1031F000331F220F331F220F331FE901CC0FDD1FB6
:10320000CC0FDD1FC20FD31FC81BD90BCE59DA4F0D
:10321000EB8DFC8D309719F009951C8E1B8E0E944A
:103220007417812F0E94513CDF91CF911F91089517
:10323000E0916005F0916105858D968D0E94F916EB
:103240000E94E3182F923F924F925F926F927F926B
:103250008F929F92AF92BF92CF92DF92EF92FF92A6
:103260000F931F93CF93DF933C011B014A01290168
:103270008DB79EB72091B3053091B4052817390753
:1032800060F424173507F8F080916405882309F469
:103290009FC080918B058823D9F020E030E0C901E0
:1032A000DF91CF911F910F91FF90EF90DF90CF9022
:1032B000BF90AF909F908F907F906F905F904F9056
:1032C0003F902F9008955093B4054093B305DCCF01
:1032D000C1E0D0E00E94543C182FCE01880F991F06
:1032E000880F991F880F991FFC01EE0FFF1FEE0F2B
:1032F000FF1FE80FF91FEC1BFD0BEE59FA4FF0937F
:103300006105E09360059182808282E08283768EFF
:10331000658E03830483328A218A948A838A148E79
:10332000138E568A458AD08EC78AB28EA18EC70167
:103330000E94C33B2091600530916105482F4F5F8B
:10334000C9010596B7010E940A3BF101E40DF51D84
:103350008FEF9EEE91838083938382838DB79EB798
:1033600090935F0580935E05E0916005F0916105A3
:10337000808191819EBF8DBF88E199E18F939F935A
:1033800080E090E01F92019682329105D9F78DB7C7
:103390009EB79183808380915E0590915F059EBF6B
:1033A0008DBF10926105109260058091B005882351
:1033B00031F0812F0E94513C21E030E070CF8EE04F
:1033C0009AE162E00E94701681E08093B005F1CF2F
:1033D000C0E0D0E07FCF1F930E94543C182F82E6BC
:1033E00095E060E070E04EE450E00E94433C1092B3
:1033F00061051092600510925F0510925E051092B3
:10340000B2051092B1051092B0051092B405109259
:10341000B305812F0E94513C1F910895FF920F9395
:103420001F93CF93DF930E94543CF82E8091640544
:10343000843009F4BDC080918B05843009F4E1C06B
:103440008F2D0E94513C0E94543C282F809164058E
:10345000823009F49AC0CFEFDFEF0FEF1FEF8091BA
:103460008B05823009F454C0FFEFCF3FDF0709F42A
:103470005DC0822F0E94513CCD2B09F462C00E9496
:10348000543C9801220F331F220F331F220F331F8A
:10349000F901EE0FFF1FEE0FFF1FE20FF31FE01BFE
:1034A000F10BEE59FA4F9481915094830E94513C54
:1034B0008FEF0F3F180731F18EE09AE163E00E9431
:1034C0007016C8010E94631BAC0197FD1BC0880FDA
:1034D000991F880F991F880F991F9C01220F331F76
:1034E000220F331F820F931F841B950B8E599A4F07
:1034F00090936105809360050E941F1710926105EB
:1035000010926005DF91CF911F910F91FF90089568
:1035100080918D0590E0C817D9070CF0AACF809153
:103520008D05C82FD0E001E010E0A3CF1092B005C8
:10353000822F0E94513CDF91CF911F910F91FF90FC
:1035400008950E94543C282F80916405823059F1DF
:1035500080918B05823011F1C801880F991F880F67
:10356000991F880F991FFC01EE0FFF1FEE0FFF1F21
:10357000E80FF91FE01BF10BEE59FA4F84818150DF
:103580008483822F0E94513C93CF80916605809165
:103590006605C82FD0E000E010E061CF80918C0577
:1035A00080938D05D9CF8091650580936605D0CF36
:1035B000C0E0D0E08EE09AE163E00E947016CE0198
:1035C000880F991F880F991F880F991F8C01000F72
:1035D000111F000F111F080F191F0C1B1D0B0E5977
:1035E0001A4F85E0F80182838F2D0E94513CF8012B
:1035F000258D368D40E050E08C2F61E00E944B37E6
:1036000081CFC1E0D0E0D6CFAF92BF92CF92DF9210
:10361000EF92FF920F931F93CF93DF937C016A0188
:10362000590176956795680F791FC3E7D5E0A0E04B
:10363000B0E0FD01EE0FFF1FEE0FFF1FEE0FFF1FAB
:10364000CF01880F991F880F991FE80FF91FEA1BF8
:10365000FB0BEE59FA4F8281882311F1EE81FF8135
:103660003097F1F0088119814A815B819F012E5FBB
:103670003F4F8885998596958795280F391F2E1578
:103680003F0520F032976E177F07D8F44F5F5F4FEA
:103690004C155D0528F001501040A016B10688F4C5
:1036A0001196A796A230B10521F680E0DF91CF9167
:1036B0001F910F91FF90EF90DF90CF90BF90AF9050
:1036C000089581E0F3CF9C01AC01440F551F440FD6
:1036D000551F440F551FFA01EE0FFF1FEE0FFF1F7E
:1036E000E40FF51FE81BF90BEE59FA4FA189B289D7
:1036F00085899689A80FB91F8D919C9111978F5F2D
:103700009E4E39F412968D919C9113978F5F9E4E29
:1037100079F0FA01EE0FFF1FEE0FFF1FE40FF51F08
:10372000E21BF30BEE59FA4F89E082832FEF3FEF54
:10373000C90108958EE595E008954F935F938091B8
:1037400060059091610525E08236920749F089581D
:10375000954051F020E030E05F914F91C90108950C
:1037600080E090E09C01F8CF81E090E09C01F4CFF4
:10377000FF920F931F93082FF62E0E94543C182F90
:1037800080916405863059F080918B058630A9F0D0
:10379000812F0E94513C1F910F91FF9008958091BD
:1037A0007F05801789F7809180058F1569F782E082
:1037B000809364050E940518E7CF8091A6058017C5
:1037C00039F78091A7058F1519F782E080938B0553
:1037D0000E940518DDCF893029F48091B005882337
:1037E00021F008950E94121808958EE09AE162E097
:1037F0000E94701608951F920F920FB60F92112417
:10380000349A37980F900FBE0F901F90189517B8E5
:103810008EE086B9089517B897B18F71892B87B953
:103820003398349A86B1806C86B93699FECF84B1CC
:1038300090E025B1379830E023703070322F222786
:10384000282B392BC90108951E9816981D9A159A90
:1038500081E090E00E940B1C1D98159808951D981A
:1038600015981E9A169A81E090E00E940B1C1E98F3
:1038700016980895A59AAD9A85E090E00E940B1CD9
:10388000A598AD980895A59AAD9A86E090E00E941B
:103890000B1CA598AD980895A49AAC9A83E090E08B
:1038A0000E940B1CA498AC980895A49AAC9A84E04A
:1038B00090E00E940B1CA498AC9808951F930E945E
:1038C000543C182F0E94A2028091B5058B7F8093F3
:1038D000B505812F0E94513C1F9108951F930E94AE
:1038E000543C182F0E94A4028091B50584608093F7
:1038F000B505812F0E94513C1F9108951F930E948E
:10390000543C182F8091B50582FD07C00E946E1CA3
:10391000812F0E94513C1F9108950E945E1C812FAF
:103920000E94513C1F9108951F930E94543C182FF0
:103930000E9492028091B5058D7F8093B505812FFD
:103940000E94513C1F9108951F930E94543C182FD0
:103950000E9494028091B50582608093B505812F05
:103960000E94513C1F9108951F930E94543C182FB0
:103970008091B50581FD07C00E94A41C812F0E9483
:10398000513C1F9108950E94941C812F0E94513C2C
:103990001F9108951F930E94543C182F0E9480028B
:1039A0008091B5058E7F8093B505812F0E94513C93
:1039B0001F9108951F930E94543C182F0E94820269
:1039C0008091B50581608093B505812F0E94513C9F
:1039D0001F9108951F930E94543C182F8091B505A4
:1039E00080FD07C00E94DA1C812F0E94513C1F916C
:1039F00008950E94CA1C812F0E94513C1F91089576
:103A00001F930E94543C182F1092B5050E948E02FD
:103A10000E94AC020E949E020E9480020E94A202AA
:103A20000E949202812F0E94513C1F9108951F9382
:103A30000E94543C182F0E94F103812F0E94513C98
:103A40001F9108951F930E94543C182F0E94171D28
:103A50000E94E503812F0E94513C1F9108951F93FE
:103A60000E94543C182F0E94171D0E94E303812FCF
:103A70000E94513C1F9108950E94691D08950E9463
:103A8000A31D08950E94CB1D08950E94EB1D08956B
:103A90000E94AC1E08950E94C91E08950E94041E33
:103AA00008950E94421E08950E94751E08950E9466
:103AB000951E08950E94091F08950E94261F0895CB
:103AC0000E94E01E08950E943D1F08950E94471F16
:103AD0000895BF92CF92DF92EF92FF920F931F93C0
:103AE000DF93CF9300D000D0CDB7DEB76C01498310
:103AF0005A836B837C830E94543CB82EE980FA8001
:103B00000B811C81E199FECFC601B7010E949A5634
:103B1000E199FECF980144275527C6010296B901C5
:103B20000E949A568B2D0E94513C0F900F900F903F
:103B30000F90CF91DF911F910F91FF90EF90DF9049
:103B4000CF90BF900895DF92EF92FF920F931F9353
:103B5000CF93DF93EC017A018B010E94543CD82E65
:103B6000E199FECFCE01B7010E949A56E199FECFAE
:103B7000980144275527CE010296B9010E949A5612
:103B80008D2D0E94513CDF91CF911F910F91FF909D
:103B9000EF90DF900895FF920F931F93DF93CF93E1
:103BA00000D0CDB7DEB78C017A8369830E94543C84
:103BB000F82EE199FECF69817A81C8010E949A5658
:103BC0008F2D0E94513C0F900F90CF91DF911F914C
:103BD0000F91FF900895FF920F931F93CF93DF9360
:103BE000EC018B010E94543CF82EE199FECFCE01EE
:103BF000B8010E949A568F2D0E94513CDF91CF91BF
:103C00001F910F91FF900895DF92EF92FF920F9313
:103C10001F93DF93CF9300D000D0CDB7DEB78C01D8
:103C20000E94543CD82EE199FECFC8010E947D56D7
:103C30007C01E199FECFC80102960E947D56A0E06A
:103C4000B0E0DC0199278827970140E050E0820F1F
:103C5000931FA41FB51F89839A83AB83BC838D2DCB
:103C60000E94513C69817A818B819C810F900F90D9
:103C70000F900F90CF91DF911F910F91FF90EF90D8
:103C8000DF900895CF92DF92EF92FF920F931F93F0
:103C9000CF93DF93EC010E94543C182FE199FECFA3
:103CA000CE010E947D566C01E199FECFCE010296B5
:103CB0000E947D567C01812F0E94513C00E010E063
:103CC0008701FF24EE24C601A0E0B0E0E80EF91E53
:103CD0000A1F1B1FB701C801DF91CF911F910F91E0
:103CE000FF90EF90DF90CF900895FF920F931F9376
:103CF000DF93CF9300D0CDB7DEB78C010E94543C48
:103D0000F82EE199FECFC8010E947D569A838983DF
:103D10008F2D0E94513C89819A810F900F90CF91F5
:103D2000DF911F910F91FF900895FF920F931F93C2
:103D30008C010E94543CF82EE199FECFC8010E94EC
:103D40007D56182F092F8F2D0E94513C812F902FC7
:103D50001F910F91FF900895FF920F931F93DF9390
:103D6000CF930F92CDB7DEB78C0169830E94543C8C
:103D7000F82EE199FECFC80169810E948D568F2DE2
:103D80000E94513C0F90CF91DF911F910F91FF90B6
:103D900008950F931F93CF93DF93EC01062F0E949A
:103DA000543C182FE199FECFCE01602F0E948D5612
:103DB000812F0E94513CDF91CF911F910F91089567
:103DC000CF92DF92EF92FF920F931F93CF93DF93E7
:103DD0007C018B01D42E0E94543CC82E1016110673
:103DE00064F4C0E0D0E0CE018E0D9F1D6D2D0E94C9
:103DF000C91E2196C017D107B4F38C2D0E94513CE7
:103E0000DF91CF911F910F91FF90EF90DF90CF90B6
:103E10000895FF920F931F93DF93CF930F92CDB727
:103E2000DEB78C010E94543CF82EE199FECFC80108
:103E30000E94755689838F2D0E94513C89810F9075
:103E4000CF91DF911F910F91FF9008950F931F93D2
:103E5000CF93DF93EC010E94543C082FE199FECFF1
:103E6000CE010E947556182F802F0E94513C812F41
:103E7000DF91CF911F910F9108959C01FB01E19972
:103E8000FECFCA01B901AF010E94835608959C017B
:103E9000FB01E199FECFCA01B901AF010E9465564D
:103EA00008951092B6051092C00508958091B60548
:103EB000882381F18091C005882379F142E050E0A8
:103EC0009A01220F331FCA01880F991F880F991F6B
:103ED000880F991F280F391F2A543A4F81E0F901A2
:103EE000808341831382FA01EE0FFF1FEE0FFF1F45
:103EF000E40FF51FEE0FFF1FE854FA4F10828FEF0B
:103F00009FEFAFEFBFEFF90186839783A087B1875B
:103F1000CA01089540E050E0D3CF41E050E0D0CF57
:103F20009C01FC01EE0FFF1FEE0FFF1FEE0FFF1FA6
:103F3000220F331FE20FF31FEA54FA4F1082089545
:103F40001092B6051092C005089580E090E00E949E
:103F5000EA2620E030E0019711F0C901089521E040
:103F600030E0C9010895CF92DF92EF92FF920F9354
:103F70001F93CF93DF93EC017A018B01F901211597
:103F8000310509F447C02E813F8148855985690173
:103F9000E130F105B1F157FD1FC08C819D81A0E09A
:103FA000B0E082179307A407B507B4F0329719F071
:103FB00020E030E01CC0B801A701480F591F6A1F5C
:103FC0007B1F4E835F836887798777FD05C08417E1
:103FD0009507A607B70764F7C601AA2797FDA0951E
:103FE000BA2F8E839F83A887B9872FEF3FEFC90130
:103FF000DF91CF911F910F91FF90EF90DF90CF90C5
:1040000008952E0D3F1D401F511F2E833F8348876B
:104010005987C1CF8C819D81A0E0B0E084179507BE
:10402000A607B70714F34E835F836887798720E07C
:1040300030E0DDCF5F926F927F928F929F92AF922E
:10404000BF92CF92DF92EF92FF920F931F93DF9375
:10405000CF93CDB7DEB72D970FB6F894DEBF0FBE66
:10406000CDBF3C014B01089481089108880E991E30
:10407000D4011C9274010894E108F1086A015E0100
:104080000894A11CB11C8FE2582EC501B6010E94F4
:10409000F629C5010E94C33B482F082F192FC701DD
:1040A000801B910BB5010E940A3BF70150820095DD
:1040B0001095E00EF11EC6016FE170E00E947126BE
:1040C000C82EDD24C114D10401F7D7015C92B401DC
:1040D0006E197F09161617065CF5F30120E030E033
:1040E0004FE205C00894E11CF11CD7014C914193AB
:1040F0002F5F3F4F26173707ACF3F301E60FF71F8B
:10410000319710822D960FB6F894DEBF0FBECDBF4B
:10411000CF91DF911F910F91FF90EF90DF90CF90A3
:10412000BF90AF909F908F907F906F905F90089519
:10413000F301E6CF0E94F1280895CF92DF92EF922B
:10414000FF921F93CF93DF936C01EB017A011882EA
:1041500011E003C01F5F113689F0812FB7010E9463
:1041600060270197B9F78881F601E80FF11D1083E8
:1041700088818F5F88831F5F113679F7DF91CF9138
:104180001F91FF90EF90DF90CF900895EF92FF92F4
:104190000F931F937C018B01CB0160E070E04CE03A
:1041A00050E097010E94CB25C8016CE070E00E94AE
:1041B0007126F7018487C8016DE170E00E947126C5
:1041C000F7018587C8016EE170E00E947126F70152
:1041D00086871F910F91FF90EF9008955F926F92E5
:1041E0007F928F929F92AF92BF92CF92DF92EF9287
:1041F000FF920F931F93DF93CF93CDB7DEB72D9729
:104200000FB6F894DEBF0FBECDBF3C014B01089442
:1042100081089108880E991ED4011C92740108949B
:10422000E108F1080E94AC296C015E010894A11C10
:10423000B11C9FE2592EC501B6010E94F629C501A5
:104240000E94C33B482F082F192FC701801B910BD9
:10425000B5010E940A3BF701508200951095E00ECF
:10426000F11EC6016FE170E00E947126C82EDD24A8
:10427000C114D10401F7D7015C92B4016E197F0912
:10428000161617065CF5F30120E030E04FE205C09A
:104290000894E11CF11CD7014C9141932F5F3F4FD3
:1042A00026173707ACF3F301E60FF71F319710829B
:1042B0002D960FB6F894DEBF0FBECDBFCF91DF9124
:1042C0001F910F91FF90EF90DF90CF90BF90AF9034
:1042D0009F908F907F906F905F900895F301E6CF4D
:1042E000DF93CF9300D0CDB7DEB7BE016F5F7F4FB6
:1042F0000E94712C9C018FEF2F3F380731F4C901C8
:104300000F900F90CF91DF91089589819A81892B29
:10431000B1F72FEF3FEFF3CFDF93CF9300D0CDB7BF
:10432000DEB7BE016F5F7F4F0E94712C0E94B129E2
:104330000F900F90CF91DF9108956F927F928F929F
:104340009F92AF92BF92CF92DF92EF92FF920F9324
:104350001F93DF93CF9300D000D0CDB7DEB77C01A1
:104360008B01CB010E94CA26B82EA92EC8010E943B
:10437000C33B6C01C701BE016F5F7F4F0E94712C70
:104380004C01C801BE016D5F7F4F0E94712CF82E59
:104390000E94782E782E692EC401672D762D0E94FA
:1043A000E0270C0D1D1D0B19872D962D60E070E088
:1043B000402F50E02B2D3A2D0E94BC25872D962DA5
:1043C000602F70E040E00E942226872D962D6FE13D
:1043D00070E04F2D0E9422268F2D672D0E94512ABA
:1043E0002EE0E22EF12C07C00894E11CF11C86E1BE
:1043F000E816F104E9F0C401B7010E947126082F04
:10440000882391F30E94792D182F872D962DB701BF
:10441000412F0E942226802F90E0612F70E00E94A1
:10442000B2270894E11CF11C86E1E816F10419F7A3
:1044300080E090E00F900F900F900F90CF91DF9160
:104440001F910F91FF90EF90DF90CF90BF90AF90B2
:104450009F908F907F906F9008959F92AF92BF92A0
:10446000CF92DF92EF92FF920F931F93DF93CF9340
:1044700000D000D0CDB7DEB77C018B01CB010E940C
:10448000CA26A82E992EC8010E94C33B6C01C70101
:10449000BE016F5F7F4F0E94712CF82EE92E6FE1F5
:1044A00070E00E9471266F2D0E942E2AC801BE0165
:1044B0006D5F7F4F0E94712CB82E8F2D9E2D6FE166
:1044C00070E04B2D0E9422260C0D1D1D0A198F2D08
:1044D0009E2D60E070E0402F50E02A2D392D0E9483
:1044E000BC258F2D9E2D602F70E040E00E9422267B
:1044F0008B2D6F2D0E94512A80E090E00F900F903D
:104500000F900F90CF91DF911F910F91FF90EF903F
:10451000DF90CF90BF90AF909F9008952F923F92E1
:104520004F925F926F927F928F929F92AF92BF92C3
:10453000CF92DF92EF92FF920F931F93CF93DF936F
:10454000EC012B013A01EE80FF80088519855A01A4
:10455000CC24B7FCC094DC2CA60195012E0D3F1D88
:10456000401F511F6C817D81CB01A0E0B0E082171C
:104570009307A407B507ECF4972F987F80E0777036
:10458000672B11F08050984FA0E0B0E0821793079E
:10459000A407B5070CF4AEC0A3014E0D5F1D5D83EB
:1045A0004C838A8190E06DE170E00E9406266C8168
:1045B0007D8161507A4F08F09AC0EE80FF800885B7
:1045C0001985C801B70120E038E040E050E00E94C2
:1045D000DF554901C801B7016150704080409040EB
:1045E0006A0D7B1D8C1D9D1D20E038E040E050E0F1
:1045F0000E94DF5519018216930609F495C0C8017F
:10460000B70120E038E040E050E00E94DF55462F3F
:10461000E72F862F9E2F60E071E00E94AA557C0153
:10462000242F3E2FC90197FDB2C0092F112707FD86
:104630001A958A81682D0E94B629812C61E0962EF8
:104640008E189F0890E00197880F991F880F991F77
:10465000880F991F800F911F6E2DA20194010E9457
:104660002E356E817F8188859985615070408040AC
:1046700090406A0D7B1D8C1D9D1D20E038E040E0C0
:1046800050E00E94DF55CB0177FD7EC0092F112736
:1046900007FD1A958A81622D0E94B62990E0019744
:1046A000880F991F880F991F880F991F480C591C54
:1046B00068187908800F911F60E0A20193010E94A1
:1046C0002E3520E030E0C901DF91CF911F910F918D
:1046D000FF90EF90DF90CF90BF90AF909F908F9022
:1046E0007F906F905F904F903F902F90089522E0C1
:1046F00030E0E9CF8A8190E00E94742AEE80FF804A
:10470000088519856C817D81A60195012E0D3F1DBF
:10471000401F511FCB01A0E0B0E082179307A40710
:10472000B5070CF046CF38CFC801B70120E038E01C
:1047300040E050E00E94DF55F62EE72ECB0177FDDA
:1047400029C0092F112707FD1A958A81682D0E941B
:10475000B629282F30E021503040220F331F220F7E
:10476000331F220F331F8F2D9E2D60E071E00E94BA
:10477000AA55682FC901800F911FA20193010E94C1
:104780002E3520E030E09FCF81509F4F7FCF81506A
:104790009F4F4BCF81509F4FD4CF2F923F924F923C
:1047A0005F926F927F928F929F92AF92BF92CF92C1
:1047B000DF92EF92FF920F931F93DF93CF9300D07E
:1047C00000D000D0CDB7DEB74C017C836B831A01DB
:1047D000FC01A680B780C084D1842A01662457FCDE
:1047E0006094762C83017201EA0CFB1C0C1D1D1DCC
:1047F00084819581A0E0B0E08E159F05A007B107E8
:104800000CF4A5C0C601B50120E038E040E050E05E
:104810000E94DF553E832D830894E108F1080109C9
:104820001109C801B70120E038E040E050E00E94E3
:10483000DF553A8329838D819E818217930709F47E
:1048400089C0C601B50120E038E040E050E00E9498
:10485000DF55462FE72F862F9E2F60E071E00E94E4
:10486000AA557C01242F3E2FC90197FDA8C0092F0E
:10487000112707FD1A95F40182816D810E94B629E6
:10488000C12C31E0D32ECE18DF0890E00197880FBD
:10489000991F880F991F880F991F800F911F6E2DE8
:1048A0004B815C8196010E943135F40166817781EC
:1048B000808591856150704080409040640D751DE9
:1048C000861D971D20E038E040E050E00E94DF5553
:1048D000CB0177FD71C0092F112707FD1A95F4014F
:1048E000828169810E94B62990E00197880F991F03
:1048F000880F991F880F991F2B813C812C0D3D1D1E
:104900003C832B832C183D08800F911F60E0A90188
:1049100091010E94313520E030E0C90126960FB6A2
:10492000F894DEBF0FBECDBFCF91DF911F910F91E5
:10493000FF90EF90DF90CF90BF90AF909F908F90BF
:104940007F906F905F904F903F902F9008952FEF42
:104950003FEFE3CFC601B50120E038E040E050E092
:104960000E94DF55F62EE72ECB0177FD2BC0092FD5
:10497000112707FD1A95F40182816D810E94B629E5
:10498000282F30E021503040220F331F220F331FD9
:10499000220F331F8F2D9E2D60E071E00E94AA55DB
:1049A000682FC901800F911F4B815C8191010E948A
:1049B000313520E030E0B1CF81509F4F8CCF815016
:1049C0009F4F55CF81509F4FD2CFCF93DF93C0E001
:1049D000D0E0CE010E94EA26181619061CF4CE017A
:1049E0000E9408272196C136D10599F7DF91CF9112
:1049F00008950E94A82D08950E94A62E08950E9451
:104A000070212FEF8F3F920731F00E94FE2720E0A8
:104A100030E0C90108952FEF3FEFC9010895EF92EB
:104A2000FF920F931F93DF93CF9300D0CDB7DEB7E4
:104A30007C01BE016F5F7F4F0E94712C8C018FEF54
:104A40000F3F180761F42FEF3FEFC9010F900F9050
:104A5000CF91DF911F910F91FF90EF900895898181
:104A60009A81892B81F7C7010E94CA26B8010E944A
:104A7000E92B20E030E0E9CFFC01818190E00E9449
:104A8000901F0895AF92BF92CF92DF92EF92FF9264
:104A90000F931F93DF93CF9300D0CDB7DEB76C0198
:104AA0008B01BE016F5F7F4F0E94712C5C01C801BA
:104AB0000E949D267C01009781F420E030E0C9012E
:104AC0000F900F90CF91DF911F910F91FF90EF907A
:104AD000DF90CF90BF90AF9008958FEFA8168FEF23
:104AE000B80659F389819A81009739F582E0E81672
:104AF000F10419F7C6010E94CA26B5010E94BB2B1A
:104B0000182F0E94561F082FF92E812F90E0602F3A
:104B10007F2D42E050E00E94D72A802F9F2D9C01DC
:104B2000220F331F220F331F220F331F880F991FAD
:104B3000280F391F2A543A4FC2CF029709F0BDCF30
:104B40000E94561F182F092FC501612F702FA70132
:104B50000E94D72A812F902FE2CF880F991F82952C
:104B60009295907F9827807F9827860F971FBA018C
:104B7000422F0E94601D0895880F991F829592957B
:104B8000907F9827807F9827860F971FBA01A901E9
:104B90000E94631D0895880F991F82959295907FBA
:104BA0009827807F9827860F971FBA01A9010E9436
:104BB000661D0895880F991F82959295907F98277A
:104BC000807F9827860F971FBA01A9010E943F1D79
:104BD0000895880F991F82959295907F9827807FDE
:104BE0009827860F971FBA01A9010E943F1D0895BB
:104BF000880F991F82959295907F9827807F98279C
:104C0000860F971FBA010E94421D0895880F991FB1
:104C100082959295907F9827807F9827860F971F7F
:104C2000BA010E94451D0895880F991F829592959B
:104C3000907F9827807F9827860F971F642F0E9468
:104C4000481D0895880F991F82959295907F982707
:104C5000807F9827860F971F642F0E944B1D089511
:104C6000880F991F82959295907F9827807F98272B
:104C7000860F971F0E944E1D0895880F991F8295D9
:104C80009295907F9827807F9827860F971F0E9484
:104C9000511D0895880F991F82959295907F9827AE
:104CA000807F9827860F971F0E94541D0895880FB4
:104CB000991F82959295907F9827807F9827860FDD
:104CC000971F0E94571D0895880F991F82959295EE
:104CD000907F9827807F9827860F971F0E945A1DE4
:104CE0000895880F991F82959295907F9827807FCD
:104CF0009827860F971F0E945D1D0895FC01408133
:104D00004F32B9F0DC01FB0103C0419311964C9185
:104D1000842F81568A31C8F3805E8A31B0F34F35D3
:104D2000A1F34E3291F38F5E8A3078F31082CD0179
:104D30000895DC0111964181E6CFCF93DF93EC011A
:104D40000E94C33B019789F0CE010E94C33B0297AA
:104D500031F020E030E0C901DF91CF91089525E0E6
:104D600030E0C901DF91CF9108958881823749F001
:104D7000873769F0813641F0843759F724E030E015
:104D8000EACF21E030E0E7CF23E030E0E4CF22E0DB
:104D900030E0E1CFCF93DF93EC010E94C33BFC01F5
:104DA0003197EC0FFD1F80818F3221F408C0829172
:104DB0008F3229F0CE17DF07D1F7FE0104C0EC17C0
:104DC000FD0729F03196CF01DF91CF9108958F3201
:104DD000C9F3F9CFFF920F931F938C016DE070E040
:104DE0000E947126F82EC8016CE070E00E947126C6
:104DF000FF2039F0282F30E0C9011F910F91FF905B
:104E0000089520E030E0C9011F910F91FF900895AF
:104E1000EF92FF920F931F93DF93CF93CDB7DEB73F
:104E20002D970FB6F894DEBF0FBECDBF7C011D8657
:104E300060E070E04CE050E09E012F5F3F4F0E9429
:104E4000CB25C7016CE070E00E947126182FC701C6
:104E50006DE070E00E947126882379F0113021F115
:104E6000123059F40EE010E0C701B8010E9471261B
:104E70000F5F1F4F06311105B9F7C7016CE170E0F4
:104E80000E947126C7016FE170E00E9471262D9685
:104E90000FB6F894DEBF0FBECDBFCF91DF911F914B
:104EA0000F91FF90EF9008950EE010E0C701B80158
:104EB0000E9471260F5F1F4F08311105B9F7DDCF32
:104EC000AF92BF92DF92EF92FF920F931F93DF9307
:104ED000CF93CDB7DEB72D970FB6F894DEBF0FBED8
:104EE000CDBF182F5B0190E06DE070E00E9471264D
:104EF000882399F420E030E0C9012D960FB6F8948C
:104F0000DEBF0FBECDBFCF91DF911F910F91FF90FC
:104F1000EF90DF90BF90AF900895812F90E060E018
:104F200070E04CE050E07E010894E11CF11C970118
:104F30000E94CB251D86C7010E94C33BD82E882323
:104F4000C9F2870106C00F5F1F4F802F8E198D1584
:104F500088F6C801B5010E946A3B892BA1F721E0C0
:104F600030E0CACFEF92FF920F931F93CF93DF935E
:104F70008B017C010894E108F108EE0CFF1CEE0C9B
:104F8000FF1CEE0CFF1C01501040000F111F000F02
:104F9000111F000F111FC0E0D0E0BE01600F711F94
:104FA000CE018E0D9F1D0E942B352196C830D10554
:104FB000A1F7DF91CF911F910F91FF90EF9008958E
:104FC000EF92FF920F931F93CF93DF937C018B019E
:104FD000C0E0D0E0C701BE010E947126482FC80181
:104FE000BE010E9422262196C032D10599F7DF9199
:104FF000CF911F910F91FF90EF900895EF92FF9244
:105000000F931F93CF93DF937C016CE070E00E94BD
:105010007126182FC7016FE170E00E947126082FDA
:10502000113099F0123009F463C0133009F444C010
:10503000143009F4A6C0C7010E949C2EDF91CF91C5
:105040001F910F91FF90EF900895CEE0D0E004C043
:105050002196C831D10569F0C701BE010E947126B1
:105060008823B1F390E00E94FE272196C831D10534
:1050700099F7C7016DE070E040E00E942226E1143C
:10508000F104B9F0CEE0D0E004C02196C831D105DA
:1050900091F2802F90E0BE010E94712690E08E1563
:1050A0009F0599F7802F90E0BE0140E00E942226E4
:1050B000C2CF002339F7BFCFC7016DE070E040E0F9
:1050C0000E942226E114F10409F476C0CEE0D0E07B
:1050D00005C02196C831D10509F4ADCF802F90E0ED
:1050E000BE010E94712690E08E159F0591F7DACFE0
:1050F000C7016DE070E040E00E942226E114F10457
:1051000011F4002381F0CEE0D0E0802F90E0BE01CA
:105110000E94712690E08E159F0509F454C02196D7
:10512000C831D10591F7CEE0D0E0C701BE010E94A1
:105130007126882339F090E00E949E2D2196C63179
:10514000D10599F71E2D812F90E068E170E00E9453
:105150007126182F882309F46ECF90E00E949C2EB0
:10516000CEE0D0E0812F90E0BE010E94712688231E
:1051700051F390E00E949E2D2196C631D10591F702
:10518000E2CFC7016DE070E040E00E942226E1140A
:10519000F104B1F0CEE0D0E005C02196C831D105D0
:1051A00009F449CF802F90E0BE010E94712690E063
:1051B0008E159F0591F776CF002309F087CF3BCF5F
:1051C000002341F738CF802F90E0BE0140E00E94DD
:1051D0002226CEE0D0E0A9CF0E94712D0E94702E31
:1051E0000895CF93DF93C0E0D0E0CE0160E070E09F
:1051F00040E250E020E00E94AD252196C132D10569
:10520000A1F70E94712D0E94702EDF91CF91089519
:10521000DF92EF92FF920F931F93CF93DF937C0166
:10522000EB01D42E122FCB010E94C33B482F8C30B0
:1052300008F44F5F013009F45FC0023009F468C020
:10524000033009F471C0043041F1E114F10411F4A8
:10525000112369F0CEE0D0E0812F90E0BE010E94E2
:105260007126882361F02196C831D105A9F7DF9115
:10527000CF911F910F91FF90EF90DF900895812FB4
:1052800090E0BE014E2D0E942226DF91CF911F910A
:105290000F91FF90EF90DF900895C70160E070E0FC
:1052A00050E09E010E94BC25C7016CE070E044E024
:1052B0000E942226C7016DE070E041E00E94222694
:1052C000C7016EE070E04EE050E020E00E94AD25A6
:1052D000C7016CE170E04D2D0E942226C7016DE1EF
:1052E00070E040E050E00E940626C7016FE170E0E8
:1052F000412F0E942226A9CFC70160E070E050E054
:105300009E010E94BC25C7016CE070E041E0D0CF57
:10531000C70160E070E050E09E010E94BC25C7011B
:105320006CE070E042E0C4CFC70160E070E050E0A4
:105330009E010E94BC25C7016CE070E043E0B8CF3D
:105340000F9380E090E067E371E040E020E001E04F
:105350000E9408290F91089580917403909175031C
:105360000895909375038093740308950F931F938A
:10537000062F683050F0162F90E068E170E00E9430
:10538000712618501830C0F70770602F70E0625F08
:105390007F4F90E00E9471261F910F9108950F9307
:1053A0001F93CF93DF938C01CEE0D0E0C801BE0104
:1053B0000E947126882361F42196C831D105B1F786
:1053C00020E030E0C901DF91CF911F910F91089546
:1053D00021E030E0C901DF91CF911F910F91089535
:1053E0006FE170E00E94712690E00895EF92FF92C5
:1053F0000F931F93CF93DF937B018C01C0E0D0E02C
:10540000C701BE010E947126F8018083882331F014
:105410000F5F1F4F2196CC30D10591F7F801108214
:10542000DF91CF911F910F91FF90EF9008950F930F
:105430001F93CF93DF938C01CEE0D0E0C801BE0173
:105440000E947126882329F02196C831D105B1F731
:1054500081E0DF91CF911F910F9108950F931F93DA
:10546000CF93DF93082F162FCEE0D0E0802F90E06F
:10547000BE010E947126811749F02196C831D105DD
:10548000A9F7DF91CF911F910F910895802F90E0A0
:10549000BE0140E00E942226DF91CF911F910F9123
:1054A00008950F931F93CF93DF93182F062FCEE00D
:1054B000D0E0812F90E0BE010E947126882349F040
:1054C0002196C831D105A9F7DF91CF911F910F9196
:1054D0000895812F90E0BE01402F0E942226DF9187
:1054E000CF911F910F9108950F931F93CF93DF9347
:1054F000182F012F6EE070E0EB01812F90E00E94E9
:105500007126882371F19E012D50BE016F5F7F4F80
:105510006631710589F7283008F1812F90E068E144
:1055200070E00E947126182F882319F70E94782EA8
:10553000182F802F90E068E170E0412F0E94222612
:105540000E94792D482F812F90E06EE070E00E943C
:105550002226DF91CF911F910F910895C22FD0E0A5
:105560002E960E94792D482F812F90E0BE010E9437
:105570002226DF91CF911F910F9108950F931F93D2
:10558000CF93DF938C01CEE0D0E0C801BE010E9432
:105590007126882339F090E00E949E2D2196C63115
:1055A000D10599F7DF91CF911F910F910895AF9297
:1055B000BF92CF92DF92EF92FF920F931F93CF9300
:1055C000DF93D82EC92E8A01FB01EE0FFF1FEE0FCD
:1055D000FF1FE60FF71FEE0FFF1FE854FA4F8083FF
:1055E0005B01AA0CBB1C7B01EE0CFF1CEE0CFF1C2C
:1055F000EE0CFF1CE501CE0DDF1DCA54DA4F4B83C4
:105600008D2D9C2D6DE170E00E9457269D838C832B
:105610000130110519F102301105D9F003301105DF
:1056200089F4A0E0B0E08E839F83A887B987DF91DB
:10563000CF911F910F91FF90EF90DF90CF90BF908F
:10564000AF9008950430110569F48D2D9C2D0E94B2
:10565000BE2A1E821F8218861986E9CF1E821F82EB
:10566000188619860530110511F7EA0CFB1C86EB2C
:1056700095E0E80EF91EF701168217821086118652
:10568000D6CF0E94EA2620E030E0019711F0C90150
:10569000089521E030E0C9010895CF92DF92EF92A2
:1056A000FF921F93CF93DF93182FF92E6B010E9467
:1056B000C33B0D975CF021E030E0C901DF91CF9151
:1056C0001F91FF90EF90DF90CF900895C6010E9448
:1056D000EA26892B81F3812F9F2D9C017901C0E05F
:1056E000D0E0F7011081C601BE010E947126181793
:1056F00011F7F7018081882339F021960894E11C85
:10570000F11CCC30D10569F720E030E0D6CFAF9264
:10571000BF92CF92DF92FF920F931F93CF93DF93AD
:105720005C016B01CEE0D0E004C02196C831D10508
:10573000F9F0C601BE010E947126F82E082F10E074
:10574000C501B8010E944D2B892B79F7C8010E9431
:10575000EA26882351F3FF2041F3C801DF91CF915E
:105760001F910F91FF90DF90CF90BF90AF90089561
:1057700000E010E0F2CF0F931F93CF93DF93EC0183
:105780008B010E94872B181619063CF410E0812F1C
:10579000DF91CF911F910F910895C8010E94172AA0
:1057A000813081F00E94782E182F90E0BE0140E0F9
:1057B000202F02E00E940829812FDF91CF911F91B5
:1057C0000F9108951FEF812FDF91CF911F910F91BE
:1057D00008950F931F93CF93DF93EC018B010E94E9
:1057E000872B181619063CF410E0812FDF91CF911A
:1057F0001F910F910895C8010E94172A813081F0EE
:105800000E94782E182F90E0BE0140E0202F01E08A
:105810000E940829812FDF91CF911F910F91089548
:105820001FEF812FDF91CF911F910F910895CF929C
:10583000DF92EF92FF921F93CF93DF936C017B0176
:10584000CEE0D0E004C02196C831D105B9F0C7013F
:10585000BE010E947126182FC601612F70E00E94C0
:105860004D2B892B81F7812F90E00E94EA26882317
:1058700051F3112341F3282F30E002C020E030E043
:10588000C901DF91CF911F91FF90EF90DF90CF90F2
:105890000895CF92DF92EF92FF920F931F93CF93D1
:1058A000DF936C017B01CEE0D0E0C701BE010E9416
:1058B0007126082F10E0C601B8010E944D2B892BDC
:1058C00031F02196C831D10581F70FEF1FEFC801E4
:1058D000DF91CF911F910F91FF90EF90DF90CF90CC
:1058E0000895AF92BF92CF92DF92EF92FF920F9303
:1058F0001F93DF93CF93CDB7DEB72D970FB6F894F4
:10590000DEBF0FBECDBF6C015B01FC0191918F0129
:10591000F6018181E0907403F09075039E3209F4E2
:1059200056C09F32F1F0892F81568A3108F05FC04E
:10593000C6016E010894C11CD11CB6010E947E26CE
:105940008C01009709F06DC0C601B7010E94172CA9
:10595000009709F448C0F50191838083C601B7011F
:1059600051C08601EE24FF246E010894C11CD11C95
:1059700014C0C801B6010E947E268C01FC01808102
:10598000882359F1C601B7010E94172C892B51F0C9
:10599000C601B7010E94492C7C01C7010E94412B1E
:1059A000892B39F7EE24EA94FE2CC7012D960FB609
:1059B000F894DEBF0FBECDBFCF91DF911F910F9145
:1059C000FF90EF90DF90CF90BF90AF9008958E3210
:1059D000E9F08F3249F28601C7CFC601B7010E94B4
:1059E000172C009751F4F50111821082DECF9154EB
:1059F0009A3108F49DCF8601B7CFF501918380835A
:105A0000C601B7010E94492C7C01CFCFC7016FE1CD
:105A100070E00E947126E82EFF2486010E5F1F4F62
:105A2000A3CFC601B7010E94172C892B09F4BACF66
:105A3000C601B7010E94492C7C0196CFAC01FB0145
:105A400077FD1AC0F595E795F595E795F595E795F6
:105A5000E40FF51F2081332727FD3095CB0168E047
:105A600070E00E94AA5502C0359527958A95E2F705
:105A700021703070C90108953796E4CFDC019B0195
:105A800077FD2CC0F901F595E795F595E795F59526
:105A9000E795EA0FFB1F452B89F4CB0168E070E026
:105AA0000E94AA5521E030E002C0220F331F8A95E0
:105AB000E2F720958081822380830895CB0168E0FE
:105AC00070E00E94AA5521E030E002C0220F331F8F
:105AD0008A95E2F78081822B80830895295F3F4F6A
