:100000000C94DE000C94FD000C94FD000C94FD009B
:100010000C94FD000C94FD000C94FD000C9417133F
:100020000C94FD000C94FD000C94FD000C945C15E8
:100030000C94AA140C94FD000C94FD000C94F5355E
:100040000C94FD000C94FD000C9453070C94FD00DF
:100050000C94FD000C94B41B0C94FD000C94FD005A
:100060000C94FD000C94FD000C948C350C94FD0058
:100070000C94FD000C94FD000C94FD000C94FD000C
:100080000C94FD000C94FD000C94FD0036453A459F
:100090003E45424546454A45E944E944E944E94488
:1000A0004E450045FC44FC44E944E944E944E94444
:1000B000E944E944E944E944E944E944E944E944D8
:1000C000E944E944E944E944044508450C450F4541
:1000D0001345E944E944E944E944E944E944E9448D
:1000E000E944E944E944E944E944E944E944E944A8
:1000F0001745E944E944E944E944E944E944E94469
:10010000E944E9441B45E944E944E944E944E94454
:10011000E944E944E944E9441F45E944E944E94440
:10012000E944E944E944E944E944E9442345E9442C
:10013000E944E944E944E944E944E944E944E94457
:10014000E944E944E944E944E944E944E944E94447
:10015000E944E944E944E944E944E944E944E94437
:10016000E944E944E944E944E944E944E944E94427
:10017000E944E944E944E944E944E9442745E944D8
:10018000E944E944E944E944E944E944E944E94407
:100190002B45E944E944E944E944E944E944E944B4
:1001A000E944E944E944E9442F45E944E944E944A0
:1001B000E944E944E944E944E944334511241FBED4
:1001C000CFEFD0E1DEBFCDBF11E0A0E0B1E0E4EEC3
:1001D000FCEA00E00BBF02C007900D92AC33B10700
:1001E000D9F71AE0ACE3B1E001C01D92A337B10723
:1001F000E1F70E94FF000C9470560C940000AF923F
:10020000BF92CF92DF92EF92FF920F930E9402056E
:100210000E94C01B0E9417160E94A4190E94F0059C
:100220000E94F3018A30F1F10E94F3018B3009F44E
:1002300071C00E9421370E9439370E9402090E9432
:10024000FD080E9464090E94403C0E94EE010E9449
:100250008A0B8FE10E942A0B81E595E468E077E044
:1002600046E058E020E030E00FE0F0E0EF2EF1E073
:10027000FF2ECC24DD24AA24BB240E94DB1884E3B7
:1002800095E561E779E049E65AE020E030E0E9E011
:10029000EE2EE1E0FE2E0E94DB180E9419020E9461
:1002A0005F16FDCF0E9404029093F7038093F6033C
:1002B0000E942B5680E29CE060E170E048EF53E042
:1002C0000E941F1D85E39CE060E170E045EE53E075
:1002D0000E941F1D8091F6039091F70390933D01BA
:1002E00080933C01109208041092F5030E94A31C15
:1002F0000E946D1C0E94371C0E9453200E945929A5
:100300000E94A31C0E946D1C0E94371C8AE00E9460
:10031000FE018FCF0E9404029093F7038093F603AF
:100320000E942B5680E29CE060E170E048EF53E0D1
:100330000E941F1D85E39CE060E170E045EE53E004
:100340000E941F1D8091F6039091F70390933D0149
:1003500080933C01109208041092F5030E94A31CA4
:100360000E946D1C0E94371C0E94C42D0E94AE2E5C
:100370000E94A31C0E946D1C0E94371C5ACF0F9331
:100380001F938C0180E29CE060E170E0A8010E9474
:100390001C1DA801405F5F4F85E39CE06FE070E0AB
:1003A0000E941C1DF801878D0E94F801F80180A1B0
:1003B00090E00E9409028AE00E94FE0100E080E0D5
:1003C00090E00E9413080F5F0032C9F70E942202DA
:1003D0001F910F91089585EE93E0089584E59CE0C8
:1003E0000E94161D089582E59CE00E94161D089546
:1003F000682F84E59CE00E94041D0895682F82E523
:100400009CE00E94041D08958EE49CE00E94101D53
:100410000895BC018EE49CE00E94FE1C089500003B
:10042000000008957894889500000000089588954C
:10043000089578940895F89408958FB7F8940895DE
:100440008FBF0895E0E0F0E00995089500000000F6
:1004500008951816190664F400000000000000005A
:100460000000000000000000019718161906A4F310
:100470000895DA9A0895DA98089529B330E0369508
:1004800027953695279521703070C9010895D29A25
:100490000895D2980895D99A0895D998089529B3BE
:1004A00030E03695279521703070C9010895D19AB2
:1004B0000895D1980895D89A0895D898089529B3A1
:1004C00030E021703070C9010895D09A0895D09815
:1004D0000895DC9A0895DC98089529B330E03295A8
:1004E00022952F7023273F70232721703070C90178
:1004F0000895D49A0895D4980895DD9A0895DD98C2
:10050000089529B330E036952795329522952F70BE
:1005100023273F70232721703070C9010895D59A91
:100520000895D5980895DF9A0895DF98089529B31E
:10053000332727FD30952227330F221F3327C90188
:100540000895D79A0895D7980895DB9A0895DB986F
:10055000089529B330E03695279536952795369539
:10056000279521703070C9010895D39A0895D398C2
:100570000895959A08959598089520B330E036959A
:100580002795329522952F7023273F7023272170BE
:100590003070C90108958D9A08958D980895939AA1
:1005A00008959398089520B330E0369527953695B1
:1005B00027953695279521703070C90108958B9A3B
:1005C00008958B980895929A08959298089520B36B
:1005D00030E0369527953695279521703070C90102
:1005E00008958A9A08958A9808951C9A08951C98E7
:1005F000089521B130E0329522952F7023273F7066
:10060000232721703070C9010895149A0895149811
:1006100008951D9A08951D98089521B130E03695EA
:100620002795329522952F7023273F70232721701D
:100630003070C9010895159A0895159808951E9A65
:1006400008951E98089521B130E00024220F331F31
:10065000001C220F331F001C232F302D21703070FF
:10066000C9010895169A0895169808951F9A089535
:100670001F98089521B1332727FD30952227330F86
:10068000221F3327C9010895179A089517980895CE
:10069000C29A0895C298089526B330E036952795FA
:1006A0003695279521703070C9010895BA9A08953A
:1006B000BA980895C39A0895C398089526B330E070
:1006C0003695279536952795369527952170307064
:1006D000C9010895BB9A0895BB980895C19A0895D9
:1006E000C198089526B330E0369527952170307073
:1006F000C9010895B99A0895B9980895A89A0895D6
:10070000A898089523B330E021703070C90108958E
:10071000A09A0895A0980895A99A0895A99808956F
:1007200023B330E03695279521703070C9010895C4
:10073000A19A0895A1980895AA9A0895AA9808954B
:1007400023B330E036952795369527952170307084
:10075000C9010895A29A0895A2980895AB9A0895A0
:10076000AB98089523B330E03695279536952795B5
:100770003695279521703070C9010895A39A089580
:10078000A3980895AC9A0895AC98089523B330E0E7
:10079000329522952F7023273F70232721703070C8
:1007A000C9010895A49A0895A4980895AD9A08954A
:1007B000AD98089523B330E036952795329522956C
:1007C0002F7023273F70232721703070C9010895AF
:1007D000A59A0895A5980895AE9A0895AE9808959B
:1007E00023B330E00024220F331F001C220F331FDD
:1007F000001C232F302D21703070C9010895A69A56
:100800000895A6980895AF9A0895AF98089523B3D0
:10081000332727FD30952227330F221F3327C901A5
:100820000895A79A0895A7980895909A0895909882
:10083000089520B330E021703070C9010895889A7E
:10084000089588980895919A08959198089520B3ED
:1008500030E03695279521703070C9010895899A46
:10086000089589980895189A08951898089521B1BF
:1008700030E021703070C9010895109A08951098E1
:100880000895199A08951998089521B130E0369580
:10089000279521703070C9010895119A0895119813
:1008A00008951A9A08951A98089521B130E036955E
:1008B00027953695279521703070C9010895129AB1
:1008C0000895129808951B9A08951B98089521B1D0
:1008D00030E03695279536952795369527952170E2
:1008E0003070C9010895139A089513980895929A43
:1008F00008959298089520B330E03695279536955F
:10090000279521703070C90108958A9A08958A98B0
:100910000895939A08959398089520B330E03695FA
:100920002795369527953695279521703070C90102
:1009300008958B9A08958B980895959A089595989F
:10094000089520B330E036952795329522952F7083
:1009500023273F70232721703070C90108958D9A95
:1009600008958D9808951F9A08951F98089581B14C
:10097000881F8827881F0895179A08951798089543
:100980001D9A08951D98089581B190E096958795D8
:10099000929582958F7089279F708927817008951D
:1009A000159A0895159808951E9A08951E98089509
:1009B00081B190E00024880F991F001C880F991FB7
:1009C000001C892F902D81700895169A089516980D
:1009D0000895AB9A0895AB9808950895AA9A08953A
:1009E000AA9808950895AC9A0895AC98089508952A
:1009F000AD9A0895AD9808950895AE9A0895AE9869
:100A000008950895D29AD09AD19AA79AA69AA59AAB
:100A1000A49AA39AA29AA19AA09AD498DC98D39A5D
:100A20008B9A8D9ADB9ADA9AD89AD99A08959AB7BE
:100A300090629ABF882321F48AB78F7E8ABF089577
:100A40008AB780618ABF0895DE9A0895DE98089576
:100A500029B330E00024220F331F001C220F331F64
:100A6000001C232F302D21703070C9010895D69AB3
:100A70000895D6980895DD9A0895DD98089529B3CC
:100A800030E036952795329522952F7023273F70B9
:100A9000232721703070C9010895D59A0895D598FB
:100AA00008951E9A08951E98089521B130E00024FB
:100AB000220F331F001C220F331F001C232F302D49
:100AC00021703070C9010895169A089516980895F6
:100AD0001E9A08951E98089521B130E00024220F37
:100AE000331F001C220F331F001C232F302D2170B9
:100AF0003070C9010895169A089516980895969A27
:100B000008959698089520B330E00024220F331FF3
:100B1000001C220F331F001C232F302D217030703A
:100B2000C90108958E9A08958E980895949A08950B
:100B30009498089520B330E0329522952F702327A2
:100B40003F70232721703070C90108958C9A089551
:100B50008C980895C09A0895C098089526B330E0FF
:100B600021703070C9010895B89A0895B898089511
:100B7000C79A0895C798089526B3332727FD30955F
:100B80002227330F221F3327C9010895BF9A0895E2
:100B9000BF980895969A08959698089520B330E0E6
:100BA0000024220F331F001C220F331F001C232F91
:100BB000302D21703070C90108958E9A08958E9855
:100BC00008950E946C030E9456030E947A03D69AED
:100BD000D59AB89816988E988C98BF988E98089544
:100BE000109290008FE089B9599AE5E9F0E0808190
:100BF000866080838AB188698AB981E080934203E4
:100C0000109264031092650308951F93182F80912A
:100C10004203882329F05D9BFECF1CB91F910895E4
:100C20000E94F005F8CF1F93182F8091420388236C
:100C300029F05D9BFECF1CB91F9108950E94F0051D
:100C4000F8CFCF93DF93EC018CEF0E9405068881EB
:100C5000882331F00E940506219688818823D1F7E8
:100C60008CEF0E940506DF91CF910895FF920F93BC
:100C70001F93CF93DF93082FF92E162F8CEF0E942E
:100C80000506112359F0802F9F2D9C01E9018991C0
:100C90000E9405069E01201B2117C8F38CEF0E94BD
:100CA0000506DF91CF911F910F91FF9008950F934B
:100CB0001F93CF93DF93082F162F662349F09C01D3
:100CC000E90189910E9413069E01201B2117C8F398
:100CD000DF91CF911F910F9108958A3020F4805DAC
:100CE0000E9405060895895A0E9405060895DF931B
:100CF000CF9300D000D0CDB7DEB769837A838B83E2
:100D00009C838C810E9405068B810E9405068A8146
:100D10000E94050689810E9405060F900F900F9092
:100D20000F90CF91DF9108951F93182F82958F70A8
:100D30000E946D06812F8F700E946D061F9108958D
:100D4000DF93CF9300D000D0CDB7DEB769837A832D
:100D50008B839C838DEF0E94050669817A818B814C
:100D60009C810E9477068DEF0E9405060F900F90E0
:100D70000F900F90CF91DF910895EF92FF920F9314
:100D80001F937B018C018EEF0E940506C801B701FD
:100D90000E9477068EEF0E9405061F910F91FF902B
:100DA000EF9008958CEF0E9405068DE60E940506DF
:100DB0008DE60E9405068DE60E9405068CEF0E94D6
:100DC00005060895DF93CF9300D000D0CDB7DEB7EE
:100DD00069837A838B839C8380E30E94050688E77E
:100DE0000E9405068C810E9494068B810E949406C5
:100DF0008A810E94940689810E9494060F900F9028
:100E00000F900F90CF91DF910895AF92BF92CF9244
:100E1000DF92EF92FF920F931F93DF93CF93CDB7A3
:100E2000DEB760970FB6F894DEBF0FBECDBF698303
:100E30007A838B839C832D833E834F835887E986F7
:100E4000FA860B871C87AD86BE86CF86D88A81E05E
:100E50000E94050669817A818B819C810E94E2064D
:100E60006D817E818F8198850E94E20669857A85F1
:100E70008B859C850E94E2066D857E858F8598898D
:100E80000E94E20660960FB6F894DEBF0FBECDBF9B
:100E9000CF91DF911F910F91FF90EF90DF90CF9056
:100EA000BF90AF9008951F920F920FB60F920BB69E
:100EB0000F9211240F931F932F933F934F935F93A0
:100EC0006F937F938F939F93AF93BF93EF93FF9312
:100ED000DF93CF930F92CDB7DEB70CB10E940D3CDC
:100EE000182F0E94B5168823B9F51982812F0E9408
:100EF0000A3C013609F444C00A3709F45EC00E9476
:100F00000D3C282F8981813061F48DB79EB7909375
:100F10005105809350058091A3059091A4059EBF33
:100F20008DBF822F0E940A3C0F90CF91DF91FF91DD
:100F3000EF91BF91AF919F918F917F916F915F9151
:100F40004F913F912F911F910F910F900BBE0F90DA
:100F50000FBE0F901F9018958DB79EB79093A40564
:100F60008093A30580915005909151059EBF8DBF40
:100F700081E08983812F0E940A3C013609F0BCCFB1
:100F80000E940D3C982F5F9BFECF8CB15F9BFECFE4
:100F90008CB1803371F0E3E4F3E08153282F30E02B
:100FA0002C5B3C4F5F9BFECF8CB18193E217F30724
:100FB000C9F7892F0E940A3CA2CF0E940D3C982FAE
:100FC00003E413E05F9BFECF8CB1F80181938F01A6
:100FD000F3E004361F07B1F7892F0E940A3CC801CD
:100FE00081970E94BF018BCFDF92EF92FF920F9308
:100FF0001F937B018C010E940D3CD82E0E94EB01B7
:101000000E94210687E291E00E942106C801B701F3
:101010000E94BD068D2D0E940A3C1F910F91FF90EA
:10102000EF90DF900895FF920F931F938C010E9421
:101030000D3CF82E0E94EB010E94210687E291E010
:101040000E942106C8010E9421068F2D0E940A3CA1
:101050001F910F91FF900895DF92EF92FF920F93EF
:101060001F937B018C010E940D3CD82E0E94EB0146
:101070000E94210687E291E00E942106C801B70183
:101080000E94A0068D2D0E940A3C1F910F91FF9097
:10109000EF90DF9008950E94050608950E9457067C
:1010A0000895FF920F931F938C01F62E0E94EB017F
:1010B0000E94210687E291E00E942106C8016F2D5F
:1010C0000E9436061F910F91FF9008951F930E9472
:1010D0000D3C182F0E94D206812F0E940A3C1F91BE
:1010E000089581E0089580E0089581E0089581E009
:1010F0000895CB010895CB0108951092090481E071
:1011000008951092090481E00895109209040E9444
:10111000130D0895CF93DF93EC012091F6033091E6
:10112000F70390930D0480930C0480910A0490912E
:101130000B04019690930B0480930A04C059DF4F6F
:101140008881C057D040813021F0CE01DF91CF910E
:1011500008958E819F814FEF8F3F940719F02817D4
:10116000390799F788859985BE010E94F009009793
:1011700061F3EC01CE01DF91CF910895DF92EF9200
:10118000FF920F931F93CF93DF937C018B01D42E9B
:10119000E90180910904882341F481E080930904E6
:1011A00084E6841758F41092090480E0DF91CF910F
:1011B0001F910F91FF90EF90DF9008958CE199E0DF
:1011C00064E10E942916882391F0D0931104C09302
:1011D0001004D8821F830E83F986E88681E0DF91B0
:1011E000CF911F910F91FF90EF90DF900895109293
:1011F0000904DCCF0E94170D08950E94170D10926C
:10120000090408950E94000E1092090410920F0420
:1012100010920E0410920B0410920A0408950F937A
:101220001F938C01109209040E94130DC8010E94A3
:10123000F90E1F910F9108950F931F9300911004C1
:1012400010911104109209040E94130DC8010E940C
:10125000F90E882311F4109209041F910F9108953B
:10126000CF93DF93EC012091F6033091F703909335
:101270000D0480930C0480910A0490910B04019654
:1012800090930B0480930A04C059DF4F8881C057A4
:10129000D040813021F0CE01DF91CF9108958E8131
:1012A0009F814FEF8F3F940719F02817390799F75F
:1012B00088859985BE010E94F009009761F3EC01D1
:1012C000CE01DF91CF91089510921D041092290450
:1012D000109235041092410410924D040895EF923B
:1012E000FF920F931F93CF93DF93EC01EDE1F4E0B6
:1012F000A0E0B0E08081882361F011963C96A53093
:10130000B105C1F7DF91CF911F910F91FF90EF9041
:101310000895FD01EE0FFF1FEA0FFB1FEE0FFF1FE9
:10132000EE0FFF1FDF01AC5EBB4F1196DC93CE9337
:10133000EA5EFB4F608314965C934E931397169668
:101340003C932E93159718961C930E9317971B9604
:10135000FC92EE921A9781E019968C93DF91CF91CF
:101360001F910F91FF90EF900895AC01E4E1F4E03C
:1013700020E030E08185813039F02F5F3F4F3C968F
:1013800025303105B9F7089580819181841795073B
:10139000A1F7F901EE0FFF1FE20FF31FEE0FFF1F82
:1013A000EE0FFF1FEC5EFB4F118611821082089535
:1013B000AC01E4E1F4E08185813031F03C9684E0D9
:1013C000E035F807C1F70895238134816217730768
:1013D000A8F32417350790F3118611821082EECFFF
:1013E000CF92DF92FF920F931F93CF93DF939C01D5
:1013F0008B017093130460931204E4E1F4E0C0E005
:10140000D0E0808191818217930771F021963C96FC
:10141000C530D105B1F7C801DF91CF911F910F9170
:10142000FF90DF90CF9008958185813079F76E012C
:10143000CC0CDD1CF601EC0FFD1FEE0FFF1FEE0FB5
:10144000FF1FDF01AC5EBB4F15964C9115971696AA
:101450002C91EA5EFB4FD8018C91F0808F1508F437
:1014600044C0FF2071F0D801842F922F9C01F90114
:101470001A968C911A97819311968E2F841B8F1533
:10148000B8F3F601EC0FFD1FEE0FFF1FEE0FFF1F6D
:10149000EC5EFB4F0780F085E02D309751F002594C
:1014A0001F4FD8018D918D0180838C910F56104074
:1014B0008183F601EC0FFD1FEE0FFF1FEE0FFF1FE4
:1014C000EC5EFB4F82859385009719F066E00E94E1
:1014D0002916CC0DDD1DCC0FDD1FCC0FDD1FCC5E22
:1014E000DB4FEB81FC81F08296CFF82EBACF81E002
:1014F00008951F930E945014182F0E944A15682FB8
:10150000812F0E94DD3B1F9108950E94781308955A
:101510000E94E3130895DF93CF9300D0CDB7DEB7D9
:101520009A8389830E94783A9A8389838AE691E034
:1015300062E0AE014F5F5F4F0E94E3130F900F9088
:10154000CF91DF9108950E94C10D08950E94ED157D
:1015500008950E94B91308958DE160E070E00E9443
:10156000B91387E69CE065E00E94291680E00895A3
:101570000E94A4130895609152047091530480E175
:101580000E94B913609154047091550481E10E9446
:10159000B91381E10E9478132091540430915504CD
:1015A0002817390711F080E0089560915604709172
:1015B000570482E10E94B913609158047091590454
:1015C00083E10E94B91360915A0470915B0484E135
:1015D0000E94B91360915C0470915D0485E10E94E2
:1015E000B91360915E0470915F0486E10E94B913A3
:1015F000609160047091610487E10E94B913609169
:1016000062047091630488E10E94B91360916404DC
:101610007091650489E10E94B9136091660470912C
:1016200067048AE10E94B91360916A0470916B04A7
:101630008CE10E94B91360916C0470916D048DE18E
:101640000E94B91389E00E94A41388E00E94A413A9
:1016500081E0089590E08F71907020915C0430914A
:101660005D04207E822B932B90935D0480935C0419
:10167000609162047091630485E10E94B91386FF52
:1016800003C083E00E94A41381E00895BC01605070
:101690007840809162049091630480709C7F682BF5
:1016A000792B709363046093620488E10E94B913FC
:1016B00086FF03C083E00E94A41381E0089583E0C5
:1016C0000E94A41381E008950E940B0D08950E94CA
:1016D0000B0D08950E943D0588E592E00E942902C5
:1016E00081E008950E943B0588E592E00E9429026E
:1016F00081E008950E94B21208958DE168E170E0E2
:101700000E94B91381E00E94B21281E00E94A413EA
:1017100081E0089595E0899FB0011124625D7E4FBC
:10172000809162049091630480709C7F682B792B78
:10173000709363046093620488E10E94B91386FF8A
:1017400003C083E00E94A41381E008950E940D3C31
:10175000982F80915004823029F0892F0E940A3CF2
:1017600080E0089583E080935004892F0E940A3C12
:101770000E94ED150E943B0588E592E00E94290237
:101780000E9426050E940F020E9424050E940F025B
:101790008DE168E170E00E94B91381E00E94B2120D
:1017A00081E00E94A41381E008951F930E940D3CE4
:1017B000982F80915004882309F07BC01092500428
:1017C0008BE080936E048FE180935104892F0E94F7
:1017D0000A3C0E945014182F0E944A15682F812F2E
:1017E0000E94DD3B80E098EF909353048093520475
:1017F00082EE92E0909355048093540480E095E04B
:10180000909357048093560480E890EE9093590487
:10181000809358048FE097EA90935B0480935A0476
:101820008091510490E0806E906690935D04809367
:101830005C0485EE92E190935F0480935E0486E5FC
:101840009AE0909361048093600480916E0425E097
:10185000829FC0011124825D9E4F90649093630427
:101860008093620484EC91E0909365048093640417
:101870001092670410926604109269041092680432
:101880008FE792E090936B0480936A0410926D044A
:1018900010926C040E940D3C92E0909350040E94C0
:1018A0000A3C87E69BE065E00E94291681E01F91D3
:1018B0000895109250048BE080936E048FE1809322
:1018C0005104892F0E940A3C80E01F910895DF9304
:1018D000CF9300D0CDB7DEB760915204709153041E
:1018E00080E10E94B913609154047091550481E124
:1018F0000E94B91381E10E94781320915404309121
:1019000055048217930789F18091F6039091F703AC
:101910009A8389830E94783A9A8389838AE691E040
:1019200062E0AE014F5F5F4F0E94E313609162047B
:10193000709163047D7F709363046093620488E117
:101940000E94B91386FF03C083E00E94A4130E9483
:101950000D3C94E0909350040E940A3C0E94C10DFB
:101960000F900F90CF91DF91089560915604709180
:10197000570482E10E94B913609158047091590490
:1019800083E10E94B91360915A0470915B0484E171
:101990000E94B91360915C0470915D0485E10E941E
:1019A000B91360915E0470915F0486E10E94B913DF
:1019B000609160047091610487E10E94B9136091A5
:1019C00062047091630488E10E94B9136091640419
:1019D0007091650489E10E94B91360916604709169
:1019E00067048AE10E94B91360916A0470916B04E4
:1019F0008CE10E94B91360916C0470916D048DE1CB
:101A00000E94B91389E00E94A41388E00E94A413E5
:101A10007BCF81E0089581E0089581E0089581E021
:101A2000089581E0089582E08093ED0408950F9376
:101A30001F930E940D3C082F8091ED04882341F0F4
:101A400010E0802F0E940A3C812F1F910F91089572
:101A50008EEC9EE065E00E942916882389F381E0E0
:101A60008093ED0411E0802F0E940A3C812F1F918A
:101A70000F9108950E94701208950E947D080895A4
:101A80000E940D3C92E09093ED040E940A3CE0918C
:101A9000EB04F091EC0480818B508083CF0160E0F7
:101AA0000E947D0808950F931F930E940D3C92E0C1
:101AB0009093ED040091EB041091EC04F8019081F7
:101AC0009B5090830E940A3CC80161E00E947D08FF
:101AD0001F910F9108950E94521108950E9430099C
:101AE00008950F931F93CF93DF930E940D3C0091B5
:101AF0006F04109170040E940A3CC8010E943009D2
:101B0000EC010E940D3C209721F0D0937004C0930B
:101B10006F04E0916F04F0917004108210927204CF
:101B20000E940A3CDF91CF911F910F9108950E946E
:101B30005E1208950E94781308950E945F0B089525
:101B40000E94041308950E94CA1108950E94A413CC
:101B500008950E945E128FE30E94781388E00E942D
:101B6000A41388E00E94A4130E940D3C10927204FA
:101B70000E940A3C80E00E94041308950E948C1287
:101B800008951F930E940D3C1091ED040E940A3CA1
:101B90001A3019F081E01F9108950E945F0B80E0D8
:101BA0000E94041381E00E948C120E940D3C92E07E
:101BB0009093ED040E940A3C81E01F9108950E94D9
:101BC000A60B08951F930E940D3C1091ED040E94F6
:101BD0000A3C112319F080E01F9108950E940D3CEA
:101BE0009AE09093ED041092E804E0916F04F09174
:101BF000700410820E940A3C0E94A60B1F91089557
:101C00000E940D3C1092ED04109271041092E704B2
:101C10001092720423E734E03093700420936F0431
:101C2000109273040E940A3C8091F6039091F7038E
:101C30009093EA048093E9040E94D50B089585E00F
:101C40000E94A41380E00E94A41386958695869531
:101C500080FD13C00E940D3C92E09093ED040E9421
:101C60000A3CE091EB04F091EC0480818B5080837E
:101C7000CF0160E00E947D08089581E00E948C12EF
:101C80000895CF93DF93EC018091ED048330C9F187
:101C9000843091F081E0DF91CF9108950E9470121D
:101CA000E091EB04F091EC04EE58FF4FD183C08338
:101CB0008091ED04843071F386E08093ED040E94FE
:101CC000701281E00E948C1283E59DE065E00E9425
:101CD00029168823F9F60E940D3C92E09093ED04BA
:101CE0000E940A3CE091EB04F091EC0480818B505F
:101CF0008083CF0160E00E947D0881E0DF91CF9179
:101D0000089580E00E948C120E949A05892B31F27E
:101D100084E08093ED04E091EB04F091EC04EE5844
:101D2000FF4FD183C08381E0DF91CF91089589E097
:101D30000E94A413882361F08091EE046091EB046B
:101D40007091EC048F5F0E94CA118823A1F008955E
:101D50000E940D3C92E09093ED040E940A3CE091B9
:101D6000EB04F091EC0480818B508083CF0160E024
:101D70000E947D0808950E940D3C92E09093ED042E
:101D80000E940A3CE091EB04F091EC0480818B50BE
:101D90008083CF0160E00E947D0808951F930E9418
:101DA0000D3C982F8091ED04813029F0892F0E94FD
:101DB0000A3C1F9108951092ED04892F0E940A3C5D
:101DC0000E940D3C1091ED040E940A3C112389F7FA
:101DD0000E940D3C9AE09093ED041092E804E0918B
:101DE0006F04F091700410820E940A3C0E94A60BBE
:101DF000E0CF1F93CF93DF93EC010E940D3C109135
:101E0000ED040E940A3C123029F080E0DF91CF916E
:101E10001F91089588E08A838091E7048823C9F59B
:101E200081E089838FEF9FEF9D838C838E819F81DB
:101E30000E94783A9F838E838881855F8883809112
:101E400071048F5F809371048B83CE58DF4F1982AA
:101E50001882C257D040888182508093EE04D0937C
:101E6000EC04C093EB0488E08093E8040E940D3CEE
:101E700095E09093ED040E940A3C87E99EE065E0BE
:101E80000E942916882341F081E0DF91CF911F91B4
:101E9000089581E28983C6CF0E940D3C92E0909321
:101EA000ED040E940A3CE091EB04F091EC04808187
:101EB0008B508083CF0160E00E947D0881E0E5CFF8
:101EC0001F930E940D3C1091ED040E940A3C1530B6
:101ED000B1F00E945E128FE30E94781388E00E94A6
:101EE000A41388E00E94A4130E940D3C1092720477
:101EF0000E940A3C80E00E9404131F9108950E94F2
:101F0000BC05892B71F00E94CE05892BB1F30E948C
:101F10000D3C93E09093ED040E940A3C0E941F0E3A
:101F2000ECCF0E945505892B71F70E94A90DEBCFCC
:101F30001F930E940D3C1091ED040E940A3C153045
:101F4000B9F00E945E128FE30E94781388E00E942D
:101F5000A41388E00E94A4130E940D3C1092720406
:101F60000E940A3C80E00E94041381E01F910895C2
:101F70000E94BC05892B71F00E94CE05892BA9F324
:101F80000E940D3C93E09093ED040E940A3C0E9455
:101F90001F0EEBCF0E945505892B71F70E94A90DEA
:101FA000EBCF1F930E94BC05892B39F10E940D3C99
:101FB000182F8FEF90E165E00E9429168823D1F455
:101FC0000E945E128FE30E94781388E00E94A4139F
:101FD00088E00E94A4130E940D3C109272040E949B
:101FE0000A3C80E00E940413812F0E940A3C81E099
:101FF0001F9108950E945E12F7CF0E945E128FE338
:102000000E94781388E00E94A41388E00E94A41321
:102010000E940D3C109272040E940A3C80E00E94D3
:10202000041381E01F9108951F93CF93DF93182F1E
:10203000EB010E940D3C0E940A3C0E94BC05892BCA
:1020400071F1112369F0113758F4D0937004C093E3
:102050006F0489818770813019F48A81883021F179
:102060000E945E128FE30E94781388E00E94A413FE
:1020700088E00E94A4130E940D3C109272040E94FA
:102080000A3C80E00E9404130E940D3C10927204EE
:102090000E940A3C81E0DF91CF911F9108950E9438
:1020A0005505892B71F6DCCF88818B508883853666
:1020B00008F049C08E819F810E948E3A9F838E8353
:1020C000E0916F04F0917004212F30E021503040F6
:1020D000DE01A20FB31F2F5F3F4FE059FF4F8C91DE
:1020E000881F8827881F80833297C20FD31F2297AB
:1020F000888181938C918F7780830E940D3C182F6B
:1021000081E79DE065E00E942916882311F4109272
:102110007204812F0E940A3C0E94BC05892B21F485
:102120000E945505892B61F00E945505892B41F4C9
:102130008FEF90E165E00E942916882309F0AACF6D
:102140000E94A90DA7CF0E94A90D0E940D3C1092DC
:1021500072040E940A3C9ECF1F930E94BC05892BEB
:1021600021F40E945505892BB1F00E940D3C182FD7
:1021700080917204882329F581E080937204812F75
:102180000E940A3C60916F047091700480E70E9485
:102190005211882309F10E945E128FE30E94781386
:1021A00088E00E94A41388E00E94A4130E940D3CC2
:1021B000109272040E940A3C80E00E9404131F9156
:1021C00008958FEF90E165E00E9429168823A1F021
:1021D000812F0E940A3CDFCF0E940D3C10927204B6
:1021E0000E940A3C8FEF90E165E00E942916882347
:1021F00031F70E94A90DE3CF0E94A90DE9CF1F93EB
:102200000E94BC05892B21F40E945505892BB1F051
:102210000E940D3C182F80917204882329F581E0DB
:1022200080937204812F0E940A3C60916F04709128
:10223000700480E70E945211882309F10E945E1207
:102240008FE30E94781388E00E94A41388E00E9424
:10225000A4130E940D3C109272040E940A3C80E07C
:102260000E9404131F9108958FEF90E165E00E9492
:1022700029168823A1F0812F0E940A3CDFCF0E94FB
:102280000D3C109272040E940A3C8FEF90E165E0D1
:102290000E942916882331F70E94A90DE3CF0E94DE
:1022A000A90DE9CF0F931F93CF93DF93182FEB0165
:1022B0000E940D3C982F8091F604882309F055C0A8
:1022C00081E08093F604892F0E940A3C0E940D3C15
:1022D000082F1092F004D093F204C093F1040E94EE
:1022E000AC058FE78FB9779BFECF8FB11FB8779B77
:1022F000FECF8FB18093F704882311F1E091F104B0
:10230000F091F20480838091F7048F5F8093F7044B
:10231000181718F41093F704812F823088F091E099
:102320001FB8779BFECF8FB1E091F104F091F204DA
:10233000E90FF11D80839F5F8091F704981780F368
:1023400081E08093F004802F0E940A3C0E94AA053D
:102350008DE292E165E00E942916882379F081E000
:10236000DF91CF911F910F910895892F0E940A3C10
:1023700080E0DF91CF911F910F9108950E940D3C55
:102380001092F6040E940A3C80E0DF91CF911F91E9
:102390000F9108950F931F93CF93DF93182FEB01A5
:1023A0000E940D3C982F8091F304882309F048C0C7
:1023B00081E08093F304892F0E940A3C0E940D3C27
:1023C000082F1092F0041093EF04D093F504C093FB
:1023D000F4040E94AC058EE38FB9779BFECF1FB14A
:1023E0002091EF04222381F090E0E091F404F09139
:1023F000F50481918FB9F093F504E093F404779B91
:10240000FECF9F5F9217A8F381E08093F004802FA6
:102410000E940A3C0E94AA0587E492E165E00E94BE
:102420002916882389F40E940D3C1092F3040E941F
:102430000A3C10E0812FDF91CF911F910F910895F9
:10244000892F0E940A3C10E0812FDF91CF911F91CC
:102450000F9108950E9414100895FF920F931F93F7
:102460000E940D3CF090F7040091F1041091F204E9
:102470001092F6040E940A3C8F2DB8010E9414109D
:102480001F910F91FF9008950E94980F0895FF9259
:102490000F931F930E940D3CF090EF040091F40401
:1024A0001091F5041092F3040E940A3C8F2DB8019C
:1024B0000E94980F1F910F91FF90089589B78F7B0D
:1024C00089BF81E0089580E0089580E008950E942A
:1024D000971408950E94410E08950E948C14089547
:1024E0000E948C1481E008950E949A1408950E941D
:1024F000881408950E94410E882329F00E949714A1
:10250000882321F408950E948C1408950E94881451
:1025100008950E947E1408950F931F93182F0E9410
:102520000D3C082F0E948C14812F0E949A140E9447
:1025300088140E947E14802F0E940A3C81E01F9123
:102540000F910895982F9A01AB018BE0692F0E949B
:1025500004370895982F9A01AB018AE0692F0E94F1
:10256000043708951F93182F0E940D3C1093010506
:102570000E940A3C0E948305809300058BE061E085
:1025800021E030E040E050E00E9404371F910895C0
:102590000E94AC0A08951F930E948305182F909102
:1025A000010580910005891711F0191761F010934A
:1025B00000058BE061E021E030E040E050E00E9467
:1025C00004371F9108950E94AC0A882381F781E0A7
:1025D000F8CF0E94BC05282F9091F8048091FF0449
:1025E000891711F0291759F02093FF048AE061E060
:1025F00021E030E040E050E00E940437089581E09F
:1026000008950E94D10F08950F931F93182F0E94D1
:102610000D3C082F812F0E94170589B7806489BF60
:10262000802F0E940A3C81E01F910F9108951F9214
:102630000F920FB60F920BB60F9211240F931F93A8
:102640002F933F934F935F936F937F938F939F93BA
:10265000AF93BF93EF93FF930E940D3C182F0E94FE
:10266000B5168823B9F500E0812F0E940A3C0E942C
:10267000D10F882331F489B78F7B89BF88B78064F5
:1026800088BF0E940D3C282F013061F48DB79EB7A2
:1026900090935105809350058091A3059091A405D6
:1026A0009EBF8DBF822F0E940A3CFF91EF91BF9188
:1026B000AF919F918F917F916F915F914F913F91DA
:1026C0002F911F910F910F900BBE0F900FBE0F9087
:1026D0001F9018958DB79EB79093A4058093A3057E
:1026E00080915005909151059EBF8DBF01E0BCCFF8
:1026F000EF92FF920F931F93182F0E940D3CF82E1C
:1027000010920B050E94AC0510641FB9779BFECF99
:102710008FB11FB8779BFECF8FB11FB8779BFECFCD
:10272000182F00E0EFB00E94AA0581E080930B050E
:102730008F2D0E940A3CFF24E02AF12AC7011F9135
:102740000F91FF90EF9008950F931F93182F0E9401
:102750000D3C082F0E94AC051FB9779BFECF1FB11F
:10276000802F0E940A3C0E94AA05812F1F910F9181
:102770000895DF92EF92FF920F931F93182FD62E9A
:10278000F72E0E940D3CE82E10920B050E94AC051E
:102790001FB9779BFECF0FB11F3030F0FFB8779B8A
:1027A000FECFDFB8779BFECF81E080930B058E2DA7
:1027B0000E940A3C0E94AA05802F1F910F91FF9052
:1027C000EF90DF900895EF92FF920F931F93CF93B6
:1027D000DF93EC01F62E8A0180910B05882339F4F2
:1027E000DF91CF911F910F91FF90EF9008950E947C
:1027F0000D3CE82E10920B05D0930D05C0930C05EF
:10280000F092080510930A05009309050E94AC0593
:1028100020910C0530910D05822F80688FB9779B30
:10282000FECF8FB136952795822F807C8FB9779B0D
:10283000FECF8FB150910805552381F040910905D5
:10284000842F90910A059C01F90180818FB9779BB3
:10285000FECF31968E2F841B8517B8F38E2D0E94E4
:102860000A3C81E080930B0583E494E165E00E94DB
:102870002916DF91CF911F910F91FF90EF9008954E
:102880000E94770A08954091090550910A058091A8
:102890000C0590910D05609108050E94770A089536
:1028A0001F9381E080930B050E946C030E945603E6
:1028B0000E947A030E9437050E944D050E94B405CC
:1028C0000E947D050E9494050E94A8050E94C805EB
:1028D0000E940D3C182F0E947A030E946C030E94F4
:1028E0005603709A6C9A6B986A98699868986E9A71
:1028F000812F0E940A3C81E01F9108958EB58F7E42
:102900008EBD8EB5877F8EBD87B7806287BF0895E5
:1029100086B7846086BF089587B78F7D87BF86B7E7
:10292000806286BF089581E0089581E0089586B7AA
:1029300082700895882339F48EB58F7B8EBD86B75B
:10294000806286BF08958EB580648EBD86B7806232
:1029500086BF08951F920F920FB60F920BB60F927B
:1029600011240F931F932F933F934F935F936F9374
:102970007F938F939F93AF93BF93EF93FF930E94A7
:102980000D3C182F0E94B516882309F047C000E0BF
:10299000812F0E940A3C0E940D3C282F8091160531
:1029A000882381F080911B0580931E0588608093A9
:1029B0001B058EBD80911C0590911D059BBD8ABD98
:1029C00010921605822F0E940A3C0E940D3C282F6F
:1029D000013061F48DB79EB79093510580935005F7
:1029E0008091A3059091A4059EBF8DBF822F0E9468
:1029F0000A3CFF91EF91BF91AF919F918F917F9191
:102A00006F915F914F913F912F911F910F910F9077
:102A10000BBE0F900FBE0F901F9018958DB79EB7ED
:102A20009093A4058093A305809150059091510542
:102A30009EBF8DBF01E0ACCF0F931F930E940D3C52
:102A400006B517B50E940A3CC8011F910F91089561
:102A5000EF92FF921F937C01162F17700E940D3C7E
:102A60001FBC97B79F7E97BF97B79B7F97BF97B7BE
:102A70009F7D97BF1DBC1CBCFBBCEABC96B7906198
:102A800096BF18601EBD0E940A3C81E01F91FF9016
:102A9000EF9008950E940D3C94E090931E052FEF57
:102AA00030E030931D0520931C050E940A3C81E014
:102AB00008950E947A1208951F920F920FB60F92F6
:102AC0000BB60F9211240F931F932F933F934F93A5
:102AD0005F936F937F938F939F93AF93BF93EF9386
:102AE000FF930E940D3C082F0E94B516882309F41D
:102AF0003FC08DB79EB79093A4058093A3058091A6
:102B00005005909151059EBF8DBF802F0E940A3CB9
:102B10000E940D3C06B517B50E940A3CC8010E94F0
:102B20007A120E940D3C282F8DB79EB790935105C5
:102B3000809350058091A3059091A4059EBF8DBF01
:102B4000822F0E940A3CFF91EF91BF91AF919F911C
:102B50008F917F916F915F914F913F912F911F9135
:102B60000F910F900BBE0F900FBE0F901F901895F6
:102B7000802F0E940A3C0E940D3C06B517B50E94AA
:102B80000A3CC8010E947A120E940D3C282FD8CF1F
:102B90000F931F930E940D3C00911C0510911D0581
:102BA0000E940A3C0E940D3C1FBC97B79F7E97BFB6
:102BB00097B79B7F97BF97B79F7D97BF1DBC1CBCE6
:102BC0001BBD0ABD96B7906196BF98E09EBD0E945E
:102BD0000A3C81E01F910F910895EF92FF921F939D
:102BE0000E940D3CE0901C05F0901D0510911E0503
:102BF0000E940A3C17700E940D3C1FBC97B79F7E35
:102C000097BF97B79B7F97BF97B79F7D97BF1DBC17
:102C10001CBCFBBCEABC96B7906196BF18601EBD99
:102C20000E940A3C81E01F91FF90EF90089510925E
:102C30004F0580E090E0FC01EE0FFF1FE80FF91F49
:102C4000E15EFA4F1182108201968031910599F769
:102C500008951F93CF93DF93EC01162F0E940D3C34
:102C6000482F80914F05803191F020E030E0F9014C
:102C7000EE0FFF1FE20FF31FE15EFA4F808191819B
:102C8000892B69F02F5F3F4F2031310581F7842F69
:102C90000E940A3C80E0DF91CF911F910895D1837B
:102CA000C083128380914F058F5F80934F05842FDF
:102CB0000E940A3C81E0DF91CF911F910895CF934C
:102CC000DF930E940D3C682F80914F058823C1F14E
:102CD000C0E0D0E040E050E020E030E0F901EE0F4D
:102CE000FF1FE20FF31FE15EFA4F80819181892B74
:102CF00039F08281481720F4C081D1814281522F5E
:102D00002F5F3F4F2031310549F7209721F1809106
:102D10004F05815080934F05852F90E0FC01EE0F09
:102D2000FF1FE80FF91FE15EFA4F11821082862F14
:102D30000E940A3CFE01099581E0DF91CF91089540
:102D4000862F0E940A3C0E9419020E94170280E00E
:102D5000DF91CF910895862F0E940A3C81E0DF9198
:102D6000CF910895FC01099508952DB73EB740E035
:102D70008091A5059091A6058217930708F041E080
:102D8000842F089590E0FC01EE0FFF1FEE0FFF1F50
:102D9000EE0FFF1F9F01220F331F220F331FE20F81
:102DA000F31FE81BF90BEC5AFA4F748F638F0895E9
:102DB000FF93FFB7FF930F921F922F923F924F9274
:102DC0005F926F927F928F929F92AF92BF92CF92BB
:102DD000DF92EF92FF920F931F932F933F934F93A6
:102DE0005F936F937F938F939F93AF93BF93CF9393
:102DF000DF93EF93FF938DB79EB790935105809328
:102E00005005E0915205F0915305808191819EBF5C
:102E10008DBFFF91EF91DF91CF91BF91AF919F91C6
:102E20008F917F916F915F914F913F912F911F9162
:102E30000F91FF90EF90DF90CF90BF90AF909F9059
:102E40008F907F906F905F904F903F902F901F904A
:102E50000F90FF91FFBFFF910895FF93FFB7FF937E
:102E60000F921F922F923F924F925F926F927F929A
:102E70008F929F92AF92BF92CF92DF92EF92FF928A
:102E80000F931F932F933F934F935F936F937F9372
:102E90008F939F93AF93BF93CF93DF93EF93FF9362
:102EA000E0915205F09153058DB79EB791838083D1
:102EB00080915005909151059EBF8DBFFF91EF917C
:102EC000DF91CF91BF91AF919F918F917F916F9142
:102ED0005F914F913F912F911F910F91FF90EF9034
:102EE000DF90CF90BF90AF909F908F907F906F902A
:102EF0005F904F903F902F901F900F90FF91FFBFDA
:102F0000FF910895AC012DB73EB78091A505909132
:102F1000A6058217930750F0E0915205F0915305F2
:102F200084E08283568F458F0E942D1708958091EB
:102F300052059091530525E08435920719F08B577F
:102F40009540C9F020E030E0F901EE0FFF1FEE0FD1
:102F5000FF1FEE0FFF1FCF01880F991F880F991FCA
:102F6000E80FF91FE21BF30BEC5AFA4F88E082835B
:102F70000E942D17089521E030E0E6CF8091A20550
:102F80008111089587EC99E162E00E94291681E0A1
:102F90008093A2050895823008F0089590E09C0186
:102FA000220F331F220F331F220F331FF901EE0FA1
:102FB000FF1FEE0FFF1FE20FF31FE81BF90BEC5A88
:102FC000FA4F8281853069F08091A205882329F724
:102FD00087EC99E162E00E94291681E08093A205C6
:102FE000089582E08283F0CFEF92FF920F931F93B8
:102FF000CF93DF930E940D3C282F8091560582309D
:1030000009F487C0CFEFDFEFEE24EA94FE2C809125
:103010007D05823009F467C08FEFCF3FD80739F1C3
:103020008701822F0E940A3CCD2B81F10E940D3C2A
:103030009701220F331F220F331F220F331FF90175
:10304000EE0FFF1FEE0FFF1FE20FF31FEE19FF0938
:10305000EC5AFA4F9481915094830E940A3CC80123
:10306000DF91CF911F910F91FF90EF9008951092F3
:10307000A205822F0E940A3C0FEF1FEFC801DF91CB
:10308000CF911F910F91FF90EF9008950E940D3CFA
:10309000282F80915605823009F449C080917D0522
:1030A000823009F43FC0C701880F991F880F991F0C
:1030B000880F991FFC01EE0FFF1FEE0FFF1FE80F97
:1030C000F91FEE19FF09EC5AFA4F8481815084836D
:1030D000822F0E940A3CC801DF91CF911F910F916E
:1030E000FF90EF90089580917F0590E0C817D90771
:1030F0000CF096CF80917F05C82FD0E071E0E72ECD
:10310000F12C8701822F0E940A3CCD2B09F08ECF33
:10311000BDCF8091580580915805C82FD0E0EE248E
:10312000FF2475CF80917E0580937F05BCCF809171
:10313000570580935805B2CF1F93CF93DF930E941A
:103140000D3C182FE0915205F091530512828189B0
:103150009289638974890E94D8090E94561B9C0138
:10316000220F331F220F331F220F331FE901CC0F11
:10317000DD1FCC0FDD1FC20FD31FC81BD90BCC5ACC
:10318000DA4FEB8DFC8D309719F009951C8E1B8E54
:103190000E942D17812F0E940A3CDF91CF911F9131
:1031A0000895E0915205F0915305858D968D0E940A
:1031B000B2160E949C182F923F924F925F926F928C
:1031C0007F928F929F92AF92BF92CF92DF92EF92B7
:1031D000FF920F931F93CF93DF933C011B014A0192
:1031E00029018DB79EB72091A5053091A605281716
:1031F000390760F424173507F8F0809156058823C5
:1032000009F49FC080917D058823D9F020E030E04B
:10321000C901DF91CF911F910F91FF90EF90DF9047
:10322000CF90BF90AF909F908F907F906F905F9066
:103230004F903F902F9008955093A6054093A50579
:10324000DCCFC1E0D0E00E940D3C182FCE01880FEA
:10325000991F880F991F880F991FFC01EE0FFF1F00
:10326000EE0FFF1FE80FF91FEC1BFD0BEC5AFA4F96
:10327000F0935305E09352059182808282E082832D
:10328000768E658E03830483328A218A948A838AA8
:10329000148E138E568A458AD08EC78AB28EA18E1E
:1032A000C7010E947C3B2091520530915305482F65
:1032B0004F5FC9010596B7010E94C33AF101E40DC1
:1032C000F51D8FEF9EEE91838083938382838DB76C
:1032D0009EB79093510580935005E0915205F0916F
:1032E0005305808191819EBF8DBF81ED98E18F93C1
:1032F0009F9380E090E01F92019682329105D9F76A
:103300008DB79EB791838083809150059091510530
:103310009EBF8DBF10925305109252058091A20559
:10332000882331F0812F0E940A3C21E030E070CFE9
:1033300087EC99E162E00E94291681E08093A20562
:10334000F1CFC0E0D0E07FCF1F930E940D3C182F3B
:1033500084E595E060E070E04EE450E00E94FC3BC4
:10336000109253051092520510925105109250057B
:103370001092A4051092A3051092A2051092A60522
:103380001092A505812F0E940A3C1F910895FF927B
:103390000F931F93CF93DF930E940D3CF82E8091E3
:1033A0005605843009F4BDC080917D05843009F450
:1033B000E1C08F2D0E940A3C0E940D3C282F809175
:1033C0005605823009F49AC0CFEFDFEF0FEF1FEF01
:1033D00080917D05823009F454C0FFEFCF3FDF07B5
:1033E00009F45DC0822F0E940A3CCD2B09F462C013
:1033F0000E940D3C9801220F331F220F331F220F12
:10340000331FF901EE0FFF1FEE0FFF1FE20FF31F37
:10341000E01BF10BEC5AFA4F9481915094830E9477
:103420000A3C8FEF0F3F180731F187EC99E163E019
:103430000E942916C8010E941C1BAC0197FD1BC0ED
:10344000880F991F880F991F880F991F9C01220FC1
:10345000331F220F331F820F931F841B950B8C5A2F
:103460009A4F90935305809352050E94D81610925C
:10347000530510925205DF91CF911F910F91FF904C
:10348000089580917F0590E0C817D9070CF0AACF66
:1034900080917F05C82FD0E001E010E0A3CF10920B
:1034A000A205822F0E940A3CDF91CF911F910F91BC
:1034B000FF9008950E940D3C282F80915605823080
:1034C00059F180917D05823011F1C801880F991F53
:1034D000880F991F880F991FFC01EE0FFF1FEE0F39
:1034E000FF1FE80FF91FE01BF10BEC5AFA4F848124
:1034F00081508483822F0E940A3C93CF809158058B
:1035000080915805C82FD0E000E010E061CF809195
:103510007E0580937F05D9CF80915705809358050C
:10352000D0CFC0E0D0E087EC99E163E00E9429169B
:10353000CE01880F991F880F991F880F991F8C0142
:10354000000F111F000F111F080F191F0C1B1D0B5F
:103550000C5A1A4F85E0F80182838F2D0E940A3C95
:10356000F801258D368D40E050E08C2F61E00E94FF
:10357000043781CFC1E0D0E0D6CFAF92BF92CF92D7
:10358000DF92EF92FF920F931F93CF93DF937C0113
:103590006A01590176956795680F791FC5E6D5E0F0
:1035A000A0E0B0E0FD01EE0FFF1FEE0FFF1FEE0FDA
:1035B000FF1FCF01880F991F880F991FE80FF91F70
:1035C000EA1BFB0BEC5AFA4F8281882311F1EE8142
:1035D000FF813097F1F0088119814A815B819F0159
:1035E0002E5F3F4F8885998596958795280F391FBF
:1035F0002E153F0520F032976E177F07D8F44F5FE6
:103600005F4F4C155D0528F001501040A016B10623
:1036100088F41196A796A230B10521F680E0DF91DB
:10362000CF911F910F91FF90EF90DF90CF90BF90BF
:10363000AF90089581E0F3CF9C01AC01440F551F7A
:10364000440F551F440F551FFA01EE0FFF1FEE0FD9
:10365000FF1FE40FF51FE81BF90BEC5AFA4FA18985
:10366000B28985899689A80FB91F8D919C91119770
:103670008F5F9E4E39F412968D919C9113978F5FB8
:103680009E4E79F0FA01EE0FFF1FEE0FFF1FE40FC1
:10369000F51FE21BF30BEC5AFA4F89E082832FEF00
:1036A0003FEFC901089580E595E008954F935F933A
:1036B000809152059091530525E08435920749F099
:1036C0008B57954051F020E030E05F914F91C90158
:1036D000089580E090E09C01F8CF81E090E09C01AB
:1036E000F4CFFF920F931F93082FF62E0E940D3CEC
:1036F000182F80915605863059F080917D058630CF
:10370000A9F0812F0E940A3C1F910F91FF9008950C
:1037100080917105801789F7809172058F1569F77F
:1037200082E0809356050E94BE17E7CF80919805EE
:10373000801739F7809199058F1519F782E08093EA
:103740007D050E94BE17DDCF893029F48091A20546
:10375000882321F008950E94CB17089587EC99E102
:1037600062E00E94291608951F920F920FB60F92E1
:103770001124349A37980F900FBE0F901F90189510
:1037800017B88EE086B9089517B897B18F71892B55
:1037900087B93398349A86B1806C86B93699FECF52
:1037A00084B190E025B1379830E023703070322F2B
:1037B0002227282B392BC90108951E9816981D9A87
:1037C000159A81E090E00E94C41B1D9815980895F9
:1037D0001D9815981E9A169A81E090E00E94C41BCD
:1037E0001E9816980895A59AAD9A85E090E00E94DB
:1037F000C41BA598AD980895A59AAD9A86E090E06F
:103800000E94C41BA598AD980895A49AAC9A83E031
:1038100090E00E94C41BA498AC980895A49AAC9A16
:1038200084E090E00E94C41BA498AC9808951F9374
:103830000E940D3C182F0E945B028091A7058B7F90
:103840008093A705812F0E940A3C1F9108951F9322
:103850000E940D3C182F0E945D028091A705846094
:103860008093A705812F0E940A3C1F9108951F9302
:103870000E940D3C182F8091A70582FD07C00E9471
:10388000271C812F0E940A3C1F9108950E94171C3B
:10389000812F0E940A3C1F9108951F930E940D3CA6
:1038A000182F0E944B028091A7058D7F8093A7055A
:1038B000812F0E940A3C1F9108951F930E940D3C86
:1038C000182F0E944D028091A70582608093A70562
:1038D000812F0E940A3C1F9108951F930E940D3C66
:1038E000182F8091A70581FD07C00E945D1C812FC4
:1038F0000E940A3C1F9108950E944D1C812F0E9436
:103900000A3C1F9108951F930E940D3C182F0E949E
:1039100039028091A7058E7F8093A705812F0E9491
:103920000A3C1F9108951F930E940D3C182F0E947E
:103930003B028091A70581608093A705812F0E949B
:103940000A3C1F9108951F930E940D3C182F8091EF
:10395000A70580FD07C00E94931C812F0E940A3C8E
:103960001F9108950E94831C812F0E940A3C1F9181
:1039700008951F930E940D3C182F1092A7050E94D6
:1039800047020E9465020E9457020E9439020E946B
:103990005B020E944B02812F0E940A3C1F910895F6
:1039A0001F930E940D3C182F0E94AA03812F0E9492
:1039B0000A3C1F9108951F930E940D3C182F0E94EE
:1039C000D01C0E949E03812F0E940A3C1F910895E3
:1039D0001F930E940D3C182F0E94D01C0E949C0334
:1039E000812F0E940A3C1F9108950E94221D089574
:1039F0000E945C1D08950E94841D08950E94A41DCC
:103A000008950E94651E08950E94821E08950E94D6
:103A1000BD1D08950E94FB1D08950E942E1E08954D
:103A20000E944E1E08950E94C21E08950E94DF1E2D
:103A300008950E94991E08950E94F61E08950E94FE
:103A4000001F0895BF92CF92DF92EF92FF920F93E3
:103A50001F93DF93CF9300D000D0CDB7DEB76C01BA
:103A600049835A836B837C830E940D3CB82EE98086
:103A7000FA800B811C81E199FECFC601B7010E943B
:103A80006B56E199FECF980144275527C60102964F
:103A9000B9010E946B568B2D0E940A3C0F900F902B
:103AA0000F900F90CF91DF911F910F91FF90EF90AA
:103AB000DF90CF90BF900895DF92EF92FF920F9327
:103AC0001F93CF93DF93EC017A018B010E940D3C91
:103AD000D82EE199FECFCE01B7010E946B56E19935
:103AE000FECF980144275527CE010296B9010E94C6
:103AF0006B568D2D0E940A3CDF91CF911F910F9143
:103B0000FF90EF90DF900895FF920F931F93DF9344
:103B1000CF9300D0CDB7DEB78C017A8369830E9442
:103B20000D3CF82EE199FECF69817A81C8010E948F
:103B30006B568F2D0E940A3C0F900F90CF91DF9112
:103B40001F910F91FF900895FF920F931F93CF93B2
:103B5000DF93EC018B010E940D3CF82EE199FECF22
:103B6000CE01B8010E946B568F2D0E940A3CDF9156
:103B7000CF911F910F91FF900895DF92EF92FF92E6
:103B80000F931F93DF93CF9300D000D0CDB7DEB754
:103B90008C010E940D3CD82EE199FECFC8010E94F5
:103BA0004E567C01E199FECFC80102960E944E5606
:103BB000A0E0B0E0DC0199278827970140E050E0C1
:103BC000820F931FA41FB51F89839A83AB83BC8385
:103BD0008D2D0E940A3C69817A818B819C810F9096
:103BE0000F900F900F90CF91DF911F910F91FF9049
:103BF000EF90DF900895CF92DF92EF92FF920F93B4
:103C00001F93CF93DF93EC010E940D3C182FE19995
:103C1000FECFCE010E944E566C01E199FECFCE013F
:103C200002960E944E567C01812F0E940A3C00E0C1
:103C300010E08701FF24EE24C601A0E0B0E0E80E0A
:103C4000F91E0A1F1B1FB701C801DF91CF911F91F9
:103C50000F91FF90EF90DF90CF900895FF920F9318
:103C60001F93DF93CF9300D0CDB7DEB78C010E94B6
:103C70000D3CF82EE199FECFC8010E944E569A8362
:103C800089838F2D0E940A3C89819A810F900F9021
:103C9000CF91DF911F910F91FF900895FF920F93A5
:103CA0001F938C010E940D3CF82EE199FECFC801B4
:103CB0000E944E56182F092F8F2D0E940A3C812FEB
:103CC000902F1F910F91FF900895FF920F931F93D4
:103CD000DF93CF930F92CDB7DEB78C0169830E943B
:103CE0000D3CF82EE199FECFC80169810E945E5615
:103CF0008F2D0E940A3C0F90CF91DF911F910F9161
:103D0000FF9008950F931F93CF93DF93EC01062F3D
:103D10000E940D3C182FE199FECFCE01602F0E942A
:103D20005E56812F0E940A3CDF91CF911F910F9127
:103D30000895CF92DF92EF92FF920F931F93CF934C
:103D4000DF937C018B01D42E0E940D3CC82E1016EF
:103D5000110664F4C0E0D0E0CE018E0D9F1D6D2DE4
:103D60000E94821E2196C017D107B4F38C2D0E94A9
:103D70000A3CDF91CF911F910F91FF90EF90DF9060
:103D8000CF900895FF920F931F93DF93CF930F92DD
:103D9000CDB7DEB78C010E940D3CF82EE199FECF25
:103DA000C8010E94465689838F2D0E940A3C898152
:103DB0000F90CF91DF911F910F91FF9008950F9376
:103DC0001F93CF93DF93EC010E940D3C082FE199E4
:103DD000FECFCE010E944656182F802F0E940A3C2B
:103DE000812FDF91CF911F910F9108959C01FB01CD
:103DF000E199FECFCA01B901AF010E94545608955E
:103E00009C01FB01E199FECFCA01B901AF010E94FB
:103E1000365608951092A8051092B2050895809123
:103E2000A805882381F18091B205882379F142E0C9
:103E300050E09A01220F331FCA01880F991F880F83
:103E4000991F880F991F280F391F28553A4F81E075
:103E5000F901808341831382FA01EE0FFF1FEE0FF9
:103E6000FF1FE40FF51FEE0FFF1FE655FA4F1082FC
:103E70008FEF9FEFAFEFBFEFF90186839783A087A6
:103E8000B187CA01089540E050E0D3CF41E050E04F
:103E9000D0CF9C01FC01EE0FFF1FEE0FFF1FEE0FB6
:103EA000FF1F220F331FE20FF31FE855FA4F108256
:103EB00008951092A8051092B205089580E090E050
:103EC0000E94A32620E030E0019711F0C901089577
:103ED00021E030E0C9010895CF92DF92EF92FF9286
:103EE0000F931F93CF93DF93EC017A018B01F901BC
:103EF0002115310509F447C02E813F814885598538
:103F00006901E130F105B1F157FD1FC08C819D8140
:103F1000A0E0B0E082179307A407B507B4F032978A
:103F200019F020E030E01CC0B801A701480F591F6C
:103F30006A1F7B1F4E835F836887798777FD05C083
:103F400084179507A607B70764F7C601AA2797FD48
:103F5000A095BA2F8E839F83A887B9872FEF3FEF55
:103F6000C901DF91CF911F910F91FF90EF90DF90EA
:103F7000CF9008952E0D3F1D401F511F2E833F836C
:103F800048875987C1CF8C819D81A0E0B0E084171C
:103F90009507A607B70714F34E835F836887798771
:103FA00020E030E0DDCF5F926F927F928F929F9200
:103FB000AF92BF92CF92DF92EF92FF920F931F9337
:103FC000DF93CF93CDB7DEB72D970FB6F894DEBF52
:103FD0000FBECDBF3C014B01089481089108880EAB
:103FE000991ED4011C9274010894E108F1086A0139
:103FF0005E010894A11CB11C8FE2582EC501B601C8
:104000000E94AF29C5010E947C3B482F082F192F21
:10401000C701801B910BB5010E94C33AF701508282
:1040200000951095E00EF11EC6016FE170E00E9450
:104030002A26C82EDD24C114D10401F7D7015C92D1
:10404000B4016E197F09161617065CF5F30120E01E
:1040500030E04FE205C00894E11CF11CD7014C91FF
:1040600041932F5F3F4F26173707ACF3F301E60F5D
:10407000F71F319710822D960FB6F894DEBF0FBE52
:10408000CDBFCF91DF911F910F91FF90EF90DF9007
:10409000CF90BF90AF909F908F907F906F905F90E8
:1040A0000895F301E6CF0E94AA280895CF92DF92E7
:1040B000EF92FF921F93CF93DF936C01EB017A0194
:1040C000188211E003C01F5F113689F0812FB701FC
:1040D0000E9419270197B9F78881F601E80FF11DB1
:1040E000108388818F5F88831F5F113679F7DF9196
:1040F000CF911F91FF90EF90DF90CF900895EF92B6
:10410000FF920F931F937C018B01CB0160E070E065
:104110004CE050E097010E948425C8016CE070E0FB
:104120000E942A26F7018487C8016DE170E00E9491
:104130002A26F7018587C8016EE170E00E942A26D1
:10414000F70186871F910F91FF90EF9008955F927E
:104150006F927F928F929F92AF92BF92CF92DF9297
:10416000EF92FF920F931F93DF93CF93CDB7DEB7FC
:104170002D970FB6F894DEBF0FBECDBF3C014B01AB
:10418000089481089108880E991ED4011C9274012C
:104190000894E108F1080E9465296C015E01089409
:1041A000A11CB11C9FE2592EC501B6010E94AF2986
:1041B000C5010E947C3B482F082F192FC701801B87
:1041C000910BB5010E94C33AF701508200951095FA
:1041D000E00EF11EC6016FE170E00E942A26C82E93
:1041E000DD24C114D10401F7D7015C92B4016E192A
:1041F0007F09161617065CF5F30120E030E04FE268
:1042000005C00894E11CF11CD7014C9141932F5F2C
:104210003F4F26173707ACF3F301E60FF71F31972F
:1042200010822D960FB6F894DEBF0FBECDBFCF9192
:10423000DF911F910F91FF90EF90DF90CF90BF9093
:10424000AF909F908F907F906F905F900895F30153
:10425000E6CFDF93CF9300D0CDB7DEB7BE016F5F5F
:104260007F4F0E942A2C9C018FEF2F3F380731F49B
:10427000C9010F900F90CF91DF91089589819A81A4
:10428000892BB1F72FEF3FEFF3CFDF93CF9300D020
:10429000CDB7DEB7BE016F5F7F4F0E942A2C0E9410
:1042A0006A290F900F90CF91DF9108956F927F92BE
:1042B0008F929F92AF92BF92CF92DF92EF92FF9236
:1042C0000F931F93DF93CF9300D000D0CDB7DEB70D
:1042D0007C018B01CB010E948326B82EA92EC80138
:1042E0000E947C3B6C01C701BE016F5F7F4F0E9443
:1042F0002A2C4C01C801BE016D5F7F4F0E942A2C01
:10430000F82E0E94312E782E692EC401672D762D4D
:104310000E9499270C0D1D1D0B19872D962D60E00D
:1043200070E0402F50E02B2D3A2D0E947525872DEF
:10433000962D602F70E040E00E94DB25872D962DA2
:104340006FE170E04F2D0E94DB258F2D672D0E94BD
:104350000A2A2EE0E22EF12C07C00894E11CF11C81
:1043600086E1E816F104E9F0C401B7010E942A26AB
:10437000082F882391F30E94322D182F872D962D18
:10438000B701412F0E94DB25802F90E0612F70E064
:104390000E946B270894E11CF11C86E1E816F104E9
:1043A00019F780E090E00F900F900F900F90CF9151
:1043B000DF911F910F91FF90EF90DF90CF90BF9012
:1043C000AF909F908F907F906F9008959F92AF9243
:1043D000BF92CF92DF92EF92FF920F931F93DF93E2
:1043E000CF9300D000D0CDB7DEB77C018B01CB01DD
:1043F0000E948326A82E992EC8010E947C3B6C0146
:10440000C701BE016F5F7F4F0E942A2CF82EE92E54
:104410006FE170E00E942A266F2D0E94E729C801F3
:10442000BE016D5F7F4F0E942A2CB82E8F2D9E2DCE
:104430006FE170E04B2D0E94DB250C0D1D1D0A194C
:104440008F2D9E2D60E070E0402F50E02A2D392DF9
:104450000E9475258F2D9E2D602F70E040E00E94F8
:10446000DB258B2D6F2D0E940A2A80E090E00F90B3
:104470000F900F900F90CF91DF911F910F91FF90B0
:10448000EF90DF90CF90BF90AF909F9008952F92C4
:104490003F924F925F926F927F928F929F92AF92D4
:1044A000BF92CF92DF92EF92FF920F931F93CF9321
:1044B000DF93EC012B013A01EE80FF80088519851E
:1044C0005A01CC24B7FCC094DC2CA60195012E0D1A
:1044D0003F1D401F511F6C817D81CB01A0E0B0E0EA
:1044E00082179307A407B507ECF4972F987F80E015
:1044F0007770672B11F08050984FA0E0B0E08217E2
:104500009307A407B5070CF4AEC0A3014E0D5F1DC1
:104510005D834C838A8190E06DE170E00E94BF254D
:104520006C817D8161507A4F08F09AC0EE80FF80E7
:1045300008851985C801B70120E038E040E050E067
:104540000E94B0554901C801B701615070408040D8
:1045500090406A0D7B1D8C1D9D1D20E038E040E0E1
:1045600050E00E94B05519018216930609F495C0D7
:10457000C801B70120E038E040E050E00E94B055AB
:10458000462FE72F862F9E2F60E071E00E947B551B
:104590007C01242F3E2FC90197FDB2C0092F11279E
:1045A00007FD1A958A81682D0E946F29812C61E090
:1045B000962E8E189F0890E00197880F991F880FFC
:1045C000991F880F991F800F911F6E2DA2019401D2
:1045D0000E94E7346E817F818885998561507040A3
:1045E000804090406A0D7B1D8C1D9D1D20E038E0B1
:1045F00040E050E00E94B055CB0177FD7EC0092F0E
:10460000112707FD1A958A81622D0E946F2990E07B
:104610000197880F991F880F991F880F991F480CC1
:10462000591C68187908800F911F60E0A20193015E
:104630000E94E73420E030E0C901DF91CF911F9163
:104640000F91FF90EF90DF90CF90BF90AF909F9031
:104650008F907F906F905F904F903F902F90089534
:1046600022E030E0E9CF8A8190E00E942D2AEE809E
:10467000FF80088519856C817D81A60195012E0D2D
:104680003F1D401F511FCB01A0E0B0E082179307F0
:10469000A407B5070CF046CF38CFC801B70120E01A
:1046A00038E040E050E00E94B055F62EE72ECB01F6
:1046B00077FD29C0092F112707FD1A958A81682DDA
:1046C0000E946F29282F30E021503040220F331FE5
:1046D000220F331F220F331F8F2D9E2D60E071E0BC
:1046E0000E947B55682FC901800F911FA201930181
:1046F0000E94E73420E030E09FCF81509F4F7FCF72
:1047000081509F4F4BCF81509F4FD4CF2F923F92DC
:104710004F925F926F927F928F929F92AF92BF92D1
:10472000CF92DF92EF92FF920F931F93DF93CF937D
:1047300000D000D000D0CDB7DEB74C017C836B83B6
:104740001A01FC01A680B780C084D1842A016624A6
:1047500057FC6094762C83017201EA0CFB1C0C1D43
:104760001D1D84819581A0E0B0E08E159F05A007F6
:10477000B1070CF4A5C0C601B50120E038E040E067
:1047800050E00E94B0553E832D830894E108F10863
:1047900001091109C801B70120E038E040E050E00C
:1047A0000E94B0553A8329838D819E818217930799
:1047B00009F489C0C601B50120E038E040E050E0CE
:1047C0000E94B055462FE72F862F9E2F60E071E0A4
:1047D0000E947B557C01242F3E2FC90197FDA8C064
:1047E000092F112707FD1A95F40182816D810E941E
:1047F0006F29C12C31E0D32ECE18DF0890E001974D
:10480000880F991F880F991F880F991F800F911F7C
:104810006E2D4B815C8196010E94EA34F401668121
:104820007781808591856150704080409040640D13
:10483000751D861D971D20E038E040E050E00E9485
:10484000B055CB0177FD71C0092F112707FD1A95CF
:10485000F401828169810E946F2990E00197880F9D
:10486000991F880F991F880F991F2B813C812C0D50
:104870003D1D3C832B832C183D08800F911F60E069
:10488000A90191010E94EA3420E030E0C901269696
:104890000FB6F894DEBF0FBECDBFCF91DF911F9151
:1048A0000F91FF90EF90DF90CF90BF90AF909F90CF
:1048B0008F907F906F905F904F903F902F900895D2
:1048C0002FEF3FEFE3CFC601B50120E038E040E035
:1048D00050E00E94B055F62EE72ECB0177FD2BC09D
:1048E000092F112707FD1A95F40182816D810E941D
:1048F0006F29282F30E021503040220F331F220F24
:10490000331F220F331F8F2D9E2D60E071E00E9418
:104910007B55682FC901800F911F4B815C819101EC
:104920000E94EA3420E030E0B1CF81509F4F8CCF1D
:1049300081509F4F55CF81509F4FD2CFCF93DF9360
:10494000C0E0D0E0CE010E94A326181619061CF480
:10495000CE010E94C1262196C136D10599F7DF917B
:10496000CF9108950E94612D08950E945F2E0895B1
:104970000E9429212FEF8F3F920731F00E94B72725
:1049800020E030E0C90108952FEF3FEFC9010895FD
:10499000EF92FF920F931F93DF93CF9300D0CDB789
:1049A000DEB77C01BE016F5F7F4F0E942A2C8C0115
:1049B0008FEF0F3F180761F42FEF3FEFC9010F9002
:1049C0000F90CF91DF911F910F91FF90EF9008957D
:1049D00089819A81892B81F7C7010E948326B801BA
:1049E0000E94A22B20E030E0E9CFFC01818190E021
:1049F0000E94491F0895AF92BF92CF92DF92EF922B
:104A0000FF920F931F93DF93CF9300D0CDB7DEB704
:104A10006C018B01BE016F5F7F4F0E942A2C5C01ED
:104A2000C8010E9456267C01009781F420E030E006
:104A3000C9010F900F90CF91DF911F910F91FF90BF
:104A4000EF90DF90CF90BF90AF9008958FEFA816B2
:104A50008FEFB80659F389819A81009739F582E082
:104A6000E816F10419F7C6010E948326B5010E94D9
:104A7000742B182F0E940F1F082FF92E812F90E002
:104A8000602F7F2D42E050E00E94902A802F9F2DC2
:104A90009C01220F331F220F331F220F331F880F59
:104AA000991F280F391F28553A4FC2CF029709F096
:104AB000BDCF0E940F1F182F092FC501612F702F26
:104AC000A7010E94902A812F902FE2CF880F991F73
:104AD00082959295907F9827807F9827860F971FC1
:104AE000BA01422F0E94191D0895880F991F8295BF
:104AF0009295907F9827807F9827860F971FBA01FD
:104B0000A9010E941C1D0895880F991F82959295F6
:104B1000907F9827807F9827860F971FBA01A90159
:104B20000E941F1D0895880F991F82959295907F6E
:104B30009827807F9827860F971FBA01A9010E94A6
:104B4000F81C0895880F991F82959295907F982759
:104B5000807F9827860F971FBA01A9010E94F81C31
:104B60000895880F991F82959295907F9827807F4E
:104B70009827860F971FBA010E94FB1C0895880F83
:104B8000991F82959295907F9827807F9827860F0E
:104B9000971FBA010E94FE1C0895880F991F8295E5
:104BA0009295907F9827807F9827860F971F642F74
:104BB0000E94011D0895880F991F82959295907FFC
:104BC0009827807F9827860F971F642F0E94041DC7
:104BD0000895880F991F82959295907F9827807FDE
:104BE0009827860F971F0E94071D0895880F991F09
:104BF00082959295907F9827807F9827860F971FA0
:104C00000E940A1D0895880F991F82959295907FA2
:104C10009827807F9827860F971F0E940D1D089563
:104C2000880F991F82959295907F9827807F98276B
:104C3000860F971F0E94101D0895880F991F829557
:104C40009295907F9827807F9827860F971F0E94C4
:104C5000131D0895880F991F82959295907F98272C
:104C6000807F9827860F971F0E94161D0895FC01CC
:104C700040814F32B9F0DC01FB0103C04193119632
:104C80004C91842F81568A31C8F3805E8A31B0F30B
:104C90004F35A1F34E3291F38F5E8A3078F3108254
:104CA000CD010895DC0111964181E6CFCF93DF93CA
:104CB000EC010E947C3B019789F0CE010E947C3B75
:104CC000029731F020E030E0C901DF91CF910895E3
:104CD00025E030E0C901DF91CF91089588818237C6
:104CE00049F0873769F0813641F0843759F724E07D
:104CF00030E0EACF21E030E0E7CF23E030E0E4CF5E
:104D000022E030E0E1CFCF93DF93EC010E947C3BC7
:104D1000FC013197EC0FFD1F80818F3221F408C018
:104D200082918F3229F0CE17DF07D1F7FE0104C040
:104D3000EC17FD0729F03196CF01DF91CF9108954F
:104D40008F32C9F3F9CFFF920F931F938C016DE05F
:104D500070E00E942A26F82EC8016CE070E00E94E4
:104D60002A26FF2039F0282F30E0C9011F910F912A
:104D7000FF90089520E030E0C9011F910F91FF904E
:104D80000895EF92FF920F931F93DF93CF93CDB7C8
:104D9000DEB72D970FB6F894DEBF0FBECDBF7C01F6
:104DA0001D8660E070E04CE050E09E012F5F3F4FB9
:104DB0000E948425C7016CE070E00E942A26182F0B
:104DC000C7016DE070E00E942A26882379F0113037
:104DD00021F1123059F40EE010E0C701B8010E9431
:104DE0002A260F5F1F4F06311105B9F7C7016CE185
:104DF00070E00E942A26C7016FE170E00E942A2617
:104E00002D960FB6F894DEBF0FBECDBFCF91DF91C8
:104E10001F910F91FF90EF9008950EE010E0C701F1
:104E2000B8010E942A260F5F1F4F08311105B9F7FC
:104E3000DDCFAF92BF92DF92EF92FF920F931F935D
:104E4000DF93CF93CDB7DEB72D970FB6F894DEBFC3
:104E50000FBECDBF182F5B0190E06DE070E00E94A7
:104E60002A26882399F420E030E0C9012D960FB658
:104E7000F894DEBF0FBECDBFCF91DF911F910F9190
:104E8000FF90EF90DF90BF90AF900895812F90E05A
:104E900060E070E04CE050E07E010894E11CF11C01
:104EA00097010E9484251D86C7010E947C3BD82E55
:104EB0008823C9F2870106C00F5F1F4F802F8E190C
:104EC0008D1588F6C801B5010E94233B892BA1F7F7
:104ED00021E030E0CACFEF92FF920F931F93CF9360
:104EE000DF938B017C010894E108F108EE0CFF1CB4
:104EF000EE0CFF1CEE0CFF1C01501040000F111FA8
:104F0000000F111F000F111FC0E0D0E0BE01600FA5
:104F1000711FCE018E0D9F1D0E94E4342196C83072
:104F2000D105A1F7DF91CF911F910F91FF90EF90E5
:104F30000895EF92FF920F931F93CF93DF937C011D
:104F40008B01C0E0D0E0C701BE010E942A26482F95
:104F5000C801BE010E94DB252196C032D10599F718
:104F6000DF91CF911F910F91FF90EF900895EF92F5
:104F7000FF920F931F93CF93DF937C016CE070E05F
:104F80000E942A26182FC7016FE170E00E942A268E
:104F9000082F113099F0123009F463C0133009F46E
:104FA00044C0143009F4A6C0C7010E94552EDF91F9
:104FB000CF911F910F91FF90EF900895CEE0D0E038
:104FC00004C02196C831D10569F0C701BE010E9415
:104FD0002A268823B1F390E00E94B7272196C83192
:104FE000D10599F7C7016DE070E040E00E94DB2534
:104FF000E114F104B9F0CEE0D0E004C02196C8314C
:10500000D10591F2802F90E0BE010E942A2690E007
:105010008E159F0599F7802F90E0BE0140E00E9419
:10502000DB25C2CF002339F7BFCFC7016DE070E0A9
:1050300040E00E94DB25E114F10409F476C0CEE0E3
:10504000D0E005C02196C831D10509F4ADCF802F3D
:1050500090E0BE010E942A2690E08E159F0591F7F0
:10506000DACFC7016DE070E040E00E94DB25E1147B
:10507000F10411F4002381F0CEE0D0E0802F90E025
:10508000BE010E942A2690E08E159F0509F454C0A7
:105090002196C831D10591F7CEE0D0E0C701BE011D
:1050A0000E942A26882339F090E00E94572D2196ED
:1050B000C631D10599F71E2D812F90E068E170E08F
:1050C0000E942A26182F882309F46ECF90E00E94B0
:1050D000552ECEE0D0E0812F90E0BE010E942A261E
:1050E000882351F390E00E94572D2196C631D105B7
:1050F00091F7E2CFC7016DE070E040E00E94DB2550
:10510000E114F104B1F0CEE0D0E005C02196C83141
:10511000D10509F449CF802F90E0BE010E942A26D4
:1051200090E08E159F0591F776CF002309F087CF89
:105130003BCF002341F738CF802F90E0BE0140E005
:105140000E94DB25CEE0D0E0A9CF0E942A2D0E944C
:10515000292E0895CF93DF93C0E0D0E0CE0160E028
:1051600070E040E250E020E00E9466252196C132C6
:10517000D105A1F70E942A2D0E94292EDF91CF91FF
:105180000895DF92EF92FF920F931F93CF93DF93D7
:105190007C01EB01D42E122FCB010E947C3B482FC7
:1051A0008C3008F44F5F013009F45FC0023009F41D
:1051B00068C0033009F471C0043041F1E114F10416
:1051C00011F4112369F0CEE0D0E0812F90E0BE0110
:1051D0000E942A26882361F02196C831D105A9F7BB
:1051E000DF91CF911F910F91FF90EF90DF90089585
:1051F000812F90E0BE014E2D0E94DB25DF91CF91E3
:105200001F910F91FF90EF90DF900895C70160E02C
:1052100070E050E09E010E947525C7016CE070E0CF
:1052200044E00E94DB25C7016DE070E041E00E9490
:10523000DB25C7016EE070E04EE050E020E00E9408
:105240006625C7016CE170E04D2D0E94DB25C7018A
:105250006DE170E040E050E00E94BF25C7016FE1C2
:1052600070E0412F0E94DB25A9CFC70160E070E00C
:1052700050E09E010E947525C7016CE070E041E09E
:10528000D0CFC70160E070E050E09E010E9475251C
:10529000C7016CE070E042E0C4CFC70160E070E09D
:1052A00050E09E010E947525C7016CE070E043E06C
:1052B000B8CF0F9380E090E06AE271E040E020E038
:1052C00001E00E94C1280F9108958091660390919A
:1052D00067030895909367038093660308950F937F
:1052E0001F93062F683050F0162F90E068E170E0B1
:1052F0000E942A2618501830C0F70770602F70E0FF
:10530000625F7F4F90E00E942A261F910F910895BF
:105310000F931F93CF93DF938C01CEE0D0E0C801B1
:10532000BE010E942A26882361F42196C831D10546
:10533000B1F720E030E0C901DF91CF911F910F91CB
:10534000089521E030E0C901DF91CF911F910F91C5
:1053500008956FE170E00E942A2690E00895EF9290
:10536000FF920F931F93CF93DF937B018C01C0E0DB
:10537000D0E0C701BE010E942A26F801808388235D
:1053800031F00F5F1F4F2196CC30D10591F7F80116
:105390001082DF91CF911F910F91FF90EF900895B0
:1053A0000F931F93CF93DF938C01CEE0D0E0C80121
:1053B000BE010E942A26882329F02196C831D105F2
:1053C000B1F781E0DF91CF911F910F9108950F9375
:1053D0001F93CF93DF93082F162FCEE0D0E0802FBE
:1053E00090E0BE010E942A26811749F02196C8311B
:1053F000D105A9F7DF91CF911F910F910895802FCB
:1054000090E0BE0140E00E94DB25DF91CF911F912B
:105410000F9108950F931F93CF93DF93182F062FAB
:10542000CEE0D0E0812F90E0BE010E942A268823A2
:1054300049F02196C831D105A9F7DF91CF911F918D
:105440000F910895812F90E0BE01402F0E94DB252F
:10545000DF91CF911F910F9108950F931F93CF93D9
:10546000DF93182F012F6EE070E0EB01812F90E0A9
:105470000E942A26882371F19E012D50BE016F5F84
:105480007F4F6631710589F7283008F1812F90E050
:1054900068E170E00E942A26182F882319F70E94DD
:1054A000312E182F802F90E068E170E0412F0E948C
:1054B000DB250E94322D482F812F90E06EE070E0B6
:1054C0000E94DB25DF91CF911F910F910895C22F8C
:1054D000D0E02E960E94322D482F812F90E0BE0101
:1054E0000E94DB25DF91CF911F910F9108950F93BB
:1054F0001F93CF93DF938C01CEE0D0E0C801BE01B3
:105500000E942A26882339F090E00E94572D219688
:10551000C631D10599F7DF91CF911F910F91089571
:10552000AF92BF92CF92DF92EF92FF920F931F93B1
:10553000CF93DF93D82EC92E8A01FB01EE0FFF1FF8
:10554000EE0FFF1FE60FF71FEE0FFF1FE655FA4F96
:1055500080835B01AA0CBB1C7B01EE0CFF1CEE0CD4
:10556000FF1CEE0CFF1CE501CE0DDF1DC855DA4F08
:105570004B838D2D9C2D6DE170E00E9410269D8344
:105580008C830130110519F102301105D9F0033077
:10559000110589F4A0E0B0E08E839F83A887B987C6
:1055A000DF91CF911F910F91FF90EF90DF90CF90FF
:1055B000BF90AF9008950430110569F48D2D9C2D96
:1055C0000E94772A1E821F8218861986E9CF1E82C2
:1055D0001F82188619860530110511F7EA0CFB1C8D
:1055E00088EA95E0E80EF91EF70116821782108608
:1055F0001186D6CF0E94A32620E030E0019711F05B
:10560000C901089521E030E0C9010895CF92DF92E9
:10561000EF92FF921F93CF93DF93182FF92E6B0118
:105620000E947C3B0D975CF021E030E0C901DF91E6
:10563000CF911F91FF90EF90DF90CF900895C6011A
:105640000E94A326892B81F3812F9F2D9C01790134
:10565000C0E0D0E0F7011081C601BE010E942A26F9
:10566000181711F7F7018081882339F021960894E3
:10567000E11CF11CCC30D10569F720E030E0D6CF39
:10568000AF92BF92CF92DF92FF920F931F93CF936F
:10569000DF935C016B01CEE0D0E004C02196C831FD
:1056A000D105F9F0C601BE010E942A26F82E082F66
:1056B00010E0C501B8010E94062B892B79F7C801BB
:1056C0000E94A326882351F3FF2041F3C801DF91F4
:1056D000CF911F910F91FF90DF90CF90BF90AF902F
:1056E000089500E010E0F2CF0F931F93CF93DF9364
:1056F000EC018B010E94402B181619063CF410E0B7
:10570000812FDF91CF911F910F910895C8010E94C1
:10571000D029813081F00E94312E182F90E0BE01F7
:1057200040E0202F02E00E94C128812FDF91CF911D
:105730001F910F9108951FEF812FDF91CF911F913E
:105740000F9108950F931F93CF93DF93EC018B017B
:105750000E94402B181619063CF410E0812FDF91AF
:10576000CF911F910F910895C8010E94D0298130D7
:1057700081F00E94312E182F90E0BE0140E0202FD2
:1057800001E00E94C128812FDF91CF911F910F91DD
:1057900008951FEF812FDF91CF911F910F910895F1
:1057A000CF92DF92EF92FF921F93CF93DF936C0122
:1057B0007B01CEE0D0E004C02196C831D105B9F01C
:1057C000C701BE010E942A26182FC601612F70E072
:1057D0000E94062B892B81F7812F90E00E94A3263F
:1057E000882351F3112341F3282F30E002C020E039
:1057F00030E0C901DF91CF911F91FF90EF90DF90D2
:10580000CF900895CF92DF92EF92FF920F931F9364
:10581000CF93DF936C017B01CEE0D0E0C701BE01E6
:105820000E942A26082F10E0C601B8010E94062B0C
:10583000892B31F02196C831D10581F70FEF1FEF89
:10584000C801DF91CF911F910F91FF90EF90DF90F2
:10585000CF900895AF92BF92CF92DF92EF92FF92D6
:105860000F931F93DF93CF93CDB7DEB72D970FB66E
:10587000F894DEBF0FBECDBF6C015B01FC019191BE
:105880008F01F6018181E0906603F09067039E32FC
:1058900009F456C09F32F1F0892F81568A3108F001
:1058A0005FC0C6016E010894C11CD11CB6010E94E4
:1058B00037268C01009709F06DC0C601B7010E9420
:1058C000D02B009709F448C0F50191838083C6016D
:1058D000B70151C08601EE24FF246E010894C11C5B
:1058E000D11C14C0C801B6010E9437268C01FC01EE
:1058F0008081882359F1C601B7010E94D02B892BE2
:1059000051F0C601B7010E94022C7C01C7010E9420
:10591000FA2A892B39F7EE24EA94FE2CC7012D963A
:105920000FB6F894DEBF0FBECDBFCF91DF911F91B0
:105930000F91FF90EF90DF90CF90BF90AF900895C0
:105940008E32E9F08F3249F28601C7CFC601B70126
:105950000E94D02B009751F4F50111821082DECF06
:1059600091549A3108F49DCF8601B7CFF501918308
:105970008083C601B7010E94022C7C01CFCFC701F2
:105980006FE170E00E942A26E82EFF2486010E5F58
:105990001F4FA3CFC601B7010E94D02B892B09F45A
:1059A000BACFC601B7010E94022C7C0196CFAC0190
:1059B000FB0177FD1AC0F595E795F595E795F59507
:1059C000E795E40FF51F2081332727FD3095CB01A4
:1059D00068E070E00E947B5502C0359527958A9556
:1059E000E2F721703070C90108953796E4CFDC01E9
:1059F0009B0177FD2CC0F901F595E795F595E795A5
:105A0000F595E795EA0FFB1F452B89F4CB0168E07C
:105A100070E00E947B5521E030E002C0220F331F6E
:105A20008A95E2F720958081822380830895CB01B7
:105A300068E070E00E947B5521E030E002C0220F58
:105A4000331F8A95E2F78081822B80830895295F36
:105A50003F4FD1CFE8E6F3E0119283E0E838F80752
:105A6000D9F70895CF93DF93C0E0D0E005C0219629
:105A700081E0C030D807A9F088E693E0BE010E941B
:105A8000D72C892BA1F788E693E0BE0141E050E0D6
:105A90000E94F72CBE016F5F7F4FCB01DF91CF914A
:105AA00008956FEF7FEFCB01DF91CF910895BC0197
:105AB0006150704088E693E040E050E00E94F72C8F
:105AC00008950F931F93CF93DF9300E010E0C0E0A1
:105AD000D0E005C0219681E0C030D80771F088E69B
