:100000000C9466000C9483000C9483000C94830081
:100010000C9483000C9483000C9483000C94830054
:100020000C9483000C9483000C9483000C94830044
:100030000C9483000C9438510C9483000C9483002E
:100040000C944A4A0C9483000C9483000C94830013
:100050000C94334A0C9483000C9483000C9483001A
:100060000C9483000C943F120C9483000C94830036
:100070000C9483000C9499200C9483000C948300BE
:100080000C94C7500C9483000C9483000C94830050
:100090000C9483000C9483000C9483000C948300D4
:1000A0000C9483000C9483000C9483000C948300C4
:1000B0000C9483000C9483000C9483000C948300B4
:1000C0000C9483000C9483000C94830011241FBEB5
:1000D000CFEFD1E2DEBFCDBF13E0A0E0B2E0E4EFAE
:1000E000F6EA00E00BBF02C007900D92AE35B107F3
:1000F000D9F71DE0AEE5B3E001C01D92A233B10710
:10010000E1F70C94A72D0C94000010920306809147
:1001100003068093020680910206809301060895EB
:1001200081E096E0089588E096E008958CEF95E0F0
:100130000895E091170AF091180A878D90A1909385
:10014000FB058093FA0541A152A150931E064093EE
:100150001D0623A134A13093F9052093F8056627E5
:1001600057FD6095762F0E9497010895E091170A38
:10017000F091180A878D90A19093FB058093FA0562
:1001800081A192A19093200680931F0683A194A140
:10019000909305068093040665E08CE091E00E9450
:1001A000A13E0895E091170AF091180A878D90A159
:1001B0009093FB058093FA0581A192A1909320066C
:1001C00080931F0683A194A1909305068093040653
:1001D00065E08FE191E00E94A13E0895E091170A49
:1001E000F091180A878D90A19093FB058093FA05F2
:1001F00065E082E391E00E94A13E08958091170A94
:100200009091180A909307068093060665E08DE3A7
:1002100091E00E94A13E0895409104065091050688
:1002200060911F06709120068091FA059091FB0560
:100230000E94530464E087E00E940A4308954091BD
:1002400004065091050660911F067091200680916A
:10025000FA059091FB050E949D0563E087E00E94EE
:100260000A4308958091FA059091FB050E940507C5
:1002700062E087E00E940A4308956CEF75E088E031
:1002800096E00E940B07E0910606F091070690A306
:10029000878F61E087E00E940A430895E1E2F6E07B
:1002A00010823A9686E0E137F807D1F7089520E00A
:1002B00030E0E1E2F6E08081882331F02F5F3F4FAC
:1002C0003A9628303105B9F78AE090E0289FF0018E
:1002D000299FF00D389FF00D1124EF5DF94F81E05B
:1002E00080832183138212828FEF9FEFAFEFBFEFE6
:1002F00086839783A087B187C90108952AE030E0FB
:10030000829FF001839FF00D929FF00D1124EF5D0D
:10031000F94F1082089580E090E00E94880820E064
:1003200030E0019711F421E030E0C9010895EF9227
:10033000FF920F931F93CF93DF93FC017A018B0100
:10034000B9012115310571F484819581AA27BB2754
:100350008E159F05A007B1076CF1E682F782008732
:1003600011873FC086819781A085B185EC0121303E
:10037000310541F48E0D9F1DA01FB11F8683978309
:10038000A087B187268137814085518557FD09C0F7
:1003900084819581AA27BB2782179307A407B507F5
:1003A00064F4CE01AA2797FDA095BA2F8683978380
:1003B000A087B1878FEF9FEF16C06230710589F477
:1003C000AC01BD014E0D5F1D601F711F4683578339
:1003D0006087718777FDE5CF84179507A607B70774
:1003E00004F380E090E0DF91CF911F910F91FF9097
:1003F000EF9008956F927F928F929F92AF92BF92EB
:10040000CF92DF92EF92FF920F931F93CF93DF93E0
:10041000CDB7DEB72D970FB6F894DEBF0FBECDBFB8
:100420003C014B01880E991EF401319710826F0137
:100430000894C108D1085A01B5018E010F5F1F4F02
:10044000C8010E94060CC8010E94EA457601E81A1C
:10045000F90A482FB801C7010E949C450FE2F60136
:10046000008367010894C108D1086FE170E0C501FD
:100470000E941808A82EBB248823F1F6F6010083F9
:10048000B4016C197D0961507040D30120E030E067
:1004900006C0F60181916F018D932F5F3F4F2617A4
:1004A0003707BCF311971C922D960FB6F894DEBF58
:1004B0000FBECDBFDF91CF911F910F91FF90EF90B5
:1004C000DF90CF90BF90AF909F908F907F906F9074
:1004D00008950E948D0A0895CF92DF92EF92FF92C5
:1004E0001F93CF93DF936C01EB017A01188211E027
:1004F000B701812F0E94F908019741F48881F60124
:10050000E80FF11D108388818F5F88831F5F11368C
:1005100079F7DF91CF911F91FF90EF90DF90CF900F
:100520000895EF92FF920F931F937C018B019C0122
:100530004CE050E060E070E0C8010E948C076CE085
:1005400070E0C8010E941808F70184876DE170E02F
:10055000C8010E941808F70185876EE170E0C801A4
:100560000E941808F70186871F910F91FF90EF9066
:1005700008956F927F928F929F92AF92BF92CF9287
:10058000DF92EF92FF920F931F93CF93DF93CDB73C
:10059000DEB72D970FB6F894DEBF0FBECDBF3C017E
:1005A0004B01880E991EF401319710826F01089457
:1005B000C108D1080E94C70B5C01B5018E010F5F15
:1005C0001F4FC8010E94060CC8010E94EA4576012F
:1005D000E81AF90A482FB801C7010E949C450FE2AA
:1005E000F601008367010894C108D1086FE170E04B
:1005F000C5010E941808A82EBB248823F1F6F60135
:100600000083B4016C197D0961507040D30120E072
:1006100030E006C0F60181916F018D932F5F3F4F4F
:1006200026173707BCF311971C922D960FB6F89436
:10063000DEBF0FBECDBFDF91CF911F910F91FF9015
:10064000EF90DF90CF90BF90AF909F908F907F9072
:100650006F900895CF93DF93CDB7DEB722970FB693
:10066000F894DEBF0FBECDBFBE016F5F7F4F0E940B
:10067000770E9C018FEF2F3F380731F089819A81E7
:10068000892B11F42FEF3FEFC90122960FB6F89492
:10069000DEBF0FBECDBFDF91CF910895CF93DF9323
:1006A000CDB7DEB722970FB6F894DEBF0FBECDBF31
:1006B000BE016F5F7F4F0E94770E0E94CC0B229687
:1006C0000FB6F894DEBF0FBECDBFDF91CF91089576
:1006D0006F927F928F929F92AF92BF92CF92DF9252
:1006E000EF92FF920F931F93CF93DF93CDB7DEB7B7
:1006F00024970FB6F894DEBF0FBECDBF7C018B01EF
:10070000CB010E9467086C01C8010E94EA455C01A8
:10071000BE016D5F7F4FC7010E94770E3C01BE0195
:100720006F5F7F4FC8010E94770E7C010E945E10B0
:100730004C01BC01C3010E9477090A0D1B1D0C1955
:1007400011279601A80160E070E0C4010E947F07B4
:1007500040E0B801C4010E94D7074E2D6FE170E060
:10076000C4010E94D707682D8E2D0E946C0CCC24EA
:10077000DD248EE0E82EF12CEC0CFD1CB701C3014A
:100780000E941808A82E882371F00E94720F082F6B
:10079000482FB701C4010E94D7071127B8018A2D3D
:1007A00099270E944B090894C11CD11C88E0C816E7
:1007B000D104F9F680E090E024960FB6F894DEBFFD
:1007C0000FBECDBFDF91CF911F910F91FF90EF90A2
:1007D000DF90CF90BF90AF909F908F907F906F9061
:1007E00008958F929F92AF92BF92CF92DF92EF9235
:1007F000FF920F931F93CF93DF93CDB7DEB724976C
:100800000FB6F894DEBF0FBECDBF7C018B01CB01CC
:100810000E9467085C01C8010E94EA454C01BE01C4
:100820006D5F7F4FC7010E94770E7C016FE170E022
:100830000E9418086E2D0E94400CBE016F5F7F4F12
:10084000C8010E94770E6C01482F6FE170E0C7016C
:100850000E94D707080D191D0A1911279501A80133
:1008600060E070E0C7010E947F0740E0B801C70167
:100870000E94D7076E2D8C2D0E946C0C80E090E0BA
:1008800024960FB6F894DEBF0FBECDBFDF91CF9197
:100890001F910F91FF90EF90DF90CF90BF90AF909E
:1008A0009F908F9008952F923F924F925F926F92F8
:1008B0007F928F929F92AF92BF92CF92DF92EF92F0
:1008C000FF920F931F93CF93DF93CDB7DEB7269799
:1008D0000FB6F894DEBF0FBECDBF9E838D837A83A3
:1008E00069835C834B83FC01E680F780008511857A
:1008F0003A01882477FC8094982CB801A701460D12
:10090000571D681D791D24813581C901AA27BB2780
:1009100084179507A607B707C4F5C9018070987FAB
:100920003770232B11F08050984FAA27BB278417CC
:100930009507A607B707DCF4ED81FE818281992730
:100940000E94980CED81FE81E680F780008511857C
:10095000A8019701260D371D481D591D84819581D9
:10096000AA27BB2782179307A407B50774F44B8106
:100970005C814E0D5F1DED81FE8155834483828134
:100980006DE170E099270E94BF07ED81FE81E6804E
:10099000F78000851185C801B70120E038E040E00C
:1009A00050E00E9441531901C801B701660D771D3F
:1009B000881D991D615070408040904020E038E0D3
:1009C00040E050E00E94415329012216330669F5A8
:1009D000C801B70120E038E040E050E00E944153F8
:1009E0007B018C01642DED81FE8182810E94D10BFF
:1009F000E82FC70160E071E00E940C536C018E2E5D
:100A0000992473E0880C991C7A95E1F7C70160E09E
:100A100071E00E940C53CB0108972B813C814981E6
:100A20005A816C2D880D991D6BC0C801B70120E05B
:100A300038E040E050E00E9441535B016C01E12C42
:100A400061E0F62EC50160E071E00E940C538C015C
:100A5000622DED81FE8182810E94D10BE01AF10AA4
:100A6000282E332453E0220C331C5A95E1F7C5019C
:100A700060E071E00E940C53CB0108979701498117
:100A80005A81602F820D931D0E94863EED81FE816A
:100A900086819781A085B185680E791E8A1E9B1E6E
:100AA00008946108710881089108C401B30120E02D
:100AB00038E040E050E00E944153DC01CB0160E0AF
:100AC00071E00E940C538B01642DED81FE818281C7
:100AD0000E94D10B2B813C812E193F093C832B8333
:100AE000E981FA81EE0EFF1E992743E0880F991FD6
:100AF0004A95E1F708501040A70160E0800F911F70
:100B00000E94863E80E090E026960FB6F894DEBF05
:100B10000FBECDBFDF91CF911F910F91FF90EF904E
:100B2000DF90CF90BF90AF909F908F907F906F900D
:100B30005F904F903F902F9008952F923F924F9249
:100B40005F926F927F928F929F92AF92BF92CF925D
:100B5000DF92EF92FF920F931F93CF93DF93CDB766
:100B6000DEB726970FB6F894DEBF0FBECDBF9E83CB
:100B70008D837A8369835C834B83FC01A680B78075
:100B8000C084D1843A01882477FC8094982C860113
:100B90007501E60CF71C081D191D84819581AA2793
:100BA000BB278E159F05A007B1071CF48FEF9FEFA1
:100BB000B6C0C601B50120E038E040E050E00E9438
:100BC000415319010894E108F10801091109C8010C
:100BD000B70120E038E040E050E00E944153290195
:100BE0002216330669F5C601B50120E038E040E081
:100BF00050E00E9441537B018C01642DED81FE8108
:100C000082810E94D10BE82FC70160E071E00E9451
:100C10000C536C01AE2EBB24B3E0AA0CBB1CBA95DE
:100C2000E1F7C70160E071E00E940C53CB01089727
:100C30002B813C8149815A816C2D8A0D9B1D6BC093
:100C4000C601B50120E038E040E050E00E94415389
:100C50005B016C01E12CA1E0FA2ECB0160E071E0B8
:100C60000E940C538C01622DED81FE8182810E94D5
:100C7000D10BE01AF10A282E3324F3E0220C331CA6
:100C8000FA95E1F7C50160E071E00E940C53CB01D9
:100C90000897970149815A81602F820D931D0E9408
:100CA000893EED81FE8186819781A085B185680EA0
:100CB000791E8A1E9B1E089461087108810891089C
:100CC000C401B30120E038E040E050E00E9441530D
:100CD000DC01CB0160E071E00E940C538B01642DBC
:100CE000ED81FE8182810E94D10B2B813C812E19E6
:100CF0003F093C832B83E981FA81EE0EFF1E992781
:100D0000E3E0880F991FEA95E1F708501040A7012A
:100D100060E0800F911F0E94893E80E090E026965F
:100D20000FB6F894DEBF0FBECDBFDF91CF911F91FC
:100D30000F91FF90EF90DF90CF90BF90AF909F907A
:100D40008F907F906F905F904F903F902F9008957D
:100D5000CF93DF93C0E0D0E0CE010E948808181640
:100D600019061CF4CE010E94A0082196C136D105B7
:100D700099F7DF91CF9108950E949F0F08950E94E7
:100D80008B1008950E942A032FEF8F3F920719F4CA
:100D90008FEF9FEF08950E94950980E090E00895FD
:100DA000EF92FF920F931F93CF93DF93CDB7DEB7F0
:100DB00022970FB6F894DEBF0FBECDBF7C01BE01F7
:100DC0006F5F7F4F0E94770E8C018FEF0F3F1807E8
:100DD00069F089819A81892B49F4C7010E946708CB
:100DE000B8010E94EC0D80E090E002C08FEF9FEF11
:100DF00022960FB6F894DEBF0FBECDBFDF91CF9124
:100E00001F910F91FF90EF900895FC018181992728
:100E10000E947E010895AF92BF92CF92DF92EF922F
:100E2000FF920F931F93CF93DF93CDB7DEB7229737
:100E30000FB6F894DEBF0FBECDBF5C018B01BE01C3
:100E40006F5F7F4F0E94770E6C01C8010E943E08C1
:100E50007C01892BA1F12FEFC2162FEFD20679F179
:100E600089819A810097A1F432E0E316F10439F503
:100E7000C5010E946708B6010E94BE0DF82E0E94AF
:100E800057018C0142E050E0BC018F2D992708C02A
:100E90000297A9F40E9457018C01A701BC01C60169
:100EA0000E94F30C8AE090E09C01029FC001039F26
:100EB000900D129F900D11248F5D994F02C080E01C
:100EC00090E022960FB6F894DEBF0FBECDBFDF9143
:100ED000CF911F910F91FF90EF90DF90CF90BF9037
:100EE000AF900895FB01BA0135E0880F991F3A953C
:100EF000E1F7422F8E0F9F1F0E94E32F0895FB0101
:100F0000BA0145E0880F991F4A95E1F7A9018E0FB4
:100F10009F1F0E94E62F0895FB01BA0155E0880F3C
:100F2000991F5A95E1F7A9018E0F9F1F0E94F82F74
:100F30000895FB0165E0880F991F6A95E1F7BA01F2
:100F4000A9018E0F9F1F0E94BE2F0895FB0175E01F
:100F5000880F991F7A95E1F7BA01A9018E0F9F1F9B
:100F60000E94BE2F08959B01E5E0880F991FEA9526
:100F7000E1F7BA01820F931F0E94C12F08959B01D0
:100F8000F5E0880F991FFA95E1F7BA01820F931FD8
:100F90000E94C42F08959B01A5E0880F991FAA9570
:100FA000E1F7642F820F931F0E94C72F08959B01C2
:100FB000B5E0880F991FBA95E1F7642F820F931F50
:100FC0000E94CA2F089525E0880F991F2A95E1F7FE
:100FD000860F971F0E94CD2F089535E0880F991F27
:100FE0003A95E1F7860F971F0E94D02F089545E0AC
:100FF000880F991F4A95E1F7860F971F0E94D32FFC
:10100000089555E0880F991F5A95E1F7860F971FAD
:101010000E94D62F0895E5E0880F991FEA95E1F721
:10102000860F971F0E94D92F992787FD90950895C5
:10103000F5E0880F991FFA95E1F7860F971F0E9438
:10104000DF2F99270895FC0180818F3209F43196B2
:10105000DB0102C09D9331969081892F81568A31A0
:10106000C8F3805E8A31B0F39F35A1F39E3291F3CD
:101070008F5E8A3078F31C92CF010895CF93DF936F
:10108000EC010E94EA450197A9F48881823719F49E
:1010900081E090E019C0873719F482E090E014C035
:1010A000813619F483E090E00FC0843759F484E06E
:1010B00090E00AC0CE010E94EA45029719F485E04B
:1010C00090E002C080E090E0DF91CF910895CF934F
:1010D000DF93EC010E94EA45FE01E80FF91F31970A
:1010E0009E0101C0319780818F3221F0E217F30712
:1010F000C9F703C0EC17FD0729F488818F3211F07E
:10110000CE0102C0CF010196DF91CF9108950895DD
:10111000FF920F931F938C016DE070E00E941808FE
:10112000F82E6CE070E0C8010E941808FF2019F446
:1011300080E090E001C099271F910F91FF900895E2
:10114000EF92FF920F931F93CF93DF93CDB7DEB74C
:101150002D970FB6F894DEBF0FBECDBF7C011D8664
:101160009E012F5F3F4F4CE050E060E070E00E9436
:101170008C076CE070E0C7010E941808182F6DE022
:1011800070E0C7010E9418088823E1F01130C1F413
:101190000EE010E0B801C7010E9418080F5F1F4F52
:1011A00008311105B9F70EC00EE010E0B801C70113
:1011B0000E9418080F5F1F4F06311105B9F702C0D2
:1011C000123091F36CE170E0C7010E9418086FE1E2
:1011D00070E0C7010E9418082D960FB6F894DEBF84
:1011E0000FBECDBFDF91CF911F910F91FF90EF9078
:1011F0000895CF92DF92EF92FF920F931F93CF93B8
:10120000DF93CDB7DEB72D970FB6F894DEBF0FBED4
:10121000CDBF6B01E82EFF246DE070E0C7010E9496
:101220001808882339F18E010F5F1F4F98014CE099
:1012300050E060E070E0C7010E948C071D86C80185
:101240000E94EA45F82E00E010E00EC0B601CE0183
:101250000196820F911D0E94AA450F5F1F4F892B97
:1012600019F481E090E008C0202F8F2D99270817EE
:10127000190761F780E090E02D960FB6F894DEBF75
:101280000FBECDBFDF91CF911F910F91FF90EF90D7
:10129000DF90CF900895EF92FF920F931F93CF931B
:1012A000DF93EB018C0123E0000F111F2A95E1F77A
:1012B00093E0CC0FDD1F9A95E1F788E0E82EF12C42
:1012C000085010402897BE01C8010E944826089483
:1012D000E108F10821960F5F1F4FE114F10499F71F
:1012E000DF91CF911F910F91FF90EF900895EF92B2
:1012F000FF920F931F93CF93DF937C018B01C0E08C
:10130000D0E0BE01C7010E941808482FBE01C801E5
:101310000E94D7072196C032D10599F7DF91CF916E
:101320001F910F91FF90EF900895BF92CF92DF929F
:10133000EF92FF920F931F93CF93DF93EC016CE03A
:1013400070E00E941808182F6FE170E0CE010E9433
:101350001808B82E1130B1F500E010E0B801625F56
:101360007F4FCE010E941808882319F099270E9408
:1013700095090F5F1F4F0A30110581F740E06DE0BE
:1013800070E0CE010E94D707209719F4BB2009F422
:10139000B2C000E010E03EE0C32ED12CC00ED11E42
:1013A000EB2CFF24B601C7010E94180899278C175F
:1013B0009D0709F47AC00F5F1F4F0A30110509F429
:1013C0009AC0E9CF123009F052C040E06DE070E001
:1013D000CE010E94D707209711F4BB20B9F00EE090
:1013E00010E0EB2CFF24B801C7010E9418089927D0
:1013F0008C179D0731F440E0B801C7010E94D70760
:1014000005C00F5F1F4F0831110559F70EE010E0BE
:10141000B801CE010E941808882341F099270E9444
:10142000960F0F5F1F4F0631110591F7FC2E68E1F3
:1014300070E08F2D99270E941808F82E882309F450
:101440005AC0C82EDD24C6010E9482100EE010E0B2
:10145000B801C6010E941808882349F399270E9401
:10146000960F0F5F1F4F0631110509F3F1CF1330AF
:1014700029F540E06DE070E0CE010E94D70720978B
:1014800011F4BB20C1F10EE010E0EB2CFF24B801F9
:10149000C7010E94180899278C179D0749F00F5F14
:1014A0001F4F0831110539F1F0CF40E0B60102C0FD
:1014B00040E0B801C7010E94D7071DC01430D9F41D
:1014C00040E06DE070E0CE010E94D707209711F454
:1014D000BB2089F00EE010E0EB2CFF24B801C7011F
:1014E0000E94180899278C179D0711F30F5F1F4F53
:1014F0000831110589F7CE010E948210DF91CF914A
:101500001F910F91FF90EF90DF90CF90BF900895C3
:101510000E946A0F0E9456100895CF93DF93C0E097
:10152000D0E020E040E250E060E070E0CE010E94B8
:1015300072072196C136D105A1F70E946A0F0E9459
:101540005610DF91CF910895DF92EF92FF920F93A3
:101550001F93CF93DF93EC017B01142FD22ECB018D
:101560000E94EA458C3008F48F5F013051F4482F17
:101570005527970160E070E0CE010E947F0741E0AF
:1015800029C0023051F4482F5527970160E070E0E0
:10159000CE010E947F0742E01DC0033081F4482F36
:1015A0005527970160E070E0CE010E947F0743E07D
:1015B00011C04C2FB801C7010E94D70745C00430A5
:1015C00079F5482F5527970160E070E0CE010E9421
:1015D0007F0744E06CE070E0CE010E94D70741E055
:1015E0006DE070E0CE010E94D70720E04EE050E0B1
:1015F0006EE070E0CE010E947207412F6CE170E056
:10160000CE010E94D70740E050E06DE170E0CE01CE
:101610000E94BF074D2D6FE170E0CE010E94D707F9
:10162000209711F4DD2081F00EE010E0ED2CFF2476
:10163000B801C7010E941808882309F4BACF0F5FC8
:101640001F4F0831110591F7DF91CF911F910F9135
:10165000FF90EF90DF9008954F925F927F928F926C
:101660009F92AF92BF92CF92DF92EF92FF920F9331
:101670001F93782E6B015A01490128010E945E10C8
:10168000E82EFF2403E0272D40E0B601C7010E94A9
:10169000A40AA5016EE070E0C7010E94BF07A40183
:1016A00060E170E0C7010E94B307A20162E170E04F
:1016B000C7010E94BF071F910F91FF90EF90DF902D
:1016C000CF90BF90AF909F908F907F905F904F9002
:1016D0000895AF92BF92CF92DF92EF92FF920F9355
:1016E0001F930E945E107C0101E020E040E060E07A
:1016F00072E099270E94A40A0E9493205C010E9434
:1017000096208C0195014AED59E264E072E08E2D3D
:101710000E942C0B95014EE151E268E072E08E2DA3
:101720000E942C0B950145E251E26EE072E08E2D95
:101730000E942C0B95014AE351E263E172E08E2D89
:101740000E942C0B95014CE251E26AE172E08E2D71
:101750000E942C0B950147E858E060E272E08E2D64
:101760000E942C0B1F910F91FF90EF90DF90CF9074
:10177000BF90AF9008950F9301E020E040E066E253
:1017800072E080E090E00E94A40A0F910895809199
:101790005E0390915F03089590935F0380935E03CF
:1017A00008951F93162F05C068E170E00E94180885
:1017B000185099271830C0F7612F7727625F7F4F45
:1017C0000E94180899271F9108950F931F93CF9394
:1017D000DF938C01CEE0D0E0BE01C8010E94180862
:1017E000882319F081E090E006C02196C831D10528
:1017F00099F780E090E0DF91CF911F910F910895CC
:101800006FE170E00E94180899270895EF92FF9207
:101810000F931F93CF93DF937B01EC0100E010E067
:10182000B801C7010E9418088883882331F02196E7
:101830000F5F1F4F0C30110599F71882DF91CF9180
:101840001F910F91FF90EF9008950F931F93CF93E7
:10185000DF938C01CEE0D0E0BE01C8010E941808E1
:10186000882319F480E090E006C02196C831D105A4
:1018700099F781E090E0DF91CF911F910F9108954A
:10188000CF92DF92EF92FF920F931F93CF93DF934C
:10189000C82ED62EC0E0D0E08EE0E82EF12CEC0E63
:1018A000FD1E0C2D1127B701C8010E9418088D15C7
:1018B00031F440E0B701C8010E94D70704C0219667
:1018C000CA30D10549F7DF91CF911F910F91FF9059
:1018D000EF90DF90CF900895CF92DF92EF92FF923A
:1018E0000F931F93CF93DF93D82EC62EC0E0D0E086
:1018F0009EE0E92EF12CEC0EFD1E0D2D1127B701F7
:10190000C8010E941808882331F44C2DB701C80182
:101910000E94D70704C02196CA30D10549F7DF914C
:10192000CF911F910F91FF90EF90DF90CF9008958E
:10193000DF92EF92FF920F931F93CF93DF93D82EF6
:10194000C0E0D0E0ED2CFF248E01025F1F4FB801F4
:10195000C7010E941808882329F02196C830D105B4
:1019600039F0F0CF0E94720F482FB801C70118C09C
:1019700068E170E0C7010E941808D82E882301F79B
:101980000E945E10182F482F68E170E0C7010E9486
:10199000D7070E94720F482F6EE070E0812F9927C1
:1019A0000E94D707DF91CF911F910F91FF90EF9089
:1019B000DF9008950F931F93CF93DF938C01CEE0B8
:1019C000D0E0BE01C8010E941808882339F0992789
:1019D0000E94960F2196C631D10599F7DF91CF91DC
:1019E0001F910F910895CF92DF92EF92FF920F9384
:1019F0001F93CF93DF937C016B018A018AE090E013
:101A0000689FE001699FD00D789FD00D1124CF5DB4
:101A1000D94FEA824B836DE170E0C7010E94010853
:101A20009D838C830130110529F41E821F82188644
:101A3000198618C00230110581F00330110539F400
:101A4000AA27BB278E839F83A887B9871DC0043030
:101A5000110541F4C7010E94DA0C1E821F8218860C
:101A6000198612C00530110579F48AE090E0C89E0D
:101A7000F001C99EF00DD89EF00D1124EF5DF94FD5
:101A80001682178210861186DF91CF911F910F91D8
:101A9000FF90EF90DF90CF9008950E94880820E09B
:101AA00030E0019711F421E030E0C9010895CF92B0
:101AB000DF92EF92FF921F93CF93DF93EC016B01C4
:101AC0000E94EA450D97D4F4C6010E948808892B2C
:101AD000A9F0EE24FF241881B701C6010E9418085E
:101AE000181761F48881882361F00894E11CF11CC7
:101AF00021968CE0E816F10421F0EDCF81E090E032
:101B000002C080E090E0DF91CF911F91FF90EF90B5
:101B1000DF90CF900895AF92BF92CF92DF92FF9265
:101B20000F931F93CF93DF935C016B010EE010E0E6
:101B3000B801C6010E941808F82EC82FDD27BE0183
:101B4000C5010E94570D892B39F4CE010E948808E7
:101B5000882311F0FF2039F40F5F1F4F0831110562
:101B600039F7C0E0D0E0CE01DF91CF911F910F9106
:101B7000FF90DF90CF90BF90AF900895CF92DF920B
:101B8000EF92FF920F93CF93DF936C01EB010E94D2
:101B90008B0D181619061CF4EE24FF2414C0CE0178
:101BA0000E94250C813021F42FEFE22EF12C0BC086
:101BB0000E945E10E82EFF2402E02C2F40E0B601C8
:101BC000C7010E94A40AC701DF91CF910F91FF9036
:101BD000EF90DF90CF900895CF92DF92EF92FF9237
:101BE0000F93CF93DF936C01EB010E948B0D1816BE
:101BF00019061CF4EE24FF2414C0CE010E94250C0B
:101C0000813021F43FEFE32EF12C0BC00E945E10D7
:101C1000E82EFF2401E02C2F40E0B601C7010E940E
:101C2000A40AC701DF91CF910F91FF90EF90DF9051
:101C3000CF900895AF92BF92CF92DF92FF920F9311
:101C40001F93CF93DF935C016B010EE010E0B801AE
:101C5000C6010E941808F82EC82FDD27BE01C50155
:101C60000E94570D892B49F4CE010E9488088823D1
:101C700021F0FF2011F0992707C00F5F1F4F083197
:101C8000110529F780E090E0DF91CF911F910F912E
:101C9000FF90DF90CF90BF90AF900895CF92DF92EA
:101CA000EF92FF920F931F93CF93DF936C017B0111
:101CB0000EE010E0B801C7010E941808C82FDD2708
:101CC000BE01C6010E94570D892B39F00F5F1F4FCF
:101CD0000831110579F7CFEFDFEFCE01DF91CF911A
:101CE0001F910F91FF90EF90DF90CF9008958F920A
:101CF0009F92AF92BF92CF92DF92EF92FF920F939B
:101D00001F93CF93DF93CDB7DEB72D970FB6F8941F
:101D1000DEBF0FBECDBF6C014B01FC0191917F0175
:101D2000F601818100915E0310915F039E3279F488
:101D30008E3251F4C8010E94000C8C0142E0E42E66
:101D4000F12CEC0CFD1C35C08F3291F532C09F3266
:101D500021F4760100E010E02CC0892F81568A31F1
:101D600018F091549A3120F55E010894A11CB11C21
:101D7000B501C6010E9423087C01892B61F4B801DA
:101D8000C5010E941A0E009779F0F40191838083B7
:101D9000B801C5012BC0B801C5010E941A0E892BDC
:101DA000A9F1B801C5012EC0F4011182108230C022
:101DB0007601C8010E944D0D892B41F16E010894F6
:101DC000C11CD11CB601C7010E9423087C01FC0183
:101DD0008081882379F4B801C6010E941A0E009709
:101DE00019F3F40191838083B801C6010E944E0E5D
:101DF0008C010EC0B801C6010E941A0E892B31F069
:101E0000B801C6010E944E0E8C01D3CF0FEF1FEF19
:101E1000C8012D960FB6F894DEBF0FBECDBFDF917F
:101E2000CF911F910F91FF90EF90DF90CF90BF90D7
:101E3000AF909F908F9008950F931F93FC018B019B
:101E4000CB0168E070E00E940C53E60FF71F208181
:101E5000332727FD3095C80168E070E00E940C53DD
:101E600002C0359527958A95E2F7C9018170907077
:101E70001F910F910895CF93DF93EC01FB019A011D
:101E8000CB0168E070E00E940C53C60FD71F488159
:101E9000232B71F0CF0168E070E00E940C5321E029
:101EA00030E002C0220F331F8A95E2F7422B0EC0AA
:101EB000CF0168E070E00E940C5321E030E002C0E6
:101EC000220F331F8A95E2F7209542234883DF9142
:101ED000CF910895E0E6F3E0119283E0E038F8074F
:101EE000D9F708950F931F93CF93DF93C0E0D0E00D
:101EF000BE0180E693E00E941C0F8E010F5F1F4F12
:101F0000892B49F441E050E0BE0180E693E00E9455
:101F10003B0FC80106C0E8010050114049F78FEFA0
:101F20009FEFDF91CF911F910F910895019740E0AE
:101F300050E0BC0180E693E00E943B0F08950F93B0
:101F40001F93CF93DF9300E010E0C0E0D0E0BE012C
:101F500080E693E00E941C0F019711F40F5F1F4F62
:101F6000219681E0C030D80791F780E091E0801B96
:101F7000910BDF91CF911F910F91089508950F93C9
:101F80001F93CF93DF9380E090E0EC0121966DE00A
:101F900070E0CE010E941808182F6CE070E0CE01AE
:101FA0000E9418081130C9F48230B9F40EE010E034
:101FB000B801CE010E941808882351F0682F7727B6
:101FC0006150704041E050E080E693E00E943B0F9A
:101FD0000F5F1F4F0631110559F7CE01C036D105ED
:101FE000A1F6DF91CF911F910F91089540E653E044
:101FF00060E270E08EE49CE00E94F82F089540E6D5
:1020000053E060E270E08EE49CE00E94E62F0895C9
:102010000F931F93FC018B01CB0168E070E00E94DD
:102020000C53E60FF71F2081332727FD3095C80199
:1020300068E070E00E940C5302C0359527958A95A0
:10204000E2F7C901817090701F910F910895CF93AD
:10205000DF93EC01FB019A01CB0168E070E00E9484
:102060000C53C60FD71F4881232B71F0CF0168E0B6
:1020700070E00E940C5321E030E002C0220F331FB9
:102080008A95E2F7422B0EC0CF0168E070E00E9413
:102090000C5321E030E002C0220F331F8A95E2F793
:1020A000209542234883DF91CF910895E9E4F6E03B
:1020B000119286E0E535F807D9F708950F931F933D
:1020C000CF93DF93C0E0D0E0BE0189E496E00E94A8
:1020D00008108E010F5F1F4F892B49F441E050E03B
:1020E000BE0189E496E00E942710C80106C0E801FD
:1020F0000036110549F78FEF9FEFDF91CF911F91C8
:102100000F910895019740E050E0BC0189E496E00A
:102110000E94271008950F931F93CF93DF93C0E081
:10212000D0E000E010E0BE0189E496E00E940810D3
:10213000019711F40F5F1F4F2196C036D10599F713
:1021400080E690E0801B910BDF91CF911F910F9162
:1021500008950F931F93CF93DF93C0E0D0E08E01DB
:102160000F5F1F4F6DE070E0C8010E9418088823C0
:1021700019F440E050E002C041E050E0BE0189E4C3
:1021800096E00E942710E8010036110541F7DF9123
:10219000CF911F910F91089549E456E06CE070E0F3
:1021A00082E49CE00E94E62F089549E456E06CE04A
:1021B00070E082E49CE00E94F82F08951092C50020
:1021C0008FE08093C400E0ECF0E080818260808347
:1021D000E2ECF0E0808186608083E1ECF0E08081D9
:1021E0008869808381E0809380031092A20310921B
:1021F000A30308951F93182F80918003882311F45F
:102200000E94DE108091C00085FFFCCF1093C600B5
:102210001F9108951F93182F80918003882311F434
:102220000E94DE108091C00085FFFCCF1093C60095
:102230001F910895CF93DF93EC018CEF0E94FA1069
:1022400003C00E94FA10219688818823D1F78CEF71
:102250000E94FA10DF91CF9108950F931F93CF93AF
:10226000DF93EC01062F8CEF0E94FA1010E004C0FF
:1022700089910E94FA101F5F1017D1F78CEF0E940E
:10228000FA10DF91CF911F910F9108950F931F9333
:10229000CF93DF93EC01062F10E004C089910E94D8
:1022A0000A111F5F1017D1F7DF91CF911F910F9186
:1022B00008958A3010F0895A01C0805D0E94FA109A
:1022C0000895CF93DF93CDB7DEB724970FB6F89478
:1022D000DEBF0FBECDBF69837A838B839C838C81E5
:1022E0000E94FA108B810E94FA108A810E94FA10D3
:1022F00089810E94FA1024960FB6F894DEBF0FBEB3
:10230000CDBFDF91CF9108951F93182F82958F70C5
:102310000E945911812F8F700E9459111F910895A9
:10232000CF93DF93CDB7DEB724970FB6F894DEBF17
:102330000FBECDBF69837A838B839C838DEF0E9410
:10234000FA1069817A818B819C810E9461118DEFE5
:102350000E94FA1024960FB6F894DEBF0FBECDBFD0
:10236000DF91CF910895EF92FF920F931F937B011E
:102370008C018EEF0E94FA10C801B7010E94611112
:102380008EEF0E94FA101F910F91FF90EF90089529
:10239000CF93DF93CDB7DEB724970FB6F894DEBFA7
:1023A0000FBECDBF69837A838B839C8380E30E94B9
:1023B000FA1088E70E94FA108C810E9484118B81A8
:1023C0000E9484118A810E94841189810E94841153
:1023D00024960FB6F894DEBF0FBECDBFDF91CF912C
:1023E0000895AF92BF92CF92DF92EF92FF920F9338
:1023F0001F93CF93DF93CDB7DEB760970FB6F894F6
:10240000DEBF0FBECDBF69837A838B839C832D8310
:102410003E834F835887E986FA860B871C87AD86F3
:10242000BE86CF86D88A81E00E94FA1069817A81BF
:102430008B819C810E94C8116D817E818F819885DE
:102440000E94C81169857A858B859C850E94C81178
:102450006D857E858F8598890E94C81160960FB61C
:10246000F894DEBF0FBECDBFDF91CF911F910F91CA
:10247000FF90EF90DF90CF90BF90AF9008951F92A4
:102480000F920FB60F9211241F932F933F934F93E8
:102490005F936F937F938F939F93AF93BF93EF93CC
:1024A000FF938091C6008136A9F40E949C46282F94
:1024B00010E09EE18091C00087FFFCCF8091C600B4
:1024C000E12FFF27EF57FC4F80831F5F915097FF4D
:1024D000F1CF16C08C36E1F40E949C46282F10E004
:1024E0009EE38091C00087FFFCCF8091C600E12F62
:1024F000FF27EF57FC4F80831F5F915097FFF1CF6D
:10250000822F0E949946612F81E893E00E944552F4
:10251000FF91EF91BF91AF919F918F917F916F91BB
:102520005F914F913F912F911F910F900FBE0F9090
:102530001F901895000000000895889508957894DC
:102540000895F89408958FB7F894992708958FBF48
:102550000895E0E0F0E009950895789488950000EA
:1025600000000895CF93DF93CDB7DEB722970FB663
:10257000F894DEBF0FBECDBF0E949C4689830E94A7
:102580005A428A8389810E9499466A8185E60E941F
:10259000B2460E948A4122960FB6F894DEBF0FBE63
:1025A000CDBFDF91CF910895CF93DF93CDB7DEB745
:1025B00022970FB6F894DEBF0FBECDBF0E949C4697
:1025C00089830E945A428A8389810E9499466A813E
:1025D00086E60E94B2460E94962922960FB6F8948B
:1025E000DEBF0FBECDBFDF91CF910895CF93DF93B4
:1025F000CDB7DEB722970FB6F894DEBF0FBECDBFC2
:102600000E949C4689830E945A428A8389810E9443
:1026100099466A8187E60E94B2460E94C82922969E
:102620000FB6F894DEBF0FBECDBFDF91CF910895F6
:10263000CF93DF93CDB7DEB722970FB6F894DEBF06
:102640000FBECDBF0E9454429A83898389819A81AB
:10265000482F592F22960FB6F894DEBF0FBECDBF7C
:10266000DF91CF910895CF93DF93CDB7DEB7229757
:102670000FB6F894DEBF0FBECDBF0E949C46898383
:102680000E945A428A8389810E9499466A8188E61B
:102690000E94B2460E94181322960FB6F894DEBF2D
:1026A0000FBECDBFDF91CF910895CF93DF93CDB70C
:1026B000DEB722970FB6F894DEBF0FBECDBF0E94E3
:1026C000473F9A83898389819A81482F592F22967F
:1026D0000FB6F894DEBF0FBECDBFDF91CF91089546
:1026E000CF93DF93CDB7DEB722970FB6F894DEBF56
:1026F0000FBECDBF0E949C4689830E945A428A83A6
:1027000089810E9499466A8189E60E94B2460E94A8
:10271000551322960FB6F894DEBF0FBECDBFDF91E2
:10272000CF910895CF93DF93CDB7DEB722970FB641
:10273000F894DEBF0FBECDBF0E949C4689830E94E5
:102740005A428A8389810E9499466A818AE60E9458
:10275000B2460E94E23F22960FB6F894DEBF0FBE4B
:10276000CDBFDF91CF910895CF93DF93CDB7DEB783
:1027700022970FB6F894DEBF0FBECDBF842F952FE2
:102780009A83898389819A810E944E3F22960FB64F
:10279000F894DEBF0FBECDBFDF91CF910895CF93E8
:1027A000DF93CDB7DEB722970FB6F894DEBF0FBE2A
:1027B000CDBF0E949C4689830E945A428A838981A8
:1027C0000E9499466A818BE60E94B2460E94B41329
:1027D00022960FB6F894DEBF0FBECDBFDF91CF912A
:1027E0000895CF93DF93CDB7DEB722970FB6F89455
:1027F000DEBF0FBECDBF0E945A429A838983898172
:102800009A81482F592F22960FB6F894DEBF0FBE3B
:10281000CDBFDF91CF910895CF93DF93CDB7DEB7D2
:1028200022970FB6F894DEBF0FBECDBF0E949C4624
:1028300089830E945A428A8389810E9499466A81CB
:102840008CE60E94B2460E94F11322960FB6F894CD
:10285000DEBF0FBECDBFDF91CF910895CF93DF9341
:10286000CDB7DEB722970FB6F894DEBF0FBECDBF4F
:102870000E9493009A83898389819A81482F592FD6
:1028800022960FB6F894DEBF0FBECDBFDF91CF9179
:102890000895CF93DF93CDB7DEB722970FB6F894A4
:1028A000DEBF0FBECDBF0E949C4689830E945A4264
:1028B0008A8389810E9499466A818DE60E94B24688
:1028C0000E942E1422960FB6F894DEBF0FBECDBF25
:1028D000DF91CF910895CF93DF93CDB7DEB72297E5
:1028E0000FB6F894DEBF0FBECDBF0E9496009A834C
:1028F000898389819A81482F592F22960FB6F8949F
:10290000DEBF0FBECDBFDF91CF910895CF93DF9390
:10291000CDB7DEB722970FB6F894DEBF0FBECDBF9E
:102920000E949C4689830E945A428A8389810E9420
:1029300099466A818EE60E94B2460E946B142296E6
:102940000FB6F894DEBF0FBECDBFDF91CF910895D3
:10295000CF93DF93CDB7DEB722970FB6F894DEBFE3
:102960000FBECDBF0E9490009A83898389819A818E
:10297000482F592F22960FB6F894DEBF0FBECDBF59
:10298000DF91CF910895CF93DF93CDB7DEB7229734
:102990000FB6F894DEBF0FBECDBF0E949C46898360
:1029A0000E945A428A8389810E9499466A818FE6F1
:1029B0000E94B2460E94A81422960FB6F894DEBF79
:1029C0000FBECDBFDF91CF910895CF93DF93CDB7E9
:1029D000DEB722970FB6F894DEBF0FBECDBF0E94C0
:1029E0009C4689830E945A428A8389810E94994623
:1029F0006A8180E70E94B2460E94FE0022960FB6CE
:102A0000F894DEBF0FBECDBFDF91CF910895CF9375
:102A1000DF93CDB7DEB722970FB6F894DEBF0FBEB7
:102A2000CDBF0E949C4689830E945A428A83898135
:102A30000E9499466A8181E70E94B2460E94EE0098
:102A400022960FB6F894DEBF0FBECDBFDF91CF91B7
:102A50000895CF93DF93CDB7DEB722970FB6F894E2
:102A6000DEBF0FBECDBF0E949C4689830E945A42A2
:102A70008A8389810E9499466A8182E70E94B246D0
:102A80000E94D20022960FB6F894DEBF0FBECDBFD3
:102A9000DF91CF910895CF93DF93CDB7DEB7229723
:102AA0000FB6F894DEBF0FBECDBF0E949C4689834F
:102AB0000E945A428A8389810E9499466A8183E7EB
:102AC0000E94B2460E94B60022960FB6F894DEBF6E
:102AD0000FBECDBFDF91CF910895CF93DF93CDB7D8
:102AE000DEB722970FB6F894DEBF0FBECDBF0E94AF
:102AF0009C4689830E945A428A8389810E94994612
:102B00006A8184E70E94B2460E94990022960FB61D
:102B1000F894DEBF0FBECDBFDF91CF910895CF9364
:102B2000DF93CDB7DEB722970FB6F894DEBF0FBEA6
:102B3000CDBF0E949C4689830E945A428A83898124
:102B40000E9499466A8185E70E94B2460E947521DB
:102B500022960FB6F894DEBF0FBECDBFDF91CF91A6
:102B60000895CF93DF93CDB7DEB722970FB6F894D1
:102B7000DEBF0FBECDBF0E949C4689830E945A4291
:102B80008A8389810E9499466A8186E70E94B246BB
:102B90000E946C2122960FB6F894DEBF0FBECDBF07
:102BA000DF91CF910895CF93DF93CDB7DEB7229712
:102BB0000FB6F894DEBF0FBECDBF0E949C4689833E
:102BC0000E945A428A8389810E9499466A8187E7D6
:102BD0000E94B2460E94632122960FB6F894DEBF8F
:102BE0000FBECDBFDF91CF910895CF93DF93CDB7C7
:102BF000DEB722970FB6F894DEBF0FBECDBF0E949E
:102C00009C4689830E945A428A8389810E94994600
:102C10006A8188E70E94B2460E945A2122960FB626
:102C2000F894DEBF0FBECDBFDF91CF910895CF9353
:102C3000DF93CDB7DEB722970FB6F894DEBF0FBE95
:102C4000CDBF0E949C4689830E945A428A83898113
:102C50000E9499466A8189E70E94B2460E945121EA
:102C600022960FB6F894DEBF0FBECDBFDF91CF9195
:102C70000895CF93DF93CDB7DEB722970FB6F894C0
:102C8000DEBF0FBECDBF0E949C4689830E945A4280
:102C90008A8389810E9499466A818AE70E94B246A6
:102CA0000E94482122960FB6F894DEBF0FBECDBF1A
:102CB000DF91CF910895CF93DF93CDB7DEB72497FF
:102CC0000FB6F894DEBF0FBECDBF842F952F9C8327
:102CD0008B83862F972F9A83898329818B819C816F
:102CE000622F0E94A13E24960FB6F894DEBF0FBE5D
:102CF000CDBFDF91CF910895CF93DF93CDB7DEB7EE
:102D000022970FB6F894DEBF0FBECDBF0E949C463F
:102D100089830E945A428A8389810E9499466A81E6
:102D20008BE70E94B2460E945B1622960FB6F8947B
:102D3000DEBF0FBECDBFDF91CF910895CF93DF935C
:102D4000CDB7DEB722970FB6F894DEBF0FBECDBF6A
:102D50000E94413F9A83898389819A81482F592F04
:102D600022960FB6F894DEBF0FBECDBFDF91CF9194
:102D70000895CF93DF93CDB7DEB722970FB6F894BF
:102D8000DEBF0FBECDBF0E949C4689830E945A427F
:102D90008A8389810E9499466A818CE70E94B246A3
:102DA0000E949E1622960FB6F894DEBF0FBECDBFCE
:102DB000DF91CF910895CF93DF93CDB7DEB7229700
:102DC0000FB6F894DEBF0FBECDBF0E94AA3D9A8316
:102DD000898389819A81482F592F22960FB6F894BA
:102DE000DEBF0FBECDBFDF91CF910895CF93DF93AC
:102DF000CDB7DEB722970FB6F894DEBF0FBECDBFBA
:102E00000E949C4689830E945A428A8389810E943B
:102E100099466A818DE70E94B2460E94DB1622968F
:102E20000FB6F894DEBF0FBECDBFDF91CF910895EE
:102E3000CF93DF93CDB7DEB722970FB6F894DEBFFE
:102E40000FBECDBF0E949C4689830E945A428A834E
:102E500089810E9499466A818EE70E94B2460E944B
:102E6000E13D22960FB6F894DEBF0FBECDBFDF91D5
:102E7000CF910895CF93DF93CDB7DEB722970FB6EA
:102E8000F894DEBF0FBECDBF0E949C4689830E948E
:102E90005A428A8389810E9499466A818FE70E94FB
:102EA000B2460E94004322960FB6F894DEBF0FBED2
:102EB000CDBFDF91CF910895CF93DF93CDB7DEB72C
:102EC000882D992D90935806809357068091570628
:102ED00090915806029690935806809357068A2D33
:102EE0009B2D90935806809357068091570690919A
:102EF0005806029690935806809357068C2D9D2D68
:102F000090935806809357068091570690915806E3
:102F100002969093580680935706DF91CF910895BB
:102F2000CF93DF93CDB7DEB722970FB6F894DEBF0D
:102F30000FBECDBF0E949C4689830E945A428A835D
:102F400089810E9499466A8180E80E94B2460E9467
:102F50005C1722960FB6F894DEBF0FBECDBFDF918F
:102F6000CF910895CF93DF93CDB7DEB722970FB6F9
:102F7000F894DEBF0FBECDBF0E949C4689830E949D
:102F80005A428A8389810E9499466A8181E80E9417
:102F9000B2460E94642922960FB6F894DEBF0FBE97
:102FA000CDBFDF91CF910895CF93DF93CDB7DEB73B
:102FB00022970FB6F894DEBF0FBECDBF0E949C468D
:102FC00089830E945A428A8389810E9499466A8134
:102FD00082E80E94B2460E94B82922960FB6F89461
:102FE000DEBF0FBECDBFDF91CF910895CF93DF93AA
:102FF000CDB7DEB722970FB6F894DEBF0FBECDBFB8
:103000000E949C4689830E945A428A8389810E9439
:1030100099466A8183E80E94B2460E94A8292296B6
:103020000FB6F894DEBF0FBECDBFDF91CF910895EC
:10303000CF93DF93CDB7DEB722970FB6F894DEBFFC
:103040000FBECDBF0E949C4689830E945A428A834C
:1030500089810E9499466A8184E80E94B2460E9452
:10306000542922960FB6F894DEBF0FBECDBFDF9174
:10307000CF910895CF93DF93CDB7DEB722970FB6E8
:10308000F894DEBF0FBECDBF0E949C4689830E948C
:103090005A428A8389810E9499466A8185E80E9402
:1030A000B2460E94442922960FB6F894DEBF0FBEA6
:1030B000CDBFDF91CF910895CF93DF93CDB7DEB72A
:1030C00022970FB6F894DEBF0FBECDBF0E949C467C
:1030D00089830E945A428A8389810E9499466A8123
:1030E00086E80E94B2460E94862922960FB6F8947E
:1030F000DEBF0FBECDBFDF91CF910895CF93DF9399
:10310000CDB7DEB722970FB6F894DEBF0FBECDBFA6
:103110000E949C4689830E945A428A8389810E9428
:1031200099466A8187E80E94B2460E9476292296D3
:103130000FB6F894DEBF0FBECDBFDF91CF910895DB
:10314000CF93DF93CDB7DEB722970FB6F894DEBFEB
:103150000FBECDBF0E949C4689830E945A428A833B
:1031600089810E9499466A8188E80E94B2460E943D
:10317000724222960FB6F894DEBF0FBECDBFDF912C
:10318000CF910895CF93DF93CDB7DEB722970FB6D7
:10319000F894DEBF0FBECDBF0E944A3F9A83898359
:1031A00089819A81482F592F22960FB6F894DEBF55
:1031B0000FBECDBFDF91CF910895CF93DF93CDB7F1
:1031C000DEB722970FB6F894DEBF0FBECDBF0E94C8
:1031D0009C4689830E945A428A8389810E9499462B
:1031E0006A8189E80E94B2460E94C21822960FB6F0
:1031F000F894DEBF0FBECDBFDF91CF910895CF937E
:10320000DF93CDB7DEB722970FB6F894DEBF0FBEBF
:10321000CDBF0E94443F9A83898389819A81482F38
:10322000592F22960FB6F894DEBF0FBECDBFDF91A7
:10323000CF910895CF93DF93CDB7DEB722970FB626
:10324000F894DEBF0FBECDBF0E949C4689830E94CA
:103250005A428A8389810E9499466A818AE80E943B
:10326000B2460E94FF1822960FB6F894DEBF0FBE3A
:10327000CDBFDF91CF910895CF93DF93CDB7DEB768
:1032800022970FB6F894DEBF0FBECDBF0E949C46BA
:1032900089830E945A428A8389810E9499466A8161
:1032A0008BE80E94B2460E94D33F22960FB6F89454
:1032B000DEBF0FBECDBFDF91CF910895CF93DF93D7
:1032C000CDB7DEB722970FB6F894DEBF0FBECDBFE5
:1032D0000E9472409A83898389819A81482F592F4D
:1032E00022960FB6F894DEBF0FBECDBFDF91CF910F
:1032F0000895CF93DF93CDB7DEB722970FB6F8943A
:10330000DEBF0FBECDBF0E949C4689830E945A42F9
:103310008A8389810E9499466A818CE80E94B2461C
:103320000E945E1922960FB6F894DEBF0FBECDBF85
:10333000DF91CF910895CF93DF93CDB7DEB722977A
:103340000FB6F894DEBF0FBECDBF0E949C468983A6
:103350000E945A428A8389810E9499466A818DE837
:103360000E94B2460E949B4022960FB6F894DEBFA0
:103370000FBECDBFDF91CF910895CF93DF93CDB72F
:10338000DEB722970FB6F894DEBF0FBECDBF0E9406
:10339000B82F9A83898389819A81482F592F229641
:1033A0000FB6F894DEBF0FBECDBFDF91CF91089569
:1033B000CF93DF93CDB7DEB722970FB6F894DEBF79
:1033C0000FBECDBF0E949C4689830E945A428A83C9
:1033D00089810E9499466A818EE80E94B2460E94C5
:1033E000BD1922960FB6F894DEBF0FBECDBFDF9198
:1033F000CF910895CF93DF93CDB7DEB70E94FB2F17
:10340000DF91CF910895CF93DF93CDB7DEB72297A9
:103410000FB6F894DEBF0FBECDBF0E949C468983D5
:103420000E945A428A8389810E9499466A818FE864
:103430000E94B2460E94FA1922960FB6F894DEBF97
:103440000FBECDBFDF91CF910895CF93DF93CDB75E
:10345000DEB70E94E92FDF91CF910895CF93DF93DC
:10346000CDB7DEB722970FB6F894DEBF0FBECDBF43
:103470000E949C4689830E945A428A8389810E94C5
:1034800099466A8180E90E94B2460E94251A2296D6
:103490000FB6F894DEBF0FBECDBFDF91CF91089578
:1034A000CF93DF93CDB7DEB7DF91CF910895CF9360
:1034B000DF93CDB7DEB722970FB6F894DEBF0FBE0D
:1034C000CDBF0E949C4689830E945A428A8389818B
:1034D0000E9499466A8181E90E94B2460E94501A70
:1034E00022960FB6F894DEBF0FBECDBFDF91CF910D
:1034F0000895CF93DF93CDB7DEB7DF91CF910895D5
:10350000CF93DF93CDB7DEB722970FB6F894DEBF27
:103510000FBECDBF0E949C4689830E945A428A8377
:1035200089810E9499466A8182E90E94B2460E947E
:10353000791A22960FB6F894DEBF0FBECDBFDF9189
:10354000CF910895CF93DF93CDB7DEB722970FB613
:10355000F894DEBF0FBECDBF0E949C4689830E94B7
:103560005A428A8389810E9499466A8183E90E942E
:10357000B2460E94EF2E22960FB6F894DEBF0FBE21
:10358000CDBFDF91CF910895CF93DF93CDB7DEB755
:1035900022970FB6F894DEBF0FBECDBF0E94D4466F
:1035A0009A83898389819A81482F592F22960FB651
:1035B000F894DEBF0FBECDBFDF91CF910895CF93BA
:1035C000DF93CDB7DEB722970FB6F894DEBF0FBEFC
:1035D000CDBF0E949C4689830E945A428A8389817A
:1035E0000E9499466A8184E90E94B2460E94C41AE8
:1035F00022960FB6F894DEBF0FBECDBFDF91CF91FC
:103600000895CF93DF93CDB7DEB722970FB6F89426
:10361000DEBF0FBECDBF0E949C4689830E945A42E6
:103620008A8389810E9499466A8185E90E94B2460F
:1036300022960FB6F894DEBF0FBECDBFDF91CF91BB
:103640000895CF93DF93CDB7DEB722970FB6F894E6
:10365000DEBF0FBECDBF0E949C4689830E945A42A6
:103660008A8389810E9499466A8186E90E94B246CE
:1036700022960FB6F894DEBF0FBECDBFDF91CF917B
:103680000895CF93DF93CDB7DEB722970FB6F894A6
:10369000DEBF0FBECDBF0E949C4689830E945A4266
:1036A0008A8389810E9499466A8187E90E94B2468D
:1036B00022960FB6F894DEBF0FBECDBFDF91CF913B
:1036C0000895CF93DF93CDB7DEB722970FB6F89466
:1036D000DEBF0FBECDBF0E949F3D9A838983898143
:1036E0009A81482F592F22960FB6F894DEBF0FBE4D
:1036F000CDBFDF91CF910895CF93DF93CDB7DEB7E4
:1037000022970FB6F894DEBF0FBECDBF0E949C4635
:1037100089830E945A428A8389810E9499466A81DC
:1037200088E90E94B2460E94611B22960FB6F89467
:10373000DEBF0FBECDBFDF91CF910895CF93DF9352
:10374000CDB7DEB722970FB6F894DEBF0FBECDBF60
:10375000842F952F9A83898389819A810E94A43D21
:1037600022960FB6F894DEBF0FBECDBFDF91CF918A
:103770000895CF93DF93CDB7DEB722970FB6F894B5
:10378000DEBF0FBECDBF0E949C4689830E945A4275
:103790008A8389810E9499466A8189E90E94B2469A
:1037A0000E949E1B22960FB6F894DEBF0FBECDBFBF
:1037B000DF91CF910895CF93DF93CDB7DEB72297F6
:1037C0000FB6F894DEBF0FBECDBF0E9426419A838C
:1037D000898389819A81482F592F22960FB6F894B0
:1037E000DEBF0FBECDBFDF91CF910895CF93DF93A2
:1037F000CDB7DEB722970FB6F894DEBF0FBECDBFB0
:103800000E949C4689830E945A428A8389810E9431
:1038100099466A818AE90E94B2460E94DB1B229681
:103820000FB6F894DEBF0FBECDBFDF91CF910895E4
:10383000CF93DF93CDB7DEB722970FB6F894DEBFF4
:103840000FBECDBF0E9429419A83898389819A81C5
:10385000482F592F22960FB6F894DEBF0FBECDBF6A
:10386000DF91CF910895CF93DF93CDB7DEB7229745
:103870000FB6F894DEBF0FBECDBF0E949C46898371
:103880000E945A428A8389810E9499466A818AE904
:103890000E94B2460E94181C22960FB6F894DEBF12
:1038A0000FBECDBFDF91CF910895CF93DF93CDB7FA
:1038B000DEB722970FB6F894DEBF0FBECDBF0E94D1
:1038C0009C4689830E945A428A8389810E94994634
:1038D0006A818CE90E94B2460E945D4322960FB62F
:1038E000F894DEBF0FBECDBFDF91CF910895CF9387
:1038F000DF93CDB7DEB722970FB6F894DEBF0FBEC9
:10390000CDBF0E94D1469A83898389819A81482FAD
:10391000592F22960FB6F894DEBF0FBECDBFDF91B0
:10392000CF910895CF93DF93CDB7DEB724970FB62D
:10393000F894DEBF0FBECDBF842F952F9C838B8361
:10394000862F972F9A83898329818B819C81622F6F
:103950000E94A1F324960FB6F894DEBF0FBECDBF30
:10396000DF91CF910895CF93DF93CDB7DEB7249742
:103970000FB6F894DEBF0FBECDBF842F952F9C836A
:103980008B83862F972F9A83898329818B819C81B2
:10399000622F0E94E9F224960FB6F894DEBF0FBEA4
:1039A000CDBFDF91CF910895CF93DF93CDB7DEB731
:1039B00023970FB6F894DEBF0FBECDBF842F952F8F
:1039C0009B838A830E945A4289838A819B81BC019E
:1039D00089810E942C4123960FB6F894DEBF0FBE5A
:1039E000CDBFDF91CF910895CF93DF93CDB7DEB7F1
:1039F00027970FB6F894DEBF0FBECDBF822F932F4F
:103A00009C838B83842F952F9A838983862F972F6E
:103A10009F838E830E945A428D838E819F8149812C
:103A20005A816B817C819C018D810E94553D279636
:103A30000FB6F894DEBF0FBECDBFDF91CF910895D2
:103A4000CF93DF93CDB7DEB722970FB6F894DEBFE2
:103A50000FBECDBF0E9457429A83898389819A8184
:103A6000482F592F22960FB6F894DEBF0FBECDBF58
:103A7000DF91CF910895CF93DF93CDB7DEB726972F
:103A80000FB6F894DEBF0FBECDBF842F952F9E8357
:103A90008D83862F972F9C838B83822F932F9A83DE
:103AA00089838DB79EB79093560680935506809173
:103AB0000C0A90910D0A9EBF8DBF6B8189819A81FE
:103AC0002D813E81AC01C9010E94CCF18DB79EB71A
:103AD00090930D0A80930C0A80915506909156069A
:103AE0009EBF8DBF26960FB6F894DEBF0FBECDBF2A
:103AF000DF91CF910895CF93DF93CDB7DEB72697AF
:103B00000FB6F894DEBF0FBECDBF842F952F9E83D6
:103B10008D83862F972F9C838B83822F932F9A835D
:103B200089838DB79EB790935606809355068091F2
:103B30000C0A90910D0A9EBF8DBF6B8189819A817D
:103B40002D813E81AC01C9010E9410F18DB79EB755
:103B500090930D0A80930C0A809155069091560619
:103B60009EBF8DBF26960FB6F894DEBF0FBECDBFA9
:103B7000DF91CF910895CF93DF93CDB7DEB7229732
:103B80000FB6F894DEBF0FBECDBF0E949C4689835E
:103B90000E945A428A8389810E9499466A818DE9EE
:103BA0000E94B2460E94EF4622960FB6F894DEBFFE
:103BB0000FBECDBFDF91CF910895CF93DF93CDB7E7
:103BC000DEB722970FB6F894DEBF0FBECDBF0E94BE
:103BD0009C4689830E945A428A8389810E94994621
:103BE0006A818EE90E94B2460E94E24622960FB692
:103BF000F894DEBF0FBECDBFDF91CF910895982F0F
:103C0000809159068F3019F48FEF80935906E09117
:103C10005906EF5FE093590680915E068F5F8093AF
:103C20005E06FF27EE59F94F9083089581E090E0FA
:103C3000089590915E06992319F480E190E008952B
:103C4000809176068F3019F48FEF80937606E0919D
:103C50007606EF5FE0937606915090935E06FF271D
:103C6000EE59F94F80819927089581E090E00895F9
:103C70000E94C45008950E94C050992708950E9440
:103C8000BC5099270895FF920F931F930E949C4662
:103C9000F82E8091730690917406892B29F46CE0BC
:103CA00083ED9EE10E94A13E00917306109174067F
:103CB0000E943B1E0F5F1F4F080F111D10937406CB
:103CC000009373068F2D0E94994681E090E01F912A
:103CD0000F91FF9008959F92AF92BF92CF92DF9283
:103CE000EF92FF920F931F93E0905A06F0905B06BD
:103CF00000915C0610915D06E114F10401051105C7
:103D0000D9F196EE992E60E070E0ECE7F6E081E004
:103D1000A82EB12CC12CD12CD601C501062E04C071
:103D2000880F991FAA1FBB1F0A94D2F78E219F21CB
:103D3000A023B1230097A105B10571F02081318145
:103D400042815381892D9927AA27BB272817390734
:103D50004A075B070CF4922E6F5F7F4F39966031F4
:103D60007105D1F60E949C46182F0E943F1E8D5F60
:103D7000891530F4892D04C00E949C46182F86EEC8
:103D8000809360060E94381E10926106812F0E9467
:103D900099461F910F91FF90EF90DF90CF90BF90C9
:103DA000AF909F9008959F92AF92BF92CF92DF9273
:103DB000EF92FF920F931F93CF93DF9381E0809355
:103DC00061060E949C46A0907306B0907406109203
:103DD0007406109273060E94994680915A0690913B
:103DE0005B06A0915C06B0915D060097A105B10548
:103DF00009F482C0C7E7D6E0CC24DD249C2C21E066
:103E0000E22EF12C012D112D0C2C04C0EE0CFF1C08
:103E1000001F111F0A94D2F780915A0690915B06F9
:103E2000A0915C06B0915D068E219F21A023B12355
:103E30000097A105B10509F456C08D819E81AF811F
:103E4000B885950144275527821B930BA40BB50B0E
:103E50008D839E83AF83B8870397A105B1050CF0CE
:103E600042C067E08CE690E20E94A13E882391F177
:103E70008881882389F48D819E81AF81B8852981CD
:103E80003A814B815C81820F931FA41FB51F8D83E4
:103E90009E83AF83B8871AC0A801970120953095FB
:103EA0004095509580915A0690915B06A0915C06D2
:103EB000B0915D0682239323A423B52380935A06F1
:103EC00090935B06A0935C06B0935D06892D0E94DB
:103ED000FF1D09C0809160069927AA27BB278D8303
:103EE0009E83AF83B8870894C11CD11C299680E1BA
:103EF000C816D10409F082CF0E949C460091730637
:103F0000109174060E949946012B11F40E946B1EB9
:103F1000DF91CF911F910F91FF90EF90DF90CF90A5
:103F2000BF90AF909F9008959F92AF92BF92CF9213
:103F3000DF92EF92FF920F931F9359016A01803134
:103F400008F061C062300CF05EC0662331F42330AB
:103F500031054105510508F456C0E82EFF248701BC
:103F600033E0000F111F3A95E1F70E0D1F1D0958A0
:103F7000194FF801A182B282C382D48260830E9469
:103F80009C46982E0E943F1EA80EB11CC11CD11C3D
:103F9000F801A582B682C782D08621E030E040E0F9
:103FA00050E004C0220F331F441F551FEA94D2F77C
:103FB00080915A0690915B06A0915C06B0915D06D7
:103FC000822B932BA42BB52B80935A0690935B06E0
:103FD000A0935C06B0935D06809160069927AA279E
:103FE000BB27A816B906CA06DB0638F4A0926006FD
:103FF0008A2D0E94381E10926106892D0E949946D2
:1040000081E090E002C080E090E01F910F91FF906E
:10401000EF90DF90CF90BF90AF909F900895EF9278
:10402000FF920F931F93813108F04AC041E0E42EC4
:10403000F12C012D112D04C0EE0CFF1C001F111FCF
:104040008A95D2F780915A0690915B06A0915C0602
:10405000B0915D068E219F21A023B1230097A10579
:10406000B10571F10E949C46E094F0940095109582
:1040700020915A0630915B0640915C0650915D0696
:104080002E213F214023512320935A0630935B0673
:1040900040935C0650935D060E94994680915A06B3
:1040A00090915B06A0915C06B0915D060097A1051A
:1040B000B10519F481E08093610681E090E002C0CF
:1040C00080E090E01F910F91FF90EF9008950E9483
:1040D000163D81E090E008950E94191E803110F491
:1040E0000E94672008950E940C519927089510920C
:1040F0005A0610925B0610925C0610925D061092B2
:1041000061068FEF809359068093760610925E06C3
:1041100083E080935F0686EE8093600663E00E94F2
:1041200073209927089588EA95E0089584EB95E037
:1041300008951F920F920FB60F9211248F93EF9351
:10414000FF93EAE7F0E080818061808380818F7750
:104150008083FF91EF918F910F900FBE0F901F9072
:10416000189510927C008EE080937A00089510924A
:104170007C0090917C008F71982B90937C008091B3
:104180007A00877F80937A0080917A0080618093A3
:104190007A0080917A00806C80937A0080917A0016
:1041A00086FDFCCF8091780099272091790040917D
:1041B0007A004F7740937A00332723703070322F84
:1041C0002227822B932B089576986E98759A6D9A74
:1041D00081E090E00E94B72075986D9808957598D9
:1041E0006D98769A6E9A81E090E00E94B72076985A
:1041F0006E9808953D9A459A85E090E00E94B72018
:104200003D98459808953D9A459A86E090E00E9431
:10421000B7203D98459808953C9A449A83E090E0F1
:104220000E94B7203C98449808953C9A449A84E0B0
:1042300090E00E94B7203C98449808950E94E420A2
:104240009093B5058093B40508950E94EF20909354
:10425000B5058093B40508950E940C219093B5058F
:104260008093B40508950E9415219093B50580931D
:10427000B40508950E94FA209093B5058093B40583
:1042800008950E9403219093B5058093B405089585
:104290000E941521E091170AF091180A948F838FDC
:1042A00008950E940C21E091170AF091180A948F4A
:1042B000838F08950E940321E091170AF091180A54
:1042C000948F838F08950E94FA20E091170AF0914D
:1042D000180A948F838F08950E94EF20E091170AA7
:1042E000F091180A948F838F08950E94E420E09142
:1042F000170AF091180A948F838F08958FB7F89456
:104300000B9A139A5D98559A5A9852985B9A539AB9
:104310008FBF1092B6051092B7051092B805109293
:10432000B90521E02093BA0580E098E09093BC05A0
:104330008093BB051092BD052093BE0580E49CE9E7
:104340000197F1F708958FB7F8945D9813988FBF90
:1043500008952FB7F8949BB1977D9BB980E05D9A43
:104360004A9980689BB95D9A4A9980649BB95D9A25
:104370004A9980629BB95D9A4A9980619BB95D9A1E
:104380004A9988609BB95D9A4A9984609BB95D9A05
:104390004A9982609BB95D9A4A9981602FBF99279B
:1043A0000895982F3FB7F8942BB1277D2BB980E063
:1043B00097FD5B9A5D9A2BB996FD5B9A5D9A2BB936
:1043C00095FD5B9A5D9A2BB994FD5B9A5D9A2BB92A
:1043D00093FD5B9A5D9A2BB992FD5B9A5D9A2BB91E
:1043E00091FD5B9A5D9A2BB990FD5B9A5D9A3FBFF8
:1043F00099270895CF92DF92EF92FF920F931F9328
:10440000CF93DF93CDB7DEB724970FB6F894DEBF16
:104410000FBECDBF7A016901813011F484E801C07B
:1044200087E889831A82872F99278B836C830E9460
:10443000A3218E010F5F1F4FF80181918F010E9410
:10444000D121CE01059608171907B1F700E010E059
:1044500007C0F70181917F010E94D1210F5F1F4F9B
:104460000C151D05B1F7139A81E090E024960FB664
:10447000F894DEBF0FBECDBFDF91CF911F910F919A
:10448000FF90EF90DF90CF9008950F931F93CF93FD
:10449000DF93CDB7DEB724970FB6F894DEBF0FBE1B
:1044A000CDBF813011F483E801C086E88983CB0158
:1044B000880F892F881F990B91958A83862F880FE3
:1044C0008B831C820E94A3218E010F5F1F4FF80176
:1044D00081918F010E94D121CE01059608171907FD
:1044E000B1F7139A81E090E024960FB6F894DEBFFE
:1044F0000FBECDBFDF91CF911F910F91089580E046
:1045000091E0089580E098E00895FF920F931F9343
:104510000E949C46F82E0E94A32187ED0E94D12183
:104520000E94A921082F139A8F2D0E9499461127C6
:1045300007FD1095009510950027110F001F1127FA
:10454000C8011F910F91FF900895FF920F931F9341
:10455000CF93DF93CDB7DEB724970FB6F894DEBFC5
:104560000FBECDBFF82E8B010E9485228823E1F774
:104570006091BB057091BC058091BA050E944522EF
:104580000E9485228823E1F781E0F81611F483E583
:1045900001C085E58983C801880F892F881F990B81
:1045A00091958A83802F880F8B831C820E94A32180
:1045B0008E010F5F1F4FF80181918F010E94D12161
:1045C000CE01059608171907B1F7139A81E090E01C
:1045D00024960FB6F894DEBF0FBECDBFDF91CF910A
:1045E0001F910F91FF9008954F925F926F927F926B
:1045F0008F929F92AF92BF92CF92DF92EF92FF92F3
:104600000F931F93CF93DF93CDB7DEB728970FB6E5
:10461000F894DEBF0FBECDBF2B013C01E090B60584
:10462000F090B7050091B8051091B905C801B70120
:1046300028E031E040E050E00E941F536901C801CA
:10464000B70128E031E040E050E00E941F534B01E9
:104650008091BD05882389F1A090BB05B090BC0571
:10466000AC14BD0450F1760100271127B40188274E
:104670009927640D751D861D971D28E031E040E0E7
:1046800050E00E941F53E20EF31E041F151FC501C8
:10469000AA27BB27E816F9060A071B0770F00E9435
:1046A00085228823E1F76091BB057091BC0580915C
:1046B000BA050E9445221092BD050E9485228823DA
:1046C000E1F788EE8983C601880F892F881F990B2F
:1046D00091958A832C2D220F892D9927282B2B83A6
:1046E0008C821D821E821F8218860E94A3218E0149
:1046F0000F5F1F4FF80181918F010E94D121CE01E0
:10470000099608171907B1F70FEF1FEFCC24DD2426
:1047100076011FC00E94A921582F40E890E061E275
:1047200070E19801220F331F852F842311F02F5F32
:104730003F4F17FF02C0262737279F5F983019F099
:1047400046958901EECF0894C11CD11CE11CF11CD7
:104750008901C414D504E604F704E1F620E041E23F
:1047600050E1C801880F991F17FF07C08C0104276B
:1047700015272F5F203119F0F4CF8C01FACF139A4F
:10478000C80128960FB6F894DEBF0FBECDBFDF91EB
:10479000CF911F910F91FF90EF90DF90CF90BF903E
:1047A000AF909F908F907F906F905F904F90089503
:1047B0006F927F928F929F92AF92BF92CF92DF9231
:1047C000EF92FF920F931F93CF93DF93CDB7DEB796
:1047D00024970FB6F894DEBF0FBECDBF3C015B013E
:1047E0008091BD05882371F00E9485228823E1F71E
:1047F0006091BB057091BC058091BA050E9445226D
:104800001092BD050E9485228823E1F7882499240F
:1048100083C0E090B605F090B7050091B8051091FF
:10482000B905C801B70128E031E040E050E00E943E
:104830001F536901C801B70128E031E040E050E0B2
:104840000E941F538B01C501800F911F8950914019
:1048500010F4750106C088E0E82E81E0F82EE01A19
:10486000F10A88E0E81681E0F80640F4B60181E03C
:104870000E94A5220E9485228823E1F7A301480D0A
:10488000591D9701B80181E00E94FA2180E68983D1
:10489000C601880F892F881F990B91958A838C2DCB
:1048A000880F8B831C820E94A3218E010F5F1F4FF4
:1048B000F80181918F010E94D121CE010596081740
:1048C0001907B1F7139A0E94A32187ED0E94D12105
:1048D0000E94A921139A87FDF6CF86FF02C061E0EE
:1048E00020C08E0C9F1C9701442755278091B60548
:1048F0009091B705A091B805B091B905820F931FAB
:10490000A41FB51F8093B6059093B705A093B80573
:10491000B093B905AE18BF08A114B10409F079CF5E
:1049200060E09501442755278091B6059091B70521
:10493000A091B805B091B905820F931FA41FB51FB0
:104940008093B6059093B705A093B805B093B905C9
:10495000862F992724960FB6F894DEBF0FBECDBFE1
:10496000DF91CF911F910F91FF90EF90DF90CF904B
:10497000BF90AF909F908F907F906F9008954F92CF
:104980005F926F927F928F929F92AF92BF92CF92DF
:10499000DF92EF92FF920F931F93CF93DF93CDB7E8
:1049A000DEB724970FB6F894DEBF0FBECDBF2C0143
:1049B0004B01E090B605F090B7050091B805109155
:1049C000B905C801B70128E031E040E050E00E949D
:1049D0001F536901C801B70128E031E040E050E011
:1049E0000E941F537B018C010E9485228823E1F7DE
:1049F00057016624772490C0C4018A0D9B1D8950FD
:104A0000914010F4740106C038E0E32E31E0F32E3B
:104A1000EA18FB088091BB059091BC05C816D90621
:104A200009F44EC08091BD05882371F00E94852253
:104A30008823E1F76091BB057091BC058091BA05B0
:104A40000E9445221092BD058091BA05813011F473
:104A500082E001C081E08093BA05D092BC05C0928B
:104A6000BB0588E0E81681E0F80648F40E9485223C
:104A70008823E1F7B6018091BA050E94A5220E9421
:104A800085228823E1F781E88983C601880F892F71
:104A9000881F990B91958A838C2D880F8B831C829C
:104AA0000E94A3218E010F5F1F4FF80181918F019A
:104AB0000E94D121CE01059608171907B1F7139A64
:104AC000A201460D571D9701B5018091BA050E94BC
:104AD000FA2181E08093BD056E0C7F1C970144276D
:104AE00055278091B6059091B705A091B805B09172
:104AF000B905820F931FA41FB51F8093B60590932D
:104B0000B705A093B805B093B9058E189F0808940F
:104B1000C11CD11CAA24BB248114910409F06CCFC0
:104B200080E090E024960FB6F894DEBF0FBECDBFB4
:104B3000DF91CF911F910F91FF90EF90DF90CF9079
:104B4000BF90AF909F908F907F906F905F904F90AD
:104B500008958F929F92AF92BF92CF92DF92EF9281
:104B6000FF920F931F93CF93DF93CDB7DEB72897B4
:104B70000FB6F894DEBF0FBECDBF4C015B01E090D5
:104B8000B605F090B7050091B8051091B905C801B8
:104B9000B70128E031E040E050E00E941F53690176
:104BA000C801B70128E031E040E050E00E941F5307
:104BB0008B018091BD05882309F12091BB053091BF
:104BC000BC052C153D05D0F0C8018A0D9B1D68E081
:104BD00071E00E94F8526C0D7D1D6217730770F032
:104BE0000E9485228823E1F76091BB057091BC0586
:104BF0008091BA050E9445221092BD050E9485222F
:104C00008823E1F788EE8983C601880F892F881FE2
:104C1000990B91958A832C2D220F812F9927282B70
:104C20002B830C831D821E821F8218860E94A32163
:104C30008E010F5F1F4FF80181918F010E94D121DA
:104C4000CE01099608171907B1F700E010E07401CA
:104C500007C00E94A921F70181937F010F5F1F4FB9
:104C60000A151B05B1F7139AC50128960FB6F894DB
:104C7000DEBF0FBECDBFDF91CF911F910F91FF908F
:104C8000EF90DF90CF90BF90AF909F908F9008955E
:104C90000F931F93CF93DF93EC018B010E9485222A
:104CA0008823E1F7BE0181E00E94A5220E948522AF
:104CB0008823E1F7B80181E00E9445220E94852205
:104CC0008823E1F7DF91CF911F910F910895AF9263
:104CD000BF92DF92EF92FF920F931F93CF93DF93D8
:104CE000EC01D62E5A0189018091BE05882311F46A
:104CF0000E947E2188E091E0C89F7001C99FF00C5E
:104D0000D89FF00C11246D2D7727C701860F971FB0
:104D1000AA2797FDA095BA2F8093B6059093B70563
:104D2000A093B805B093B905CB01800F911F8150B6
:104D300091402CF0C0E0D1E0C61BD70B01C0E801C8
:104D40000E9485228823E1F7BE01C5010E94BF248D
:104D50000E9485228823E1F7C017D107F8F4C70124
:104D6000885F9E4FAA2797FDA095BA2F8093B6051E
:104D70009093B705A093B805B093B9050E9485221A
:104D80008823E1F70C1B1D0BB801C5018C0F9D1F7B
:104D90000E94BF240E9485228823E1F7DF91CF91F2
:104DA0001F910F91FF90EF90DF90BF90AF9008950B
:104DB000AF92BF92DF92EF92FF920F931F93CF9328
:104DC000DF93EC01D62E5A0189018091BE0588231C
:104DD00011F40E947E2188E091E0C89F7001C99F74
:104DE000F00CD89FF00C11246D2D7727C701860F8A
:104DF000971FAA2797FDA095BA2F8093B605909389
:104E0000B705A093B805B093B905CB01800F911FEA
:104E1000815091402CF0C0E0D1E0C61BD70B01C0FF
:104E2000E8010E9485228823E1F7BE01C5010E94A6
:104E3000A9250E9485228823E1F7C017D107F8F43D
:104E4000C701885F9E4FAA2797FDA095BA2F809330
:104E5000B6059093B705A093B805B093B9050E9425
:104E600085228823E1F70C1B1D0BB801C5018C0FAF
:104E70009D1F0E94A9250E9485228823E1F7DF91CA
:104E8000CF911F910F91FF90EF90DF90BF90AF9067
:104E900008950F931F93CF93DF93CDB7DEB721977C
:104EA0000FB6F894DEBF0FBECDBF8C0169830E94A0
:104EB0009C46982FF999FECF8981D801082E0E942F
:104EC0006953892F0E94994621960FB6F894DEBF48
:104ED0000FBECDBFDF91CF911F910F9108951F930A
:104EE000CF93DF93EC01162F0E949C46F999FECFD9
:104EF000DE01012E0E9469530E949946DF91CF91F5
:104F00001F910895CF92DF92EF92FF920F931F931C
:104F1000CF93DF938C017B01C42E0E949C46D82E38
:104F2000C0E0D0E007C06C2DC8010E946F27219619
:104F30000F5F1F4FCE15DF05B4F38D2D0E949946EC
:104F4000DF91CF911F910F91FF90EF90DF90CF9065
:104F500008950F931F93CF93DF93CDB7DEB72197BB
:104F60000FB6F894DEBF0FBECDBF8C010E949C46E9
:104F7000982FF999FECFD8010E945C53802D898328
:104F8000892F0E9499468981992787FD90952196BE
:104F90000FB6F894DEBF0FBECDBFDF91CF911F914A
:104FA0000F910895DC01CB01FA01F999FECF019729
:104FB00024F001900E946953FACF0895DC01CB01DF
:104FC000FA01F999FECF019724F00E945C530192F7
:104FD000FACF08951F93CF93DF93EC010E949C4674
:104FE000F999FECFDE010E945C53102D0E94994674
:104FF000812F9927DF91CF911F9108950F931F93D0
:10500000CF93DF93EC010E949C46F999FECFDE011D
:105010000E9464538F010E949946C801DF91CF918D
:105020001F910F9108950F931F93CF93DF93CDB7E7
:10503000DEB722970FB6F894DEBF0FBECDBF8C014E
:105040000E949C46F999FECFD8010E946453FA83CE
:10505000E9830E94994689819A8122960FB6F89435
:10506000DEBF0FBECDBFDF91CF911F910F9108958D
:10507000CF92DF92EF92FF920F931F93CF93DF9324
:10508000EC010E949C46F999FECFDE010E94645318
:105090006F01F999FECFDE0112960E9464537F01E1
:1050A0000E949946002711278701FF24EE24C6019C
:1050B000AA27BB27E80EF91E0A1F1B1FC801B7014C
:1050C000DF91CF911F910F91FF90EF90DF90CF90E4
:1050D00008950F931F93CF93DF93CDB7DEB7249737
:1050E0000FB6F894DEBF0FBECDBF8C010E949C4668
:1050F000682FF999FECFD8010E946453AF01F99946
:10510000FECF98012E5F3F4FD9010E946453CF011B
:10511000AA27BB27DC0199278827FA019F0144278A
:105120005527820F931FA41FB51F89839A83AB83D2
:10513000BC83862F0E94994669817A818B819C81EC
:1051400024960FB6F894DEBF0FBECDBFDF91CF918E
:105150001F910F9108950F931F93CF93DF938C01AD
:10516000EB010E949C46F999FECFD8010E010E94E6
:1051700075530E949946DF91CF911F910F91089529
:105180000F931F93CF93DF93CDB7DEB722970FB660
:10519000F894DEBF0FBECDBF8C017A8369830E9475
:1051A0009C46282FF999FECF89819A81D8010C015C
:1051B0000E947553822F0E94994622960FB6F8944A
:1051C000DEBF0FBECDBFDF91CF911F910F9108952C
:1051D000EF92FF920F931F93CF93DF93EC017A012D
:1051E0008B010E949C46282FC801AA27BB27F9994A
:1051F000FECFDE0107010E947553F999FECFDE0153
:1052000012960C010E947553822F0E949946DF91DD
:10521000CF911F910F91FF90EF9008950F931F93DF
:10522000CF93DF93CDB7DEB724970FB6F894DEBFE8
:105230000FBECDBF8C0149835A836B837C830E9450
:105240009C46682F29813A814B815C81CA01AA273B
:10525000BB27F999FECFD80109010E947553F9992E
:10526000FECFD80112960C010E947553862F0E9422
:10527000994624960FB6F894DEBF0FBECDBFDF91DE
:10528000CF911F910F9108951F930E949C46182F54
:105290000E94772A809109078B7F80930907812FCD
:1052A0000E9499461F9108951F930E949C46182FB3
:1052B0000E94792A80910907846080930907812FD1
:1052C0000E9499461F9108951F930E949C46182F93
:1052D0008091090782FF03C00E94442902C00E94F6
:1052E0005429812F0E9499461F9108951F930E946F
:1052F0009C46182F0E94682A809109078D7F809311
:105300000907812F0E9499461F9108951F930E94BB
:105310009C46182F0E946A2A809109078260809318
:105320000907812F0E9499461F9108951F930E949B
:105330009C46182F8091090781FF03C00E9476299F
:1053400002C00E948629812F0E9499461F910895CC
:105350001F930E949C46182F0E94572A809109078C
:105360008E7F80930907812F0E9499461F9108958F
:105370001F930E949C46182F0E94592A809109076A
:10538000816080930907812F0E9499461F9108959B
:105390001F930E949C46182F8091090780FF03C02D
:1053A0000E94A82902C00E94B829812F0E94994614
:1053B0001F9108950E949320FC0190930B07809306
:1053C0000A078081813011F40E94B829E0910A0710
:1053D000F0910B078081882311F40E94A829E091A5
:1053E0000A07F0910B078081823011F40E94C829CE
:1053F000E0910A07F0910B078181813011F40E943E
:105400008629E0910A07F0910B078181882311F426
:105410000E947629E0910A07F0910B078181823082
:1054200011F40E949629E0910A07F0910B078281FE
:10543000813011F40E945429E0910A07F0910B0782
:105440008281882311F40E944429E0910A07F09197
:105450000B078281823011F40E94642908951F9302
:105460000E949C46182F109209070E94642A0E94ED
:10547000802A0E94732A0E94572A0E94772A0E943B
:10548000682A812F0E9499461F910895000000000C
:10549000089509C0000000000000000000000000A6
:1054A00000000000019718161906A4F30895129A37
:1054B00008951298089580B19927969587959695A5
:1054C00087958170907008950A9A08950A980895B2
:1054D000119A08951198089580B199279695879506
:1054E000817090700895099A089509980895109A06
:1054F00008951098089580B199278170907008954B
:10550000089A089508980895149A0895149808958B
:1055100080B1992744E0969587954A95E1F7817087
:10552000907008950C9A08950C980895159A08950E
:105530001598089580B1992755E0969587955A95C5
:10554000E1F78170907008950D9A08950D9808956F
:10555000179A08951798089580B1992787FD909517
:105560008827990F881F992708950F9A08950F98F3
:10557000089590916A00906290936A00882321F0C8
:1055800080916A00806103C080916A008F7E809361
:105590006A000895169A08951698089580B199277B
:1055A00076E0969587957A95E1F7817090700895E9
:1055B0000E9A08950E980895159A089515980895CD
:1055C00080B19927E5E096958795EA95E1F7817096
:1055D000907008950D9A08950D980895769A0895FB
:1055E000769808958CB19927F6E096958795FA9567
:1055F000E1F78170907008956E9A08956E980895FD
:10560000769A0895769808958CB19927A6E0969594
:105610008795AA95E1F78170907008956E9A089524
:105620006E9808955E9A08955E98089589B19927B5
:10563000B6E096958795BA95E1F7817090700895D8
:10564000569A0895569808955C9A08955C9808951E
:1056500089B1992724E0969587952A95E1F781707D
:1056600090700895549A089554980895289A08952A
:105670002898089583B19927817090700895209A91
:105680000895209808952F9A08952F98089583B12A
:10569000992787FD90958827990F881F9927089546
:1056A000279A0895279808955E9A08955E98089518
:1056B00089B1992746E0969587954A95E1F78170DB
:1056C00090700895569A089556980895139A0895DB
:1056D0001398089580B1992753E0969587955A9528
:1056E000E1F78170907008950B9A08950B980895D2
:1056F0005D9A08955D98089589B1992765E096951A
:1057000087956A95E1F7817090700895559A08958C
:10571000559808955B9A08955B98089589B19927E3
:1057200073E0969587957A95E1F78170907008956A
:10573000539A0895539808955A9A08955A98089537
:1057400089B19927969587959695879581709070E0
:105750000895529A089552980895749A08957498E5
:1057600008958CB19927F4E096958795FA95E1F71D
:105770008170907008956C9A08956C980895759A48
:105780000895759808958CB19927A5E09695879509
:10579000AA95E1F78170907008956D9A08956D98BB
:1057A0000895769A0895769808958CB19927B6E071
:1057B00096958795BA95E1F78170907008956E9AE5
:1057C00008956E980895779A0895779808958CB102
:1057D000992787FD90958827990F881F9927089505
:1057E0006F9A08956F9808952A9A08952A980895AF
:1057F00083B1992796958795969587958170907036
:105800000895229A0895229808952B9A08952B9826
:10581000089583B1992743E0969587954A95E1F7D6
:10582000817090700895239A089523980895299A75
:1058300008952998089583B1992796958795817041
:1058400090700895219A089521980895409A089596
:105850004098089586B19927817090700895389A7C
:10586000089538980895419A08954198089586B109
:10587000992796958795817090700895399A089523
:1058800039980895429A08954298089586B19927C3
:1058900096958795969587958170907008953A9A18
:1058A00008953A980895439A08954398089586B1C3
:1058B0009927E3E096958795EA95E1F781709070D6
:1058C00008953B9A08953B980895449A0895449802
:1058D000089586B19927F4E096958795FA95E1F7B2
:1058E0008170907008953C9A08953C980895459A67
:1058F00008954598089586B19927A5E096958795CE
:10590000AA95E1F78170907008953D9A08953D98A9
:105910000895469A08954698089586B19927B6E065
:1059200096958795BA95E1F78170907008953E9AA3
:1059300008953E980895479A08954798089586B126
:10594000992787FD90958827990F881F9927089593
:105950003F9A08953F980895589A08955898089541
:1059600089B19927817090700895509A0895509840
:105970000895599A08955998089589B19927969547
:105980008795817090700895519A0895519808955F
:10599000709A0895709808958CB1992781709070CD
:1059A0000895689A089568980895719A089571986D
:1059B00008958CB199279695879581709070089578
:1059C000699A089569980895729A08957298089549
:1059D0008CB199279695879596958795817090704B
:1059E00008956A9A08956A980895739A0895739825
:1059F00008958CB1992763E0969587956A95E1F7AC
:105A00008170907008956B9A08956B9808955A9AD2
:105A100008955A98089589B19927969587959695EE
:105A20008795817090700895529A089552980895BC
:105A30005B9A08955B98089589B19927E3E096955C
:105A40008795EA95E1F7817090700895539A0895CB
:105A5000539808955D9A08955D98089589B199279E
:105A6000F5E096958795FA95E1F781709070089525
:105A7000559A08955598089508950895089508959C
:105A800008958CB1881F8827881F992708956F9AD9
:105A900008956F980895429A089542980895439AF8
:105AA000089543980895449A089544980895459A0E
:105AB000089545980895469A0895469808950A9A33
:105AC000089A099A3F9A3E9A3D9A3C9A3B9A3A9A8A
:105AD000399A389A2398229A219A0E9A0D9A2098E8
